{"contracts/EnergyTrade.sol":{"EnergyTrade":{"abi":[{"inputs":[{"internalType":"address","name":"tokenAddress","type":"address"}],"stateMutability":"nonpayable","type":"constructor"},{"inputs":[],"name":"AccessControlBadConfirmation","type":"error"},{"inputs":[{"internalType":"address","name":"account","type":"address"},{"internalType":"bytes32","name":"neededRole","type":"bytes32"}],"name":"AccessControlUnauthorizedAccount","type":"error"},{"inputs":[],"name":"EnforcedPause","type":"error"},{"inputs":[],"name":"ExpectedPause","type":"error"},{"inputs":[],"name":"ReentrancyGuardReentrantCall","type":"error"},{"inputs":[{"internalType":"address","name":"token","type":"address"}],"name":"SafeERC20FailedOperation","type":"error"},{"anonymous":false,"inputs":[{"indexed":false,"internalType":"uint256","name":"bargainId","type":"uint256"},{"indexed":true,"internalType":"address","name":"proposer","type":"address"},{"indexed":true,"internalType":"address","name":"acceptor","type":"address"}],"name":"BargainAccepted","type":"event"},{"anonymous":false,"inputs":[{"indexed":false,"internalType":"uint256","name":"bargainId","type":"uint256"},{"indexed":true,"internalType":"address","name":"proposer","type":"address"},{"indexed":true,"internalType":"address","name":"acceptor","type":"address"},{"indexed":false,"internalType":"uint256","name":"amount","type":"uint256"},{"indexed":false,"internalType":"uint256","name":"pricePerUnit","type":"uint256"}],"name":"BargainProposed","type":"event"},{"anonymous":false,"inputs":[{"indexed":false,"internalType":"uint256","name":"bargainId","type":"uint256"},{"indexed":true,"internalType":"address","name":"proposer","type":"address"},{"indexed":true,"internalType":"address","name":"acceptor","type":"address"}],"name":"BargainRejected","type":"event"},{"anonymous":false,"inputs":[{"indexed":false,"internalType":"uint256","name":"tradeId","type":"uint256"},{"indexed":true,"internalType":"address","name":"resolver","type":"address"},{"indexed":false,"internalType":"string","name":"resolution","type":"string"}],"name":"DisputeResolved","type":"event"},{"anonymous":false,"inputs":[],"name":"EmergencyStopActivated","type":"event"},{"anonymous":false,"inputs":[],"name":"EmergencyStopDeactivated","type":"event"},{"anonymous":false,"inputs":[{"indexed":true,"internalType":"address","name":"producer","type":"address"},{"indexed":false,"internalType":"uint256","name":"amount","type":"uint256"},{"indexed":false,"internalType":"uint256","name":"pricePerUnit","type":"uint256"},{"indexed":false,"internalType":"uint256","name":"offerId","type":"uint256"}],"name":"EnergyDeposited","type":"event"},{"anonymous":false,"inputs":[{"indexed":false,"internalType":"uint256","name":"offerId","type":"uint256"}],"name":"EnergyOfferCanceled","type":"event"},{"anonymous":false,"inputs":[{"indexed":true,"internalType":"address","name":"buyer","type":"address"},{"indexed":true,"internalType":"address","name":"producer","type":"address"},{"indexed":false,"internalType":"uint256","name":"amount","type":"uint256"},{"indexed":false,"internalType":"uint256","name":"price","type":"uint256"},{"indexed":false,"internalType":"uint256","name":"tradeId","type":"uint256"}],"name":"EnergyPurchased","type":"event"},{"anonymous":false,"inputs":[{"indexed":true,"internalType":"address","name":"producer","type":"address"},{"indexed":false,"internalType":"uint256","name":"amount","type":"uint256"}],"name":"EnergyWithdrawn","type":"event"},{"anonymous":false,"inputs":[{"indexed":true,"internalType":"address","name":"participant","type":"address"},{"indexed":false,"internalType":"string","name":"name","type":"string"}],"name":"ParticipantRegistered","type":"event"},{"anonymous":false,"inputs":[{"indexed":false,"internalType":"address","name":"account","type":"address"}],"name":"Paused","type":"event"},{"anonymous":false,"inputs":[{"indexed":true,"internalType":"address","name":"buyer","type":"address"},{"indexed":true,"internalType":"address","name":"producer","type":"address"},{"indexed":false,"internalType":"uint256","name":"amount","type":"uint256"},{"indexed":false,"internalType":"uint8","name":"stage","type":"uint8"}],"name":"PaymentReleased","type":"event"},{"anonymous":false,"inputs":[{"indexed":false,"internalType":"uint256","name":"tradeId","type":"uint256"},{"indexed":true,"internalType":"address","name":"buyer","type":"address"},{"indexed":false,"internalType":"uint256","name":"amount","type":"uint256"},{"indexed":false,"internalType":"string","name":"note","type":"string"}],"name":"RefundRequested","type":"event"},{"anonymous":false,"inputs":[{"indexed":true,"internalType":"bytes32","name":"role","type":"bytes32"},{"indexed":true,"internalType":"bytes32","name":"previousAdminRole","type":"bytes32"},{"indexed":true,"internalType":"bytes32","name":"newAdminRole","type":"bytes32"}],"name":"RoleAdminChanged","type":"event"},{"anonymous":false,"inputs":[{"indexed":true,"internalType":"bytes32","name":"role","type":"bytes32"},{"indexed":true,"internalType":"address","name":"account","type":"address"},{"indexed":true,"internalType":"address","name":"sender","type":"address"}],"name":"RoleGranted","type":"event"},{"anonymous":false,"inputs":[{"indexed":true,"internalType":"bytes32","name":"role","type":"bytes32"},{"indexed":true,"internalType":"address","name":"account","type":"address"},{"indexed":true,"internalType":"address","name":"sender","type":"address"}],"name":"RoleRevoked","type":"event"},{"anonymous":false,"inputs":[{"indexed":true,"internalType":"address","name":"seller","type":"address"},{"indexed":false,"internalType":"uint256","name":"rewardAmount","type":"uint256"}],"name":"SellerRewarded","type":"event"},{"anonymous":false,"inputs":[{"indexed":false,"internalType":"address","name":"account","type":"address"}],"name":"Unpaused","type":"event"},{"inputs":[],"name":"CONSUMER_ROLE","outputs":[{"internalType":"bytes32","name":"","type":"bytes32"}],"stateMutability":"view","type":"function"},{"inputs":[],"name":"DEFAULT_ADMIN_ROLE","outputs":[{"internalType":"bytes32","name":"","type":"bytes32"}],"stateMutability":"view","type":"function"},{"inputs":[],"name":"PRODUCER_ROLE","outputs":[{"internalType":"bytes32","name":"","type":"bytes32"}],"stateMutability":"view","type":"function"},{"inputs":[{"internalType":"uint256","name":"bargainId","type":"uint256"}],"name":"acceptBargain","outputs":[],"stateMutability":"nonpayable","type":"function"},{"inputs":[{"internalType":"address","name":"user","type":"address"}],"name":"assignConsumerRole","outputs":[],"stateMutability":"nonpayable","type":"function"},{"inputs":[{"internalType":"address","name":"user","type":"address"}],"name":"assignProducerRole","outputs":[],"stateMutability":"nonpayable","type":"function"},{"inputs":[],"name":"bargainCounter","outputs":[{"internalType":"uint256","name":"","type":"uint256"}],"stateMutability":"view","type":"function"},{"inputs":[{"internalType":"uint256","name":"","type":"uint256"}],"name":"bargains","outputs":[{"internalType":"address","name":"proposer","type":"address"},{"internalType":"address","name":"acceptor","type":"address"},{"internalType":"uint256","name":"amount","type":"uint256"},{"internalType":"uint256","name":"pricePerUnit","type":"uint256"},{"internalType":"bool","name":"isAccepted","type":"bool"}],"stateMutability":"view","type":"function"},{"inputs":[{"internalType":"uint256","name":"offerId","type":"uint256"}],"name":"cancelEnergyOffer","outputs":[],"stateMutability":"nonpayable","type":"function"},{"inputs":[{"internalType":"uint256","name":"amount","type":"uint256"},{"internalType":"uint256","name":"pricePerUnit","type":"uint256"}],"name":"depositEnergy","outputs":[],"stateMutability":"nonpayable","type":"function"},{"inputs":[{"internalType":"uint256","name":"tradeId","type":"uint256"},{"internalType":"string","name":"resolution","type":"string"}],"name":"disputeTransaction","outputs":[],"stateMutability":"nonpayable","type":"function"},{"inputs":[{"internalType":"uint256","name":"","type":"uint256"}],"name":"energyOffers","outputs":[{"internalType":"address","name":"producer","type":"address"},{"internalType":"uint256","name":"amount","type":"uint256"},{"internalType":"uint256","name":"pricePerUnit","type":"uint256"},{"internalType":"bool","name":"isActive","type":"bool"},{"internalType":"uint256","name":"escrowedAmount","type":"uint256"},{"internalType":"uint8","name":"paymentStage","type":"uint8"}],"stateMutability":"view","type":"function"},{"inputs":[],"name":"energyToken","outputs":[{"internalType":"contract IERC20","name":"","type":"address"}],"stateMutability":"view","type":"function"},{"inputs":[],"name":"getEnergyOffers","outputs":[{"components":[{"internalType":"address","name":"producer","type":"address"},{"internalType":"uint256","name":"amount","type":"uint256"},{"internalType":"uint256","name":"pricePerUnit","type":"uint256"},{"internalType":"bool","name":"isActive","type":"bool"},{"internalType":"uint256","name":"escrowedAmount","type":"uint256"},{"internalType":"uint8","name":"paymentStage","type":"uint8"}],"internalType":"struct EnergyTrade.EnergyOffer[]","name":"","type":"tuple[]"}],"stateMutability":"view","type":"function"},{"inputs":[{"internalType":"bytes32","name":"role","type":"bytes32"}],"name":"getRoleAdmin","outputs":[{"internalType":"bytes32","name":"","type":"bytes32"}],"stateMutability":"view","type":"function"},{"inputs":[{"internalType":"address","name":"participantAddress","type":"address"}],"name":"getTradeHistory","outputs":[{"components":[{"internalType":"uint256","name":"tradeId","type":"uint256"},{"internalType":"address","name":"buyer","type":"address"},{"internalType":"address","name":"seller","type":"address"},{"internalType":"uint256","name":"amount","type":"uint256"},{"internalType":"uint256","name":"price","type":"uint256"},{"internalType":"uint256","name":"timestamp","type":"uint256"}],"internalType":"struct EnergyTrade.Trade[]","name":"","type":"tuple[]"}],"stateMutability":"view","type":"function"},{"inputs":[{"internalType":"bytes32","name":"role","type":"bytes32"},{"internalType":"address","name":"account","type":"address"}],"name":"grantRole","outputs":[],"stateMutability":"nonpayable","type":"function"},{"inputs":[{"internalType":"bytes32","name":"role","type":"bytes32"},{"internalType":"address","name":"account","type":"address"}],"name":"hasRole","outputs":[{"internalType":"bool","name":"","type":"bool"}],"stateMutability":"view","type":"function"},{"inputs":[{"internalType":"address","name":"tokenAddress","type":"address"}],"name":"initializeTradingPlatform","outputs":[],"stateMutability":"nonpayable","type":"function"},{"inputs":[],"name":"offerCounter","outputs":[{"internalType":"uint256","name":"","type":"uint256"}],"stateMutability":"view","type":"function"},{"inputs":[{"internalType":"address","name":"","type":"address"}],"name":"participants","outputs":[{"internalType":"string","name":"name","type":"string"},{"internalType":"bool","name":"isRegistered","type":"bool"}],"stateMutability":"view","type":"function"},{"inputs":[],"name":"pause","outputs":[],"stateMutability":"nonpayable","type":"function"},{"inputs":[],"name":"paused","outputs":[{"internalType":"bool","name":"","type":"bool"}],"stateMutability":"view","type":"function"},{"inputs":[{"internalType":"address","name":"acceptor","type":"address"},{"internalType":"uint256","name":"amount","type":"uint256"},{"internalType":"uint256","name":"pricePerUnit","type":"uint256"}],"name":"proposeBargain","outputs":[],"stateMutability":"nonpayable","type":"function"},{"inputs":[{"internalType":"uint256","name":"offerId","type":"uint256"},{"internalType":"uint256","name":"amount","type":"uint256"}],"name":"purchaseEnergy","outputs":[],"stateMutability":"nonpayable","type":"function"},{"inputs":[{"internalType":"uint256","name":"","type":"uint256"}],"name":"refunds","outputs":[{"internalType":"uint256","name":"tradeId","type":"uint256"},{"internalType":"address","name":"buyer","type":"address"},{"internalType":"uint256","name":"amount","type":"uint256"},{"internalType":"string","name":"note","type":"string"},{"internalType":"uint256","name":"timestamp","type":"uint256"}],"stateMutability":"view","type":"function"},{"inputs":[{"internalType":"address","name":"participantAddress","type":"address"},{"internalType":"string","name":"name","type":"string"}],"name":"registerParticipant","outputs":[],"stateMutability":"nonpayable","type":"function"},{"inputs":[{"internalType":"uint256","name":"bargainId","type":"uint256"}],"name":"rejectBargain","outputs":[],"stateMutability":"nonpayable","type":"function"},{"inputs":[{"internalType":"uint256","name":"offerId","type":"uint256"}],"name":"releasePayment","outputs":[],"stateMutability":"nonpayable","type":"function"},{"inputs":[{"internalType":"bytes32","name":"role","type":"bytes32"},{"internalType":"address","name":"callerConfirmation","type":"address"}],"name":"renounceRole","outputs":[],"stateMutability":"nonpayable","type":"function"},{"inputs":[{"internalType":"uint256","name":"tradeId","type":"uint256"},{"internalType":"string","name":"note","type":"string"}],"name":"requestRefund","outputs":[],"stateMutability":"nonpayable","type":"function"},{"inputs":[{"internalType":"bytes32","name":"role","type":"bytes32"},{"internalType":"address","name":"account","type":"address"}],"name":"revokeRole","outputs":[],"stateMutability":"nonpayable","type":"function"},{"inputs":[],"name":"rewardPoolAddress","outputs":[{"internalType":"address","name":"","type":"address"}],"stateMutability":"view","type":"function"},{"inputs":[],"name":"sellerRewardPercentage","outputs":[{"internalType":"uint256","name":"","type":"uint256"}],"stateMutability":"view","type":"function"},{"inputs":[{"internalType":"address","name":"_rewardPoolAddress","type":"address"}],"name":"setRewardPoolAddress","outputs":[],"stateMutability":"nonpayable","type":"function"},{"inputs":[{"internalType":"uint256","name":"_percentage","type":"uint256"}],"name":"setSellerRewardPercentage","outputs":[],"stateMutability":"nonpayable","type":"function"},{"inputs":[{"internalType":"bytes4","name":"interfaceId","type":"bytes4"}],"name":"supportsInterface","outputs":[{"internalType":"bool","name":"","type":"bool"}],"stateMutability":"view","type":"function"},{"inputs":[],"name":"tradeCounter","outputs":[{"internalType":"uint256","name":"","type":"uint256"}],"stateMutability":"view","type":"function"},{"inputs":[{"internalType":"address","name":"","type":"address"},{"internalType":"uint256","name":"","type":"uint256"}],"name":"tradeHistory","outputs":[{"internalType":"uint256","name":"tradeId","type":"uint256"},{"internalType":"address","name":"buyer","type":"address"},{"internalType":"address","name":"seller","type":"address"},{"internalType":"uint256","name":"amount","type":"uint256"},{"internalType":"uint256","name":"price","type":"uint256"},{"internalType":"uint256","name":"timestamp","type":"uint256"}],"stateMutability":"view","type":"function"},{"inputs":[],"name":"unpause","outputs":[],"stateMutability":"nonpayable","type":"function"},{"inputs":[{"internalType":"uint256","name":"offerId","type":"uint256"},{"internalType":"uint256","name":"amount","type":"uint256"}],"name":"withdrawEnergy","outputs":[],"stateMutability":"nonpayable","type":"function"}],"evm":{"bytecode":{"linkReferences":{},"object":"608034620000a257601f62002b6038819003918201601f19168301916001600160401b03831184841017620000a757808492602094604052833981010312620000a257516001600160a01b03811690819003620000a257600160005560ff19600154166001556005600c5560018060a01b031960035416176003556200008533620000bd565b5062000091336200013e565b5060405161295e9081620001e28239f35b600080fd5b634e487b7160e01b600052604160045260246000fd5b6001600160a01b031660008181527fac33ff75c19e70fe83507db0d683fd3465c996598dc972688b7ace676c89077b602052604081205490919060ff166200013a5781805260026020526040822081835260205260408220600160ff19825416179055339160008051602062002b408339815191528180a4600190565b5090565b6001600160a01b031660008181527fe5ebfa64fca8d502a8e50c1edffd2c31ef4dad5b396e65d9f397fb028f74abc560205260408120549091907fa49807205ce4d355092ef5a8a18f56e8913cf4a201fbe287825b095693c217759060ff16620001dc5780835260026020526040832082845260205260408320600160ff1982541617905560008051602062002b40833981519152339380a4600190565b50509056fe608080604052600436101561001357600080fd5b60003560e01c90816301ffc9a714611eb35750806303b5baae14611c9857806309e69ede14611c3557806320cf1c1614611afb578063248a9ca314611acc5780632c9aee1214611a6c5780632caa99db146119785780632f2ff15d1461193957806331f3ab37146116f157806336568abe146116aa57806337755ee11461168c5780633c939fe6146116635780633f0ef3cd146116455780633f4ba83a146115b65780633fa2f801146115435780634bc02da6146115085780634ec7fb81146114df57806356eb088b146114515780635c975abb1461142e578063621044b4146113eb578063660d15b5146113cd57806368df5711146112ad57806372ab1061146111e15780638456cb5914611163578063845a51ec1461113a57806388685cd914610fa557806391d1485414610f58578063a217fddf14610f3c578063a5b7d83514610eb4578063a7ecb21b14610e8b578063aeba9c5d14610d58578063b24cf5d714610d15578063b7a3c1da14610cf7578063c5ac3d4b146109bc578063cb3e1fe714610981578063d547741f14610940578063e36bd0f3146108c7578063e4258089146104be578063e58d5bdd1461045b578063ea493db61461024e5763fcdbcb83146101e257600080fd5b3461024957602036600319011261024957600435600052600860205260a06040600020600180831b0390818154169160018201541690600281015460ff60046003840154930154169260405194855260208501526040840152606083015215156080820152f35b600080fd5b346102495760003660031901126102495760006001600954905b8181111561041e575061027a826128fc565b916102886040519384611fba565b808352610297601f19916128fc565b0160005b8181106103dd575050600060015b8281111561032f5760408051602080825286518183018190528188019383019160005b8281106102d95784840385f35b855180516001600160a01b031685528083015185840152604080820151908601526060808201511515908601526080808201519086015260a09081015160ff16908501529481019460c0909301926001016102cc565b80600052600560209080825260406000209060ff918260038201541680610364575b505050505061035f90612574565b6102a9565b9161035f959693916103d295936040519461037e86611f82565b82546001600160a01b0316865260018301549086015260028201546040860152151560608501526004810154608085015201541660a08201526103c18288612914565b526103cc8187612914565b50612574565b919085808080610351565b6020906040516103ec81611f82565b6000815282600081830152600060408301526000606083015260006080830152600060a083015282870101520161029b565b80600052600560205260ff60036040600020015416610446575b61044190612574565b610268565b9161045361044191612574565b929050610438565b34610249577f7b71d2e00379bd165b2750d54298da2414376699827edca2bce2a096c491d2e961048a3661214b565b91906104946121f8565b61049c612583565b60405190815260406020820152806104b933946040830190612082565b0390a2005b3461024957602080600319360112610249576004359033600052600481526001916104f260ff8460406000200154166125a1565b6104fa612583565b806000526008825260406000209060018060a01b0361051f33828786015416146125de565b600483019182549261053460ff85161561261d565b8660ff19809516179055818454166040519182527f76e2b6eded10643703ac562b71ee89869c7323a1649df53ea508c798841e5a01863393a3610578600954612574565b8060095560ff600583865416600287019661060c60038954920154604051936105a085611f82565b84528a84019283526040840190815260608401908c825260808501936000855260a086019860008a52600052868d528960406000209651166001600160601b0360a01b875416178655518d860155516002850155511515600384019060ff801983541691151516179055565b516004820155019151168382541617905560095492549261062b61217e565b610633612583565b61063b612765565b600052600584526040600020600381019461065960ff875416612669565b8682019585875410610882576106736002840154876126a8565b6003546040516323b872dd60e01b815233600482015230602482015260448101839052919891908490829060649082906000908b165af190811561087657600091610840575b5015610803576106ca8782546126bb565b809155156107f7575b5060048201908154948786018096116107e1577f77b860e7bfd31f3b4f8aaf17ba74e4ea6ecf3f47baffe3b20cc2632efd5606d1956107b093556005840190815416905561076a610725600a54612574565b80600a5533600052600683526040600020868654166040519261074784611f82565b8352338584015260408301528860608301528960808301524260a08301526126c8565b838354168060005260068252604060002090600a54926040519361078d85611f82565b8452339084015260408301528660608301528760808301524260a08301526126c8565b541692600a54906107d96040519283923396846040919493926060820195825260208201520152565b0390a3600055005b634e487b7160e01b600052601160045260246000fd5b848154169055876106d3565b60405162461bcd60e51b8152600481018490526015602482015274151bdad95b881d1c985b9cd9995c8819985a5b1959605a1b6044820152606490fd5b90508381813d831161086f575b6108578183611fba565b8101031261024957518015158103610249578a6106b9565b503d61084d565b6040513d6000823e3d90fd5b60405162461bcd60e51b815260048101839052601d60248201527f496e73756666696369656e7420656e6572677920617661696c61626c650000006044820152606490fd5b346102495760203660031901126102495760043560005260076020526040600020805460018060a01b0360018301541691610936600282015491600461090f60038301611fdc565b9101549260405195869586526020860152604085015260a0606085015260a0840190612082565b9060808301520390f35b346102495760403660031901126102495761097f60043561095f611f32565b9080600052600260205261097a6001604060002001546122b0565b6124b2565b005b346102495760003660031901126102495760206040517f8eb467f061ca67f42a2d2ca4a346fc9fb645efc0ba75056ee9f71c3a0ccc10a88152f35b34610249576109ca3661214b565b6109d261217e565b6109da612583565b6109e2612765565b336000526006602052604060002060009160005b8254811015610ced5784610a0a8285612119565b505414610a1f57610a1a90612574565b6109f6565b610a2e91929350600193612119565b50546000526005602052604060002092600484016005815495610a52871515612788565b01600481546000610a8160ff831699610a6c858c106127c9565b610a7b60029b828d1c906126a8565b906126bb565b945560ff19161790556003546001600160a01b0390610aa590839033908416612815565b60405195610ab287611f9e565b83875260208701903382526040880184815260608901928784524260808b01528660005260076020526040600020948a5186558986019151166001600160601b0360a01b82541617905551908301555195865167ffffffffffffffff8111610cd757610b216003840154611f48565b601f8111610c90575b506020601f8211600114610bfc5791816080926004947fce9ac48bb8637f9be356c3a794c09a74d2638394460a91608aadaac2bd570383999a9b600092610bf1575b5050818b1b916000199060031b1c19161760038501555b015191015560405191825260208201526060604082015280610baa33946060830190612082565b0390a25b15610bba576001600055005b60405162461bcd60e51b815260206004820152600f60248201526e151c985919481b9bdd08199bdd5b99608a1b6044820152606490fd5b015190508b80610b6c565b6003840160005260206000209860005b601f1984168110610c7a57509782819a600495937fce9ac48bb8637f9be356c3a794c09a74d2638394460a91608aadaac2bd5703839a9b608096601f19811610610c61575b505050811b016003850155610b83565b015160001960f88460031b161c191690558b8080610c51565b828201518b559989019960209283019201610c0c565b600384016000526020600020601f830160051c810160208410610cd0575b89601f840160051c83018210610cc657505050610b2a565b6000825501610cae565b5080610cae565b634e487b7160e01b600052604160045260246000fd5b5050509050610bae565b34610249576000366003190112610249576020600954604051908152f35b3461024957602036600319011261024957610d2e611f1c565b610d366121f8565b600d80546001600160a01b0319166001600160a01b0392909216919091179055005b3461024957606036600319011261024957610d71611f1c565b6024357f76a0a209909a92641bb570255d07bc204a76afb6c633b6fc852c374a634fd015604435336000526004602052610db560ff600160406000200154166125a1565b610dbd612583565b610dc8831515612529565b610e6d610dd6600b54612574565b80600b55600460405191610de983611f9e565b338352602083019760018060a01b0380911698898152604085019089825260608601928884526080870194600086526000526008602052806040600020975116906001600160601b0360a01b9182895416178855600188019251169082541617905551600285015551600384015551151591019060ff801983541691151516179055565b600b54604080519182526020820194909452928301523391606090a3005b346102495760203660031901126102495761097f610ea7611f1c565b610eaf6121f8565b612389565b34610249576020366003190112610249577fc08033a1471ba43a35f49ebb61c3ef344b52f4a9b4369c4723e0ca50a09cc8936020600435610ef3612254565b610efb612583565b806000526005825260036040600020610f1e60018060a01b0382541633146128bd565b018054610f2d60ff8216612669565b60ff19169055604051908152a1005b3461024957600036600319011261024957602060405160008152f35b3461024957604036600319011261024957610f71611f32565b600435600052600260205260406000209060018060a01b0316600052602052602060ff604060002054166040519015158152f35b3461024957602036600319011261024957610fbe61217e565b610fc6612583565b610fce612765565b6004356000526005602052604060002060048101908154610ff0811515612788565b600582019283549260ff841692611009600485106127c9565b60021c9360ff84146107e15760ff6001819501169084191617855560018060a01b039161103f8584600354168585541690612815565b600484875416148061112d575b61108f575b50541692541660405191825260208201527f721605e86a076d65334a829748b9f8b82ff9790cceb6f19d48896a6f6dde000c60403392a36001600055005b61109f60649154600c54906126a8565b600354600d5484546040516323b872dd60e01b60208201529187166001600160a01b0390811660248401529087161660448201529290910460648084018290528352916110f89185166110f3608483611fba565b612861565b7f97574ec65b2fcfc0a5e16b2fcb4a8bf3c0b62146b225c4f8a8e6be101682048460208484541692604051908152a285611051565b5082600d5416151561104c565b3461024957600036600319011261024957600d546040516001600160a01b039091168152602090f35b346102495760003660031901126102495761117c6121f8565b611184612583565b600160ff19815416176001557f62e78cea01bee320cd4e420270b5ea74000d11b0c9f74754ebdbfc544b05a2586020604051338152a17f4e360eaf5c2a0e4ebb03155da87ffa096252cc2ec66db5848b4ef13e99172bbd600080a1005b346102495760203660031901126102495760043533600052600460205261121260ff600160406000200154166125a1565b61121a612583565b600081815260086020526040902060018101546001600160a01b03919061124490831633146125de565b61125560ff6004830154161561261d565b8260005260086020526000600460408220828155826001820155826002820155826003820155015554166040519182527f0de7d7ec2f07943907fc4356ae7a7fde4261b269b0741ab5b7c6de238b69bed360203393a3005b34610249577f14b07b963a834e1ea737910357471f18fe3af5ea9035fcfd6bdfd62d1b4830806112dc36611f06565b6112e7929192612254565b6112ef612583565b6112fa831515612529565b611305600954612574565b8060095560ff600560405161131981611f82565b338152602081018781526113946040830187815260608401906001825260808501936000855260a086019860008a526000528660205260406000209560018060a01b039051166001600160601b0360a01b875416178655516001860155516002850155511515600384019060ff801983541691151516179055565b5160048201550191511660ff19825416179055600954906104b96040519283923396846040919493926060820195825260208201520152565b34610249576000366003190112610249576020600a54604051908152f35b3461024957602036600319011261024957611404611f1c565b61140c6121f8565b600380546001600160a01b0319166001600160a01b0392909216919091179055005b3461024957600036600319011261024957602060ff600154166040519015158152f35b346102495760403660031901126102495761146a611f1c565b6024359060018060a01b038091166000526006602052604060002080548310156102495760c09261149a91612119565b509081549181600182015416916002820154166003820154906005600484015493015493604051958652602086015260408501526060840152608083015260a0820152f35b34610249576000366003190112610249576003546040516001600160a01b039091168152602090f35b346102495760003660031901126102495760206040517f9d56108290ea0bc9c5c59c3ad357dca9d1b29ed7f3ae1443bef2fa2159bdf5e88152f35b3461024957602036600319011261024957600435600052600560205260c0604060002060018060a01b0381541690600181015490600281015460ff6003830154169060ff6005600485015494015416936040519586526020860152604085015215156060840152608083015260a0820152f35b34610249576000366003190112610249576115cf6121f8565b60015460ff8116156116335760ff19166001557f5db9ee0a495bf2e6ff9c91a7834c1ba4fdd244a5e8aa4e537bd38aeae4b073aa6020604051338152a17f8aecbeb9f7203ec3dc62d2b9d20d5bcd70fe3808addcd647fc09e8b648441d92600080a1005b604051638dfc202b60e01b8152600490fd5b34610249576000366003190112610249576020600c54604051908152f35b346102495760203660031901126102495761097f61167f611f1c565b6116876121f8565b6122d6565b34610249576000366003190112610249576020600b54604051908152f35b34610249576040366003190112610249576116c3611f32565b336001600160a01b038216036116df5761097f906004356124b2565b60405163334bd91960e11b8152600490fd5b346102495760403660031901126102495761170a611f1c565b67ffffffffffffffff906024358281116102495761172c9036906004016120c2565b9060018060a01b0316918260005260209060048252600160ff8160406000200154166118ff57604051916040830183811082821117610cd757604052848352838301908282528660005260048552604060002093518051918211610cd7576117948554611f48565b601f81116118b6575b508590601f83116001146118295791807fbdb8c03a851fc898fb30c8b14ee28c26374ac77692867f54fbf009402f516e61989796949261180a969460009261181e575b5050600019600383901b1c191690831b1783555b51151591019060ff801983541691151516179055565b6104b9604051928284938452830190612082565b015190508a806117e0565b90601f1983169186600052876000209260005b8181106118a15750928694919261180a9793837fbdb8c03a851fc898fb30c8b14ee28c26374ac77692867f54fbf009402f516e619c9b9a989610611888575b505050811b0183556117f4565b015160001960f88460031b161c191690558a808061187b565b8284015185559387019392890192890161183c565b8560005286600020601f840160051c8101918885106118f5575b601f0160051c019085905b8281106118e957505061179d565b600081550185906118db565b90915081906118d0565b60405162461bcd60e51b8152600481018490526012602482015271105b1c9958591e481c9959da5cdd195c995960721b6044820152606490fd5b346102495760403660031901126102495761097f600435611958611f32565b908060005260026020526119736001604060002001546122b0565b612437565b346102495761198636611f06565b9061198f612254565b611997612583565b600052600560205260406000206119b860018060a01b0382541633146128bd565b600381019060018254916119ce60ff8416612669565b018054848110611a2757846119e2916126bb565b80915515611a1a575b826040519081527f3e191f34827057ae7a024d0827da720a2f1b54e6955366eb13e7e12493a9f8a360203392a2005b60ff1916905581806119eb565b60405162461bcd60e51b815260206004820152601b60248201527f4e6f7420656e6f75676820656e6572677920617661696c61626c6500000000006044820152606490fd5b3461024957602036600319011261024957600435611a886121f8565b60148111611a9557600c55005b60405162461bcd60e51b815260206004820152600f60248201526e0a4caeec2e4c840e8dede40d0d2ced608b1b6044820152606490fd5b346102495760203660031901126102495760043560005260026020526020600160406000200154604051908152f35b3461024957602080600319360112610249576001600160a01b039081611b1f611f1c565b166000526006908181526040600020908154611b3a816128fc565b93611b486040519586611fba565b8185528285018094600052836000206000915b848310611bd857505050505060405192818401908285525180915260408401929160005b828110611b8c5785850386f35b83518051865280830151881686840152604080820151891690870152606080820151908701526080808201519087015260a0908101519086015260c09094019392810192600101611b7f565b838660019260409a989a51611bec81611f82565b855481528c8587015416838201528c60028701541660408201526003860154606082015260048601546080820152600586015460a0820152815201920192019190969496611b5b565b34610249576020366003190112610249576001600160a01b03611c56611f1c565b166000526004602052611c8c604060002060ff6001611c7483611fdc565b92015416604051928392604084526040840190612082565b90151560208301520390f35b3461024957611ca636611f06565b90611caf61217e565b611cb7612583565b611cbf612765565b600052602090600582526040600020916003830192611ce160ff855416612669565b600181019083825410611e6e57611cfc6002820154856126a8565b6003546040516323b872dd60e01b81523360048201523060248201526044810183905291966001600160a01b0394909290918690829060649082906000908a165af190811561087657600091611e38575b5015611dfb57611d5e8682546126bb565b80915515611ded575b50600481018054938685018095116107e1577f77b860e7bfd31f3b4f8aaf17ba74e4ea6ecf3f47baffe3b20cc2632efd5606d194611dba92556005830160ff19815416905561076a610725600a54612574565b541692600a5490611de36040519283923396846040919493926060820195825260208201520152565b0390a36001600055005b805460ff1916905585611d67565b60405162461bcd60e51b8152600481018690526015602482015274151bdad95b881d1c985b9cd9995c8819985a5b1959605a1b6044820152606490fd5b90508581813d8311611e67575b611e4f8183611fba565b81010312610249575180151581036102495788611d4d565b503d611e45565b60405162461bcd60e51b815260048101849052601d60248201527f496e73756666696369656e7420656e6572677920617661696c61626c650000006044820152606490fd5b34610249576020366003190112610249576004359063ffffffff60e01b821680920361024957602091637965db0b60e01b8114908115611ef5575b5015158152f35b6301ffc9a760e01b14905083611eee565b6040906003190112610249576004359060243590565b600435906001600160a01b038216820361024957565b602435906001600160a01b038216820361024957565b90600182811c92168015611f78575b6020831014611f6257565b634e487b7160e01b600052602260045260246000fd5b91607f1691611f57565b60c0810190811067ffffffffffffffff821117610cd757604052565b60a0810190811067ffffffffffffffff821117610cd757604052565b90601f8019910116810190811067ffffffffffffffff821117610cd757604052565b9060405191826000825492611ff084611f48565b90818452600194858116908160001461205f575060011461201c575b505061201a92500383611fba565b565b9093915060005260209081600020936000915b81831061204757505061201a9350820101388061200c565b8554888401850152948501948794509183019161202f565b91505061201a94506020925060ff191682840152151560051b820101388061200c565b919082519283825260005b8481106120ae575050826000602080949584010152601f8019910116010190565b60208183018101518483018201520161208d565b81601f820112156102495780359067ffffffffffffffff8211610cd757604051926120f7601f8401601f191660200185611fba565b8284526020838301011161024957816000926020809301838601378301015290565b8054821015612135576000526006602060002091020190600090565b634e487b7160e01b600052603260045260246000fd5b90604060031983011261024957600435916024359067ffffffffffffffff82116102495761217b916004016120c2565b90565b3360009081527ff2243c5aeabdc1a3342fd992282b82fb10dc021fedecb5668e7b5ed708f44ee260205260409020547f9d56108290ea0bc9c5c59c3ad357dca9d1b29ed7f3ae1443bef2fa2159bdf5e89060ff16156121da5750565b6044906040519063e2517d3f60e01b82523360048301526024820152fd5b3360009081527fe5ebfa64fca8d502a8e50c1edffd2c31ef4dad5b396e65d9f397fb028f74abc560205260409020547fa49807205ce4d355092ef5a8a18f56e8913cf4a201fbe287825b095693c217759060ff16156121da5750565b3360009081527fe3505cb407e01cc077dd41b3257bbecaa41b7e8b4ba49f7a740e40a79e0f71dc60205260409020547f8eb467f061ca67f42a2d2ca4a346fc9fb645efc0ba75056ee9f71c3a0ccc10a89060ff16156121da5750565b80600052600260205260406000203360005260205260ff60406000205416156121da5750565b6001600160a01b031660008181527fe3505cb407e01cc077dd41b3257bbecaa41b7e8b4ba49f7a740e40a79e0f71dc60205260408120549091907f8eb467f061ca67f42a2d2ca4a346fc9fb645efc0ba75056ee9f71c3a0ccc10a89060ff166123845780835260026020526040832082845260205260408320600160ff198254161790557f2f8788117e7eff1d82e926ec794901d17c78024a50270940304540a733656f0d339380a4600190565b505090565b6001600160a01b031660008181527ff2243c5aeabdc1a3342fd992282b82fb10dc021fedecb5668e7b5ed708f44ee260205260408120549091907f9d56108290ea0bc9c5c59c3ad357dca9d1b29ed7f3ae1443bef2fa2159bdf5e89060ff166123845780835260026020526040832082845260205260408320600160ff198254161790557f2f8788117e7eff1d82e926ec794901d17c78024a50270940304540a733656f0d339380a4600190565b906000918083526002602052604083209160018060a01b03169182845260205260ff604084205416156000146123845780835260026020526040832082845260205260408320600160ff198254161790557f2f8788117e7eff1d82e926ec794901d17c78024a50270940304540a733656f0d339380a4600190565b906000918083526002602052604083209160018060a01b03169182845260205260ff604084205416600014612384578083526002602052604083208284526020526040832060ff1981541690557ff6391f5c32d9c69d2a47ea670b442974b53935d1edc7fd64eb21e047a839171b339380a4600190565b1561253057565b606460405162461bcd60e51b815260206004820152602060248201527f416d6f756e74206d7573742062652067726561746572207468616e207a65726f6044820152fd5b60001981146107e15760010190565b60ff6001541661258f57565b60405163d93c066560e01b8152600490fd5b156125a857565b60405162461bcd60e51b815260206004820152600e60248201526d139bdd081c9959da5cdd195c995960921b6044820152606490fd5b156125e557565b60405162461bcd60e51b815260206004820152601060248201526f2737ba103a34329030b1b1b2b83a37b960811b6044820152606490fd5b1561262457565b60405162461bcd60e51b815260206004820152601860248201527f4261726761696e20616c726561647920616363657074656400000000000000006044820152606490fd5b1561267057565b60405162461bcd60e51b815260206004820152601060248201526f4f66666572206e6f742061637469766560801b6044820152606490fd5b818102929181159184041417156107e157565b919082039182116107e157565b805468010000000000000000811015610cd7576126ea91600182018155612119565b91909161274f578051825560208101516001830180546001600160a01b039283166001600160a01b0319918216179091556040830151600285018054919093169116179055606081015160038301556080810151600483015560a00151600590910155565b634e487b7160e01b600052600060045260246000fd5b600260005414612776576002600055565b604051633ee5aeb560e01b8152600490fd5b1561278f57565b60405162461bcd60e51b8152602060048201526012602482015271139bc8195cd8dc9bddd95908185b5bdd5b9d60721b6044820152606490fd5b156127d057565b60405162461bcd60e51b815260206004820152601d60248201527f416c6c207061796d656e747320616c72656164792072656c65617365640000006044820152606490fd5b60405163a9059cbb60e01b60208201526001600160a01b039092166024830152604480830193909352918152608081019167ffffffffffffffff831182841017610cd75761201a926040525b906000602091828151910182855af115610876576000513d6128b457506001600160a01b0381163b155b6128925750565b604051635274afe760e01b81526001600160a01b039091166004820152602490fd5b6001141561288b565b156128c457565b60405162461bcd60e51b815260206004820152601060248201526f2737ba103a343290383937b23ab1b2b960811b6044820152606490fd5b67ffffffffffffffff8111610cd75760051b60200190565b80518210156121355760209160051b01019056fea26469706673582212208b60a0a67b66b970609f20841048e0d785048e84bc191eca8f75b4454cb2a90364736f6c634300081400332f8788117e7eff1d82e926ec794901d17c78024a50270940304540a733656f0d","opcodes":"PUSH1 0x80 CALLVALUE PUSH3 0xA2 JUMPI PUSH1 0x1F PUSH3 0x2B60 CODESIZE DUP2 SWAP1 SUB SWAP2 DUP3 ADD PUSH1 0x1F NOT AND DUP4 ADD SWAP2 PUSH1 0x1 PUSH1 0x1 PUSH1 0x40 SHL SUB DUP4 GT DUP5 DUP5 LT OR PUSH3 0xA7 JUMPI DUP1 DUP5 SWAP3 PUSH1 0x20 SWAP5 PUSH1 0x40 MSTORE DUP4 CODECOPY DUP2 ADD SUB SLT PUSH3 0xA2 JUMPI MLOAD PUSH1 0x1 PUSH1 0x1 PUSH1 0xA0 SHL SUB DUP2 AND SWAP1 DUP2 SWAP1 SUB PUSH3 0xA2 JUMPI PUSH1 0x1 PUSH1 0x0 SSTORE PUSH1 0xFF NOT PUSH1 0x1 SLOAD AND PUSH1 0x1 SSTORE PUSH1 0x5 PUSH1 0xC SSTORE PUSH1 0x1 DUP1 PUSH1 0xA0 SHL SUB NOT PUSH1 0x3 SLOAD AND OR PUSH1 0x3 SSTORE PUSH3 0x85 CALLER PUSH3 0xBD JUMP JUMPDEST POP PUSH3 0x91 CALLER PUSH3 0x13E JUMP JUMPDEST POP PUSH1 0x40 MLOAD PUSH2 0x295E SWAP1 DUP2 PUSH3 0x1E2 DUP3 CODECOPY RETURN JUMPDEST PUSH1 0x0 DUP1 REVERT JUMPDEST PUSH4 0x4E487B71 PUSH1 0xE0 SHL PUSH1 0x0 MSTORE PUSH1 0x41 PUSH1 0x4 MSTORE PUSH1 0x24 PUSH1 0x0 REVERT JUMPDEST PUSH1 0x1 PUSH1 0x1 PUSH1 0xA0 SHL SUB AND PUSH1 0x0 DUP2 DUP2 MSTORE PUSH32 0xAC33FF75C19E70FE83507DB0D683FD3465C996598DC972688B7ACE676C89077B PUSH1 0x20 MSTORE PUSH1 0x40 DUP2 KECCAK256 SLOAD SWAP1 SWAP2 SWAP1 PUSH1 0xFF AND PUSH3 0x13A JUMPI DUP2 DUP1 MSTORE PUSH1 0x2 PUSH1 0x20 MSTORE PUSH1 0x40 DUP3 KECCAK256 DUP2 DUP4 MSTORE PUSH1 0x20 MSTORE PUSH1 0x40 DUP3 KECCAK256 PUSH1 0x1 PUSH1 0xFF NOT DUP3 SLOAD AND OR SWAP1 SSTORE CALLER SWAP2 PUSH1 0x0 DUP1 MLOAD PUSH1 0x20 PUSH3 0x2B40 DUP4 CODECOPY DUP2 MLOAD SWAP2 MSTORE DUP2 DUP1 LOG4 PUSH1 0x1 SWAP1 JUMP JUMPDEST POP SWAP1 JUMP JUMPDEST PUSH1 0x1 PUSH1 0x1 PUSH1 0xA0 SHL SUB AND PUSH1 0x0 DUP2 DUP2 MSTORE PUSH32 0xE5EBFA64FCA8D502A8E50C1EDFFD2C31EF4DAD5B396E65D9F397FB028F74ABC5 PUSH1 0x20 MSTORE PUSH1 0x40 DUP2 KECCAK256 SLOAD SWAP1 SWAP2 SWAP1 PUSH32 0xA49807205CE4D355092EF5A8A18F56E8913CF4A201FBE287825B095693C21775 SWAP1 PUSH1 0xFF AND PUSH3 0x1DC JUMPI DUP1 DUP4 MSTORE PUSH1 0x2 PUSH1 0x20 MSTORE PUSH1 0x40 DUP4 KECCAK256 DUP3 DUP5 MSTORE PUSH1 0x20 MSTORE PUSH1 0x40 DUP4 KECCAK256 PUSH1 0x1 PUSH1 0xFF NOT DUP3 SLOAD AND OR SWAP1 SSTORE PUSH1 0x0 DUP1 MLOAD PUSH1 0x20 PUSH3 0x2B40 DUP4 CODECOPY DUP2 MLOAD SWAP2 MSTORE CALLER SWAP4 DUP1 LOG4 PUSH1 0x1 SWAP1 JUMP JUMPDEST POP POP SWAP1 JUMP INVALID PUSH1 0x80 DUP1 PUSH1 0x40 MSTORE PUSH1 0x4 CALLDATASIZE LT ISZERO PUSH2 0x13 JUMPI PUSH1 0x0 DUP1 REVERT JUMPDEST PUSH1 0x0 CALLDATALOAD PUSH1 0xE0 SHR SWAP1 DUP2 PUSH4 0x1FFC9A7 EQ PUSH2 0x1EB3 JUMPI POP DUP1 PUSH4 0x3B5BAAE EQ PUSH2 0x1C98 JUMPI DUP1 PUSH4 0x9E69EDE EQ PUSH2 0x1C35 JUMPI DUP1 PUSH4 0x20CF1C16 EQ PUSH2 0x1AFB JUMPI DUP1 PUSH4 0x248A9CA3 EQ PUSH2 0x1ACC JUMPI DUP1 PUSH4 0x2C9AEE12 EQ PUSH2 0x1A6C JUMPI DUP1 PUSH4 0x2CAA99DB EQ PUSH2 0x1978 JUMPI DUP1 PUSH4 0x2F2FF15D EQ PUSH2 0x1939 JUMPI DUP1 PUSH4 0x31F3AB37 EQ PUSH2 0x16F1 JUMPI DUP1 PUSH4 0x36568ABE EQ PUSH2 0x16AA JUMPI DUP1 PUSH4 0x37755EE1 EQ PUSH2 0x168C JUMPI DUP1 PUSH4 0x3C939FE6 EQ PUSH2 0x1663 JUMPI DUP1 PUSH4 0x3F0EF3CD EQ PUSH2 0x1645 JUMPI DUP1 PUSH4 0x3F4BA83A EQ PUSH2 0x15B6 JUMPI DUP1 PUSH4 0x3FA2F801 EQ PUSH2 0x1543 JUMPI DUP1 PUSH4 0x4BC02DA6 EQ PUSH2 0x1508 JUMPI DUP1 PUSH4 0x4EC7FB81 EQ PUSH2 0x14DF JUMPI DUP1 PUSH4 0x56EB088B EQ PUSH2 0x1451 JUMPI DUP1 PUSH4 0x5C975ABB EQ PUSH2 0x142E JUMPI DUP1 PUSH4 0x621044B4 EQ PUSH2 0x13EB JUMPI DUP1 PUSH4 0x660D15B5 EQ PUSH2 0x13CD JUMPI DUP1 PUSH4 0x68DF5711 EQ PUSH2 0x12AD JUMPI DUP1 PUSH4 0x72AB1061 EQ PUSH2 0x11E1 JUMPI DUP1 PUSH4 0x8456CB59 EQ PUSH2 0x1163 JUMPI DUP1 PUSH4 0x845A51EC EQ PUSH2 0x113A JUMPI DUP1 PUSH4 0x88685CD9 EQ PUSH2 0xFA5 JUMPI DUP1 PUSH4 0x91D14854 EQ PUSH2 0xF58 JUMPI DUP1 PUSH4 0xA217FDDF EQ PUSH2 0xF3C JUMPI DUP1 PUSH4 0xA5B7D835 EQ PUSH2 0xEB4 JUMPI DUP1 PUSH4 0xA7ECB21B EQ PUSH2 0xE8B JUMPI DUP1 PUSH4 0xAEBA9C5D EQ PUSH2 0xD58 JUMPI DUP1 PUSH4 0xB24CF5D7 EQ PUSH2 0xD15 JUMPI DUP1 PUSH4 0xB7A3C1DA EQ PUSH2 0xCF7 JUMPI DUP1 PUSH4 0xC5AC3D4B EQ PUSH2 0x9BC JUMPI DUP1 PUSH4 0xCB3E1FE7 EQ PUSH2 0x981 JUMPI DUP1 PUSH4 0xD547741F EQ PUSH2 0x940 JUMPI DUP1 PUSH4 0xE36BD0F3 EQ PUSH2 0x8C7 JUMPI DUP1 PUSH4 0xE4258089 EQ PUSH2 0x4BE JUMPI DUP1 PUSH4 0xE58D5BDD EQ PUSH2 0x45B JUMPI DUP1 PUSH4 0xEA493DB6 EQ PUSH2 0x24E JUMPI PUSH4 0xFCDBCB83 EQ PUSH2 0x1E2 JUMPI PUSH1 0x0 DUP1 REVERT JUMPDEST CALLVALUE PUSH2 0x249 JUMPI PUSH1 0x20 CALLDATASIZE PUSH1 0x3 NOT ADD SLT PUSH2 0x249 JUMPI PUSH1 0x4 CALLDATALOAD PUSH1 0x0 MSTORE PUSH1 0x8 PUSH1 0x20 MSTORE PUSH1 0xA0 PUSH1 0x40 PUSH1 0x0 KECCAK256 PUSH1 0x1 DUP1 DUP4 SHL SUB SWAP1 DUP2 DUP2 SLOAD AND SWAP2 PUSH1 0x1 DUP3 ADD SLOAD AND SWAP1 PUSH1 0x2 DUP2 ADD SLOAD PUSH1 0xFF PUSH1 0x4 PUSH1 0x3 DUP5 ADD SLOAD SWAP4 ADD SLOAD AND SWAP3 PUSH1 0x40 MLOAD SWAP5 DUP6 MSTORE PUSH1 0x20 DUP6 ADD MSTORE PUSH1 0x40 DUP5 ADD MSTORE PUSH1 0x60 DUP4 ADD MSTORE ISZERO ISZERO PUSH1 0x80 DUP3 ADD MSTORE RETURN JUMPDEST PUSH1 0x0 DUP1 REVERT JUMPDEST CALLVALUE PUSH2 0x249 JUMPI PUSH1 0x0 CALLDATASIZE PUSH1 0x3 NOT ADD SLT PUSH2 0x249 JUMPI PUSH1 0x0 PUSH1 0x1 PUSH1 0x9 SLOAD SWAP1 JUMPDEST DUP2 DUP2 GT ISZERO PUSH2 0x41E JUMPI POP PUSH2 0x27A DUP3 PUSH2 0x28FC JUMP JUMPDEST SWAP2 PUSH2 0x288 PUSH1 0x40 MLOAD SWAP4 DUP5 PUSH2 0x1FBA JUMP JUMPDEST DUP1 DUP4 MSTORE PUSH2 0x297 PUSH1 0x1F NOT SWAP2 PUSH2 0x28FC JUMP JUMPDEST ADD PUSH1 0x0 JUMPDEST DUP2 DUP2 LT PUSH2 0x3DD JUMPI POP POP PUSH1 0x0 PUSH1 0x1 JUMPDEST DUP3 DUP2 GT ISZERO PUSH2 0x32F JUMPI PUSH1 0x40 DUP1 MLOAD PUSH1 0x20 DUP1 DUP3 MSTORE DUP7 MLOAD DUP2 DUP4 ADD DUP2 SWAP1 MSTORE DUP2 DUP9 ADD SWAP4 DUP4 ADD SWAP2 PUSH1 0x0 JUMPDEST DUP3 DUP2 LT PUSH2 0x2D9 JUMPI DUP5 DUP5 SUB DUP6 RETURN JUMPDEST DUP6 MLOAD DUP1 MLOAD PUSH1 0x1 PUSH1 0x1 PUSH1 0xA0 SHL SUB AND DUP6 MSTORE DUP1 DUP4 ADD MLOAD DUP6 DUP5 ADD MSTORE PUSH1 0x40 DUP1 DUP3 ADD MLOAD SWAP1 DUP7 ADD MSTORE PUSH1 0x60 DUP1 DUP3 ADD MLOAD ISZERO ISZERO SWAP1 DUP7 ADD MSTORE PUSH1 0x80 DUP1 DUP3 ADD MLOAD SWAP1 DUP7 ADD MSTORE PUSH1 0xA0 SWAP1 DUP2 ADD MLOAD PUSH1 0xFF AND SWAP1 DUP6 ADD MSTORE SWAP5 DUP2 ADD SWAP5 PUSH1 0xC0 SWAP1 SWAP4 ADD SWAP3 PUSH1 0x1 ADD PUSH2 0x2CC JUMP JUMPDEST DUP1 PUSH1 0x0 MSTORE PUSH1 0x5 PUSH1 0x20 SWAP1 DUP1 DUP3 MSTORE PUSH1 0x40 PUSH1 0x0 KECCAK256 SWAP1 PUSH1 0xFF SWAP2 DUP3 PUSH1 0x3 DUP3 ADD SLOAD AND DUP1 PUSH2 0x364 JUMPI JUMPDEST POP POP POP POP POP PUSH2 0x35F SWAP1 PUSH2 0x2574 JUMP JUMPDEST PUSH2 0x2A9 JUMP JUMPDEST SWAP2 PUSH2 0x35F SWAP6 SWAP7 SWAP4 SWAP2 PUSH2 0x3D2 SWAP6 SWAP4 PUSH1 0x40 MLOAD SWAP5 PUSH2 0x37E DUP7 PUSH2 0x1F82 JUMP JUMPDEST DUP3 SLOAD PUSH1 0x1 PUSH1 0x1 PUSH1 0xA0 SHL SUB AND DUP7 MSTORE PUSH1 0x1 DUP4 ADD SLOAD SWAP1 DUP7 ADD MSTORE PUSH1 0x2 DUP3 ADD SLOAD PUSH1 0x40 DUP7 ADD MSTORE ISZERO ISZERO PUSH1 0x60 DUP6 ADD MSTORE PUSH1 0x4 DUP2 ADD SLOAD PUSH1 0x80 DUP6 ADD MSTORE ADD SLOAD AND PUSH1 0xA0 DUP3 ADD MSTORE PUSH2 0x3C1 DUP3 DUP9 PUSH2 0x2914 JUMP JUMPDEST MSTORE PUSH2 0x3CC DUP2 DUP8 PUSH2 0x2914 JUMP JUMPDEST POP PUSH2 0x2574 JUMP JUMPDEST SWAP2 SWAP1 DUP6 DUP1 DUP1 DUP1 PUSH2 0x351 JUMP JUMPDEST PUSH1 0x20 SWAP1 PUSH1 0x40 MLOAD PUSH2 0x3EC DUP2 PUSH2 0x1F82 JUMP JUMPDEST PUSH1 0x0 DUP2 MSTORE DUP3 PUSH1 0x0 DUP2 DUP4 ADD MSTORE PUSH1 0x0 PUSH1 0x40 DUP4 ADD MSTORE PUSH1 0x0 PUSH1 0x60 DUP4 ADD MSTORE PUSH1 0x0 PUSH1 0x80 DUP4 ADD MSTORE PUSH1 0x0 PUSH1 0xA0 DUP4 ADD MSTORE DUP3 DUP8 ADD ADD MSTORE ADD PUSH2 0x29B JUMP JUMPDEST DUP1 PUSH1 0x0 MSTORE PUSH1 0x5 PUSH1 0x20 MSTORE PUSH1 0xFF PUSH1 0x3 PUSH1 0x40 PUSH1 0x0 KECCAK256 ADD SLOAD AND PUSH2 0x446 JUMPI JUMPDEST PUSH2 0x441 SWAP1 PUSH2 0x2574 JUMP JUMPDEST PUSH2 0x268 JUMP JUMPDEST SWAP2 PUSH2 0x453 PUSH2 0x441 SWAP2 PUSH2 0x2574 JUMP JUMPDEST SWAP3 SWAP1 POP PUSH2 0x438 JUMP JUMPDEST CALLVALUE PUSH2 0x249 JUMPI PUSH32 0x7B71D2E00379BD165B2750D54298DA2414376699827EDCA2BCE2A096C491D2E9 PUSH2 0x48A CALLDATASIZE PUSH2 0x214B JUMP JUMPDEST SWAP2 SWAP1 PUSH2 0x494 PUSH2 0x21F8 JUMP JUMPDEST PUSH2 0x49C PUSH2 0x2583 JUMP JUMPDEST PUSH1 0x40 MLOAD SWAP1 DUP2 MSTORE PUSH1 0x40 PUSH1 0x20 DUP3 ADD MSTORE DUP1 PUSH2 0x4B9 CALLER SWAP5 PUSH1 0x40 DUP4 ADD SWAP1 PUSH2 0x2082 JUMP JUMPDEST SUB SWAP1 LOG2 STOP JUMPDEST CALLVALUE PUSH2 0x249 JUMPI PUSH1 0x20 DUP1 PUSH1 0x3 NOT CALLDATASIZE ADD SLT PUSH2 0x249 JUMPI PUSH1 0x4 CALLDATALOAD SWAP1 CALLER PUSH1 0x0 MSTORE PUSH1 0x4 DUP2 MSTORE PUSH1 0x1 SWAP2 PUSH2 0x4F2 PUSH1 0xFF DUP5 PUSH1 0x40 PUSH1 0x0 KECCAK256 ADD SLOAD AND PUSH2 0x25A1 JUMP JUMPDEST PUSH2 0x4FA PUSH2 0x2583 JUMP JUMPDEST DUP1 PUSH1 0x0 MSTORE PUSH1 0x8 DUP3 MSTORE PUSH1 0x40 PUSH1 0x0 KECCAK256 SWAP1 PUSH1 0x1 DUP1 PUSH1 0xA0 SHL SUB PUSH2 0x51F CALLER DUP3 DUP8 DUP7 ADD SLOAD AND EQ PUSH2 0x25DE JUMP JUMPDEST PUSH1 0x4 DUP4 ADD SWAP2 DUP3 SLOAD SWAP3 PUSH2 0x534 PUSH1 0xFF DUP6 AND ISZERO PUSH2 0x261D JUMP JUMPDEST DUP7 PUSH1 0xFF NOT DUP1 SWAP6 AND OR SWAP1 SSTORE DUP2 DUP5 SLOAD AND PUSH1 0x40 MLOAD SWAP2 DUP3 MSTORE PUSH32 0x76E2B6EDED10643703AC562B71EE89869C7323A1649DF53EA508C798841E5A01 DUP7 CALLER SWAP4 LOG3 PUSH2 0x578 PUSH1 0x9 SLOAD PUSH2 0x2574 JUMP JUMPDEST DUP1 PUSH1 0x9 SSTORE PUSH1 0xFF PUSH1 0x5 DUP4 DUP7 SLOAD AND PUSH1 0x2 DUP8 ADD SWAP7 PUSH2 0x60C PUSH1 0x3 DUP10 SLOAD SWAP3 ADD SLOAD PUSH1 0x40 MLOAD SWAP4 PUSH2 0x5A0 DUP6 PUSH2 0x1F82 JUMP JUMPDEST DUP5 MSTORE DUP11 DUP5 ADD SWAP3 DUP4 MSTORE PUSH1 0x40 DUP5 ADD SWAP1 DUP2 MSTORE PUSH1 0x60 DUP5 ADD SWAP1 DUP13 DUP3 MSTORE PUSH1 0x80 DUP6 ADD SWAP4 PUSH1 0x0 DUP6 MSTORE PUSH1 0xA0 DUP7 ADD SWAP9 PUSH1 0x0 DUP11 MSTORE PUSH1 0x0 MSTORE DUP7 DUP14 MSTORE DUP10 PUSH1 0x40 PUSH1 0x0 KECCAK256 SWAP7 MLOAD AND PUSH1 0x1 PUSH1 0x1 PUSH1 0x60 SHL SUB PUSH1 0xA0 SHL DUP8 SLOAD AND OR DUP7 SSTORE MLOAD DUP14 DUP7 ADD SSTORE MLOAD PUSH1 0x2 DUP6 ADD SSTORE MLOAD ISZERO ISZERO PUSH1 0x3 DUP5 ADD SWAP1 PUSH1 0xFF DUP1 NOT DUP4 SLOAD AND SWAP2 ISZERO ISZERO AND OR SWAP1 SSTORE JUMP JUMPDEST MLOAD PUSH1 0x4 DUP3 ADD SSTORE ADD SWAP2 MLOAD AND DUP4 DUP3 SLOAD AND OR SWAP1 SSTORE PUSH1 0x9 SLOAD SWAP3 SLOAD SWAP3 PUSH2 0x62B PUSH2 0x217E JUMP JUMPDEST PUSH2 0x633 PUSH2 0x2583 JUMP JUMPDEST PUSH2 0x63B PUSH2 0x2765 JUMP JUMPDEST PUSH1 0x0 MSTORE PUSH1 0x5 DUP5 MSTORE PUSH1 0x40 PUSH1 0x0 KECCAK256 PUSH1 0x3 DUP2 ADD SWAP5 PUSH2 0x659 PUSH1 0xFF DUP8 SLOAD AND PUSH2 0x2669 JUMP JUMPDEST DUP7 DUP3 ADD SWAP6 DUP6 DUP8 SLOAD LT PUSH2 0x882 JUMPI PUSH2 0x673 PUSH1 0x2 DUP5 ADD SLOAD DUP8 PUSH2 0x26A8 JUMP JUMPDEST PUSH1 0x3 SLOAD PUSH1 0x40 MLOAD PUSH4 0x23B872DD PUSH1 0xE0 SHL DUP2 MSTORE CALLER PUSH1 0x4 DUP3 ADD MSTORE ADDRESS PUSH1 0x24 DUP3 ADD MSTORE PUSH1 0x44 DUP2 ADD DUP4 SWAP1 MSTORE SWAP2 SWAP9 SWAP2 SWAP1 DUP5 SWAP1 DUP3 SWAP1 PUSH1 0x64 SWAP1 DUP3 SWAP1 PUSH1 0x0 SWAP1 DUP12 AND GAS CALL SWAP1 DUP2 ISZERO PUSH2 0x876 JUMPI PUSH1 0x0 SWAP2 PUSH2 0x840 JUMPI JUMPDEST POP ISZERO PUSH2 0x803 JUMPI PUSH2 0x6CA DUP8 DUP3 SLOAD PUSH2 0x26BB JUMP JUMPDEST DUP1 SWAP2 SSTORE ISZERO PUSH2 0x7F7 JUMPI JUMPDEST POP PUSH1 0x4 DUP3 ADD SWAP1 DUP2 SLOAD SWAP5 DUP8 DUP7 ADD DUP1 SWAP7 GT PUSH2 0x7E1 JUMPI PUSH32 0x77B860E7BFD31F3B4F8AAF17BA74E4EA6ECF3F47BAFFE3B20CC2632EFD5606D1 SWAP6 PUSH2 0x7B0 SWAP4 SSTORE PUSH1 0x5 DUP5 ADD SWAP1 DUP2 SLOAD AND SWAP1 SSTORE PUSH2 0x76A PUSH2 0x725 PUSH1 0xA SLOAD PUSH2 0x2574 JUMP JUMPDEST DUP1 PUSH1 0xA SSTORE CALLER PUSH1 0x0 MSTORE PUSH1 0x6 DUP4 MSTORE PUSH1 0x40 PUSH1 0x0 KECCAK256 DUP7 DUP7 SLOAD AND PUSH1 0x40 MLOAD SWAP3 PUSH2 0x747 DUP5 PUSH2 0x1F82 JUMP JUMPDEST DUP4 MSTORE CALLER DUP6 DUP5 ADD MSTORE PUSH1 0x40 DUP4 ADD MSTORE DUP9 PUSH1 0x60 DUP4 ADD MSTORE DUP10 PUSH1 0x80 DUP4 ADD MSTORE TIMESTAMP PUSH1 0xA0 DUP4 ADD MSTORE PUSH2 0x26C8 JUMP JUMPDEST DUP4 DUP4 SLOAD AND DUP1 PUSH1 0x0 MSTORE PUSH1 0x6 DUP3 MSTORE PUSH1 0x40 PUSH1 0x0 KECCAK256 SWAP1 PUSH1 0xA SLOAD SWAP3 PUSH1 0x40 MLOAD SWAP4 PUSH2 0x78D DUP6 PUSH2 0x1F82 JUMP JUMPDEST DUP5 MSTORE CALLER SWAP1 DUP5 ADD MSTORE PUSH1 0x40 DUP4 ADD MSTORE DUP7 PUSH1 0x60 DUP4 ADD MSTORE DUP8 PUSH1 0x80 DUP4 ADD MSTORE TIMESTAMP PUSH1 0xA0 DUP4 ADD MSTORE PUSH2 0x26C8 JUMP JUMPDEST SLOAD AND SWAP3 PUSH1 0xA SLOAD SWAP1 PUSH2 0x7D9 PUSH1 0x40 MLOAD SWAP3 DUP4 SWAP3 CALLER SWAP7 DUP5 PUSH1 0x40 SWAP2 SWAP5 SWAP4 SWAP3 PUSH1 0x60 DUP3 ADD SWAP6 DUP3 MSTORE PUSH1 0x20 DUP3 ADD MSTORE ADD MSTORE JUMP JUMPDEST SUB SWAP1 LOG3 PUSH1 0x0 SSTORE STOP JUMPDEST PUSH4 0x4E487B71 PUSH1 0xE0 SHL PUSH1 0x0 MSTORE PUSH1 0x11 PUSH1 0x4 MSTORE PUSH1 0x24 PUSH1 0x0 REVERT JUMPDEST DUP5 DUP2 SLOAD AND SWAP1 SSTORE DUP8 PUSH2 0x6D3 JUMP JUMPDEST PUSH1 0x40 MLOAD PUSH3 0x461BCD PUSH1 0xE5 SHL DUP2 MSTORE PUSH1 0x4 DUP2 ADD DUP5 SWAP1 MSTORE PUSH1 0x15 PUSH1 0x24 DUP3 ADD MSTORE PUSH21 0x151BDAD95B881D1C985B9CD9995C8819985A5B1959 PUSH1 0x5A SHL PUSH1 0x44 DUP3 ADD MSTORE PUSH1 0x64 SWAP1 REVERT JUMPDEST SWAP1 POP DUP4 DUP2 DUP2 RETURNDATASIZE DUP4 GT PUSH2 0x86F JUMPI JUMPDEST PUSH2 0x857 DUP2 DUP4 PUSH2 0x1FBA JUMP JUMPDEST DUP2 ADD SUB SLT PUSH2 0x249 JUMPI MLOAD DUP1 ISZERO ISZERO DUP2 SUB PUSH2 0x249 JUMPI DUP11 PUSH2 0x6B9 JUMP JUMPDEST POP RETURNDATASIZE PUSH2 0x84D JUMP JUMPDEST PUSH1 0x40 MLOAD RETURNDATASIZE PUSH1 0x0 DUP3 RETURNDATACOPY RETURNDATASIZE SWAP1 REVERT JUMPDEST PUSH1 0x40 MLOAD PUSH3 0x461BCD PUSH1 0xE5 SHL DUP2 MSTORE PUSH1 0x4 DUP2 ADD DUP4 SWAP1 MSTORE PUSH1 0x1D PUSH1 0x24 DUP3 ADD MSTORE PUSH32 0x496E73756666696369656E7420656E6572677920617661696C61626C65000000 PUSH1 0x44 DUP3 ADD MSTORE PUSH1 0x64 SWAP1 REVERT JUMPDEST CALLVALUE PUSH2 0x249 JUMPI PUSH1 0x20 CALLDATASIZE PUSH1 0x3 NOT ADD SLT PUSH2 0x249 JUMPI PUSH1 0x4 CALLDATALOAD PUSH1 0x0 MSTORE PUSH1 0x7 PUSH1 0x20 MSTORE PUSH1 0x40 PUSH1 0x0 KECCAK256 DUP1 SLOAD PUSH1 0x1 DUP1 PUSH1 0xA0 SHL SUB PUSH1 0x1 DUP4 ADD SLOAD AND SWAP2 PUSH2 0x936 PUSH1 0x2 DUP3 ADD SLOAD SWAP2 PUSH1 0x4 PUSH2 0x90F PUSH1 0x3 DUP4 ADD PUSH2 0x1FDC JUMP JUMPDEST SWAP2 ADD SLOAD SWAP3 PUSH1 0x40 MLOAD SWAP6 DUP7 SWAP6 DUP7 MSTORE PUSH1 0x20 DUP7 ADD MSTORE PUSH1 0x40 DUP6 ADD MSTORE PUSH1 0xA0 PUSH1 0x60 DUP6 ADD MSTORE PUSH1 0xA0 DUP5 ADD SWAP1 PUSH2 0x2082 JUMP JUMPDEST SWAP1 PUSH1 0x80 DUP4 ADD MSTORE SUB SWAP1 RETURN JUMPDEST CALLVALUE PUSH2 0x249 JUMPI PUSH1 0x40 CALLDATASIZE PUSH1 0x3 NOT ADD SLT PUSH2 0x249 JUMPI PUSH2 0x97F PUSH1 0x4 CALLDATALOAD PUSH2 0x95F PUSH2 0x1F32 JUMP JUMPDEST SWAP1 DUP1 PUSH1 0x0 MSTORE PUSH1 0x2 PUSH1 0x20 MSTORE PUSH2 0x97A PUSH1 0x1 PUSH1 0x40 PUSH1 0x0 KECCAK256 ADD SLOAD PUSH2 0x22B0 JUMP JUMPDEST PUSH2 0x24B2 JUMP JUMPDEST STOP JUMPDEST CALLVALUE PUSH2 0x249 JUMPI PUSH1 0x0 CALLDATASIZE PUSH1 0x3 NOT ADD SLT PUSH2 0x249 JUMPI PUSH1 0x20 PUSH1 0x40 MLOAD PUSH32 0x8EB467F061CA67F42A2D2CA4A346FC9FB645EFC0BA75056EE9F71C3A0CCC10A8 DUP2 MSTORE RETURN JUMPDEST CALLVALUE PUSH2 0x249 JUMPI PUSH2 0x9CA CALLDATASIZE PUSH2 0x214B JUMP JUMPDEST PUSH2 0x9D2 PUSH2 0x217E JUMP JUMPDEST PUSH2 0x9DA PUSH2 0x2583 JUMP JUMPDEST PUSH2 0x9E2 PUSH2 0x2765 JUMP JUMPDEST CALLER PUSH1 0x0 MSTORE PUSH1 0x6 PUSH1 0x20 MSTORE PUSH1 0x40 PUSH1 0x0 KECCAK256 PUSH1 0x0 SWAP2 PUSH1 0x0 JUMPDEST DUP3 SLOAD DUP2 LT ISZERO PUSH2 0xCED JUMPI DUP5 PUSH2 0xA0A DUP3 DUP6 PUSH2 0x2119 JUMP JUMPDEST POP SLOAD EQ PUSH2 0xA1F JUMPI PUSH2 0xA1A SWAP1 PUSH2 0x2574 JUMP JUMPDEST PUSH2 0x9F6 JUMP JUMPDEST PUSH2 0xA2E SWAP2 SWAP3 SWAP4 POP PUSH1 0x1 SWAP4 PUSH2 0x2119 JUMP JUMPDEST POP SLOAD PUSH1 0x0 MSTORE PUSH1 0x5 PUSH1 0x20 MSTORE PUSH1 0x40 PUSH1 0x0 KECCAK256 SWAP3 PUSH1 0x4 DUP5 ADD PUSH1 0x5 DUP2 SLOAD SWAP6 PUSH2 0xA52 DUP8 ISZERO ISZERO PUSH2 0x2788 JUMP JUMPDEST ADD PUSH1 0x4 DUP2 SLOAD PUSH1 0x0 PUSH2 0xA81 PUSH1 0xFF DUP4 AND SWAP10 PUSH2 0xA6C DUP6 DUP13 LT PUSH2 0x27C9 JUMP JUMPDEST PUSH2 0xA7B PUSH1 0x2 SWAP12 DUP3 DUP14 SHR SWAP1 PUSH2 0x26A8 JUMP JUMPDEST SWAP1 PUSH2 0x26BB JUMP JUMPDEST SWAP5 SSTORE PUSH1 0xFF NOT AND OR SWAP1 SSTORE PUSH1 0x3 SLOAD PUSH1 0x1 PUSH1 0x1 PUSH1 0xA0 SHL SUB SWAP1 PUSH2 0xAA5 SWAP1 DUP4 SWAP1 CALLER SWAP1 DUP5 AND PUSH2 0x2815 JUMP JUMPDEST PUSH1 0x40 MLOAD SWAP6 PUSH2 0xAB2 DUP8 PUSH2 0x1F9E JUMP JUMPDEST DUP4 DUP8 MSTORE PUSH1 0x20 DUP8 ADD SWAP1 CALLER DUP3 MSTORE PUSH1 0x40 DUP9 ADD DUP5 DUP2 MSTORE PUSH1 0x60 DUP10 ADD SWAP3 DUP8 DUP5 MSTORE TIMESTAMP PUSH1 0x80 DUP12 ADD MSTORE DUP7 PUSH1 0x0 MSTORE PUSH1 0x7 PUSH1 0x20 MSTORE PUSH1 0x40 PUSH1 0x0 KECCAK256 SWAP5 DUP11 MLOAD DUP7 SSTORE DUP10 DUP7 ADD SWAP2 MLOAD AND PUSH1 0x1 PUSH1 0x1 PUSH1 0x60 SHL SUB PUSH1 0xA0 SHL DUP3 SLOAD AND OR SWAP1 SSTORE MLOAD SWAP1 DUP4 ADD SSTORE MLOAD SWAP6 DUP7 MLOAD PUSH8 0xFFFFFFFFFFFFFFFF DUP2 GT PUSH2 0xCD7 JUMPI PUSH2 0xB21 PUSH1 0x3 DUP5 ADD SLOAD PUSH2 0x1F48 JUMP JUMPDEST PUSH1 0x1F DUP2 GT PUSH2 0xC90 JUMPI JUMPDEST POP PUSH1 0x20 PUSH1 0x1F DUP3 GT PUSH1 0x1 EQ PUSH2 0xBFC JUMPI SWAP2 DUP2 PUSH1 0x80 SWAP3 PUSH1 0x4 SWAP5 PUSH32 0xCE9AC48BB8637F9BE356C3A794C09A74D2638394460A91608AADAAC2BD570383 SWAP10 SWAP11 SWAP12 PUSH1 0x0 SWAP3 PUSH2 0xBF1 JUMPI JUMPDEST POP POP DUP2 DUP12 SHL SWAP2 PUSH1 0x0 NOT SWAP1 PUSH1 0x3 SHL SHR NOT AND OR PUSH1 0x3 DUP6 ADD SSTORE JUMPDEST ADD MLOAD SWAP2 ADD SSTORE PUSH1 0x40 MLOAD SWAP2 DUP3 MSTORE PUSH1 0x20 DUP3 ADD MSTORE PUSH1 0x60 PUSH1 0x40 DUP3 ADD MSTORE DUP1 PUSH2 0xBAA CALLER SWAP5 PUSH1 0x60 DUP4 ADD SWAP1 PUSH2 0x2082 JUMP JUMPDEST SUB SWAP1 LOG2 JUMPDEST ISZERO PUSH2 0xBBA JUMPI PUSH1 0x1 PUSH1 0x0 SSTORE STOP JUMPDEST PUSH1 0x40 MLOAD PUSH3 0x461BCD PUSH1 0xE5 SHL DUP2 MSTORE PUSH1 0x20 PUSH1 0x4 DUP3 ADD MSTORE PUSH1 0xF PUSH1 0x24 DUP3 ADD MSTORE PUSH15 0x151C985919481B9BDD08199BDD5B99 PUSH1 0x8A SHL PUSH1 0x44 DUP3 ADD MSTORE PUSH1 0x64 SWAP1 REVERT JUMPDEST ADD MLOAD SWAP1 POP DUP12 DUP1 PUSH2 0xB6C JUMP JUMPDEST PUSH1 0x3 DUP5 ADD PUSH1 0x0 MSTORE PUSH1 0x20 PUSH1 0x0 KECCAK256 SWAP9 PUSH1 0x0 JUMPDEST PUSH1 0x1F NOT DUP5 AND DUP2 LT PUSH2 0xC7A JUMPI POP SWAP8 DUP3 DUP2 SWAP11 PUSH1 0x4 SWAP6 SWAP4 PUSH32 0xCE9AC48BB8637F9BE356C3A794C09A74D2638394460A91608AADAAC2BD570383 SWAP11 SWAP12 PUSH1 0x80 SWAP7 PUSH1 0x1F NOT DUP2 AND LT PUSH2 0xC61 JUMPI JUMPDEST POP POP POP DUP2 SHL ADD PUSH1 0x3 DUP6 ADD SSTORE PUSH2 0xB83 JUMP JUMPDEST ADD MLOAD PUSH1 0x0 NOT PUSH1 0xF8 DUP5 PUSH1 0x3 SHL AND SHR NOT AND SWAP1 SSTORE DUP12 DUP1 DUP1 PUSH2 0xC51 JUMP JUMPDEST DUP3 DUP3 ADD MLOAD DUP12 SSTORE SWAP10 DUP10 ADD SWAP10 PUSH1 0x20 SWAP3 DUP4 ADD SWAP3 ADD PUSH2 0xC0C JUMP JUMPDEST PUSH1 0x3 DUP5 ADD PUSH1 0x0 MSTORE PUSH1 0x20 PUSH1 0x0 KECCAK256 PUSH1 0x1F DUP4 ADD PUSH1 0x5 SHR DUP2 ADD PUSH1 0x20 DUP5 LT PUSH2 0xCD0 JUMPI JUMPDEST DUP10 PUSH1 0x1F DUP5 ADD PUSH1 0x5 SHR DUP4 ADD DUP3 LT PUSH2 0xCC6 JUMPI POP POP POP PUSH2 0xB2A JUMP JUMPDEST PUSH1 0x0 DUP3 SSTORE ADD PUSH2 0xCAE JUMP JUMPDEST POP DUP1 PUSH2 0xCAE JUMP JUMPDEST PUSH4 0x4E487B71 PUSH1 0xE0 SHL PUSH1 0x0 MSTORE PUSH1 0x41 PUSH1 0x4 MSTORE PUSH1 0x24 PUSH1 0x0 REVERT JUMPDEST POP POP POP SWAP1 POP PUSH2 0xBAE JUMP JUMPDEST CALLVALUE PUSH2 0x249 JUMPI PUSH1 0x0 CALLDATASIZE PUSH1 0x3 NOT ADD SLT PUSH2 0x249 JUMPI PUSH1 0x20 PUSH1 0x9 SLOAD PUSH1 0x40 MLOAD SWAP1 DUP2 MSTORE RETURN JUMPDEST CALLVALUE PUSH2 0x249 JUMPI PUSH1 0x20 CALLDATASIZE PUSH1 0x3 NOT ADD SLT PUSH2 0x249 JUMPI PUSH2 0xD2E PUSH2 0x1F1C JUMP JUMPDEST PUSH2 0xD36 PUSH2 0x21F8 JUMP JUMPDEST PUSH1 0xD DUP1 SLOAD PUSH1 0x1 PUSH1 0x1 PUSH1 0xA0 SHL SUB NOT AND PUSH1 0x1 PUSH1 0x1 PUSH1 0xA0 SHL SUB SWAP3 SWAP1 SWAP3 AND SWAP2 SWAP1 SWAP2 OR SWAP1 SSTORE STOP JUMPDEST CALLVALUE PUSH2 0x249 JUMPI PUSH1 0x60 CALLDATASIZE PUSH1 0x3 NOT ADD SLT PUSH2 0x249 JUMPI PUSH2 0xD71 PUSH2 0x1F1C JUMP JUMPDEST PUSH1 0x24 CALLDATALOAD PUSH32 0x76A0A209909A92641BB570255D07BC204A76AFB6C633B6FC852C374A634FD015 PUSH1 0x44 CALLDATALOAD CALLER PUSH1 0x0 MSTORE PUSH1 0x4 PUSH1 0x20 MSTORE PUSH2 0xDB5 PUSH1 0xFF PUSH1 0x1 PUSH1 0x40 PUSH1 0x0 KECCAK256 ADD SLOAD AND PUSH2 0x25A1 JUMP JUMPDEST PUSH2 0xDBD PUSH2 0x2583 JUMP JUMPDEST PUSH2 0xDC8 DUP4 ISZERO ISZERO PUSH2 0x2529 JUMP JUMPDEST PUSH2 0xE6D PUSH2 0xDD6 PUSH1 0xB SLOAD PUSH2 0x2574 JUMP JUMPDEST DUP1 PUSH1 0xB SSTORE PUSH1 0x4 PUSH1 0x40 MLOAD SWAP2 PUSH2 0xDE9 DUP4 PUSH2 0x1F9E JUMP JUMPDEST CALLER DUP4 MSTORE PUSH1 0x20 DUP4 ADD SWAP8 PUSH1 0x1 DUP1 PUSH1 0xA0 SHL SUB DUP1 SWAP2 AND SWAP9 DUP10 DUP2 MSTORE PUSH1 0x40 DUP6 ADD SWAP1 DUP10 DUP3 MSTORE PUSH1 0x60 DUP7 ADD SWAP3 DUP9 DUP5 MSTORE PUSH1 0x80 DUP8 ADD SWAP5 PUSH1 0x0 DUP7 MSTORE PUSH1 0x0 MSTORE PUSH1 0x8 PUSH1 0x20 MSTORE DUP1 PUSH1 0x40 PUSH1 0x0 KECCAK256 SWAP8 MLOAD AND SWAP1 PUSH1 0x1 PUSH1 0x1 PUSH1 0x60 SHL SUB PUSH1 0xA0 SHL SWAP2 DUP3 DUP10 SLOAD AND OR DUP9 SSTORE PUSH1 0x1 DUP9 ADD SWAP3 MLOAD AND SWAP1 DUP3 SLOAD AND OR SWAP1 SSTORE MLOAD PUSH1 0x2 DUP6 ADD SSTORE MLOAD PUSH1 0x3 DUP5 ADD SSTORE MLOAD ISZERO ISZERO SWAP2 ADD SWAP1 PUSH1 0xFF DUP1 NOT DUP4 SLOAD AND SWAP2 ISZERO ISZERO AND OR SWAP1 SSTORE JUMP JUMPDEST PUSH1 0xB SLOAD PUSH1 0x40 DUP1 MLOAD SWAP2 DUP3 MSTORE PUSH1 0x20 DUP3 ADD SWAP5 SWAP1 SWAP5 MSTORE SWAP3 DUP4 ADD MSTORE CALLER SWAP2 PUSH1 0x60 SWAP1 LOG3 STOP JUMPDEST CALLVALUE PUSH2 0x249 JUMPI PUSH1 0x20 CALLDATASIZE PUSH1 0x3 NOT ADD SLT PUSH2 0x249 JUMPI PUSH2 0x97F PUSH2 0xEA7 PUSH2 0x1F1C JUMP JUMPDEST PUSH2 0xEAF PUSH2 0x21F8 JUMP JUMPDEST PUSH2 0x2389 JUMP JUMPDEST CALLVALUE PUSH2 0x249 JUMPI PUSH1 0x20 CALLDATASIZE PUSH1 0x3 NOT ADD SLT PUSH2 0x249 JUMPI PUSH32 0xC08033A1471BA43A35F49EBB61C3EF344B52F4A9B4369C4723E0CA50A09CC893 PUSH1 0x20 PUSH1 0x4 CALLDATALOAD PUSH2 0xEF3 PUSH2 0x2254 JUMP JUMPDEST PUSH2 0xEFB PUSH2 0x2583 JUMP JUMPDEST DUP1 PUSH1 0x0 MSTORE PUSH1 0x5 DUP3 MSTORE PUSH1 0x3 PUSH1 0x40 PUSH1 0x0 KECCAK256 PUSH2 0xF1E PUSH1 0x1 DUP1 PUSH1 0xA0 SHL SUB DUP3 SLOAD AND CALLER EQ PUSH2 0x28BD JUMP JUMPDEST ADD DUP1 SLOAD PUSH2 0xF2D PUSH1 0xFF DUP3 AND PUSH2 0x2669 JUMP JUMPDEST PUSH1 0xFF NOT AND SWAP1 SSTORE PUSH1 0x40 MLOAD SWAP1 DUP2 MSTORE LOG1 STOP JUMPDEST CALLVALUE PUSH2 0x249 JUMPI PUSH1 0x0 CALLDATASIZE PUSH1 0x3 NOT ADD SLT PUSH2 0x249 JUMPI PUSH1 0x20 PUSH1 0x40 MLOAD PUSH1 0x0 DUP2 MSTORE RETURN JUMPDEST CALLVALUE PUSH2 0x249 JUMPI PUSH1 0x40 CALLDATASIZE PUSH1 0x3 NOT ADD SLT PUSH2 0x249 JUMPI PUSH2 0xF71 PUSH2 0x1F32 JUMP JUMPDEST PUSH1 0x4 CALLDATALOAD PUSH1 0x0 MSTORE PUSH1 0x2 PUSH1 0x20 MSTORE PUSH1 0x40 PUSH1 0x0 KECCAK256 SWAP1 PUSH1 0x1 DUP1 PUSH1 0xA0 SHL SUB AND PUSH1 0x0 MSTORE PUSH1 0x20 MSTORE PUSH1 0x20 PUSH1 0xFF PUSH1 0x40 PUSH1 0x0 KECCAK256 SLOAD AND PUSH1 0x40 MLOAD SWAP1 ISZERO ISZERO DUP2 MSTORE RETURN JUMPDEST CALLVALUE PUSH2 0x249 JUMPI PUSH1 0x20 CALLDATASIZE PUSH1 0x3 NOT ADD SLT PUSH2 0x249 JUMPI PUSH2 0xFBE PUSH2 0x217E JUMP JUMPDEST PUSH2 0xFC6 PUSH2 0x2583 JUMP JUMPDEST PUSH2 0xFCE PUSH2 0x2765 JUMP JUMPDEST PUSH1 0x4 CALLDATALOAD PUSH1 0x0 MSTORE PUSH1 0x5 PUSH1 0x20 MSTORE PUSH1 0x40 PUSH1 0x0 KECCAK256 PUSH1 0x4 DUP2 ADD SWAP1 DUP2 SLOAD PUSH2 0xFF0 DUP2 ISZERO ISZERO PUSH2 0x2788 JUMP JUMPDEST PUSH1 0x5 DUP3 ADD SWAP3 DUP4 SLOAD SWAP3 PUSH1 0xFF DUP5 AND SWAP3 PUSH2 0x1009 PUSH1 0x4 DUP6 LT PUSH2 0x27C9 JUMP JUMPDEST PUSH1 0x2 SHR SWAP4 PUSH1 0xFF DUP5 EQ PUSH2 0x7E1 JUMPI PUSH1 0xFF PUSH1 0x1 DUP2 SWAP6 ADD AND SWAP1 DUP5 NOT AND OR DUP6 SSTORE PUSH1 0x1 DUP1 PUSH1 0xA0 SHL SUB SWAP2 PUSH2 0x103F DUP6 DUP5 PUSH1 0x3 SLOAD AND DUP6 DUP6 SLOAD AND SWAP1 PUSH2 0x2815 JUMP JUMPDEST PUSH1 0x4 DUP5 DUP8 SLOAD AND EQ DUP1 PUSH2 0x112D JUMPI JUMPDEST PUSH2 0x108F JUMPI JUMPDEST POP SLOAD AND SWAP3 SLOAD AND PUSH1 0x40 MLOAD SWAP2 DUP3 MSTORE PUSH1 0x20 DUP3 ADD MSTORE PUSH32 0x721605E86A076D65334A829748B9F8B82FF9790CCEB6F19D48896A6F6DDE000C PUSH1 0x40 CALLER SWAP3 LOG3 PUSH1 0x1 PUSH1 0x0 SSTORE STOP JUMPDEST PUSH2 0x109F PUSH1 0x64 SWAP2 SLOAD PUSH1 0xC SLOAD SWAP1 PUSH2 0x26A8 JUMP JUMPDEST PUSH1 0x3 SLOAD PUSH1 0xD SLOAD DUP5 SLOAD PUSH1 0x40 MLOAD PUSH4 0x23B872DD PUSH1 0xE0 SHL PUSH1 0x20 DUP3 ADD MSTORE SWAP2 DUP8 AND PUSH1 0x1 PUSH1 0x1 PUSH1 0xA0 SHL SUB SWAP1 DUP2 AND PUSH1 0x24 DUP5 ADD MSTORE SWAP1 DUP8 AND AND PUSH1 0x44 DUP3 ADD MSTORE SWAP3 SWAP1 SWAP2 DIV PUSH1 0x64 DUP1 DUP5 ADD DUP3 SWAP1 MSTORE DUP4 MSTORE SWAP2 PUSH2 0x10F8 SWAP2 DUP6 AND PUSH2 0x10F3 PUSH1 0x84 DUP4 PUSH2 0x1FBA JUMP JUMPDEST PUSH2 0x2861 JUMP JUMPDEST PUSH32 0x97574EC65B2FCFC0A5E16B2FCB4A8BF3C0B62146B225C4F8A8E6BE1016820484 PUSH1 0x20 DUP5 DUP5 SLOAD AND SWAP3 PUSH1 0x40 MLOAD SWAP1 DUP2 MSTORE LOG2 DUP6 PUSH2 0x1051 JUMP JUMPDEST POP DUP3 PUSH1 0xD SLOAD AND ISZERO ISZERO PUSH2 0x104C JUMP JUMPDEST CALLVALUE PUSH2 0x249 JUMPI PUSH1 0x0 CALLDATASIZE PUSH1 0x3 NOT ADD SLT PUSH2 0x249 JUMPI PUSH1 0xD SLOAD PUSH1 0x40 MLOAD PUSH1 0x1 PUSH1 0x1 PUSH1 0xA0 SHL SUB SWAP1 SWAP2 AND DUP2 MSTORE PUSH1 0x20 SWAP1 RETURN JUMPDEST CALLVALUE PUSH2 0x249 JUMPI PUSH1 0x0 CALLDATASIZE PUSH1 0x3 NOT ADD SLT PUSH2 0x249 JUMPI PUSH2 0x117C PUSH2 0x21F8 JUMP JUMPDEST PUSH2 0x1184 PUSH2 0x2583 JUMP JUMPDEST PUSH1 0x1 PUSH1 0xFF NOT DUP2 SLOAD AND OR PUSH1 0x1 SSTORE PUSH32 0x62E78CEA01BEE320CD4E420270B5EA74000D11B0C9F74754EBDBFC544B05A258 PUSH1 0x20 PUSH1 0x40 MLOAD CALLER DUP2 MSTORE LOG1 PUSH32 0x4E360EAF5C2A0E4EBB03155DA87FFA096252CC2EC66DB5848B4EF13E99172BBD PUSH1 0x0 DUP1 LOG1 STOP JUMPDEST CALLVALUE PUSH2 0x249 JUMPI PUSH1 0x20 CALLDATASIZE PUSH1 0x3 NOT ADD SLT PUSH2 0x249 JUMPI PUSH1 0x4 CALLDATALOAD CALLER PUSH1 0x0 MSTORE PUSH1 0x4 PUSH1 0x20 MSTORE PUSH2 0x1212 PUSH1 0xFF PUSH1 0x1 PUSH1 0x40 PUSH1 0x0 KECCAK256 ADD SLOAD AND PUSH2 0x25A1 JUMP JUMPDEST PUSH2 0x121A PUSH2 0x2583 JUMP JUMPDEST PUSH1 0x0 DUP2 DUP2 MSTORE PUSH1 0x8 PUSH1 0x20 MSTORE PUSH1 0x40 SWAP1 KECCAK256 PUSH1 0x1 DUP2 ADD SLOAD PUSH1 0x1 PUSH1 0x1 PUSH1 0xA0 SHL SUB SWAP2 SWAP1 PUSH2 0x1244 SWAP1 DUP4 AND CALLER EQ PUSH2 0x25DE JUMP JUMPDEST PUSH2 0x1255 PUSH1 0xFF PUSH1 0x4 DUP4 ADD SLOAD AND ISZERO PUSH2 0x261D JUMP JUMPDEST DUP3 PUSH1 0x0 MSTORE PUSH1 0x8 PUSH1 0x20 MSTORE PUSH1 0x0 PUSH1 0x4 PUSH1 0x40 DUP3 KECCAK256 DUP3 DUP2 SSTORE DUP3 PUSH1 0x1 DUP3 ADD SSTORE DUP3 PUSH1 0x2 DUP3 ADD SSTORE DUP3 PUSH1 0x3 DUP3 ADD SSTORE ADD SSTORE SLOAD AND PUSH1 0x40 MLOAD SWAP2 DUP3 MSTORE PUSH32 0xDE7D7EC2F07943907FC4356AE7A7FDE4261B269B0741AB5B7C6DE238B69BED3 PUSH1 0x20 CALLER SWAP4 LOG3 STOP JUMPDEST CALLVALUE PUSH2 0x249 JUMPI PUSH32 0x14B07B963A834E1EA737910357471F18FE3AF5EA9035FCFD6BDFD62D1B483080 PUSH2 0x12DC CALLDATASIZE PUSH2 0x1F06 JUMP JUMPDEST PUSH2 0x12E7 SWAP3 SWAP2 SWAP3 PUSH2 0x2254 JUMP JUMPDEST PUSH2 0x12EF PUSH2 0x2583 JUMP JUMPDEST PUSH2 0x12FA DUP4 ISZERO ISZERO PUSH2 0x2529 JUMP JUMPDEST PUSH2 0x1305 PUSH1 0x9 SLOAD PUSH2 0x2574 JUMP JUMPDEST DUP1 PUSH1 0x9 SSTORE PUSH1 0xFF PUSH1 0x5 PUSH1 0x40 MLOAD PUSH2 0x1319 DUP2 PUSH2 0x1F82 JUMP JUMPDEST CALLER DUP2 MSTORE PUSH1 0x20 DUP2 ADD DUP8 DUP2 MSTORE PUSH2 0x1394 PUSH1 0x40 DUP4 ADD DUP8 DUP2 MSTORE PUSH1 0x60 DUP5 ADD SWAP1 PUSH1 0x1 DUP3 MSTORE PUSH1 0x80 DUP6 ADD SWAP4 PUSH1 0x0 DUP6 MSTORE PUSH1 0xA0 DUP7 ADD SWAP9 PUSH1 0x0 DUP11 MSTORE PUSH1 0x0 MSTORE DUP7 PUSH1 0x20 MSTORE PUSH1 0x40 PUSH1 0x0 KECCAK256 SWAP6 PUSH1 0x1 DUP1 PUSH1 0xA0 SHL SUB SWAP1 MLOAD AND PUSH1 0x1 PUSH1 0x1 PUSH1 0x60 SHL SUB PUSH1 0xA0 SHL DUP8 SLOAD AND OR DUP7 SSTORE MLOAD PUSH1 0x1 DUP7 ADD SSTORE MLOAD PUSH1 0x2 DUP6 ADD SSTORE MLOAD ISZERO ISZERO PUSH1 0x3 DUP5 ADD SWAP1 PUSH1 0xFF DUP1 NOT DUP4 SLOAD AND SWAP2 ISZERO ISZERO AND OR SWAP1 SSTORE JUMP JUMPDEST MLOAD PUSH1 0x4 DUP3 ADD SSTORE ADD SWAP2 MLOAD AND PUSH1 0xFF NOT DUP3 SLOAD AND OR SWAP1 SSTORE PUSH1 0x9 SLOAD SWAP1 PUSH2 0x4B9 PUSH1 0x40 MLOAD SWAP3 DUP4 SWAP3 CALLER SWAP7 DUP5 PUSH1 0x40 SWAP2 SWAP5 SWAP4 SWAP3 PUSH1 0x60 DUP3 ADD SWAP6 DUP3 MSTORE PUSH1 0x20 DUP3 ADD MSTORE ADD MSTORE JUMP JUMPDEST CALLVALUE PUSH2 0x249 JUMPI PUSH1 0x0 CALLDATASIZE PUSH1 0x3 NOT ADD SLT PUSH2 0x249 JUMPI PUSH1 0x20 PUSH1 0xA SLOAD PUSH1 0x40 MLOAD SWAP1 DUP2 MSTORE RETURN JUMPDEST CALLVALUE PUSH2 0x249 JUMPI PUSH1 0x20 CALLDATASIZE PUSH1 0x3 NOT ADD SLT PUSH2 0x249 JUMPI PUSH2 0x1404 PUSH2 0x1F1C JUMP JUMPDEST PUSH2 0x140C PUSH2 0x21F8 JUMP JUMPDEST PUSH1 0x3 DUP1 SLOAD PUSH1 0x1 PUSH1 0x1 PUSH1 0xA0 SHL SUB NOT AND PUSH1 0x1 PUSH1 0x1 PUSH1 0xA0 SHL SUB SWAP3 SWAP1 SWAP3 AND SWAP2 SWAP1 SWAP2 OR SWAP1 SSTORE STOP JUMPDEST CALLVALUE PUSH2 0x249 JUMPI PUSH1 0x0 CALLDATASIZE PUSH1 0x3 NOT ADD SLT PUSH2 0x249 JUMPI PUSH1 0x20 PUSH1 0xFF PUSH1 0x1 SLOAD AND PUSH1 0x40 MLOAD SWAP1 ISZERO ISZERO DUP2 MSTORE RETURN JUMPDEST CALLVALUE PUSH2 0x249 JUMPI PUSH1 0x40 CALLDATASIZE PUSH1 0x3 NOT ADD SLT PUSH2 0x249 JUMPI PUSH2 0x146A PUSH2 0x1F1C JUMP JUMPDEST PUSH1 0x24 CALLDATALOAD SWAP1 PUSH1 0x1 DUP1 PUSH1 0xA0 SHL SUB DUP1 SWAP2 AND PUSH1 0x0 MSTORE PUSH1 0x6 PUSH1 0x20 MSTORE PUSH1 0x40 PUSH1 0x0 KECCAK256 DUP1 SLOAD DUP4 LT ISZERO PUSH2 0x249 JUMPI PUSH1 0xC0 SWAP3 PUSH2 0x149A SWAP2 PUSH2 0x2119 JUMP JUMPDEST POP SWAP1 DUP2 SLOAD SWAP2 DUP2 PUSH1 0x1 DUP3 ADD SLOAD AND SWAP2 PUSH1 0x2 DUP3 ADD SLOAD AND PUSH1 0x3 DUP3 ADD SLOAD SWAP1 PUSH1 0x5 PUSH1 0x4 DUP5 ADD SLOAD SWAP4 ADD SLOAD SWAP4 PUSH1 0x40 MLOAD SWAP6 DUP7 MSTORE PUSH1 0x20 DUP7 ADD MSTORE PUSH1 0x40 DUP6 ADD MSTORE PUSH1 0x60 DUP5 ADD MSTORE PUSH1 0x80 DUP4 ADD MSTORE PUSH1 0xA0 DUP3 ADD MSTORE RETURN JUMPDEST CALLVALUE PUSH2 0x249 JUMPI PUSH1 0x0 CALLDATASIZE PUSH1 0x3 NOT ADD SLT PUSH2 0x249 JUMPI PUSH1 0x3 SLOAD PUSH1 0x40 MLOAD PUSH1 0x1 PUSH1 0x1 PUSH1 0xA0 SHL SUB SWAP1 SWAP2 AND DUP2 MSTORE PUSH1 0x20 SWAP1 RETURN JUMPDEST CALLVALUE PUSH2 0x249 JUMPI PUSH1 0x0 CALLDATASIZE PUSH1 0x3 NOT ADD SLT PUSH2 0x249 JUMPI PUSH1 0x20 PUSH1 0x40 MLOAD PUSH32 0x9D56108290EA0BC9C5C59C3AD357DCA9D1B29ED7F3AE1443BEF2FA2159BDF5E8 DUP2 MSTORE RETURN JUMPDEST CALLVALUE PUSH2 0x249 JUMPI PUSH1 0x20 CALLDATASIZE PUSH1 0x3 NOT ADD SLT PUSH2 0x249 JUMPI PUSH1 0x4 CALLDATALOAD PUSH1 0x0 MSTORE PUSH1 0x5 PUSH1 0x20 MSTORE PUSH1 0xC0 PUSH1 0x40 PUSH1 0x0 KECCAK256 PUSH1 0x1 DUP1 PUSH1 0xA0 SHL SUB DUP2 SLOAD AND SWAP1 PUSH1 0x1 DUP2 ADD SLOAD SWAP1 PUSH1 0x2 DUP2 ADD SLOAD PUSH1 0xFF PUSH1 0x3 DUP4 ADD SLOAD AND SWAP1 PUSH1 0xFF PUSH1 0x5 PUSH1 0x4 DUP6 ADD SLOAD SWAP5 ADD SLOAD AND SWAP4 PUSH1 0x40 MLOAD SWAP6 DUP7 MSTORE PUSH1 0x20 DUP7 ADD MSTORE PUSH1 0x40 DUP6 ADD MSTORE ISZERO ISZERO PUSH1 0x60 DUP5 ADD MSTORE PUSH1 0x80 DUP4 ADD MSTORE PUSH1 0xA0 DUP3 ADD MSTORE RETURN JUMPDEST CALLVALUE PUSH2 0x249 JUMPI PUSH1 0x0 CALLDATASIZE PUSH1 0x3 NOT ADD SLT PUSH2 0x249 JUMPI PUSH2 0x15CF PUSH2 0x21F8 JUMP JUMPDEST PUSH1 0x1 SLOAD PUSH1 0xFF DUP2 AND ISZERO PUSH2 0x1633 JUMPI PUSH1 0xFF NOT AND PUSH1 0x1 SSTORE PUSH32 0x5DB9EE0A495BF2E6FF9C91A7834C1BA4FDD244A5E8AA4E537BD38AEAE4B073AA PUSH1 0x20 PUSH1 0x40 MLOAD CALLER DUP2 MSTORE LOG1 PUSH32 0x8AECBEB9F7203EC3DC62D2B9D20D5BCD70FE3808ADDCD647FC09E8B648441D92 PUSH1 0x0 DUP1 LOG1 STOP JUMPDEST PUSH1 0x40 MLOAD PUSH4 0x8DFC202B PUSH1 0xE0 SHL DUP2 MSTORE PUSH1 0x4 SWAP1 REVERT JUMPDEST CALLVALUE PUSH2 0x249 JUMPI PUSH1 0x0 CALLDATASIZE PUSH1 0x3 NOT ADD SLT PUSH2 0x249 JUMPI PUSH1 0x20 PUSH1 0xC SLOAD PUSH1 0x40 MLOAD SWAP1 DUP2 MSTORE RETURN JUMPDEST CALLVALUE PUSH2 0x249 JUMPI PUSH1 0x20 CALLDATASIZE PUSH1 0x3 NOT ADD SLT PUSH2 0x249 JUMPI PUSH2 0x97F PUSH2 0x167F PUSH2 0x1F1C JUMP JUMPDEST PUSH2 0x1687 PUSH2 0x21F8 JUMP JUMPDEST PUSH2 0x22D6 JUMP JUMPDEST CALLVALUE PUSH2 0x249 JUMPI PUSH1 0x0 CALLDATASIZE PUSH1 0x3 NOT ADD SLT PUSH2 0x249 JUMPI PUSH1 0x20 PUSH1 0xB SLOAD PUSH1 0x40 MLOAD SWAP1 DUP2 MSTORE RETURN JUMPDEST CALLVALUE PUSH2 0x249 JUMPI PUSH1 0x40 CALLDATASIZE PUSH1 0x3 NOT ADD SLT PUSH2 0x249 JUMPI PUSH2 0x16C3 PUSH2 0x1F32 JUMP JUMPDEST CALLER PUSH1 0x1 PUSH1 0x1 PUSH1 0xA0 SHL SUB DUP3 AND SUB PUSH2 0x16DF JUMPI PUSH2 0x97F SWAP1 PUSH1 0x4 CALLDATALOAD PUSH2 0x24B2 JUMP JUMPDEST PUSH1 0x40 MLOAD PUSH4 0x334BD919 PUSH1 0xE1 SHL DUP2 MSTORE PUSH1 0x4 SWAP1 REVERT JUMPDEST CALLVALUE PUSH2 0x249 JUMPI PUSH1 0x40 CALLDATASIZE PUSH1 0x3 NOT ADD SLT PUSH2 0x249 JUMPI PUSH2 0x170A PUSH2 0x1F1C JUMP JUMPDEST PUSH8 0xFFFFFFFFFFFFFFFF SWAP1 PUSH1 0x24 CALLDATALOAD DUP3 DUP2 GT PUSH2 0x249 JUMPI PUSH2 0x172C SWAP1 CALLDATASIZE SWAP1 PUSH1 0x4 ADD PUSH2 0x20C2 JUMP JUMPDEST SWAP1 PUSH1 0x1 DUP1 PUSH1 0xA0 SHL SUB AND SWAP2 DUP3 PUSH1 0x0 MSTORE PUSH1 0x20 SWAP1 PUSH1 0x4 DUP3 MSTORE PUSH1 0x1 PUSH1 0xFF DUP2 PUSH1 0x40 PUSH1 0x0 KECCAK256 ADD SLOAD AND PUSH2 0x18FF JUMPI PUSH1 0x40 MLOAD SWAP2 PUSH1 0x40 DUP4 ADD DUP4 DUP2 LT DUP3 DUP3 GT OR PUSH2 0xCD7 JUMPI PUSH1 0x40 MSTORE DUP5 DUP4 MSTORE DUP4 DUP4 ADD SWAP1 DUP3 DUP3 MSTORE DUP7 PUSH1 0x0 MSTORE PUSH1 0x4 DUP6 MSTORE PUSH1 0x40 PUSH1 0x0 KECCAK256 SWAP4 MLOAD DUP1 MLOAD SWAP2 DUP3 GT PUSH2 0xCD7 JUMPI PUSH2 0x1794 DUP6 SLOAD PUSH2 0x1F48 JUMP JUMPDEST PUSH1 0x1F DUP2 GT PUSH2 0x18B6 JUMPI JUMPDEST POP DUP6 SWAP1 PUSH1 0x1F DUP4 GT PUSH1 0x1 EQ PUSH2 0x1829 JUMPI SWAP2 DUP1 PUSH32 0xBDB8C03A851FC898FB30C8B14EE28C26374AC77692867F54FBF009402F516E61 SWAP9 SWAP8 SWAP7 SWAP5 SWAP3 PUSH2 0x180A SWAP7 SWAP5 PUSH1 0x0 SWAP3 PUSH2 0x181E JUMPI JUMPDEST POP POP PUSH1 0x0 NOT PUSH1 0x3 DUP4 SWAP1 SHL SHR NOT AND SWAP1 DUP4 SHL OR DUP4 SSTORE JUMPDEST MLOAD ISZERO ISZERO SWAP2 ADD SWAP1 PUSH1 0xFF DUP1 NOT DUP4 SLOAD AND SWAP2 ISZERO ISZERO AND OR SWAP1 SSTORE JUMP JUMPDEST PUSH2 0x4B9 PUSH1 0x40 MLOAD SWAP3 DUP3 DUP5 SWAP4 DUP5 MSTORE DUP4 ADD SWAP1 PUSH2 0x2082 JUMP JUMPDEST ADD MLOAD SWAP1 POP DUP11 DUP1 PUSH2 0x17E0 JUMP JUMPDEST SWAP1 PUSH1 0x1F NOT DUP4 AND SWAP2 DUP7 PUSH1 0x0 MSTORE DUP8 PUSH1 0x0 KECCAK256 SWAP3 PUSH1 0x0 JUMPDEST DUP2 DUP2 LT PUSH2 0x18A1 JUMPI POP SWAP3 DUP7 SWAP5 SWAP2 SWAP3 PUSH2 0x180A SWAP8 SWAP4 DUP4 PUSH32 0xBDB8C03A851FC898FB30C8B14EE28C26374AC77692867F54FBF009402F516E61 SWAP13 SWAP12 SWAP11 SWAP9 SWAP7 LT PUSH2 0x1888 JUMPI JUMPDEST POP POP POP DUP2 SHL ADD DUP4 SSTORE PUSH2 0x17F4 JUMP JUMPDEST ADD MLOAD PUSH1 0x0 NOT PUSH1 0xF8 DUP5 PUSH1 0x3 SHL AND SHR NOT AND SWAP1 SSTORE DUP11 DUP1 DUP1 PUSH2 0x187B JUMP JUMPDEST DUP3 DUP5 ADD MLOAD DUP6 SSTORE SWAP4 DUP8 ADD SWAP4 SWAP3 DUP10 ADD SWAP3 DUP10 ADD PUSH2 0x183C JUMP JUMPDEST DUP6 PUSH1 0x0 MSTORE DUP7 PUSH1 0x0 KECCAK256 PUSH1 0x1F DUP5 ADD PUSH1 0x5 SHR DUP2 ADD SWAP2 DUP9 DUP6 LT PUSH2 0x18F5 JUMPI JUMPDEST PUSH1 0x1F ADD PUSH1 0x5 SHR ADD SWAP1 DUP6 SWAP1 JUMPDEST DUP3 DUP2 LT PUSH2 0x18E9 JUMPI POP POP PUSH2 0x179D JUMP JUMPDEST PUSH1 0x0 DUP2 SSTORE ADD DUP6 SWAP1 PUSH2 0x18DB JUMP JUMPDEST SWAP1 SWAP2 POP DUP2 SWAP1 PUSH2 0x18D0 JUMP JUMPDEST PUSH1 0x40 MLOAD PUSH3 0x461BCD PUSH1 0xE5 SHL DUP2 MSTORE PUSH1 0x4 DUP2 ADD DUP5 SWAP1 MSTORE PUSH1 0x12 PUSH1 0x24 DUP3 ADD MSTORE PUSH18 0x105B1C9958591E481C9959DA5CDD195C9959 PUSH1 0x72 SHL PUSH1 0x44 DUP3 ADD MSTORE PUSH1 0x64 SWAP1 REVERT JUMPDEST CALLVALUE PUSH2 0x249 JUMPI PUSH1 0x40 CALLDATASIZE PUSH1 0x3 NOT ADD SLT PUSH2 0x249 JUMPI PUSH2 0x97F PUSH1 0x4 CALLDATALOAD PUSH2 0x1958 PUSH2 0x1F32 JUMP JUMPDEST SWAP1 DUP1 PUSH1 0x0 MSTORE PUSH1 0x2 PUSH1 0x20 MSTORE PUSH2 0x1973 PUSH1 0x1 PUSH1 0x40 PUSH1 0x0 KECCAK256 ADD SLOAD PUSH2 0x22B0 JUMP JUMPDEST PUSH2 0x2437 JUMP JUMPDEST CALLVALUE PUSH2 0x249 JUMPI PUSH2 0x1986 CALLDATASIZE PUSH2 0x1F06 JUMP JUMPDEST SWAP1 PUSH2 0x198F PUSH2 0x2254 JUMP JUMPDEST PUSH2 0x1997 PUSH2 0x2583 JUMP JUMPDEST PUSH1 0x0 MSTORE PUSH1 0x5 PUSH1 0x20 MSTORE PUSH1 0x40 PUSH1 0x0 KECCAK256 PUSH2 0x19B8 PUSH1 0x1 DUP1 PUSH1 0xA0 SHL SUB DUP3 SLOAD AND CALLER EQ PUSH2 0x28BD JUMP JUMPDEST PUSH1 0x3 DUP2 ADD SWAP1 PUSH1 0x1 DUP3 SLOAD SWAP2 PUSH2 0x19CE PUSH1 0xFF DUP5 AND PUSH2 0x2669 JUMP JUMPDEST ADD DUP1 SLOAD DUP5 DUP2 LT PUSH2 0x1A27 JUMPI DUP5 PUSH2 0x19E2 SWAP2 PUSH2 0x26BB JUMP JUMPDEST DUP1 SWAP2 SSTORE ISZERO PUSH2 0x1A1A JUMPI JUMPDEST DUP3 PUSH1 0x40 MLOAD SWAP1 DUP2 MSTORE PUSH32 0x3E191F34827057AE7A024D0827DA720A2F1B54E6955366EB13E7E12493A9F8A3 PUSH1 0x20 CALLER SWAP3 LOG2 STOP JUMPDEST PUSH1 0xFF NOT AND SWAP1 SSTORE DUP2 DUP1 PUSH2 0x19EB JUMP JUMPDEST PUSH1 0x40 MLOAD PUSH3 0x461BCD PUSH1 0xE5 SHL DUP2 MSTORE PUSH1 0x20 PUSH1 0x4 DUP3 ADD MSTORE PUSH1 0x1B PUSH1 0x24 DUP3 ADD MSTORE PUSH32 0x4E6F7420656E6F75676820656E6572677920617661696C61626C650000000000 PUSH1 0x44 DUP3 ADD MSTORE PUSH1 0x64 SWAP1 REVERT JUMPDEST CALLVALUE PUSH2 0x249 JUMPI PUSH1 0x20 CALLDATASIZE PUSH1 0x3 NOT ADD SLT PUSH2 0x249 JUMPI PUSH1 0x4 CALLDATALOAD PUSH2 0x1A88 PUSH2 0x21F8 JUMP JUMPDEST PUSH1 0x14 DUP2 GT PUSH2 0x1A95 JUMPI PUSH1 0xC SSTORE STOP JUMPDEST PUSH1 0x40 MLOAD PUSH3 0x461BCD PUSH1 0xE5 SHL DUP2 MSTORE PUSH1 0x20 PUSH1 0x4 DUP3 ADD MSTORE PUSH1 0xF PUSH1 0x24 DUP3 ADD MSTORE PUSH15 0xA4CAEEC2E4C840E8DEDE40D0D2CED PUSH1 0x8B SHL PUSH1 0x44 DUP3 ADD MSTORE PUSH1 0x64 SWAP1 REVERT JUMPDEST CALLVALUE PUSH2 0x249 JUMPI PUSH1 0x20 CALLDATASIZE PUSH1 0x3 NOT ADD SLT PUSH2 0x249 JUMPI PUSH1 0x4 CALLDATALOAD PUSH1 0x0 MSTORE PUSH1 0x2 PUSH1 0x20 MSTORE PUSH1 0x20 PUSH1 0x1 PUSH1 0x40 PUSH1 0x0 KECCAK256 ADD SLOAD PUSH1 0x40 MLOAD SWAP1 DUP2 MSTORE RETURN JUMPDEST CALLVALUE PUSH2 0x249 JUMPI PUSH1 0x20 DUP1 PUSH1 0x3 NOT CALLDATASIZE ADD SLT PUSH2 0x249 JUMPI PUSH1 0x1 PUSH1 0x1 PUSH1 0xA0 SHL SUB SWAP1 DUP2 PUSH2 0x1B1F PUSH2 0x1F1C JUMP JUMPDEST AND PUSH1 0x0 MSTORE PUSH1 0x6 SWAP1 DUP2 DUP2 MSTORE PUSH1 0x40 PUSH1 0x0 KECCAK256 SWAP1 DUP2 SLOAD PUSH2 0x1B3A DUP2 PUSH2 0x28FC JUMP JUMPDEST SWAP4 PUSH2 0x1B48 PUSH1 0x40 MLOAD SWAP6 DUP7 PUSH2 0x1FBA JUMP JUMPDEST DUP2 DUP6 MSTORE DUP3 DUP6 ADD DUP1 SWAP5 PUSH1 0x0 MSTORE DUP4 PUSH1 0x0 KECCAK256 PUSH1 0x0 SWAP2 JUMPDEST DUP5 DUP4 LT PUSH2 0x1BD8 JUMPI POP POP POP POP POP PUSH1 0x40 MLOAD SWAP3 DUP2 DUP5 ADD SWAP1 DUP3 DUP6 MSTORE MLOAD DUP1 SWAP2 MSTORE PUSH1 0x40 DUP5 ADD SWAP3 SWAP2 PUSH1 0x0 JUMPDEST DUP3 DUP2 LT PUSH2 0x1B8C JUMPI DUP6 DUP6 SUB DUP7 RETURN JUMPDEST DUP4 MLOAD DUP1 MLOAD DUP7 MSTORE DUP1 DUP4 ADD MLOAD DUP9 AND DUP7 DUP5 ADD MSTORE PUSH1 0x40 DUP1 DUP3 ADD MLOAD DUP10 AND SWAP1 DUP8 ADD MSTORE PUSH1 0x60 DUP1 DUP3 ADD MLOAD SWAP1 DUP8 ADD MSTORE PUSH1 0x80 DUP1 DUP3 ADD MLOAD SWAP1 DUP8 ADD MSTORE PUSH1 0xA0 SWAP1 DUP2 ADD MLOAD SWAP1 DUP7 ADD MSTORE PUSH1 0xC0 SWAP1 SWAP5 ADD SWAP4 SWAP3 DUP2 ADD SWAP3 PUSH1 0x1 ADD PUSH2 0x1B7F JUMP JUMPDEST DUP4 DUP7 PUSH1 0x1 SWAP3 PUSH1 0x40 SWAP11 SWAP9 SWAP11 MLOAD PUSH2 0x1BEC DUP2 PUSH2 0x1F82 JUMP JUMPDEST DUP6 SLOAD DUP2 MSTORE DUP13 DUP6 DUP8 ADD SLOAD AND DUP4 DUP3 ADD MSTORE DUP13 PUSH1 0x2 DUP8 ADD SLOAD AND PUSH1 0x40 DUP3 ADD MSTORE PUSH1 0x3 DUP7 ADD SLOAD PUSH1 0x60 DUP3 ADD MSTORE PUSH1 0x4 DUP7 ADD SLOAD PUSH1 0x80 DUP3 ADD MSTORE PUSH1 0x5 DUP7 ADD SLOAD PUSH1 0xA0 DUP3 ADD MSTORE DUP2 MSTORE ADD SWAP3 ADD SWAP3 ADD SWAP2 SWAP1 SWAP7 SWAP5 SWAP7 PUSH2 0x1B5B JUMP JUMPDEST CALLVALUE PUSH2 0x249 JUMPI PUSH1 0x20 CALLDATASIZE PUSH1 0x3 NOT ADD SLT PUSH2 0x249 JUMPI PUSH1 0x1 PUSH1 0x1 PUSH1 0xA0 SHL SUB PUSH2 0x1C56 PUSH2 0x1F1C JUMP JUMPDEST AND PUSH1 0x0 MSTORE PUSH1 0x4 PUSH1 0x20 MSTORE PUSH2 0x1C8C PUSH1 0x40 PUSH1 0x0 KECCAK256 PUSH1 0xFF PUSH1 0x1 PUSH2 0x1C74 DUP4 PUSH2 0x1FDC JUMP JUMPDEST SWAP3 ADD SLOAD AND PUSH1 0x40 MLOAD SWAP3 DUP4 SWAP3 PUSH1 0x40 DUP5 MSTORE PUSH1 0x40 DUP5 ADD SWAP1 PUSH2 0x2082 JUMP JUMPDEST SWAP1 ISZERO ISZERO PUSH1 0x20 DUP4 ADD MSTORE SUB SWAP1 RETURN JUMPDEST CALLVALUE PUSH2 0x249 JUMPI PUSH2 0x1CA6 CALLDATASIZE PUSH2 0x1F06 JUMP JUMPDEST SWAP1 PUSH2 0x1CAF PUSH2 0x217E JUMP JUMPDEST PUSH2 0x1CB7 PUSH2 0x2583 JUMP JUMPDEST PUSH2 0x1CBF PUSH2 0x2765 JUMP JUMPDEST PUSH1 0x0 MSTORE PUSH1 0x20 SWAP1 PUSH1 0x5 DUP3 MSTORE PUSH1 0x40 PUSH1 0x0 KECCAK256 SWAP2 PUSH1 0x3 DUP4 ADD SWAP3 PUSH2 0x1CE1 PUSH1 0xFF DUP6 SLOAD AND PUSH2 0x2669 JUMP JUMPDEST PUSH1 0x1 DUP2 ADD SWAP1 DUP4 DUP3 SLOAD LT PUSH2 0x1E6E JUMPI PUSH2 0x1CFC PUSH1 0x2 DUP3 ADD SLOAD DUP6 PUSH2 0x26A8 JUMP JUMPDEST PUSH1 0x3 SLOAD PUSH1 0x40 MLOAD PUSH4 0x23B872DD PUSH1 0xE0 SHL DUP2 MSTORE CALLER PUSH1 0x4 DUP3 ADD MSTORE ADDRESS PUSH1 0x24 DUP3 ADD MSTORE PUSH1 0x44 DUP2 ADD DUP4 SWAP1 MSTORE SWAP2 SWAP7 PUSH1 0x1 PUSH1 0x1 PUSH1 0xA0 SHL SUB SWAP5 SWAP1 SWAP3 SWAP1 SWAP2 DUP7 SWAP1 DUP3 SWAP1 PUSH1 0x64 SWAP1 DUP3 SWAP1 PUSH1 0x0 SWAP1 DUP11 AND GAS CALL SWAP1 DUP2 ISZERO PUSH2 0x876 JUMPI PUSH1 0x0 SWAP2 PUSH2 0x1E38 JUMPI JUMPDEST POP ISZERO PUSH2 0x1DFB JUMPI PUSH2 0x1D5E DUP7 DUP3 SLOAD PUSH2 0x26BB JUMP JUMPDEST DUP1 SWAP2 SSTORE ISZERO PUSH2 0x1DED JUMPI JUMPDEST POP PUSH1 0x4 DUP2 ADD DUP1 SLOAD SWAP4 DUP7 DUP6 ADD DUP1 SWAP6 GT PUSH2 0x7E1 JUMPI PUSH32 0x77B860E7BFD31F3B4F8AAF17BA74E4EA6ECF3F47BAFFE3B20CC2632EFD5606D1 SWAP5 PUSH2 0x1DBA SWAP3 SSTORE PUSH1 0x5 DUP4 ADD PUSH1 0xFF NOT DUP2 SLOAD AND SWAP1 SSTORE PUSH2 0x76A PUSH2 0x725 PUSH1 0xA SLOAD PUSH2 0x2574 JUMP JUMPDEST SLOAD AND SWAP3 PUSH1 0xA SLOAD SWAP1 PUSH2 0x1DE3 PUSH1 0x40 MLOAD SWAP3 DUP4 SWAP3 CALLER SWAP7 DUP5 PUSH1 0x40 SWAP2 SWAP5 SWAP4 SWAP3 PUSH1 0x60 DUP3 ADD SWAP6 DUP3 MSTORE PUSH1 0x20 DUP3 ADD MSTORE ADD MSTORE JUMP JUMPDEST SUB SWAP1 LOG3 PUSH1 0x1 PUSH1 0x0 SSTORE STOP JUMPDEST DUP1 SLOAD PUSH1 0xFF NOT AND SWAP1 SSTORE DUP6 PUSH2 0x1D67 JUMP JUMPDEST PUSH1 0x40 MLOAD PUSH3 0x461BCD PUSH1 0xE5 SHL DUP2 MSTORE PUSH1 0x4 DUP2 ADD DUP7 SWAP1 MSTORE PUSH1 0x15 PUSH1 0x24 DUP3 ADD MSTORE PUSH21 0x151BDAD95B881D1C985B9CD9995C8819985A5B1959 PUSH1 0x5A SHL PUSH1 0x44 DUP3 ADD MSTORE PUSH1 0x64 SWAP1 REVERT JUMPDEST SWAP1 POP DUP6 DUP2 DUP2 RETURNDATASIZE DUP4 GT PUSH2 0x1E67 JUMPI JUMPDEST PUSH2 0x1E4F DUP2 DUP4 PUSH2 0x1FBA JUMP JUMPDEST DUP2 ADD SUB SLT PUSH2 0x249 JUMPI MLOAD DUP1 ISZERO ISZERO DUP2 SUB PUSH2 0x249 JUMPI DUP9 PUSH2 0x1D4D JUMP JUMPDEST POP RETURNDATASIZE PUSH2 0x1E45 JUMP JUMPDEST PUSH1 0x40 MLOAD PUSH3 0x461BCD PUSH1 0xE5 SHL DUP2 MSTORE PUSH1 0x4 DUP2 ADD DUP5 SWAP1 MSTORE PUSH1 0x1D PUSH1 0x24 DUP3 ADD MSTORE PUSH32 0x496E73756666696369656E7420656E6572677920617661696C61626C65000000 PUSH1 0x44 DUP3 ADD MSTORE PUSH1 0x64 SWAP1 REVERT JUMPDEST CALLVALUE PUSH2 0x249 JUMPI PUSH1 0x20 CALLDATASIZE PUSH1 0x3 NOT ADD SLT PUSH2 0x249 JUMPI PUSH1 0x4 CALLDATALOAD SWAP1 PUSH4 0xFFFFFFFF PUSH1 0xE0 SHL DUP3 AND DUP1 SWAP3 SUB PUSH2 0x249 JUMPI PUSH1 0x20 SWAP2 PUSH4 0x7965DB0B PUSH1 0xE0 SHL DUP2 EQ SWAP1 DUP2 ISZERO PUSH2 0x1EF5 JUMPI JUMPDEST POP ISZERO ISZERO DUP2 MSTORE RETURN JUMPDEST PUSH4 0x1FFC9A7 PUSH1 0xE0 SHL EQ SWAP1 POP DUP4 PUSH2 0x1EEE JUMP JUMPDEST PUSH1 0x40 SWAP1 PUSH1 0x3 NOT ADD SLT PUSH2 0x249 JUMPI PUSH1 0x4 CALLDATALOAD SWAP1 PUSH1 0x24 CALLDATALOAD SWAP1 JUMP JUMPDEST PUSH1 0x4 CALLDATALOAD SWAP1 PUSH1 0x1 PUSH1 0x1 PUSH1 0xA0 SHL SUB DUP3 AND DUP3 SUB PUSH2 0x249 JUMPI JUMP JUMPDEST PUSH1 0x24 CALLDATALOAD SWAP1 PUSH1 0x1 PUSH1 0x1 PUSH1 0xA0 SHL SUB DUP3 AND DUP3 SUB PUSH2 0x249 JUMPI JUMP JUMPDEST SWAP1 PUSH1 0x1 DUP3 DUP2 SHR SWAP3 AND DUP1 ISZERO PUSH2 0x1F78 JUMPI JUMPDEST PUSH1 0x20 DUP4 LT EQ PUSH2 0x1F62 JUMPI JUMP JUMPDEST PUSH4 0x4E487B71 PUSH1 0xE0 SHL PUSH1 0x0 MSTORE PUSH1 0x22 PUSH1 0x4 MSTORE PUSH1 0x24 PUSH1 0x0 REVERT JUMPDEST SWAP2 PUSH1 0x7F AND SWAP2 PUSH2 0x1F57 JUMP JUMPDEST PUSH1 0xC0 DUP2 ADD SWAP1 DUP2 LT PUSH8 0xFFFFFFFFFFFFFFFF DUP3 GT OR PUSH2 0xCD7 JUMPI PUSH1 0x40 MSTORE JUMP JUMPDEST PUSH1 0xA0 DUP2 ADD SWAP1 DUP2 LT PUSH8 0xFFFFFFFFFFFFFFFF DUP3 GT OR PUSH2 0xCD7 JUMPI PUSH1 0x40 MSTORE JUMP JUMPDEST SWAP1 PUSH1 0x1F DUP1 NOT SWAP2 ADD AND DUP2 ADD SWAP1 DUP2 LT PUSH8 0xFFFFFFFFFFFFFFFF DUP3 GT OR PUSH2 0xCD7 JUMPI PUSH1 0x40 MSTORE JUMP JUMPDEST SWAP1 PUSH1 0x40 MLOAD SWAP2 DUP3 PUSH1 0x0 DUP3 SLOAD SWAP3 PUSH2 0x1FF0 DUP5 PUSH2 0x1F48 JUMP JUMPDEST SWAP1 DUP2 DUP5 MSTORE PUSH1 0x1 SWAP5 DUP6 DUP2 AND SWAP1 DUP2 PUSH1 0x0 EQ PUSH2 0x205F JUMPI POP PUSH1 0x1 EQ PUSH2 0x201C JUMPI JUMPDEST POP POP PUSH2 0x201A SWAP3 POP SUB DUP4 PUSH2 0x1FBA JUMP JUMPDEST JUMP JUMPDEST SWAP1 SWAP4 SWAP2 POP PUSH1 0x0 MSTORE PUSH1 0x20 SWAP1 DUP2 PUSH1 0x0 KECCAK256 SWAP4 PUSH1 0x0 SWAP2 JUMPDEST DUP2 DUP4 LT PUSH2 0x2047 JUMPI POP POP PUSH2 0x201A SWAP4 POP DUP3 ADD ADD CODESIZE DUP1 PUSH2 0x200C JUMP JUMPDEST DUP6 SLOAD DUP9 DUP5 ADD DUP6 ADD MSTORE SWAP5 DUP6 ADD SWAP5 DUP8 SWAP5 POP SWAP2 DUP4 ADD SWAP2 PUSH2 0x202F JUMP JUMPDEST SWAP2 POP POP PUSH2 0x201A SWAP5 POP PUSH1 0x20 SWAP3 POP PUSH1 0xFF NOT AND DUP3 DUP5 ADD MSTORE ISZERO ISZERO PUSH1 0x5 SHL DUP3 ADD ADD CODESIZE DUP1 PUSH2 0x200C JUMP JUMPDEST SWAP2 SWAP1 DUP3 MLOAD SWAP3 DUP4 DUP3 MSTORE PUSH1 0x0 JUMPDEST DUP5 DUP2 LT PUSH2 0x20AE JUMPI POP POP DUP3 PUSH1 0x0 PUSH1 0x20 DUP1 SWAP5 SWAP6 DUP5 ADD ADD MSTORE PUSH1 0x1F DUP1 NOT SWAP2 ADD AND ADD ADD SWAP1 JUMP JUMPDEST PUSH1 0x20 DUP2 DUP4 ADD DUP2 ADD MLOAD DUP5 DUP4 ADD DUP3 ADD MSTORE ADD PUSH2 0x208D JUMP JUMPDEST DUP2 PUSH1 0x1F DUP3 ADD SLT ISZERO PUSH2 0x249 JUMPI DUP1 CALLDATALOAD SWAP1 PUSH8 0xFFFFFFFFFFFFFFFF DUP3 GT PUSH2 0xCD7 JUMPI PUSH1 0x40 MLOAD SWAP3 PUSH2 0x20F7 PUSH1 0x1F DUP5 ADD PUSH1 0x1F NOT AND PUSH1 0x20 ADD DUP6 PUSH2 0x1FBA JUMP JUMPDEST DUP3 DUP5 MSTORE PUSH1 0x20 DUP4 DUP4 ADD ADD GT PUSH2 0x249 JUMPI DUP2 PUSH1 0x0 SWAP3 PUSH1 0x20 DUP1 SWAP4 ADD DUP4 DUP7 ADD CALLDATACOPY DUP4 ADD ADD MSTORE SWAP1 JUMP JUMPDEST DUP1 SLOAD DUP3 LT ISZERO PUSH2 0x2135 JUMPI PUSH1 0x0 MSTORE PUSH1 0x6 PUSH1 0x20 PUSH1 0x0 KECCAK256 SWAP2 MUL ADD SWAP1 PUSH1 0x0 SWAP1 JUMP JUMPDEST PUSH4 0x4E487B71 PUSH1 0xE0 SHL PUSH1 0x0 MSTORE PUSH1 0x32 PUSH1 0x4 MSTORE PUSH1 0x24 PUSH1 0x0 REVERT JUMPDEST SWAP1 PUSH1 0x40 PUSH1 0x3 NOT DUP4 ADD SLT PUSH2 0x249 JUMPI PUSH1 0x4 CALLDATALOAD SWAP2 PUSH1 0x24 CALLDATALOAD SWAP1 PUSH8 0xFFFFFFFFFFFFFFFF DUP3 GT PUSH2 0x249 JUMPI PUSH2 0x217B SWAP2 PUSH1 0x4 ADD PUSH2 0x20C2 JUMP JUMPDEST SWAP1 JUMP JUMPDEST CALLER PUSH1 0x0 SWAP1 DUP2 MSTORE PUSH32 0xF2243C5AEABDC1A3342FD992282B82FB10DC021FEDECB5668E7B5ED708F44EE2 PUSH1 0x20 MSTORE PUSH1 0x40 SWAP1 KECCAK256 SLOAD PUSH32 0x9D56108290EA0BC9C5C59C3AD357DCA9D1B29ED7F3AE1443BEF2FA2159BDF5E8 SWAP1 PUSH1 0xFF AND ISZERO PUSH2 0x21DA JUMPI POP JUMP JUMPDEST PUSH1 0x44 SWAP1 PUSH1 0x40 MLOAD SWAP1 PUSH4 0xE2517D3F PUSH1 0xE0 SHL DUP3 MSTORE CALLER PUSH1 0x4 DUP4 ADD MSTORE PUSH1 0x24 DUP3 ADD MSTORE REVERT JUMPDEST CALLER PUSH1 0x0 SWAP1 DUP2 MSTORE PUSH32 0xE5EBFA64FCA8D502A8E50C1EDFFD2C31EF4DAD5B396E65D9F397FB028F74ABC5 PUSH1 0x20 MSTORE PUSH1 0x40 SWAP1 KECCAK256 SLOAD PUSH32 0xA49807205CE4D355092EF5A8A18F56E8913CF4A201FBE287825B095693C21775 SWAP1 PUSH1 0xFF AND ISZERO PUSH2 0x21DA JUMPI POP JUMP JUMPDEST CALLER PUSH1 0x0 SWAP1 DUP2 MSTORE PUSH32 0xE3505CB407E01CC077DD41B3257BBECAA41B7E8B4BA49F7A740E40A79E0F71DC PUSH1 0x20 MSTORE PUSH1 0x40 SWAP1 KECCAK256 SLOAD PUSH32 0x8EB467F061CA67F42A2D2CA4A346FC9FB645EFC0BA75056EE9F71C3A0CCC10A8 SWAP1 PUSH1 0xFF AND ISZERO PUSH2 0x21DA JUMPI POP JUMP JUMPDEST DUP1 PUSH1 0x0 MSTORE PUSH1 0x2 PUSH1 0x20 MSTORE PUSH1 0x40 PUSH1 0x0 KECCAK256 CALLER PUSH1 0x0 MSTORE PUSH1 0x20 MSTORE PUSH1 0xFF PUSH1 0x40 PUSH1 0x0 KECCAK256 SLOAD AND ISZERO PUSH2 0x21DA JUMPI POP JUMP JUMPDEST PUSH1 0x1 PUSH1 0x1 PUSH1 0xA0 SHL SUB AND PUSH1 0x0 DUP2 DUP2 MSTORE PUSH32 0xE3505CB407E01CC077DD41B3257BBECAA41B7E8B4BA49F7A740E40A79E0F71DC PUSH1 0x20 MSTORE PUSH1 0x40 DUP2 KECCAK256 SLOAD SWAP1 SWAP2 SWAP1 PUSH32 0x8EB467F061CA67F42A2D2CA4A346FC9FB645EFC0BA75056EE9F71C3A0CCC10A8 SWAP1 PUSH1 0xFF AND PUSH2 0x2384 JUMPI DUP1 DUP4 MSTORE PUSH1 0x2 PUSH1 0x20 MSTORE PUSH1 0x40 DUP4 KECCAK256 DUP3 DUP5 MSTORE PUSH1 0x20 MSTORE PUSH1 0x40 DUP4 KECCAK256 PUSH1 0x1 PUSH1 0xFF NOT DUP3 SLOAD AND OR SWAP1 SSTORE PUSH32 0x2F8788117E7EFF1D82E926EC794901D17C78024A50270940304540A733656F0D CALLER SWAP4 DUP1 LOG4 PUSH1 0x1 SWAP1 JUMP JUMPDEST POP POP SWAP1 JUMP JUMPDEST PUSH1 0x1 PUSH1 0x1 PUSH1 0xA0 SHL SUB AND PUSH1 0x0 DUP2 DUP2 MSTORE PUSH32 0xF2243C5AEABDC1A3342FD992282B82FB10DC021FEDECB5668E7B5ED708F44EE2 PUSH1 0x20 MSTORE PUSH1 0x40 DUP2 KECCAK256 SLOAD SWAP1 SWAP2 SWAP1 PUSH32 0x9D56108290EA0BC9C5C59C3AD357DCA9D1B29ED7F3AE1443BEF2FA2159BDF5E8 SWAP1 PUSH1 0xFF AND PUSH2 0x2384 JUMPI DUP1 DUP4 MSTORE PUSH1 0x2 PUSH1 0x20 MSTORE PUSH1 0x40 DUP4 KECCAK256 DUP3 DUP5 MSTORE PUSH1 0x20 MSTORE PUSH1 0x40 DUP4 KECCAK256 PUSH1 0x1 PUSH1 0xFF NOT DUP3 SLOAD AND OR SWAP1 SSTORE PUSH32 0x2F8788117E7EFF1D82E926EC794901D17C78024A50270940304540A733656F0D CALLER SWAP4 DUP1 LOG4 PUSH1 0x1 SWAP1 JUMP JUMPDEST SWAP1 PUSH1 0x0 SWAP2 DUP1 DUP4 MSTORE PUSH1 0x2 PUSH1 0x20 MSTORE PUSH1 0x40 DUP4 KECCAK256 SWAP2 PUSH1 0x1 DUP1 PUSH1 0xA0 SHL SUB AND SWAP2 DUP3 DUP5 MSTORE PUSH1 0x20 MSTORE PUSH1 0xFF PUSH1 0x40 DUP5 KECCAK256 SLOAD AND ISZERO PUSH1 0x0 EQ PUSH2 0x2384 JUMPI DUP1 DUP4 MSTORE PUSH1 0x2 PUSH1 0x20 MSTORE PUSH1 0x40 DUP4 KECCAK256 DUP3 DUP5 MSTORE PUSH1 0x20 MSTORE PUSH1 0x40 DUP4 KECCAK256 PUSH1 0x1 PUSH1 0xFF NOT DUP3 SLOAD AND OR SWAP1 SSTORE PUSH32 0x2F8788117E7EFF1D82E926EC794901D17C78024A50270940304540A733656F0D CALLER SWAP4 DUP1 LOG4 PUSH1 0x1 SWAP1 JUMP JUMPDEST SWAP1 PUSH1 0x0 SWAP2 DUP1 DUP4 MSTORE PUSH1 0x2 PUSH1 0x20 MSTORE PUSH1 0x40 DUP4 KECCAK256 SWAP2 PUSH1 0x1 DUP1 PUSH1 0xA0 SHL SUB AND SWAP2 DUP3 DUP5 MSTORE PUSH1 0x20 MSTORE PUSH1 0xFF PUSH1 0x40 DUP5 KECCAK256 SLOAD AND PUSH1 0x0 EQ PUSH2 0x2384 JUMPI DUP1 DUP4 MSTORE PUSH1 0x2 PUSH1 0x20 MSTORE PUSH1 0x40 DUP4 KECCAK256 DUP3 DUP5 MSTORE PUSH1 0x20 MSTORE PUSH1 0x40 DUP4 KECCAK256 PUSH1 0xFF NOT DUP2 SLOAD AND SWAP1 SSTORE PUSH32 0xF6391F5C32D9C69D2A47EA670B442974B53935D1EDC7FD64EB21E047A839171B CALLER SWAP4 DUP1 LOG4 PUSH1 0x1 SWAP1 JUMP JUMPDEST ISZERO PUSH2 0x2530 JUMPI JUMP JUMPDEST PUSH1 0x64 PUSH1 0x40 MLOAD PUSH3 0x461BCD PUSH1 0xE5 SHL DUP2 MSTORE PUSH1 0x20 PUSH1 0x4 DUP3 ADD MSTORE PUSH1 0x20 PUSH1 0x24 DUP3 ADD MSTORE PUSH32 0x416D6F756E74206D7573742062652067726561746572207468616E207A65726F PUSH1 0x44 DUP3 ADD MSTORE REVERT JUMPDEST PUSH1 0x0 NOT DUP2 EQ PUSH2 0x7E1 JUMPI PUSH1 0x1 ADD SWAP1 JUMP JUMPDEST PUSH1 0xFF PUSH1 0x1 SLOAD AND PUSH2 0x258F JUMPI JUMP JUMPDEST PUSH1 0x40 MLOAD PUSH4 0xD93C0665 PUSH1 0xE0 SHL DUP2 MSTORE PUSH1 0x4 SWAP1 REVERT JUMPDEST ISZERO PUSH2 0x25A8 JUMPI JUMP JUMPDEST PUSH1 0x40 MLOAD PUSH3 0x461BCD PUSH1 0xE5 SHL DUP2 MSTORE PUSH1 0x20 PUSH1 0x4 DUP3 ADD MSTORE PUSH1 0xE PUSH1 0x24 DUP3 ADD MSTORE PUSH14 0x139BDD081C9959DA5CDD195C9959 PUSH1 0x92 SHL PUSH1 0x44 DUP3 ADD MSTORE PUSH1 0x64 SWAP1 REVERT JUMPDEST ISZERO PUSH2 0x25E5 JUMPI JUMP JUMPDEST PUSH1 0x40 MLOAD PUSH3 0x461BCD PUSH1 0xE5 SHL DUP2 MSTORE PUSH1 0x20 PUSH1 0x4 DUP3 ADD MSTORE PUSH1 0x10 PUSH1 0x24 DUP3 ADD MSTORE PUSH16 0x2737BA103A34329030B1B1B2B83A37B9 PUSH1 0x81 SHL PUSH1 0x44 DUP3 ADD MSTORE PUSH1 0x64 SWAP1 REVERT JUMPDEST ISZERO PUSH2 0x2624 JUMPI JUMP JUMPDEST PUSH1 0x40 MLOAD PUSH3 0x461BCD PUSH1 0xE5 SHL DUP2 MSTORE PUSH1 0x20 PUSH1 0x4 DUP3 ADD MSTORE PUSH1 0x18 PUSH1 0x24 DUP3 ADD MSTORE PUSH32 0x4261726761696E20616C72656164792061636365707465640000000000000000 PUSH1 0x44 DUP3 ADD MSTORE PUSH1 0x64 SWAP1 REVERT JUMPDEST ISZERO PUSH2 0x2670 JUMPI JUMP JUMPDEST PUSH1 0x40 MLOAD PUSH3 0x461BCD PUSH1 0xE5 SHL DUP2 MSTORE PUSH1 0x20 PUSH1 0x4 DUP3 ADD MSTORE PUSH1 0x10 PUSH1 0x24 DUP3 ADD MSTORE PUSH16 0x4F66666572206E6F7420616374697665 PUSH1 0x80 SHL PUSH1 0x44 DUP3 ADD MSTORE PUSH1 0x64 SWAP1 REVERT JUMPDEST DUP2 DUP2 MUL SWAP3 SWAP2 DUP2 ISZERO SWAP2 DUP5 DIV EQ OR ISZERO PUSH2 0x7E1 JUMPI JUMP JUMPDEST SWAP2 SWAP1 DUP3 SUB SWAP2 DUP3 GT PUSH2 0x7E1 JUMPI JUMP JUMPDEST DUP1 SLOAD PUSH9 0x10000000000000000 DUP2 LT ISZERO PUSH2 0xCD7 JUMPI PUSH2 0x26EA SWAP2 PUSH1 0x1 DUP3 ADD DUP2 SSTORE PUSH2 0x2119 JUMP JUMPDEST SWAP2 SWAP1 SWAP2 PUSH2 0x274F JUMPI DUP1 MLOAD DUP3 SSTORE PUSH1 0x20 DUP2 ADD MLOAD PUSH1 0x1 DUP4 ADD DUP1 SLOAD PUSH1 0x1 PUSH1 0x1 PUSH1 0xA0 SHL SUB SWAP3 DUP4 AND PUSH1 0x1 PUSH1 0x1 PUSH1 0xA0 SHL SUB NOT SWAP2 DUP3 AND OR SWAP1 SWAP2 SSTORE PUSH1 0x40 DUP4 ADD MLOAD PUSH1 0x2 DUP6 ADD DUP1 SLOAD SWAP2 SWAP1 SWAP4 AND SWAP2 AND OR SWAP1 SSTORE PUSH1 0x60 DUP2 ADD MLOAD PUSH1 0x3 DUP4 ADD SSTORE PUSH1 0x80 DUP2 ADD MLOAD PUSH1 0x4 DUP4 ADD SSTORE PUSH1 0xA0 ADD MLOAD PUSH1 0x5 SWAP1 SWAP2 ADD SSTORE JUMP JUMPDEST PUSH4 0x4E487B71 PUSH1 0xE0 SHL PUSH1 0x0 MSTORE PUSH1 0x0 PUSH1 0x4 MSTORE PUSH1 0x24 PUSH1 0x0 REVERT JUMPDEST PUSH1 0x2 PUSH1 0x0 SLOAD EQ PUSH2 0x2776 JUMPI PUSH1 0x2 PUSH1 0x0 SSTORE JUMP JUMPDEST PUSH1 0x40 MLOAD PUSH4 0x3EE5AEB5 PUSH1 0xE0 SHL DUP2 MSTORE PUSH1 0x4 SWAP1 REVERT JUMPDEST ISZERO PUSH2 0x278F JUMPI JUMP JUMPDEST PUSH1 0x40 MLOAD PUSH3 0x461BCD PUSH1 0xE5 SHL DUP2 MSTORE PUSH1 0x20 PUSH1 0x4 DUP3 ADD MSTORE PUSH1 0x12 PUSH1 0x24 DUP3 ADD MSTORE PUSH18 0x139BC8195CD8DC9BDDD95908185B5BDD5B9D PUSH1 0x72 SHL PUSH1 0x44 DUP3 ADD MSTORE PUSH1 0x64 SWAP1 REVERT JUMPDEST ISZERO PUSH2 0x27D0 JUMPI JUMP JUMPDEST PUSH1 0x40 MLOAD PUSH3 0x461BCD PUSH1 0xE5 SHL DUP2 MSTORE PUSH1 0x20 PUSH1 0x4 DUP3 ADD MSTORE PUSH1 0x1D PUSH1 0x24 DUP3 ADD MSTORE PUSH32 0x416C6C207061796D656E747320616C72656164792072656C6561736564000000 PUSH1 0x44 DUP3 ADD MSTORE PUSH1 0x64 SWAP1 REVERT JUMPDEST PUSH1 0x40 MLOAD PUSH4 0xA9059CBB PUSH1 0xE0 SHL PUSH1 0x20 DUP3 ADD MSTORE PUSH1 0x1 PUSH1 0x1 PUSH1 0xA0 SHL SUB SWAP1 SWAP3 AND PUSH1 0x24 DUP4 ADD MSTORE PUSH1 0x44 DUP1 DUP4 ADD SWAP4 SWAP1 SWAP4 MSTORE SWAP2 DUP2 MSTORE PUSH1 0x80 DUP2 ADD SWAP2 PUSH8 0xFFFFFFFFFFFFFFFF DUP4 GT DUP3 DUP5 LT OR PUSH2 0xCD7 JUMPI PUSH2 0x201A SWAP3 PUSH1 0x40 MSTORE JUMPDEST SWAP1 PUSH1 0x0 PUSH1 0x20 SWAP2 DUP3 DUP2 MLOAD SWAP2 ADD DUP3 DUP6 GAS CALL ISZERO PUSH2 0x876 JUMPI PUSH1 0x0 MLOAD RETURNDATASIZE PUSH2 0x28B4 JUMPI POP PUSH1 0x1 PUSH1 0x1 PUSH1 0xA0 SHL SUB DUP2 AND EXTCODESIZE ISZERO JUMPDEST PUSH2 0x2892 JUMPI POP JUMP JUMPDEST PUSH1 0x40 MLOAD PUSH4 0x5274AFE7 PUSH1 0xE0 SHL DUP2 MSTORE PUSH1 0x1 PUSH1 0x1 PUSH1 0xA0 SHL SUB SWAP1 SWAP2 AND PUSH1 0x4 DUP3 ADD MSTORE PUSH1 0x24 SWAP1 REVERT JUMPDEST PUSH1 0x1 EQ ISZERO PUSH2 0x288B JUMP JUMPDEST ISZERO PUSH2 0x28C4 JUMPI JUMP JUMPDEST PUSH1 0x40 MLOAD PUSH3 0x461BCD PUSH1 0xE5 SHL DUP2 MSTORE PUSH1 0x20 PUSH1 0x4 DUP3 ADD MSTORE PUSH1 0x10 PUSH1 0x24 DUP3 ADD MSTORE PUSH16 0x2737BA103A343290383937B23AB1B2B9 PUSH1 0x81 SHL PUSH1 0x44 DUP3 ADD MSTORE PUSH1 0x64 SWAP1 REVERT JUMPDEST PUSH8 0xFFFFFFFFFFFFFFFF DUP2 GT PUSH2 0xCD7 JUMPI PUSH1 0x5 SHL PUSH1 0x20 ADD SWAP1 JUMP JUMPDEST DUP1 MLOAD DUP3 LT ISZERO PUSH2 0x2135 JUMPI PUSH1 0x20 SWAP2 PUSH1 0x5 SHL ADD ADD SWAP1 JUMP INVALID LOG2 PUSH5 0x6970667358 0x22 SLT KECCAK256 DUP12 PUSH1 0xA0 0xA6 PUSH28 0x66B970609F20841048E0D785048E84BC191ECA8F75B4454CB2A90364 PUSH20 0x6F6C634300081400332F8788117E7EFF1D82E926 0xEC PUSH26 0x4901D17C78024A50270940304540A733656F0D00000000000000 "},"methodIdentifiers":{"CONSUMER_ROLE()":"4bc02da6","DEFAULT_ADMIN_ROLE()":"a217fddf","PRODUCER_ROLE()":"cb3e1fe7","acceptBargain(uint256)":"e4258089","assignConsumerRole(address)":"a7ecb21b","assignProducerRole(address)":"3c939fe6","bargainCounter()":"37755ee1","bargains(uint256)":"fcdbcb83","cancelEnergyOffer(uint256)":"a5b7d835","depositEnergy(uint256,uint256)":"68df5711","disputeTransaction(uint256,string)":"e58d5bdd","energyOffers(uint256)":"3fa2f801","energyToken()":"4ec7fb81","getEnergyOffers()":"ea493db6","getRoleAdmin(bytes32)":"248a9ca3","getTradeHistory(address)":"20cf1c16","grantRole(bytes32,address)":"2f2ff15d","hasRole(bytes32,address)":"91d14854","initializeTradingPlatform(address)":"621044b4","offerCounter()":"b7a3c1da","participants(address)":"09e69ede","pause()":"8456cb59","paused()":"5c975abb","proposeBargain(address,uint256,uint256)":"aeba9c5d","purchaseEnergy(uint256,uint256)":"03b5baae","refunds(uint256)":"e36bd0f3","registerParticipant(address,string)":"31f3ab37","rejectBargain(uint256)":"72ab1061","releasePayment(uint256)":"88685cd9","renounceRole(bytes32,address)":"36568abe","requestRefund(uint256,string)":"c5ac3d4b","revokeRole(bytes32,address)":"d547741f","rewardPoolAddress()":"845a51ec","sellerRewardPercentage()":"3f0ef3cd","setRewardPoolAddress(address)":"b24cf5d7","setSellerRewardPercentage(uint256)":"2c9aee12","supportsInterface(bytes4)":"01ffc9a7","tradeCounter()":"660d15b5","tradeHistory(address,uint256)":"56eb088b","unpause()":"3f4ba83a","withdrawEnergy(uint256,uint256)":"2caa99db"}}}}}