{"contracts/EnergyMarketPlace.sol":{"EnergyMarketplace":{"abi":[{"inputs":[{"internalType":"address","name":"_tokenAddress","type":"address"}],"stateMutability":"nonpayable","type":"constructor"},{"inputs":[],"name":"AccessControlBadConfirmation","type":"error"},{"inputs":[{"internalType":"address","name":"account","type":"address"},{"internalType":"bytes32","name":"neededRole","type":"bytes32"}],"name":"AccessControlUnauthorizedAccount","type":"error"},{"inputs":[],"name":"EnforcedPause","type":"error"},{"inputs":[],"name":"ExpectedPause","type":"error"},{"inputs":[{"internalType":"address","name":"owner","type":"address"}],"name":"OwnableInvalidOwner","type":"error"},{"inputs":[{"internalType":"address","name":"account","type":"address"}],"name":"OwnableUnauthorizedAccount","type":"error"},{"inputs":[],"name":"ReentrancyGuardReentrantCall","type":"error"},{"anonymous":false,"inputs":[{"indexed":true,"internalType":"bytes32","name":"agreementId","type":"bytes32"},{"indexed":false,"internalType":"string","name":"reason","type":"string"}],"name":"AgreementCancelled","type":"event"},{"anonymous":false,"inputs":[{"indexed":true,"internalType":"bytes32","name":"agreementId","type":"bytes32"},{"indexed":true,"internalType":"bytes32","name":"offerId","type":"bytes32"},{"indexed":false,"internalType":"address","name":"buyer","type":"address"},{"indexed":false,"internalType":"string","name":"buyerUsername","type":"string"},{"indexed":false,"internalType":"address","name":"seller","type":"address"},{"indexed":false,"internalType":"string","name":"sellerUsername","type":"string"}],"name":"AgreementCreated","type":"event"},{"anonymous":false,"inputs":[{"indexed":true,"internalType":"bytes32","name":"agreementId","type":"bytes32"}],"name":"AgreementFunded","type":"event"},{"anonymous":false,"inputs":[{"indexed":true,"internalType":"bytes32","name":"agreementId","type":"bytes32"},{"indexed":false,"internalType":"uint256","name":"percentage","type":"uint256"}],"name":"EnergyDeliveryProgress","type":"event"},{"anonymous":false,"inputs":[{"indexed":true,"internalType":"bytes32","name":"agreementId","type":"bytes32"},{"indexed":false,"internalType":"uint256","name":"percentage","type":"uint256"},{"indexed":false,"internalType":"string","name":"reason","type":"string"}],"name":"MilestoneDisputed","type":"event"},{"anonymous":false,"inputs":[{"indexed":true,"internalType":"bytes32","name":"offerId","type":"bytes32"},{"indexed":false,"internalType":"address","name":"sender","type":"address"},{"indexed":false,"internalType":"string","name":"senderUsername","type":"string"}],"name":"NegotiationMessageAdded","type":"event"},{"anonymous":false,"inputs":[{"indexed":true,"internalType":"bytes32","name":"offerId","type":"bytes32"},{"indexed":true,"internalType":"address","name":"creator","type":"address"},{"indexed":false,"internalType":"string","name":"creatorUsername","type":"string"},{"indexed":false,"internalType":"enum EnergyMarketplace.OfferType","name":"offerType","type":"uint8"}],"name":"OfferCreated","type":"event"},{"anonymous":false,"inputs":[{"indexed":true,"internalType":"bytes32","name":"offerId","type":"bytes32"},{"indexed":false,"internalType":"enum EnergyMarketplace.OfferStatus","name":"status","type":"uint8"}],"name":"OfferUpdated","type":"event"},{"anonymous":false,"inputs":[{"indexed":true,"internalType":"address","name":"previousOwner","type":"address"},{"indexed":true,"internalType":"address","name":"newOwner","type":"address"}],"name":"OwnershipTransferred","type":"event"},{"anonymous":false,"inputs":[{"indexed":false,"internalType":"address","name":"account","type":"address"}],"name":"Paused","type":"event"},{"anonymous":false,"inputs":[{"indexed":true,"internalType":"bytes32","name":"role","type":"bytes32"},{"indexed":true,"internalType":"bytes32","name":"previousAdminRole","type":"bytes32"},{"indexed":true,"internalType":"bytes32","name":"newAdminRole","type":"bytes32"}],"name":"RoleAdminChanged","type":"event"},{"anonymous":false,"inputs":[{"indexed":true,"internalType":"bytes32","name":"role","type":"bytes32"},{"indexed":true,"internalType":"address","name":"account","type":"address"},{"indexed":true,"internalType":"address","name":"sender","type":"address"}],"name":"RoleGranted","type":"event"},{"anonymous":false,"inputs":[{"indexed":true,"internalType":"bytes32","name":"role","type":"bytes32"},{"indexed":true,"internalType":"address","name":"account","type":"address"},{"indexed":true,"internalType":"address","name":"sender","type":"address"}],"name":"RoleRevoked","type":"event"},{"anonymous":false,"inputs":[{"indexed":true,"internalType":"bytes32","name":"agreementId","type":"bytes32"}],"name":"TradeCompleted","type":"event"},{"anonymous":false,"inputs":[{"indexed":true,"internalType":"bytes32","name":"agreementId","type":"bytes32"},{"indexed":false,"internalType":"string","name":"reason","type":"string"}],"name":"TradeRefunded","type":"event"},{"anonymous":false,"inputs":[{"indexed":false,"internalType":"address","name":"account","type":"address"}],"name":"Unpaused","type":"event"},{"anonymous":false,"inputs":[{"indexed":true,"internalType":"address","name":"user","type":"address"},{"indexed":false,"internalType":"string","name":"username","type":"string"}],"name":"UsernameRegistered","type":"event"},{"anonymous":false,"inputs":[{"indexed":true,"internalType":"address","name":"user","type":"address"},{"indexed":false,"internalType":"string","name":"oldUsername","type":"string"},{"indexed":false,"internalType":"string","name":"newUsername","type":"string"}],"name":"UsernameUpdated","type":"event"},{"inputs":[],"name":"ADMIN_ROLE","outputs":[{"internalType":"bytes32","name":"","type":"bytes32"}],"stateMutability":"view","type":"function"},{"inputs":[],"name":"DEFAULT_ADMIN_ROLE","outputs":[{"internalType":"bytes32","name":"","type":"bytes32"}],"stateMutability":"view","type":"function"},{"inputs":[],"name":"DISPUTE_PERIOD","outputs":[{"internalType":"uint256","name":"","type":"uint256"}],"stateMutability":"view","type":"function"},{"inputs":[],"name":"FUNDING_TIMEOUT","outputs":[{"internalType":"uint256","name":"","type":"uint256"}],"stateMutability":"view","type":"function"},{"inputs":[],"name":"MAX_USERNAME_LENGTH","outputs":[{"internalType":"uint256","name":"","type":"uint256"}],"stateMutability":"view","type":"function"},{"inputs":[],"name":"MODERATOR_ROLE","outputs":[{"internalType":"bytes32","name":"","type":"bytes32"}],"stateMutability":"view","type":"function"},{"inputs":[],"name":"USER_ROLE","outputs":[{"internalType":"bytes32","name":"","type":"bytes32"}],"stateMutability":"view","type":"function"},{"inputs":[{"internalType":"bytes32","name":"_offerId","type":"bytes32"},{"internalType":"address","name":"_counterparty","type":"address"}],"name":"acceptNegotiation","outputs":[],"stateMutability":"nonpayable","type":"function"},{"inputs":[{"internalType":"uint256","name":"","type":"uint256"}],"name":"activeOfferIds","outputs":[{"internalType":"bytes32","name":"","type":"bytes32"}],"stateMutability":"view","type":"function"},{"inputs":[{"internalType":"address","name":"_account","type":"address"}],"name":"addAdmin","outputs":[],"stateMutability":"nonpayable","type":"function"},{"inputs":[{"internalType":"address","name":"_account","type":"address"}],"name":"addModerator","outputs":[],"stateMutability":"nonpayable","type":"function"},{"inputs":[{"internalType":"bytes32","name":"_offerId","type":"bytes32"},{"internalType":"string","name":"_message","type":"string"},{"internalType":"uint256","name":"_proposedPrice","type":"uint256"},{"internalType":"uint256","name":"_proposedEnergyAmount","type":"uint256"}],"name":"addNegotiationMessage","outputs":[],"stateMutability":"nonpayable","type":"function"},{"inputs":[{"internalType":"address","name":"_account","type":"address"},{"internalType":"string","name":"_username","type":"string"}],"name":"addUser","outputs":[],"stateMutability":"nonpayable","type":"function"},{"inputs":[{"internalType":"bytes32","name":"","type":"bytes32"}],"name":"agreements","outputs":[{"internalType":"bytes32","name":"id","type":"bytes32"},{"internalType":"bytes32","name":"offerId","type":"bytes32"},{"internalType":"address","name":"buyer","type":"address"},{"internalType":"string","name":"buyerUsername","type":"string"},{"internalType":"address","name":"seller","type":"address"},{"internalType":"string","name":"sellerUsername","type":"string"},{"internalType":"uint256","name":"finalEnergyAmount","type":"uint256"},{"internalType":"uint256","name":"finalTotalPrice","type":"uint256"},{"internalType":"uint256","name":"agreedAt","type":"uint256"},{"internalType":"bytes32","name":"escrowId","type":"bytes32"},{"internalType":"bool","name":"isActive","type":"bool"},{"internalType":"uint256","name":"fundingDeadline","type":"uint256"},{"internalType":"bool","name":"funded","type":"bool"}],"stateMutability":"view","type":"function"},{"inputs":[{"internalType":"bytes32","name":"_offerId","type":"bytes32"},{"internalType":"address","name":"_counterparty","type":"address"}],"name":"cancelNegotiation","outputs":[],"stateMutability":"nonpayable","type":"function"},{"inputs":[{"internalType":"bytes32","name":"_agreementId","type":"bytes32"}],"name":"cancelUnfundedAgreement","outputs":[],"stateMutability":"nonpayable","type":"function"},{"inputs":[{"internalType":"bytes32","name":"_offerId","type":"bytes32"}],"name":"createAgreement","outputs":[{"internalType":"bytes32","name":"","type":"bytes32"}],"stateMutability":"nonpayable","type":"function"},{"inputs":[{"internalType":"enum EnergyMarketplace.OfferType","name":"_offerType","type":"uint8"},{"internalType":"uint256","name":"_energyAmount","type":"uint256"},{"internalType":"uint256","name":"_pricePerUnit","type":"uint256"},{"internalType":"uint256","name":"_startTime","type":"uint256"},{"internalType":"uint256","name":"_endTime","type":"uint256"}],"name":"createOffer","outputs":[{"internalType":"bytes32","name":"offerId","type":"bytes32"}],"stateMutability":"nonpayable","type":"function"},{"inputs":[{"internalType":"bytes32","name":"_agreementId","type":"bytes32"},{"internalType":"string","name":"_reason","type":"string"}],"name":"disputeAndRefund","outputs":[],"stateMutability":"nonpayable","type":"function"},{"inputs":[{"internalType":"bytes32","name":"_agreementId","type":"bytes32"},{"internalType":"uint256","name":"_percentage","type":"uint256"},{"internalType":"string","name":"_reason","type":"string"}],"name":"disputeMilestone","outputs":[],"stateMutability":"nonpayable","type":"function"},{"inputs":[],"name":"energyToken","outputs":[{"internalType":"contract EnergyToken","name":"","type":"address"}],"stateMutability":"view","type":"function"},{"inputs":[],"name":"escrowContract","outputs":[{"internalType":"contract EnergyEscrow","name":"","type":"address"}],"stateMutability":"view","type":"function"},{"inputs":[{"internalType":"bytes32","name":"_agreementId","type":"bytes32"},{"internalType":"uint256","name":"_percentage","type":"uint256"}],"name":"finalizeMilestone","outputs":[],"stateMutability":"nonpayable","type":"function"},{"inputs":[{"internalType":"bytes32","name":"_agreementId","type":"bytes32"}],"name":"fundAgreement","outputs":[],"stateMutability":"nonpayable","type":"function"},{"inputs":[],"name":"getActiveOffers","outputs":[{"internalType":"bytes32[]","name":"","type":"bytes32[]"}],"stateMutability":"view","type":"function"},{"inputs":[{"internalType":"string","name":"_username","type":"string"}],"name":"getAddressByUsername","outputs":[{"internalType":"address","name":"","type":"address"}],"stateMutability":"view","type":"function"},{"inputs":[{"internalType":"bytes32","name":"_agreementId","type":"bytes32"}],"name":"getAgreementDetails","outputs":[{"internalType":"bytes32","name":"id","type":"bytes32"},{"internalType":"bytes32","name":"offerId","type":"bytes32"},{"internalType":"address","name":"buyer","type":"address"},{"internalType":"string","name":"buyerUsername","type":"string"},{"internalType":"address","name":"seller","type":"address"},{"internalType":"string","name":"sellerUsername","type":"string"},{"internalType":"uint256","name":"finalEnergyAmount","type":"uint256"},{"internalType":"uint256","name":"finalTotalPrice","type":"uint256"},{"internalType":"uint256","name":"agreedAt","type":"uint256"},{"internalType":"bool","name":"isActive","type":"bool"},{"internalType":"bool","name":"funded","type":"bool"}],"stateMutability":"view","type":"function"},{"inputs":[{"internalType":"bytes32","name":"_offerId","type":"bytes32"}],"name":"getNegotiationMessages","outputs":[{"components":[{"internalType":"address","name":"sender","type":"address"},{"internalType":"string","name":"senderUsername","type":"string"},{"internalType":"uint256","name":"timestamp","type":"uint256"},{"internalType":"string","name":"message","type":"string"},{"internalType":"uint256","name":"proposedPrice","type":"uint256"},{"internalType":"uint256","name":"proposedEnergyAmount","type":"uint256"}],"internalType":"struct EnergyMarketplace.NegotiationMessage[]","name":"","type":"tuple[]"}],"stateMutability":"view","type":"function"},{"inputs":[{"internalType":"bytes32","name":"_offerId","type":"bytes32"}],"name":"getOfferDetails","outputs":[{"internalType":"bytes32","name":"id","type":"bytes32"},{"internalType":"address","name":"creator","type":"address"},{"internalType":"string","name":"creatorUsername","type":"string"},{"internalType":"enum EnergyMarketplace.OfferType","name":"offerType","type":"uint8"},{"internalType":"uint256","name":"energyAmount","type":"uint256"},{"internalType":"uint256","name":"pricePerUnit","type":"uint256"},{"internalType":"uint256","name":"totalPrice","type":"uint256"},{"internalType":"uint256","name":"startTime","type":"uint256"},{"internalType":"uint256","name":"endTime","type":"uint256"},{"internalType":"enum EnergyMarketplace.OfferStatus","name":"status","type":"uint8"},{"internalType":"address","name":"counterparty","type":"address"},{"internalType":"string","name":"counterpartyUsername","type":"string"},{"internalType":"uint256","name":"createdAt","type":"uint256"}],"stateMutability":"view","type":"function"},{"inputs":[{"internalType":"bytes32","name":"_offerId","type":"bytes32"}],"name":"getOfferNegotiators","outputs":[{"internalType":"address[]","name":"addresses","type":"address[]"},{"internalType":"string[]","name":"usernameList","type":"string[]"}],"stateMutability":"view","type":"function"},{"inputs":[{"internalType":"bytes32","name":"role","type":"bytes32"}],"name":"getRoleAdmin","outputs":[{"internalType":"bytes32","name":"","type":"bytes32"}],"stateMutability":"view","type":"function"},{"inputs":[{"internalType":"address","name":"_user","type":"address"}],"name":"getUserAgreements","outputs":[{"internalType":"bytes32[]","name":"","type":"bytes32[]"}],"stateMutability":"view","type":"function"},{"inputs":[{"internalType":"address","name":"_user","type":"address"}],"name":"getUserOffers","outputs":[{"internalType":"bytes32[]","name":"","type":"bytes32[]"}],"stateMutability":"view","type":"function"},{"inputs":[{"internalType":"address","name":"_user","type":"address"}],"name":"getUserStats","outputs":[{"internalType":"string","name":"username","type":"string"},{"internalType":"uint256","name":"offersCreated","type":"uint256"},{"internalType":"uint256","name":"offersNegotiated","type":"uint256"},{"internalType":"uint256","name":"agreementsCompleted","type":"uint256"},{"internalType":"uint256","name":"agreementsCancelled","type":"uint256"},{"internalType":"uint256","name":"disputesInitiated","type":"uint256"},{"internalType":"uint256","name":"disputesWon","type":"uint256"},{"internalType":"uint256","name":"totalEnergyTraded","type":"uint256"},{"internalType":"uint256","name":"totalValueTraded","type":"uint256"},{"internalType":"uint256","name":"lastActivityTimestamp","type":"uint256"}],"stateMutability":"view","type":"function"},{"inputs":[{"internalType":"address","name":"_user","type":"address"}],"name":"getUsernameByAddress","outputs":[{"internalType":"string","name":"","type":"string"}],"stateMutability":"view","type":"function"},{"inputs":[{"internalType":"bytes32","name":"role","type":"bytes32"},{"internalType":"address","name":"account","type":"address"}],"name":"grantRole","outputs":[],"stateMutability":"nonpayable","type":"function"},{"inputs":[{"internalType":"bytes32","name":"role","type":"bytes32"},{"internalType":"address","name":"account","type":"address"}],"name":"hasRole","outputs":[{"internalType":"bool","name":"","type":"bool"}],"stateMutability":"view","type":"function"},{"inputs":[{"internalType":"bytes32","name":"_offerId","type":"bytes32"}],"name":"moderateOffer","outputs":[],"stateMutability":"nonpayable","type":"function"},{"inputs":[{"internalType":"bytes32","name":"","type":"bytes32"},{"internalType":"uint256","name":"","type":"uint256"}],"name":"negotiations","outputs":[{"internalType":"address","name":"sender","type":"address"},{"internalType":"string","name":"senderUsername","type":"string"},{"internalType":"uint256","name":"timestamp","type":"uint256"},{"internalType":"string","name":"message","type":"string"},{"internalType":"uint256","name":"proposedPrice","type":"uint256"},{"internalType":"uint256","name":"proposedEnergyAmount","type":"uint256"}],"stateMutability":"view","type":"function"},{"inputs":[{"internalType":"bytes32","name":"","type":"bytes32"},{"internalType":"address","name":"","type":"address"}],"name":"offerNegotiations","outputs":[{"internalType":"bool","name":"isActive","type":"bool"},{"internalType":"address","name":"counterparty","type":"address"},{"internalType":"string","name":"counterpartyUsername","type":"string"},{"internalType":"uint256","name":"latestProposalIndex","type":"uint256"},{"internalType":"uint256","name":"startedAt","type":"uint256"}],"stateMutability":"view","type":"function"},{"inputs":[{"internalType":"bytes32","name":"","type":"bytes32"},{"internalType":"uint256","name":"","type":"uint256"}],"name":"offerNegotiators","outputs":[{"internalType":"address","name":"","type":"address"}],"stateMutability":"view","type":"function"},{"inputs":[{"internalType":"bytes32","name":"","type":"bytes32"}],"name":"offers","outputs":[{"internalType":"bytes32","name":"id","type":"bytes32"},{"internalType":"address","name":"creator","type":"address"},{"internalType":"string","name":"creatorUsername","type":"string"},{"internalType":"enum EnergyMarketplace.OfferType","name":"offerType","type":"uint8"},{"internalType":"uint256","name":"energyAmount","type":"uint256"},{"internalType":"uint256","name":"pricePerUnit","type":"uint256"},{"internalType":"uint256","name":"totalPrice","type":"uint256"},{"internalType":"uint256","name":"startTime","type":"uint256"},{"internalType":"uint256","name":"endTime","type":"uint256"},{"internalType":"enum EnergyMarketplace.OfferStatus","name":"status","type":"uint8"},{"internalType":"address","name":"counterparty","type":"address"},{"internalType":"string","name":"counterpartyUsername","type":"string"},{"internalType":"uint256","name":"createdAt","type":"uint256"}],"stateMutability":"view","type":"function"},{"inputs":[],"name":"owner","outputs":[{"internalType":"address","name":"","type":"address"}],"stateMutability":"view","type":"function"},{"inputs":[],"name":"pause","outputs":[],"stateMutability":"nonpayable","type":"function"},{"inputs":[],"name":"paused","outputs":[{"internalType":"bool","name":"","type":"bool"}],"stateMutability":"view","type":"function"},{"inputs":[{"internalType":"string","name":"_username","type":"string"}],"name":"registerUsername","outputs":[],"stateMutability":"nonpayable","type":"function"},{"inputs":[{"internalType":"address","name":"_account","type":"address"}],"name":"removeModerator","outputs":[],"stateMutability":"nonpayable","type":"function"},{"inputs":[],"name":"renounceOwnership","outputs":[],"stateMutability":"nonpayable","type":"function"},{"inputs":[{"internalType":"bytes32","name":"role","type":"bytes32"},{"internalType":"address","name":"callerConfirmation","type":"address"}],"name":"renounceRole","outputs":[],"stateMutability":"nonpayable","type":"function"},{"inputs":[{"internalType":"bytes32","name":"_agreementId","type":"bytes32"},{"internalType":"uint256","name":"_percentage","type":"uint256"}],"name":"reportEnergyDelivery","outputs":[],"stateMutability":"nonpayable","type":"function"},{"inputs":[{"internalType":"bytes32","name":"_agreementId","type":"bytes32"},{"internalType":"uint256","name":"_percentage","type":"uint256"},{"internalType":"bool","name":"buyerWins","type":"bool"}],"name":"resolveDispute","outputs":[],"stateMutability":"nonpayable","type":"function"},{"inputs":[{"internalType":"bytes32","name":"role","type":"bytes32"},{"internalType":"address","name":"account","type":"address"}],"name":"revokeRole","outputs":[],"stateMutability":"nonpayable","type":"function"},{"inputs":[{"internalType":"address","name":"_newEscrowContract","type":"address"}],"name":"setEscrowContract","outputs":[],"stateMutability":"nonpayable","type":"function"},{"inputs":[{"internalType":"bytes32","name":"_agreementId","type":"bytes32"}],"name":"startEnergyTransfer","outputs":[],"stateMutability":"nonpayable","type":"function"},{"inputs":[{"internalType":"bytes4","name":"interfaceId","type":"bytes4"}],"name":"supportsInterface","outputs":[{"internalType":"bool","name":"","type":"bool"}],"stateMutability":"view","type":"function"},{"inputs":[{"internalType":"address","name":"newOwner","type":"address"}],"name":"transferOwnership","outputs":[],"stateMutability":"nonpayable","type":"function"},{"inputs":[],"name":"unpause","outputs":[],"stateMutability":"nonpayable","type":"function"},{"inputs":[{"internalType":"bytes32","name":"_offerId","type":"bytes32"},{"internalType":"uint256","name":"_energyAmount","type":"uint256"},{"internalType":"uint256","name":"_pricePerUnit","type":"uint256"},{"internalType":"uint256","name":"_startTime","type":"uint256"},{"internalType":"uint256","name":"_endTime","type":"uint256"}],"name":"updateOffer","outputs":[],"stateMutability":"nonpayable","type":"function"},{"inputs":[{"internalType":"address","name":"","type":"address"},{"internalType":"uint256","name":"","type":"uint256"}],"name":"userAgreements","outputs":[{"internalType":"bytes32","name":"","type":"bytes32"}],"stateMutability":"view","type":"function"},{"inputs":[{"internalType":"address","name":"","type":"address"},{"internalType":"uint256","name":"","type":"uint256"}],"name":"userOffers","outputs":[{"internalType":"bytes32","name":"","type":"bytes32"}],"stateMutability":"view","type":"function"},{"inputs":[{"internalType":"address","name":"","type":"address"}],"name":"userProfiles","outputs":[{"internalType":"uint256","name":"offersCreated","type":"uint256"},{"internalType":"uint256","name":"offersNegotiated","type":"uint256"},{"internalType":"uint256","name":"agreementsCompleted","type":"uint256"},{"internalType":"uint256","name":"agreementsCancelled","type":"uint256"},{"internalType":"uint256","name":"disputesInitiated","type":"uint256"},{"internalType":"uint256","name":"disputesWon","type":"uint256"},{"internalType":"uint256","name":"totalEnergyTraded","type":"uint256"},{"internalType":"uint256","name":"totalValueTraded","type":"uint256"},{"internalType":"uint256","name":"lastActivityTimestamp","type":"uint256"}],"stateMutability":"view","type":"function"},{"inputs":[{"internalType":"address","name":"","type":"address"}],"name":"usernames","outputs":[{"internalType":"string","name":"","type":"string"}],"stateMutability":"view","type":"function"}],"evm":{"bytecode":{"linkReferences":{},"object":"6080346200015c576001600160401b0390601f62006d8f38819003918201601f19168301918483118484101762000161578084926020946040528339810103126200015c57516001600160a01b038082169290918390036200015c576000906001825560ff1960015416600155331562000143576003549060018060a01b031994338684161760035560405192853391167f8be0079c531659141344cd1fd0a4f28419497f9722a3daafe3b4186f6b6457e08680a3836009558086600454161760045561112580840192848410908411176200012f5791839160209362005c4a8439815203019082f090811562000123575016906005541617600555620001063362000177565b506200011233620001f8565b506040516159ae90816200029c8239f35b604051903d90823e3d90fd5b634e487b7160e01b85526041600452602485fd5b604051631e4fbdf760e01b815260048101839052602490fd5b600080fd5b634e487b7160e01b600052604160045260246000fd5b6001600160a01b031660008181527fac33ff75c19e70fe83507db0d683fd3465c996598dc972688b7ace676c89077b602052604081205490919060ff16620001f45781805260026020526040822081835260205260408220600160ff19825416179055339160008051602062006d6f8339815191528180a4600190565b5090565b6001600160a01b031660008181527fe5ebfa64fca8d502a8e50c1edffd2c31ef4dad5b396e65d9f397fb028f74abc560205260408120549091907fa49807205ce4d355092ef5a8a18f56e8913cf4a201fbe287825b095693c217759060ff16620002965780835260026020526040832082845260205260408320600160ff1982541617905560008051602062006d6f833981519152339380a4600190565b50509056fe6080604052600436101561001257600080fd5b6000803560e01c806245be6f1461467757806301ffc9a714614620578063096fd30a14614536578063131191611461450d5780631cd896c1146144f25780632305399b146141df578063248a9ca3146141b25780632f2ff15d14614174578063332d56d7146140e257806336568abe1461409a57806336a9413414613d3757806337d6e15e14613be357806338e8dfca14613ab85780633f4ba83a14613a4d578063448bb33514613a30578063474d3ff0146139975780634b68d431146136f35780634c27984e146136ab5780634e43603a146135f15780634ec7fb81146135c8578063528064251461338157806354f2bbd6146133565780635c975abb146133335780636322961d146132d7578063661d2c2c1461329657806368484c7c14612d5e5780637048027514612d0e578063715018a614612cb057806375b238fc14612c87578063797669c914612c5e5780637aaf23f6146129e85780637f10c00b1461299d5780637ff118ef1461291a578063828525bb146121ed5780638456cb5914612193578063869d785f146121435780638b740975146120a75780638da5cb5b1461207e57806391d1485414612032578063952acc6c14611da25780639e1f68c714611caa5780639f1652d814611c19578063a217fddf14611bfd578063a5bbe22b14611bdf578063adb9cae614611b92578063adc3e5f714611a37578063b532e4cb146119e7578063ba72a73e1461188e578063bd5fec6514611838578063c81e59b2146115f3578063cb31fe39146112f4578063d3a164f1146110d5578063d547741f14611093578063d9710fbe14610a22578063da79cf0a14610738578063e42a96e71461070f578063e50e98141461066a578063ed1a998d14610617578063ee91877c14610617578063f2fde38b1461058c578063f42375b5146105005763faf0bbbf146102c657600080fd5b346104fd5760603660031901126104fd576004359060243560443580151581036104f9576102f2614c6b565b838352602091600c8352604084209161030d868454146155bc565b15610450575060055460098201546001600160a01b0391821690813b1561044c57859160248392604051948593849263b9a7579b60e01b845260048401525af1801561044157908591610429575b5050600a820160ff1981541690556002820154168352600882526005604084200193845460018101809111610415576004939495557f6d076295600b2edccfb5c35388414d69ea1ebde72de4e48290780f5fbe0d9f286060604051868152601f878201527f41646d696e207265736f6c76656420696e2062757965722773206661766f72006040820152a25b600860018060a01b039384600284015416865252426008604086200155015416815242600860408320015580f35b634e487b7160e01b85526011600452602485fd5b61043290614948565b61043d57833861035b565b8380fd5b6040513d87823e3d90fd5b8580fd5b9192938460018060a01b03600554166009840154813b156104f9578291604483926040519586938492635d655fb160e01b845260048401528a60248401525af19182156104ec5786926104d1575b50507fec1d080ea1c9d6e68361e523876c215943bb6f4ca3ab455e4fac692318d9eab690600494604051908152a26103e7565b6104dc919250614948565b6104e85783853861049e565b8480fd5b50604051903d90823e3d90fd5b8280fd5b80fd5b50346104fd5760203660031901126104fd5761051a6148cb565b610522614ff8565b6001600160a01b03168015610547576001600160601b0360a01b600554161760055580f35b60405162461bcd60e51b815260206004820152601f60248201527f496e76616c696420657363726f7720636f6e74726163742061646472657373006044820152606490fd5b50346104fd5760203660031901126104fd576105a66148cb565b6105ae614ff8565b6001600160a01b039081169081156105fe57600354826001600160601b0360a01b821617600355167f8be0079c531659141344cd1fd0a4f28419497f9722a3daafe3b4186f6b6457e0600080a380f35b604051631e4fbdf760e01b815260048101849052602490fd5b50346104fd5760203660031901126104fd5761066690610652906040906001600160a01b036106446148cb565b1681526006602052206149b3565b604051918291602083526020830190614890565b0390f35b50346104fd5761067936614852565b908252600b6020526040822080548210156104f9576106989250614b9d565b5080546001600160a01b03166106b0600183016149b3565b9160028101546107006106c5600384016149b3565b9160056004850154940154926106ed604051978897885260c0602089015260c0880190614890565b9160408701528582036060870152614890565b91608084015260a08301520390f35b50346104fd57806003193601126104fd576005546040516001600160a01b039091168152602090f35b50346104fd57602090816003193601126104fd576004359161075861514e565b6107606152ef565b610768614bb9565b828252600c81526040822061077f848254146155bc565b600a81019081549061079360ff8316615608565b6107a460ff600c830154161561564b565b600b8101544211156109dd57600281019260018060a01b039283855416331480156109ce575b80156109a0575b8015610972575b1561092d5760ff1916905560018101548552600a84526040852092600984016affffffffffffffffffffff60a81b81541690556000600a850161082461081e825461490e565b826150e1565b5561082f8454615283565b600f546000198101908111610919579083918554885260108752604088205554168552600884526003604086200180549060018201809211610919579060049291550154168352600882526003604084200193845460018101809111610415576000805160206158f983398151915293949555338552600884524260086040872001557fb5ab43bcf285e9fad797296514da26254613cd9bbdf4410f385d0ab4e839590d60606040518681526018878201527f46756e64696e6720646561646c696e65206578706972656400000000000000006040820152a2549160405160008152a26001815580f35b634e487b7160e01b87526011600452602487fd5b60405162461bcd60e51b815260048101879052601860248201527f4e6f7420617574686f72697a656420746f2063616e63656c00000000000000006044820152606490fd5b506000805160206159198339815191528752600286526040872033600052865260ff604060002054166107d8565b506000805160206159598339815191528752600286526040872033600052865260ff604060002054166107d1565b508360048401541633146107ca565b60405162461bcd60e51b815260048101859052601c60248201527f46756e64696e6720646561646c696e65206e6f742065787069726564000000006044820152606490fd5b50346104fd5760203660031901126104fd57610a3c61514e565b610a446152ef565b610a4c614bb9565b6004358152600a602052604081206006810154906004810154610a73600435835414615380565b60ff600983015416600681101561107f5760020361101b57610a9681151561516c565b3384526006602052610aaa604085206149b3565b92610ab78451151561520e565b60ff600384015416600281101561100757610fd05760018301546084926001600160a01b039091169190610aed600286016149b3565b908333938897610aff838714156154cb565b610b098233615321565b9960208c60018060a01b039a8b9687928360055416604051998a95869463665d72fb60e11b86521660048501528d1660248401528a60448401528860648401525af1938415610fc5578c94610f8d575b506009820180546001600160a81b0319163360081b610100600160a81b031617600217905580516001600160401b038111610f7957610ba881610b9f600a86015461490e565b600a8601615109565b60208d601f8311600114610f0c5790600a9383610f01575b50508160011b916000199060031b1c1916179101555b610be1600435615517565b888a52600c60205260408a20928984556004356001850155600284018888166001600160601b0360a01b82541617905584516001600160401b038111610e7857610c3b81610c32600388015461490e565b60038801615109565b806020601f8211600114610e97578d91610e8c575b508160011b916000199060031b1c19161760038501555b6004840180546001600160a01b031916878a1617905588516001600160401b038111610e7857610ca781610c9e600588015461490e565b60058801615109565b806020601f8211600114610e0d578d91610e02575b508160011b916000199060031b1c19161760058501555b60068401556007830155426008830155610e104201804211610dee57868996610dc660019760209a610dae8f99600c8f9a8e9a7f1fff3863e62fa430ea2ebf8af6e741a76dcd1456cd7404a5af1a5446ce4d64469a600b8301556009820155600a81018e60ff198254161790550160ff1981541690558286168b52600e8e52610d5f8960408d206152c0565b8284168b52600e8e52610d758960408d206152c0565b8286168b5260088e5242600860408d2001558284168b5242600860408d20015560405196879616865260808e8701526080860190614890565b91166040840152828103606084015260043596614890565b0390a3604051600281526000805160206158f98339815191528560043592a255604051908152f35b634e487b7160e01b8a52601160045260248afd5b90508a015138610cbc565b9150600586018d5260208d208d925b8c601f1984168510610e6157506001935082601f19811610610e48575b5050811b016005850155610cd3565b8c015160001960f88460031b161c191690553880610e39565b810151825560209384019360019092019101610e1c565b634e487b7160e01b8c52604160045260248cfd5b905086015138610c50565b9150600386018d5260208d208d925b601f1983168410610ee9576001935082601f19811610610ed0575b5050811b016003850155610c67565b88015160001960f88460031b161c191690553880610ec1565b88810151825560209384019360019092019101610ea6565b015190503880610bc0565b9192600a8501835260208320925b601f1985168110610f615750918391600193600a95601f19811610610f48575b505050811b01910155610bd6565b015160001960f88460031b161c19169055388080610f3a565b91926020600181928685015181550194019201610f1a565b634e487b7160e01b8d52604160045260248dfd5b9093506020813d602011610fbd575b81610fa960209383614992565b81010312610fb957519238610b59565b8b80fd5b3d9150610f9c565b6040513d8e823e3d90fd5b600183015491926084926001600160a01b031690610ff0600282016149b3565b943380948893611002868414156154cb565b610aff565b634e487b7160e01b86526021600452602486fd5b60405162461bcd60e51b815260206004820152603660248201527f4f66666572206d757374206265206167726565642075706f6e206265666f72656044820152750818dc99585d1a5b99c8185b881859dc99595b595b9d60521b6064820152608490fd5b634e487b7160e01b85526021600452602485fd5b50346104fd5760403660031901126104fd576110d16004356110b36148b5565b9080845260026020526110cc6001604086200154614cb5565b614f81565b5080f35b50346104fd576110e436614852565b6110ec61514e565b6110f46152ef565b6110fc614c21565b818352600c6020526040832090611115838354146155bc565b61112560ff600a84015416615697565b6019811480156112ea575b80156112e0575b80156112d6575b1561128357600554600983015485916001600160a01b031690813b156104f9578291604483926040519485938492635d655fb160e01b845260048401528860248401525af1801561127857611264575b505060405160608101928184106001600160401b0385111761124e576064936040524282526111f060016020840193818552600d60408201948a8652878b520160205260408920905181550192511515839060ff801983541691151516179055565b51151561ff0082549160081b169061ff001916179055827fec1d080ea1c9d6e68361e523876c215943bb6f4ca3ab455e4fac692318d9eab66020604051848152a21461123f575b506001815580f35b611248906156e3565b38611237565b634e487b7160e01b600052604160045260246000fd5b61126d90614948565b61043d57833861118e565b6040513d84823e3d90fd5b60405162461bcd60e51b815260206004820152602560248201527f50657263656e74616765206d7573742062652032352c2035302c2037352c206f604482015264072203130360dc1b6064820152608490fd5b506064811461113e565b50604b8114611137565b5060328114611130565b50346104fd5760403660031901126104fd576004356113116148b5565b9061131a61514e565b6113226152ef565b8083526020600a8152604084209261133c83855414615380565b60018481015490946001600160a01b03918216330361159857600981019160ff93848454166006811015611584579180916113798a8095146153c3565b168061146b575088825b6113eb575b505050906000600a6000805160206158f98339815191529594936affffffffffffffffffffff60a81b8454168455016113c461081e825461490e565b555b3387526008835242600860408920015554166113e56040518092614a7c565ba2815580f35b878a526012875260408a20805482101561146557908261140e8261143c94614b4a565b90549060031b1c16898c526011808a5260408d20826000528a528860406000205416611442575b5050615312565b82611383565b8a8d52895260408c20906000528852604060002060ff1981541690553880611435565b50611388565b878a989796959493985260119081875260408b20816000528752611495866040600020541661540f565b878b528187526040808c20600092835288529020805460ff19169055899182895b61150a575b5050506000805160206158f9833981519152959650156114dc575b506113c6565b600a6000916affffffffffffffffffffff60a81b84541684550161150361081e825461490e565b55386114d6565b888c52601288528b60408120805483101561157d5760409161152d848693614b4a565b939054918d8152878d52209260031b1c166000528852866040600020541661155e5761155890615312565b896114b6565b505050506000805160206158f9833981519152949587969538806114bb565b50506114bb565b634e487b7160e01b8a52602160045260248afd5b60405162461bcd60e51b815260048101859052602d60248201527f4f6e6c7920746865206f666665722063726561746f722063616e2063616e636560448201526c36103732b3b7ba34b0ba34b7b760991b6064820152608490fd5b50346104fd5760603660031901126104fd57600435906024918235926044356001600160401b03811161043d5761162e9036906004016148e1565b61163995919561514e565b6116416152ef565b611649614bb9565b838552602092600c845260408620611663868254146155bc565b61167360ff600a83015416615697565b60028101546001600160a01b031633036117fb57600d908488520184526040862060018154916116a483151561588c565b019081549060ff8216156117a75762015180810180911161179457421161175a5761ffff19166101001790553386526008845260408620600401805460018101929083106117485750917ffcb7e83f02e3a70254e135a79debb7538f65d50d87b4011583b1f184d304a37d9596979161173e93553388526008855242600860408a20015560408051958695865285015260408401916150a9565b0390a26001815580f35b634e487b7160e01b8852601160045287fd5b60405162461bcd60e51b815260048101879052601381850152722234b9b83aba32903832b934b7b21037bb32b960691b6044820152606490fd5b634e487b7160e01b895260116004528389fd5b60405162461bcd60e51b8152600481018890526027818601527f4d696c6573746f6e6520616c72656164792066696e616c697a6564206f7220646044820152661a5cdc1d5d195960ca1b6064820152608490fd5b60405162461bcd60e51b815260048101869052601681840152754f6e6c792062757965722063616e206469737075746560501b6044820152606490fd5b50346104fd5760403660031901126104fd576118526148cb565b6001600160a01b03168152600d60205260408120805460243592908310156104fd5760206118808484614b4a565b90546040519160031b1c8152f35b50346104fd576020806003193601126119e357600435906118ad61514e565b6118b56152ef565b6118bd614bb9565b818352600c8152604083206118d4838254146155bc565b6118e460ff600a83015416615608565b60ff600c82015416156119a75760028101546001600160a01b03163303611962579060017fec1d080ea1c9d6e68361e523876c215943bb6f4ca3ab455e4fac692318d9eab69201548452600a815260096040852001600360ff1982541617905533845260088152426008604086200155604051848152a26001815580f35b60405162461bcd60e51b815260048101839052601d60248201527f4f6e6c792062757965722063616e207374617274207472616e736665720000006044820152606490fd5b60405162461bcd60e51b81526004810183905260146024820152731059dc99595b595b9d081b9bdd08199d5b99195960621b6044820152606490fd5b5080fd5b50346104fd5760203660031901126104fd576110d1611a046148cb565b611a0c614c6b565b60008051602061591983398151915283526002602052611a326001604085200154614cb5565b614df4565b50346104fd5760403660031901126104fd576004356024356001600160401b0381116104f957611a6b9036906004016148e1565b9190611a7561514e565b611a7d6152ef565b611a85614c21565b818452600c6020526040842090611a9e838354146155bc565b600a820193611ab060ff865416615697565b600183019485548752600a602052866040812094600960018060a01b0360055416910154813b156104f957829160248392604051948593849263b9a7579b60e01b845260048401525af1801561127857611b7a575b5050600560097f6d076295600b2edccfb5c35388414d69ea1ebde72de4e48290780f5fbe0d9f289560ff19938481541690550191825416179055611b566040519283926020845260208401916150a9565b0390a2546000805160206158f9833981519152602060405160058152a26001815580f35b611b8390614948565b611b8e578638611b05565b8680fd5b50346104fd5760203660031901126104fd57611bd3604061066692611bb56148cb565b611bbd614bb9565b6001600160a01b03168152600e60205220615812565b60405191829182614b62565b50346104fd57806003193601126104fd576020604051620151808152f35b50346104fd57806003193601126104fd57602090604051908152f35b50346104fd5760403660031901126104fd576040611c356148b5565b91600435815260116020522060018060a01b038092166000526020526040600020805490611c65600182016149b3565b611c9b6003600284015493015491604051958560ff8897161515875260081c16602086015260a0604086015260a0850190614890565b91606084015260808301520390f35b50346104fd5760203660031901126104fd576004358152600c6020526040902080546001820154600283015490926001600160a01b0391821690611cf0600382016149b3565b926004820154169260058201611d05906149b3565b936006830154946007840154600885015491600986015493600a87015460ff1695600b88015497600c015460ff16986040519c8d9c8d5260208d015260408c01526101a08060608d01528b01611d5a91614890565b9060808b015289810360a08b0152611d7191614890565b9660c089015260e0880152610100870152610120860152151561014085015261016084015215156101808301520390f35b50346104fd5760a03660031901126104fd57600435606460446084356024833583358235611dce61514e565b611dd66152ef565b611dde614bb9565b878952602096600a885260408a2094611df98a875414615380565b60018601546001600160a01b03163303611ff257600986019760ff8954166006811015611fdf578015908115611fd4575b5015611f94578315611f43578415611ef157611e478689116151b8565b42861115611eb3575050509260ff9492611e80600893866000805160206158f98339815191529a9997600486015581600586015561525a565b600683015560078201550155338652600883524260086040882001555416611eab6040518092614a7c565ba26001815580f35b7f53746172742074696d65206d75737420626520696e2074686520667574757265908a6040519362461bcd60e51b8552816004860152840152820152fd5b6084927f50726963652070657220756e6974206d757374206265206772656174657220746768616e207a65726f60c01b9260288d956040519662461bcd60e51b88526004880152860152840152820152fd5b6084927f456e6572677920616d6f756e74206d757374206265206772656174657220746866616e207a65726f60c81b9260278d956040519662461bcd60e51b88526004880152860152840152820152fd5b7f4f666665722063616e6e6f7420626520757064617465640000000000000000009060178b936040519462461bcd60e51b86526004860152840152820152fd5b600191501438611e2a565b634e487b7160e01b8d526021600452828dfd5b7f4f6e6c792063726561746f722063616e20757064617465206f6666657200000088601d8b936040519462461bcd60e51b86526004860152840152820152fd5b50346104fd5760403660031901126104fd57604061204e6148b5565b9160043581526002602052209060018060a01b0316600052602052602060ff604060002054166040519015158152f35b50346104fd57806003193601126104fd576003546040516001600160a01b039091168152602090f35b50346104fd5760203660031901126104fd576040906120c4614bb9565b6004358152600a6020522060ff61066682549260018060a01b0380600183015416908460038401541690600484015460058501546006860154600787015491600888015493600989015496600b8a01549961212d600a612126600284016149b3565b92016149b3565b996040519e8f9e8f9a8c60081c169b1699614a89565b50346104fd5760203660031901126104fd576110d16121606148cb565b612168614c6b565b6000805160206159198339815191528352600260205261218e6001604085200154614cb5565b614ee7565b50346104fd57806003193601126104fd576121ac614c6b565b6121b461514e565b600160ff19815416176001557f62e78cea01bee320cd4e420270b5ea74000d11b0c9f74754ebdbfc544b05a2586020604051338152a180f35b50346104fd5760803660031901126104fd576024356001600160401b0381116119e35761221e9036906004016148e1565b61222661514e565b61222e6152ef565b612236614bb9565b6004358352600a60205260408320612252600435825414615380565b60ff600982015416600681101561107f57801590811561290f575b50156128ca573384526006602052612287604085206149b3565b926122948451151561520e565b60043585526011602052604085203360005260205260ff6040600020541615806128b3575b612678575b600982015460ff811660068110156126645715612634575b506004358552600b60205260408520805493604051926122f584614977565b3384528660208501524260408501526001600160401b03821161124e5787906040519261232c6020601f19601f8401160185614992565b80845236818301116104f9578060209283860137830101526060830152604435608083015260643560a0830152600160401b841015612620578361237591600182018155614b9d565b91909161260c57805182546001600160a01b0319166001600160a01b039190911617825560208101518051906001600160401b03821161257e5781906123cb826123c2600188015461490e565b60018801615109565b602090601f831160011461259d578992612592575b50508160011b916000199060031b1c19161760018301555b6040810151600283015560608101518051906001600160401b03821161257e5761243282612429600387015461490e565b60038701615109565b602090601f831160011461250c5791806005949260a0948b92612501575b50508160011b916000199060031b1c19161760038501555b608081015160048501550151910155600101546001600160a01b031633036124dd575b5033825260086020524260086040842001557fc5dcf1df95933ad0eda9c2638b78f3ff55e306343fd7fdb3487c25c577baa6eb604051338152604060208201528061173e600435946040830190614890565b6004358352601160205260408320336000526020526002604060002001553861248b565b015190503880612450565b906003850189526020892091895b601f19851681106125665750926005949260019260a09583601f1981161061254d575b505050811b016003850155612468565b015160001960f88460031b161c1916905538808061253d565b9192602060018192868501518155019401920161251a565b634e487b7160e01b88526041600452602488fd5b0151905038806123e0565b9250600185018952602089209089935b601f19841685106125f1576001945083601f198116106125d8575b505050811b0160018301556123f8565b015160001960f88460031b161c191690553880806125c8565b818101518355602094850194600190930192909101906125ad565b634e487b7160e01b86526004869052602486fd5b634e487b7160e01b86526041600452602486fd5b60019060ff1916176009830155604051600181526000805160206158f9833981519152602060043592a2386122d6565b634e487b7160e01b87526021600452602487fd5b6004358552600b602052604085205460405160a081018181106001600160401b0382111761124e576040526001815260208101913383526040820190878252606083015242608083015260043588526011602052604088203360005260205261271c6040600020936126f984511515869060ff801983541691151516179055565b518454610100600160a81b03191660089190911b610100600160a81b0316178455565b518051906001600160401b03821161289f576127488261273f600187015461490e565b60018701615109565b602090601f831160011461282e579180600394926080948c92612823575b505060001982861b1c1916600191821b17908501555b6060810151600285015501519101556004358552601260205260408520805490600160401b82101561280f57906127b891600182018155614b4a565b81549060031b9033821b9160018060a01b03901b191617905533855260086020526040852060018101805490600182018092116127fb57556008429101556122be565b634e487b7160e01b88526011600452602488fd5b634e487b7160e01b87526041600452602487fd5b015190503880612766565b90600185018a5260208a20918a5b601f19851681106128875750926003949260019260809583601f1981161061286f575b505050811b01600185015561277c565b015160001983881b60f8161c1916905538808061285f565b9192602060018192868501518155019401920161283c565b634e487b7160e01b89526041600452602489fd5b5060018201546001600160a01b03163314156122b9565b60405162461bcd60e51b815260206004820152601e60248201527f4f66666572206e6f74206f70656e20666f72206e65676f74696174696f6e00006044820152606490fd5b60019150143861226d565b50346104fd57806003193601126104fd57612933614bb9565b60405180600f5491828152602080910192600f6000527f8d1108e10bcb7c27dddfc02ed9d693a074039d026cf4ea4240b40f7d581ac802916000905b8282106129865761066685611bd381890382614992565b83548652948501946001938401939091019061296f565b50346104fd576129ac36614852565b919081526012602052604081209081548310156104fd5760206129cf8484614b4a565b905460405160039290921b1c6001600160a01b03168152f35b50346104fd576020806003193601126119e35760043590612a0761514e565b612a0f6152ef565b612a17614bb9565b818352600c81526040832090612a2f838354146155bc565b612a3f60ff600a84015416615608565b600c8201612a5160ff8254161561564b565b600b8301544211612c1957600283019260018060a01b039182855416803303612bde578484600454169160648660055416918b60078801549560405196879586946323b872dd60e01b86526004860152602485015260448401525af1908115612bd3578891612b99575b5015612b5c57908691600160ff1982541617905560098360055416910154813b156104f9578291602483926040519485938492636789f9cb60e01b845260048401525af1801561127857612b48575b505060089254168452524260086040842001557fe0bac39983ceda0137b6524aafbd5e9ef70274d73e348c3dd12d1ea0e427c04c8280a26001815580f35b612b5190614948565b6104e8578438612b0a565b60405162461bcd60e51b8152600481018590526015602482015274151bdad95b881d1c985b9cd9995c8819985a5b1959605a1b6044820152606490fd5b90508481813d8311612bcc575b612bb08183614992565b81010312612bc857518015158103612bc85738612abb565b8780fd5b503d612ba6565b6040513d8a823e3d90fd5b60405162461bcd60e51b815260048101869052601360248201527213db9b1e48189d5e595c8818d85b88199d5b99606a1b6044820152606490fd5b60405162461bcd60e51b815260048101839052601760248201527f46756e64696e6720646561646c696e65207061737365640000000000000000006044820152606490fd5b50346104fd57806003193601126104fd5760206040516000805160206159198339815191528152f35b50346104fd57806003193601126104fd5760206040516000805160206159598339815191528152f35b50346104fd57806003193601126104fd57612cc9614ff8565b600380546001600160a01b031981169091556000906001600160a01b03167f8be0079c531659141344cd1fd0a4f28419497f9722a3daafe3b4186f6b6457e08280a380f35b50346104fd5760203660031901126104fd576110d1612d2b6148cb565b612d33614c6b565b60008051602061595983398151915283526002602052612d596001604085200154614cb5565b614d6a565b50346104fd5760a03660031901126104fd57600260043510156104fd57612d8361514e565b612d8b6152ef565b612d93614bb9565b612da0602435151561516c565b6044351561325157612db7606435608435116151b8565b42606435111561320c573381526006602052612dd5604082206149b3565b612de18151151561520e565b612def60443560243561525a565b90612e056004356001600160a01b031633615321565b9160405190816101a08101106001600160401b036101a08401111761124e576101a082016040528382523360208301528260408301526004356060830152602435608083015260443560a083015260c082015260643560e082015260843561010082015283610120820152836101408201526040518060208101106001600160401b0360208301111761124e576020810160405284815261016082015242610180820152828452600a6020526040842090805182556001820160018060a01b036020830151166001600160601b0360a01b82541617905560408101518051906001600160401b03821161280f578190612f0e82612f05600288015461490e565b60028801615109565b602090601f831160011461319d578892613192575b50508160011b916000199060031b1c19161760028301555b60608101516003830160028210156126645760ff199160ff8383541691161790556080820151600484015560a0820151600584015560c0820151600684015560e082015160078401556101008201516008840155600983019061012083015190600682101561317e578254610140850151610100600160a81b0360089190911b1660ff939093169116610100600160a81b03191617179055600a82016101608201518051906001600160401b03821161257e5761300282612ffc855461490e565b85615109565b602090601f83116001146131135791806101809492600b96948b92613108575b50508160011b916000199060031b1c19161790555b0151910155338352600d60205261305182604085206152c0565b61305a82615283565b600f5460001981019081116130f457828452601060205260408420553383526008602052604083208054600181018091116104155791816001936020969355600842910155837f60b719a00b05f4a616f035ae1408708be41b79f79f6141f2120f8fd5e01aa0d36130d660405193604085526040850190614890565b926130e5888201600435614a59565b8033940390a355604051908152f35b634e487b7160e01b84526011600452602484fd5b015190503880613022565b838952602089209190601f1984168a5b8181106131665750926001928592600b989661018098961061314d575b505050811b019055613037565b015160001960f88460031b161c19169055388080613140565b92936020600181928786015181550195019301613123565b634e487b7160e01b88526021600452602488fd5b015190503880612f23565b9250600285018852602088209088935b601f19841685106131f1576001945083601f198116106131d8575b505050811b016002830155612f3b565b015160001960f88460031b161c191690553880806131c8565b818101518355602094850194600190930192909101906131ad565b60405162461bcd60e51b815260206004820152601c60248201527f53746172742074696d65206d75737420626520696e20667574757265000000006044820152606490fd5b60405162461bcd60e51b815260206004820152601a60248201527f50726963652070657220756e6974206d757374206265203e20300000000000006044820152606490fd5b50346104fd5760203660031901126104fd57611bd36040610666926132b96148cb565b6132c1614bb9565b6001600160a01b03168152600d60205220615812565b50346104fd5760203660031901126104fd57600435906001600160401b0382116104fd57602061330a36600485016148e1565b80604051928337600790820190815281900382019020546040516001600160a01b039091168152f35b50346104fd57806003193601126104fd57602060ff600154166040519015158152f35b50346104fd5760203660031901126104fd5760043590600f548210156104fd57602061188083614b13565b50346104fd576020806003193601126119e35781600435815b8185526012845260408520805482101561340a57816133b891614b4a565b90549083875260118652604087209160018060a01b039160031b1c16600052845260ff604060002054166133f5575b6133f090615312565b61339a565b916134026133f091615312565b9290506133e7565b5050909161341783615861565b936134256040519586614992565b83855261343184615861565b9482810194601f198097013687378661346261344c83615861565b9261345a6040519485614992565b808452615861565b0184845b8281106135b8575050508293835b86855260128252604085208054821015613518578161349291614b4a565b60018060a01b0391549060031b1c16878652601183526040862081600052835260ff604060002054166134cf575b506134ca90615312565b613474565b8681613511926134e36134ca959a89615878565b528752600684526134f6604088206149b3565b6135008287615878565b5261350b8186615878565b50615312565b95906134c0565b5050928787946040519460408601906040875251809152606086019690845b81811061359b57505050848603818601528351918287528187019082808560051b8a0101960194975b84891061356d5787870388f35b9091929394958480613589838686600196030188528a51614890565b98019401980197919094939294613560565b82516001600160a01b031689529783019791830191600101613537565b6060828286010152018590613466565b50346104fd57806003193601126104fd576004546040516001600160a01b039091168152602090f35b50346104fd5760203660031901126104fd57613677906001600160a01b036136176148cb565b168152600860205260408082209160066020522081549060018301549260028101546003820154600483015460058401549160068501549361366260086007880154970154976149b3565b986040519a8b9a610140808d528c0190614890565b9860208b015260408a01526060890152608088015260a087015260c086015260e08501526101008401526101208301520390f35b50346104fd5760403660031901126104fd576136c56148cb565b6001600160a01b03168152600e60205260408120805460243592908310156104fd5760206118808484614b4a565b50346104fd5760403660031901126104fd5761370d6148cb565b6001600160401b039060243582811161043d5761372e9036906004016148e1565b9190613738614c6b565b60008051602061593983398151915285526020916002835260019061376282604089200154614cb5565b61376b81614cdb565b5084613775578680f35b61378184861115615024565b60405190858483376137ab86830160078152838760018060a01b0395869303019020541615615064565b1694858752600684526040872090851161280f578591816137d7876137d18b955461490e565b83615109565b82601f8811600114613906579383879694936008938a6138ee987f4afe13536e3149cddd8c9a8df1580cd5e909fd13c41e7dfead2e38d1141dad5d9c9b97916138fb575b5060001960038c901b1c19168a831b1790555b6040518987823785818b81016007815203019020836001600160601b0360a01b8254161790556040519485916138638361495b565b8383528183019084825260408401858152606085019186835260808601938785526040888b60a08a0198828a5261010060c08c019b848d5260e081019d8e52019c8d429052835252209a518b5551908a0155516002890155516003880155516004870155516005860155516006850155516007840155519101556040519383859485528401916150a9565b0390a23880808080808680f35b90508701353861381b565b81845286842090601f198916855b81811061397c5750936008936138ee97938a9997938c7f4afe13536e3149cddd8c9a8df1580cd5e909fd13c41e7dfead2e38d1141dad5d9d9c9810613962575b5050818a811b01905561382e565b88013560001960038d901b60f8161c191690553880613954565b8883013584558b97508c965092850192918901918901613914565b50346104fd5760203660031901126104fd576004358152600a6020526040902080546001820154909160ff91610666916001600160a01b03918216916139df600283016149b3565b908560038401541660048401546005850154600686015490600787015492600888015494600989015497600b613a17600a8c016149b3565b9a01549a6040519e8f9e8f9a8c60081c169b1699614a89565b50346104fd57806003193601126104fd576020604051610e108152f35b50346104fd57806003193601126104fd57613a66614c6b565b60015460ff811615613aa65760ff19166001557f5db9ee0a495bf2e6ff9c91a7834c1ba4fdd244a5e8aa4e537bd38aeae4b073aa6020604051338152a180f35b604051638dfc202b60e01b8152600490fd5b50346104fd576020806003193601126119e35790613ad4614bb9565b6004358152600b825260408120805491613aed83615861565b92613afb6040519485614992565b8084528484018093835285832083915b838310613bbe5750505050604051928484019085855251809152604084019460408260051b8601019392955b828710613b445785850386f35b909192938280600192603f19898203018552875190848060a01b038251168152613b9a613b7d8484015160c08087860152840190614890565b604084015160408401526060808501519084830390850152614890565b916080808201519083015260a0809101519101529601920196019592919092613b37565b600688600192613bd1859b9a989b61546b565b81520192019201919096939596613b0b565b50346104fd5760203660031901126104fd57600435613c00614c21565b808252600a602052600960408320613c1a83825414615380565b01805460ff8116600681101561107f578015908115613d2c575b5015613ce75760ff191660051790558082526010602052604082205415801590613c88575b613c7a575b6000805160206158f9833981519152602060405160058152a280f35b613c8381615517565b613c5e565b50600f541580159081613c9c575b50613c59565b9050613cd157600f600052807f8d1108e10bcb7c27dddfc02ed9d693a074039d026cf4ea4240b40f7d581ac802541438613c96565b634e487b7160e01b600052603260045260246000fd5b60405162461bcd60e51b815260206004820152601960248201527f4f666665722063616e6e6f74206265206d6f64657261746564000000000000006044820152606490fd5b600191501438613c34565b50346104fd576020806003193601126119e3576001600160401b0360043581811161043d57613d6a9036906004016148e1565b91613d7361514e565b613d7b614bb9565b821561405557613d8d84841115615024565b613dc160405184848237600781860190815281900386019020546001600160a01b0390811615908115614035575b50615064565b33855260068452613dd4604086206149b3565b805115613ff55760405185818351613def818385880161486d565b810160078152030190206001600160601b0360a01b81541690557f13428138c872937c879d86da5f1947a7625d28588e4f7f2c44bcb70abbd77473613e3f60405192604084526040840190614890565b918083038782015280613e54339488886150a9565b0390a25b3385526006845260408520908311613fe1579081613e7b846137d187955461490e565b8386601f8211600114613f7f578791613f74575b508460011b906000198660031b1c19161790555b82604051938492833781016007815203019020336001600160601b0360a01b8254161790553382526008815260086040832001805415600014613f6d5750600860405191613ef08361495b565b83835280830184815260408401858152606085018681526080860187815260a087019188835260c088019389855260e08901958a8752886101008b0198428a52338d525260408b2099518a555160018a01555160028901555160038801555160048701555160058601555160068501555160078401555191015580f35b4290555080f35b905082013538613e8f565b828852848820915085601f198116895b818110613fc6575010613fac575b5050600184811b019055613ea3565b830135600019600387901b60f8161c191690553880613f9d565b86840135855589976001909501949384019389935001613f8f565b634e487b7160e01b85526041600452602485fd5b506040518481527f4afe13536e3149cddd8c9a8df1580cd5e909fd13c41e7dfead2e38d1141dad5d33918061402d88820188886150a9565b0390a2613e58565b905060405185858237868187810160078152030190205416331438613dbb565b60405162461bcd60e51b815260048101859052601860248201527f557365726e616d652063616e6e6f7420626520656d70747900000000000000006044820152606490fd5b50346104fd5760403660031901126104fd576140b46148b5565b336001600160a01b038216036140d0576110d190600435614f81565b60405163334bd91960e11b8152600490fd5b50346104fd5760203660031901126104fd57610120906040906001600160a01b0361410b6148cb565b1681526008602052208054906001810154906002810154600382015460048301546005840154916006850154936008600787015496015496604051988952602089015260408801526060870152608086015260a085015260c084015260e0830152610100820152f35b50346104fd5760403660031901126104fd576110d16004356141946148b5565b9080845260026020526141ad6001604086200154614cb5565b614e7e565b50346104fd5760203660031901126104fd5760016040602092600435815260028452200154604051908152f35b50346104fd5760403660031901126104fd57600435906141fd6148b5565b9161420661514e565b61420e6152ef565b808252602090600a8252604083209161422982845414615380565b600983019260ff8454169360068510156110075761424a60018096146153c3565b818501546001600160a01b0391908216330361449b5784875260118452604087209188169182600052845261428660ff6040600020541661540f565b81875260068452614299604088206149b3565b97885115614456578154610100600160a81b03191660089190911b610100600160a81b0316178155600a830188516001600160401b03811161289f576142e9816142e3845461490e565b84615109565b85601f82116001146143e65781908a9b6000805160206158f9833981519152999a9b926143db575b5050600019600383901b1c191690891b1790555b600260ff19825416179055848752601183526040872090600052825260a0614368614362600260406000200154878a52600b865260408a20614b9d565b5061546b565b6080810151806143bb575b5001518061439b575b50503385526008815242600860408720015560405160028152a2815580f35b6143b1816006926004850155600584015461525a565b910155388061437c565b806143d091600586015560048501549061525a565b600684015538614373565b015190503880614311565b828a52868a209a601f1983168b5b8181106144415750918a9b9c91846000805160206158f98339815191529b9c959410614428575b505050811b019055614325565b015160001960f88460031b161c1916905538808061441b565b838301518e559c8b019c9289019289016143f4565b60405162461bcd60e51b815260048101869052601f60248201527f436f756e7465727061727479206d757374206861766520757365726e616d65006044820152606490fd5b60405162461bcd60e51b815260048101859052602960248201527f4f6e6c79206f666665722063726561746f722063616e20616363657074206e6560448201526833b7ba34b0ba34b7b760b91b6064820152608490fd5b50346104fd57806003193601126104fd576020604051818152f35b50346104fd57806003193601126104fd5760206040516000805160206159398339815191528152f35b50346104fd5760203660031901126104fd57604060043591614556614bb9565b828152600c602052209061456d82549182146155bc565b60018201549160018060a01b039081600282015416916004820154169160068201549260078301546145fb60088501549260ff600a87015416946145e860ff600c89015416976145c46005612126600384016149b3565b926040519c8d9c8d5260208d015260408c01526101608060608d01528b0190614890565b9160808a015288820360a08a0152614890565b9460c087015260e0860152610100850152151561012084015215156101408301520390f35b50346104fd5760203660031901126104fd5760043563ffffffff60e01b81168091036119e357602090637965db0b60e01b8114908115614666575b506040519015158152f35b6301ffc9a760e01b1490508261465b565b50346104fd5761468636614852565b61468e61514e565b6146966152ef565b818352600c602052604083206146ae838254146155bc565b6146be60ff600a83015416615697565b818452600d8101602052604084209060018254926146dd84151561588c565b0180549260ff84161561480d5760ff8460081c166147d0576201518081018091116109195742111561478b5760ff199092169091556005546009919091015484916001600160a01b0316803b156104f957604483926040519485938492635d655fb160e01b845260048401528760248401525af180156147805761476c575b5060641461123f57506001815580f35b9261477960649294614948565b929061475c565b6040513d86823e3d90fd5b60405162461bcd60e51b815260206004820152601760248201527f4469737075746520706572696f64206e6f74206f7665720000000000000000006044820152606490fd5b60405162461bcd60e51b8152602060048201526015602482015274135a5b195cdd1bdb99481a5cc8191a5cdc1d5d1959605a1b6044820152606490fd5b60405162461bcd60e51b815260206004820152601b60248201527f4d696c6573746f6e6520616c72656164792066696e616c697a656400000000006044820152606490fd5b6040906003190112614868576004359060243590565b600080fd5b60005b8381106148805750506000910152565b8181015183820152602001614870565b906020916148a98151809281855285808601910161486d565b601f01601f1916010190565b602435906001600160a01b038216820361486857565b600435906001600160a01b038216820361486857565b9181601f84011215614868578235916001600160401b038311614868576020838186019501011161486857565b90600182811c9216801561493e575b602083101461492857565b634e487b7160e01b600052602260045260246000fd5b91607f169161491d565b6001600160401b03811161124e57604052565b61012081019081106001600160401b0382111761124e57604052565b60c081019081106001600160401b0382111761124e57604052565b90601f801991011681019081106001600160401b0382111761124e57604052565b90604051918260008254926149c78461490e565b908184526001948581169081600014614a3657506001146149f3575b50506149f192500383614992565b565b9093915060005260209081600020936000915b818310614a1e5750506149f1935082010138806149e3565b85548884018501529485019487945091830191614a06565b9150506149f194506020925060ff191682840152151560051b82010138806149e3565b906002821015614a665752565b634e487b7160e01b600052602160045260246000fd5b906006821015614a665752565b9d9c9b979196908e6101809c97614af997614ad7614acc614b0e9f999e9860c096865260018060a01b03809e1660208701526101a0806040880152860190614890565b9d6060850190614a59565b608083015260a0820152015260e08d01526101008c01526101208b0190614a7c565b16610140880152868203610160880152614890565b930152565b600f54811015613cd157600f6000527f8d1108e10bcb7c27dddfc02ed9d693a074039d026cf4ea4240b40f7d581ac8020190600090565b8054821015613cd15760005260206000200190600090565b6020908160408183019282815285518094520193019160005b828110614b89575050505090565b835185529381019392810192600101614b7b565b8054821015613cd1576000526006602060002091020190600090565b3360009081527fbdc1bb5d8874ccf33efbb49f1d9ca0a377c75766b37dd2edbeebea1a2eb19d7360205260409020546000805160206159398339815191529060ff1615614c035750565b6044906040519063e2517d3f60e01b82523360048301526024820152fd5b3360009081527fb1ef985877d50d34e95c2aaf1c996731c63181754cd1cb73eef00b96d479196e60205260409020546000805160206159198339815191529060ff1615614c035750565b3360009081527fe5ebfa64fca8d502a8e50c1edffd2c31ef4dad5b396e65d9f397fb028f74abc560205260409020546000805160206159598339815191529060ff1615614c035750565b80600052600260205260406000203360005260205260ff6040600020541615614c035750565b6001600160a01b031660008181527fbdc1bb5d8874ccf33efbb49f1d9ca0a377c75766b37dd2edbeebea1a2eb19d7360205260408120549091906000805160206159398339815191529060ff16614d655780835260026020526040832082845260205260408320600160ff198254161790556000805160206158d9833981519152339380a4600190565b505090565b6001600160a01b031660008181527fe5ebfa64fca8d502a8e50c1edffd2c31ef4dad5b396e65d9f397fb028f74abc560205260408120549091906000805160206159598339815191529060ff16614d655780835260026020526040832082845260205260408320600160ff198254161790556000805160206158d9833981519152339380a4600190565b6001600160a01b031660008181527fb1ef985877d50d34e95c2aaf1c996731c63181754cd1cb73eef00b96d479196e60205260408120549091906000805160206159198339815191529060ff16614d655780835260026020526040832082845260205260408320600160ff198254161790556000805160206158d9833981519152339380a4600190565b906000918083526002602052604083209160018060a01b03169182845260205260ff60408420541615600014614d655780835260026020526040832082845260205260408320600160ff198254161790556000805160206158d9833981519152339380a4600190565b6001600160a01b031660008181527fb1ef985877d50d34e95c2aaf1c996731c63181754cd1cb73eef00b96d479196e60205260408120549091906000805160206159198339815191529060ff1615614d65578083526002602052604083208284526020526040832060ff1981541690557ff6391f5c32d9c69d2a47ea670b442974b53935d1edc7fd64eb21e047a839171b339380a4600190565b906000918083526002602052604083209160018060a01b03169182845260205260ff604084205416600014614d65578083526002602052604083208284526020526040832060ff1981541690557ff6391f5c32d9c69d2a47ea670b442974b53935d1edc7fd64eb21e047a839171b339380a4600190565b6003546001600160a01b0316330361500c57565b60405163118cdaa760e01b8152336004820152602490fd5b1561502b57565b60405162461bcd60e51b8152602060048201526011602482015270557365726e616d6520746f6f206c6f6e6760781b6044820152606490fd5b1561506b57565b60405162461bcd60e51b81526020600482015260166024820152752ab9b2b93730b6b29030b63932b0b23c903a30b5b2b760511b6044820152606490fd5b908060209392818452848401376000828201840152601f01601f1916010190565b8181106150d5575050565b600081556001016150ca565b90601f81116150ee575050565b6149f191600052601f6020600020910160051c8101906150ca565b9190601f811161511857505050565b6149f1926000526020600020906020601f840160051c83019310615144575b601f0160051c01906150ca565b9091508190615137565b60ff6001541661515a57565b60405163d93c066560e01b8152600490fd5b1561517357565b60405162461bcd60e51b815260206004820152601960248201527f456e6572677920616d6f756e74206d757374206265203e2030000000000000006044820152606490fd5b156151bf57565b60405162461bcd60e51b815260206004820152602160248201527f456e642074696d65206d7573742062652061667465722073746172742074696d6044820152606560f81b6064820152608490fd5b1561521557565b60405162461bcd60e51b815260206004820152601c60248201527f4d75737420726567697374657220757365726e616d65206669727374000000006044820152606490fd5b8181029291811591840414171561526d57565b634e487b7160e01b600052601160045260246000fd5b600f54600160401b81101561124e576152a58160016152bc9301600f55614b13565b819391549060031b91821b91600019901b19161790565b9055565b805490600160401b82101561124e57816152a59160016152bc94018155614b4a565b9190820180921161526d57565b600260005414615300576002600055565b604051633ee5aeb560e01b8152600490fd5b600019811461526d5760010190565b9061532d600954615312565b8060095560001943019043821161526d576040519260208401946001600160601b03199060601b168552426034850152605484015260748301524060948201526094815261537a81614977565b51902090565b1561538757565b60405162461bcd60e51b815260206004820152601460248201527313d999995c88191bd95cc81b9bdd08195e1a5cdd60621b6044820152606490fd5b156153ca57565b60405162461bcd60e51b815260206004820152601b60248201527f4f66666572206973206e6f7420696e206e65676f74696174696f6e00000000006044820152606490fd5b1561541657565b60405162461bcd60e51b815260206004820152602760248201527f4e6f20616374697665206e65676f74696174696f6e207769746820636f756e746044820152666572706172747960c81b6064820152608490fd5b9060405161547881614977565b82546001600160a01b0316815291829060a09060059061549a600182016149b3565b6020850152600281015460408501526154b5600382016149b3565b6060850152600481015460808501520154910152565b156154d257565b60405162461bcd60e51b815260206004820152601e60248201527f43616e6e6f7420616772656520746f20796f7572206f776e206f6666657200006044820152606490fd5b60009080825260106020526040822054600f5490600019918281019081116104155780820361558a575b5050600f5480156155765781019061555882614b13565b909182549160031b1b19169055600f55815260106020526040812055565b634e487b7160e01b84526031600452602484fd5b61559390614b13565b90549060031b1c806155a76152a584614b13565b90558452601060205260408420553880615541565b156155c357565b60405162461bcd60e51b815260206004820152601860248201527f41677265656d656e7420646f6573206e6f7420657869737400000000000000006044820152606490fd5b1561560f57565b60405162461bcd60e51b815260206004820152601460248201527341677265656d656e74206e6f742061637469766560601b6044820152606490fd5b1561565257565b60405162461bcd60e51b815260206004820152601860248201527f41677265656d656e7420616c72656164792066756e64656400000000000000006044820152606490fd5b1561569e57565b60405162461bcd60e51b815260206004820152601760248201527f41677265656d656e74206973206e6f74206163746976650000000000000000006044820152606490fd5b600090808252600c6020526040822090600182019182548452600a6020526040842060046009600a84019260ff1993848154169055019182541617905560018060a01b03806002830154168552600860205260408520906004830154168552604085209160028201805490600182018092116127fb575560028301805490600182018092116127fb576000805160206158f983398151915296949260209694926007925560068101805461579c600686019182546152e2565b9055546157ae600686019182546152e2565b90550180546157c2600784019182546152e2565b9055546157d4600784019182546152e2565b90556008429101556008429101557ff19f756ff352a18ac12de7527fe3ed4e8941b69eaeb0f360dfca534224291f646040519580a2549260048152a2565b9060405191828154918282526020928383019160005283600020936000905b828210615847575050506149f192500383614992565b855484526001958601958895509381019390910190615831565b6001600160401b03811161124e5760051b60200190565b8051821015613cd15760209160051b010190565b1561589357565b60405162461bcd60e51b815260206004820152601a60248201527f4d696c6573746f6e65206e6f74207265706f72746564207965740000000000006044820152606490fdfe2f8788117e7eff1d82e926ec794901d17c78024a50270940304540a733656f0df5fbb8918491c66348a8751aa1de278550ed0c6dde1b2026a7873d90411645e471f3d55856e4058ed06ee057d79ada615f65cdf5f9ee88181b914225088f834f14823911f2da1b49f045a0929a60b8c1f2a7fc8c06c7284ca3e8ab4e193a08c8a49807205ce4d355092ef5a8a18f56e8913cf4a201fbe287825b095693c21775a2646970667358221220804233e2b48c7a7ea1712f278d1f414cd9223aaf9ec006aaddc9ebd771b54fee64736f6c634300081400336080346100f857601f61112538819003918201601f19168301916001600160401b038311848410176100fd578084926020946040528339810103126100f857516001600160a01b0390818116908190036100f857600160005560015433156100df576001600160a81b0319811633600881811b610100600160a81b03169290921760015560405194909290911c167f8be0079c531659141344cd1fd0a4f28419497f9722a3daafe3b4186f6b6457e0600080a3600060035560018060a01b0319908160025416176002553390600554161760055561101190816101148239f35b604051631e4fbdf760e01b815260006004820152602490fd5b600080fd5b634e487b7160e01b600052604160045260246000fdfe6080604081815260048036101561001557600080fd5b600092833560e01c9081632d83549c14610d3b575080633f4ba83a14610cd25780634ec7fb8114610ca957806351a89ce814610c2d5780635c975abb14610c095780635d655fb1146108f45780636789f9cb1461075b5780636c4596811461071c578063715018a6146106bb5780638456cb59146106615780638da5cb5b14610634578063b9a7579b146104ce578063ccbae5f614610337578063d1bb5cf11461030a578063e63ea4081461020a578063f2fde38b1461016e5763f49a52aa146100de57600080fd5b3461016a57602036600319011261016a576100f7610dd8565b6100ff610e04565b6001600160a01b03169182156101275750506001600160601b0360a01b600554161760055580f35b906020606492519162461bcd60e51b8352820152601b60248201527f496e76616c6964206d61726b6574706c616365206164647265737300000000006044820152fd5b8280fd5b503461016a57602036600319011261016a57610188610dd8565b610190610e04565b6001600160a01b038181169390929084156101f457505060018054610100600160a81b03198116600893841b610100600160a81b031617909155901c167f8be0079c531659141344cd1fd0a4f28419497f9722a3daafe3b4186f6b6457e08380a380f35b51631e4fbdf760e01b8152908101859052602490fd5b503461016a57606036600319011261016a57610224610dd8565b61022c610dee565b610234610e04565b6001600160a01b03818116156102c757845163a9059cbb60e01b81526001600160a01b0392909216938201938452604435602080860191909152919493919285928390036040019183918891165af19081156102be5750610293575080f35b6102b39060203d81116102b7575b6102ab8183610ec0565b810190610f7f565b5080f35b503d6102a1565b513d84823e3d90fd5b845162461bcd60e51b8152602081860152601f60248201527f43616e6e6f7420776974686472617720746f207a65726f2061646472657373006044820152606490fd5b50503461033357816003193601126103335760055490516001600160a01b039091168152602090f35b5080fd5b5091346104cb5760803660031901126104cb57610352610dd8565b9261035b610dee565b936044356064359560018060a01b0361037981600554163314610e33565b610381610e7f565b610389610e9d565b60035460001993908481146104b857600101938460035543014381116104b8578851946020860196848116946001600160601b0319809260601b16895286169560601b16603487015242604887015282606887015260888601524060a885015260a8845260e084019484861067ffffffffffffffff8711176104a557908994939291868a5284519020998a97888a52806020528a8a2092898455600184016001600160601b0360a01b908682825416179055866002860191825416179055600384015582015587600582015542600682015560070160ff1981541690558452610100820152610120015260607f0dd968c277d9dc6b36b6ec2b638324c3d937882c64ca109440bc050ebf26cb0791a26001905551908152602090f35b634e487b7160e01b885260418752602488fd5b634e487b7160e01b885260118752602488fd5b80fd5b503461016a57602080600319360112610630576005548235926001600160a01b03916104fd9083163314610e33565b610505610e7f565b61050d610e9d565b8386528083528486209161052385845414610ef8565b600783019283549361053760ff8616610f3c565b838201546005830154918282039682881161061d5760ff19169055899392919003610565575b826001815580f35b60025460019190910154885163a9059cbb60e01b81529083166001600160a01b0316948101948552602085018690529386938593909216918391829060400103925af1908115610613577f21cabc2fff910e5afd1e2bcb22ff2b165a41ab0afbaf364f07aaf2f7787fb9089495916105e49188916105f6575b50610f97565b51908152a2388080808085818061055d565b61060d9150853d87116102b7576102ab8183610ec0565b386105de565b85513d88823e3d90fd5b634e487b7160e01b8c526011875260248cfd5b8380fd5b505034610333578160031936011261033357600154905160089190911c6001600160a01b03168152602090f35b50503461033357816003193601126103335760207f62e78cea01bee320cd4e420270b5ea74000d11b0c9f74754ebdbfc544b05a2589161069f610e04565b6106a7610e7f565b600160ff198154161760015551338152a180f35b83346104cb57806003193601126104cb576106d4610e04565b60018054610100600160a81b03198116909155819060081c6001600160a01b03167f8be0079c531659141344cd1fd0a4f28419497f9722a3daafe3b4186f6b6457e08280a380f35b503461016a5781602093600860ff9361073436610dbd565b9091828552885261074a85852092835414610ef8565b835201855220541690519015158152f35b50903461016a576020806003193601126106305782359260018060a01b039161078983600554163314610e33565b610791610e7f565b610799610e9d565b848652818152838620936107af86865414610ef8565b600785019485549460ff86166108b1579083602492600254168451938480926370a0823160e01b8252308a8301525afa9182156108a7579085918a93610870575b5001541161082f5750505060ff191660011790557fb01718cc2fef93a8279b929ceca602bda7d1d2d9253d23c1cafe4b5ac2092ba48280a26001815580f35b5162461bcd60e51b815291820152601b60248201527f496e73756666696369656e742066756e64732072656365697665640000000000604482015260649150fd5b85809294508193503d83116108a0575b61088a8183610ec0565b8101031261089c5784905191386107f0565b8880fd5b503d610880565b83513d8b823e3d90fd5b50505162461bcd60e51b815291820152601860248201527f457363726f7720697320616c7265616479206163746976650000000000000000604482015260649150fd5b503461016a5761090336610dbd565b60055491936001600160a01b039261091e9084163314610e33565b610926610e7f565b61092e610e9d565b84865260208481528187209461094687875414610ef8565b600786019561095860ff885416610f3c565b601985148015610bff575b8015610bf5575b8015610beb575b15610b9b576008810191858a5282845260ff858b205416610b475760198611610ac4575b8082015460021c92868b528452848a209660ff199760018982541617905560058301805490858201809211610ab1575560028054930154865163a9059cbb60e01b81529082166001600160a01b03169281019283526020830185905292859284929091169082908d90829060400103925af1908115610aa757927f75be8d7515237236cfb3e6c6aa6f74fb8dd8db900b6f433310f89d497092d78f92610a4760649796938b968d91610a905750610f97565b825191868352820152a214610a5f575b836001815580f35b81541690557ff13b3bfa8cd084cadab3723a031c3f1c641ce6072626163d3100c1cd14c18a288280a2388080610a57565b61060d9150843d86116102b7576102ab8183610ec0565b84513d8b823e3d90fd5b634e487b7160e01b8d526011845260248dfd5b6018198601868111610b34578a5282845260ff858b20541661099557845162461bcd60e51b8152908101849052602860248201527f50726576696f7573206d696c6573746f6e6520686173206e6f74206265656e206044820152671c995b19585cd95960c21b6064820152608490fd5b634e487b7160e01b8b526011825260248bfd5b845162461bcd60e51b8152908101849052602860248201527f54686973206d696c6573746f6e652068617320616c7265616479206265656e206044820152671c995b19585cd95960c21b6064820152608490fd5b50915162461bcd60e51b815291820152602560248201527f50657263656e74616765206d7573742062652032352c2035302c2037352c206f604482015264072203130360dc1b6064820152608490fd5b5060648514610971565b50604b851461096a565b5060328514610963565b50503461033357816003193601126103335760209060ff6001541690519015158152f35b503461016a57602036600319011261016a5760c092610c5a83833592838152846020522091825414610ef8565b60018060a01b03928360018301541693600283015416926003830154908301549160ff6007600586015495015416948151968752602087015285015260608401526080830152151560a0820152f35b50503461033357816003193601126103335760025490516001600160a01b039091168152602090f35b503461016a578260031936011261016a57610ceb610e04565b6001549060ff821615610d2d575060ff1916600155513381527f5db9ee0a495bf2e6ff9c91a7834c1ba4fdd244a5e8aa4e537bd38aeae4b073aa90602090a180f35b8251638dfc202b60e01b8152fd5b92919050346106305760203660031901126106305781610100948235815282602052209081549260018060a01b039182600185015416926002850154166003850154918501549260058601549460ff600760068901549801541697895260208901528701526060860152608085015260a084015260c0830152151560e0820152f35b6040906003190112610dd3576004359060243590565b600080fd5b600435906001600160a01b0382168203610dd357565b602435906001600160a01b0382168203610dd357565b60015460081c6001600160a01b03163303610e1b57565b60405163118cdaa760e01b8152336004820152602490fd5b15610e3a57565b60405162461bcd60e51b815260206004820152601d60248201527f43616c6c6572206973206e6f7420746865206d61726b6574706c6163650000006044820152606490fd5b60ff60015416610e8b57565b60405163d93c066560e01b8152600490fd5b600260005414610eae576002600055565b604051633ee5aeb560e01b8152600490fd5b90601f8019910116810190811067ffffffffffffffff821117610ee257604052565b634e487b7160e01b600052604160045260246000fd5b15610eff57565b60405162461bcd60e51b8152602060048201526015602482015274115cd8dc9bddc8191bd95cc81b9bdd08195e1a5cdd605a1b6044820152606490fd5b15610f4357565b60405162461bcd60e51b8152602060048201526014602482015273457363726f77206973206e6f742061637469766560601b6044820152606490fd5b90816020910312610dd357518015158103610dd35790565b15610f9e57565b60405162461bcd60e51b8152602060048201526015602482015274151bdad95b881d1c985b9cd9995c8819985a5b1959605a1b6044820152606490fdfea26469706673582212208f73bd58f02e8faeaf6ba2bc11bed430b9639652a5ec300279ad80b81b2ee54864736f6c634300081400332f8788117e7eff1d82e926ec794901d17c78024a50270940304540a733656f0d","opcodes":"PUSH1 0x80 CALLVALUE PUSH3 0x15C JUMPI PUSH1 0x1 PUSH1 0x1 PUSH1 0x40 SHL SUB SWAP1 PUSH1 0x1F PUSH3 0x6D8F CODESIZE DUP2 SWAP1 SUB SWAP2 DUP3 ADD PUSH1 0x1F NOT AND DUP4 ADD SWAP2 DUP5 DUP4 GT DUP5 DUP5 LT OR PUSH3 0x161 JUMPI DUP1 DUP5 SWAP3 PUSH1 0x20 SWAP5 PUSH1 0x40 MSTORE DUP4 CODECOPY DUP2 ADD SUB SLT PUSH3 0x15C JUMPI MLOAD PUSH1 0x1 PUSH1 0x1 PUSH1 0xA0 SHL SUB DUP1 DUP3 AND SWAP3 SWAP1 SWAP2 DUP4 SWAP1 SUB PUSH3 0x15C JUMPI PUSH1 0x0 SWAP1 PUSH1 0x1 DUP3 SSTORE PUSH1 0xFF NOT PUSH1 0x1 SLOAD AND PUSH1 0x1 SSTORE CALLER ISZERO PUSH3 0x143 JUMPI PUSH1 0x3 SLOAD SWAP1 PUSH1 0x1 DUP1 PUSH1 0xA0 SHL SUB NOT SWAP5 CALLER DUP7 DUP5 AND OR PUSH1 0x3 SSTORE PUSH1 0x40 MLOAD SWAP3 DUP6 CALLER SWAP2 AND PUSH32 0x8BE0079C531659141344CD1FD0A4F28419497F9722A3DAAFE3B4186F6B6457E0 DUP7 DUP1 LOG3 DUP4 PUSH1 0x9 SSTORE DUP1 DUP7 PUSH1 0x4 SLOAD AND OR PUSH1 0x4 SSTORE PUSH2 0x1125 DUP1 DUP5 ADD SWAP3 DUP5 DUP5 LT SWAP1 DUP5 GT OR PUSH3 0x12F JUMPI SWAP2 DUP4 SWAP2 PUSH1 0x20 SWAP4 PUSH3 0x5C4A DUP5 CODECOPY DUP2 MSTORE SUB ADD SWAP1 DUP3 CREATE SWAP1 DUP2 ISZERO PUSH3 0x123 JUMPI POP AND SWAP1 PUSH1 0x5 SLOAD AND OR PUSH1 0x5 SSTORE PUSH3 0x106 CALLER PUSH3 0x177 JUMP JUMPDEST POP PUSH3 0x112 CALLER PUSH3 0x1F8 JUMP JUMPDEST POP PUSH1 0x40 MLOAD PUSH2 0x59AE SWAP1 DUP2 PUSH3 0x29C DUP3 CODECOPY RETURN JUMPDEST PUSH1 0x40 MLOAD SWAP1 RETURNDATASIZE SWAP1 DUP3 RETURNDATACOPY RETURNDATASIZE SWAP1 REVERT JUMPDEST PUSH4 0x4E487B71 PUSH1 0xE0 SHL DUP6 MSTORE PUSH1 0x41 PUSH1 0x4 MSTORE PUSH1 0x24 DUP6 REVERT JUMPDEST PUSH1 0x40 MLOAD PUSH4 0x1E4FBDF7 PUSH1 0xE0 SHL DUP2 MSTORE PUSH1 0x4 DUP2 ADD DUP4 SWAP1 MSTORE PUSH1 0x24 SWAP1 REVERT JUMPDEST PUSH1 0x0 DUP1 REVERT JUMPDEST PUSH4 0x4E487B71 PUSH1 0xE0 SHL PUSH1 0x0 MSTORE PUSH1 0x41 PUSH1 0x4 MSTORE PUSH1 0x24 PUSH1 0x0 REVERT JUMPDEST PUSH1 0x1 PUSH1 0x1 PUSH1 0xA0 SHL SUB AND PUSH1 0x0 DUP2 DUP2 MSTORE PUSH32 0xAC33FF75C19E70FE83507DB0D683FD3465C996598DC972688B7ACE676C89077B PUSH1 0x20 MSTORE PUSH1 0x40 DUP2 KECCAK256 SLOAD SWAP1 SWAP2 SWAP1 PUSH1 0xFF AND PUSH3 0x1F4 JUMPI DUP2 DUP1 MSTORE PUSH1 0x2 PUSH1 0x20 MSTORE PUSH1 0x40 DUP3 KECCAK256 DUP2 DUP4 MSTORE PUSH1 0x20 MSTORE PUSH1 0x40 DUP3 KECCAK256 PUSH1 0x1 PUSH1 0xFF NOT DUP3 SLOAD AND OR SWAP1 SSTORE CALLER SWAP2 PUSH1 0x0 DUP1 MLOAD PUSH1 0x20 PUSH3 0x6D6F DUP4 CODECOPY DUP2 MLOAD SWAP2 MSTORE DUP2 DUP1 LOG4 PUSH1 0x1 SWAP1 JUMP JUMPDEST POP SWAP1 JUMP JUMPDEST PUSH1 0x1 PUSH1 0x1 PUSH1 0xA0 SHL SUB AND PUSH1 0x0 DUP2 DUP2 MSTORE PUSH32 0xE5EBFA64FCA8D502A8E50C1EDFFD2C31EF4DAD5B396E65D9F397FB028F74ABC5 PUSH1 0x20 MSTORE PUSH1 0x40 DUP2 KECCAK256 SLOAD SWAP1 SWAP2 SWAP1 PUSH32 0xA49807205CE4D355092EF5A8A18F56E8913CF4A201FBE287825B095693C21775 SWAP1 PUSH1 0xFF AND PUSH3 0x296 JUMPI DUP1 DUP4 MSTORE PUSH1 0x2 PUSH1 0x20 MSTORE PUSH1 0x40 DUP4 KECCAK256 DUP3 DUP5 MSTORE PUSH1 0x20 MSTORE PUSH1 0x40 DUP4 KECCAK256 PUSH1 0x1 PUSH1 0xFF NOT DUP3 SLOAD AND OR SWAP1 SSTORE PUSH1 0x0 DUP1 MLOAD PUSH1 0x20 PUSH3 0x6D6F DUP4 CODECOPY DUP2 MLOAD SWAP2 MSTORE CALLER SWAP4 DUP1 LOG4 PUSH1 0x1 SWAP1 JUMP JUMPDEST POP POP SWAP1 JUMP INVALID PUSH1 0x80 PUSH1 0x40 MSTORE PUSH1 0x4 CALLDATASIZE LT ISZERO PUSH2 0x12 JUMPI PUSH1 0x0 DUP1 REVERT JUMPDEST PUSH1 0x0 DUP1 CALLDATALOAD PUSH1 0xE0 SHR DUP1 PUSH3 0x45BE6F EQ PUSH2 0x4677 JUMPI DUP1 PUSH4 0x1FFC9A7 EQ PUSH2 0x4620 JUMPI DUP1 PUSH4 0x96FD30A EQ PUSH2 0x4536 JUMPI DUP1 PUSH4 0x13119161 EQ PUSH2 0x450D JUMPI DUP1 PUSH4 0x1CD896C1 EQ PUSH2 0x44F2 JUMPI DUP1 PUSH4 0x2305399B EQ PUSH2 0x41DF JUMPI DUP1 PUSH4 0x248A9CA3 EQ PUSH2 0x41B2 JUMPI DUP1 PUSH4 0x2F2FF15D EQ PUSH2 0x4174 JUMPI DUP1 PUSH4 0x332D56D7 EQ PUSH2 0x40E2 JUMPI DUP1 PUSH4 0x36568ABE EQ PUSH2 0x409A JUMPI DUP1 PUSH4 0x36A94134 EQ PUSH2 0x3D37 JUMPI DUP1 PUSH4 0x37D6E15E EQ PUSH2 0x3BE3 JUMPI DUP1 PUSH4 0x38E8DFCA EQ PUSH2 0x3AB8 JUMPI DUP1 PUSH4 0x3F4BA83A EQ PUSH2 0x3A4D JUMPI DUP1 PUSH4 0x448BB335 EQ PUSH2 0x3A30 JUMPI DUP1 PUSH4 0x474D3FF0 EQ PUSH2 0x3997 JUMPI DUP1 PUSH4 0x4B68D431 EQ PUSH2 0x36F3 JUMPI DUP1 PUSH4 0x4C27984E EQ PUSH2 0x36AB JUMPI DUP1 PUSH4 0x4E43603A EQ PUSH2 0x35F1 JUMPI DUP1 PUSH4 0x4EC7FB81 EQ PUSH2 0x35C8 JUMPI DUP1 PUSH4 0x52806425 EQ PUSH2 0x3381 JUMPI DUP1 PUSH4 0x54F2BBD6 EQ PUSH2 0x3356 JUMPI DUP1 PUSH4 0x5C975ABB EQ PUSH2 0x3333 JUMPI DUP1 PUSH4 0x6322961D EQ PUSH2 0x32D7 JUMPI DUP1 PUSH4 0x661D2C2C EQ PUSH2 0x3296 JUMPI DUP1 PUSH4 0x68484C7C EQ PUSH2 0x2D5E JUMPI DUP1 PUSH4 0x70480275 EQ PUSH2 0x2D0E JUMPI DUP1 PUSH4 0x715018A6 EQ PUSH2 0x2CB0 JUMPI DUP1 PUSH4 0x75B238FC EQ PUSH2 0x2C87 JUMPI DUP1 PUSH4 0x797669C9 EQ PUSH2 0x2C5E JUMPI DUP1 PUSH4 0x7AAF23F6 EQ PUSH2 0x29E8 JUMPI DUP1 PUSH4 0x7F10C00B EQ PUSH2 0x299D JUMPI DUP1 PUSH4 0x7FF118EF EQ PUSH2 0x291A JUMPI DUP1 PUSH4 0x828525BB EQ PUSH2 0x21ED JUMPI DUP1 PUSH4 0x8456CB59 EQ PUSH2 0x2193 JUMPI DUP1 PUSH4 0x869D785F EQ PUSH2 0x2143 JUMPI DUP1 PUSH4 0x8B740975 EQ PUSH2 0x20A7 JUMPI DUP1 PUSH4 0x8DA5CB5B EQ PUSH2 0x207E JUMPI DUP1 PUSH4 0x91D14854 EQ PUSH2 0x2032 JUMPI DUP1 PUSH4 0x952ACC6C EQ PUSH2 0x1DA2 JUMPI DUP1 PUSH4 0x9E1F68C7 EQ PUSH2 0x1CAA JUMPI DUP1 PUSH4 0x9F1652D8 EQ PUSH2 0x1C19 JUMPI DUP1 PUSH4 0xA217FDDF EQ PUSH2 0x1BFD JUMPI DUP1 PUSH4 0xA5BBE22B EQ PUSH2 0x1BDF JUMPI DUP1 PUSH4 0xADB9CAE6 EQ PUSH2 0x1B92 JUMPI DUP1 PUSH4 0xADC3E5F7 EQ PUSH2 0x1A37 JUMPI DUP1 PUSH4 0xB532E4CB EQ PUSH2 0x19E7 JUMPI DUP1 PUSH4 0xBA72A73E EQ PUSH2 0x188E JUMPI DUP1 PUSH4 0xBD5FEC65 EQ PUSH2 0x1838 JUMPI DUP1 PUSH4 0xC81E59B2 EQ PUSH2 0x15F3 JUMPI DUP1 PUSH4 0xCB31FE39 EQ PUSH2 0x12F4 JUMPI DUP1 PUSH4 0xD3A164F1 EQ PUSH2 0x10D5 JUMPI DUP1 PUSH4 0xD547741F EQ PUSH2 0x1093 JUMPI DUP1 PUSH4 0xD9710FBE EQ PUSH2 0xA22 JUMPI DUP1 PUSH4 0xDA79CF0A EQ PUSH2 0x738 JUMPI DUP1 PUSH4 0xE42A96E7 EQ PUSH2 0x70F JUMPI DUP1 PUSH4 0xE50E9814 EQ PUSH2 0x66A JUMPI DUP1 PUSH4 0xED1A998D EQ PUSH2 0x617 JUMPI DUP1 PUSH4 0xEE91877C EQ PUSH2 0x617 JUMPI DUP1 PUSH4 0xF2FDE38B EQ PUSH2 0x58C JUMPI DUP1 PUSH4 0xF42375B5 EQ PUSH2 0x500 JUMPI PUSH4 0xFAF0BBBF EQ PUSH2 0x2C6 JUMPI PUSH1 0x0 DUP1 REVERT JUMPDEST CALLVALUE PUSH2 0x4FD JUMPI PUSH1 0x60 CALLDATASIZE PUSH1 0x3 NOT ADD SLT PUSH2 0x4FD JUMPI PUSH1 0x4 CALLDATALOAD SWAP1 PUSH1 0x24 CALLDATALOAD PUSH1 0x44 CALLDATALOAD DUP1 ISZERO ISZERO DUP2 SUB PUSH2 0x4F9 JUMPI PUSH2 0x2F2 PUSH2 0x4C6B JUMP JUMPDEST DUP4 DUP4 MSTORE PUSH1 0x20 SWAP2 PUSH1 0xC DUP4 MSTORE PUSH1 0x40 DUP5 KECCAK256 SWAP2 PUSH2 0x30D DUP7 DUP5 SLOAD EQ PUSH2 0x55BC JUMP JUMPDEST ISZERO PUSH2 0x450 JUMPI POP PUSH1 0x5 SLOAD PUSH1 0x9 DUP3 ADD SLOAD PUSH1 0x1 PUSH1 0x1 PUSH1 0xA0 SHL SUB SWAP2 DUP3 AND SWAP1 DUP2 EXTCODESIZE ISZERO PUSH2 0x44C JUMPI DUP6 SWAP2 PUSH1 0x24 DUP4 SWAP3 PUSH1 0x40 MLOAD SWAP5 DUP6 SWAP4 DUP5 SWAP3 PUSH4 0xB9A7579B PUSH1 0xE0 SHL DUP5 MSTORE PUSH1 0x4 DUP5 ADD MSTORE GAS CALL DUP1 ISZERO PUSH2 0x441 JUMPI SWAP1 DUP6 SWAP2 PUSH2 0x429 JUMPI JUMPDEST POP POP PUSH1 0xA DUP3 ADD PUSH1 0xFF NOT DUP2 SLOAD AND SWAP1 SSTORE PUSH1 0x2 DUP3 ADD SLOAD AND DUP4 MSTORE PUSH1 0x8 DUP3 MSTORE PUSH1 0x5 PUSH1 0x40 DUP5 KECCAK256 ADD SWAP4 DUP5 SLOAD PUSH1 0x1 DUP2 ADD DUP1 SWAP2 GT PUSH2 0x415 JUMPI PUSH1 0x4 SWAP4 SWAP5 SWAP6 SSTORE PUSH32 0x6D076295600B2EDCCFB5C35388414D69EA1EBDE72DE4E48290780F5FBE0D9F28 PUSH1 0x60 PUSH1 0x40 MLOAD DUP7 DUP2 MSTORE PUSH1 0x1F DUP8 DUP3 ADD MSTORE PUSH32 0x41646D696E207265736F6C76656420696E2062757965722773206661766F7200 PUSH1 0x40 DUP3 ADD MSTORE LOG2 JUMPDEST PUSH1 0x8 PUSH1 0x1 DUP1 PUSH1 0xA0 SHL SUB SWAP4 DUP5 PUSH1 0x2 DUP5 ADD SLOAD AND DUP7 MSTORE MSTORE TIMESTAMP PUSH1 0x8 PUSH1 0x40 DUP7 KECCAK256 ADD SSTORE ADD SLOAD AND DUP2 MSTORE TIMESTAMP PUSH1 0x8 PUSH1 0x40 DUP4 KECCAK256 ADD SSTORE DUP1 RETURN JUMPDEST PUSH4 0x4E487B71 PUSH1 0xE0 SHL DUP6 MSTORE PUSH1 0x11 PUSH1 0x4 MSTORE PUSH1 0x24 DUP6 REVERT JUMPDEST PUSH2 0x432 SWAP1 PUSH2 0x4948 JUMP JUMPDEST PUSH2 0x43D JUMPI DUP4 CODESIZE PUSH2 0x35B JUMP JUMPDEST DUP4 DUP1 REVERT JUMPDEST PUSH1 0x40 MLOAD RETURNDATASIZE DUP8 DUP3 RETURNDATACOPY RETURNDATASIZE SWAP1 REVERT JUMPDEST DUP6 DUP1 REVERT JUMPDEST SWAP2 SWAP3 SWAP4 DUP5 PUSH1 0x1 DUP1 PUSH1 0xA0 SHL SUB PUSH1 0x5 SLOAD AND PUSH1 0x9 DUP5 ADD SLOAD DUP2 EXTCODESIZE ISZERO PUSH2 0x4F9 JUMPI DUP3 SWAP2 PUSH1 0x44 DUP4 SWAP3 PUSH1 0x40 MLOAD SWAP6 DUP7 SWAP4 DUP5 SWAP3 PUSH4 0x5D655FB1 PUSH1 0xE0 SHL DUP5 MSTORE PUSH1 0x4 DUP5 ADD MSTORE DUP11 PUSH1 0x24 DUP5 ADD MSTORE GAS CALL SWAP2 DUP3 ISZERO PUSH2 0x4EC JUMPI DUP7 SWAP3 PUSH2 0x4D1 JUMPI JUMPDEST POP POP PUSH32 0xEC1D080EA1C9D6E68361E523876C215943BB6F4CA3AB455E4FAC692318D9EAB6 SWAP1 PUSH1 0x4 SWAP5 PUSH1 0x40 MLOAD SWAP1 DUP2 MSTORE LOG2 PUSH2 0x3E7 JUMP JUMPDEST PUSH2 0x4DC SWAP2 SWAP3 POP PUSH2 0x4948 JUMP JUMPDEST PUSH2 0x4E8 JUMPI DUP4 DUP6 CODESIZE PUSH2 0x49E JUMP JUMPDEST DUP5 DUP1 REVERT JUMPDEST POP PUSH1 0x40 MLOAD SWAP1 RETURNDATASIZE SWAP1 DUP3 RETURNDATACOPY RETURNDATASIZE SWAP1 REVERT JUMPDEST DUP3 DUP1 REVERT JUMPDEST DUP1 REVERT JUMPDEST POP CALLVALUE PUSH2 0x4FD JUMPI PUSH1 0x20 CALLDATASIZE PUSH1 0x3 NOT ADD SLT PUSH2 0x4FD JUMPI PUSH2 0x51A PUSH2 0x48CB JUMP JUMPDEST PUSH2 0x522 PUSH2 0x4FF8 JUMP JUMPDEST PUSH1 0x1 PUSH1 0x1 PUSH1 0xA0 SHL SUB AND DUP1 ISZERO PUSH2 0x547 JUMPI PUSH1 0x1 PUSH1 0x1 PUSH1 0x60 SHL SUB PUSH1 0xA0 SHL PUSH1 0x5 SLOAD AND OR PUSH1 0x5 SSTORE DUP1 RETURN JUMPDEST PUSH1 0x40 MLOAD PUSH3 0x461BCD PUSH1 0xE5 SHL DUP2 MSTORE PUSH1 0x20 PUSH1 0x4 DUP3 ADD MSTORE PUSH1 0x1F PUSH1 0x24 DUP3 ADD MSTORE PUSH32 0x496E76616C696420657363726F7720636F6E7472616374206164647265737300 PUSH1 0x44 DUP3 ADD MSTORE PUSH1 0x64 SWAP1 REVERT JUMPDEST POP CALLVALUE PUSH2 0x4FD JUMPI PUSH1 0x20 CALLDATASIZE PUSH1 0x3 NOT ADD SLT PUSH2 0x4FD JUMPI PUSH2 0x5A6 PUSH2 0x48CB JUMP JUMPDEST PUSH2 0x5AE PUSH2 0x4FF8 JUMP JUMPDEST PUSH1 0x1 PUSH1 0x1 PUSH1 0xA0 SHL SUB SWAP1 DUP2 AND SWAP1 DUP2 ISZERO PUSH2 0x5FE JUMPI PUSH1 0x3 SLOAD DUP3 PUSH1 0x1 PUSH1 0x1 PUSH1 0x60 SHL SUB PUSH1 0xA0 SHL DUP3 AND OR PUSH1 0x3 SSTORE AND PUSH32 0x8BE0079C531659141344CD1FD0A4F28419497F9722A3DAAFE3B4186F6B6457E0 PUSH1 0x0 DUP1 LOG3 DUP1 RETURN JUMPDEST PUSH1 0x40 MLOAD PUSH4 0x1E4FBDF7 PUSH1 0xE0 SHL DUP2 MSTORE PUSH1 0x4 DUP2 ADD DUP5 SWAP1 MSTORE PUSH1 0x24 SWAP1 REVERT JUMPDEST POP CALLVALUE PUSH2 0x4FD JUMPI PUSH1 0x20 CALLDATASIZE PUSH1 0x3 NOT ADD SLT PUSH2 0x4FD JUMPI PUSH2 0x666 SWAP1 PUSH2 0x652 SWAP1 PUSH1 0x40 SWAP1 PUSH1 0x1 PUSH1 0x1 PUSH1 0xA0 SHL SUB PUSH2 0x644 PUSH2 0x48CB JUMP JUMPDEST AND DUP2 MSTORE PUSH1 0x6 PUSH1 0x20 MSTORE KECCAK256 PUSH2 0x49B3 JUMP JUMPDEST PUSH1 0x40 MLOAD SWAP2 DUP3 SWAP2 PUSH1 0x20 DUP4 MSTORE PUSH1 0x20 DUP4 ADD SWAP1 PUSH2 0x4890 JUMP JUMPDEST SUB SWAP1 RETURN JUMPDEST POP CALLVALUE PUSH2 0x4FD JUMPI PUSH2 0x679 CALLDATASIZE PUSH2 0x4852 JUMP JUMPDEST SWAP1 DUP3 MSTORE PUSH1 0xB PUSH1 0x20 MSTORE PUSH1 0x40 DUP3 KECCAK256 DUP1 SLOAD DUP3 LT ISZERO PUSH2 0x4F9 JUMPI PUSH2 0x698 SWAP3 POP PUSH2 0x4B9D JUMP JUMPDEST POP DUP1 SLOAD PUSH1 0x1 PUSH1 0x1 PUSH1 0xA0 SHL SUB AND PUSH2 0x6B0 PUSH1 0x1 DUP4 ADD PUSH2 0x49B3 JUMP JUMPDEST SWAP2 PUSH1 0x2 DUP2 ADD SLOAD PUSH2 0x700 PUSH2 0x6C5 PUSH1 0x3 DUP5 ADD PUSH2 0x49B3 JUMP JUMPDEST SWAP2 PUSH1 0x5 PUSH1 0x4 DUP6 ADD SLOAD SWAP5 ADD SLOAD SWAP3 PUSH2 0x6ED PUSH1 0x40 MLOAD SWAP8 DUP9 SWAP8 DUP9 MSTORE PUSH1 0xC0 PUSH1 0x20 DUP10 ADD MSTORE PUSH1 0xC0 DUP9 ADD SWAP1 PUSH2 0x4890 JUMP JUMPDEST SWAP2 PUSH1 0x40 DUP8 ADD MSTORE DUP6 DUP3 SUB PUSH1 0x60 DUP8 ADD MSTORE PUSH2 0x4890 JUMP JUMPDEST SWAP2 PUSH1 0x80 DUP5 ADD MSTORE PUSH1 0xA0 DUP4 ADD MSTORE SUB SWAP1 RETURN JUMPDEST POP CALLVALUE PUSH2 0x4FD JUMPI DUP1 PUSH1 0x3 NOT CALLDATASIZE ADD SLT PUSH2 0x4FD JUMPI PUSH1 0x5 SLOAD PUSH1 0x40 MLOAD PUSH1 0x1 PUSH1 0x1 PUSH1 0xA0 SHL SUB SWAP1 SWAP2 AND DUP2 MSTORE PUSH1 0x20 SWAP1 RETURN JUMPDEST POP CALLVALUE PUSH2 0x4FD JUMPI PUSH1 0x20 SWAP1 DUP2 PUSH1 0x3 NOT CALLDATASIZE ADD SLT PUSH2 0x4FD JUMPI PUSH1 0x4 CALLDATALOAD SWAP2 PUSH2 0x758 PUSH2 0x514E JUMP JUMPDEST PUSH2 0x760 PUSH2 0x52EF JUMP JUMPDEST PUSH2 0x768 PUSH2 0x4BB9 JUMP JUMPDEST DUP3 DUP3 MSTORE PUSH1 0xC DUP2 MSTORE PUSH1 0x40 DUP3 KECCAK256 PUSH2 0x77F DUP5 DUP3 SLOAD EQ PUSH2 0x55BC JUMP JUMPDEST PUSH1 0xA DUP2 ADD SWAP1 DUP2 SLOAD SWAP1 PUSH2 0x793 PUSH1 0xFF DUP4 AND PUSH2 0x5608 JUMP JUMPDEST PUSH2 0x7A4 PUSH1 0xFF PUSH1 0xC DUP4 ADD SLOAD AND ISZERO PUSH2 0x564B JUMP JUMPDEST PUSH1 0xB DUP2 ADD SLOAD TIMESTAMP GT ISZERO PUSH2 0x9DD JUMPI PUSH1 0x2 DUP2 ADD SWAP3 PUSH1 0x1 DUP1 PUSH1 0xA0 SHL SUB SWAP3 DUP4 DUP6 SLOAD AND CALLER EQ DUP1 ISZERO PUSH2 0x9CE JUMPI JUMPDEST DUP1 ISZERO PUSH2 0x9A0 JUMPI JUMPDEST DUP1 ISZERO PUSH2 0x972 JUMPI JUMPDEST ISZERO PUSH2 0x92D JUMPI PUSH1 0xFF NOT AND SWAP1 SSTORE PUSH1 0x1 DUP2 ADD SLOAD DUP6 MSTORE PUSH1 0xA DUP5 MSTORE PUSH1 0x40 DUP6 KECCAK256 SWAP3 PUSH1 0x9 DUP5 ADD PUSH11 0xFFFFFFFFFFFFFFFFFFFFFF PUSH1 0xA8 SHL DUP2 SLOAD AND SWAP1 SSTORE PUSH1 0x0 PUSH1 0xA DUP6 ADD PUSH2 0x824 PUSH2 0x81E DUP3 SLOAD PUSH2 0x490E JUMP JUMPDEST DUP3 PUSH2 0x50E1 JUMP JUMPDEST SSTORE PUSH2 0x82F DUP5 SLOAD PUSH2 0x5283 JUMP JUMPDEST PUSH1 0xF SLOAD PUSH1 0x0 NOT DUP2 ADD SWAP1 DUP2 GT PUSH2 0x919 JUMPI SWAP1 DUP4 SWAP2 DUP6 SLOAD DUP9 MSTORE PUSH1 0x10 DUP8 MSTORE PUSH1 0x40 DUP9 KECCAK256 SSTORE SLOAD AND DUP6 MSTORE PUSH1 0x8 DUP5 MSTORE PUSH1 0x3 PUSH1 0x40 DUP7 KECCAK256 ADD DUP1 SLOAD SWAP1 PUSH1 0x1 DUP3 ADD DUP1 SWAP3 GT PUSH2 0x919 JUMPI SWAP1 PUSH1 0x4 SWAP3 SWAP2 SSTORE ADD SLOAD AND DUP4 MSTORE PUSH1 0x8 DUP3 MSTORE PUSH1 0x3 PUSH1 0x40 DUP5 KECCAK256 ADD SWAP4 DUP5 SLOAD PUSH1 0x1 DUP2 ADD DUP1 SWAP2 GT PUSH2 0x415 JUMPI PUSH1 0x0 DUP1 MLOAD PUSH1 0x20 PUSH2 0x58F9 DUP4 CODECOPY DUP2 MLOAD SWAP2 MSTORE SWAP4 SWAP5 SWAP6 SSTORE CALLER DUP6 MSTORE PUSH1 0x8 DUP5 MSTORE TIMESTAMP PUSH1 0x8 PUSH1 0x40 DUP8 KECCAK256 ADD SSTORE PUSH32 0xB5AB43BCF285E9FAD797296514DA26254613CD9BBDF4410F385D0AB4E839590D PUSH1 0x60 PUSH1 0x40 MLOAD DUP7 DUP2 MSTORE PUSH1 0x18 DUP8 DUP3 ADD MSTORE PUSH32 0x46756E64696E6720646561646C696E6520657870697265640000000000000000 PUSH1 0x40 DUP3 ADD MSTORE LOG2 SLOAD SWAP2 PUSH1 0x40 MLOAD PUSH1 0x0 DUP2 MSTORE LOG2 PUSH1 0x1 DUP2 SSTORE DUP1 RETURN JUMPDEST PUSH4 0x4E487B71 PUSH1 0xE0 SHL DUP8 MSTORE PUSH1 0x11 PUSH1 0x4 MSTORE PUSH1 0x24 DUP8 REVERT JUMPDEST PUSH1 0x40 MLOAD PUSH3 0x461BCD PUSH1 0xE5 SHL DUP2 MSTORE PUSH1 0x4 DUP2 ADD DUP8 SWAP1 MSTORE PUSH1 0x18 PUSH1 0x24 DUP3 ADD MSTORE PUSH32 0x4E6F7420617574686F72697A656420746F2063616E63656C0000000000000000 PUSH1 0x44 DUP3 ADD MSTORE PUSH1 0x64 SWAP1 REVERT JUMPDEST POP PUSH1 0x0 DUP1 MLOAD PUSH1 0x20 PUSH2 0x5919 DUP4 CODECOPY DUP2 MLOAD SWAP2 MSTORE DUP8 MSTORE PUSH1 0x2 DUP7 MSTORE PUSH1 0x40 DUP8 KECCAK256 CALLER PUSH1 0x0 MSTORE DUP7 MSTORE PUSH1 0xFF PUSH1 0x40 PUSH1 0x0 KECCAK256 SLOAD AND PUSH2 0x7D8 JUMP JUMPDEST POP PUSH1 0x0 DUP1 MLOAD PUSH1 0x20 PUSH2 0x5959 DUP4 CODECOPY DUP2 MLOAD SWAP2 MSTORE DUP8 MSTORE PUSH1 0x2 DUP7 MSTORE PUSH1 0x40 DUP8 KECCAK256 CALLER PUSH1 0x0 MSTORE DUP7 MSTORE PUSH1 0xFF PUSH1 0x40 PUSH1 0x0 KECCAK256 SLOAD AND PUSH2 0x7D1 JUMP JUMPDEST POP DUP4 PUSH1 0x4 DUP5 ADD SLOAD AND CALLER EQ PUSH2 0x7CA JUMP JUMPDEST PUSH1 0x40 MLOAD PUSH3 0x461BCD PUSH1 0xE5 SHL DUP2 MSTORE PUSH1 0x4 DUP2 ADD DUP6 SWAP1 MSTORE PUSH1 0x1C PUSH1 0x24 DUP3 ADD MSTORE PUSH32 0x46756E64696E6720646561646C696E65206E6F74206578706972656400000000 PUSH1 0x44 DUP3 ADD MSTORE PUSH1 0x64 SWAP1 REVERT JUMPDEST POP CALLVALUE PUSH2 0x4FD JUMPI PUSH1 0x20 CALLDATASIZE PUSH1 0x3 NOT ADD SLT PUSH2 0x4FD JUMPI PUSH2 0xA3C PUSH2 0x514E JUMP JUMPDEST PUSH2 0xA44 PUSH2 0x52EF JUMP JUMPDEST PUSH2 0xA4C PUSH2 0x4BB9 JUMP JUMPDEST PUSH1 0x4 CALLDATALOAD DUP2 MSTORE PUSH1 0xA PUSH1 0x20 MSTORE PUSH1 0x40 DUP2 KECCAK256 PUSH1 0x6 DUP2 ADD SLOAD SWAP1 PUSH1 0x4 DUP2 ADD SLOAD PUSH2 0xA73 PUSH1 0x4 CALLDATALOAD DUP4 SLOAD EQ PUSH2 0x5380 JUMP JUMPDEST PUSH1 0xFF PUSH1 0x9 DUP4 ADD SLOAD AND PUSH1 0x6 DUP2 LT ISZERO PUSH2 0x107F JUMPI PUSH1 0x2 SUB PUSH2 0x101B JUMPI PUSH2 0xA96 DUP2 ISZERO ISZERO PUSH2 0x516C JUMP JUMPDEST CALLER DUP5 MSTORE PUSH1 0x6 PUSH1 0x20 MSTORE PUSH2 0xAAA PUSH1 0x40 DUP6 KECCAK256 PUSH2 0x49B3 JUMP JUMPDEST SWAP3 PUSH2 0xAB7 DUP5 MLOAD ISZERO ISZERO PUSH2 0x520E JUMP JUMPDEST PUSH1 0xFF PUSH1 0x3 DUP5 ADD SLOAD AND PUSH1 0x2 DUP2 LT ISZERO PUSH2 0x1007 JUMPI PUSH2 0xFD0 JUMPI PUSH1 0x1 DUP4 ADD SLOAD PUSH1 0x84 SWAP3 PUSH1 0x1 PUSH1 0x1 PUSH1 0xA0 SHL SUB SWAP1 SWAP2 AND SWAP2 SWAP1 PUSH2 0xAED PUSH1 0x2 DUP7 ADD PUSH2 0x49B3 JUMP JUMPDEST SWAP1 DUP4 CALLER SWAP4 DUP9 SWAP8 PUSH2 0xAFF DUP4 DUP8 EQ ISZERO PUSH2 0x54CB JUMP JUMPDEST PUSH2 0xB09 DUP3 CALLER PUSH2 0x5321 JUMP JUMPDEST SWAP10 PUSH1 0x20 DUP13 PUSH1 0x1 DUP1 PUSH1 0xA0 SHL SUB SWAP11 DUP12 SWAP7 DUP8 SWAP3 DUP4 PUSH1 0x5 SLOAD AND PUSH1 0x40 MLOAD SWAP10 DUP11 SWAP6 DUP7 SWAP5 PUSH4 0x665D72FB PUSH1 0xE1 SHL DUP7 MSTORE AND PUSH1 0x4 DUP6 ADD MSTORE DUP14 AND PUSH1 0x24 DUP5 ADD MSTORE DUP11 PUSH1 0x44 DUP5 ADD MSTORE DUP9 PUSH1 0x64 DUP5 ADD MSTORE GAS CALL SWAP4 DUP5 ISZERO PUSH2 0xFC5 JUMPI DUP13 SWAP5 PUSH2 0xF8D JUMPI JUMPDEST POP PUSH1 0x9 DUP3 ADD DUP1 SLOAD PUSH1 0x1 PUSH1 0x1 PUSH1 0xA8 SHL SUB NOT AND CALLER PUSH1 0x8 SHL PUSH2 0x100 PUSH1 0x1 PUSH1 0xA8 SHL SUB AND OR PUSH1 0x2 OR SWAP1 SSTORE DUP1 MLOAD PUSH1 0x1 PUSH1 0x1 PUSH1 0x40 SHL SUB DUP2 GT PUSH2 0xF79 JUMPI PUSH2 0xBA8 DUP2 PUSH2 0xB9F PUSH1 0xA DUP7 ADD SLOAD PUSH2 0x490E JUMP JUMPDEST PUSH1 0xA DUP7 ADD PUSH2 0x5109 JUMP JUMPDEST PUSH1 0x20 DUP14 PUSH1 0x1F DUP4 GT PUSH1 0x1 EQ PUSH2 0xF0C JUMPI SWAP1 PUSH1 0xA SWAP4 DUP4 PUSH2 0xF01 JUMPI JUMPDEST POP POP DUP2 PUSH1 0x1 SHL SWAP2 PUSH1 0x0 NOT SWAP1 PUSH1 0x3 SHL SHR NOT AND OR SWAP2 ADD SSTORE JUMPDEST PUSH2 0xBE1 PUSH1 0x4 CALLDATALOAD PUSH2 0x5517 JUMP JUMPDEST DUP9 DUP11 MSTORE PUSH1 0xC PUSH1 0x20 MSTORE PUSH1 0x40 DUP11 KECCAK256 SWAP3 DUP10 DUP5 SSTORE PUSH1 0x4 CALLDATALOAD PUSH1 0x1 DUP6 ADD SSTORE PUSH1 0x2 DUP5 ADD DUP9 DUP9 AND PUSH1 0x1 PUSH1 0x1 PUSH1 0x60 SHL SUB PUSH1 0xA0 SHL DUP3 SLOAD AND OR SWAP1 SSTORE DUP5 MLOAD PUSH1 0x1 PUSH1 0x1 PUSH1 0x40 SHL SUB DUP2 GT PUSH2 0xE78 JUMPI PUSH2 0xC3B DUP2 PUSH2 0xC32 PUSH1 0x3 DUP9 ADD SLOAD PUSH2 0x490E JUMP JUMPDEST PUSH1 0x3 DUP9 ADD PUSH2 0x5109 JUMP JUMPDEST DUP1 PUSH1 0x20 PUSH1 0x1F DUP3 GT PUSH1 0x1 EQ PUSH2 0xE97 JUMPI DUP14 SWAP2 PUSH2 0xE8C JUMPI JUMPDEST POP DUP2 PUSH1 0x1 SHL SWAP2 PUSH1 0x0 NOT SWAP1 PUSH1 0x3 SHL SHR NOT AND OR PUSH1 0x3 DUP6 ADD SSTORE JUMPDEST PUSH1 0x4 DUP5 ADD DUP1 SLOAD PUSH1 0x1 PUSH1 0x1 PUSH1 0xA0 SHL SUB NOT AND DUP8 DUP11 AND OR SWAP1 SSTORE DUP9 MLOAD PUSH1 0x1 PUSH1 0x1 PUSH1 0x40 SHL SUB DUP2 GT PUSH2 0xE78 JUMPI PUSH2 0xCA7 DUP2 PUSH2 0xC9E PUSH1 0x5 DUP9 ADD SLOAD PUSH2 0x490E JUMP JUMPDEST PUSH1 0x5 DUP9 ADD PUSH2 0x5109 JUMP JUMPDEST DUP1 PUSH1 0x20 PUSH1 0x1F DUP3 GT PUSH1 0x1 EQ PUSH2 0xE0D JUMPI DUP14 SWAP2 PUSH2 0xE02 JUMPI JUMPDEST POP DUP2 PUSH1 0x1 SHL SWAP2 PUSH1 0x0 NOT SWAP1 PUSH1 0x3 SHL SHR NOT AND OR PUSH1 0x5 DUP6 ADD SSTORE JUMPDEST PUSH1 0x6 DUP5 ADD SSTORE PUSH1 0x7 DUP4 ADD SSTORE TIMESTAMP PUSH1 0x8 DUP4 ADD SSTORE PUSH2 0xE10 TIMESTAMP ADD DUP1 TIMESTAMP GT PUSH2 0xDEE JUMPI DUP7 DUP10 SWAP7 PUSH2 0xDC6 PUSH1 0x1 SWAP8 PUSH1 0x20 SWAP11 PUSH2 0xDAE DUP16 SWAP10 PUSH1 0xC DUP16 SWAP11 DUP15 SWAP11 PUSH32 0x1FFF3863E62FA430EA2EBF8AF6E741A76DCD1456CD7404A5AF1A5446CE4D6446 SWAP11 PUSH1 0xB DUP4 ADD SSTORE PUSH1 0x9 DUP3 ADD SSTORE PUSH1 0xA DUP2 ADD DUP15 PUSH1 0xFF NOT DUP3 SLOAD AND OR SWAP1 SSTORE ADD PUSH1 0xFF NOT DUP2 SLOAD AND SWAP1 SSTORE DUP3 DUP7 AND DUP12 MSTORE PUSH1 0xE DUP15 MSTORE PUSH2 0xD5F DUP10 PUSH1 0x40 DUP14 KECCAK256 PUSH2 0x52C0 JUMP JUMPDEST DUP3 DUP5 AND DUP12 MSTORE PUSH1 0xE DUP15 MSTORE PUSH2 0xD75 DUP10 PUSH1 0x40 DUP14 KECCAK256 PUSH2 0x52C0 JUMP JUMPDEST DUP3 DUP7 AND DUP12 MSTORE PUSH1 0x8 DUP15 MSTORE TIMESTAMP PUSH1 0x8 PUSH1 0x40 DUP14 KECCAK256 ADD SSTORE DUP3 DUP5 AND DUP12 MSTORE TIMESTAMP PUSH1 0x8 PUSH1 0x40 DUP14 KECCAK256 ADD SSTORE PUSH1 0x40 MLOAD SWAP7 DUP8 SWAP7 AND DUP7 MSTORE PUSH1 0x80 DUP15 DUP8 ADD MSTORE PUSH1 0x80 DUP7 ADD SWAP1 PUSH2 0x4890 JUMP JUMPDEST SWAP2 AND PUSH1 0x40 DUP5 ADD MSTORE DUP3 DUP2 SUB PUSH1 0x60 DUP5 ADD MSTORE PUSH1 0x4 CALLDATALOAD SWAP7 PUSH2 0x4890 JUMP JUMPDEST SUB SWAP1 LOG3 PUSH1 0x40 MLOAD PUSH1 0x2 DUP2 MSTORE PUSH1 0x0 DUP1 MLOAD PUSH1 0x20 PUSH2 0x58F9 DUP4 CODECOPY DUP2 MLOAD SWAP2 MSTORE DUP6 PUSH1 0x4 CALLDATALOAD SWAP3 LOG2 SSTORE PUSH1 0x40 MLOAD SWAP1 DUP2 MSTORE RETURN JUMPDEST PUSH4 0x4E487B71 PUSH1 0xE0 SHL DUP11 MSTORE PUSH1 0x11 PUSH1 0x4 MSTORE PUSH1 0x24 DUP11 REVERT JUMPDEST SWAP1 POP DUP11 ADD MLOAD CODESIZE PUSH2 0xCBC JUMP JUMPDEST SWAP2 POP PUSH1 0x5 DUP7 ADD DUP14 MSTORE PUSH1 0x20 DUP14 KECCAK256 DUP14 SWAP3 JUMPDEST DUP13 PUSH1 0x1F NOT DUP5 AND DUP6 LT PUSH2 0xE61 JUMPI POP PUSH1 0x1 SWAP4 POP DUP3 PUSH1 0x1F NOT DUP2 AND LT PUSH2 0xE48 JUMPI JUMPDEST POP POP DUP2 SHL ADD PUSH1 0x5 DUP6 ADD SSTORE PUSH2 0xCD3 JUMP JUMPDEST DUP13 ADD MLOAD PUSH1 0x0 NOT PUSH1 0xF8 DUP5 PUSH1 0x3 SHL AND SHR NOT AND SWAP1 SSTORE CODESIZE DUP1 PUSH2 0xE39 JUMP JUMPDEST DUP2 ADD MLOAD DUP3 SSTORE PUSH1 0x20 SWAP4 DUP5 ADD SWAP4 PUSH1 0x1 SWAP1 SWAP3 ADD SWAP2 ADD PUSH2 0xE1C JUMP JUMPDEST PUSH4 0x4E487B71 PUSH1 0xE0 SHL DUP13 MSTORE PUSH1 0x41 PUSH1 0x4 MSTORE PUSH1 0x24 DUP13 REVERT JUMPDEST SWAP1 POP DUP7 ADD MLOAD CODESIZE PUSH2 0xC50 JUMP JUMPDEST SWAP2 POP PUSH1 0x3 DUP7 ADD DUP14 MSTORE PUSH1 0x20 DUP14 KECCAK256 DUP14 SWAP3 JUMPDEST PUSH1 0x1F NOT DUP4 AND DUP5 LT PUSH2 0xEE9 JUMPI PUSH1 0x1 SWAP4 POP DUP3 PUSH1 0x1F NOT DUP2 AND LT PUSH2 0xED0 JUMPI JUMPDEST POP POP DUP2 SHL ADD PUSH1 0x3 DUP6 ADD SSTORE PUSH2 0xC67 JUMP JUMPDEST DUP9 ADD MLOAD PUSH1 0x0 NOT PUSH1 0xF8 DUP5 PUSH1 0x3 SHL AND SHR NOT AND SWAP1 SSTORE CODESIZE DUP1 PUSH2 0xEC1 JUMP JUMPDEST DUP9 DUP2 ADD MLOAD DUP3 SSTORE PUSH1 0x20 SWAP4 DUP5 ADD SWAP4 PUSH1 0x1 SWAP1 SWAP3 ADD SWAP2 ADD PUSH2 0xEA6 JUMP JUMPDEST ADD MLOAD SWAP1 POP CODESIZE DUP1 PUSH2 0xBC0 JUMP JUMPDEST SWAP2 SWAP3 PUSH1 0xA DUP6 ADD DUP4 MSTORE PUSH1 0x20 DUP4 KECCAK256 SWAP3 JUMPDEST PUSH1 0x1F NOT DUP6 AND DUP2 LT PUSH2 0xF61 JUMPI POP SWAP2 DUP4 SWAP2 PUSH1 0x1 SWAP4 PUSH1 0xA SWAP6 PUSH1 0x1F NOT DUP2 AND LT PUSH2 0xF48 JUMPI JUMPDEST POP POP POP DUP2 SHL ADD SWAP2 ADD SSTORE PUSH2 0xBD6 JUMP JUMPDEST ADD MLOAD PUSH1 0x0 NOT PUSH1 0xF8 DUP5 PUSH1 0x3 SHL AND SHR NOT AND SWAP1 SSTORE CODESIZE DUP1 DUP1 PUSH2 0xF3A JUMP JUMPDEST SWAP2 SWAP3 PUSH1 0x20 PUSH1 0x1 DUP2 SWAP3 DUP7 DUP6 ADD MLOAD DUP2 SSTORE ADD SWAP5 ADD SWAP3 ADD PUSH2 0xF1A JUMP JUMPDEST PUSH4 0x4E487B71 PUSH1 0xE0 SHL DUP14 MSTORE PUSH1 0x41 PUSH1 0x4 MSTORE PUSH1 0x24 DUP14 REVERT JUMPDEST SWAP1 SWAP4 POP PUSH1 0x20 DUP2 RETURNDATASIZE PUSH1 0x20 GT PUSH2 0xFBD JUMPI JUMPDEST DUP2 PUSH2 0xFA9 PUSH1 0x20 SWAP4 DUP4 PUSH2 0x4992 JUMP JUMPDEST DUP2 ADD SUB SLT PUSH2 0xFB9 JUMPI MLOAD SWAP3 CODESIZE PUSH2 0xB59 JUMP JUMPDEST DUP12 DUP1 REVERT JUMPDEST RETURNDATASIZE SWAP2 POP PUSH2 0xF9C JUMP JUMPDEST PUSH1 0x40 MLOAD RETURNDATASIZE DUP15 DUP3 RETURNDATACOPY RETURNDATASIZE SWAP1 REVERT JUMPDEST PUSH1 0x1 DUP4 ADD SLOAD SWAP2 SWAP3 PUSH1 0x84 SWAP3 PUSH1 0x1 PUSH1 0x1 PUSH1 0xA0 SHL SUB AND SWAP1 PUSH2 0xFF0 PUSH1 0x2 DUP3 ADD PUSH2 0x49B3 JUMP JUMPDEST SWAP5 CALLER DUP1 SWAP5 DUP9 SWAP4 PUSH2 0x1002 DUP7 DUP5 EQ ISZERO PUSH2 0x54CB JUMP JUMPDEST PUSH2 0xAFF JUMP JUMPDEST PUSH4 0x4E487B71 PUSH1 0xE0 SHL DUP7 MSTORE PUSH1 0x21 PUSH1 0x4 MSTORE PUSH1 0x24 DUP7 REVERT JUMPDEST PUSH1 0x40 MLOAD PUSH3 0x461BCD PUSH1 0xE5 SHL DUP2 MSTORE PUSH1 0x20 PUSH1 0x4 DUP3 ADD MSTORE PUSH1 0x36 PUSH1 0x24 DUP3 ADD MSTORE PUSH32 0x4F66666572206D757374206265206167726565642075706F6E206265666F7265 PUSH1 0x44 DUP3 ADD MSTORE PUSH22 0x818DC99585D1A5B99C8185B881859DC99595B595B9D PUSH1 0x52 SHL PUSH1 0x64 DUP3 ADD MSTORE PUSH1 0x84 SWAP1 REVERT JUMPDEST PUSH4 0x4E487B71 PUSH1 0xE0 SHL DUP6 MSTORE PUSH1 0x21 PUSH1 0x4 MSTORE PUSH1 0x24 DUP6 REVERT JUMPDEST POP CALLVALUE PUSH2 0x4FD JUMPI PUSH1 0x40 CALLDATASIZE PUSH1 0x3 NOT ADD SLT PUSH2 0x4FD JUMPI PUSH2 0x10D1 PUSH1 0x4 CALLDATALOAD PUSH2 0x10B3 PUSH2 0x48B5 JUMP JUMPDEST SWAP1 DUP1 DUP5 MSTORE PUSH1 0x2 PUSH1 0x20 MSTORE PUSH2 0x10CC PUSH1 0x1 PUSH1 0x40 DUP7 KECCAK256 ADD SLOAD PUSH2 0x4CB5 JUMP JUMPDEST PUSH2 0x4F81 JUMP JUMPDEST POP DUP1 RETURN JUMPDEST POP CALLVALUE PUSH2 0x4FD JUMPI PUSH2 0x10E4 CALLDATASIZE PUSH2 0x4852 JUMP JUMPDEST PUSH2 0x10EC PUSH2 0x514E JUMP JUMPDEST PUSH2 0x10F4 PUSH2 0x52EF JUMP JUMPDEST PUSH2 0x10FC PUSH2 0x4C21 JUMP JUMPDEST DUP2 DUP4 MSTORE PUSH1 0xC PUSH1 0x20 MSTORE PUSH1 0x40 DUP4 KECCAK256 SWAP1 PUSH2 0x1115 DUP4 DUP4 SLOAD EQ PUSH2 0x55BC JUMP JUMPDEST PUSH2 0x1125 PUSH1 0xFF PUSH1 0xA DUP5 ADD SLOAD AND PUSH2 0x5697 JUMP JUMPDEST PUSH1 0x19 DUP2 EQ DUP1 ISZERO PUSH2 0x12EA JUMPI JUMPDEST DUP1 ISZERO PUSH2 0x12E0 JUMPI JUMPDEST DUP1 ISZERO PUSH2 0x12D6 JUMPI JUMPDEST ISZERO PUSH2 0x1283 JUMPI PUSH1 0x5 SLOAD PUSH1 0x9 DUP4 ADD SLOAD DUP6 SWAP2 PUSH1 0x1 PUSH1 0x1 PUSH1 0xA0 SHL SUB AND SWAP1 DUP2 EXTCODESIZE ISZERO PUSH2 0x4F9 JUMPI DUP3 SWAP2 PUSH1 0x44 DUP4 SWAP3 PUSH1 0x40 MLOAD SWAP5 DUP6 SWAP4 DUP5 SWAP3 PUSH4 0x5D655FB1 PUSH1 0xE0 SHL DUP5 MSTORE PUSH1 0x4 DUP5 ADD MSTORE DUP9 PUSH1 0x24 DUP5 ADD MSTORE GAS CALL DUP1 ISZERO PUSH2 0x1278 JUMPI PUSH2 0x1264 JUMPI JUMPDEST POP POP PUSH1 0x40 MLOAD PUSH1 0x60 DUP2 ADD SWAP3 DUP2 DUP5 LT PUSH1 0x1 PUSH1 0x1 PUSH1 0x40 SHL SUB DUP6 GT OR PUSH2 0x124E JUMPI PUSH1 0x64 SWAP4 PUSH1 0x40 MSTORE TIMESTAMP DUP3 MSTORE PUSH2 0x11F0 PUSH1 0x1 PUSH1 0x20 DUP5 ADD SWAP4 DUP2 DUP6 MSTORE PUSH1 0xD PUSH1 0x40 DUP3 ADD SWAP5 DUP11 DUP7 MSTORE DUP8 DUP12 MSTORE ADD PUSH1 0x20 MSTORE PUSH1 0x40 DUP10 KECCAK256 SWAP1 MLOAD DUP2 SSTORE ADD SWAP3 MLOAD ISZERO ISZERO DUP4 SWAP1 PUSH1 0xFF DUP1 NOT DUP4 SLOAD AND SWAP2 ISZERO ISZERO AND OR SWAP1 SSTORE JUMP JUMPDEST MLOAD ISZERO ISZERO PUSH2 0xFF00 DUP3 SLOAD SWAP2 PUSH1 0x8 SHL AND SWAP1 PUSH2 0xFF00 NOT AND OR SWAP1 SSTORE DUP3 PUSH32 0xEC1D080EA1C9D6E68361E523876C215943BB6F4CA3AB455E4FAC692318D9EAB6 PUSH1 0x20 PUSH1 0x40 MLOAD DUP5 DUP2 MSTORE LOG2 EQ PUSH2 0x123F JUMPI JUMPDEST POP PUSH1 0x1 DUP2 SSTORE DUP1 RETURN JUMPDEST PUSH2 0x1248 SWAP1 PUSH2 0x56E3 JUMP JUMPDEST CODESIZE PUSH2 0x1237 JUMP JUMPDEST PUSH4 0x4E487B71 PUSH1 0xE0 SHL PUSH1 0x0 MSTORE PUSH1 0x41 PUSH1 0x4 MSTORE PUSH1 0x24 PUSH1 0x0 REVERT JUMPDEST PUSH2 0x126D SWAP1 PUSH2 0x4948 JUMP JUMPDEST PUSH2 0x43D JUMPI DUP4 CODESIZE PUSH2 0x118E JUMP JUMPDEST PUSH1 0x40 MLOAD RETURNDATASIZE DUP5 DUP3 RETURNDATACOPY RETURNDATASIZE SWAP1 REVERT JUMPDEST PUSH1 0x40 MLOAD PUSH3 0x461BCD PUSH1 0xE5 SHL DUP2 MSTORE PUSH1 0x20 PUSH1 0x4 DUP3 ADD MSTORE PUSH1 0x25 PUSH1 0x24 DUP3 ADD MSTORE PUSH32 0x50657263656E74616765206D7573742062652032352C2035302C2037352C206F PUSH1 0x44 DUP3 ADD MSTORE PUSH5 0x722031303 PUSH1 0xDC SHL PUSH1 0x64 DUP3 ADD MSTORE PUSH1 0x84 SWAP1 REVERT JUMPDEST POP PUSH1 0x64 DUP2 EQ PUSH2 0x113E JUMP JUMPDEST POP PUSH1 0x4B DUP2 EQ PUSH2 0x1137 JUMP JUMPDEST POP PUSH1 0x32 DUP2 EQ PUSH2 0x1130 JUMP JUMPDEST POP CALLVALUE PUSH2 0x4FD JUMPI PUSH1 0x40 CALLDATASIZE PUSH1 0x3 NOT ADD SLT PUSH2 0x4FD JUMPI PUSH1 0x4 CALLDATALOAD PUSH2 0x1311 PUSH2 0x48B5 JUMP JUMPDEST SWAP1 PUSH2 0x131A PUSH2 0x514E JUMP JUMPDEST PUSH2 0x1322 PUSH2 0x52EF JUMP JUMPDEST DUP1 DUP4 MSTORE PUSH1 0x20 PUSH1 0xA DUP2 MSTORE PUSH1 0x40 DUP5 KECCAK256 SWAP3 PUSH2 0x133C DUP4 DUP6 SLOAD EQ PUSH2 0x5380 JUMP JUMPDEST PUSH1 0x1 DUP5 DUP2 ADD SLOAD SWAP1 SWAP5 PUSH1 0x1 PUSH1 0x1 PUSH1 0xA0 SHL SUB SWAP2 DUP3 AND CALLER SUB PUSH2 0x1598 JUMPI PUSH1 0x9 DUP2 ADD SWAP2 PUSH1 0xFF SWAP4 DUP5 DUP5 SLOAD AND PUSH1 0x6 DUP2 LT ISZERO PUSH2 0x1584 JUMPI SWAP2 DUP1 SWAP2 PUSH2 0x1379 DUP11 DUP1 SWAP6 EQ PUSH2 0x53C3 JUMP JUMPDEST AND DUP1 PUSH2 0x146B JUMPI POP DUP9 DUP3 JUMPDEST PUSH2 0x13EB JUMPI JUMPDEST POP POP POP SWAP1 PUSH1 0x0 PUSH1 0xA PUSH1 0x0 DUP1 MLOAD PUSH1 0x20 PUSH2 0x58F9 DUP4 CODECOPY DUP2 MLOAD SWAP2 MSTORE SWAP6 SWAP5 SWAP4 PUSH11 0xFFFFFFFFFFFFFFFFFFFFFF PUSH1 0xA8 SHL DUP5 SLOAD AND DUP5 SSTORE ADD PUSH2 0x13C4 PUSH2 0x81E DUP3 SLOAD PUSH2 0x490E JUMP JUMPDEST SSTORE JUMPDEST CALLER DUP8 MSTORE PUSH1 0x8 DUP4 MSTORE TIMESTAMP PUSH1 0x8 PUSH1 0x40 DUP10 KECCAK256 ADD SSTORE SLOAD AND PUSH2 0x13E5 PUSH1 0x40 MLOAD DUP1 SWAP3 PUSH2 0x4A7C JUMP JUMPDEST LOG2 DUP2 SSTORE DUP1 RETURN JUMPDEST DUP8 DUP11 MSTORE PUSH1 0x12 DUP8 MSTORE PUSH1 0x40 DUP11 KECCAK256 DUP1 SLOAD DUP3 LT ISZERO PUSH2 0x1465 JUMPI SWAP1 DUP3 PUSH2 0x140E DUP3 PUSH2 0x143C SWAP5 PUSH2 0x4B4A JUMP JUMPDEST SWAP1 SLOAD SWAP1 PUSH1 0x3 SHL SHR AND DUP10 DUP13 MSTORE PUSH1 0x11 DUP1 DUP11 MSTORE PUSH1 0x40 DUP14 KECCAK256 DUP3 PUSH1 0x0 MSTORE DUP11 MSTORE DUP9 PUSH1 0x40 PUSH1 0x0 KECCAK256 SLOAD AND PUSH2 0x1442 JUMPI JUMPDEST POP POP PUSH2 0x5312 JUMP JUMPDEST DUP3 PUSH2 0x1383 JUMP JUMPDEST DUP11 DUP14 MSTORE DUP10 MSTORE PUSH1 0x40 DUP13 KECCAK256 SWAP1 PUSH1 0x0 MSTORE DUP9 MSTORE PUSH1 0x40 PUSH1 0x0 KECCAK256 PUSH1 0xFF NOT DUP2 SLOAD AND SWAP1 SSTORE CODESIZE DUP1 PUSH2 0x1435 JUMP JUMPDEST POP PUSH2 0x1388 JUMP JUMPDEST DUP8 DUP11 SWAP9 SWAP8 SWAP7 SWAP6 SWAP5 SWAP4 SWAP9 MSTORE PUSH1 0x11 SWAP1 DUP2 DUP8 MSTORE PUSH1 0x40 DUP12 KECCAK256 DUP2 PUSH1 0x0 MSTORE DUP8 MSTORE PUSH2 0x1495 DUP7 PUSH1 0x40 PUSH1 0x0 KECCAK256 SLOAD AND PUSH2 0x540F JUMP JUMPDEST DUP8 DUP12 MSTORE DUP2 DUP8 MSTORE PUSH1 0x40 DUP1 DUP13 KECCAK256 PUSH1 0x0 SWAP3 DUP4 MSTORE DUP9 MSTORE SWAP1 KECCAK256 DUP1 SLOAD PUSH1 0xFF NOT AND SWAP1 SSTORE DUP10 SWAP2 DUP3 DUP10 JUMPDEST PUSH2 0x150A JUMPI JUMPDEST POP POP POP PUSH1 0x0 DUP1 MLOAD PUSH1 0x20 PUSH2 0x58F9 DUP4 CODECOPY DUP2 MLOAD SWAP2 MSTORE SWAP6 SWAP7 POP ISZERO PUSH2 0x14DC JUMPI JUMPDEST POP PUSH2 0x13C6 JUMP JUMPDEST PUSH1 0xA PUSH1 0x0 SWAP2 PUSH11 0xFFFFFFFFFFFFFFFFFFFFFF PUSH1 0xA8 SHL DUP5 SLOAD AND DUP5 SSTORE ADD PUSH2 0x1503 PUSH2 0x81E DUP3 SLOAD PUSH2 0x490E JUMP JUMPDEST SSTORE CODESIZE PUSH2 0x14D6 JUMP JUMPDEST DUP9 DUP13 MSTORE PUSH1 0x12 DUP9 MSTORE DUP12 PUSH1 0x40 DUP2 KECCAK256 DUP1 SLOAD DUP4 LT ISZERO PUSH2 0x157D JUMPI PUSH1 0x40 SWAP2 PUSH2 0x152D DUP5 DUP7 SWAP4 PUSH2 0x4B4A JUMP JUMPDEST SWAP4 SWAP1 SLOAD SWAP2 DUP14 DUP2 MSTORE DUP8 DUP14 MSTORE KECCAK256 SWAP3 PUSH1 0x3 SHL SHR AND PUSH1 0x0 MSTORE DUP9 MSTORE DUP7 PUSH1 0x40 PUSH1 0x0 KECCAK256 SLOAD AND PUSH2 0x155E JUMPI PUSH2 0x1558 SWAP1 PUSH2 0x5312 JUMP JUMPDEST DUP10 PUSH2 0x14B6 JUMP JUMPDEST POP POP POP POP PUSH1 0x0 DUP1 MLOAD PUSH1 0x20 PUSH2 0x58F9 DUP4 CODECOPY DUP2 MLOAD SWAP2 MSTORE SWAP5 SWAP6 DUP8 SWAP7 SWAP6 CODESIZE DUP1 PUSH2 0x14BB JUMP JUMPDEST POP POP PUSH2 0x14BB JUMP JUMPDEST PUSH4 0x4E487B71 PUSH1 0xE0 SHL DUP11 MSTORE PUSH1 0x21 PUSH1 0x4 MSTORE PUSH1 0x24 DUP11 REVERT JUMPDEST PUSH1 0x40 MLOAD PUSH3 0x461BCD PUSH1 0xE5 SHL DUP2 MSTORE PUSH1 0x4 DUP2 ADD DUP6 SWAP1 MSTORE PUSH1 0x2D PUSH1 0x24 DUP3 ADD MSTORE PUSH32 0x4F6E6C7920746865206F666665722063726561746F722063616E2063616E6365 PUSH1 0x44 DUP3 ADD MSTORE PUSH13 0x36103732B3B7BA34B0BA34B7B7 PUSH1 0x99 SHL PUSH1 0x64 DUP3 ADD MSTORE PUSH1 0x84 SWAP1 REVERT JUMPDEST POP CALLVALUE PUSH2 0x4FD JUMPI PUSH1 0x60 CALLDATASIZE PUSH1 0x3 NOT ADD SLT PUSH2 0x4FD JUMPI PUSH1 0x4 CALLDATALOAD SWAP1 PUSH1 0x24 SWAP2 DUP3 CALLDATALOAD SWAP3 PUSH1 0x44 CALLDATALOAD PUSH1 0x1 PUSH1 0x1 PUSH1 0x40 SHL SUB DUP2 GT PUSH2 0x43D JUMPI PUSH2 0x162E SWAP1 CALLDATASIZE SWAP1 PUSH1 0x4 ADD PUSH2 0x48E1 JUMP JUMPDEST PUSH2 0x1639 SWAP6 SWAP2 SWAP6 PUSH2 0x514E JUMP JUMPDEST PUSH2 0x1641 PUSH2 0x52EF JUMP JUMPDEST PUSH2 0x1649 PUSH2 0x4BB9 JUMP JUMPDEST DUP4 DUP6 MSTORE PUSH1 0x20 SWAP3 PUSH1 0xC DUP5 MSTORE PUSH1 0x40 DUP7 KECCAK256 PUSH2 0x1663 DUP7 DUP3 SLOAD EQ PUSH2 0x55BC JUMP JUMPDEST PUSH2 0x1673 PUSH1 0xFF PUSH1 0xA DUP4 ADD SLOAD AND PUSH2 0x5697 JUMP JUMPDEST PUSH1 0x2 DUP2 ADD SLOAD PUSH1 0x1 PUSH1 0x1 PUSH1 0xA0 SHL SUB AND CALLER SUB PUSH2 0x17FB JUMPI PUSH1 0xD SWAP1 DUP5 DUP9 MSTORE ADD DUP5 MSTORE PUSH1 0x40 DUP7 KECCAK256 PUSH1 0x1 DUP2 SLOAD SWAP2 PUSH2 0x16A4 DUP4 ISZERO ISZERO PUSH2 0x588C JUMP JUMPDEST ADD SWAP1 DUP2 SLOAD SWAP1 PUSH1 0xFF DUP3 AND ISZERO PUSH2 0x17A7 JUMPI PUSH3 0x15180 DUP2 ADD DUP1 SWAP2 GT PUSH2 0x1794 JUMPI TIMESTAMP GT PUSH2 0x175A JUMPI PUSH2 0xFFFF NOT AND PUSH2 0x100 OR SWAP1 SSTORE CALLER DUP7 MSTORE PUSH1 0x8 DUP5 MSTORE PUSH1 0x40 DUP7 KECCAK256 PUSH1 0x4 ADD DUP1 SLOAD PUSH1 0x1 DUP2 ADD SWAP3 SWAP1 DUP4 LT PUSH2 0x1748 JUMPI POP SWAP2 PUSH32 0xFCB7E83F02E3A70254E135A79DEBB7538F65D50D87B4011583B1F184D304A37D SWAP6 SWAP7 SWAP8 SWAP2 PUSH2 0x173E SWAP4 SSTORE CALLER DUP9 MSTORE PUSH1 0x8 DUP6 MSTORE TIMESTAMP PUSH1 0x8 PUSH1 0x40 DUP11 KECCAK256 ADD SSTORE PUSH1 0x40 DUP1 MLOAD SWAP6 DUP7 SWAP6 DUP7 MSTORE DUP6 ADD MSTORE PUSH1 0x40 DUP5 ADD SWAP2 PUSH2 0x50A9 JUMP JUMPDEST SUB SWAP1 LOG2 PUSH1 0x1 DUP2 SSTORE DUP1 RETURN JUMPDEST PUSH4 0x4E487B71 PUSH1 0xE0 SHL DUP9 MSTORE PUSH1 0x11 PUSH1 0x4 MSTORE DUP8 REVERT JUMPDEST PUSH1 0x40 MLOAD PUSH3 0x461BCD PUSH1 0xE5 SHL DUP2 MSTORE PUSH1 0x4 DUP2 ADD DUP8 SWAP1 MSTORE PUSH1 0x13 DUP2 DUP6 ADD MSTORE PUSH19 0x2234B9B83ABA32903832B934B7B21037BB32B9 PUSH1 0x69 SHL PUSH1 0x44 DUP3 ADD MSTORE PUSH1 0x64 SWAP1 REVERT JUMPDEST PUSH4 0x4E487B71 PUSH1 0xE0 SHL DUP10 MSTORE PUSH1 0x11 PUSH1 0x4 MSTORE DUP4 DUP10 REVERT JUMPDEST PUSH1 0x40 MLOAD PUSH3 0x461BCD PUSH1 0xE5 SHL DUP2 MSTORE PUSH1 0x4 DUP2 ADD DUP9 SWAP1 MSTORE PUSH1 0x27 DUP2 DUP7 ADD MSTORE PUSH32 0x4D696C6573746F6E6520616C72656164792066696E616C697A6564206F722064 PUSH1 0x44 DUP3 ADD MSTORE PUSH7 0x1A5CDC1D5D1959 PUSH1 0xCA SHL PUSH1 0x64 DUP3 ADD MSTORE PUSH1 0x84 SWAP1 REVERT JUMPDEST PUSH1 0x40 MLOAD PUSH3 0x461BCD PUSH1 0xE5 SHL DUP2 MSTORE PUSH1 0x4 DUP2 ADD DUP7 SWAP1 MSTORE PUSH1 0x16 DUP2 DUP5 ADD MSTORE PUSH22 0x4F6E6C792062757965722063616E2064697370757465 PUSH1 0x50 SHL PUSH1 0x44 DUP3 ADD MSTORE PUSH1 0x64 SWAP1 REVERT JUMPDEST POP CALLVALUE PUSH2 0x4FD JUMPI PUSH1 0x40 CALLDATASIZE PUSH1 0x3 NOT ADD SLT PUSH2 0x4FD JUMPI PUSH2 0x1852 PUSH2 0x48CB JUMP JUMPDEST PUSH1 0x1 PUSH1 0x1 PUSH1 0xA0 SHL SUB AND DUP2 MSTORE PUSH1 0xD PUSH1 0x20 MSTORE PUSH1 0x40 DUP2 KECCAK256 DUP1 SLOAD PUSH1 0x24 CALLDATALOAD SWAP3 SWAP1 DUP4 LT ISZERO PUSH2 0x4FD JUMPI PUSH1 0x20 PUSH2 0x1880 DUP5 DUP5 PUSH2 0x4B4A JUMP JUMPDEST SWAP1 SLOAD PUSH1 0x40 MLOAD SWAP2 PUSH1 0x3 SHL SHR DUP2 MSTORE RETURN JUMPDEST POP CALLVALUE PUSH2 0x4FD JUMPI PUSH1 0x20 DUP1 PUSH1 0x3 NOT CALLDATASIZE ADD SLT PUSH2 0x19E3 JUMPI PUSH1 0x4 CALLDATALOAD SWAP1 PUSH2 0x18AD PUSH2 0x514E JUMP JUMPDEST PUSH2 0x18B5 PUSH2 0x52EF JUMP JUMPDEST PUSH2 0x18BD PUSH2 0x4BB9 JUMP JUMPDEST DUP2 DUP4 MSTORE PUSH1 0xC DUP2 MSTORE PUSH1 0x40 DUP4 KECCAK256 PUSH2 0x18D4 DUP4 DUP3 SLOAD EQ PUSH2 0x55BC JUMP JUMPDEST PUSH2 0x18E4 PUSH1 0xFF PUSH1 0xA DUP4 ADD SLOAD AND PUSH2 0x5608 JUMP JUMPDEST PUSH1 0xFF PUSH1 0xC DUP3 ADD SLOAD AND ISZERO PUSH2 0x19A7 JUMPI PUSH1 0x2 DUP2 ADD SLOAD PUSH1 0x1 PUSH1 0x1 PUSH1 0xA0 SHL SUB AND CALLER SUB PUSH2 0x1962 JUMPI SWAP1 PUSH1 0x1 PUSH32 0xEC1D080EA1C9D6E68361E523876C215943BB6F4CA3AB455E4FAC692318D9EAB6 SWAP3 ADD SLOAD DUP5 MSTORE PUSH1 0xA DUP2 MSTORE PUSH1 0x9 PUSH1 0x40 DUP6 KECCAK256 ADD PUSH1 0x3 PUSH1 0xFF NOT DUP3 SLOAD AND OR SWAP1 SSTORE CALLER DUP5 MSTORE PUSH1 0x8 DUP2 MSTORE TIMESTAMP PUSH1 0x8 PUSH1 0x40 DUP7 KECCAK256 ADD SSTORE PUSH1 0x40 MLOAD DUP5 DUP2 MSTORE LOG2 PUSH1 0x1 DUP2 SSTORE DUP1 RETURN JUMPDEST PUSH1 0x40 MLOAD PUSH3 0x461BCD PUSH1 0xE5 SHL DUP2 MSTORE PUSH1 0x4 DUP2 ADD DUP4 SWAP1 MSTORE PUSH1 0x1D PUSH1 0x24 DUP3 ADD MSTORE PUSH32 0x4F6E6C792062757965722063616E207374617274207472616E73666572000000 PUSH1 0x44 DUP3 ADD MSTORE PUSH1 0x64 SWAP1 REVERT JUMPDEST PUSH1 0x40 MLOAD PUSH3 0x461BCD PUSH1 0xE5 SHL DUP2 MSTORE PUSH1 0x4 DUP2 ADD DUP4 SWAP1 MSTORE PUSH1 0x14 PUSH1 0x24 DUP3 ADD MSTORE PUSH20 0x1059DC99595B595B9D081B9BDD08199D5B991959 PUSH1 0x62 SHL PUSH1 0x44 DUP3 ADD MSTORE PUSH1 0x64 SWAP1 REVERT JUMPDEST POP DUP1 REVERT JUMPDEST POP CALLVALUE PUSH2 0x4FD JUMPI PUSH1 0x20 CALLDATASIZE PUSH1 0x3 NOT ADD SLT PUSH2 0x4FD JUMPI PUSH2 0x10D1 PUSH2 0x1A04 PUSH2 0x48CB JUMP JUMPDEST PUSH2 0x1A0C PUSH2 0x4C6B JUMP JUMPDEST PUSH1 0x0 DUP1 MLOAD PUSH1 0x20 PUSH2 0x5919 DUP4 CODECOPY DUP2 MLOAD SWAP2 MSTORE DUP4 MSTORE PUSH1 0x2 PUSH1 0x20 MSTORE PUSH2 0x1A32 PUSH1 0x1 PUSH1 0x40 DUP6 KECCAK256 ADD SLOAD PUSH2 0x4CB5 JUMP JUMPDEST PUSH2 0x4DF4 JUMP JUMPDEST POP CALLVALUE PUSH2 0x4FD JUMPI PUSH1 0x40 CALLDATASIZE PUSH1 0x3 NOT ADD SLT PUSH2 0x4FD JUMPI PUSH1 0x4 CALLDATALOAD PUSH1 0x24 CALLDATALOAD PUSH1 0x1 PUSH1 0x1 PUSH1 0x40 SHL SUB DUP2 GT PUSH2 0x4F9 JUMPI PUSH2 0x1A6B SWAP1 CALLDATASIZE SWAP1 PUSH1 0x4 ADD PUSH2 0x48E1 JUMP JUMPDEST SWAP2 SWAP1 PUSH2 0x1A75 PUSH2 0x514E JUMP JUMPDEST PUSH2 0x1A7D PUSH2 0x52EF JUMP JUMPDEST PUSH2 0x1A85 PUSH2 0x4C21 JUMP JUMPDEST DUP2 DUP5 MSTORE PUSH1 0xC PUSH1 0x20 MSTORE PUSH1 0x40 DUP5 KECCAK256 SWAP1 PUSH2 0x1A9E DUP4 DUP4 SLOAD EQ PUSH2 0x55BC JUMP JUMPDEST PUSH1 0xA DUP3 ADD SWAP4 PUSH2 0x1AB0 PUSH1 0xFF DUP7 SLOAD AND PUSH2 0x5697 JUMP JUMPDEST PUSH1 0x1 DUP4 ADD SWAP5 DUP6 SLOAD DUP8 MSTORE PUSH1 0xA PUSH1 0x20 MSTORE DUP7 PUSH1 0x40 DUP2 KECCAK256 SWAP5 PUSH1 0x9 PUSH1 0x1 DUP1 PUSH1 0xA0 SHL SUB PUSH1 0x5 SLOAD AND SWAP2 ADD SLOAD DUP2 EXTCODESIZE ISZERO PUSH2 0x4F9 JUMPI DUP3 SWAP2 PUSH1 0x24 DUP4 SWAP3 PUSH1 0x40 MLOAD SWAP5 DUP6 SWAP4 DUP5 SWAP3 PUSH4 0xB9A7579B PUSH1 0xE0 SHL DUP5 MSTORE PUSH1 0x4 DUP5 ADD MSTORE GAS CALL DUP1 ISZERO PUSH2 0x1278 JUMPI PUSH2 0x1B7A JUMPI JUMPDEST POP POP PUSH1 0x5 PUSH1 0x9 PUSH32 0x6D076295600B2EDCCFB5C35388414D69EA1EBDE72DE4E48290780F5FBE0D9F28 SWAP6 PUSH1 0xFF NOT SWAP4 DUP5 DUP2 SLOAD AND SWAP1 SSTORE ADD SWAP2 DUP3 SLOAD AND OR SWAP1 SSTORE PUSH2 0x1B56 PUSH1 0x40 MLOAD SWAP3 DUP4 SWAP3 PUSH1 0x20 DUP5 MSTORE PUSH1 0x20 DUP5 ADD SWAP2 PUSH2 0x50A9 JUMP JUMPDEST SUB SWAP1 LOG2 SLOAD PUSH1 0x0 DUP1 MLOAD PUSH1 0x20 PUSH2 0x58F9 DUP4 CODECOPY DUP2 MLOAD SWAP2 MSTORE PUSH1 0x20 PUSH1 0x40 MLOAD PUSH1 0x5 DUP2 MSTORE LOG2 PUSH1 0x1 DUP2 SSTORE DUP1 RETURN JUMPDEST PUSH2 0x1B83 SWAP1 PUSH2 0x4948 JUMP JUMPDEST PUSH2 0x1B8E JUMPI DUP7 CODESIZE PUSH2 0x1B05 JUMP JUMPDEST DUP7 DUP1 REVERT JUMPDEST POP CALLVALUE PUSH2 0x4FD JUMPI PUSH1 0x20 CALLDATASIZE PUSH1 0x3 NOT ADD SLT PUSH2 0x4FD JUMPI PUSH2 0x1BD3 PUSH1 0x40 PUSH2 0x666 SWAP3 PUSH2 0x1BB5 PUSH2 0x48CB JUMP JUMPDEST PUSH2 0x1BBD PUSH2 0x4BB9 JUMP JUMPDEST PUSH1 0x1 PUSH1 0x1 PUSH1 0xA0 SHL SUB AND DUP2 MSTORE PUSH1 0xE PUSH1 0x20 MSTORE KECCAK256 PUSH2 0x5812 JUMP JUMPDEST PUSH1 0x40 MLOAD SWAP2 DUP3 SWAP2 DUP3 PUSH2 0x4B62 JUMP JUMPDEST POP CALLVALUE PUSH2 0x4FD JUMPI DUP1 PUSH1 0x3 NOT CALLDATASIZE ADD SLT PUSH2 0x4FD JUMPI PUSH1 0x20 PUSH1 0x40 MLOAD PUSH3 0x15180 DUP2 MSTORE RETURN JUMPDEST POP CALLVALUE PUSH2 0x4FD JUMPI DUP1 PUSH1 0x3 NOT CALLDATASIZE ADD SLT PUSH2 0x4FD JUMPI PUSH1 0x20 SWAP1 PUSH1 0x40 MLOAD SWAP1 DUP2 MSTORE RETURN JUMPDEST POP CALLVALUE PUSH2 0x4FD JUMPI PUSH1 0x40 CALLDATASIZE PUSH1 0x3 NOT ADD SLT PUSH2 0x4FD JUMPI PUSH1 0x40 PUSH2 0x1C35 PUSH2 0x48B5 JUMP JUMPDEST SWAP2 PUSH1 0x4 CALLDATALOAD DUP2 MSTORE PUSH1 0x11 PUSH1 0x20 MSTORE KECCAK256 PUSH1 0x1 DUP1 PUSH1 0xA0 SHL SUB DUP1 SWAP3 AND PUSH1 0x0 MSTORE PUSH1 0x20 MSTORE PUSH1 0x40 PUSH1 0x0 KECCAK256 DUP1 SLOAD SWAP1 PUSH2 0x1C65 PUSH1 0x1 DUP3 ADD PUSH2 0x49B3 JUMP JUMPDEST PUSH2 0x1C9B PUSH1 0x3 PUSH1 0x2 DUP5 ADD SLOAD SWAP4 ADD SLOAD SWAP2 PUSH1 0x40 MLOAD SWAP6 DUP6 PUSH1 0xFF DUP9 SWAP8 AND ISZERO ISZERO DUP8 MSTORE PUSH1 0x8 SHR AND PUSH1 0x20 DUP7 ADD MSTORE PUSH1 0xA0 PUSH1 0x40 DUP7 ADD MSTORE PUSH1 0xA0 DUP6 ADD SWAP1 PUSH2 0x4890 JUMP JUMPDEST SWAP2 PUSH1 0x60 DUP5 ADD MSTORE PUSH1 0x80 DUP4 ADD MSTORE SUB SWAP1 RETURN JUMPDEST POP CALLVALUE PUSH2 0x4FD JUMPI PUSH1 0x20 CALLDATASIZE PUSH1 0x3 NOT ADD SLT PUSH2 0x4FD JUMPI PUSH1 0x4 CALLDATALOAD DUP2 MSTORE PUSH1 0xC PUSH1 0x20 MSTORE PUSH1 0x40 SWAP1 KECCAK256 DUP1 SLOAD PUSH1 0x1 DUP3 ADD SLOAD PUSH1 0x2 DUP4 ADD SLOAD SWAP1 SWAP3 PUSH1 0x1 PUSH1 0x1 PUSH1 0xA0 SHL SUB SWAP2 DUP3 AND SWAP1 PUSH2 0x1CF0 PUSH1 0x3 DUP3 ADD PUSH2 0x49B3 JUMP JUMPDEST SWAP3 PUSH1 0x4 DUP3 ADD SLOAD AND SWAP3 PUSH1 0x5 DUP3 ADD PUSH2 0x1D05 SWAP1 PUSH2 0x49B3 JUMP JUMPDEST SWAP4 PUSH1 0x6 DUP4 ADD SLOAD SWAP5 PUSH1 0x7 DUP5 ADD SLOAD PUSH1 0x8 DUP6 ADD SLOAD SWAP2 PUSH1 0x9 DUP7 ADD SLOAD SWAP4 PUSH1 0xA DUP8 ADD SLOAD PUSH1 0xFF AND SWAP6 PUSH1 0xB DUP9 ADD SLOAD SWAP8 PUSH1 0xC ADD SLOAD PUSH1 0xFF AND SWAP9 PUSH1 0x40 MLOAD SWAP13 DUP14 SWAP13 DUP14 MSTORE PUSH1 0x20 DUP14 ADD MSTORE PUSH1 0x40 DUP13 ADD MSTORE PUSH2 0x1A0 DUP1 PUSH1 0x60 DUP14 ADD MSTORE DUP12 ADD PUSH2 0x1D5A SWAP2 PUSH2 0x4890 JUMP JUMPDEST SWAP1 PUSH1 0x80 DUP12 ADD MSTORE DUP10 DUP2 SUB PUSH1 0xA0 DUP12 ADD MSTORE PUSH2 0x1D71 SWAP2 PUSH2 0x4890 JUMP JUMPDEST SWAP7 PUSH1 0xC0 DUP10 ADD MSTORE PUSH1 0xE0 DUP9 ADD MSTORE PUSH2 0x100 DUP8 ADD MSTORE PUSH2 0x120 DUP7 ADD MSTORE ISZERO ISZERO PUSH2 0x140 DUP6 ADD MSTORE PUSH2 0x160 DUP5 ADD MSTORE ISZERO ISZERO PUSH2 0x180 DUP4 ADD MSTORE SUB SWAP1 RETURN JUMPDEST POP CALLVALUE PUSH2 0x4FD JUMPI PUSH1 0xA0 CALLDATASIZE PUSH1 0x3 NOT ADD SLT PUSH2 0x4FD JUMPI PUSH1 0x4 CALLDATALOAD PUSH1 0x64 PUSH1 0x44 PUSH1 0x84 CALLDATALOAD PUSH1 0x24 DUP4 CALLDATALOAD DUP4 CALLDATALOAD DUP3 CALLDATALOAD PUSH2 0x1DCE PUSH2 0x514E JUMP JUMPDEST PUSH2 0x1DD6 PUSH2 0x52EF JUMP JUMPDEST PUSH2 0x1DDE PUSH2 0x4BB9 JUMP JUMPDEST DUP8 DUP10 MSTORE PUSH1 0x20 SWAP7 PUSH1 0xA DUP9 MSTORE PUSH1 0x40 DUP11 KECCAK256 SWAP5 PUSH2 0x1DF9 DUP11 DUP8 SLOAD EQ PUSH2 0x5380 JUMP JUMPDEST PUSH1 0x1 DUP7 ADD SLOAD PUSH1 0x1 PUSH1 0x1 PUSH1 0xA0 SHL SUB AND CALLER SUB PUSH2 0x1FF2 JUMPI PUSH1 0x9 DUP7 ADD SWAP8 PUSH1 0xFF DUP10 SLOAD AND PUSH1 0x6 DUP2 LT ISZERO PUSH2 0x1FDF JUMPI DUP1 ISZERO SWAP1 DUP2 ISZERO PUSH2 0x1FD4 JUMPI JUMPDEST POP ISZERO PUSH2 0x1F94 JUMPI DUP4 ISZERO PUSH2 0x1F43 JUMPI DUP5 ISZERO PUSH2 0x1EF1 JUMPI PUSH2 0x1E47 DUP7 DUP10 GT PUSH2 0x51B8 JUMP JUMPDEST TIMESTAMP DUP7 GT ISZERO PUSH2 0x1EB3 JUMPI POP POP POP SWAP3 PUSH1 0xFF SWAP5 SWAP3 PUSH2 0x1E80 PUSH1 0x8 SWAP4 DUP7 PUSH1 0x0 DUP1 MLOAD PUSH1 0x20 PUSH2 0x58F9 DUP4 CODECOPY DUP2 MLOAD SWAP2 MSTORE SWAP11 SWAP10 SWAP8 PUSH1 0x4 DUP7 ADD SSTORE DUP2 PUSH1 0x5 DUP7 ADD SSTORE PUSH2 0x525A JUMP JUMPDEST PUSH1 0x6 DUP4 ADD SSTORE PUSH1 0x7 DUP3 ADD SSTORE ADD SSTORE CALLER DUP7 MSTORE PUSH1 0x8 DUP4 MSTORE TIMESTAMP PUSH1 0x8 PUSH1 0x40 DUP9 KECCAK256 ADD SSTORE SLOAD AND PUSH2 0x1EAB PUSH1 0x40 MLOAD DUP1 SWAP3 PUSH2 0x4A7C JUMP JUMPDEST LOG2 PUSH1 0x1 DUP2 SSTORE DUP1 RETURN JUMPDEST PUSH32 0x53746172742074696D65206D75737420626520696E2074686520667574757265 SWAP1 DUP11 PUSH1 0x40 MLOAD SWAP4 PUSH3 0x461BCD PUSH1 0xE5 SHL DUP6 MSTORE DUP2 PUSH1 0x4 DUP7 ADD MSTORE DUP5 ADD MSTORE DUP3 ADD MSTORE REVERT JUMPDEST PUSH1 0x84 SWAP3 PUSH32 0x50726963652070657220756E6974206D75737420626520677265617465722074 PUSH8 0x68616E207A65726F PUSH1 0xC0 SHL SWAP3 PUSH1 0x28 DUP14 SWAP6 PUSH1 0x40 MLOAD SWAP7 PUSH3 0x461BCD PUSH1 0xE5 SHL DUP9 MSTORE PUSH1 0x4 DUP9 ADD MSTORE DUP7 ADD MSTORE DUP5 ADD MSTORE DUP3 ADD MSTORE REVERT JUMPDEST PUSH1 0x84 SWAP3 PUSH32 0x456E6572677920616D6F756E74206D7573742062652067726561746572207468 PUSH7 0x616E207A65726F PUSH1 0xC8 SHL SWAP3 PUSH1 0x27 DUP14 SWAP6 PUSH1 0x40 MLOAD SWAP7 PUSH3 0x461BCD PUSH1 0xE5 SHL DUP9 MSTORE PUSH1 0x4 DUP9 ADD MSTORE DUP7 ADD MSTORE DUP5 ADD MSTORE DUP3 ADD MSTORE REVERT JUMPDEST PUSH32 0x4F666665722063616E6E6F742062652075706461746564000000000000000000 SWAP1 PUSH1 0x17 DUP12 SWAP4 PUSH1 0x40 MLOAD SWAP5 PUSH3 0x461BCD PUSH1 0xE5 SHL DUP7 MSTORE PUSH1 0x4 DUP7 ADD MSTORE DUP5 ADD MSTORE DUP3 ADD MSTORE REVERT JUMPDEST PUSH1 0x1 SWAP2 POP EQ CODESIZE PUSH2 0x1E2A JUMP JUMPDEST PUSH4 0x4E487B71 PUSH1 0xE0 SHL DUP14 MSTORE PUSH1 0x21 PUSH1 0x4 MSTORE DUP3 DUP14 REVERT JUMPDEST PUSH32 0x4F6E6C792063726561746F722063616E20757064617465206F66666572000000 DUP9 PUSH1 0x1D DUP12 SWAP4 PUSH1 0x40 MLOAD SWAP5 PUSH3 0x461BCD PUSH1 0xE5 SHL DUP7 MSTORE PUSH1 0x4 DUP7 ADD MSTORE DUP5 ADD MSTORE DUP3 ADD MSTORE REVERT JUMPDEST POP CALLVALUE PUSH2 0x4FD JUMPI PUSH1 0x40 CALLDATASIZE PUSH1 0x3 NOT ADD SLT PUSH2 0x4FD JUMPI PUSH1 0x40 PUSH2 0x204E PUSH2 0x48B5 JUMP JUMPDEST SWAP2 PUSH1 0x4 CALLDATALOAD DUP2 MSTORE PUSH1 0x2 PUSH1 0x20 MSTORE KECCAK256 SWAP1 PUSH1 0x1 DUP1 PUSH1 0xA0 SHL SUB AND PUSH1 0x0 MSTORE PUSH1 0x20 MSTORE PUSH1 0x20 PUSH1 0xFF PUSH1 0x40 PUSH1 0x0 KECCAK256 SLOAD AND PUSH1 0x40 MLOAD SWAP1 ISZERO ISZERO DUP2 MSTORE RETURN JUMPDEST POP CALLVALUE PUSH2 0x4FD JUMPI DUP1 PUSH1 0x3 NOT CALLDATASIZE ADD SLT PUSH2 0x4FD JUMPI PUSH1 0x3 SLOAD PUSH1 0x40 MLOAD PUSH1 0x1 PUSH1 0x1 PUSH1 0xA0 SHL SUB SWAP1 SWAP2 AND DUP2 MSTORE PUSH1 0x20 SWAP1 RETURN JUMPDEST POP CALLVALUE PUSH2 0x4FD JUMPI PUSH1 0x20 CALLDATASIZE PUSH1 0x3 NOT ADD SLT PUSH2 0x4FD JUMPI PUSH1 0x40 SWAP1 PUSH2 0x20C4 PUSH2 0x4BB9 JUMP JUMPDEST PUSH1 0x4 CALLDATALOAD DUP2 MSTORE PUSH1 0xA PUSH1 0x20 MSTORE KECCAK256 PUSH1 0xFF PUSH2 0x666 DUP3 SLOAD SWAP3 PUSH1 0x1 DUP1 PUSH1 0xA0 SHL SUB DUP1 PUSH1 0x1 DUP4 ADD SLOAD AND SWAP1 DUP5 PUSH1 0x3 DUP5 ADD SLOAD AND SWAP1 PUSH1 0x4 DUP5 ADD SLOAD PUSH1 0x5 DUP6 ADD SLOAD PUSH1 0x6 DUP7 ADD SLOAD PUSH1 0x7 DUP8 ADD SLOAD SWAP2 PUSH1 0x8 DUP9 ADD SLOAD SWAP4 PUSH1 0x9 DUP10 ADD SLOAD SWAP7 PUSH1 0xB DUP11 ADD SLOAD SWAP10 PUSH2 0x212D PUSH1 0xA PUSH2 0x2126 PUSH1 0x2 DUP5 ADD PUSH2 0x49B3 JUMP JUMPDEST SWAP3 ADD PUSH2 0x49B3 JUMP JUMPDEST SWAP10 PUSH1 0x40 MLOAD SWAP15 DUP16 SWAP15 DUP16 SWAP11 DUP13 PUSH1 0x8 SHR AND SWAP12 AND SWAP10 PUSH2 0x4A89 JUMP JUMPDEST POP CALLVALUE PUSH2 0x4FD JUMPI PUSH1 0x20 CALLDATASIZE PUSH1 0x3 NOT ADD SLT PUSH2 0x4FD JUMPI PUSH2 0x10D1 PUSH2 0x2160 PUSH2 0x48CB JUMP JUMPDEST PUSH2 0x2168 PUSH2 0x4C6B JUMP JUMPDEST PUSH1 0x0 DUP1 MLOAD PUSH1 0x20 PUSH2 0x5919 DUP4 CODECOPY DUP2 MLOAD SWAP2 MSTORE DUP4 MSTORE PUSH1 0x2 PUSH1 0x20 MSTORE PUSH2 0x218E PUSH1 0x1 PUSH1 0x40 DUP6 KECCAK256 ADD SLOAD PUSH2 0x4CB5 JUMP JUMPDEST PUSH2 0x4EE7 JUMP JUMPDEST POP CALLVALUE PUSH2 0x4FD JUMPI DUP1 PUSH1 0x3 NOT CALLDATASIZE ADD SLT PUSH2 0x4FD JUMPI PUSH2 0x21AC PUSH2 0x4C6B JUMP JUMPDEST PUSH2 0x21B4 PUSH2 0x514E JUMP JUMPDEST PUSH1 0x1 PUSH1 0xFF NOT DUP2 SLOAD AND OR PUSH1 0x1 SSTORE PUSH32 0x62E78CEA01BEE320CD4E420270B5EA74000D11B0C9F74754EBDBFC544B05A258 PUSH1 0x20 PUSH1 0x40 MLOAD CALLER DUP2 MSTORE LOG1 DUP1 RETURN JUMPDEST POP CALLVALUE PUSH2 0x4FD JUMPI PUSH1 0x80 CALLDATASIZE PUSH1 0x3 NOT ADD SLT PUSH2 0x4FD JUMPI PUSH1 0x24 CALLDATALOAD PUSH1 0x1 PUSH1 0x1 PUSH1 0x40 SHL SUB DUP2 GT PUSH2 0x19E3 JUMPI PUSH2 0x221E SWAP1 CALLDATASIZE SWAP1 PUSH1 0x4 ADD PUSH2 0x48E1 JUMP JUMPDEST PUSH2 0x2226 PUSH2 0x514E JUMP JUMPDEST PUSH2 0x222E PUSH2 0x52EF JUMP JUMPDEST PUSH2 0x2236 PUSH2 0x4BB9 JUMP JUMPDEST PUSH1 0x4 CALLDATALOAD DUP4 MSTORE PUSH1 0xA PUSH1 0x20 MSTORE PUSH1 0x40 DUP4 KECCAK256 PUSH2 0x2252 PUSH1 0x4 CALLDATALOAD DUP3 SLOAD EQ PUSH2 0x5380 JUMP JUMPDEST PUSH1 0xFF PUSH1 0x9 DUP3 ADD SLOAD AND PUSH1 0x6 DUP2 LT ISZERO PUSH2 0x107F JUMPI DUP1 ISZERO SWAP1 DUP2 ISZERO PUSH2 0x290F JUMPI JUMPDEST POP ISZERO PUSH2 0x28CA JUMPI CALLER DUP5 MSTORE PUSH1 0x6 PUSH1 0x20 MSTORE PUSH2 0x2287 PUSH1 0x40 DUP6 KECCAK256 PUSH2 0x49B3 JUMP JUMPDEST SWAP3 PUSH2 0x2294 DUP5 MLOAD ISZERO ISZERO PUSH2 0x520E JUMP JUMPDEST PUSH1 0x4 CALLDATALOAD DUP6 MSTORE PUSH1 0x11 PUSH1 0x20 MSTORE PUSH1 0x40 DUP6 KECCAK256 CALLER PUSH1 0x0 MSTORE PUSH1 0x20 MSTORE PUSH1 0xFF PUSH1 0x40 PUSH1 0x0 KECCAK256 SLOAD AND ISZERO DUP1 PUSH2 0x28B3 JUMPI JUMPDEST PUSH2 0x2678 JUMPI JUMPDEST PUSH1 0x9 DUP3 ADD SLOAD PUSH1 0xFF DUP2 AND PUSH1 0x6 DUP2 LT ISZERO PUSH2 0x2664 JUMPI ISZERO PUSH2 0x2634 JUMPI JUMPDEST POP PUSH1 0x4 CALLDATALOAD DUP6 MSTORE PUSH1 0xB PUSH1 0x20 MSTORE PUSH1 0x40 DUP6 KECCAK256 DUP1 SLOAD SWAP4 PUSH1 0x40 MLOAD SWAP3 PUSH2 0x22F5 DUP5 PUSH2 0x4977 JUMP JUMPDEST CALLER DUP5 MSTORE DUP7 PUSH1 0x20 DUP6 ADD MSTORE TIMESTAMP PUSH1 0x40 DUP6 ADD MSTORE PUSH1 0x1 PUSH1 0x1 PUSH1 0x40 SHL SUB DUP3 GT PUSH2 0x124E JUMPI DUP8 SWAP1 PUSH1 0x40 MLOAD SWAP3 PUSH2 0x232C PUSH1 0x20 PUSH1 0x1F NOT PUSH1 0x1F DUP5 ADD AND ADD DUP6 PUSH2 0x4992 JUMP JUMPDEST DUP1 DUP5 MSTORE CALLDATASIZE DUP2 DUP4 ADD GT PUSH2 0x4F9 JUMPI DUP1 PUSH1 0x20 SWAP3 DUP4 DUP7 ADD CALLDATACOPY DUP4 ADD ADD MSTORE PUSH1 0x60 DUP4 ADD MSTORE PUSH1 0x44 CALLDATALOAD PUSH1 0x80 DUP4 ADD MSTORE PUSH1 0x64 CALLDATALOAD PUSH1 0xA0 DUP4 ADD MSTORE PUSH1 0x1 PUSH1 0x40 SHL DUP5 LT ISZERO PUSH2 0x2620 JUMPI DUP4 PUSH2 0x2375 SWAP2 PUSH1 0x1 DUP3 ADD DUP2 SSTORE PUSH2 0x4B9D JUMP JUMPDEST SWAP2 SWAP1 SWAP2 PUSH2 0x260C JUMPI DUP1 MLOAD DUP3 SLOAD PUSH1 0x1 PUSH1 0x1 PUSH1 0xA0 SHL SUB NOT AND PUSH1 0x1 PUSH1 0x1 PUSH1 0xA0 SHL SUB SWAP2 SWAP1 SWAP2 AND OR DUP3 SSTORE PUSH1 0x20 DUP2 ADD MLOAD DUP1 MLOAD SWAP1 PUSH1 0x1 PUSH1 0x1 PUSH1 0x40 SHL SUB DUP3 GT PUSH2 0x257E JUMPI DUP2 SWAP1 PUSH2 0x23CB DUP3 PUSH2 0x23C2 PUSH1 0x1 DUP9 ADD SLOAD PUSH2 0x490E JUMP JUMPDEST PUSH1 0x1 DUP9 ADD PUSH2 0x5109 JUMP JUMPDEST PUSH1 0x20 SWAP1 PUSH1 0x1F DUP4 GT PUSH1 0x1 EQ PUSH2 0x259D JUMPI DUP10 SWAP3 PUSH2 0x2592 JUMPI JUMPDEST POP POP DUP2 PUSH1 0x1 SHL SWAP2 PUSH1 0x0 NOT SWAP1 PUSH1 0x3 SHL SHR NOT AND OR PUSH1 0x1 DUP4 ADD SSTORE JUMPDEST PUSH1 0x40 DUP2 ADD MLOAD PUSH1 0x2 DUP4 ADD SSTORE PUSH1 0x60 DUP2 ADD MLOAD DUP1 MLOAD SWAP1 PUSH1 0x1 PUSH1 0x1 PUSH1 0x40 SHL SUB DUP3 GT PUSH2 0x257E JUMPI PUSH2 0x2432 DUP3 PUSH2 0x2429 PUSH1 0x3 DUP8 ADD SLOAD PUSH2 0x490E JUMP JUMPDEST PUSH1 0x3 DUP8 ADD PUSH2 0x5109 JUMP JUMPDEST PUSH1 0x20 SWAP1 PUSH1 0x1F DUP4 GT PUSH1 0x1 EQ PUSH2 0x250C JUMPI SWAP2 DUP1 PUSH1 0x5 SWAP5 SWAP3 PUSH1 0xA0 SWAP5 DUP12 SWAP3 PUSH2 0x2501 JUMPI JUMPDEST POP POP DUP2 PUSH1 0x1 SHL SWAP2 PUSH1 0x0 NOT SWAP1 PUSH1 0x3 SHL SHR NOT AND OR PUSH1 0x3 DUP6 ADD SSTORE JUMPDEST PUSH1 0x80 DUP2 ADD MLOAD PUSH1 0x4 DUP6 ADD SSTORE ADD MLOAD SWAP2 ADD SSTORE PUSH1 0x1 ADD SLOAD PUSH1 0x1 PUSH1 0x1 PUSH1 0xA0 SHL SUB AND CALLER SUB PUSH2 0x24DD JUMPI JUMPDEST POP CALLER DUP3 MSTORE PUSH1 0x8 PUSH1 0x20 MSTORE TIMESTAMP PUSH1 0x8 PUSH1 0x40 DUP5 KECCAK256 ADD SSTORE PUSH32 0xC5DCF1DF95933AD0EDA9C2638B78F3FF55E306343FD7FDB3487C25C577BAA6EB PUSH1 0x40 MLOAD CALLER DUP2 MSTORE PUSH1 0x40 PUSH1 0x20 DUP3 ADD MSTORE DUP1 PUSH2 0x173E PUSH1 0x4 CALLDATALOAD SWAP5 PUSH1 0x40 DUP4 ADD SWAP1 PUSH2 0x4890 JUMP JUMPDEST PUSH1 0x4 CALLDATALOAD DUP4 MSTORE PUSH1 0x11 PUSH1 0x20 MSTORE PUSH1 0x40 DUP4 KECCAK256 CALLER PUSH1 0x0 MSTORE PUSH1 0x20 MSTORE PUSH1 0x2 PUSH1 0x40 PUSH1 0x0 KECCAK256 ADD SSTORE CODESIZE PUSH2 0x248B JUMP JUMPDEST ADD MLOAD SWAP1 POP CODESIZE DUP1 PUSH2 0x2450 JUMP JUMPDEST SWAP1 PUSH1 0x3 DUP6 ADD DUP10 MSTORE PUSH1 0x20 DUP10 KECCAK256 SWAP2 DUP10 JUMPDEST PUSH1 0x1F NOT DUP6 AND DUP2 LT PUSH2 0x2566 JUMPI POP SWAP3 PUSH1 0x5 SWAP5 SWAP3 PUSH1 0x1 SWAP3 PUSH1 0xA0 SWAP6 DUP4 PUSH1 0x1F NOT DUP2 AND LT PUSH2 0x254D JUMPI JUMPDEST POP POP POP DUP2 SHL ADD PUSH1 0x3 DUP6 ADD SSTORE PUSH2 0x2468 JUMP JUMPDEST ADD MLOAD PUSH1 0x0 NOT PUSH1 0xF8 DUP5 PUSH1 0x3 SHL AND SHR NOT AND SWAP1 SSTORE CODESIZE DUP1 DUP1 PUSH2 0x253D JUMP JUMPDEST SWAP2 SWAP3 PUSH1 0x20 PUSH1 0x1 DUP2 SWAP3 DUP7 DUP6 ADD MLOAD DUP2 SSTORE ADD SWAP5 ADD SWAP3 ADD PUSH2 0x251A JUMP JUMPDEST PUSH4 0x4E487B71 PUSH1 0xE0 SHL DUP9 MSTORE PUSH1 0x41 PUSH1 0x4 MSTORE PUSH1 0x24 DUP9 REVERT JUMPDEST ADD MLOAD SWAP1 POP CODESIZE DUP1 PUSH2 0x23E0 JUMP JUMPDEST SWAP3 POP PUSH1 0x1 DUP6 ADD DUP10 MSTORE PUSH1 0x20 DUP10 KECCAK256 SWAP1 DUP10 SWAP4 JUMPDEST PUSH1 0x1F NOT DUP5 AND DUP6 LT PUSH2 0x25F1 JUMPI PUSH1 0x1 SWAP5 POP DUP4 PUSH1 0x1F NOT DUP2 AND LT PUSH2 0x25D8 JUMPI JUMPDEST POP POP POP DUP2 SHL ADD PUSH1 0x1 DUP4 ADD SSTORE PUSH2 0x23F8 JUMP JUMPDEST ADD MLOAD PUSH1 0x0 NOT PUSH1 0xF8 DUP5 PUSH1 0x3 SHL AND SHR NOT AND SWAP1 SSTORE CODESIZE DUP1 DUP1 PUSH2 0x25C8 JUMP JUMPDEST DUP2 DUP2 ADD MLOAD DUP4 SSTORE PUSH1 0x20 SWAP5 DUP6 ADD SWAP5 PUSH1 0x1 SWAP1 SWAP4 ADD SWAP3 SWAP1 SWAP2 ADD SWAP1 PUSH2 0x25AD JUMP JUMPDEST PUSH4 0x4E487B71 PUSH1 0xE0 SHL DUP7 MSTORE PUSH1 0x4 DUP7 SWAP1 MSTORE PUSH1 0x24 DUP7 REVERT JUMPDEST PUSH4 0x4E487B71 PUSH1 0xE0 SHL DUP7 MSTORE PUSH1 0x41 PUSH1 0x4 MSTORE PUSH1 0x24 DUP7 REVERT JUMPDEST PUSH1 0x1 SWAP1 PUSH1 0xFF NOT AND OR PUSH1 0x9 DUP4 ADD SSTORE PUSH1 0x40 MLOAD PUSH1 0x1 DUP2 MSTORE PUSH1 0x0 DUP1 MLOAD PUSH1 0x20 PUSH2 0x58F9 DUP4 CODECOPY DUP2 MLOAD SWAP2 MSTORE PUSH1 0x20 PUSH1 0x4 CALLDATALOAD SWAP3 LOG2 CODESIZE PUSH2 0x22D6 JUMP JUMPDEST PUSH4 0x4E487B71 PUSH1 0xE0 SHL DUP8 MSTORE PUSH1 0x21 PUSH1 0x4 MSTORE PUSH1 0x24 DUP8 REVERT JUMPDEST PUSH1 0x4 CALLDATALOAD DUP6 MSTORE PUSH1 0xB PUSH1 0x20 MSTORE PUSH1 0x40 DUP6 KECCAK256 SLOAD PUSH1 0x40 MLOAD PUSH1 0xA0 DUP2 ADD DUP2 DUP2 LT PUSH1 0x1 PUSH1 0x1 PUSH1 0x40 SHL SUB DUP3 GT OR PUSH2 0x124E JUMPI PUSH1 0x40 MSTORE PUSH1 0x1 DUP2 MSTORE PUSH1 0x20 DUP2 ADD SWAP2 CALLER DUP4 MSTORE PUSH1 0x40 DUP3 ADD SWAP1 DUP8 DUP3 MSTORE PUSH1 0x60 DUP4 ADD MSTORE TIMESTAMP PUSH1 0x80 DUP4 ADD MSTORE PUSH1 0x4 CALLDATALOAD DUP9 MSTORE PUSH1 0x11 PUSH1 0x20 MSTORE PUSH1 0x40 DUP9 KECCAK256 CALLER PUSH1 0x0 MSTORE PUSH1 0x20 MSTORE PUSH2 0x271C PUSH1 0x40 PUSH1 0x0 KECCAK256 SWAP4 PUSH2 0x26F9 DUP5 MLOAD ISZERO ISZERO DUP7 SWAP1 PUSH1 0xFF DUP1 NOT DUP4 SLOAD AND SWAP2 ISZERO ISZERO AND OR SWAP1 SSTORE JUMP JUMPDEST MLOAD DUP5 SLOAD PUSH2 0x100 PUSH1 0x1 PUSH1 0xA8 SHL SUB NOT AND PUSH1 0x8 SWAP2 SWAP1 SWAP2 SHL PUSH2 0x100 PUSH1 0x1 PUSH1 0xA8 SHL SUB AND OR DUP5 SSTORE JUMP JUMPDEST MLOAD DUP1 MLOAD SWAP1 PUSH1 0x1 PUSH1 0x1 PUSH1 0x40 SHL SUB DUP3 GT PUSH2 0x289F JUMPI PUSH2 0x2748 DUP3 PUSH2 0x273F PUSH1 0x1 DUP8 ADD SLOAD PUSH2 0x490E JUMP JUMPDEST PUSH1 0x1 DUP8 ADD PUSH2 0x5109 JUMP JUMPDEST PUSH1 0x20 SWAP1 PUSH1 0x1F DUP4 GT PUSH1 0x1 EQ PUSH2 0x282E JUMPI SWAP2 DUP1 PUSH1 0x3 SWAP5 SWAP3 PUSH1 0x80 SWAP5 DUP13 SWAP3 PUSH2 0x2823 JUMPI JUMPDEST POP POP PUSH1 0x0 NOT DUP3 DUP7 SHL SHR NOT AND PUSH1 0x1 SWAP2 DUP3 SHL OR SWAP1 DUP6 ADD SSTORE JUMPDEST PUSH1 0x60 DUP2 ADD MLOAD PUSH1 0x2 DUP6 ADD SSTORE ADD MLOAD SWAP2 ADD SSTORE PUSH1 0x4 CALLDATALOAD DUP6 MSTORE PUSH1 0x12 PUSH1 0x20 MSTORE PUSH1 0x40 DUP6 KECCAK256 DUP1 SLOAD SWAP1 PUSH1 0x1 PUSH1 0x40 SHL DUP3 LT ISZERO PUSH2 0x280F JUMPI SWAP1 PUSH2 0x27B8 SWAP2 PUSH1 0x1 DUP3 ADD DUP2 SSTORE PUSH2 0x4B4A JUMP JUMPDEST DUP2 SLOAD SWAP1 PUSH1 0x3 SHL SWAP1 CALLER DUP3 SHL SWAP2 PUSH1 0x1 DUP1 PUSH1 0xA0 SHL SUB SWAP1 SHL NOT AND OR SWAP1 SSTORE CALLER DUP6 MSTORE PUSH1 0x8 PUSH1 0x20 MSTORE PUSH1 0x40 DUP6 KECCAK256 PUSH1 0x1 DUP2 ADD DUP1 SLOAD SWAP1 PUSH1 0x1 DUP3 ADD DUP1 SWAP3 GT PUSH2 0x27FB JUMPI SSTORE PUSH1 0x8 TIMESTAMP SWAP2 ADD SSTORE PUSH2 0x22BE JUMP JUMPDEST PUSH4 0x4E487B71 PUSH1 0xE0 SHL DUP9 MSTORE PUSH1 0x11 PUSH1 0x4 MSTORE PUSH1 0x24 DUP9 REVERT JUMPDEST PUSH4 0x4E487B71 PUSH1 0xE0 SHL DUP8 MSTORE PUSH1 0x41 PUSH1 0x4 MSTORE PUSH1 0x24 DUP8 REVERT JUMPDEST ADD MLOAD SWAP1 POP CODESIZE DUP1 PUSH2 0x2766 JUMP JUMPDEST SWAP1 PUSH1 0x1 DUP6 ADD DUP11 MSTORE PUSH1 0x20 DUP11 KECCAK256 SWAP2 DUP11 JUMPDEST PUSH1 0x1F NOT DUP6 AND DUP2 LT PUSH2 0x2887 JUMPI POP SWAP3 PUSH1 0x3 SWAP5 SWAP3 PUSH1 0x1 SWAP3 PUSH1 0x80 SWAP6 DUP4 PUSH1 0x1F NOT DUP2 AND LT PUSH2 0x286F JUMPI JUMPDEST POP POP POP DUP2 SHL ADD PUSH1 0x1 DUP6 ADD SSTORE PUSH2 0x277C JUMP JUMPDEST ADD MLOAD PUSH1 0x0 NOT DUP4 DUP9 SHL PUSH1 0xF8 AND SHR NOT AND SWAP1 SSTORE CODESIZE DUP1 DUP1 PUSH2 0x285F JUMP JUMPDEST SWAP2 SWAP3 PUSH1 0x20 PUSH1 0x1 DUP2 SWAP3 DUP7 DUP6 ADD MLOAD DUP2 SSTORE ADD SWAP5 ADD SWAP3 ADD PUSH2 0x283C JUMP JUMPDEST PUSH4 0x4E487B71 PUSH1 0xE0 SHL DUP10 MSTORE PUSH1 0x41 PUSH1 0x4 MSTORE PUSH1 0x24 DUP10 REVERT JUMPDEST POP PUSH1 0x1 DUP3 ADD SLOAD PUSH1 0x1 PUSH1 0x1 PUSH1 0xA0 SHL SUB AND CALLER EQ ISZERO PUSH2 0x22B9 JUMP JUMPDEST PUSH1 0x40 MLOAD PUSH3 0x461BCD PUSH1 0xE5 SHL DUP2 MSTORE PUSH1 0x20 PUSH1 0x4 DUP3 ADD MSTORE PUSH1 0x1E PUSH1 0x24 DUP3 ADD MSTORE PUSH32 0x4F66666572206E6F74206F70656E20666F72206E65676F74696174696F6E0000 PUSH1 0x44 DUP3 ADD MSTORE PUSH1 0x64 SWAP1 REVERT JUMPDEST PUSH1 0x1 SWAP2 POP EQ CODESIZE PUSH2 0x226D JUMP JUMPDEST POP CALLVALUE PUSH2 0x4FD JUMPI DUP1 PUSH1 0x3 NOT CALLDATASIZE ADD SLT PUSH2 0x4FD JUMPI PUSH2 0x2933 PUSH2 0x4BB9 JUMP JUMPDEST PUSH1 0x40 MLOAD DUP1 PUSH1 0xF SLOAD SWAP2 DUP3 DUP2 MSTORE PUSH1 0x20 DUP1 SWAP2 ADD SWAP3 PUSH1 0xF PUSH1 0x0 MSTORE PUSH32 0x8D1108E10BCB7C27DDDFC02ED9D693A074039D026CF4EA4240B40F7D581AC802 SWAP2 PUSH1 0x0 SWAP1 JUMPDEST DUP3 DUP3 LT PUSH2 0x2986 JUMPI PUSH2 0x666 DUP6 PUSH2 0x1BD3 DUP2 DUP10 SUB DUP3 PUSH2 0x4992 JUMP JUMPDEST DUP4 SLOAD DUP7 MSTORE SWAP5 DUP6 ADD SWAP5 PUSH1 0x1 SWAP4 DUP5 ADD SWAP4 SWAP1 SWAP2 ADD SWAP1 PUSH2 0x296F JUMP JUMPDEST POP CALLVALUE PUSH2 0x4FD JUMPI PUSH2 0x29AC CALLDATASIZE PUSH2 0x4852 JUMP JUMPDEST SWAP2 SWAP1 DUP2 MSTORE PUSH1 0x12 PUSH1 0x20 MSTORE PUSH1 0x40 DUP2 KECCAK256 SWAP1 DUP2 SLOAD DUP4 LT ISZERO PUSH2 0x4FD JUMPI PUSH1 0x20 PUSH2 0x29CF DUP5 DUP5 PUSH2 0x4B4A JUMP JUMPDEST SWAP1 SLOAD PUSH1 0x40 MLOAD PUSH1 0x3 SWAP3 SWAP1 SWAP3 SHL SHR PUSH1 0x1 PUSH1 0x1 PUSH1 0xA0 SHL SUB AND DUP2 MSTORE RETURN JUMPDEST POP CALLVALUE PUSH2 0x4FD JUMPI PUSH1 0x20 DUP1 PUSH1 0x3 NOT CALLDATASIZE ADD SLT PUSH2 0x19E3 JUMPI PUSH1 0x4 CALLDATALOAD SWAP1 PUSH2 0x2A07 PUSH2 0x514E JUMP JUMPDEST PUSH2 0x2A0F PUSH2 0x52EF JUMP JUMPDEST PUSH2 0x2A17 PUSH2 0x4BB9 JUMP JUMPDEST DUP2 DUP4 MSTORE PUSH1 0xC DUP2 MSTORE PUSH1 0x40 DUP4 KECCAK256 SWAP1 PUSH2 0x2A2F DUP4 DUP4 SLOAD EQ PUSH2 0x55BC JUMP JUMPDEST PUSH2 0x2A3F PUSH1 0xFF PUSH1 0xA DUP5 ADD SLOAD AND PUSH2 0x5608 JUMP JUMPDEST PUSH1 0xC DUP3 ADD PUSH2 0x2A51 PUSH1 0xFF DUP3 SLOAD AND ISZERO PUSH2 0x564B JUMP JUMPDEST PUSH1 0xB DUP4 ADD SLOAD TIMESTAMP GT PUSH2 0x2C19 JUMPI PUSH1 0x2 DUP4 ADD SWAP3 PUSH1 0x1 DUP1 PUSH1 0xA0 SHL SUB SWAP2 DUP3 DUP6 SLOAD AND DUP1 CALLER SUB PUSH2 0x2BDE JUMPI DUP5 DUP5 PUSH1 0x4 SLOAD AND SWAP2 PUSH1 0x64 DUP7 PUSH1 0x5 SLOAD AND SWAP2 DUP12 PUSH1 0x7 DUP9 ADD SLOAD SWAP6 PUSH1 0x40 MLOAD SWAP7 DUP8 SWAP6 DUP7 SWAP5 PUSH4 0x23B872DD PUSH1 0xE0 SHL DUP7 MSTORE PUSH1 0x4 DUP7 ADD MSTORE PUSH1 0x24 DUP6 ADD MSTORE PUSH1 0x44 DUP5 ADD MSTORE GAS CALL SWAP1 DUP2 ISZERO PUSH2 0x2BD3 JUMPI DUP9 SWAP2 PUSH2 0x2B99 JUMPI JUMPDEST POP ISZERO PUSH2 0x2B5C JUMPI SWAP1 DUP7 SWAP2 PUSH1 0x1 PUSH1 0xFF NOT DUP3 SLOAD AND OR SWAP1 SSTORE PUSH1 0x9 DUP4 PUSH1 0x5 SLOAD AND SWAP2 ADD SLOAD DUP2 EXTCODESIZE ISZERO PUSH2 0x4F9 JUMPI DUP3 SWAP2 PUSH1 0x24 DUP4 SWAP3 PUSH1 0x40 MLOAD SWAP5 DUP6 SWAP4 DUP5 SWAP3 PUSH4 0x6789F9CB PUSH1 0xE0 SHL DUP5 MSTORE PUSH1 0x4 DUP5 ADD MSTORE GAS CALL DUP1 ISZERO PUSH2 0x1278 JUMPI PUSH2 0x2B48 JUMPI JUMPDEST POP POP PUSH1 0x8 SWAP3 SLOAD AND DUP5 MSTORE MSTORE TIMESTAMP PUSH1 0x8 PUSH1 0x40 DUP5 KECCAK256 ADD SSTORE PUSH32 0xE0BAC39983CEDA0137B6524AAFBD5E9EF70274D73E348C3DD12D1EA0E427C04C DUP3 DUP1 LOG2 PUSH1 0x1 DUP2 SSTORE DUP1 RETURN JUMPDEST PUSH2 0x2B51 SWAP1 PUSH2 0x4948 JUMP JUMPDEST PUSH2 0x4E8 JUMPI DUP5 CODESIZE PUSH2 0x2B0A JUMP JUMPDEST PUSH1 0x40 MLOAD PUSH3 0x461BCD PUSH1 0xE5 SHL DUP2 MSTORE PUSH1 0x4 DUP2 ADD DUP6 SWAP1 MSTORE PUSH1 0x15 PUSH1 0x24 DUP3 ADD MSTORE PUSH21 0x151BDAD95B881D1C985B9CD9995C8819985A5B1959 PUSH1 0x5A SHL PUSH1 0x44 DUP3 ADD MSTORE PUSH1 0x64 SWAP1 REVERT JUMPDEST SWAP1 POP DUP5 DUP2 DUP2 RETURNDATASIZE DUP4 GT PUSH2 0x2BCC JUMPI JUMPDEST PUSH2 0x2BB0 DUP2 DUP4 PUSH2 0x4992 JUMP JUMPDEST DUP2 ADD SUB SLT PUSH2 0x2BC8 JUMPI MLOAD DUP1 ISZERO ISZERO DUP2 SUB PUSH2 0x2BC8 JUMPI CODESIZE PUSH2 0x2ABB JUMP JUMPDEST DUP8 DUP1 REVERT JUMPDEST POP RETURNDATASIZE PUSH2 0x2BA6 JUMP JUMPDEST PUSH1 0x40 MLOAD RETURNDATASIZE DUP11 DUP3 RETURNDATACOPY RETURNDATASIZE SWAP1 REVERT JUMPDEST PUSH1 0x40 MLOAD PUSH3 0x461BCD PUSH1 0xE5 SHL DUP2 MSTORE PUSH1 0x4 DUP2 ADD DUP7 SWAP1 MSTORE PUSH1 0x13 PUSH1 0x24 DUP3 ADD MSTORE PUSH19 0x13DB9B1E48189D5E595C8818D85B88199D5B99 PUSH1 0x6A SHL PUSH1 0x44 DUP3 ADD MSTORE PUSH1 0x64 SWAP1 REVERT JUMPDEST PUSH1 0x40 MLOAD PUSH3 0x461BCD PUSH1 0xE5 SHL DUP2 MSTORE PUSH1 0x4 DUP2 ADD DUP4 SWAP1 MSTORE PUSH1 0x17 PUSH1 0x24 DUP3 ADD MSTORE PUSH32 0x46756E64696E6720646561646C696E6520706173736564000000000000000000 PUSH1 0x44 DUP3 ADD MSTORE PUSH1 0x64 SWAP1 REVERT JUMPDEST POP CALLVALUE PUSH2 0x4FD JUMPI DUP1 PUSH1 0x3 NOT CALLDATASIZE ADD SLT PUSH2 0x4FD JUMPI PUSH1 0x20 PUSH1 0x40 MLOAD PUSH1 0x0 DUP1 MLOAD PUSH1 0x20 PUSH2 0x5919 DUP4 CODECOPY DUP2 MLOAD SWAP2 MSTORE DUP2 MSTORE RETURN JUMPDEST POP CALLVALUE PUSH2 0x4FD JUMPI DUP1 PUSH1 0x3 NOT CALLDATASIZE ADD SLT PUSH2 0x4FD JUMPI PUSH1 0x20 PUSH1 0x40 MLOAD PUSH1 0x0 DUP1 MLOAD PUSH1 0x20 PUSH2 0x5959 DUP4 CODECOPY DUP2 MLOAD SWAP2 MSTORE DUP2 MSTORE RETURN JUMPDEST POP CALLVALUE PUSH2 0x4FD JUMPI DUP1 PUSH1 0x3 NOT CALLDATASIZE ADD SLT PUSH2 0x4FD JUMPI PUSH2 0x2CC9 PUSH2 0x4FF8 JUMP JUMPDEST PUSH1 0x3 DUP1 SLOAD PUSH1 0x1 PUSH1 0x1 PUSH1 0xA0 SHL SUB NOT DUP2 AND SWAP1 SWAP2 SSTORE PUSH1 0x0 SWAP1 PUSH1 0x1 PUSH1 0x1 PUSH1 0xA0 SHL SUB AND PUSH32 0x8BE0079C531659141344CD1FD0A4F28419497F9722A3DAAFE3B4186F6B6457E0 DUP3 DUP1 LOG3 DUP1 RETURN JUMPDEST POP CALLVALUE PUSH2 0x4FD JUMPI PUSH1 0x20 CALLDATASIZE PUSH1 0x3 NOT ADD SLT PUSH2 0x4FD JUMPI PUSH2 0x10D1 PUSH2 0x2D2B PUSH2 0x48CB JUMP JUMPDEST PUSH2 0x2D33 PUSH2 0x4C6B JUMP JUMPDEST PUSH1 0x0 DUP1 MLOAD PUSH1 0x20 PUSH2 0x5959 DUP4 CODECOPY DUP2 MLOAD SWAP2 MSTORE DUP4 MSTORE PUSH1 0x2 PUSH1 0x20 MSTORE PUSH2 0x2D59 PUSH1 0x1 PUSH1 0x40 DUP6 KECCAK256 ADD SLOAD PUSH2 0x4CB5 JUMP JUMPDEST PUSH2 0x4D6A JUMP JUMPDEST POP CALLVALUE PUSH2 0x4FD JUMPI PUSH1 0xA0 CALLDATASIZE PUSH1 0x3 NOT ADD SLT PUSH2 0x4FD JUMPI PUSH1 0x2 PUSH1 0x4 CALLDATALOAD LT ISZERO PUSH2 0x4FD JUMPI PUSH2 0x2D83 PUSH2 0x514E JUMP JUMPDEST PUSH2 0x2D8B PUSH2 0x52EF JUMP JUMPDEST PUSH2 0x2D93 PUSH2 0x4BB9 JUMP JUMPDEST PUSH2 0x2DA0 PUSH1 0x24 CALLDATALOAD ISZERO ISZERO PUSH2 0x516C JUMP JUMPDEST PUSH1 0x44 CALLDATALOAD ISZERO PUSH2 0x3251 JUMPI PUSH2 0x2DB7 PUSH1 0x64 CALLDATALOAD PUSH1 0x84 CALLDATALOAD GT PUSH2 0x51B8 JUMP JUMPDEST TIMESTAMP PUSH1 0x64 CALLDATALOAD GT ISZERO PUSH2 0x320C JUMPI CALLER DUP2 MSTORE PUSH1 0x6 PUSH1 0x20 MSTORE PUSH2 0x2DD5 PUSH1 0x40 DUP3 KECCAK256 PUSH2 0x49B3 JUMP JUMPDEST PUSH2 0x2DE1 DUP2 MLOAD ISZERO ISZERO PUSH2 0x520E JUMP JUMPDEST PUSH2 0x2DEF PUSH1 0x44 CALLDATALOAD PUSH1 0x24 CALLDATALOAD PUSH2 0x525A JUMP JUMPDEST SWAP1 PUSH2 0x2E05 PUSH1 0x4 CALLDATALOAD PUSH1 0x1 PUSH1 0x1 PUSH1 0xA0 SHL SUB AND CALLER PUSH2 0x5321 JUMP JUMPDEST SWAP2 PUSH1 0x40 MLOAD SWAP1 DUP2 PUSH2 0x1A0 DUP2 ADD LT PUSH1 0x1 PUSH1 0x1 PUSH1 0x40 SHL SUB PUSH2 0x1A0 DUP5 ADD GT OR PUSH2 0x124E JUMPI PUSH2 0x1A0 DUP3 ADD PUSH1 0x40 MSTORE DUP4 DUP3 MSTORE CALLER PUSH1 0x20 DUP4 ADD MSTORE DUP3 PUSH1 0x40 DUP4 ADD MSTORE PUSH1 0x4 CALLDATALOAD PUSH1 0x60 DUP4 ADD MSTORE PUSH1 0x24 CALLDATALOAD PUSH1 0x80 DUP4 ADD MSTORE PUSH1 0x44 CALLDATALOAD PUSH1 0xA0 DUP4 ADD MSTORE PUSH1 0xC0 DUP3 ADD MSTORE PUSH1 0x64 CALLDATALOAD PUSH1 0xE0 DUP3 ADD MSTORE PUSH1 0x84 CALLDATALOAD PUSH2 0x100 DUP3 ADD MSTORE DUP4 PUSH2 0x120 DUP3 ADD MSTORE DUP4 PUSH2 0x140 DUP3 ADD MSTORE PUSH1 0x40 MLOAD DUP1 PUSH1 0x20 DUP2 ADD LT PUSH1 0x1 PUSH1 0x1 PUSH1 0x40 SHL SUB PUSH1 0x20 DUP4 ADD GT OR PUSH2 0x124E JUMPI PUSH1 0x20 DUP2 ADD PUSH1 0x40 MSTORE DUP5 DUP2 MSTORE PUSH2 0x160 DUP3 ADD MSTORE TIMESTAMP PUSH2 0x180 DUP3 ADD MSTORE DUP3 DUP5 MSTORE PUSH1 0xA PUSH1 0x20 MSTORE PUSH1 0x40 DUP5 KECCAK256 SWAP1 DUP1 MLOAD DUP3 SSTORE PUSH1 0x1 DUP3 ADD PUSH1 0x1 DUP1 PUSH1 0xA0 SHL SUB PUSH1 0x20 DUP4 ADD MLOAD AND PUSH1 0x1 PUSH1 0x1 PUSH1 0x60 SHL SUB PUSH1 0xA0 SHL DUP3 SLOAD AND OR SWAP1 SSTORE PUSH1 0x40 DUP2 ADD MLOAD DUP1 MLOAD SWAP1 PUSH1 0x1 PUSH1 0x1 PUSH1 0x40 SHL SUB DUP3 GT PUSH2 0x280F JUMPI DUP2 SWAP1 PUSH2 0x2F0E DUP3 PUSH2 0x2F05 PUSH1 0x2 DUP9 ADD SLOAD PUSH2 0x490E JUMP JUMPDEST PUSH1 0x2 DUP9 ADD PUSH2 0x5109 JUMP JUMPDEST PUSH1 0x20 SWAP1 PUSH1 0x1F DUP4 GT PUSH1 0x1 EQ PUSH2 0x319D JUMPI DUP9 SWAP3 PUSH2 0x3192 JUMPI JUMPDEST POP POP DUP2 PUSH1 0x1 SHL SWAP2 PUSH1 0x0 NOT SWAP1 PUSH1 0x3 SHL SHR NOT AND OR PUSH1 0x2 DUP4 ADD SSTORE JUMPDEST PUSH1 0x60 DUP2 ADD MLOAD PUSH1 0x3 DUP4 ADD PUSH1 0x2 DUP3 LT ISZERO PUSH2 0x2664 JUMPI PUSH1 0xFF NOT SWAP2 PUSH1 0xFF DUP4 DUP4 SLOAD AND SWAP2 AND OR SWAP1 SSTORE PUSH1 0x80 DUP3 ADD MLOAD PUSH1 0x4 DUP5 ADD SSTORE PUSH1 0xA0 DUP3 ADD MLOAD PUSH1 0x5 DUP5 ADD SSTORE PUSH1 0xC0 DUP3 ADD MLOAD PUSH1 0x6 DUP5 ADD SSTORE PUSH1 0xE0 DUP3 ADD MLOAD PUSH1 0x7 DUP5 ADD SSTORE PUSH2 0x100 DUP3 ADD MLOAD PUSH1 0x8 DUP5 ADD SSTORE PUSH1 0x9 DUP4 ADD SWAP1 PUSH2 0x120 DUP4 ADD MLOAD SWAP1 PUSH1 0x6 DUP3 LT ISZERO PUSH2 0x317E JUMPI DUP3 SLOAD PUSH2 0x140 DUP6 ADD MLOAD PUSH2 0x100 PUSH1 0x1 PUSH1 0xA8 SHL SUB PUSH1 0x8 SWAP2 SWAP1 SWAP2 SHL AND PUSH1 0xFF SWAP4 SWAP1 SWAP4 AND SWAP2 AND PUSH2 0x100 PUSH1 0x1 PUSH1 0xA8 SHL SUB NOT AND OR OR SWAP1 SSTORE PUSH1 0xA DUP3 ADD PUSH2 0x160 DUP3 ADD MLOAD DUP1 MLOAD SWAP1 PUSH1 0x1 PUSH1 0x1 PUSH1 0x40 SHL SUB DUP3 GT PUSH2 0x257E JUMPI PUSH2 0x3002 DUP3 PUSH2 0x2FFC DUP6 SLOAD PUSH2 0x490E JUMP JUMPDEST DUP6 PUSH2 0x5109 JUMP JUMPDEST PUSH1 0x20 SWAP1 PUSH1 0x1F DUP4 GT PUSH1 0x1 EQ PUSH2 0x3113 JUMPI SWAP2 DUP1 PUSH2 0x180 SWAP5 SWAP3 PUSH1 0xB SWAP7 SWAP5 DUP12 SWAP3 PUSH2 0x3108 JUMPI JUMPDEST POP POP DUP2 PUSH1 0x1 SHL SWAP2 PUSH1 0x0 NOT SWAP1 PUSH1 0x3 SHL SHR NOT AND OR SWAP1 SSTORE JUMPDEST ADD MLOAD SWAP2 ADD SSTORE CALLER DUP4 MSTORE PUSH1 0xD PUSH1 0x20 MSTORE PUSH2 0x3051 DUP3 PUSH1 0x40 DUP6 KECCAK256 PUSH2 0x52C0 JUMP JUMPDEST PUSH2 0x305A DUP3 PUSH2 0x5283 JUMP JUMPDEST PUSH1 0xF SLOAD PUSH1 0x0 NOT DUP2 ADD SWAP1 DUP2 GT PUSH2 0x30F4 JUMPI DUP3 DUP5 MSTORE PUSH1 0x10 PUSH1 0x20 MSTORE PUSH1 0x40 DUP5 KECCAK256 SSTORE CALLER DUP4 MSTORE PUSH1 0x8 PUSH1 0x20 MSTORE PUSH1 0x40 DUP4 KECCAK256 DUP1 SLOAD PUSH1 0x1 DUP2 ADD DUP1 SWAP2 GT PUSH2 0x415 JUMPI SWAP2 DUP2 PUSH1 0x1 SWAP4 PUSH1 0x20 SWAP7 SWAP4 SSTORE PUSH1 0x8 TIMESTAMP SWAP2 ADD SSTORE DUP4 PUSH32 0x60B719A00B05F4A616F035AE1408708BE41B79F79F6141F2120F8FD5E01AA0D3 PUSH2 0x30D6 PUSH1 0x40 MLOAD SWAP4 PUSH1 0x40 DUP6 MSTORE PUSH1 0x40 DUP6 ADD SWAP1 PUSH2 0x4890 JUMP JUMPDEST SWAP3 PUSH2 0x30E5 DUP9 DUP3 ADD PUSH1 0x4 CALLDATALOAD PUSH2 0x4A59 JUMP JUMPDEST DUP1 CALLER SWAP5 SUB SWAP1 LOG3 SSTORE PUSH1 0x40 MLOAD SWAP1 DUP2 MSTORE RETURN JUMPDEST PUSH4 0x4E487B71 PUSH1 0xE0 SHL DUP5 MSTORE PUSH1 0x11 PUSH1 0x4 MSTORE PUSH1 0x24 DUP5 REVERT JUMPDEST ADD MLOAD SWAP1 POP CODESIZE DUP1 PUSH2 0x3022 JUMP JUMPDEST DUP4 DUP10 MSTORE PUSH1 0x20 DUP10 KECCAK256 SWAP2 SWAP1 PUSH1 0x1F NOT DUP5 AND DUP11 JUMPDEST DUP2 DUP2 LT PUSH2 0x3166 JUMPI POP SWAP3 PUSH1 0x1 SWAP3 DUP6 SWAP3 PUSH1 0xB SWAP9 SWAP7 PUSH2 0x180 SWAP9 SWAP7 LT PUSH2 0x314D JUMPI JUMPDEST POP POP POP DUP2 SHL ADD SWAP1 SSTORE PUSH2 0x3037 JUMP JUMPDEST ADD MLOAD PUSH1 0x0 NOT PUSH1 0xF8 DUP5 PUSH1 0x3 SHL AND SHR NOT AND SWAP1 SSTORE CODESIZE DUP1 DUP1 PUSH2 0x3140 JUMP JUMPDEST SWAP3 SWAP4 PUSH1 0x20 PUSH1 0x1 DUP2 SWAP3 DUP8 DUP7 ADD MLOAD DUP2 SSTORE ADD SWAP6 ADD SWAP4 ADD PUSH2 0x3123 JUMP JUMPDEST PUSH4 0x4E487B71 PUSH1 0xE0 SHL DUP9 MSTORE PUSH1 0x21 PUSH1 0x4 MSTORE PUSH1 0x24 DUP9 REVERT JUMPDEST ADD MLOAD SWAP1 POP CODESIZE DUP1 PUSH2 0x2F23 JUMP JUMPDEST SWAP3 POP PUSH1 0x2 DUP6 ADD DUP9 MSTORE PUSH1 0x20 DUP9 KECCAK256 SWAP1 DUP9 SWAP4 JUMPDEST PUSH1 0x1F NOT DUP5 AND DUP6 LT PUSH2 0x31F1 JUMPI PUSH1 0x1 SWAP5 POP DUP4 PUSH1 0x1F NOT DUP2 AND LT PUSH2 0x31D8 JUMPI JUMPDEST POP POP POP DUP2 SHL ADD PUSH1 0x2 DUP4 ADD SSTORE PUSH2 0x2F3B JUMP JUMPDEST ADD MLOAD PUSH1 0x0 NOT PUSH1 0xF8 DUP5 PUSH1 0x3 SHL AND SHR NOT AND SWAP1 SSTORE CODESIZE DUP1 DUP1 PUSH2 0x31C8 JUMP JUMPDEST DUP2 DUP2 ADD MLOAD DUP4 SSTORE PUSH1 0x20 SWAP5 DUP6 ADD SWAP5 PUSH1 0x1 SWAP1 SWAP4 ADD SWAP3 SWAP1 SWAP2 ADD SWAP1 PUSH2 0x31AD JUMP JUMPDEST PUSH1 0x40 MLOAD PUSH3 0x461BCD PUSH1 0xE5 SHL DUP2 MSTORE PUSH1 0x20 PUSH1 0x4 DUP3 ADD MSTORE PUSH1 0x1C PUSH1 0x24 DUP3 ADD MSTORE PUSH32 0x53746172742074696D65206D75737420626520696E2066757475726500000000 PUSH1 0x44 DUP3 ADD MSTORE PUSH1 0x64 SWAP1 REVERT JUMPDEST PUSH1 0x40 MLOAD PUSH3 0x461BCD PUSH1 0xE5 SHL DUP2 MSTORE PUSH1 0x20 PUSH1 0x4 DUP3 ADD MSTORE PUSH1 0x1A PUSH1 0x24 DUP3 ADD MSTORE PUSH32 0x50726963652070657220756E6974206D757374206265203E2030000000000000 PUSH1 0x44 DUP3 ADD MSTORE PUSH1 0x64 SWAP1 REVERT JUMPDEST POP CALLVALUE PUSH2 0x4FD JUMPI PUSH1 0x20 CALLDATASIZE PUSH1 0x3 NOT ADD SLT PUSH2 0x4FD JUMPI PUSH2 0x1BD3 PUSH1 0x40 PUSH2 0x666 SWAP3 PUSH2 0x32B9 PUSH2 0x48CB JUMP JUMPDEST PUSH2 0x32C1 PUSH2 0x4BB9 JUMP JUMPDEST PUSH1 0x1 PUSH1 0x1 PUSH1 0xA0 SHL SUB AND DUP2 MSTORE PUSH1 0xD PUSH1 0x20 MSTORE KECCAK256 PUSH2 0x5812 JUMP JUMPDEST POP CALLVALUE PUSH2 0x4FD JUMPI PUSH1 0x20 CALLDATASIZE PUSH1 0x3 NOT ADD SLT PUSH2 0x4FD JUMPI PUSH1 0x4 CALLDATALOAD SWAP1 PUSH1 0x1 PUSH1 0x1 PUSH1 0x40 SHL SUB DUP3 GT PUSH2 0x4FD JUMPI PUSH1 0x20 PUSH2 0x330A CALLDATASIZE PUSH1 0x4 DUP6 ADD PUSH2 0x48E1 JUMP JUMPDEST DUP1 PUSH1 0x40 MLOAD SWAP3 DUP4 CALLDATACOPY PUSH1 0x7 SWAP1 DUP3 ADD SWAP1 DUP2 MSTORE DUP2 SWAP1 SUB DUP3 ADD SWAP1 KECCAK256 SLOAD PUSH1 0x40 MLOAD PUSH1 0x1 PUSH1 0x1 PUSH1 0xA0 SHL SUB SWAP1 SWAP2 AND DUP2 MSTORE RETURN JUMPDEST POP CALLVALUE PUSH2 0x4FD JUMPI DUP1 PUSH1 0x3 NOT CALLDATASIZE ADD SLT PUSH2 0x4FD JUMPI PUSH1 0x20 PUSH1 0xFF PUSH1 0x1 SLOAD AND PUSH1 0x40 MLOAD SWAP1 ISZERO ISZERO DUP2 MSTORE RETURN JUMPDEST POP CALLVALUE PUSH2 0x4FD JUMPI PUSH1 0x20 CALLDATASIZE PUSH1 0x3 NOT ADD SLT PUSH2 0x4FD JUMPI PUSH1 0x4 CALLDATALOAD SWAP1 PUSH1 0xF SLOAD DUP3 LT ISZERO PUSH2 0x4FD JUMPI PUSH1 0x20 PUSH2 0x1880 DUP4 PUSH2 0x4B13 JUMP JUMPDEST POP CALLVALUE PUSH2 0x4FD JUMPI PUSH1 0x20 DUP1 PUSH1 0x3 NOT CALLDATASIZE ADD SLT PUSH2 0x19E3 JUMPI DUP2 PUSH1 0x4 CALLDATALOAD DUP2 JUMPDEST DUP2 DUP6 MSTORE PUSH1 0x12 DUP5 MSTORE PUSH1 0x40 DUP6 KECCAK256 DUP1 SLOAD DUP3 LT ISZERO PUSH2 0x340A JUMPI DUP2 PUSH2 0x33B8 SWAP2 PUSH2 0x4B4A JUMP JUMPDEST SWAP1 SLOAD SWAP1 DUP4 DUP8 MSTORE PUSH1 0x11 DUP7 MSTORE PUSH1 0x40 DUP8 KECCAK256 SWAP2 PUSH1 0x1 DUP1 PUSH1 0xA0 SHL SUB SWAP2 PUSH1 0x3 SHL SHR AND PUSH1 0x0 MSTORE DUP5 MSTORE PUSH1 0xFF PUSH1 0x40 PUSH1 0x0 KECCAK256 SLOAD AND PUSH2 0x33F5 JUMPI JUMPDEST PUSH2 0x33F0 SWAP1 PUSH2 0x5312 JUMP JUMPDEST PUSH2 0x339A JUMP JUMPDEST SWAP2 PUSH2 0x3402 PUSH2 0x33F0 SWAP2 PUSH2 0x5312 JUMP JUMPDEST SWAP3 SWAP1 POP PUSH2 0x33E7 JUMP JUMPDEST POP POP SWAP1 SWAP2 PUSH2 0x3417 DUP4 PUSH2 0x5861 JUMP JUMPDEST SWAP4 PUSH2 0x3425 PUSH1 0x40 MLOAD SWAP6 DUP7 PUSH2 0x4992 JUMP JUMPDEST DUP4 DUP6 MSTORE PUSH2 0x3431 DUP5 PUSH2 0x5861 JUMP JUMPDEST SWAP5 DUP3 DUP2 ADD SWAP5 PUSH1 0x1F NOT DUP1 SWAP8 ADD CALLDATASIZE DUP8 CALLDATACOPY DUP7 PUSH2 0x3462 PUSH2 0x344C DUP4 PUSH2 0x5861 JUMP JUMPDEST SWAP3 PUSH2 0x345A PUSH1 0x40 MLOAD SWAP5 DUP6 PUSH2 0x4992 JUMP JUMPDEST DUP1 DUP5 MSTORE PUSH2 0x5861 JUMP JUMPDEST ADD DUP5 DUP5 JUMPDEST DUP3 DUP2 LT PUSH2 0x35B8 JUMPI POP POP POP DUP3 SWAP4 DUP4 JUMPDEST DUP7 DUP6 MSTORE PUSH1 0x12 DUP3 MSTORE PUSH1 0x40 DUP6 KECCAK256 DUP1 SLOAD DUP3 LT ISZERO PUSH2 0x3518 JUMPI DUP2 PUSH2 0x3492 SWAP2 PUSH2 0x4B4A JUMP JUMPDEST PUSH1 0x1 DUP1 PUSH1 0xA0 SHL SUB SWAP2 SLOAD SWAP1 PUSH1 0x3 SHL SHR AND DUP8 DUP7 MSTORE PUSH1 0x11 DUP4 MSTORE PUSH1 0x40 DUP7 KECCAK256 DUP2 PUSH1 0x0 MSTORE DUP4 MSTORE PUSH1 0xFF PUSH1 0x40 PUSH1 0x0 KECCAK256 SLOAD AND PUSH2 0x34CF JUMPI JUMPDEST POP PUSH2 0x34CA SWAP1 PUSH2 0x5312 JUMP JUMPDEST PUSH2 0x3474 JUMP JUMPDEST DUP7 DUP2 PUSH2 0x3511 SWAP3 PUSH2 0x34E3 PUSH2 0x34CA SWAP6 SWAP11 DUP10 PUSH2 0x5878 JUMP JUMPDEST MSTORE DUP8 MSTORE PUSH1 0x6 DUP5 MSTORE PUSH2 0x34F6 PUSH1 0x40 DUP9 KECCAK256 PUSH2 0x49B3 JUMP JUMPDEST PUSH2 0x3500 DUP3 DUP8 PUSH2 0x5878 JUMP JUMPDEST MSTORE PUSH2 0x350B DUP2 DUP7 PUSH2 0x5878 JUMP JUMPDEST POP PUSH2 0x5312 JUMP JUMPDEST SWAP6 SWAP1 PUSH2 0x34C0 JUMP JUMPDEST POP POP SWAP3 DUP8 DUP8 SWAP5 PUSH1 0x40 MLOAD SWAP5 PUSH1 0x40 DUP7 ADD SWAP1 PUSH1 0x40 DUP8 MSTORE MLOAD DUP1 SWAP2 MSTORE PUSH1 0x60 DUP7 ADD SWAP7 SWAP1 DUP5 JUMPDEST DUP2 DUP2 LT PUSH2 0x359B JUMPI POP POP POP DUP5 DUP7 SUB DUP2 DUP7 ADD MSTORE DUP4 MLOAD SWAP2 DUP3 DUP8 MSTORE DUP2 DUP8 ADD SWAP1 DUP3 DUP1 DUP6 PUSH1 0x5 SHL DUP11 ADD ADD SWAP7 ADD SWAP5 SWAP8 JUMPDEST DUP5 DUP10 LT PUSH2 0x356D JUMPI DUP8 DUP8 SUB DUP9 RETURN JUMPDEST SWAP1 SWAP2 SWAP3 SWAP4 SWAP5 SWAP6 DUP5 DUP1 PUSH2 0x3589 DUP4 DUP7 DUP7 PUSH1 0x1 SWAP7 SUB ADD DUP9 MSTORE DUP11 MLOAD PUSH2 0x4890 JUMP JUMPDEST SWAP9 ADD SWAP5 ADD SWAP9 ADD SWAP8 SWAP2 SWAP1 SWAP5 SWAP4 SWAP3 SWAP5 PUSH2 0x3560 JUMP JUMPDEST DUP3 MLOAD PUSH1 0x1 PUSH1 0x1 PUSH1 0xA0 SHL SUB AND DUP10 MSTORE SWAP8 DUP4 ADD SWAP8 SWAP2 DUP4 ADD SWAP2 PUSH1 0x1 ADD PUSH2 0x3537 JUMP JUMPDEST PUSH1 0x60 DUP3 DUP3 DUP7 ADD ADD MSTORE ADD DUP6 SWAP1 PUSH2 0x3466 JUMP JUMPDEST POP CALLVALUE PUSH2 0x4FD JUMPI DUP1 PUSH1 0x3 NOT CALLDATASIZE ADD SLT PUSH2 0x4FD JUMPI PUSH1 0x4 SLOAD PUSH1 0x40 MLOAD PUSH1 0x1 PUSH1 0x1 PUSH1 0xA0 SHL SUB SWAP1 SWAP2 AND DUP2 MSTORE PUSH1 0x20 SWAP1 RETURN JUMPDEST POP CALLVALUE PUSH2 0x4FD JUMPI PUSH1 0x20 CALLDATASIZE PUSH1 0x3 NOT ADD SLT PUSH2 0x4FD JUMPI PUSH2 0x3677 SWAP1 PUSH1 0x1 PUSH1 0x1 PUSH1 0xA0 SHL SUB PUSH2 0x3617 PUSH2 0x48CB JUMP JUMPDEST AND DUP2 MSTORE PUSH1 0x8 PUSH1 0x20 MSTORE PUSH1 0x40 DUP1 DUP3 KECCAK256 SWAP2 PUSH1 0x6 PUSH1 0x20 MSTORE KECCAK256 DUP2 SLOAD SWAP1 PUSH1 0x1 DUP4 ADD SLOAD SWAP3 PUSH1 0x2 DUP2 ADD SLOAD PUSH1 0x3 DUP3 ADD SLOAD PUSH1 0x4 DUP4 ADD SLOAD PUSH1 0x5 DUP5 ADD SLOAD SWAP2 PUSH1 0x6 DUP6 ADD SLOAD SWAP4 PUSH2 0x3662 PUSH1 0x8 PUSH1 0x7 DUP9 ADD SLOAD SWAP8 ADD SLOAD SWAP8 PUSH2 0x49B3 JUMP JUMPDEST SWAP9 PUSH1 0x40 MLOAD SWAP11 DUP12 SWAP11 PUSH2 0x140 DUP1 DUP14 MSTORE DUP13 ADD SWAP1 PUSH2 0x4890 JUMP JUMPDEST SWAP9 PUSH1 0x20 DUP12 ADD MSTORE PUSH1 0x40 DUP11 ADD MSTORE PUSH1 0x60 DUP10 ADD MSTORE PUSH1 0x80 DUP9 ADD MSTORE PUSH1 0xA0 DUP8 ADD MSTORE PUSH1 0xC0 DUP7 ADD MSTORE PUSH1 0xE0 DUP6 ADD MSTORE PUSH2 0x100 DUP5 ADD MSTORE PUSH2 0x120 DUP4 ADD MSTORE SUB SWAP1 RETURN JUMPDEST POP CALLVALUE PUSH2 0x4FD JUMPI PUSH1 0x40 CALLDATASIZE PUSH1 0x3 NOT ADD SLT PUSH2 0x4FD JUMPI PUSH2 0x36C5 PUSH2 0x48CB JUMP JUMPDEST PUSH1 0x1 PUSH1 0x1 PUSH1 0xA0 SHL SUB AND DUP2 MSTORE PUSH1 0xE PUSH1 0x20 MSTORE PUSH1 0x40 DUP2 KECCAK256 DUP1 SLOAD PUSH1 0x24 CALLDATALOAD SWAP3 SWAP1 DUP4 LT ISZERO PUSH2 0x4FD JUMPI PUSH1 0x20 PUSH2 0x1880 DUP5 DUP5 PUSH2 0x4B4A JUMP JUMPDEST POP CALLVALUE PUSH2 0x4FD JUMPI PUSH1 0x40 CALLDATASIZE PUSH1 0x3 NOT ADD SLT PUSH2 0x4FD JUMPI PUSH2 0x370D PUSH2 0x48CB JUMP JUMPDEST PUSH1 0x1 PUSH1 0x1 PUSH1 0x40 SHL SUB SWAP1 PUSH1 0x24 CALLDATALOAD DUP3 DUP2 GT PUSH2 0x43D JUMPI PUSH2 0x372E SWAP1 CALLDATASIZE SWAP1 PUSH1 0x4 ADD PUSH2 0x48E1 JUMP JUMPDEST SWAP2 SWAP1 PUSH2 0x3738 PUSH2 0x4C6B JUMP JUMPDEST PUSH1 0x0 DUP1 MLOAD PUSH1 0x20 PUSH2 0x5939 DUP4 CODECOPY DUP2 MLOAD SWAP2 MSTORE DUP6 MSTORE PUSH1 0x20 SWAP2 PUSH1 0x2 DUP4 MSTORE PUSH1 0x1 SWAP1 PUSH2 0x3762 DUP3 PUSH1 0x40 DUP10 KECCAK256 ADD SLOAD PUSH2 0x4CB5 JUMP JUMPDEST PUSH2 0x376B DUP2 PUSH2 0x4CDB JUMP JUMPDEST POP DUP5 PUSH2 0x3775 JUMPI DUP7 DUP1 RETURN JUMPDEST PUSH2 0x3781 DUP5 DUP7 GT ISZERO PUSH2 0x5024 JUMP JUMPDEST PUSH1 0x40 MLOAD SWAP1 DUP6 DUP5 DUP4 CALLDATACOPY PUSH2 0x37AB DUP7 DUP4 ADD PUSH1 0x7 DUP2 MSTORE DUP4 DUP8 PUSH1 0x1 DUP1 PUSH1 0xA0 SHL SUB SWAP6 DUP7 SWAP4 SUB ADD SWAP1 KECCAK256 SLOAD AND ISZERO PUSH2 0x5064 JUMP JUMPDEST AND SWAP5 DUP6 DUP8 MSTORE PUSH1 0x6 DUP5 MSTORE PUSH1 0x40 DUP8 KECCAK256 SWAP1 DUP6 GT PUSH2 0x280F JUMPI DUP6 SWAP2 DUP2 PUSH2 0x37D7 DUP8 PUSH2 0x37D1 DUP12 SWAP6 SLOAD PUSH2 0x490E JUMP JUMPDEST DUP4 PUSH2 0x5109 JUMP JUMPDEST DUP3 PUSH1 0x1F DUP9 GT PUSH1 0x1 EQ PUSH2 0x3906 JUMPI SWAP4 DUP4 DUP8 SWAP7 SWAP5 SWAP4 PUSH1 0x8 SWAP4 DUP11 PUSH2 0x38EE SWAP9 PUSH32 0x4AFE13536E3149CDDD8C9A8DF1580CD5E909FD13C41E7DFEAD2E38D1141DAD5D SWAP13 SWAP12 SWAP8 SWAP2 PUSH2 0x38FB JUMPI JUMPDEST POP PUSH1 0x0 NOT PUSH1 0x3 DUP13 SWAP1 SHL SHR NOT AND DUP11 DUP4 SHL OR SWAP1 SSTORE JUMPDEST PUSH1 0x40 MLOAD DUP10 DUP8 DUP3 CALLDATACOPY DUP6 DUP2 DUP12 DUP2 ADD PUSH1 0x7 DUP2 MSTORE SUB ADD SWAP1 KECCAK256 DUP4 PUSH1 0x1 PUSH1 0x1 PUSH1 0x60 SHL SUB PUSH1 0xA0 SHL DUP3 SLOAD AND OR SWAP1 SSTORE PUSH1 0x40 MLOAD SWAP5 DUP6 SWAP2 PUSH2 0x3863 DUP4 PUSH2 0x495B JUMP JUMPDEST DUP4 DUP4 MSTORE DUP2 DUP4 ADD SWAP1 DUP5 DUP3 MSTORE PUSH1 0x40 DUP5 ADD DUP6 DUP2 MSTORE PUSH1 0x60 DUP6 ADD SWAP2 DUP7 DUP4 MSTORE PUSH1 0x80 DUP7 ADD SWAP4 DUP8 DUP6 MSTORE PUSH1 0x40 DUP9 DUP12 PUSH1 0xA0 DUP11 ADD SWAP9 DUP3 DUP11 MSTORE PUSH2 0x100 PUSH1 0xC0 DUP13 ADD SWAP12 DUP5 DUP14 MSTORE PUSH1 0xE0 DUP2 ADD SWAP14 DUP15 MSTORE ADD SWAP13 DUP14 TIMESTAMP SWAP1 MSTORE DUP4 MSTORE MSTORE KECCAK256 SWAP11 MLOAD DUP12 SSTORE MLOAD SWAP1 DUP11 ADD SSTORE MLOAD PUSH1 0x2 DUP10 ADD SSTORE MLOAD PUSH1 0x3 DUP9 ADD SSTORE MLOAD PUSH1 0x4 DUP8 ADD SSTORE MLOAD PUSH1 0x5 DUP7 ADD SSTORE MLOAD PUSH1 0x6 DUP6 ADD SSTORE MLOAD PUSH1 0x7 DUP5 ADD SSTORE MLOAD SWAP2 ADD SSTORE PUSH1 0x40 MLOAD SWAP4 DUP4 DUP6 SWAP5 DUP6 MSTORE DUP5 ADD SWAP2 PUSH2 0x50A9 JUMP JUMPDEST SUB SWAP1 LOG2 CODESIZE DUP1 DUP1 DUP1 DUP1 DUP1 DUP7 DUP1 RETURN JUMPDEST SWAP1 POP DUP8 ADD CALLDATALOAD CODESIZE PUSH2 0x381B JUMP JUMPDEST DUP2 DUP5 MSTORE DUP7 DUP5 KECCAK256 SWAP1 PUSH1 0x1F NOT DUP10 AND DUP6 JUMPDEST DUP2 DUP2 LT PUSH2 0x397C JUMPI POP SWAP4 PUSH1 0x8 SWAP4 PUSH2 0x38EE SWAP8 SWAP4 DUP11 SWAP10 SWAP8 SWAP4 DUP13 PUSH32 0x4AFE13536E3149CDDD8C9A8DF1580CD5E909FD13C41E7DFEAD2E38D1141DAD5D SWAP14 SWAP13 SWAP9 LT PUSH2 0x3962 JUMPI JUMPDEST POP POP DUP2 DUP11 DUP2 SHL ADD SWAP1 SSTORE PUSH2 0x382E JUMP JUMPDEST DUP9 ADD CALLDATALOAD PUSH1 0x0 NOT PUSH1 0x3 DUP14 SWAP1 SHL PUSH1 0xF8 AND SHR NOT AND SWAP1 SSTORE CODESIZE DUP1 PUSH2 0x3954 JUMP JUMPDEST DUP9 DUP4 ADD CALLDATALOAD DUP5 SSTORE DUP12 SWAP8 POP DUP13 SWAP7 POP SWAP3 DUP6 ADD SWAP3 SWAP2 DUP10 ADD SWAP2 DUP10 ADD PUSH2 0x3914 JUMP JUMPDEST POP CALLVALUE PUSH2 0x4FD JUMPI PUSH1 0x20 CALLDATASIZE PUSH1 0x3 NOT ADD SLT PUSH2 0x4FD JUMPI PUSH1 0x4 CALLDATALOAD DUP2 MSTORE PUSH1 0xA PUSH1 0x20 MSTORE PUSH1 0x40 SWAP1 KECCAK256 DUP1 SLOAD PUSH1 0x1 DUP3 ADD SLOAD SWAP1 SWAP2 PUSH1 0xFF SWAP2 PUSH2 0x666 SWAP2 PUSH1 0x1 PUSH1 0x1 PUSH1 0xA0 SHL SUB SWAP2 DUP3 AND SWAP2 PUSH2 0x39DF PUSH1 0x2 DUP4 ADD PUSH2 0x49B3 JUMP JUMPDEST SWAP1 DUP6 PUSH1 0x3 DUP5 ADD SLOAD AND PUSH1 0x4 DUP5 ADD SLOAD PUSH1 0x5 DUP6 ADD SLOAD PUSH1 0x6 DUP7 ADD SLOAD SWAP1 PUSH1 0x7 DUP8 ADD SLOAD SWAP3 PUSH1 0x8 DUP9 ADD SLOAD SWAP5 PUSH1 0x9 DUP10 ADD SLOAD SWAP8 PUSH1 0xB PUSH2 0x3A17 PUSH1 0xA DUP13 ADD PUSH2 0x49B3 JUMP JUMPDEST SWAP11 ADD SLOAD SWAP11 PUSH1 0x40 MLOAD SWAP15 DUP16 SWAP15 DUP16 SWAP11 DUP13 PUSH1 0x8 SHR AND SWAP12 AND SWAP10 PUSH2 0x4A89 JUMP JUMPDEST POP CALLVALUE PUSH2 0x4FD JUMPI DUP1 PUSH1 0x3 NOT CALLDATASIZE ADD SLT PUSH2 0x4FD JUMPI PUSH1 0x20 PUSH1 0x40 MLOAD PUSH2 0xE10 DUP2 MSTORE RETURN JUMPDEST POP CALLVALUE PUSH2 0x4FD JUMPI DUP1 PUSH1 0x3 NOT CALLDATASIZE ADD SLT PUSH2 0x4FD JUMPI PUSH2 0x3A66 PUSH2 0x4C6B JUMP JUMPDEST PUSH1 0x1 SLOAD PUSH1 0xFF DUP2 AND ISZERO PUSH2 0x3AA6 JUMPI PUSH1 0xFF NOT AND PUSH1 0x1 SSTORE PUSH32 0x5DB9EE0A495BF2E6FF9C91A7834C1BA4FDD244A5E8AA4E537BD38AEAE4B073AA PUSH1 0x20 PUSH1 0x40 MLOAD CALLER DUP2 MSTORE LOG1 DUP1 RETURN JUMPDEST PUSH1 0x40 MLOAD PUSH4 0x8DFC202B PUSH1 0xE0 SHL DUP2 MSTORE PUSH1 0x4 SWAP1 REVERT JUMPDEST POP CALLVALUE PUSH2 0x4FD JUMPI PUSH1 0x20 DUP1 PUSH1 0x3 NOT CALLDATASIZE ADD SLT PUSH2 0x19E3 JUMPI SWAP1 PUSH2 0x3AD4 PUSH2 0x4BB9 JUMP JUMPDEST PUSH1 0x4 CALLDATALOAD DUP2 MSTORE PUSH1 0xB DUP3 MSTORE PUSH1 0x40 DUP2 KECCAK256 DUP1 SLOAD SWAP2 PUSH2 0x3AED DUP4 PUSH2 0x5861 JUMP JUMPDEST SWAP3 PUSH2 0x3AFB PUSH1 0x40 MLOAD SWAP5 DUP6 PUSH2 0x4992 JUMP JUMPDEST DUP1 DUP5 MSTORE DUP5 DUP5 ADD DUP1 SWAP4 DUP4 MSTORE DUP6 DUP4 KECCAK256 DUP4 SWAP2 JUMPDEST DUP4 DUP4 LT PUSH2 0x3BBE JUMPI POP POP POP POP PUSH1 0x40 MLOAD SWAP3 DUP5 DUP5 ADD SWAP1 DUP6 DUP6 MSTORE MLOAD DUP1 SWAP2 MSTORE PUSH1 0x40 DUP5 ADD SWAP5 PUSH1 0x40 DUP3 PUSH1 0x5 SHL DUP7 ADD ADD SWAP4 SWAP3 SWAP6 JUMPDEST DUP3 DUP8 LT PUSH2 0x3B44 JUMPI DUP6 DUP6 SUB DUP7 RETURN JUMPDEST SWAP1 SWAP2 SWAP3 SWAP4 DUP3 DUP1 PUSH1 0x1 SWAP3 PUSH1 0x3F NOT DUP10 DUP3 SUB ADD DUP6 MSTORE DUP8 MLOAD SWAP1 DUP5 DUP1 PUSH1 0xA0 SHL SUB DUP3 MLOAD AND DUP2 MSTORE PUSH2 0x3B9A PUSH2 0x3B7D DUP5 DUP5 ADD MLOAD PUSH1 0xC0 DUP1 DUP8 DUP7 ADD MSTORE DUP5 ADD SWAP1 PUSH2 0x4890 JUMP JUMPDEST PUSH1 0x40 DUP5 ADD MLOAD PUSH1 0x40 DUP5 ADD MSTORE PUSH1 0x60 DUP1 DUP6 ADD MLOAD SWAP1 DUP5 DUP4 SUB SWAP1 DUP6 ADD MSTORE PUSH2 0x4890 JUMP JUMPDEST SWAP2 PUSH1 0x80 DUP1 DUP3 ADD MLOAD SWAP1 DUP4 ADD MSTORE PUSH1 0xA0 DUP1 SWAP2 ADD MLOAD SWAP2 ADD MSTORE SWAP7 ADD SWAP3 ADD SWAP7 ADD SWAP6 SWAP3 SWAP2 SWAP1 SWAP3 PUSH2 0x3B37 JUMP JUMPDEST PUSH1 0x6 DUP9 PUSH1 0x1 SWAP3 PUSH2 0x3BD1 DUP6 SWAP12 SWAP11 SWAP9 SWAP12 PUSH2 0x546B JUMP JUMPDEST DUP2 MSTORE ADD SWAP3 ADD SWAP3 ADD SWAP2 SWAP1 SWAP7 SWAP4 SWAP6 SWAP7 PUSH2 0x3B0B JUMP JUMPDEST POP CALLVALUE PUSH2 0x4FD JUMPI PUSH1 0x20 CALLDATASIZE PUSH1 0x3 NOT ADD SLT PUSH2 0x4FD JUMPI PUSH1 0x4 CALLDATALOAD PUSH2 0x3C00 PUSH2 0x4C21 JUMP JUMPDEST DUP1 DUP3 MSTORE PUSH1 0xA PUSH1 0x20 MSTORE PUSH1 0x9 PUSH1 0x40 DUP4 KECCAK256 PUSH2 0x3C1A DUP4 DUP3 SLOAD EQ PUSH2 0x5380 JUMP JUMPDEST ADD DUP1 SLOAD PUSH1 0xFF DUP2 AND PUSH1 0x6 DUP2 LT ISZERO PUSH2 0x107F JUMPI DUP1 ISZERO SWAP1 DUP2 ISZERO PUSH2 0x3D2C JUMPI JUMPDEST POP ISZERO PUSH2 0x3CE7 JUMPI PUSH1 0xFF NOT AND PUSH1 0x5 OR SWAP1 SSTORE DUP1 DUP3 MSTORE PUSH1 0x10 PUSH1 0x20 MSTORE PUSH1 0x40 DUP3 KECCAK256 SLOAD ISZERO DUP1 ISZERO SWAP1 PUSH2 0x3C88 JUMPI JUMPDEST PUSH2 0x3C7A JUMPI JUMPDEST PUSH1 0x0 DUP1 MLOAD PUSH1 0x20 PUSH2 0x58F9 DUP4 CODECOPY DUP2 MLOAD SWAP2 MSTORE PUSH1 0x20 PUSH1 0x40 MLOAD PUSH1 0x5 DUP2 MSTORE LOG2 DUP1 RETURN JUMPDEST PUSH2 0x3C83 DUP2 PUSH2 0x5517 JUMP JUMPDEST PUSH2 0x3C5E JUMP JUMPDEST POP PUSH1 0xF SLOAD ISZERO DUP1 ISZERO SWAP1 DUP2 PUSH2 0x3C9C JUMPI JUMPDEST POP PUSH2 0x3C59 JUMP JUMPDEST SWAP1 POP PUSH2 0x3CD1 JUMPI PUSH1 0xF PUSH1 0x0 MSTORE DUP1 PUSH32 0x8D1108E10BCB7C27DDDFC02ED9D693A074039D026CF4EA4240B40F7D581AC802 SLOAD EQ CODESIZE PUSH2 0x3C96 JUMP JUMPDEST PUSH4 0x4E487B71 PUSH1 0xE0 SHL PUSH1 0x0 MSTORE PUSH1 0x32 PUSH1 0x4 MSTORE PUSH1 0x24 PUSH1 0x0 REVERT JUMPDEST PUSH1 0x40 MLOAD PUSH3 0x461BCD PUSH1 0xE5 SHL DUP2 MSTORE PUSH1 0x20 PUSH1 0x4 DUP3 ADD MSTORE PUSH1 0x19 PUSH1 0x24 DUP3 ADD MSTORE PUSH32 0x4F666665722063616E6E6F74206265206D6F6465726174656400000000000000 PUSH1 0x44 DUP3 ADD MSTORE PUSH1 0x64 SWAP1 REVERT JUMPDEST PUSH1 0x1 SWAP2 POP EQ CODESIZE PUSH2 0x3C34 JUMP JUMPDEST POP CALLVALUE PUSH2 0x4FD JUMPI PUSH1 0x20 DUP1 PUSH1 0x3 NOT CALLDATASIZE ADD SLT PUSH2 0x19E3 JUMPI PUSH1 0x1 PUSH1 0x1 PUSH1 0x40 SHL SUB PUSH1 0x4 CALLDATALOAD DUP2 DUP2 GT PUSH2 0x43D JUMPI PUSH2 0x3D6A SWAP1 CALLDATASIZE SWAP1 PUSH1 0x4 ADD PUSH2 0x48E1 JUMP JUMPDEST SWAP2 PUSH2 0x3D73 PUSH2 0x514E JUMP JUMPDEST PUSH2 0x3D7B PUSH2 0x4BB9 JUMP JUMPDEST DUP3 ISZERO PUSH2 0x4055 JUMPI PUSH2 0x3D8D DUP5 DUP5 GT ISZERO PUSH2 0x5024 JUMP JUMPDEST PUSH2 0x3DC1 PUSH1 0x40 MLOAD DUP5 DUP5 DUP3 CALLDATACOPY PUSH1 0x7 DUP2 DUP7 ADD SWAP1 DUP2 MSTORE DUP2 SWAP1 SUB DUP7 ADD SWAP1 KECCAK256 SLOAD PUSH1 0x1 PUSH1 0x1 PUSH1 0xA0 SHL SUB SWAP1 DUP2 AND ISZERO SWAP1 DUP2 ISZERO PUSH2 0x4035 JUMPI JUMPDEST POP PUSH2 0x5064 JUMP JUMPDEST CALLER DUP6 MSTORE PUSH1 0x6 DUP5 MSTORE PUSH2 0x3DD4 PUSH1 0x40 DUP7 KECCAK256 PUSH2 0x49B3 JUMP JUMPDEST DUP1 MLOAD ISZERO PUSH2 0x3FF5 JUMPI PUSH1 0x40 MLOAD DUP6 DUP2 DUP4 MLOAD PUSH2 0x3DEF DUP2 DUP4 DUP6 DUP9 ADD PUSH2 0x486D JUMP JUMPDEST DUP2 ADD PUSH1 0x7 DUP2 MSTORE SUB ADD SWAP1 KECCAK256 PUSH1 0x1 PUSH1 0x1 PUSH1 0x60 SHL SUB PUSH1 0xA0 SHL DUP2 SLOAD AND SWAP1 SSTORE PUSH32 0x13428138C872937C879D86DA5F1947A7625D28588E4F7F2C44BCB70ABBD77473 PUSH2 0x3E3F PUSH1 0x40 MLOAD SWAP3 PUSH1 0x40 DUP5 MSTORE PUSH1 0x40 DUP5 ADD SWAP1 PUSH2 0x4890 JUMP JUMPDEST SWAP2 DUP1 DUP4 SUB DUP8 DUP3 ADD MSTORE DUP1 PUSH2 0x3E54 CALLER SWAP5 DUP9 DUP9 PUSH2 0x50A9 JUMP JUMPDEST SUB SWAP1 LOG2 JUMPDEST CALLER DUP6 MSTORE PUSH1 0x6 DUP5 MSTORE PUSH1 0x40 DUP6 KECCAK256 SWAP1 DUP4 GT PUSH2 0x3FE1 JUMPI SWAP1 DUP2 PUSH2 0x3E7B DUP5 PUSH2 0x37D1 DUP8 SWAP6 SLOAD PUSH2 0x490E JUMP JUMPDEST DUP4 DUP7 PUSH1 0x1F DUP3 GT PUSH1 0x1 EQ PUSH2 0x3F7F JUMPI DUP8 SWAP2 PUSH2 0x3F74 JUMPI JUMPDEST POP DUP5 PUSH1 0x1 SHL SWAP1 PUSH1 0x0 NOT DUP7 PUSH1 0x3 SHL SHR NOT AND OR SWAP1 SSTORE JUMPDEST DUP3 PUSH1 0x40 MLOAD SWAP4 DUP5 SWAP3 DUP4 CALLDATACOPY DUP2 ADD PUSH1 0x7 DUP2 MSTORE SUB ADD SWAP1 KECCAK256 CALLER PUSH1 0x1 PUSH1 0x1 PUSH1 0x60 SHL SUB PUSH1 0xA0 SHL DUP3 SLOAD AND OR SWAP1 SSTORE CALLER DUP3 MSTORE PUSH1 0x8 DUP2 MSTORE PUSH1 0x8 PUSH1 0x40 DUP4 KECCAK256 ADD DUP1 SLOAD ISZERO PUSH1 0x0 EQ PUSH2 0x3F6D JUMPI POP PUSH1 0x8 PUSH1 0x40 MLOAD SWAP2 PUSH2 0x3EF0 DUP4 PUSH2 0x495B JUMP JUMPDEST DUP4 DUP4 MSTORE DUP1 DUP4 ADD DUP5 DUP2 MSTORE PUSH1 0x40 DUP5 ADD DUP6 DUP2 MSTORE PUSH1 0x60 DUP6 ADD DUP7 DUP2 MSTORE PUSH1 0x80 DUP7 ADD DUP8 DUP2 MSTORE PUSH1 0xA0 DUP8 ADD SWAP2 DUP9 DUP4 MSTORE PUSH1 0xC0 DUP9 ADD SWAP4 DUP10 DUP6 MSTORE PUSH1 0xE0 DUP10 ADD SWAP6 DUP11 DUP8 MSTORE DUP9 PUSH2 0x100 DUP12 ADD SWAP9 TIMESTAMP DUP11 MSTORE CALLER DUP14 MSTORE MSTORE PUSH1 0x40 DUP12 KECCAK256 SWAP10 MLOAD DUP11 SSTORE MLOAD PUSH1 0x1 DUP11 ADD SSTORE MLOAD PUSH1 0x2 DUP10 ADD SSTORE MLOAD PUSH1 0x3 DUP9 ADD SSTORE MLOAD PUSH1 0x4 DUP8 ADD SSTORE MLOAD PUSH1 0x5 DUP7 ADD SSTORE MLOAD PUSH1 0x6 DUP6 ADD SSTORE MLOAD PUSH1 0x7 DUP5 ADD SSTORE MLOAD SWAP2 ADD SSTORE DUP1 RETURN JUMPDEST TIMESTAMP SWAP1 SSTORE POP DUP1 RETURN JUMPDEST SWAP1 POP DUP3 ADD CALLDATALOAD CODESIZE PUSH2 0x3E8F JUMP JUMPDEST DUP3 DUP9 MSTORE DUP5 DUP9 KECCAK256 SWAP2 POP DUP6 PUSH1 0x1F NOT DUP2 AND DUP10 JUMPDEST DUP2 DUP2 LT PUSH2 0x3FC6 JUMPI POP LT PUSH2 0x3FAC JUMPI JUMPDEST POP POP PUSH1 0x1 DUP5 DUP2 SHL ADD SWAP1 SSTORE PUSH2 0x3EA3 JUMP JUMPDEST DUP4 ADD CALLDATALOAD PUSH1 0x0 NOT PUSH1 0x3 DUP8 SWAP1 SHL PUSH1 0xF8 AND SHR NOT AND SWAP1 SSTORE CODESIZE DUP1 PUSH2 0x3F9D JUMP JUMPDEST DUP7 DUP5 ADD CALLDATALOAD DUP6 SSTORE DUP10 SWAP8 PUSH1 0x1 SWAP1 SWAP6 ADD SWAP5 SWAP4 DUP5 ADD SWAP4 DUP10 SWAP4 POP ADD PUSH2 0x3F8F JUMP JUMPDEST PUSH4 0x4E487B71 PUSH1 0xE0 SHL DUP6 MSTORE PUSH1 0x41 PUSH1 0x4 MSTORE PUSH1 0x24 DUP6 REVERT JUMPDEST POP PUSH1 0x40 MLOAD DUP5 DUP2 MSTORE PUSH32 0x4AFE13536E3149CDDD8C9A8DF1580CD5E909FD13C41E7DFEAD2E38D1141DAD5D CALLER SWAP2 DUP1 PUSH2 0x402D DUP9 DUP3 ADD DUP9 DUP9 PUSH2 0x50A9 JUMP JUMPDEST SUB SWAP1 LOG2 PUSH2 0x3E58 JUMP JUMPDEST SWAP1 POP PUSH1 0x40 MLOAD DUP6 DUP6 DUP3 CALLDATACOPY DUP7 DUP2 DUP8 DUP2 ADD PUSH1 0x7 DUP2 MSTORE SUB ADD SWAP1 KECCAK256 SLOAD AND CALLER EQ CODESIZE PUSH2 0x3DBB JUMP JUMPDEST PUSH1 0x40 MLOAD PUSH3 0x461BCD PUSH1 0xE5 SHL DUP2 MSTORE PUSH1 0x4 DUP2 ADD DUP6 SWAP1 MSTORE PUSH1 0x18 PUSH1 0x24 DUP3 ADD MSTORE PUSH32 0x557365726E616D652063616E6E6F7420626520656D7074790000000000000000 PUSH1 0x44 DUP3 ADD MSTORE PUSH1 0x64 SWAP1 REVERT JUMPDEST POP CALLVALUE PUSH2 0x4FD JUMPI PUSH1 0x40 CALLDATASIZE PUSH1 0x3 NOT ADD SLT PUSH2 0x4FD JUMPI PUSH2 0x40B4 PUSH2 0x48B5 JUMP JUMPDEST CALLER PUSH1 0x1 PUSH1 0x1 PUSH1 0xA0 SHL SUB DUP3 AND SUB PUSH2 0x40D0 JUMPI PUSH2 0x10D1 SWAP1 PUSH1 0x4 CALLDATALOAD PUSH2 0x4F81 JUMP JUMPDEST PUSH1 0x40 MLOAD PUSH4 0x334BD919 PUSH1 0xE1 SHL DUP2 MSTORE PUSH1 0x4 SWAP1 REVERT JUMPDEST POP CALLVALUE PUSH2 0x4FD JUMPI PUSH1 0x20 CALLDATASIZE PUSH1 0x3 NOT ADD SLT PUSH2 0x4FD JUMPI PUSH2 0x120 SWAP1 PUSH1 0x40 SWAP1 PUSH1 0x1 PUSH1 0x1 PUSH1 0xA0 SHL SUB PUSH2 0x410B PUSH2 0x48CB JUMP JUMPDEST AND DUP2 MSTORE PUSH1 0x8 PUSH1 0x20 MSTORE KECCAK256 DUP1 SLOAD SWAP1 PUSH1 0x1 DUP2 ADD SLOAD SWAP1 PUSH1 0x2 DUP2 ADD SLOAD PUSH1 0x3 DUP3 ADD SLOAD PUSH1 0x4 DUP4 ADD SLOAD PUSH1 0x5 DUP5 ADD SLOAD SWAP2 PUSH1 0x6 DUP6 ADD SLOAD SWAP4 PUSH1 0x8 PUSH1 0x7 DUP8 ADD SLOAD SWAP7 ADD SLOAD SWAP7 PUSH1 0x40 MLOAD SWAP9 DUP10 MSTORE PUSH1 0x20 DUP10 ADD MSTORE PUSH1 0x40 DUP9 ADD MSTORE PUSH1 0x60 DUP8 ADD MSTORE PUSH1 0x80 DUP7 ADD MSTORE PUSH1 0xA0 DUP6 ADD MSTORE PUSH1 0xC0 DUP5 ADD MSTORE PUSH1 0xE0 DUP4 ADD MSTORE PUSH2 0x100 DUP3 ADD MSTORE RETURN JUMPDEST POP CALLVALUE PUSH2 0x4FD JUMPI PUSH1 0x40 CALLDATASIZE PUSH1 0x3 NOT ADD SLT PUSH2 0x4FD JUMPI PUSH2 0x10D1 PUSH1 0x4 CALLDATALOAD PUSH2 0x4194 PUSH2 0x48B5 JUMP JUMPDEST SWAP1 DUP1 DUP5 MSTORE PUSH1 0x2 PUSH1 0x20 MSTORE PUSH2 0x41AD PUSH1 0x1 PUSH1 0x40 DUP7 KECCAK256 ADD SLOAD PUSH2 0x4CB5 JUMP JUMPDEST PUSH2 0x4E7E JUMP JUMPDEST POP CALLVALUE PUSH2 0x4FD JUMPI PUSH1 0x20 CALLDATASIZE PUSH1 0x3 NOT ADD SLT PUSH2 0x4FD JUMPI PUSH1 0x1 PUSH1 0x40 PUSH1 0x20 SWAP3 PUSH1 0x4 CALLDATALOAD DUP2 MSTORE PUSH1 0x2 DUP5 MSTORE KECCAK256 ADD SLOAD PUSH1 0x40 MLOAD SWAP1 DUP2 MSTORE RETURN JUMPDEST POP CALLVALUE PUSH2 0x4FD JUMPI PUSH1 0x40 CALLDATASIZE PUSH1 0x3 NOT ADD SLT PUSH2 0x4FD JUMPI PUSH1 0x4 CALLDATALOAD SWAP1 PUSH2 0x41FD PUSH2 0x48B5 JUMP JUMPDEST SWAP2 PUSH2 0x4206 PUSH2 0x514E JUMP JUMPDEST PUSH2 0x420E PUSH2 0x52EF JUMP JUMPDEST DUP1 DUP3 MSTORE PUSH1 0x20 SWAP1 PUSH1 0xA DUP3 MSTORE PUSH1 0x40 DUP4 KECCAK256 SWAP2 PUSH2 0x4229 DUP3 DUP5 SLOAD EQ PUSH2 0x5380 JUMP JUMPDEST PUSH1 0x9 DUP4 ADD SWAP3 PUSH1 0xFF DUP5 SLOAD AND SWAP4 PUSH1 0x6 DUP6 LT ISZERO PUSH2 0x1007 JUMPI PUSH2 0x424A PUSH1 0x1 DUP1 SWAP7 EQ PUSH2 0x53C3 JUMP JUMPDEST DUP2 DUP6 ADD SLOAD PUSH1 0x1 PUSH1 0x1 PUSH1 0xA0 SHL SUB SWAP2 SWAP1 DUP3 AND CALLER SUB PUSH2 0x449B JUMPI DUP5 DUP8 MSTORE PUSH1 0x11 DUP5 MSTORE PUSH1 0x40 DUP8 KECCAK256 SWAP2 DUP9 AND SWAP2 DUP3 PUSH1 0x0 MSTORE DUP5 MSTORE PUSH2 0x4286 PUSH1 0xFF PUSH1 0x40 PUSH1 0x0 KECCAK256 SLOAD AND PUSH2 0x540F JUMP JUMPDEST DUP2 DUP8 MSTORE PUSH1 0x6 DUP5 MSTORE PUSH2 0x4299 PUSH1 0x40 DUP9 KECCAK256 PUSH2 0x49B3 JUMP JUMPDEST SWAP8 DUP9 MLOAD ISZERO PUSH2 0x4456 JUMPI DUP2 SLOAD PUSH2 0x100 PUSH1 0x1 PUSH1 0xA8 SHL SUB NOT AND PUSH1 0x8 SWAP2 SWAP1 SWAP2 SHL PUSH2 0x100 PUSH1 0x1 PUSH1 0xA8 SHL SUB AND OR DUP2 SSTORE PUSH1 0xA DUP4 ADD DUP9 MLOAD PUSH1 0x1 PUSH1 0x1 PUSH1 0x40 SHL SUB DUP2 GT PUSH2 0x289F JUMPI PUSH2 0x42E9 DUP2 PUSH2 0x42E3 DUP5 SLOAD PUSH2 0x490E JUMP JUMPDEST DUP5 PUSH2 0x5109 JUMP JUMPDEST DUP6 PUSH1 0x1F DUP3 GT PUSH1 0x1 EQ PUSH2 0x43E6 JUMPI DUP2 SWAP1 DUP11 SWAP12 PUSH1 0x0 DUP1 MLOAD PUSH1 0x20 PUSH2 0x58F9 DUP4 CODECOPY DUP2 MLOAD SWAP2 MSTORE SWAP10 SWAP11 SWAP12 SWAP3 PUSH2 0x43DB JUMPI JUMPDEST POP POP PUSH1 0x0 NOT PUSH1 0x3 DUP4 SWAP1 SHL SHR NOT AND SWAP1 DUP10 SHL OR SWAP1 SSTORE JUMPDEST PUSH1 0x2 PUSH1 0xFF NOT DUP3 SLOAD AND OR SWAP1 SSTORE DUP5 DUP8 MSTORE PUSH1 0x11 DUP4 MSTORE PUSH1 0x40 DUP8 KECCAK256 SWAP1 PUSH1 0x0 MSTORE DUP3 MSTORE PUSH1 0xA0 PUSH2 0x4368 PUSH2 0x4362 PUSH1 0x2 PUSH1 0x40 PUSH1 0x0 KECCAK256 ADD SLOAD DUP8 DUP11 MSTORE PUSH1 0xB DUP7 MSTORE PUSH1 0x40 DUP11 KECCAK256 PUSH2 0x4B9D JUMP JUMPDEST POP PUSH2 0x546B JUMP JUMPDEST PUSH1 0x80 DUP2 ADD MLOAD DUP1 PUSH2 0x43BB JUMPI JUMPDEST POP ADD MLOAD DUP1 PUSH2 0x439B JUMPI JUMPDEST POP POP CALLER DUP6 MSTORE PUSH1 0x8 DUP2 MSTORE TIMESTAMP PUSH1 0x8 PUSH1 0x40 DUP8 KECCAK256 ADD SSTORE PUSH1 0x40 MLOAD PUSH1 0x2 DUP2 MSTORE LOG2 DUP2 SSTORE DUP1 RETURN JUMPDEST PUSH2 0x43B1 DUP2 PUSH1 0x6 SWAP3 PUSH1 0x4 DUP6 ADD SSTORE PUSH1 0x5 DUP5 ADD SLOAD PUSH2 0x525A JUMP JUMPDEST SWAP2 ADD SSTORE CODESIZE DUP1 PUSH2 0x437C JUMP JUMPDEST DUP1 PUSH2 0x43D0 SWAP2 PUSH1 0x5 DUP7 ADD SSTORE PUSH1 0x4 DUP6 ADD SLOAD SWAP1 PUSH2 0x525A JUMP JUMPDEST PUSH1 0x6 DUP5 ADD SSTORE CODESIZE PUSH2 0x4373 JUMP JUMPDEST ADD MLOAD SWAP1 POP CODESIZE DUP1 PUSH2 0x4311 JUMP JUMPDEST DUP3 DUP11 MSTORE DUP7 DUP11 KECCAK256 SWAP11 PUSH1 0x1F NOT DUP4 AND DUP12 JUMPDEST DUP2 DUP2 LT PUSH2 0x4441 JUMPI POP SWAP2 DUP11 SWAP12 SWAP13 SWAP2 DUP5 PUSH1 0x0 DUP1 MLOAD PUSH1 0x20 PUSH2 0x58F9 DUP4 CODECOPY DUP2 MLOAD SWAP2 MSTORE SWAP12 SWAP13 SWAP6 SWAP5 LT PUSH2 0x4428 JUMPI JUMPDEST POP POP POP DUP2 SHL ADD SWAP1 SSTORE PUSH2 0x4325 JUMP JUMPDEST ADD MLOAD PUSH1 0x0 NOT PUSH1 0xF8 DUP5 PUSH1 0x3 SHL AND SHR NOT AND SWAP1 SSTORE CODESIZE DUP1 DUP1 PUSH2 0x441B JUMP JUMPDEST DUP4 DUP4 ADD MLOAD DUP15 SSTORE SWAP13 DUP12 ADD SWAP13 SWAP3 DUP10 ADD SWAP3 DUP10 ADD PUSH2 0x43F4 JUMP JUMPDEST PUSH1 0x40 MLOAD PUSH3 0x461BCD PUSH1 0xE5 SHL DUP2 MSTORE PUSH1 0x4 DUP2 ADD DUP7 SWAP1 MSTORE PUSH1 0x1F PUSH1 0x24 DUP3 ADD MSTORE PUSH32 0x436F756E7465727061727479206D757374206861766520757365726E616D6500 PUSH1 0x44 DUP3 ADD MSTORE PUSH1 0x64 SWAP1 REVERT JUMPDEST PUSH1 0x40 MLOAD PUSH3 0x461BCD PUSH1 0xE5 SHL DUP2 MSTORE PUSH1 0x4 DUP2 ADD DUP6 SWAP1 MSTORE PUSH1 0x29 PUSH1 0x24 DUP3 ADD MSTORE PUSH32 0x4F6E6C79206F666665722063726561746F722063616E20616363657074206E65 PUSH1 0x44 DUP3 ADD MSTORE PUSH9 0x33B7BA34B0BA34B7B7 PUSH1 0xB9 SHL PUSH1 0x64 DUP3 ADD MSTORE PUSH1 0x84 SWAP1 REVERT JUMPDEST POP CALLVALUE PUSH2 0x4FD JUMPI DUP1 PUSH1 0x3 NOT CALLDATASIZE ADD SLT PUSH2 0x4FD JUMPI PUSH1 0x20 PUSH1 0x40 MLOAD DUP2 DUP2 MSTORE RETURN JUMPDEST POP CALLVALUE PUSH2 0x4FD JUMPI DUP1 PUSH1 0x3 NOT CALLDATASIZE ADD SLT PUSH2 0x4FD JUMPI PUSH1 0x20 PUSH1 0x40 MLOAD PUSH1 0x0 DUP1 MLOAD PUSH1 0x20 PUSH2 0x5939 DUP4 CODECOPY DUP2 MLOAD SWAP2 MSTORE DUP2 MSTORE RETURN JUMPDEST POP CALLVALUE PUSH2 0x4FD JUMPI PUSH1 0x20 CALLDATASIZE PUSH1 0x3 NOT ADD SLT PUSH2 0x4FD JUMPI PUSH1 0x40 PUSH1 0x4 CALLDATALOAD SWAP2 PUSH2 0x4556 PUSH2 0x4BB9 JUMP JUMPDEST DUP3 DUP2 MSTORE PUSH1 0xC PUSH1 0x20 MSTORE KECCAK256 SWAP1 PUSH2 0x456D DUP3 SLOAD SWAP2 DUP3 EQ PUSH2 0x55BC JUMP JUMPDEST PUSH1 0x1 DUP3 ADD SLOAD SWAP2 PUSH1 0x1 DUP1 PUSH1 0xA0 SHL SUB SWAP1 DUP2 PUSH1 0x2 DUP3 ADD SLOAD AND SWAP2 PUSH1 0x4 DUP3 ADD SLOAD AND SWAP2 PUSH1 0x6 DUP3 ADD SLOAD SWAP3 PUSH1 0x7 DUP4 ADD SLOAD PUSH2 0x45FB PUSH1 0x8 DUP6 ADD SLOAD SWAP3 PUSH1 0xFF PUSH1 0xA DUP8 ADD SLOAD AND SWAP5 PUSH2 0x45E8 PUSH1 0xFF PUSH1 0xC DUP10 ADD SLOAD AND SWAP8 PUSH2 0x45C4 PUSH1 0x5 PUSH2 0x2126 PUSH1 0x3 DUP5 ADD PUSH2 0x49B3 JUMP JUMPDEST SWAP3 PUSH1 0x40 MLOAD SWAP13 DUP14 SWAP13 DUP14 MSTORE PUSH1 0x20 DUP14 ADD MSTORE PUSH1 0x40 DUP13 ADD MSTORE PUSH2 0x160 DUP1 PUSH1 0x60 DUP14 ADD MSTORE DUP12 ADD SWAP1 PUSH2 0x4890 JUMP JUMPDEST SWAP2 PUSH1 0x80 DUP11 ADD MSTORE DUP9 DUP3 SUB PUSH1 0xA0 DUP11 ADD MSTORE PUSH2 0x4890 JUMP JUMPDEST SWAP5 PUSH1 0xC0 DUP8 ADD MSTORE PUSH1 0xE0 DUP7 ADD MSTORE PUSH2 0x100 DUP6 ADD MSTORE ISZERO ISZERO PUSH2 0x120 DUP5 ADD MSTORE ISZERO ISZERO PUSH2 0x140 DUP4 ADD MSTORE SUB SWAP1 RETURN JUMPDEST POP CALLVALUE PUSH2 0x4FD JUMPI PUSH1 0x20 CALLDATASIZE PUSH1 0x3 NOT ADD SLT PUSH2 0x4FD JUMPI PUSH1 0x4 CALLDATALOAD PUSH4 0xFFFFFFFF PUSH1 0xE0 SHL DUP2 AND DUP1 SWAP2 SUB PUSH2 0x19E3 JUMPI PUSH1 0x20 SWAP1 PUSH4 0x7965DB0B PUSH1 0xE0 SHL DUP2 EQ SWAP1 DUP2 ISZERO PUSH2 0x4666 JUMPI JUMPDEST POP PUSH1 0x40 MLOAD SWAP1 ISZERO ISZERO DUP2 MSTORE RETURN JUMPDEST PUSH4 0x1FFC9A7 PUSH1 0xE0 SHL EQ SWAP1 POP DUP3 PUSH2 0x465B JUMP JUMPDEST POP CALLVALUE PUSH2 0x4FD JUMPI PUSH2 0x4686 CALLDATASIZE PUSH2 0x4852 JUMP JUMPDEST PUSH2 0x468E PUSH2 0x514E JUMP JUMPDEST PUSH2 0x4696 PUSH2 0x52EF JUMP JUMPDEST DUP2 DUP4 MSTORE PUSH1 0xC PUSH1 0x20 MSTORE PUSH1 0x40 DUP4 KECCAK256 PUSH2 0x46AE DUP4 DUP3 SLOAD EQ PUSH2 0x55BC JUMP JUMPDEST PUSH2 0x46BE PUSH1 0xFF PUSH1 0xA DUP4 ADD SLOAD AND PUSH2 0x5697 JUMP JUMPDEST DUP2 DUP5 MSTORE PUSH1 0xD DUP2 ADD PUSH1 0x20 MSTORE PUSH1 0x40 DUP5 KECCAK256 SWAP1 PUSH1 0x1 DUP3 SLOAD SWAP3 PUSH2 0x46DD DUP5 ISZERO ISZERO PUSH2 0x588C JUMP JUMPDEST ADD DUP1 SLOAD SWAP3 PUSH1 0xFF DUP5 AND ISZERO PUSH2 0x480D JUMPI PUSH1 0xFF DUP5 PUSH1 0x8 SHR AND PUSH2 0x47D0 JUMPI PUSH3 0x15180 DUP2 ADD DUP1 SWAP2 GT PUSH2 0x919 JUMPI TIMESTAMP GT ISZERO PUSH2 0x478B JUMPI PUSH1 0xFF NOT SWAP1 SWAP3 AND SWAP1 SWAP2 SSTORE PUSH1 0x5 SLOAD PUSH1 0x9 SWAP2 SWAP1 SWAP2 ADD SLOAD DUP5 SWAP2 PUSH1 0x1 PUSH1 0x1 PUSH1 0xA0 SHL SUB AND DUP1 EXTCODESIZE ISZERO PUSH2 0x4F9 JUMPI PUSH1 0x44 DUP4 SWAP3 PUSH1 0x40 MLOAD SWAP5 DUP6 SWAP4 DUP5 SWAP3 PUSH4 0x5D655FB1 PUSH1 0xE0 SHL DUP5 MSTORE PUSH1 0x4 DUP5 ADD MSTORE DUP8 PUSH1 0x24 DUP5 ADD MSTORE GAS CALL DUP1 ISZERO PUSH2 0x4780 JUMPI PUSH2 0x476C JUMPI JUMPDEST POP PUSH1 0x64 EQ PUSH2 0x123F JUMPI POP PUSH1 0x1 DUP2 SSTORE DUP1 RETURN JUMPDEST SWAP3 PUSH2 0x4779 PUSH1 0x64 SWAP3 SWAP5 PUSH2 0x4948 JUMP JUMPDEST SWAP3 SWAP1 PUSH2 0x475C JUMP JUMPDEST PUSH1 0x40 MLOAD RETURNDATASIZE DUP7 DUP3 RETURNDATACOPY RETURNDATASIZE SWAP1 REVERT JUMPDEST PUSH1 0x40 MLOAD PUSH3 0x461BCD PUSH1 0xE5 SHL DUP2 MSTORE PUSH1 0x20 PUSH1 0x4 DUP3 ADD MSTORE PUSH1 0x17 PUSH1 0x24 DUP3 ADD MSTORE PUSH32 0x4469737075746520706572696F64206E6F74206F766572000000000000000000 PUSH1 0x44 DUP3 ADD MSTORE PUSH1 0x64 SWAP1 REVERT JUMPDEST PUSH1 0x40 MLOAD PUSH3 0x461BCD PUSH1 0xE5 SHL DUP2 MSTORE PUSH1 0x20 PUSH1 0x4 DUP3 ADD MSTORE PUSH1 0x15 PUSH1 0x24 DUP3 ADD MSTORE PUSH21 0x135A5B195CDD1BDB99481A5CC8191A5CDC1D5D1959 PUSH1 0x5A SHL PUSH1 0x44 DUP3 ADD MSTORE PUSH1 0x64 SWAP1 REVERT JUMPDEST PUSH1 0x40 MLOAD PUSH3 0x461BCD PUSH1 0xE5 SHL DUP2 MSTORE PUSH1 0x20 PUSH1 0x4 DUP3 ADD MSTORE PUSH1 0x1B PUSH1 0x24 DUP3 ADD MSTORE PUSH32 0x4D696C6573746F6E6520616C72656164792066696E616C697A65640000000000 PUSH1 0x44 DUP3 ADD MSTORE PUSH1 0x64 SWAP1 REVERT JUMPDEST PUSH1 0x40 SWAP1 PUSH1 0x3 NOT ADD SLT PUSH2 0x4868 JUMPI PUSH1 0x4 CALLDATALOAD SWAP1 PUSH1 0x24 CALLDATALOAD SWAP1 JUMP JUMPDEST PUSH1 0x0 DUP1 REVERT JUMPDEST PUSH1 0x0 JUMPDEST DUP4 DUP2 LT PUSH2 0x4880 JUMPI POP POP PUSH1 0x0 SWAP2 ADD MSTORE JUMP JUMPDEST DUP2 DUP2 ADD MLOAD DUP4 DUP3 ADD MSTORE PUSH1 0x20 ADD PUSH2 0x4870 JUMP JUMPDEST SWAP1 PUSH1 0x20 SWAP2 PUSH2 0x48A9 DUP2 MLOAD DUP1 SWAP3 DUP2 DUP6 MSTORE DUP6 DUP1 DUP7 ADD SWAP2 ADD PUSH2 0x486D JUMP JUMPDEST PUSH1 0x1F ADD PUSH1 0x1F NOT AND ADD ADD SWAP1 JUMP JUMPDEST PUSH1 0x24 CALLDATALOAD SWAP1 PUSH1 0x1 PUSH1 0x1 PUSH1 0xA0 SHL SUB DUP3 AND DUP3 SUB PUSH2 0x4868 JUMPI JUMP JUMPDEST PUSH1 0x4 CALLDATALOAD SWAP1 PUSH1 0x1 PUSH1 0x1 PUSH1 0xA0 SHL SUB DUP3 AND DUP3 SUB PUSH2 0x4868 JUMPI JUMP JUMPDEST SWAP2 DUP2 PUSH1 0x1F DUP5 ADD SLT ISZERO PUSH2 0x4868 JUMPI DUP3 CALLDATALOAD SWAP2 PUSH1 0x1 PUSH1 0x1 PUSH1 0x40 SHL SUB DUP4 GT PUSH2 0x4868 JUMPI PUSH1 0x20 DUP4 DUP2 DUP7 ADD SWAP6 ADD ADD GT PUSH2 0x4868 JUMPI JUMP JUMPDEST SWAP1 PUSH1 0x1 DUP3 DUP2 SHR SWAP3 AND DUP1 ISZERO PUSH2 0x493E JUMPI JUMPDEST PUSH1 0x20 DUP4 LT EQ PUSH2 0x4928 JUMPI JUMP JUMPDEST PUSH4 0x4E487B71 PUSH1 0xE0 SHL PUSH1 0x0 MSTORE PUSH1 0x22 PUSH1 0x4 MSTORE PUSH1 0x24 PUSH1 0x0 REVERT JUMPDEST SWAP2 PUSH1 0x7F AND SWAP2 PUSH2 0x491D JUMP JUMPDEST PUSH1 0x1 PUSH1 0x1 PUSH1 0x40 SHL SUB DUP2 GT PUSH2 0x124E JUMPI PUSH1 0x40 MSTORE JUMP JUMPDEST PUSH2 0x120 DUP2 ADD SWAP1 DUP2 LT PUSH1 0x1 PUSH1 0x1 PUSH1 0x40 SHL SUB DUP3 GT OR PUSH2 0x124E JUMPI PUSH1 0x40 MSTORE JUMP JUMPDEST PUSH1 0xC0 DUP2 ADD SWAP1 DUP2 LT PUSH1 0x1 PUSH1 0x1 PUSH1 0x40 SHL SUB DUP3 GT OR PUSH2 0x124E JUMPI PUSH1 0x40 MSTORE JUMP JUMPDEST SWAP1 PUSH1 0x1F DUP1 NOT SWAP2 ADD AND DUP2 ADD SWAP1 DUP2 LT PUSH1 0x1 PUSH1 0x1 PUSH1 0x40 SHL SUB DUP3 GT OR PUSH2 0x124E JUMPI PUSH1 0x40 MSTORE JUMP JUMPDEST SWAP1 PUSH1 0x40 MLOAD SWAP2 DUP3 PUSH1 0x0 DUP3 SLOAD SWAP3 PUSH2 0x49C7 DUP5 PUSH2 0x490E JUMP JUMPDEST SWAP1 DUP2 DUP5 MSTORE PUSH1 0x1 SWAP5 DUP6 DUP2 AND SWAP1 DUP2 PUSH1 0x0 EQ PUSH2 0x4A36 JUMPI POP PUSH1 0x1 EQ PUSH2 0x49F3 JUMPI JUMPDEST POP POP PUSH2 0x49F1 SWAP3 POP SUB DUP4 PUSH2 0x4992 JUMP JUMPDEST JUMP JUMPDEST SWAP1 SWAP4 SWAP2 POP PUSH1 0x0 MSTORE PUSH1 0x20 SWAP1 DUP2 PUSH1 0x0 KECCAK256 SWAP4 PUSH1 0x0 SWAP2 JUMPDEST DUP2 DUP4 LT PUSH2 0x4A1E JUMPI POP POP PUSH2 0x49F1 SWAP4 POP DUP3 ADD ADD CODESIZE DUP1 PUSH2 0x49E3 JUMP JUMPDEST DUP6 SLOAD DUP9 DUP5 ADD DUP6 ADD MSTORE SWAP5 DUP6 ADD SWAP5 DUP8 SWAP5 POP SWAP2 DUP4 ADD SWAP2 PUSH2 0x4A06 JUMP JUMPDEST SWAP2 POP POP PUSH2 0x49F1 SWAP5 POP PUSH1 0x20 SWAP3 POP PUSH1 0xFF NOT AND DUP3 DUP5 ADD MSTORE ISZERO ISZERO PUSH1 0x5 SHL DUP3 ADD ADD CODESIZE DUP1 PUSH2 0x49E3 JUMP JUMPDEST SWAP1 PUSH1 0x2 DUP3 LT ISZERO PUSH2 0x4A66 JUMPI MSTORE JUMP JUMPDEST PUSH4 0x4E487B71 PUSH1 0xE0 SHL PUSH1 0x0 MSTORE PUSH1 0x21 PUSH1 0x4 MSTORE PUSH1 0x24 PUSH1 0x0 REVERT JUMPDEST SWAP1 PUSH1 0x6 DUP3 LT ISZERO PUSH2 0x4A66 JUMPI MSTORE JUMP JUMPDEST SWAP14 SWAP13 SWAP12 SWAP8 SWAP2 SWAP7 SWAP1 DUP15 PUSH2 0x180 SWAP13 SWAP8 PUSH2 0x4AF9 SWAP8 PUSH2 0x4AD7 PUSH2 0x4ACC PUSH2 0x4B0E SWAP16 SWAP10 SWAP15 SWAP9 PUSH1 0xC0 SWAP7 DUP7 MSTORE PUSH1 0x1 DUP1 PUSH1 0xA0 SHL SUB DUP1 SWAP15 AND PUSH1 0x20 DUP8 ADD MSTORE PUSH2 0x1A0 DUP1 PUSH1 0x40 DUP9 ADD MSTORE DUP7 ADD SWAP1 PUSH2 0x4890 JUMP JUMPDEST SWAP14 PUSH1 0x60 DUP6 ADD SWAP1 PUSH2 0x4A59 JUMP JUMPDEST PUSH1 0x80 DUP4 ADD MSTORE PUSH1 0xA0 DUP3 ADD MSTORE ADD MSTORE PUSH1 0xE0 DUP14 ADD MSTORE PUSH2 0x100 DUP13 ADD MSTORE PUSH2 0x120 DUP12 ADD SWAP1 PUSH2 0x4A7C JUMP JUMPDEST AND PUSH2 0x140 DUP9 ADD MSTORE DUP7 DUP3 SUB PUSH2 0x160 DUP9 ADD MSTORE PUSH2 0x4890 JUMP JUMPDEST SWAP4 ADD MSTORE JUMP JUMPDEST PUSH1 0xF SLOAD DUP2 LT ISZERO PUSH2 0x3CD1 JUMPI PUSH1 0xF PUSH1 0x0 MSTORE PUSH32 0x8D1108E10BCB7C27DDDFC02ED9D693A074039D026CF4EA4240B40F7D581AC802 ADD SWAP1 PUSH1 0x0 SWAP1 JUMP JUMPDEST DUP1 SLOAD DUP3 LT ISZERO PUSH2 0x3CD1 JUMPI PUSH1 0x0 MSTORE PUSH1 0x20 PUSH1 0x0 KECCAK256 ADD SWAP1 PUSH1 0x0 SWAP1 JUMP JUMPDEST PUSH1 0x20 SWAP1 DUP2 PUSH1 0x40 DUP2 DUP4 ADD SWAP3 DUP3 DUP2 MSTORE DUP6 MLOAD DUP1 SWAP5 MSTORE ADD SWAP4 ADD SWAP2 PUSH1 0x0 JUMPDEST DUP3 DUP2 LT PUSH2 0x4B89 JUMPI POP POP POP POP SWAP1 JUMP JUMPDEST DUP4 MLOAD DUP6 MSTORE SWAP4 DUP2 ADD SWAP4 SWAP3 DUP2 ADD SWAP3 PUSH1 0x1 ADD PUSH2 0x4B7B JUMP JUMPDEST DUP1 SLOAD DUP3 LT ISZERO PUSH2 0x3CD1 JUMPI PUSH1 0x0 MSTORE PUSH1 0x6 PUSH1 0x20 PUSH1 0x0 KECCAK256 SWAP2 MUL ADD SWAP1 PUSH1 0x0 SWAP1 JUMP JUMPDEST CALLER PUSH1 0x0 SWAP1 DUP2 MSTORE PUSH32 0xBDC1BB5D8874CCF33EFBB49F1D9CA0A377C75766B37DD2EDBEEBEA1A2EB19D73 PUSH1 0x20 MSTORE PUSH1 0x40 SWAP1 KECCAK256 SLOAD PUSH1 0x0 DUP1 MLOAD PUSH1 0x20 PUSH2 0x5939 DUP4 CODECOPY DUP2 MLOAD SWAP2 MSTORE SWAP1 PUSH1 0xFF AND ISZERO PUSH2 0x4C03 JUMPI POP JUMP JUMPDEST PUSH1 0x44 SWAP1 PUSH1 0x40 MLOAD SWAP1 PUSH4 0xE2517D3F PUSH1 0xE0 SHL DUP3 MSTORE CALLER PUSH1 0x4 DUP4 ADD MSTORE PUSH1 0x24 DUP3 ADD MSTORE REVERT JUMPDEST CALLER PUSH1 0x0 SWAP1 DUP2 MSTORE PUSH32 0xB1EF985877D50D34E95C2AAF1C996731C63181754CD1CB73EEF00B96D479196E PUSH1 0x20 MSTORE PUSH1 0x40 SWAP1 KECCAK256 SLOAD PUSH1 0x0 DUP1 MLOAD PUSH1 0x20 PUSH2 0x5919 DUP4 CODECOPY DUP2 MLOAD SWAP2 MSTORE SWAP1 PUSH1 0xFF AND ISZERO PUSH2 0x4C03 JUMPI POP JUMP JUMPDEST CALLER PUSH1 0x0 SWAP1 DUP2 MSTORE PUSH32 0xE5EBFA64FCA8D502A8E50C1EDFFD2C31EF4DAD5B396E65D9F397FB028F74ABC5 PUSH1 0x20 MSTORE PUSH1 0x40 SWAP1 KECCAK256 SLOAD PUSH1 0x0 DUP1 MLOAD PUSH1 0x20 PUSH2 0x5959 DUP4 CODECOPY DUP2 MLOAD SWAP2 MSTORE SWAP1 PUSH1 0xFF AND ISZERO PUSH2 0x4C03 JUMPI POP JUMP JUMPDEST DUP1 PUSH1 0x0 MSTORE PUSH1 0x2 PUSH1 0x20 MSTORE PUSH1 0x40 PUSH1 0x0 KECCAK256 CALLER PUSH1 0x0 MSTORE PUSH1 0x20 MSTORE PUSH1 0xFF PUSH1 0x40 PUSH1 0x0 KECCAK256 SLOAD AND ISZERO PUSH2 0x4C03 JUMPI POP JUMP JUMPDEST PUSH1 0x1 PUSH1 0x1 PUSH1 0xA0 SHL SUB AND PUSH1 0x0 DUP2 DUP2 MSTORE PUSH32 0xBDC1BB5D8874CCF33EFBB49F1D9CA0A377C75766B37DD2EDBEEBEA1A2EB19D73 PUSH1 0x20 MSTORE PUSH1 0x40 DUP2 KECCAK256 SLOAD SWAP1 SWAP2 SWAP1 PUSH1 0x0 DUP1 MLOAD PUSH1 0x20 PUSH2 0x5939 DUP4 CODECOPY DUP2 MLOAD SWAP2 MSTORE SWAP1 PUSH1 0xFF AND PUSH2 0x4D65 JUMPI DUP1 DUP4 MSTORE PUSH1 0x2 PUSH1 0x20 MSTORE PUSH1 0x40 DUP4 KECCAK256 DUP3 DUP5 MSTORE PUSH1 0x20 MSTORE PUSH1 0x40 DUP4 KECCAK256 PUSH1 0x1 PUSH1 0xFF NOT DUP3 SLOAD AND OR SWAP1 SSTORE PUSH1 0x0 DUP1 MLOAD PUSH1 0x20 PUSH2 0x58D9 DUP4 CODECOPY DUP2 MLOAD SWAP2 MSTORE CALLER SWAP4 DUP1 LOG4 PUSH1 0x1 SWAP1 JUMP JUMPDEST POP POP SWAP1 JUMP JUMPDEST PUSH1 0x1 PUSH1 0x1 PUSH1 0xA0 SHL SUB AND PUSH1 0x0 DUP2 DUP2 MSTORE PUSH32 0xE5EBFA64FCA8D502A8E50C1EDFFD2C31EF4DAD5B396E65D9F397FB028F74ABC5 PUSH1 0x20 MSTORE PUSH1 0x40 DUP2 KECCAK256 SLOAD SWAP1 SWAP2 SWAP1 PUSH1 0x0 DUP1 MLOAD PUSH1 0x20 PUSH2 0x5959 DUP4 CODECOPY DUP2 MLOAD SWAP2 MSTORE SWAP1 PUSH1 0xFF AND PUSH2 0x4D65 JUMPI DUP1 DUP4 MSTORE PUSH1 0x2 PUSH1 0x20 MSTORE PUSH1 0x40 DUP4 KECCAK256 DUP3 DUP5 MSTORE PUSH1 0x20 MSTORE PUSH1 0x40 DUP4 KECCAK256 PUSH1 0x1 PUSH1 0xFF NOT DUP3 SLOAD AND OR SWAP1 SSTORE PUSH1 0x0 DUP1 MLOAD PUSH1 0x20 PUSH2 0x58D9 DUP4 CODECOPY DUP2 MLOAD SWAP2 MSTORE CALLER SWAP4 DUP1 LOG4 PUSH1 0x1 SWAP1 JUMP JUMPDEST PUSH1 0x1 PUSH1 0x1 PUSH1 0xA0 SHL SUB AND PUSH1 0x0 DUP2 DUP2 MSTORE PUSH32 0xB1EF985877D50D34E95C2AAF1C996731C63181754CD1CB73EEF00B96D479196E PUSH1 0x20 MSTORE PUSH1 0x40 DUP2 KECCAK256 SLOAD SWAP1 SWAP2 SWAP1 PUSH1 0x0 DUP1 MLOAD PUSH1 0x20 PUSH2 0x5919 DUP4 CODECOPY DUP2 MLOAD SWAP2 MSTORE SWAP1 PUSH1 0xFF AND PUSH2 0x4D65 JUMPI DUP1 DUP4 MSTORE PUSH1 0x2 PUSH1 0x20 MSTORE PUSH1 0x40 DUP4 KECCAK256 DUP3 DUP5 MSTORE PUSH1 0x20 MSTORE PUSH1 0x40 DUP4 KECCAK256 PUSH1 0x1 PUSH1 0xFF NOT DUP3 SLOAD AND OR SWAP1 SSTORE PUSH1 0x0 DUP1 MLOAD PUSH1 0x20 PUSH2 0x58D9 DUP4 CODECOPY DUP2 MLOAD SWAP2 MSTORE CALLER SWAP4 DUP1 LOG4 PUSH1 0x1 SWAP1 JUMP JUMPDEST SWAP1 PUSH1 0x0 SWAP2 DUP1 DUP4 MSTORE PUSH1 0x2 PUSH1 0x20 MSTORE PUSH1 0x40 DUP4 KECCAK256 SWAP2 PUSH1 0x1 DUP1 PUSH1 0xA0 SHL SUB AND SWAP2 DUP3 DUP5 MSTORE PUSH1 0x20 MSTORE PUSH1 0xFF PUSH1 0x40 DUP5 KECCAK256 SLOAD AND ISZERO PUSH1 0x0 EQ PUSH2 0x4D65 JUMPI DUP1 DUP4 MSTORE PUSH1 0x2 PUSH1 0x20 MSTORE PUSH1 0x40 DUP4 KECCAK256 DUP3 DUP5 MSTORE PUSH1 0x20 MSTORE PUSH1 0x40 DUP4 KECCAK256 PUSH1 0x1 PUSH1 0xFF NOT DUP3 SLOAD AND OR SWAP1 SSTORE PUSH1 0x0 DUP1 MLOAD PUSH1 0x20 PUSH2 0x58D9 DUP4 CODECOPY DUP2 MLOAD SWAP2 MSTORE CALLER SWAP4 DUP1 LOG4 PUSH1 0x1 SWAP1 JUMP JUMPDEST PUSH1 0x1 PUSH1 0x1 PUSH1 0xA0 SHL SUB AND PUSH1 0x0 DUP2 DUP2 MSTORE PUSH32 0xB1EF985877D50D34E95C2AAF1C996731C63181754CD1CB73EEF00B96D479196E PUSH1 0x20 MSTORE PUSH1 0x40 DUP2 KECCAK256 SLOAD SWAP1 SWAP2 SWAP1 PUSH1 0x0 DUP1 MLOAD PUSH1 0x20 PUSH2 0x5919 DUP4 CODECOPY DUP2 MLOAD SWAP2 MSTORE SWAP1 PUSH1 0xFF AND ISZERO PUSH2 0x4D65 JUMPI DUP1 DUP4 MSTORE PUSH1 0x2 PUSH1 0x20 MSTORE PUSH1 0x40 DUP4 KECCAK256 DUP3 DUP5 MSTORE PUSH1 0x20 MSTORE PUSH1 0x40 DUP4 KECCAK256 PUSH1 0xFF NOT DUP2 SLOAD AND SWAP1 SSTORE PUSH32 0xF6391F5C32D9C69D2A47EA670B442974B53935D1EDC7FD64EB21E047A839171B CALLER SWAP4 DUP1 LOG4 PUSH1 0x1 SWAP1 JUMP JUMPDEST SWAP1 PUSH1 0x0 SWAP2 DUP1 DUP4 MSTORE PUSH1 0x2 PUSH1 0x20 MSTORE PUSH1 0x40 DUP4 KECCAK256 SWAP2 PUSH1 0x1 DUP1 PUSH1 0xA0 SHL SUB AND SWAP2 DUP3 DUP5 MSTORE PUSH1 0x20 MSTORE PUSH1 0xFF PUSH1 0x40 DUP5 KECCAK256 SLOAD AND PUSH1 0x0 EQ PUSH2 0x4D65 JUMPI DUP1 DUP4 MSTORE PUSH1 0x2 PUSH1 0x20 MSTORE PUSH1 0x40 DUP4 KECCAK256 DUP3 DUP5 MSTORE PUSH1 0x20 MSTORE PUSH1 0x40 DUP4 KECCAK256 PUSH1 0xFF NOT DUP2 SLOAD AND SWAP1 SSTORE PUSH32 0xF6391F5C32D9C69D2A47EA670B442974B53935D1EDC7FD64EB21E047A839171B CALLER SWAP4 DUP1 LOG4 PUSH1 0x1 SWAP1 JUMP JUMPDEST PUSH1 0x3 SLOAD PUSH1 0x1 PUSH1 0x1 PUSH1 0xA0 SHL SUB AND CALLER SUB PUSH2 0x500C JUMPI JUMP JUMPDEST PUSH1 0x40 MLOAD PUSH4 0x118CDAA7 PUSH1 0xE0 SHL DUP2 MSTORE CALLER PUSH1 0x4 DUP3 ADD MSTORE PUSH1 0x24 SWAP1 REVERT JUMPDEST ISZERO PUSH2 0x502B JUMPI JUMP JUMPDEST PUSH1 0x40 MLOAD PUSH3 0x461BCD PUSH1 0xE5 SHL DUP2 MSTORE PUSH1 0x20 PUSH1 0x4 DUP3 ADD MSTORE PUSH1 0x11 PUSH1 0x24 DUP3 ADD MSTORE PUSH17 0x557365726E616D6520746F6F206C6F6E67 PUSH1 0x78 SHL PUSH1 0x44 DUP3 ADD MSTORE PUSH1 0x64 SWAP1 REVERT JUMPDEST ISZERO PUSH2 0x506B JUMPI JUMP JUMPDEST PUSH1 0x40 MLOAD PUSH3 0x461BCD PUSH1 0xE5 SHL DUP2 MSTORE PUSH1 0x20 PUSH1 0x4 DUP3 ADD MSTORE PUSH1 0x16 PUSH1 0x24 DUP3 ADD MSTORE PUSH22 0x2AB9B2B93730B6B29030B63932B0B23C903A30B5B2B7 PUSH1 0x51 SHL PUSH1 0x44 DUP3 ADD MSTORE PUSH1 0x64 SWAP1 REVERT JUMPDEST SWAP1 DUP1 PUSH1 0x20 SWAP4 SWAP3 DUP2 DUP5 MSTORE DUP5 DUP5 ADD CALLDATACOPY PUSH1 0x0 DUP3 DUP3 ADD DUP5 ADD MSTORE PUSH1 0x1F ADD PUSH1 0x1F NOT AND ADD ADD SWAP1 JUMP JUMPDEST DUP2 DUP2 LT PUSH2 0x50D5 JUMPI POP POP JUMP JUMPDEST PUSH1 0x0 DUP2 SSTORE PUSH1 0x1 ADD PUSH2 0x50CA JUMP JUMPDEST SWAP1 PUSH1 0x1F DUP2 GT PUSH2 0x50EE JUMPI POP POP JUMP JUMPDEST PUSH2 0x49F1 SWAP2 PUSH1 0x0 MSTORE PUSH1 0x1F PUSH1 0x20 PUSH1 0x0 KECCAK256 SWAP2 ADD PUSH1 0x5 SHR DUP2 ADD SWAP1 PUSH2 0x50CA JUMP JUMPDEST SWAP2 SWAP1 PUSH1 0x1F DUP2 GT PUSH2 0x5118 JUMPI POP POP POP JUMP JUMPDEST PUSH2 0x49F1 SWAP3 PUSH1 0x0 MSTORE PUSH1 0x20 PUSH1 0x0 KECCAK256 SWAP1 PUSH1 0x20 PUSH1 0x1F DUP5 ADD PUSH1 0x5 SHR DUP4 ADD SWAP4 LT PUSH2 0x5144 JUMPI JUMPDEST PUSH1 0x1F ADD PUSH1 0x5 SHR ADD SWAP1 PUSH2 0x50CA JUMP JUMPDEST SWAP1 SWAP2 POP DUP2 SWAP1 PUSH2 0x5137 JUMP JUMPDEST PUSH1 0xFF PUSH1 0x1 SLOAD AND PUSH2 0x515A JUMPI JUMP JUMPDEST PUSH1 0x40 MLOAD PUSH4 0xD93C0665 PUSH1 0xE0 SHL DUP2 MSTORE PUSH1 0x4 SWAP1 REVERT JUMPDEST ISZERO PUSH2 0x5173 JUMPI JUMP JUMPDEST PUSH1 0x40 MLOAD PUSH3 0x461BCD PUSH1 0xE5 SHL DUP2 MSTORE PUSH1 0x20 PUSH1 0x4 DUP3 ADD MSTORE PUSH1 0x19 PUSH1 0x24 DUP3 ADD MSTORE PUSH32 0x456E6572677920616D6F756E74206D757374206265203E203000000000000000 PUSH1 0x44 DUP3 ADD MSTORE PUSH1 0x64 SWAP1 REVERT JUMPDEST ISZERO PUSH2 0x51BF JUMPI JUMP JUMPDEST PUSH1 0x40 MLOAD PUSH3 0x461BCD PUSH1 0xE5 SHL DUP2 MSTORE PUSH1 0x20 PUSH1 0x4 DUP3 ADD MSTORE PUSH1 0x21 PUSH1 0x24 DUP3 ADD MSTORE PUSH32 0x456E642074696D65206D7573742062652061667465722073746172742074696D PUSH1 0x44 DUP3 ADD MSTORE PUSH1 0x65 PUSH1 0xF8 SHL PUSH1 0x64 DUP3 ADD MSTORE PUSH1 0x84 SWAP1 REVERT JUMPDEST ISZERO PUSH2 0x5215 JUMPI JUMP JUMPDEST PUSH1 0x40 MLOAD PUSH3 0x461BCD PUSH1 0xE5 SHL DUP2 MSTORE PUSH1 0x20 PUSH1 0x4 DUP3 ADD MSTORE PUSH1 0x1C PUSH1 0x24 DUP3 ADD MSTORE PUSH32 0x4D75737420726567697374657220757365726E616D6520666972737400000000 PUSH1 0x44 DUP3 ADD MSTORE PUSH1 0x64 SWAP1 REVERT JUMPDEST DUP2 DUP2 MUL SWAP3 SWAP2 DUP2 ISZERO SWAP2 DUP5 DIV EQ OR ISZERO PUSH2 0x526D JUMPI JUMP JUMPDEST PUSH4 0x4E487B71 PUSH1 0xE0 SHL PUSH1 0x0 MSTORE PUSH1 0x11 PUSH1 0x4 MSTORE PUSH1 0x24 PUSH1 0x0 REVERT JUMPDEST PUSH1 0xF SLOAD PUSH1 0x1 PUSH1 0x40 SHL DUP2 LT ISZERO PUSH2 0x124E JUMPI PUSH2 0x52A5 DUP2 PUSH1 0x1 PUSH2 0x52BC SWAP4 ADD PUSH1 0xF SSTORE PUSH2 0x4B13 JUMP JUMPDEST DUP2 SWAP4 SWAP2 SLOAD SWAP1 PUSH1 0x3 SHL SWAP2 DUP3 SHL SWAP2 PUSH1 0x0 NOT SWAP1 SHL NOT AND OR SWAP1 JUMP JUMPDEST SWAP1 SSTORE JUMP JUMPDEST DUP1 SLOAD SWAP1 PUSH1 0x1 PUSH1 0x40 SHL DUP3 LT ISZERO PUSH2 0x124E JUMPI DUP2 PUSH2 0x52A5 SWAP2 PUSH1 0x1 PUSH2 0x52BC SWAP5 ADD DUP2 SSTORE PUSH2 0x4B4A JUMP JUMPDEST SWAP2 SWAP1 DUP3 ADD DUP1 SWAP3 GT PUSH2 0x526D JUMPI JUMP JUMPDEST PUSH1 0x2 PUSH1 0x0 SLOAD EQ PUSH2 0x5300 JUMPI PUSH1 0x2 PUSH1 0x0 SSTORE JUMP JUMPDEST PUSH1 0x40 MLOAD PUSH4 0x3EE5AEB5 PUSH1 0xE0 SHL DUP2 MSTORE PUSH1 0x4 SWAP1 REVERT JUMPDEST PUSH1 0x0 NOT DUP2 EQ PUSH2 0x526D JUMPI PUSH1 0x1 ADD SWAP1 JUMP JUMPDEST SWAP1 PUSH2 0x532D PUSH1 0x9 SLOAD PUSH2 0x5312 JUMP JUMPDEST DUP1 PUSH1 0x9 SSTORE PUSH1 0x0 NOT NUMBER ADD SWAP1 NUMBER DUP3 GT PUSH2 0x526D JUMPI PUSH1 0x40 MLOAD SWAP3 PUSH1 0x20 DUP5 ADD SWAP5 PUSH1 0x1 PUSH1 0x1 PUSH1 0x60 SHL SUB NOT SWAP1 PUSH1 0x60 SHL AND DUP6 MSTORE TIMESTAMP PUSH1 0x34 DUP6 ADD MSTORE PUSH1 0x54 DUP5 ADD MSTORE PUSH1 0x74 DUP4 ADD MSTORE BLOCKHASH PUSH1 0x94 DUP3 ADD MSTORE PUSH1 0x94 DUP2 MSTORE PUSH2 0x537A DUP2 PUSH2 0x4977 JUMP JUMPDEST MLOAD SWAP1 KECCAK256 SWAP1 JUMP JUMPDEST ISZERO PUSH2 0x5387 JUMPI JUMP JUMPDEST PUSH1 0x40 MLOAD PUSH3 0x461BCD PUSH1 0xE5 SHL DUP2 MSTORE PUSH1 0x20 PUSH1 0x4 DUP3 ADD MSTORE PUSH1 0x14 PUSH1 0x24 DUP3 ADD MSTORE PUSH20 0x13D999995C88191BD95CC81B9BDD08195E1A5CDD PUSH1 0x62 SHL PUSH1 0x44 DUP3 ADD MSTORE PUSH1 0x64 SWAP1 REVERT JUMPDEST ISZERO PUSH2 0x53CA JUMPI JUMP JUMPDEST PUSH1 0x40 MLOAD PUSH3 0x461BCD PUSH1 0xE5 SHL DUP2 MSTORE PUSH1 0x20 PUSH1 0x4 DUP3 ADD MSTORE PUSH1 0x1B PUSH1 0x24 DUP3 ADD MSTORE PUSH32 0x4F66666572206973206E6F7420696E206E65676F74696174696F6E0000000000 PUSH1 0x44 DUP3 ADD MSTORE PUSH1 0x64 SWAP1 REVERT JUMPDEST ISZERO PUSH2 0x5416 JUMPI JUMP JUMPDEST PUSH1 0x40 MLOAD PUSH3 0x461BCD PUSH1 0xE5 SHL DUP2 MSTORE PUSH1 0x20 PUSH1 0x4 DUP3 ADD MSTORE PUSH1 0x27 PUSH1 0x24 DUP3 ADD MSTORE PUSH32 0x4E6F20616374697665206E65676F74696174696F6E207769746820636F756E74 PUSH1 0x44 DUP3 ADD MSTORE PUSH7 0x65727061727479 PUSH1 0xC8 SHL PUSH1 0x64 DUP3 ADD MSTORE PUSH1 0x84 SWAP1 REVERT JUMPDEST SWAP1 PUSH1 0x40 MLOAD PUSH2 0x5478 DUP2 PUSH2 0x4977 JUMP JUMPDEST DUP3 SLOAD PUSH1 0x1 PUSH1 0x1 PUSH1 0xA0 SHL SUB AND DUP2 MSTORE SWAP2 DUP3 SWAP1 PUSH1 0xA0 SWAP1 PUSH1 0x5 SWAP1 PUSH2 0x549A PUSH1 0x1 DUP3 ADD PUSH2 0x49B3 JUMP JUMPDEST PUSH1 0x20 DUP6 ADD MSTORE PUSH1 0x2 DUP2 ADD SLOAD PUSH1 0x40 DUP6 ADD MSTORE PUSH2 0x54B5 PUSH1 0x3 DUP3 ADD PUSH2 0x49B3 JUMP JUMPDEST PUSH1 0x60 DUP6 ADD MSTORE PUSH1 0x4 DUP2 ADD SLOAD PUSH1 0x80 DUP6 ADD MSTORE ADD SLOAD SWAP2 ADD MSTORE JUMP JUMPDEST ISZERO PUSH2 0x54D2 JUMPI JUMP JUMPDEST PUSH1 0x40 MLOAD PUSH3 0x461BCD PUSH1 0xE5 SHL DUP2 MSTORE PUSH1 0x20 PUSH1 0x4 DUP3 ADD MSTORE PUSH1 0x1E PUSH1 0x24 DUP3 ADD MSTORE PUSH32 0x43616E6E6F7420616772656520746F20796F7572206F776E206F666665720000 PUSH1 0x44 DUP3 ADD MSTORE PUSH1 0x64 SWAP1 REVERT JUMPDEST PUSH1 0x0 SWAP1 DUP1 DUP3 MSTORE PUSH1 0x10 PUSH1 0x20 MSTORE PUSH1 0x40 DUP3 KECCAK256 SLOAD PUSH1 0xF SLOAD SWAP1 PUSH1 0x0 NOT SWAP2 DUP3 DUP2 ADD SWAP1 DUP2 GT PUSH2 0x415 JUMPI DUP1 DUP3 SUB PUSH2 0x558A JUMPI JUMPDEST POP POP PUSH1 0xF SLOAD DUP1 ISZERO PUSH2 0x5576 JUMPI DUP2 ADD SWAP1 PUSH2 0x5558 DUP3 PUSH2 0x4B13 JUMP JUMPDEST SWAP1 SWAP2 DUP3 SLOAD SWAP2 PUSH1 0x3 SHL SHL NOT AND SWAP1 SSTORE PUSH1 0xF SSTORE DUP2 MSTORE PUSH1 0x10 PUSH1 0x20 MSTORE PUSH1 0x40 DUP2 KECCAK256 SSTORE JUMP JUMPDEST PUSH4 0x4E487B71 PUSH1 0xE0 SHL DUP5 MSTORE PUSH1 0x31 PUSH1 0x4 MSTORE PUSH1 0x24 DUP5 REVERT JUMPDEST PUSH2 0x5593 SWAP1 PUSH2 0x4B13 JUMP JUMPDEST SWAP1 SLOAD SWAP1 PUSH1 0x3 SHL SHR DUP1 PUSH2 0x55A7 PUSH2 0x52A5 DUP5 PUSH2 0x4B13 JUMP JUMPDEST SWAP1 SSTORE DUP5 MSTORE PUSH1 0x10 PUSH1 0x20 MSTORE PUSH1 0x40 DUP5 KECCAK256 SSTORE CODESIZE DUP1 PUSH2 0x5541 JUMP JUMPDEST ISZERO PUSH2 0x55C3 JUMPI JUMP JUMPDEST PUSH1 0x40 MLOAD PUSH3 0x461BCD PUSH1 0xE5 SHL DUP2 MSTORE PUSH1 0x20 PUSH1 0x4 DUP3 ADD MSTORE PUSH1 0x18 PUSH1 0x24 DUP3 ADD MSTORE PUSH32 0x41677265656D656E7420646F6573206E6F742065786973740000000000000000 PUSH1 0x44 DUP3 ADD MSTORE PUSH1 0x64 SWAP1 REVERT JUMPDEST ISZERO PUSH2 0x560F JUMPI JUMP JUMPDEST PUSH1 0x40 MLOAD PUSH3 0x461BCD PUSH1 0xE5 SHL DUP2 MSTORE PUSH1 0x20 PUSH1 0x4 DUP3 ADD MSTORE PUSH1 0x14 PUSH1 0x24 DUP3 ADD MSTORE PUSH20 0x41677265656D656E74206E6F7420616374697665 PUSH1 0x60 SHL PUSH1 0x44 DUP3 ADD MSTORE PUSH1 0x64 SWAP1 REVERT JUMPDEST ISZERO PUSH2 0x5652 JUMPI JUMP JUMPDEST PUSH1 0x40 MLOAD PUSH3 0x461BCD PUSH1 0xE5 SHL DUP2 MSTORE PUSH1 0x20 PUSH1 0x4 DUP3 ADD MSTORE PUSH1 0x18 PUSH1 0x24 DUP3 ADD MSTORE PUSH32 0x41677265656D656E7420616C72656164792066756E6465640000000000000000 PUSH1 0x44 DUP3 ADD MSTORE PUSH1 0x64 SWAP1 REVERT JUMPDEST ISZERO PUSH2 0x569E JUMPI JUMP JUMPDEST PUSH1 0x40 MLOAD PUSH3 0x461BCD PUSH1 0xE5 SHL DUP2 MSTORE PUSH1 0x20 PUSH1 0x4 DUP3 ADD MSTORE PUSH1 0x17 PUSH1 0x24 DUP3 ADD MSTORE PUSH32 0x41677265656D656E74206973206E6F7420616374697665000000000000000000 PUSH1 0x44 DUP3 ADD MSTORE PUSH1 0x64 SWAP1 REVERT JUMPDEST PUSH1 0x0 SWAP1 DUP1 DUP3 MSTORE PUSH1 0xC PUSH1 0x20 MSTORE PUSH1 0x40 DUP3 KECCAK256 SWAP1 PUSH1 0x1 DUP3 ADD SWAP2 DUP3 SLOAD DUP5 MSTORE PUSH1 0xA PUSH1 0x20 MSTORE PUSH1 0x40 DUP5 KECCAK256 PUSH1 0x4 PUSH1 0x9 PUSH1 0xA DUP5 ADD SWAP3 PUSH1 0xFF NOT SWAP4 DUP5 DUP2 SLOAD AND SWAP1 SSTORE ADD SWAP2 DUP3 SLOAD AND OR SWAP1 SSTORE PUSH1 0x1 DUP1 PUSH1 0xA0 SHL SUB DUP1 PUSH1 0x2 DUP4 ADD SLOAD AND DUP6 MSTORE PUSH1 0x8 PUSH1 0x20 MSTORE PUSH1 0x40 DUP6 KECCAK256 SWAP1 PUSH1 0x4 DUP4 ADD SLOAD AND DUP6 MSTORE PUSH1 0x40 DUP6 KECCAK256 SWAP2 PUSH1 0x2 DUP3 ADD DUP1 SLOAD SWAP1 PUSH1 0x1 DUP3 ADD DUP1 SWAP3 GT PUSH2 0x27FB JUMPI SSTORE PUSH1 0x2 DUP4 ADD DUP1 SLOAD SWAP1 PUSH1 0x1 DUP3 ADD DUP1 SWAP3 GT PUSH2 0x27FB JUMPI PUSH1 0x0 DUP1 MLOAD PUSH1 0x20 PUSH2 0x58F9 DUP4 CODECOPY DUP2 MLOAD SWAP2 MSTORE SWAP7 SWAP5 SWAP3 PUSH1 0x20 SWAP7 SWAP5 SWAP3 PUSH1 0x7 SWAP3 SSTORE PUSH1 0x6 DUP2 ADD DUP1 SLOAD PUSH2 0x579C PUSH1 0x6 DUP7 ADD SWAP2 DUP3 SLOAD PUSH2 0x52E2 JUMP JUMPDEST SWAP1 SSTORE SLOAD PUSH2 0x57AE PUSH1 0x6 DUP7 ADD SWAP2 DUP3 SLOAD PUSH2 0x52E2 JUMP JUMPDEST SWAP1 SSTORE ADD DUP1 SLOAD PUSH2 0x57C2 PUSH1 0x7 DUP5 ADD SWAP2 DUP3 SLOAD PUSH2 0x52E2 JUMP JUMPDEST SWAP1 SSTORE SLOAD PUSH2 0x57D4 PUSH1 0x7 DUP5 ADD SWAP2 DUP3 SLOAD PUSH2 0x52E2 JUMP JUMPDEST SWAP1 SSTORE PUSH1 0x8 TIMESTAMP SWAP2 ADD SSTORE PUSH1 0x8 TIMESTAMP SWAP2 ADD SSTORE PUSH32 0xF19F756FF352A18AC12DE7527FE3ED4E8941B69EAEB0F360DFCA534224291F64 PUSH1 0x40 MLOAD SWAP6 DUP1 LOG2 SLOAD SWAP3 PUSH1 0x4 DUP2 MSTORE LOG2 JUMP JUMPDEST SWAP1 PUSH1 0x40 MLOAD SWAP2 DUP3 DUP2 SLOAD SWAP2 DUP3 DUP3 MSTORE PUSH1 0x20 SWAP3 DUP4 DUP4 ADD SWAP2 PUSH1 0x0 MSTORE DUP4 PUSH1 0x0 KECCAK256 SWAP4 PUSH1 0x0 SWAP1 JUMPDEST DUP3 DUP3 LT PUSH2 0x5847 JUMPI POP POP POP PUSH2 0x49F1 SWAP3 POP SUB DUP4 PUSH2 0x4992 JUMP JUMPDEST DUP6 SLOAD DUP5 MSTORE PUSH1 0x1 SWAP6 DUP7 ADD SWAP6 DUP9 SWAP6 POP SWAP4 DUP2 ADD SWAP4 SWAP1 SWAP2 ADD SWAP1 PUSH2 0x5831 JUMP JUMPDEST PUSH1 0x1 PUSH1 0x1 PUSH1 0x40 SHL SUB DUP2 GT PUSH2 0x124E JUMPI PUSH1 0x5 SHL PUSH1 0x20 ADD SWAP1 JUMP JUMPDEST DUP1 MLOAD DUP3 LT ISZERO PUSH2 0x3CD1 JUMPI PUSH1 0x20 SWAP2 PUSH1 0x5 SHL ADD ADD SWAP1 JUMP JUMPDEST ISZERO PUSH2 0x5893 JUMPI JUMP JUMPDEST PUSH1 0x40 MLOAD PUSH3 0x461BCD PUSH1 0xE5 SHL DUP2 MSTORE PUSH1 0x20 PUSH1 0x4 DUP3 ADD MSTORE PUSH1 0x1A PUSH1 0x24 DUP3 ADD MSTORE PUSH32 0x4D696C6573746F6E65206E6F74207265706F7274656420796574000000000000 PUSH1 0x44 DUP3 ADD MSTORE PUSH1 0x64 SWAP1 REVERT INVALID 0x2F DUP8 DUP9 GT PUSH31 0x7EFF1D82E926EC794901D17C78024A50270940304540A733656F0DF5FBB891 DUP5 SWAP2 0xC6 PUSH4 0x48A8751A LOG1 0xDE 0x27 DUP6 POP 0xED 0xC PUSH14 0xDE1B2026A7873D90411645E471F3 0xD5 PC JUMP 0xE4 SDIV DUP15 0xD0 PUSH15 0xE057D79ADA615F65CDF5F9EE88181B SWAP2 TIMESTAMP 0x25 ADDMOD DUP16 DUP4 0x4F EQ DUP3 CODECOPY GT CALLCODE 0xDA SHL 0x49 CREATE GASLIMIT LOG0 SWAP3 SWAP11 PUSH1 0xB8 0xC1 CALLCODE 0xA7 0xFC DUP13 MOD 0xC7 0x28 0x4C LOG3 0xE8 0xAB 0x4E NOT GASPRICE ADDMOD 0xC8 LOG4 SWAP9 SMOD KECCAK256 0x5C 0xE4 0xD3 SSTORE MULMOD 0x2E CREATE2 0xA8 LOG1 DUP16 JUMP 0xE8 SWAP2 EXTCODECOPY DELEGATECALL LOG2 ADD 0xFB 0xE2 DUP8 DUP3 JUMPDEST MULMOD JUMP SWAP4 0xC2 OR PUSH22 0xA2646970667358221220804233E2B48C7A7EA1712F27 DUP14 0x1F COINBASE 0x4C 0xD9 0x22 GASPRICE 0xAF SWAP15 0xC0 MOD 0xAA 0xDD 0xC9 0xEB 0xD7 PUSH18 0xB54FEE64736F6C6343000814003360803461 STOP 0xF8 JUMPI PUSH1 0x1F PUSH2 0x1125 CODESIZE DUP2 SWAP1 SUB SWAP2 DUP3 ADD PUSH1 0x1F NOT AND DUP4 ADD SWAP2 PUSH1 0x1 PUSH1 0x1 PUSH1 0x40 SHL SUB DUP4 GT DUP5 DUP5 LT OR PUSH2 0xFD JUMPI DUP1 DUP5 SWAP3 PUSH1 0x20 SWAP5 PUSH1 0x40 MSTORE DUP4 CODECOPY DUP2 ADD SUB SLT PUSH2 0xF8 JUMPI MLOAD PUSH1 0x1 PUSH1 0x1 PUSH1 0xA0 SHL SUB SWAP1 DUP2 DUP2 AND SWAP1 DUP2 SWAP1 SUB PUSH2 0xF8 JUMPI PUSH1 0x1 PUSH1 0x0 SSTORE PUSH1 0x1 SLOAD CALLER ISZERO PUSH2 0xDF JUMPI PUSH1 0x1 PUSH1 0x1 PUSH1 0xA8 SHL SUB NOT DUP2 AND CALLER PUSH1 0x8 DUP2 DUP2 SHL PUSH2 0x100 PUSH1 0x1 PUSH1 0xA8 SHL SUB AND SWAP3 SWAP1 SWAP3 OR PUSH1 0x1 SSTORE PUSH1 0x40 MLOAD SWAP5 SWAP1 SWAP3 SWAP1 SWAP2 SHR AND PUSH32 0x8BE0079C531659141344CD1FD0A4F28419497F9722A3DAAFE3B4186F6B6457E0 PUSH1 0x0 DUP1 LOG3 PUSH1 0x0 PUSH1 0x3 SSTORE PUSH1 0x1 DUP1 PUSH1 0xA0 SHL SUB NOT SWAP1 DUP2 PUSH1 0x2 SLOAD AND OR PUSH1 0x2 SSTORE CALLER SWAP1 PUSH1 0x5 SLOAD AND OR PUSH1 0x5 SSTORE PUSH2 0x1011 SWAP1 DUP2 PUSH2 0x114 DUP3 CODECOPY RETURN JUMPDEST PUSH1 0x40 MLOAD PUSH4 0x1E4FBDF7 PUSH1 0xE0 SHL DUP2 MSTORE PUSH1 0x0 PUSH1 0x4 DUP3 ADD MSTORE PUSH1 0x24 SWAP1 REVERT JUMPDEST PUSH1 0x0 DUP1 REVERT JUMPDEST PUSH4 0x4E487B71 PUSH1 0xE0 SHL PUSH1 0x0 MSTORE PUSH1 0x41 PUSH1 0x4 MSTORE PUSH1 0x24 PUSH1 0x0 REVERT INVALID PUSH1 0x80 PUSH1 0x40 DUP2 DUP2 MSTORE PUSH1 0x4 DUP1 CALLDATASIZE LT ISZERO PUSH2 0x15 JUMPI PUSH1 0x0 DUP1 REVERT JUMPDEST PUSH1 0x0 SWAP3 DUP4 CALLDATALOAD PUSH1 0xE0 SHR SWAP1 DUP2 PUSH4 0x2D83549C EQ PUSH2 0xD3B JUMPI POP DUP1 PUSH4 0x3F4BA83A EQ PUSH2 0xCD2 JUMPI DUP1 PUSH4 0x4EC7FB81 EQ PUSH2 0xCA9 JUMPI DUP1 PUSH4 0x51A89CE8 EQ PUSH2 0xC2D JUMPI DUP1 PUSH4 0x5C975ABB EQ PUSH2 0xC09 JUMPI DUP1 PUSH4 0x5D655FB1 EQ PUSH2 0x8F4 JUMPI DUP1 PUSH4 0x6789F9CB EQ PUSH2 0x75B JUMPI DUP1 PUSH4 0x6C459681 EQ PUSH2 0x71C JUMPI DUP1 PUSH4 0x715018A6 EQ PUSH2 0x6BB JUMPI DUP1 PUSH4 0x8456CB59 EQ PUSH2 0x661 JUMPI DUP1 PUSH4 0x8DA5CB5B EQ PUSH2 0x634 JUMPI DUP1 PUSH4 0xB9A7579B EQ PUSH2 0x4CE JUMPI DUP1 PUSH4 0xCCBAE5F6 EQ PUSH2 0x337 JUMPI DUP1 PUSH4 0xD1BB5CF1 EQ PUSH2 0x30A JUMPI DUP1 PUSH4 0xE63EA408 EQ PUSH2 0x20A JUMPI DUP1 PUSH4 0xF2FDE38B EQ PUSH2 0x16E JUMPI PUSH4 0xF49A52AA EQ PUSH2 0xDE JUMPI PUSH1 0x0 DUP1 REVERT JUMPDEST CALLVALUE PUSH2 0x16A JUMPI PUSH1 0x20 CALLDATASIZE PUSH1 0x3 NOT ADD SLT PUSH2 0x16A JUMPI PUSH2 0xF7 PUSH2 0xDD8 JUMP JUMPDEST PUSH2 0xFF PUSH2 0xE04 JUMP JUMPDEST PUSH1 0x1 PUSH1 0x1 PUSH1 0xA0 SHL SUB AND SWAP2 DUP3 ISZERO PUSH2 0x127 JUMPI POP POP PUSH1 0x1 PUSH1 0x1 PUSH1 0x60 SHL SUB PUSH1 0xA0 SHL PUSH1 0x5 SLOAD AND OR PUSH1 0x5 SSTORE DUP1 RETURN JUMPDEST SWAP1 PUSH1 0x20 PUSH1 0x64 SWAP3 MLOAD SWAP2 PUSH3 0x461BCD PUSH1 0xE5 SHL DUP4 MSTORE DUP3 ADD MSTORE PUSH1 0x1B PUSH1 0x24 DUP3 ADD MSTORE PUSH32 0x496E76616C6964206D61726B6574706C61636520616464726573730000000000 PUSH1 0x44 DUP3 ADD MSTORE REVERT JUMPDEST DUP3 DUP1 REVERT JUMPDEST POP CALLVALUE PUSH2 0x16A JUMPI PUSH1 0x20 CALLDATASIZE PUSH1 0x3 NOT ADD SLT PUSH2 0x16A JUMPI PUSH2 0x188 PUSH2 0xDD8 JUMP JUMPDEST PUSH2 0x190 PUSH2 0xE04 JUMP JUMPDEST PUSH1 0x1 PUSH1 0x1 PUSH1 0xA0 SHL SUB DUP2 DUP2 AND SWAP4 SWAP1 SWAP3 SWAP1 DUP5 ISZERO PUSH2 0x1F4 JUMPI POP POP PUSH1 0x1 DUP1 SLOAD PUSH2 0x100 PUSH1 0x1 PUSH1 0xA8 SHL SUB NOT DUP2 AND PUSH1 0x8 SWAP4 DUP5 SHL PUSH2 0x100 PUSH1 0x1 PUSH1 0xA8 SHL SUB AND OR SWAP1 SWAP2 SSTORE SWAP1 SHR AND PUSH32 0x8BE0079C531659141344CD1FD0A4F28419497F9722A3DAAFE3B4186F6B6457E0 DUP4 DUP1 LOG3 DUP1 RETURN JUMPDEST MLOAD PUSH4 0x1E4FBDF7 PUSH1 0xE0 SHL DUP2 MSTORE SWAP1 DUP2 ADD DUP6 SWAP1 MSTORE PUSH1 0x24 SWAP1 REVERT JUMPDEST POP CALLVALUE PUSH2 0x16A JUMPI PUSH1 0x60 CALLDATASIZE PUSH1 0x3 NOT ADD SLT PUSH2 0x16A JUMPI PUSH2 0x224 PUSH2 0xDD8 JUMP JUMPDEST PUSH2 0x22C PUSH2 0xDEE JUMP JUMPDEST PUSH2 0x234 PUSH2 0xE04 JUMP JUMPDEST PUSH1 0x1 PUSH1 0x1 PUSH1 0xA0 SHL SUB DUP2 DUP2 AND ISZERO PUSH2 0x2C7 JUMPI DUP5 MLOAD PUSH4 0xA9059CBB PUSH1 0xE0 SHL DUP2 MSTORE PUSH1 0x1 PUSH1 0x1 PUSH1 0xA0 SHL SUB SWAP3 SWAP1 SWAP3 AND SWAP4 DUP3 ADD SWAP4 DUP5 MSTORE PUSH1 0x44 CALLDATALOAD PUSH1 0x20 DUP1 DUP7 ADD SWAP2 SWAP1 SWAP2 MSTORE SWAP2 SWAP5 SWAP4 SWAP2 SWAP3 DUP6 SWAP3 DUP4 SWAP1 SUB PUSH1 0x40 ADD SWAP2 DUP4 SWAP2 DUP9 SWAP2 AND GAS CALL SWAP1 DUP2 ISZERO PUSH2 0x2BE JUMPI POP PUSH2 0x293 JUMPI POP DUP1 RETURN JUMPDEST PUSH2 0x2B3 SWAP1 PUSH1 0x20 RETURNDATASIZE DUP2 GT PUSH2 0x2B7 JUMPI JUMPDEST PUSH2 0x2AB DUP2 DUP4 PUSH2 0xEC0 JUMP JUMPDEST DUP2 ADD SWAP1 PUSH2 0xF7F JUMP JUMPDEST POP DUP1 RETURN JUMPDEST POP RETURNDATASIZE PUSH2 0x2A1 JUMP JUMPDEST MLOAD RETURNDATASIZE DUP5 DUP3 RETURNDATACOPY RETURNDATASIZE SWAP1 REVERT JUMPDEST DUP5 MLOAD PUSH3 0x461BCD PUSH1 0xE5 SHL DUP2 MSTORE PUSH1 0x20 DUP2 DUP7 ADD MSTORE PUSH1 0x1F PUSH1 0x24 DUP3 ADD MSTORE PUSH32 0x43616E6E6F7420776974686472617720746F207A65726F206164647265737300 PUSH1 0x44 DUP3 ADD MSTORE PUSH1 0x64 SWAP1 REVERT JUMPDEST POP POP CALLVALUE PUSH2 0x333 JUMPI DUP2 PUSH1 0x3 NOT CALLDATASIZE ADD SLT PUSH2 0x333 JUMPI PUSH1 0x5 SLOAD SWAP1 MLOAD PUSH1 0x1 PUSH1 0x1 PUSH1 0xA0 SHL SUB SWAP1 SWAP2 AND DUP2 MSTORE PUSH1 0x20 SWAP1 RETURN JUMPDEST POP DUP1 REVERT JUMPDEST POP SWAP2 CALLVALUE PUSH2 0x4CB JUMPI PUSH1 0x80 CALLDATASIZE PUSH1 0x3 NOT ADD SLT PUSH2 0x4CB JUMPI PUSH2 0x352 PUSH2 0xDD8 JUMP JUMPDEST SWAP3 PUSH2 0x35B PUSH2 0xDEE JUMP JUMPDEST SWAP4 PUSH1 0x44 CALLDATALOAD PUSH1 0x64 CALLDATALOAD SWAP6 PUSH1 0x1 DUP1 PUSH1 0xA0 SHL SUB PUSH2 0x379 DUP2 PUSH1 0x5 SLOAD AND CALLER EQ PUSH2 0xE33 JUMP JUMPDEST PUSH2 0x381 PUSH2 0xE7F JUMP JUMPDEST PUSH2 0x389 PUSH2 0xE9D JUMP JUMPDEST PUSH1 0x3 SLOAD PUSH1 0x0 NOT SWAP4 SWAP1 DUP5 DUP2 EQ PUSH2 0x4B8 JUMPI PUSH1 0x1 ADD SWAP4 DUP5 PUSH1 0x3 SSTORE NUMBER ADD NUMBER DUP2 GT PUSH2 0x4B8 JUMPI DUP9 MLOAD SWAP5 PUSH1 0x20 DUP7 ADD SWAP7 DUP5 DUP2 AND SWAP5 PUSH1 0x1 PUSH1 0x1 PUSH1 0x60 SHL SUB NOT DUP1 SWAP3 PUSH1 0x60 SHL AND DUP10 MSTORE DUP7 AND SWAP6 PUSH1 0x60 SHL AND PUSH1 0x34 DUP8 ADD MSTORE TIMESTAMP PUSH1 0x48 DUP8 ADD MSTORE DUP3 PUSH1 0x68 DUP8 ADD MSTORE PUSH1 0x88 DUP7 ADD MSTORE BLOCKHASH PUSH1 0xA8 DUP6 ADD MSTORE PUSH1 0xA8 DUP5 MSTORE PUSH1 0xE0 DUP5 ADD SWAP5 DUP5 DUP7 LT PUSH8 0xFFFFFFFFFFFFFFFF DUP8 GT OR PUSH2 0x4A5 JUMPI SWAP1 DUP10 SWAP5 SWAP4 SWAP3 SWAP2 DUP7 DUP11 MSTORE DUP5 MLOAD SWAP1 KECCAK256 SWAP10 DUP11 SWAP8 DUP9 DUP11 MSTORE DUP1 PUSH1 0x20 MSTORE DUP11 DUP11 KECCAK256 SWAP3 DUP10 DUP5 SSTORE PUSH1 0x1 DUP5 ADD PUSH1 0x1 PUSH1 0x1 PUSH1 0x60 SHL SUB PUSH1 0xA0 SHL SWAP1 DUP7 DUP3 DUP3 SLOAD AND OR SWAP1 SSTORE DUP7 PUSH1 0x2 DUP7 ADD SWAP2 DUP3 SLOAD AND OR SWAP1 SSTORE PUSH1 0x3 DUP5 ADD SSTORE DUP3 ADD SSTORE DUP8 PUSH1 0x5 DUP3 ADD SSTORE TIMESTAMP PUSH1 0x6 DUP3 ADD SSTORE PUSH1 0x7 ADD PUSH1 0xFF NOT DUP2 SLOAD AND SWAP1 SSTORE DUP5 MSTORE PUSH2 0x100 DUP3 ADD MSTORE PUSH2 0x120 ADD MSTORE PUSH1 0x60 PUSH32 0xDD968C277D9DC6B36B6EC2B638324C3D937882C64CA109440BC050EBF26CB07 SWAP2 LOG2 PUSH1 0x1 SWAP1 SSTORE MLOAD SWAP1 DUP2 MSTORE PUSH1 0x20 SWAP1 RETURN JUMPDEST PUSH4 0x4E487B71 PUSH1 0xE0 SHL DUP9 MSTORE PUSH1 0x41 DUP8 MSTORE PUSH1 0x24 DUP9 REVERT JUMPDEST PUSH4 0x4E487B71 PUSH1 0xE0 SHL DUP9 MSTORE PUSH1 0x11 DUP8 MSTORE PUSH1 0x24 DUP9 REVERT JUMPDEST DUP1 REVERT JUMPDEST POP CALLVALUE PUSH2 0x16A JUMPI PUSH1 0x20 DUP1 PUSH1 0x3 NOT CALLDATASIZE ADD SLT PUSH2 0x630 JUMPI PUSH1 0x5 SLOAD DUP3 CALLDATALOAD SWAP3 PUSH1 0x1 PUSH1 0x1 PUSH1 0xA0 SHL SUB SWAP2 PUSH2 0x4FD SWAP1 DUP4 AND CALLER EQ PUSH2 0xE33 JUMP JUMPDEST PUSH2 0x505 PUSH2 0xE7F JUMP JUMPDEST PUSH2 0x50D PUSH2 0xE9D JUMP JUMPDEST DUP4 DUP7 MSTORE DUP1 DUP4 MSTORE DUP5 DUP7 KECCAK256 SWAP2 PUSH2 0x523 DUP6 DUP5 SLOAD EQ PUSH2 0xEF8 JUMP JUMPDEST PUSH1 0x7 DUP4 ADD SWAP3 DUP4 SLOAD SWAP4 PUSH2 0x537 PUSH1 0xFF DUP7 AND PUSH2 0xF3C JUMP JUMPDEST DUP4 DUP3 ADD SLOAD PUSH1 0x5 DUP4 ADD SLOAD SWAP2 DUP3 DUP3 SUB SWAP7 DUP3 DUP9 GT PUSH2 0x61D JUMPI PUSH1 0xFF NOT AND SWAP1 SSTORE DUP10 SWAP4 SWAP3 SWAP2 SWAP1 SUB PUSH2 0x565 JUMPI JUMPDEST DUP3 PUSH1 0x1 DUP2 SSTORE DUP1 RETURN JUMPDEST PUSH1 0x2 SLOAD PUSH1 0x1 SWAP2 SWAP1 SWAP2 ADD SLOAD DUP9 MLOAD PUSH4 0xA9059CBB PUSH1 0xE0 SHL DUP2 MSTORE SWAP1 DUP4 AND PUSH1 0x1 PUSH1 0x1 PUSH1 0xA0 SHL SUB AND SWAP5 DUP2 ADD SWAP5 DUP6 MSTORE PUSH1 0x20 DUP6 ADD DUP7 SWAP1 MSTORE SWAP4 DUP7 SWAP4 DUP6 SWAP4 SWAP1 SWAP3 AND SWAP2 DUP4 SWAP2 DUP3 SWAP1 PUSH1 0x40 ADD SUB SWAP3 GAS CALL SWAP1 DUP2 ISZERO PUSH2 0x613 JUMPI PUSH32 0x21CABC2FFF910E5AFD1E2BCB22FF2B165A41AB0AFBAF364F07AAF2F7787FB908 SWAP5 SWAP6 SWAP2 PUSH2 0x5E4 SWAP2 DUP9 SWAP2 PUSH2 0x5F6 JUMPI JUMPDEST POP PUSH2 0xF97 JUMP JUMPDEST MLOAD SWAP1 DUP2 MSTORE LOG2 CODESIZE DUP1 DUP1 DUP1 DUP1 DUP6 DUP2 DUP1 PUSH2 0x55D JUMP JUMPDEST PUSH2 0x60D SWAP2 POP DUP6 RETURNDATASIZE DUP8 GT PUSH2 0x2B7 JUMPI PUSH2 0x2AB DUP2 DUP4 PUSH2 0xEC0 JUMP JUMPDEST CODESIZE PUSH2 0x5DE JUMP JUMPDEST DUP6 MLOAD RETURNDATASIZE DUP9 DUP3 RETURNDATACOPY RETURNDATASIZE SWAP1 REVERT JUMPDEST PUSH4 0x4E487B71 PUSH1 0xE0 SHL DUP13 MSTORE PUSH1 0x11 DUP8 MSTORE PUSH1 0x24 DUP13 REVERT JUMPDEST DUP4 DUP1 REVERT JUMPDEST POP POP CALLVALUE PUSH2 0x333 JUMPI DUP2 PUSH1 0x3 NOT CALLDATASIZE ADD SLT PUSH2 0x333 JUMPI PUSH1 0x1 SLOAD SWAP1 MLOAD PUSH1 0x8 SWAP2 SWAP1 SWAP2 SHR PUSH1 0x1 PUSH1 0x1 PUSH1 0xA0 SHL SUB AND DUP2 MSTORE PUSH1 0x20 SWAP1 RETURN JUMPDEST POP POP CALLVALUE PUSH2 0x333 JUMPI DUP2 PUSH1 0x3 NOT CALLDATASIZE ADD SLT PUSH2 0x333 JUMPI PUSH1 0x20 PUSH32 0x62E78CEA01BEE320CD4E420270B5EA74000D11B0C9F74754EBDBFC544B05A258 SWAP2 PUSH2 0x69F PUSH2 0xE04 JUMP JUMPDEST PUSH2 0x6A7 PUSH2 0xE7F JUMP JUMPDEST PUSH1 0x1 PUSH1 0xFF NOT DUP2 SLOAD AND OR PUSH1 0x1 SSTORE MLOAD CALLER DUP2 MSTORE LOG1 DUP1 RETURN JUMPDEST DUP4 CALLVALUE PUSH2 0x4CB JUMPI DUP1 PUSH1 0x3 NOT CALLDATASIZE ADD SLT PUSH2 0x4CB JUMPI PUSH2 0x6D4 PUSH2 0xE04 JUMP JUMPDEST PUSH1 0x1 DUP1 SLOAD PUSH2 0x100 PUSH1 0x1 PUSH1 0xA8 SHL SUB NOT DUP2 AND SWAP1 SWAP2 SSTORE DUP2 SWAP1 PUSH1 0x8 SHR PUSH1 0x1 PUSH1 0x1 PUSH1 0xA0 SHL SUB AND PUSH32 0x8BE0079C531659141344CD1FD0A4F28419497F9722A3DAAFE3B4186F6B6457E0 DUP3 DUP1 LOG3 DUP1 RETURN JUMPDEST POP CALLVALUE PUSH2 0x16A JUMPI DUP2 PUSH1 0x20 SWAP4 PUSH1 0x8 PUSH1 0xFF SWAP4 PUSH2 0x734 CALLDATASIZE PUSH2 0xDBD JUMP JUMPDEST SWAP1 SWAP2 DUP3 DUP6 MSTORE DUP9 MSTORE PUSH2 0x74A DUP6 DUP6 KECCAK256 SWAP3 DUP4 SLOAD EQ PUSH2 0xEF8 JUMP JUMPDEST DUP4 MSTORE ADD DUP6 MSTORE KECCAK256 SLOAD AND SWAP1 MLOAD SWAP1 ISZERO ISZERO DUP2 MSTORE RETURN JUMPDEST POP SWAP1 CALLVALUE PUSH2 0x16A JUMPI PUSH1 0x20 DUP1 PUSH1 0x3 NOT CALLDATASIZE ADD SLT PUSH2 0x630 JUMPI DUP3 CALLDATALOAD SWAP3 PUSH1 0x1 DUP1 PUSH1 0xA0 SHL SUB SWAP2 PUSH2 0x789 DUP4 PUSH1 0x5 SLOAD AND CALLER EQ PUSH2 0xE33 JUMP JUMPDEST PUSH2 0x791 PUSH2 0xE7F JUMP JUMPDEST PUSH2 0x799 PUSH2 0xE9D JUMP JUMPDEST DUP5 DUP7 MSTORE DUP2 DUP2 MSTORE DUP4 DUP7 KECCAK256 SWAP4 PUSH2 0x7AF DUP7 DUP7 SLOAD EQ PUSH2 0xEF8 JUMP JUMPDEST PUSH1 0x7 DUP6 ADD SWAP5 DUP6 SLOAD SWAP5 PUSH1 0xFF DUP7 AND PUSH2 0x8B1 JUMPI SWAP1 DUP4 PUSH1 0x24 SWAP3 PUSH1 0x2 SLOAD AND DUP5 MLOAD SWAP4 DUP5 DUP1 SWAP3 PUSH4 0x70A08231 PUSH1 0xE0 SHL DUP3 MSTORE ADDRESS DUP11 DUP4 ADD MSTORE GAS STATICCALL SWAP2 DUP3 ISZERO PUSH2 0x8A7 JUMPI SWAP1 DUP6 SWAP2 DUP11 SWAP4 PUSH2 0x870 JUMPI JUMPDEST POP ADD SLOAD GT PUSH2 0x82F JUMPI POP POP POP PUSH1 0xFF NOT AND PUSH1 0x1 OR SWAP1 SSTORE PUSH32 0xB01718CC2FEF93A8279B929CECA602BDA7D1D2D9253D23C1CAFE4B5AC2092BA4 DUP3 DUP1 LOG2 PUSH1 0x1 DUP2 SSTORE DUP1 RETURN JUMPDEST MLOAD PUSH3 0x461BCD PUSH1 0xE5 SHL DUP2 MSTORE SWAP2 DUP3 ADD MSTORE PUSH1 0x1B PUSH1 0x24 DUP3 ADD MSTORE PUSH32 0x496E73756666696369656E742066756E64732072656365697665640000000000 PUSH1 0x44 DUP3 ADD MSTORE PUSH1 0x64 SWAP2 POP REVERT JUMPDEST DUP6 DUP1 SWAP3 SWAP5 POP DUP2 SWAP4 POP RETURNDATASIZE DUP4 GT PUSH2 0x8A0 JUMPI JUMPDEST PUSH2 0x88A DUP2 DUP4 PUSH2 0xEC0 JUMP JUMPDEST DUP2 ADD SUB SLT PUSH2 0x89C JUMPI DUP5 SWAP1 MLOAD SWAP2 CODESIZE PUSH2 0x7F0 JUMP JUMPDEST DUP9 DUP1 REVERT JUMPDEST POP RETURNDATASIZE PUSH2 0x880 JUMP JUMPDEST DUP4 MLOAD RETURNDATASIZE DUP12 DUP3 RETURNDATACOPY RETURNDATASIZE SWAP1 REVERT JUMPDEST POP POP MLOAD PUSH3 0x461BCD PUSH1 0xE5 SHL DUP2 MSTORE SWAP2 DUP3 ADD MSTORE PUSH1 0x18 PUSH1 0x24 DUP3 ADD MSTORE PUSH32 0x457363726F7720697320616C7265616479206163746976650000000000000000 PUSH1 0x44 DUP3 ADD MSTORE PUSH1 0x64 SWAP2 POP REVERT JUMPDEST POP CALLVALUE PUSH2 0x16A JUMPI PUSH2 0x903 CALLDATASIZE PUSH2 0xDBD JUMP JUMPDEST PUSH1 0x5 SLOAD SWAP2 SWAP4 PUSH1 0x1 PUSH1 0x1 PUSH1 0xA0 SHL SUB SWAP3 PUSH2 0x91E SWAP1 DUP5 AND CALLER EQ PUSH2 0xE33 JUMP JUMPDEST PUSH2 0x926 PUSH2 0xE7F JUMP JUMPDEST PUSH2 0x92E PUSH2 0xE9D JUMP JUMPDEST DUP5 DUP7 MSTORE PUSH1 0x20 DUP5 DUP2 MSTORE DUP2 DUP8 KECCAK256 SWAP5 PUSH2 0x946 DUP8 DUP8 SLOAD EQ PUSH2 0xEF8 JUMP JUMPDEST PUSH1 0x7 DUP7 ADD SWAP6 PUSH2 0x958 PUSH1 0xFF DUP9 SLOAD AND PUSH2 0xF3C JUMP JUMPDEST PUSH1 0x19 DUP6 EQ DUP1 ISZERO PUSH2 0xBFF JUMPI JUMPDEST DUP1 ISZERO PUSH2 0xBF5 JUMPI JUMPDEST DUP1 ISZERO PUSH2 0xBEB JUMPI JUMPDEST ISZERO PUSH2 0xB9B JUMPI PUSH1 0x8 DUP2 ADD SWAP2 DUP6 DUP11 MSTORE DUP3 DUP5 MSTORE PUSH1 0xFF DUP6 DUP12 KECCAK256 SLOAD AND PUSH2 0xB47 JUMPI PUSH1 0x19 DUP7 GT PUSH2 0xAC4 JUMPI JUMPDEST DUP1 DUP3 ADD SLOAD PUSH1 0x2 SHR SWAP3 DUP7 DUP12 MSTORE DUP5 MSTORE DUP5 DUP11 KECCAK256 SWAP7 PUSH1 0xFF NOT SWAP8 PUSH1 0x1 DUP10 DUP3 SLOAD AND OR SWAP1 SSTORE PUSH1 0x5 DUP4 ADD DUP1 SLOAD SWAP1 DUP6 DUP3 ADD DUP1 SWAP3 GT PUSH2 0xAB1 JUMPI SSTORE PUSH1 0x2 DUP1 SLOAD SWAP4 ADD SLOAD DUP7 MLOAD PUSH4 0xA9059CBB PUSH1 0xE0 SHL DUP2 MSTORE SWAP1 DUP3 AND PUSH1 0x1 PUSH1 0x1 PUSH1 0xA0 SHL SUB AND SWAP3 DUP2 ADD SWAP3 DUP4 MSTORE PUSH1 0x20 DUP4 ADD DUP6 SWAP1 MSTORE SWAP3 DUP6 SWAP3 DUP5 SWAP3 SWAP1 SWAP2 AND SWAP1 DUP3 SWAP1 DUP14 SWAP1 DUP3 SWAP1 PUSH1 0x40 ADD SUB SWAP3 GAS CALL SWAP1 DUP2 ISZERO PUSH2 0xAA7 JUMPI SWAP3 PUSH32 0x75BE8D7515237236CFB3E6C6AA6F74FB8DD8DB900B6F433310F89D497092D78F SWAP3 PUSH2 0xA47 PUSH1 0x64 SWAP8 SWAP7 SWAP4 DUP12 SWAP7 DUP14 SWAP2 PUSH2 0xA90 JUMPI POP PUSH2 0xF97 JUMP JUMPDEST DUP3 MLOAD SWAP2 DUP7 DUP4 MSTORE DUP3 ADD MSTORE LOG2 EQ PUSH2 0xA5F JUMPI JUMPDEST DUP4 PUSH1 0x1 DUP2 SSTORE DUP1 RETURN JUMPDEST DUP2 SLOAD AND SWAP1 SSTORE PUSH32 0xF13B3BFA8CD084CADAB3723A031C3F1C641CE6072626163D3100C1CD14C18A28 DUP3 DUP1 LOG2 CODESIZE DUP1 DUP1 PUSH2 0xA57 JUMP JUMPDEST PUSH2 0x60D SWAP2 POP DUP5 RETURNDATASIZE DUP7 GT PUSH2 0x2B7 JUMPI PUSH2 0x2AB DUP2 DUP4 PUSH2 0xEC0 JUMP JUMPDEST DUP5 MLOAD RETURNDATASIZE DUP12 DUP3 RETURNDATACOPY RETURNDATASIZE SWAP1 REVERT JUMPDEST PUSH4 0x4E487B71 PUSH1 0xE0 SHL DUP14 MSTORE PUSH1 0x11 DUP5 MSTORE PUSH1 0x24 DUP14 REVERT JUMPDEST PUSH1 0x18 NOT DUP7 ADD DUP7 DUP2 GT PUSH2 0xB34 JUMPI DUP11 MSTORE DUP3 DUP5 MSTORE PUSH1 0xFF DUP6 DUP12 KECCAK256 SLOAD AND PUSH2 0x995 JUMPI DUP5 MLOAD PUSH3 0x461BCD PUSH1 0xE5 SHL DUP2 MSTORE SWAP1 DUP2 ADD DUP5 SWAP1 MSTORE PUSH1 0x28 PUSH1 0x24 DUP3 ADD MSTORE PUSH32 0x50726576696F7573206D696C6573746F6E6520686173206E6F74206265656E20 PUSH1 0x44 DUP3 ADD MSTORE PUSH8 0x1C995B19585CD959 PUSH1 0xC2 SHL PUSH1 0x64 DUP3 ADD MSTORE PUSH1 0x84 SWAP1 REVERT JUMPDEST PUSH4 0x4E487B71 PUSH1 0xE0 SHL DUP12 MSTORE PUSH1 0x11 DUP3 MSTORE PUSH1 0x24 DUP12 REVERT JUMPDEST DUP5 MLOAD PUSH3 0x461BCD PUSH1 0xE5 SHL DUP2 MSTORE SWAP1 DUP2 ADD DUP5 SWAP1 MSTORE PUSH1 0x28 PUSH1 0x24 DUP3 ADD MSTORE PUSH32 0x54686973206D696C6573746F6E652068617320616C7265616479206265656E20 PUSH1 0x44 DUP3 ADD MSTORE PUSH8 0x1C995B19585CD959 PUSH1 0xC2 SHL PUSH1 0x64 DUP3 ADD MSTORE PUSH1 0x84 SWAP1 REVERT JUMPDEST POP SWAP2 MLOAD PUSH3 0x461BCD PUSH1 0xE5 SHL DUP2 MSTORE SWAP2 DUP3 ADD MSTORE PUSH1 0x25 PUSH1 0x24 DUP3 ADD MSTORE PUSH32 0x50657263656E74616765206D7573742062652032352C2035302C2037352C206F PUSH1 0x44 DUP3 ADD MSTORE PUSH5 0x722031303 PUSH1 0xDC SHL PUSH1 0x64 DUP3 ADD MSTORE PUSH1 0x84 SWAP1 REVERT JUMPDEST POP PUSH1 0x64 DUP6 EQ PUSH2 0x971 JUMP JUMPDEST POP PUSH1 0x4B DUP6 EQ PUSH2 0x96A JUMP JUMPDEST POP PUSH1 0x32 DUP6 EQ PUSH2 0x963 JUMP JUMPDEST POP POP CALLVALUE PUSH2 0x333 JUMPI DUP2 PUSH1 0x3 NOT CALLDATASIZE ADD SLT PUSH2 0x333 JUMPI PUSH1 0x20 SWAP1 PUSH1 0xFF PUSH1 0x1 SLOAD AND SWAP1 MLOAD SWAP1 ISZERO ISZERO DUP2 MSTORE RETURN JUMPDEST POP CALLVALUE PUSH2 0x16A JUMPI PUSH1 0x20 CALLDATASIZE PUSH1 0x3 NOT ADD SLT PUSH2 0x16A JUMPI PUSH1 0xC0 SWAP3 PUSH2 0xC5A DUP4 DUP4 CALLDATALOAD SWAP3 DUP4 DUP2 MSTORE DUP5 PUSH1 0x20 MSTORE KECCAK256 SWAP2 DUP3 SLOAD EQ PUSH2 0xEF8 JUMP JUMPDEST PUSH1 0x1 DUP1 PUSH1 0xA0 SHL SUB SWAP3 DUP4 PUSH1 0x1 DUP4 ADD SLOAD AND SWAP4 PUSH1 0x2 DUP4 ADD SLOAD AND SWAP3 PUSH1 0x3 DUP4 ADD SLOAD SWAP1 DUP4 ADD SLOAD SWAP2 PUSH1 0xFF PUSH1 0x7 PUSH1 0x5 DUP7 ADD SLOAD SWAP6 ADD SLOAD AND SWAP5 DUP2 MLOAD SWAP7 DUP8 MSTORE PUSH1 0x20 DUP8 ADD MSTORE DUP6 ADD MSTORE PUSH1 0x60 DUP5 ADD MSTORE PUSH1 0x80 DUP4 ADD MSTORE ISZERO ISZERO PUSH1 0xA0 DUP3 ADD MSTORE RETURN JUMPDEST POP POP CALLVALUE PUSH2 0x333 JUMPI DUP2 PUSH1 0x3 NOT CALLDATASIZE ADD SLT PUSH2 0x333 JUMPI PUSH1 0x2 SLOAD SWAP1 MLOAD PUSH1 0x1 PUSH1 0x1 PUSH1 0xA0 SHL SUB SWAP1 SWAP2 AND DUP2 MSTORE PUSH1 0x20 SWAP1 RETURN JUMPDEST POP CALLVALUE PUSH2 0x16A JUMPI DUP3 PUSH1 0x3 NOT CALLDATASIZE ADD SLT PUSH2 0x16A JUMPI PUSH2 0xCEB PUSH2 0xE04 JUMP JUMPDEST PUSH1 0x1 SLOAD SWAP1 PUSH1 0xFF DUP3 AND ISZERO PUSH2 0xD2D JUMPI POP PUSH1 0xFF NOT AND PUSH1 0x1 SSTORE MLOAD CALLER DUP2 MSTORE PUSH32 0x5DB9EE0A495BF2E6FF9C91A7834C1BA4FDD244A5E8AA4E537BD38AEAE4B073AA SWAP1 PUSH1 0x20 SWAP1 LOG1 DUP1 RETURN JUMPDEST DUP3 MLOAD PUSH4 0x8DFC202B PUSH1 0xE0 SHL DUP2 MSTORE REVERT JUMPDEST SWAP3 SWAP2 SWAP1 POP CALLVALUE PUSH2 0x630 JUMPI PUSH1 0x20 CALLDATASIZE PUSH1 0x3 NOT ADD SLT PUSH2 0x630 JUMPI DUP2 PUSH2 0x100 SWAP5 DUP3 CALLDATALOAD DUP2 MSTORE DUP3 PUSH1 0x20 MSTORE KECCAK256 SWAP1 DUP2 SLOAD SWAP3 PUSH1 0x1 DUP1 PUSH1 0xA0 SHL SUB SWAP2 DUP3 PUSH1 0x1 DUP6 ADD SLOAD AND SWAP3 PUSH1 0x2 DUP6 ADD SLOAD AND PUSH1 0x3 DUP6 ADD SLOAD SWAP2 DUP6 ADD SLOAD SWAP3 PUSH1 0x5 DUP7 ADD SLOAD SWAP5 PUSH1 0xFF PUSH1 0x7 PUSH1 0x6 DUP10 ADD SLOAD SWAP9 ADD SLOAD AND SWAP8 DUP10 MSTORE PUSH1 0x20 DUP10 ADD MSTORE DUP8 ADD MSTORE PUSH1 0x60 DUP7 ADD MSTORE PUSH1 0x80 DUP6 ADD MSTORE PUSH1 0xA0 DUP5 ADD MSTORE PUSH1 0xC0 DUP4 ADD MSTORE ISZERO ISZERO PUSH1 0xE0 DUP3 ADD MSTORE RETURN JUMPDEST PUSH1 0x40 SWAP1 PUSH1 0x3 NOT ADD SLT PUSH2 0xDD3 JUMPI PUSH1 0x4 CALLDATALOAD SWAP1 PUSH1 0x24 CALLDATALOAD SWAP1 JUMP JUMPDEST PUSH1 0x0 DUP1 REVERT JUMPDEST PUSH1 0x4 CALLDATALOAD SWAP1 PUSH1 0x1 PUSH1 0x1 PUSH1 0xA0 SHL SUB DUP3 AND DUP3 SUB PUSH2 0xDD3 JUMPI JUMP JUMPDEST PUSH1 0x24 CALLDATALOAD SWAP1 PUSH1 0x1 PUSH1 0x1 PUSH1 0xA0 SHL SUB DUP3 AND DUP3 SUB PUSH2 0xDD3 JUMPI JUMP JUMPDEST PUSH1 0x1 SLOAD PUSH1 0x8 SHR PUSH1 0x1 PUSH1 0x1 PUSH1 0xA0 SHL SUB AND CALLER SUB PUSH2 0xE1B JUMPI JUMP JUMPDEST PUSH1 0x40 MLOAD PUSH4 0x118CDAA7 PUSH1 0xE0 SHL DUP2 MSTORE CALLER PUSH1 0x4 DUP3 ADD MSTORE PUSH1 0x24 SWAP1 REVERT JUMPDEST ISZERO PUSH2 0xE3A JUMPI JUMP JUMPDEST PUSH1 0x40 MLOAD PUSH3 0x461BCD PUSH1 0xE5 SHL DUP2 MSTORE PUSH1 0x20 PUSH1 0x4 DUP3 ADD MSTORE PUSH1 0x1D PUSH1 0x24 DUP3 ADD MSTORE PUSH32 0x43616C6C6572206973206E6F7420746865206D61726B6574706C616365000000 PUSH1 0x44 DUP3 ADD MSTORE PUSH1 0x64 SWAP1 REVERT JUMPDEST PUSH1 0xFF PUSH1 0x1 SLOAD AND PUSH2 0xE8B JUMPI JUMP JUMPDEST PUSH1 0x40 MLOAD PUSH4 0xD93C0665 PUSH1 0xE0 SHL DUP2 MSTORE PUSH1 0x4 SWAP1 REVERT JUMPDEST PUSH1 0x2 PUSH1 0x0 SLOAD EQ PUSH2 0xEAE JUMPI PUSH1 0x2 PUSH1 0x0 SSTORE JUMP JUMPDEST PUSH1 0x40 MLOAD PUSH4 0x3EE5AEB5 PUSH1 0xE0 SHL DUP2 MSTORE PUSH1 0x4 SWAP1 REVERT JUMPDEST SWAP1 PUSH1 0x1F DUP1 NOT SWAP2 ADD AND DUP2 ADD SWAP1 DUP2 LT PUSH8 0xFFFFFFFFFFFFFFFF DUP3 GT OR PUSH2 0xEE2 JUMPI PUSH1 0x40 MSTORE JUMP JUMPDEST PUSH4 0x4E487B71 PUSH1 0xE0 SHL PUSH1 0x0 MSTORE PUSH1 0x41 PUSH1 0x4 MSTORE PUSH1 0x24 PUSH1 0x0 REVERT JUMPDEST ISZERO PUSH2 0xEFF JUMPI JUMP JUMPDEST PUSH1 0x40 MLOAD PUSH3 0x461BCD PUSH1 0xE5 SHL DUP2 MSTORE PUSH1 0x20 PUSH1 0x4 DUP3 ADD MSTORE PUSH1 0x15 PUSH1 0x24 DUP3 ADD MSTORE PUSH21 0x115CD8DC9BDDC8191BD95CC81B9BDD08195E1A5CDD PUSH1 0x5A SHL PUSH1 0x44 DUP3 ADD MSTORE PUSH1 0x64 SWAP1 REVERT JUMPDEST ISZERO PUSH2 0xF43 JUMPI JUMP JUMPDEST PUSH1 0x40 MLOAD PUSH3 0x461BCD PUSH1 0xE5 SHL DUP2 MSTORE PUSH1 0x20 PUSH1 0x4 DUP3 ADD MSTORE PUSH1 0x14 PUSH1 0x24 DUP3 ADD MSTORE PUSH20 0x457363726F77206973206E6F7420616374697665 PUSH1 0x60 SHL PUSH1 0x44 DUP3 ADD MSTORE PUSH1 0x64 SWAP1 REVERT JUMPDEST SWAP1 DUP2 PUSH1 0x20 SWAP2 SUB SLT PUSH2 0xDD3 JUMPI MLOAD DUP1 ISZERO ISZERO DUP2 SUB PUSH2 0xDD3 JUMPI SWAP1 JUMP JUMPDEST ISZERO PUSH2 0xF9E JUMPI JUMP JUMPDEST PUSH1 0x40 MLOAD PUSH3 0x461BCD PUSH1 0xE5 SHL DUP2 MSTORE PUSH1 0x20 PUSH1 0x4 DUP3 ADD MSTORE PUSH1 0x15 PUSH1 0x24 DUP3 ADD MSTORE PUSH21 0x151BDAD95B881D1C985B9CD9995C8819985A5B1959 PUSH1 0x5A SHL PUSH1 0x44 DUP3 ADD MSTORE PUSH1 0x64 SWAP1 REVERT INVALID LOG2 PUSH5 0x6970667358 0x22 SLT KECCAK256 DUP16 PUSH20 0xBD58F02E8FAEAF6BA2BC11BED430B9639652A5EC ADDRESS MUL PUSH26 0xAD80B81B2EE54864736F6C634300081400332F8788117E7EFF1D DUP3 0xE9 0x26 0xEC PUSH26 0x4901D17C78024A50270940304540A733656F0D00000000000000 "},"methodIdentifiers":{"ADMIN_ROLE()":"75b238fc","DEFAULT_ADMIN_ROLE()":"a217fddf","DISPUTE_PERIOD()":"a5bbe22b","FUNDING_TIMEOUT()":"448bb335","MAX_USERNAME_LENGTH()":"1cd896c1","MODERATOR_ROLE()":"797669c9","USER_ROLE()":"13119161","acceptNegotiation(bytes32,address)":"2305399b","activeOfferIds(uint256)":"54f2bbd6","addAdmin(address)":"70480275","addModerator(address)":"b532e4cb","addNegotiationMessage(bytes32,string,uint256,uint256)":"828525bb","addUser(address,string)":"4b68d431","agreements(bytes32)":"9e1f68c7","cancelNegotiation(bytes32,address)":"cb31fe39","cancelUnfundedAgreement(bytes32)":"da79cf0a","createAgreement(bytes32)":"d9710fbe","createOffer(uint8,uint256,uint256,uint256,uint256)":"68484c7c","disputeAndRefund(bytes32,string)":"adc3e5f7","disputeMilestone(bytes32,uint256,string)":"c81e59b2","energyToken()":"4ec7fb81","escrowContract()":"e42a96e7","finalizeMilestone(bytes32,uint256)":"0045be6f","fundAgreement(bytes32)":"7aaf23f6","getActiveOffers()":"7ff118ef","getAddressByUsername(string)":"6322961d","getAgreementDetails(bytes32)":"096fd30a","getNegotiationMessages(bytes32)":"38e8dfca","getOfferDetails(bytes32)":"8b740975","getOfferNegotiators(bytes32)":"52806425","getRoleAdmin(bytes32)":"248a9ca3","getUserAgreements(address)":"adb9cae6","getUserOffers(address)":"661d2c2c","getUserStats(address)":"4e43603a","getUsernameByAddress(address)":"ed1a998d","grantRole(bytes32,address)":"2f2ff15d","hasRole(bytes32,address)":"91d14854","moderateOffer(bytes32)":"37d6e15e","negotiations(bytes32,uint256)":"e50e9814","offerNegotiations(bytes32,address)":"9f1652d8","offerNegotiators(bytes32,uint256)":"7f10c00b","offers(bytes32)":"474d3ff0","owner()":"8da5cb5b","pause()":"8456cb59","paused()":"5c975abb","registerUsername(string)":"36a94134","removeModerator(address)":"869d785f","renounceOwnership()":"715018a6","renounceRole(bytes32,address)":"36568abe","reportEnergyDelivery(bytes32,uint256)":"d3a164f1","resolveDispute(bytes32,uint256,bool)":"faf0bbbf","revokeRole(bytes32,address)":"d547741f","setEscrowContract(address)":"f42375b5","startEnergyTransfer(bytes32)":"ba72a73e","supportsInterface(bytes4)":"01ffc9a7","transferOwnership(address)":"f2fde38b","unpause()":"3f4ba83a","updateOffer(bytes32,uint256,uint256,uint256,uint256)":"952acc6c","userAgreements(address,uint256)":"4c27984e","userOffers(address,uint256)":"bd5fec65","userProfiles(address)":"332d56d7","usernames(address)":"ee91877c"}}}}}