{"contracts/EnergyEscrow.sol":{"EnergyEscrow":{"abi":[{"inputs":[{"internalType":"address","name":"_tokenAddress","type":"address"}],"stateMutability":"nonpayable","type":"constructor"},{"inputs":[],"name":"EnforcedPause","type":"error"},{"inputs":[],"name":"ExpectedPause","type":"error"},{"inputs":[{"internalType":"address","name":"owner","type":"address"}],"name":"OwnableInvalidOwner","type":"error"},{"inputs":[{"internalType":"address","name":"account","type":"address"}],"name":"OwnableUnauthorizedAccount","type":"error"},{"inputs":[],"name":"ReentrancyGuardReentrantCall","type":"error"},{"anonymous":false,"inputs":[{"indexed":true,"internalType":"bytes32","name":"escrowId","type":"bytes32"}],"name":"EscrowCompleted","type":"event"},{"anonymous":false,"inputs":[{"indexed":true,"internalType":"bytes32","name":"escrowId","type":"bytes32"},{"indexed":false,"internalType":"address","name":"buyer","type":"address"},{"indexed":false,"internalType":"address","name":"seller","type":"address"},{"indexed":false,"internalType":"uint256","name":"totalAmount","type":"uint256"}],"name":"EscrowCreated","type":"event"},{"anonymous":false,"inputs":[{"indexed":true,"internalType":"bytes32","name":"escrowId","type":"bytes32"},{"indexed":false,"internalType":"uint256","name":"amount","type":"uint256"}],"name":"EscrowRefunded","type":"event"},{"anonymous":false,"inputs":[{"indexed":true,"internalType":"bytes32","name":"escrowId","type":"bytes32"}],"name":"EscrowStarted","type":"event"},{"anonymous":false,"inputs":[{"indexed":true,"internalType":"bytes32","name":"escrowId","type":"bytes32"},{"indexed":false,"internalType":"uint256","name":"percentage","type":"uint256"},{"indexed":false,"internalType":"uint256","name":"amount","type":"uint256"}],"name":"MilestoneReleased","type":"event"},{"anonymous":false,"inputs":[{"indexed":true,"internalType":"address","name":"previousOwner","type":"address"},{"indexed":true,"internalType":"address","name":"newOwner","type":"address"}],"name":"OwnershipTransferred","type":"event"},{"anonymous":false,"inputs":[{"indexed":false,"internalType":"address","name":"account","type":"address"}],"name":"Paused","type":"event"},{"anonymous":false,"inputs":[{"indexed":false,"internalType":"address","name":"account","type":"address"}],"name":"Unpaused","type":"event"},{"inputs":[{"internalType":"address","name":"_buyer","type":"address"},{"internalType":"address","name":"_seller","type":"address"},{"internalType":"uint256","name":"_energyAmount","type":"uint256"},{"internalType":"uint256","name":"_totalAmount","type":"uint256"}],"name":"createEscrow","outputs":[{"internalType":"bytes32","name":"","type":"bytes32"}],"stateMutability":"nonpayable","type":"function"},{"inputs":[{"internalType":"address","name":"_token","type":"address"},{"internalType":"address","name":"_to","type":"address"},{"internalType":"uint256","name":"_amount","type":"uint256"}],"name":"emergencyWithdraw","outputs":[],"stateMutability":"nonpayable","type":"function"},{"inputs":[],"name":"energyToken","outputs":[{"internalType":"contract EnergyToken","name":"","type":"address"}],"stateMutability":"view","type":"function"},{"inputs":[{"internalType":"bytes32","name":"","type":"bytes32"}],"name":"escrows","outputs":[{"internalType":"bytes32","name":"id","type":"bytes32"},{"internalType":"address","name":"buyer","type":"address"},{"internalType":"address","name":"seller","type":"address"},{"internalType":"uint256","name":"energyAmount","type":"uint256"},{"internalType":"uint256","name":"totalAmount","type":"uint256"},{"internalType":"uint256","name":"amountPaid","type":"uint256"},{"internalType":"uint256","name":"createdAt","type":"uint256"},{"internalType":"bool","name":"isActive","type":"bool"}],"stateMutability":"view","type":"function"},{"inputs":[{"internalType":"bytes32","name":"_escrowId","type":"bytes32"}],"name":"getEscrowDetails","outputs":[{"internalType":"address","name":"buyer","type":"address"},{"internalType":"address","name":"seller","type":"address"},{"internalType":"uint256","name":"energyAmount","type":"uint256"},{"internalType":"uint256","name":"totalAmount","type":"uint256"},{"internalType":"uint256","name":"amountPaid","type":"uint256"},{"internalType":"bool","name":"isActive","type":"bool"}],"stateMutability":"view","type":"function"},{"inputs":[{"internalType":"bytes32","name":"_escrowId","type":"bytes32"},{"internalType":"uint256","name":"_percentage","type":"uint256"}],"name":"isMilestoneReleased","outputs":[{"internalType":"bool","name":"","type":"bool"}],"stateMutability":"view","type":"function"},{"inputs":[],"name":"marketplaceContract","outputs":[{"internalType":"address","name":"","type":"address"}],"stateMutability":"view","type":"function"},{"inputs":[],"name":"owner","outputs":[{"internalType":"address","name":"","type":"address"}],"stateMutability":"view","type":"function"},{"inputs":[],"name":"pause","outputs":[],"stateMutability":"nonpayable","type":"function"},{"inputs":[],"name":"paused","outputs":[{"internalType":"bool","name":"","type":"bool"}],"stateMutability":"view","type":"function"},{"inputs":[{"internalType":"bytes32","name":"_escrowId","type":"bytes32"}],"name":"processRefund","outputs":[],"stateMutability":"nonpayable","type":"function"},{"inputs":[{"internalType":"bytes32","name":"_escrowId","type":"bytes32"},{"internalType":"uint256","name":"_percentage","type":"uint256"}],"name":"releasePayment","outputs":[],"stateMutability":"nonpayable","type":"function"},{"inputs":[],"name":"renounceOwnership","outputs":[],"stateMutability":"nonpayable","type":"function"},{"inputs":[{"internalType":"bytes32","name":"_escrowId","type":"bytes32"}],"name":"startEscrow","outputs":[],"stateMutability":"nonpayable","type":"function"},{"inputs":[{"internalType":"address","name":"newOwner","type":"address"}],"name":"transferOwnership","outputs":[],"stateMutability":"nonpayable","type":"function"},{"inputs":[],"name":"unpause","outputs":[],"stateMutability":"nonpayable","type":"function"},{"inputs":[{"internalType":"address","name":"_newMarketplace","type":"address"}],"name":"updateMarketplaceContract","outputs":[],"stateMutability":"nonpayable","type":"function"}],"evm":{"bytecode":{"linkReferences":{},"object":"6080346100f857601f61112538819003918201601f19168301916001600160401b038311848410176100fd578084926020946040528339810103126100f857516001600160a01b0390818116908190036100f857600160005560015433156100df576001600160a81b0319811633600881811b610100600160a81b03169290921760015560405194909290911c167f8be0079c531659141344cd1fd0a4f28419497f9722a3daafe3b4186f6b6457e0600080a3600060035560018060a01b0319908160025416176002553390600554161760055561101190816101148239f35b604051631e4fbdf760e01b815260006004820152602490fd5b600080fd5b634e487b7160e01b600052604160045260246000fdfe6080604081815260048036101561001557600080fd5b600092833560e01c9081632d83549c14610d3b575080633f4ba83a14610cd25780634ec7fb8114610ca957806351a89ce814610c2d5780635c975abb14610c095780635d655fb1146108f45780636789f9cb1461075b5780636c4596811461071c578063715018a6146106bb5780638456cb59146106615780638da5cb5b14610634578063b9a7579b146104ce578063ccbae5f614610337578063d1bb5cf11461030a578063e63ea4081461020a578063f2fde38b1461016e5763f49a52aa146100de57600080fd5b3461016a57602036600319011261016a576100f7610dd8565b6100ff610e04565b6001600160a01b03169182156101275750506001600160601b0360a01b600554161760055580f35b906020606492519162461bcd60e51b8352820152601b60248201527f496e76616c6964206d61726b6574706c616365206164647265737300000000006044820152fd5b8280fd5b503461016a57602036600319011261016a57610188610dd8565b610190610e04565b6001600160a01b038181169390929084156101f457505060018054610100600160a81b03198116600893841b610100600160a81b031617909155901c167f8be0079c531659141344cd1fd0a4f28419497f9722a3daafe3b4186f6b6457e08380a380f35b51631e4fbdf760e01b8152908101859052602490fd5b503461016a57606036600319011261016a57610224610dd8565b61022c610dee565b610234610e04565b6001600160a01b03818116156102c757845163a9059cbb60e01b81526001600160a01b0392909216938201938452604435602080860191909152919493919285928390036040019183918891165af19081156102be5750610293575080f35b6102b39060203d81116102b7575b6102ab8183610ec0565b810190610f7f565b5080f35b503d6102a1565b513d84823e3d90fd5b845162461bcd60e51b8152602081860152601f60248201527f43616e6e6f7420776974686472617720746f207a65726f2061646472657373006044820152606490fd5b50503461033357816003193601126103335760055490516001600160a01b039091168152602090f35b5080fd5b5091346104cb5760803660031901126104cb57610352610dd8565b9261035b610dee565b936044356064359560018060a01b0361037981600554163314610e33565b610381610e7f565b610389610e9d565b60035460001993908481146104b857600101938460035543014381116104b8578851946020860196848116946001600160601b0319809260601b16895286169560601b16603487015242604887015282606887015260888601524060a885015260a8845260e084019484861067ffffffffffffffff8711176104a557908994939291868a5284519020998a97888a52806020528a8a2092898455600184016001600160601b0360a01b908682825416179055866002860191825416179055600384015582015587600582015542600682015560070160ff1981541690558452610100820152610120015260607f0dd968c277d9dc6b36b6ec2b638324c3d937882c64ca109440bc050ebf26cb0791a26001905551908152602090f35b634e487b7160e01b885260418752602488fd5b634e487b7160e01b885260118752602488fd5b80fd5b503461016a57602080600319360112610630576005548235926001600160a01b03916104fd9083163314610e33565b610505610e7f565b61050d610e9d565b8386528083528486209161052385845414610ef8565b600783019283549361053760ff8616610f3c565b838201546005830154918282039682881161061d5760ff19169055899392919003610565575b826001815580f35b60025460019190910154885163a9059cbb60e01b81529083166001600160a01b0316948101948552602085018690529386938593909216918391829060400103925af1908115610613577f21cabc2fff910e5afd1e2bcb22ff2b165a41ab0afbaf364f07aaf2f7787fb9089495916105e49188916105f6575b50610f97565b51908152a2388080808085818061055d565b61060d9150853d87116102b7576102ab8183610ec0565b386105de565b85513d88823e3d90fd5b634e487b7160e01b8c526011875260248cfd5b8380fd5b505034610333578160031936011261033357600154905160089190911c6001600160a01b03168152602090f35b50503461033357816003193601126103335760207f62e78cea01bee320cd4e420270b5ea74000d11b0c9f74754ebdbfc544b05a2589161069f610e04565b6106a7610e7f565b600160ff198154161760015551338152a180f35b83346104cb57806003193601126104cb576106d4610e04565b60018054610100600160a81b03198116909155819060081c6001600160a01b03167f8be0079c531659141344cd1fd0a4f28419497f9722a3daafe3b4186f6b6457e08280a380f35b503461016a5781602093600860ff9361073436610dbd565b9091828552885261074a85852092835414610ef8565b835201855220541690519015158152f35b50903461016a576020806003193601126106305782359260018060a01b039161078983600554163314610e33565b610791610e7f565b610799610e9d565b848652818152838620936107af86865414610ef8565b600785019485549460ff86166108b1579083602492600254168451938480926370a0823160e01b8252308a8301525afa9182156108a7579085918a93610870575b5001541161082f5750505060ff191660011790557fb01718cc2fef93a8279b929ceca602bda7d1d2d9253d23c1cafe4b5ac2092ba48280a26001815580f35b5162461bcd60e51b815291820152601b60248201527f496e73756666696369656e742066756e64732072656365697665640000000000604482015260649150fd5b85809294508193503d83116108a0575b61088a8183610ec0565b8101031261089c5784905191386107f0565b8880fd5b503d610880565b83513d8b823e3d90fd5b50505162461bcd60e51b815291820152601860248201527f457363726f7720697320616c7265616479206163746976650000000000000000604482015260649150fd5b503461016a5761090336610dbd565b60055491936001600160a01b039261091e9084163314610e33565b610926610e7f565b61092e610e9d565b84865260208481528187209461094687875414610ef8565b600786019561095860ff885416610f3c565b601985148015610bff575b8015610bf5575b8015610beb575b15610b9b576008810191858a5282845260ff858b205416610b475760198611610ac4575b8082015460021c92868b528452848a209660ff199760018982541617905560058301805490858201809211610ab1575560028054930154865163a9059cbb60e01b81529082166001600160a01b03169281019283526020830185905292859284929091169082908d90829060400103925af1908115610aa757927f75be8d7515237236cfb3e6c6aa6f74fb8dd8db900b6f433310f89d497092d78f92610a4760649796938b968d91610a905750610f97565b825191868352820152a214610a5f575b836001815580f35b81541690557ff13b3bfa8cd084cadab3723a031c3f1c641ce6072626163d3100c1cd14c18a288280a2388080610a57565b61060d9150843d86116102b7576102ab8183610ec0565b84513d8b823e3d90fd5b634e487b7160e01b8d526011845260248dfd5b6018198601868111610b34578a5282845260ff858b20541661099557845162461bcd60e51b8152908101849052602860248201527f50726576696f7573206d696c6573746f6e6520686173206e6f74206265656e206044820152671c995b19585cd95960c21b6064820152608490fd5b634e487b7160e01b8b526011825260248bfd5b845162461bcd60e51b8152908101849052602860248201527f54686973206d696c6573746f6e652068617320616c7265616479206265656e206044820152671c995b19585cd95960c21b6064820152608490fd5b50915162461bcd60e51b815291820152602560248201527f50657263656e74616765206d7573742062652032352c2035302c2037352c206f604482015264072203130360dc1b6064820152608490fd5b5060648514610971565b50604b851461096a565b5060328514610963565b50503461033357816003193601126103335760209060ff6001541690519015158152f35b503461016a57602036600319011261016a5760c092610c5a83833592838152846020522091825414610ef8565b60018060a01b03928360018301541693600283015416926003830154908301549160ff6007600586015495015416948151968752602087015285015260608401526080830152151560a0820152f35b50503461033357816003193601126103335760025490516001600160a01b039091168152602090f35b503461016a578260031936011261016a57610ceb610e04565b6001549060ff821615610d2d575060ff1916600155513381527f5db9ee0a495bf2e6ff9c91a7834c1ba4fdd244a5e8aa4e537bd38aeae4b073aa90602090a180f35b8251638dfc202b60e01b8152fd5b92919050346106305760203660031901126106305781610100948235815282602052209081549260018060a01b039182600185015416926002850154166003850154918501549260058601549460ff600760068901549801541697895260208901528701526060860152608085015260a084015260c0830152151560e0820152f35b6040906003190112610dd3576004359060243590565b600080fd5b600435906001600160a01b0382168203610dd357565b602435906001600160a01b0382168203610dd357565b60015460081c6001600160a01b03163303610e1b57565b60405163118cdaa760e01b8152336004820152602490fd5b15610e3a57565b60405162461bcd60e51b815260206004820152601d60248201527f43616c6c6572206973206e6f7420746865206d61726b6574706c6163650000006044820152606490fd5b60ff60015416610e8b57565b60405163d93c066560e01b8152600490fd5b600260005414610eae576002600055565b604051633ee5aeb560e01b8152600490fd5b90601f8019910116810190811067ffffffffffffffff821117610ee257604052565b634e487b7160e01b600052604160045260246000fd5b15610eff57565b60405162461bcd60e51b8152602060048201526015602482015274115cd8dc9bddc8191bd95cc81b9bdd08195e1a5cdd605a1b6044820152606490fd5b15610f4357565b60405162461bcd60e51b8152602060048201526014602482015273457363726f77206973206e6f742061637469766560601b6044820152606490fd5b90816020910312610dd357518015158103610dd35790565b15610f9e57565b60405162461bcd60e51b8152602060048201526015602482015274151bdad95b881d1c985b9cd9995c8819985a5b1959605a1b6044820152606490fdfea26469706673582212208f73bd58f02e8faeaf6ba2bc11bed430b9639652a5ec300279ad80b81b2ee54864736f6c63430008140033","opcodes":"PUSH1 0x80 CALLVALUE PUSH2 0xF8 JUMPI PUSH1 0x1F PUSH2 0x1125 CODESIZE DUP2 SWAP1 SUB SWAP2 DUP3 ADD PUSH1 0x1F NOT AND DUP4 ADD SWAP2 PUSH1 0x1 PUSH1 0x1 PUSH1 0x40 SHL SUB DUP4 GT DUP5 DUP5 LT OR PUSH2 0xFD JUMPI DUP1 DUP5 SWAP3 PUSH1 0x20 SWAP5 PUSH1 0x40 MSTORE DUP4 CODECOPY DUP2 ADD SUB SLT PUSH2 0xF8 JUMPI MLOAD PUSH1 0x1 PUSH1 0x1 PUSH1 0xA0 SHL SUB SWAP1 DUP2 DUP2 AND SWAP1 DUP2 SWAP1 SUB PUSH2 0xF8 JUMPI PUSH1 0x1 PUSH1 0x0 SSTORE PUSH1 0x1 SLOAD CALLER ISZERO PUSH2 0xDF JUMPI PUSH1 0x1 PUSH1 0x1 PUSH1 0xA8 SHL SUB NOT DUP2 AND CALLER PUSH1 0x8 DUP2 DUP2 SHL PUSH2 0x100 PUSH1 0x1 PUSH1 0xA8 SHL SUB AND SWAP3 SWAP1 SWAP3 OR PUSH1 0x1 SSTORE PUSH1 0x40 MLOAD SWAP5 SWAP1 SWAP3 SWAP1 SWAP2 SHR AND PUSH32 0x8BE0079C531659141344CD1FD0A4F28419497F9722A3DAAFE3B4186F6B6457E0 PUSH1 0x0 DUP1 LOG3 PUSH1 0x0 PUSH1 0x3 SSTORE PUSH1 0x1 DUP1 PUSH1 0xA0 SHL SUB NOT SWAP1 DUP2 PUSH1 0x2 SLOAD AND OR PUSH1 0x2 SSTORE CALLER SWAP1 PUSH1 0x5 SLOAD AND OR PUSH1 0x5 SSTORE PUSH2 0x1011 SWAP1 DUP2 PUSH2 0x114 DUP3 CODECOPY RETURN JUMPDEST PUSH1 0x40 MLOAD PUSH4 0x1E4FBDF7 PUSH1 0xE0 SHL DUP2 MSTORE PUSH1 0x0 PUSH1 0x4 DUP3 ADD MSTORE PUSH1 0x24 SWAP1 REVERT JUMPDEST PUSH1 0x0 DUP1 REVERT JUMPDEST PUSH4 0x4E487B71 PUSH1 0xE0 SHL PUSH1 0x0 MSTORE PUSH1 0x41 PUSH1 0x4 MSTORE PUSH1 0x24 PUSH1 0x0 REVERT INVALID PUSH1 0x80 PUSH1 0x40 DUP2 DUP2 MSTORE PUSH1 0x4 DUP1 CALLDATASIZE LT ISZERO PUSH2 0x15 JUMPI PUSH1 0x0 DUP1 REVERT JUMPDEST PUSH1 0x0 SWAP3 DUP4 CALLDATALOAD PUSH1 0xE0 SHR SWAP1 DUP2 PUSH4 0x2D83549C EQ PUSH2 0xD3B JUMPI POP DUP1 PUSH4 0x3F4BA83A EQ PUSH2 0xCD2 JUMPI DUP1 PUSH4 0x4EC7FB81 EQ PUSH2 0xCA9 JUMPI DUP1 PUSH4 0x51A89CE8 EQ PUSH2 0xC2D JUMPI DUP1 PUSH4 0x5C975ABB EQ PUSH2 0xC09 JUMPI DUP1 PUSH4 0x5D655FB1 EQ PUSH2 0x8F4 JUMPI DUP1 PUSH4 0x6789F9CB EQ PUSH2 0x75B JUMPI DUP1 PUSH4 0x6C459681 EQ PUSH2 0x71C JUMPI DUP1 PUSH4 0x715018A6 EQ PUSH2 0x6BB JUMPI DUP1 PUSH4 0x8456CB59 EQ PUSH2 0x661 JUMPI DUP1 PUSH4 0x8DA5CB5B EQ PUSH2 0x634 JUMPI DUP1 PUSH4 0xB9A7579B EQ PUSH2 0x4CE JUMPI DUP1 PUSH4 0xCCBAE5F6 EQ PUSH2 0x337 JUMPI DUP1 PUSH4 0xD1BB5CF1 EQ PUSH2 0x30A JUMPI DUP1 PUSH4 0xE63EA408 EQ PUSH2 0x20A JUMPI DUP1 PUSH4 0xF2FDE38B EQ PUSH2 0x16E JUMPI PUSH4 0xF49A52AA EQ PUSH2 0xDE JUMPI PUSH1 0x0 DUP1 REVERT JUMPDEST CALLVALUE PUSH2 0x16A JUMPI PUSH1 0x20 CALLDATASIZE PUSH1 0x3 NOT ADD SLT PUSH2 0x16A JUMPI PUSH2 0xF7 PUSH2 0xDD8 JUMP JUMPDEST PUSH2 0xFF PUSH2 0xE04 JUMP JUMPDEST PUSH1 0x1 PUSH1 0x1 PUSH1 0xA0 SHL SUB AND SWAP2 DUP3 ISZERO PUSH2 0x127 JUMPI POP POP PUSH1 0x1 PUSH1 0x1 PUSH1 0x60 SHL SUB PUSH1 0xA0 SHL PUSH1 0x5 SLOAD AND OR PUSH1 0x5 SSTORE DUP1 RETURN JUMPDEST SWAP1 PUSH1 0x20 PUSH1 0x64 SWAP3 MLOAD SWAP2 PUSH3 0x461BCD PUSH1 0xE5 SHL DUP4 MSTORE DUP3 ADD MSTORE PUSH1 0x1B PUSH1 0x24 DUP3 ADD MSTORE PUSH32 0x496E76616C6964206D61726B6574706C61636520616464726573730000000000 PUSH1 0x44 DUP3 ADD MSTORE REVERT JUMPDEST DUP3 DUP1 REVERT JUMPDEST POP CALLVALUE PUSH2 0x16A JUMPI PUSH1 0x20 CALLDATASIZE PUSH1 0x3 NOT ADD SLT PUSH2 0x16A JUMPI PUSH2 0x188 PUSH2 0xDD8 JUMP JUMPDEST PUSH2 0x190 PUSH2 0xE04 JUMP JUMPDEST PUSH1 0x1 PUSH1 0x1 PUSH1 0xA0 SHL SUB DUP2 DUP2 AND SWAP4 SWAP1 SWAP3 SWAP1 DUP5 ISZERO PUSH2 0x1F4 JUMPI POP POP PUSH1 0x1 DUP1 SLOAD PUSH2 0x100 PUSH1 0x1 PUSH1 0xA8 SHL SUB NOT DUP2 AND PUSH1 0x8 SWAP4 DUP5 SHL PUSH2 0x100 PUSH1 0x1 PUSH1 0xA8 SHL SUB AND OR SWAP1 SWAP2 SSTORE SWAP1 SHR AND PUSH32 0x8BE0079C531659141344CD1FD0A4F28419497F9722A3DAAFE3B4186F6B6457E0 DUP4 DUP1 LOG3 DUP1 RETURN JUMPDEST MLOAD PUSH4 0x1E4FBDF7 PUSH1 0xE0 SHL DUP2 MSTORE SWAP1 DUP2 ADD DUP6 SWAP1 MSTORE PUSH1 0x24 SWAP1 REVERT JUMPDEST POP CALLVALUE PUSH2 0x16A JUMPI PUSH1 0x60 CALLDATASIZE PUSH1 0x3 NOT ADD SLT PUSH2 0x16A JUMPI PUSH2 0x224 PUSH2 0xDD8 JUMP JUMPDEST PUSH2 0x22C PUSH2 0xDEE JUMP JUMPDEST PUSH2 0x234 PUSH2 0xE04 JUMP JUMPDEST PUSH1 0x1 PUSH1 0x1 PUSH1 0xA0 SHL SUB DUP2 DUP2 AND ISZERO PUSH2 0x2C7 JUMPI DUP5 MLOAD PUSH4 0xA9059CBB PUSH1 0xE0 SHL DUP2 MSTORE PUSH1 0x1 PUSH1 0x1 PUSH1 0xA0 SHL SUB SWAP3 SWAP1 SWAP3 AND SWAP4 DUP3 ADD SWAP4 DUP5 MSTORE PUSH1 0x44 CALLDATALOAD PUSH1 0x20 DUP1 DUP7 ADD SWAP2 SWAP1 SWAP2 MSTORE SWAP2 SWAP5 SWAP4 SWAP2 SWAP3 DUP6 SWAP3 DUP4 SWAP1 SUB PUSH1 0x40 ADD SWAP2 DUP4 SWAP2 DUP9 SWAP2 AND GAS CALL SWAP1 DUP2 ISZERO PUSH2 0x2BE JUMPI POP PUSH2 0x293 JUMPI POP DUP1 RETURN JUMPDEST PUSH2 0x2B3 SWAP1 PUSH1 0x20 RETURNDATASIZE DUP2 GT PUSH2 0x2B7 JUMPI JUMPDEST PUSH2 0x2AB DUP2 DUP4 PUSH2 0xEC0 JUMP JUMPDEST DUP2 ADD SWAP1 PUSH2 0xF7F JUMP JUMPDEST POP DUP1 RETURN JUMPDEST POP RETURNDATASIZE PUSH2 0x2A1 JUMP JUMPDEST MLOAD RETURNDATASIZE DUP5 DUP3 RETURNDATACOPY RETURNDATASIZE SWAP1 REVERT JUMPDEST DUP5 MLOAD PUSH3 0x461BCD PUSH1 0xE5 SHL DUP2 MSTORE PUSH1 0x20 DUP2 DUP7 ADD MSTORE PUSH1 0x1F PUSH1 0x24 DUP3 ADD MSTORE PUSH32 0x43616E6E6F7420776974686472617720746F207A65726F206164647265737300 PUSH1 0x44 DUP3 ADD MSTORE PUSH1 0x64 SWAP1 REVERT JUMPDEST POP POP CALLVALUE PUSH2 0x333 JUMPI DUP2 PUSH1 0x3 NOT CALLDATASIZE ADD SLT PUSH2 0x333 JUMPI PUSH1 0x5 SLOAD SWAP1 MLOAD PUSH1 0x1 PUSH1 0x1 PUSH1 0xA0 SHL SUB SWAP1 SWAP2 AND DUP2 MSTORE PUSH1 0x20 SWAP1 RETURN JUMPDEST POP DUP1 REVERT JUMPDEST POP SWAP2 CALLVALUE PUSH2 0x4CB JUMPI PUSH1 0x80 CALLDATASIZE PUSH1 0x3 NOT ADD SLT PUSH2 0x4CB JUMPI PUSH2 0x352 PUSH2 0xDD8 JUMP JUMPDEST SWAP3 PUSH2 0x35B PUSH2 0xDEE JUMP JUMPDEST SWAP4 PUSH1 0x44 CALLDATALOAD PUSH1 0x64 CALLDATALOAD SWAP6 PUSH1 0x1 DUP1 PUSH1 0xA0 SHL SUB PUSH2 0x379 DUP2 PUSH1 0x5 SLOAD AND CALLER EQ PUSH2 0xE33 JUMP JUMPDEST PUSH2 0x381 PUSH2 0xE7F JUMP JUMPDEST PUSH2 0x389 PUSH2 0xE9D JUMP JUMPDEST PUSH1 0x3 SLOAD PUSH1 0x0 NOT SWAP4 SWAP1 DUP5 DUP2 EQ PUSH2 0x4B8 JUMPI PUSH1 0x1 ADD SWAP4 DUP5 PUSH1 0x3 SSTORE NUMBER ADD NUMBER DUP2 GT PUSH2 0x4B8 JUMPI DUP9 MLOAD SWAP5 PUSH1 0x20 DUP7 ADD SWAP7 DUP5 DUP2 AND SWAP5 PUSH1 0x1 PUSH1 0x1 PUSH1 0x60 SHL SUB NOT DUP1 SWAP3 PUSH1 0x60 SHL AND DUP10 MSTORE DUP7 AND SWAP6 PUSH1 0x60 SHL AND PUSH1 0x34 DUP8 ADD MSTORE TIMESTAMP PUSH1 0x48 DUP8 ADD MSTORE DUP3 PUSH1 0x68 DUP8 ADD MSTORE PUSH1 0x88 DUP7 ADD MSTORE BLOCKHASH PUSH1 0xA8 DUP6 ADD MSTORE PUSH1 0xA8 DUP5 MSTORE PUSH1 0xE0 DUP5 ADD SWAP5 DUP5 DUP7 LT PUSH8 0xFFFFFFFFFFFFFFFF DUP8 GT OR PUSH2 0x4A5 JUMPI SWAP1 DUP10 SWAP5 SWAP4 SWAP3 SWAP2 DUP7 DUP11 MSTORE DUP5 MLOAD SWAP1 KECCAK256 SWAP10 DUP11 SWAP8 DUP9 DUP11 MSTORE DUP1 PUSH1 0x20 MSTORE DUP11 DUP11 KECCAK256 SWAP3 DUP10 DUP5 SSTORE PUSH1 0x1 DUP5 ADD PUSH1 0x1 PUSH1 0x1 PUSH1 0x60 SHL SUB PUSH1 0xA0 SHL SWAP1 DUP7 DUP3 DUP3 SLOAD AND OR SWAP1 SSTORE DUP7 PUSH1 0x2 DUP7 ADD SWAP2 DUP3 SLOAD AND OR SWAP1 SSTORE PUSH1 0x3 DUP5 ADD SSTORE DUP3 ADD SSTORE DUP8 PUSH1 0x5 DUP3 ADD SSTORE TIMESTAMP PUSH1 0x6 DUP3 ADD SSTORE PUSH1 0x7 ADD PUSH1 0xFF NOT DUP2 SLOAD AND SWAP1 SSTORE DUP5 MSTORE PUSH2 0x100 DUP3 ADD MSTORE PUSH2 0x120 ADD MSTORE PUSH1 0x60 PUSH32 0xDD968C277D9DC6B36B6EC2B638324C3D937882C64CA109440BC050EBF26CB07 SWAP2 LOG2 PUSH1 0x1 SWAP1 SSTORE MLOAD SWAP1 DUP2 MSTORE PUSH1 0x20 SWAP1 RETURN JUMPDEST PUSH4 0x4E487B71 PUSH1 0xE0 SHL DUP9 MSTORE PUSH1 0x41 DUP8 MSTORE PUSH1 0x24 DUP9 REVERT JUMPDEST PUSH4 0x4E487B71 PUSH1 0xE0 SHL DUP9 MSTORE PUSH1 0x11 DUP8 MSTORE PUSH1 0x24 DUP9 REVERT JUMPDEST DUP1 REVERT JUMPDEST POP CALLVALUE PUSH2 0x16A JUMPI PUSH1 0x20 DUP1 PUSH1 0x3 NOT CALLDATASIZE ADD SLT PUSH2 0x630 JUMPI PUSH1 0x5 SLOAD DUP3 CALLDATALOAD SWAP3 PUSH1 0x1 PUSH1 0x1 PUSH1 0xA0 SHL SUB SWAP2 PUSH2 0x4FD SWAP1 DUP4 AND CALLER EQ PUSH2 0xE33 JUMP JUMPDEST PUSH2 0x505 PUSH2 0xE7F JUMP JUMPDEST PUSH2 0x50D PUSH2 0xE9D JUMP JUMPDEST DUP4 DUP7 MSTORE DUP1 DUP4 MSTORE DUP5 DUP7 KECCAK256 SWAP2 PUSH2 0x523 DUP6 DUP5 SLOAD EQ PUSH2 0xEF8 JUMP JUMPDEST PUSH1 0x7 DUP4 ADD SWAP3 DUP4 SLOAD SWAP4 PUSH2 0x537 PUSH1 0xFF DUP7 AND PUSH2 0xF3C JUMP JUMPDEST DUP4 DUP3 ADD SLOAD PUSH1 0x5 DUP4 ADD SLOAD SWAP2 DUP3 DUP3 SUB SWAP7 DUP3 DUP9 GT PUSH2 0x61D JUMPI PUSH1 0xFF NOT AND SWAP1 SSTORE DUP10 SWAP4 SWAP3 SWAP2 SWAP1 SUB PUSH2 0x565 JUMPI JUMPDEST DUP3 PUSH1 0x1 DUP2 SSTORE DUP1 RETURN JUMPDEST PUSH1 0x2 SLOAD PUSH1 0x1 SWAP2 SWAP1 SWAP2 ADD SLOAD DUP9 MLOAD PUSH4 0xA9059CBB PUSH1 0xE0 SHL DUP2 MSTORE SWAP1 DUP4 AND PUSH1 0x1 PUSH1 0x1 PUSH1 0xA0 SHL SUB AND SWAP5 DUP2 ADD SWAP5 DUP6 MSTORE PUSH1 0x20 DUP6 ADD DUP7 SWAP1 MSTORE SWAP4 DUP7 SWAP4 DUP6 SWAP4 SWAP1 SWAP3 AND SWAP2 DUP4 SWAP2 DUP3 SWAP1 PUSH1 0x40 ADD SUB SWAP3 GAS CALL SWAP1 DUP2 ISZERO PUSH2 0x613 JUMPI PUSH32 0x21CABC2FFF910E5AFD1E2BCB22FF2B165A41AB0AFBAF364F07AAF2F7787FB908 SWAP5 SWAP6 SWAP2 PUSH2 0x5E4 SWAP2 DUP9 SWAP2 PUSH2 0x5F6 JUMPI JUMPDEST POP PUSH2 0xF97 JUMP JUMPDEST MLOAD SWAP1 DUP2 MSTORE LOG2 CODESIZE DUP1 DUP1 DUP1 DUP1 DUP6 DUP2 DUP1 PUSH2 0x55D JUMP JUMPDEST PUSH2 0x60D SWAP2 POP DUP6 RETURNDATASIZE DUP8 GT PUSH2 0x2B7 JUMPI PUSH2 0x2AB DUP2 DUP4 PUSH2 0xEC0 JUMP JUMPDEST CODESIZE PUSH2 0x5DE JUMP JUMPDEST DUP6 MLOAD RETURNDATASIZE DUP9 DUP3 RETURNDATACOPY RETURNDATASIZE SWAP1 REVERT JUMPDEST PUSH4 0x4E487B71 PUSH1 0xE0 SHL DUP13 MSTORE PUSH1 0x11 DUP8 MSTORE PUSH1 0x24 DUP13 REVERT JUMPDEST DUP4 DUP1 REVERT JUMPDEST POP POP CALLVALUE PUSH2 0x333 JUMPI DUP2 PUSH1 0x3 NOT CALLDATASIZE ADD SLT PUSH2 0x333 JUMPI PUSH1 0x1 SLOAD SWAP1 MLOAD PUSH1 0x8 SWAP2 SWAP1 SWAP2 SHR PUSH1 0x1 PUSH1 0x1 PUSH1 0xA0 SHL SUB AND DUP2 MSTORE PUSH1 0x20 SWAP1 RETURN JUMPDEST POP POP CALLVALUE PUSH2 0x333 JUMPI DUP2 PUSH1 0x3 NOT CALLDATASIZE ADD SLT PUSH2 0x333 JUMPI PUSH1 0x20 PUSH32 0x62E78CEA01BEE320CD4E420270B5EA74000D11B0C9F74754EBDBFC544B05A258 SWAP2 PUSH2 0x69F PUSH2 0xE04 JUMP JUMPDEST PUSH2 0x6A7 PUSH2 0xE7F JUMP JUMPDEST PUSH1 0x1 PUSH1 0xFF NOT DUP2 SLOAD AND OR PUSH1 0x1 SSTORE MLOAD CALLER DUP2 MSTORE LOG1 DUP1 RETURN JUMPDEST DUP4 CALLVALUE PUSH2 0x4CB JUMPI DUP1 PUSH1 0x3 NOT CALLDATASIZE ADD SLT PUSH2 0x4CB JUMPI PUSH2 0x6D4 PUSH2 0xE04 JUMP JUMPDEST PUSH1 0x1 DUP1 SLOAD PUSH2 0x100 PUSH1 0x1 PUSH1 0xA8 SHL SUB NOT DUP2 AND SWAP1 SWAP2 SSTORE DUP2 SWAP1 PUSH1 0x8 SHR PUSH1 0x1 PUSH1 0x1 PUSH1 0xA0 SHL SUB AND PUSH32 0x8BE0079C531659141344CD1FD0A4F28419497F9722A3DAAFE3B4186F6B6457E0 DUP3 DUP1 LOG3 DUP1 RETURN JUMPDEST POP CALLVALUE PUSH2 0x16A JUMPI DUP2 PUSH1 0x20 SWAP4 PUSH1 0x8 PUSH1 0xFF SWAP4 PUSH2 0x734 CALLDATASIZE PUSH2 0xDBD JUMP JUMPDEST SWAP1 SWAP2 DUP3 DUP6 MSTORE DUP9 MSTORE PUSH2 0x74A DUP6 DUP6 KECCAK256 SWAP3 DUP4 SLOAD EQ PUSH2 0xEF8 JUMP JUMPDEST DUP4 MSTORE ADD DUP6 MSTORE KECCAK256 SLOAD AND SWAP1 MLOAD SWAP1 ISZERO ISZERO DUP2 MSTORE RETURN JUMPDEST POP SWAP1 CALLVALUE PUSH2 0x16A JUMPI PUSH1 0x20 DUP1 PUSH1 0x3 NOT CALLDATASIZE ADD SLT PUSH2 0x630 JUMPI DUP3 CALLDATALOAD SWAP3 PUSH1 0x1 DUP1 PUSH1 0xA0 SHL SUB SWAP2 PUSH2 0x789 DUP4 PUSH1 0x5 SLOAD AND CALLER EQ PUSH2 0xE33 JUMP JUMPDEST PUSH2 0x791 PUSH2 0xE7F JUMP JUMPDEST PUSH2 0x799 PUSH2 0xE9D JUMP JUMPDEST DUP5 DUP7 MSTORE DUP2 DUP2 MSTORE DUP4 DUP7 KECCAK256 SWAP4 PUSH2 0x7AF DUP7 DUP7 SLOAD EQ PUSH2 0xEF8 JUMP JUMPDEST PUSH1 0x7 DUP6 ADD SWAP5 DUP6 SLOAD SWAP5 PUSH1 0xFF DUP7 AND PUSH2 0x8B1 JUMPI SWAP1 DUP4 PUSH1 0x24 SWAP3 PUSH1 0x2 SLOAD AND DUP5 MLOAD SWAP4 DUP5 DUP1 SWAP3 PUSH4 0x70A08231 PUSH1 0xE0 SHL DUP3 MSTORE ADDRESS DUP11 DUP4 ADD MSTORE GAS STATICCALL SWAP2 DUP3 ISZERO PUSH2 0x8A7 JUMPI SWAP1 DUP6 SWAP2 DUP11 SWAP4 PUSH2 0x870 JUMPI JUMPDEST POP ADD SLOAD GT PUSH2 0x82F JUMPI POP POP POP PUSH1 0xFF NOT AND PUSH1 0x1 OR SWAP1 SSTORE PUSH32 0xB01718CC2FEF93A8279B929CECA602BDA7D1D2D9253D23C1CAFE4B5AC2092BA4 DUP3 DUP1 LOG2 PUSH1 0x1 DUP2 SSTORE DUP1 RETURN JUMPDEST MLOAD PUSH3 0x461BCD PUSH1 0xE5 SHL DUP2 MSTORE SWAP2 DUP3 ADD MSTORE PUSH1 0x1B PUSH1 0x24 DUP3 ADD MSTORE PUSH32 0x496E73756666696369656E742066756E64732072656365697665640000000000 PUSH1 0x44 DUP3 ADD MSTORE PUSH1 0x64 SWAP2 POP REVERT JUMPDEST DUP6 DUP1 SWAP3 SWAP5 POP DUP2 SWAP4 POP RETURNDATASIZE DUP4 GT PUSH2 0x8A0 JUMPI JUMPDEST PUSH2 0x88A DUP2 DUP4 PUSH2 0xEC0 JUMP JUMPDEST DUP2 ADD SUB SLT PUSH2 0x89C JUMPI DUP5 SWAP1 MLOAD SWAP2 CODESIZE PUSH2 0x7F0 JUMP JUMPDEST DUP9 DUP1 REVERT JUMPDEST POP RETURNDATASIZE PUSH2 0x880 JUMP JUMPDEST DUP4 MLOAD RETURNDATASIZE DUP12 DUP3 RETURNDATACOPY RETURNDATASIZE SWAP1 REVERT JUMPDEST POP POP MLOAD PUSH3 0x461BCD PUSH1 0xE5 SHL DUP2 MSTORE SWAP2 DUP3 ADD MSTORE PUSH1 0x18 PUSH1 0x24 DUP3 ADD MSTORE PUSH32 0x457363726F7720697320616C7265616479206163746976650000000000000000 PUSH1 0x44 DUP3 ADD MSTORE PUSH1 0x64 SWAP2 POP REVERT JUMPDEST POP CALLVALUE PUSH2 0x16A JUMPI PUSH2 0x903 CALLDATASIZE PUSH2 0xDBD JUMP JUMPDEST PUSH1 0x5 SLOAD SWAP2 SWAP4 PUSH1 0x1 PUSH1 0x1 PUSH1 0xA0 SHL SUB SWAP3 PUSH2 0x91E SWAP1 DUP5 AND CALLER EQ PUSH2 0xE33 JUMP JUMPDEST PUSH2 0x926 PUSH2 0xE7F JUMP JUMPDEST PUSH2 0x92E PUSH2 0xE9D JUMP JUMPDEST DUP5 DUP7 MSTORE PUSH1 0x20 DUP5 DUP2 MSTORE DUP2 DUP8 KECCAK256 SWAP5 PUSH2 0x946 DUP8 DUP8 SLOAD EQ PUSH2 0xEF8 JUMP JUMPDEST PUSH1 0x7 DUP7 ADD SWAP6 PUSH2 0x958 PUSH1 0xFF DUP9 SLOAD AND PUSH2 0xF3C JUMP JUMPDEST PUSH1 0x19 DUP6 EQ DUP1 ISZERO PUSH2 0xBFF JUMPI JUMPDEST DUP1 ISZERO PUSH2 0xBF5 JUMPI JUMPDEST DUP1 ISZERO PUSH2 0xBEB JUMPI JUMPDEST ISZERO PUSH2 0xB9B JUMPI PUSH1 0x8 DUP2 ADD SWAP2 DUP6 DUP11 MSTORE DUP3 DUP5 MSTORE PUSH1 0xFF DUP6 DUP12 KECCAK256 SLOAD AND PUSH2 0xB47 JUMPI PUSH1 0x19 DUP7 GT PUSH2 0xAC4 JUMPI JUMPDEST DUP1 DUP3 ADD SLOAD PUSH1 0x2 SHR SWAP3 DUP7 DUP12 MSTORE DUP5 MSTORE DUP5 DUP11 KECCAK256 SWAP7 PUSH1 0xFF NOT SWAP8 PUSH1 0x1 DUP10 DUP3 SLOAD AND OR SWAP1 SSTORE PUSH1 0x5 DUP4 ADD DUP1 SLOAD SWAP1 DUP6 DUP3 ADD DUP1 SWAP3 GT PUSH2 0xAB1 JUMPI SSTORE PUSH1 0x2 DUP1 SLOAD SWAP4 ADD SLOAD DUP7 MLOAD PUSH4 0xA9059CBB PUSH1 0xE0 SHL DUP2 MSTORE SWAP1 DUP3 AND PUSH1 0x1 PUSH1 0x1 PUSH1 0xA0 SHL SUB AND SWAP3 DUP2 ADD SWAP3 DUP4 MSTORE PUSH1 0x20 DUP4 ADD DUP6 SWAP1 MSTORE SWAP3 DUP6 SWAP3 DUP5 SWAP3 SWAP1 SWAP2 AND SWAP1 DUP3 SWAP1 DUP14 SWAP1 DUP3 SWAP1 PUSH1 0x40 ADD SUB SWAP3 GAS CALL SWAP1 DUP2 ISZERO PUSH2 0xAA7 JUMPI SWAP3 PUSH32 0x75BE8D7515237236CFB3E6C6AA6F74FB8DD8DB900B6F433310F89D497092D78F SWAP3 PUSH2 0xA47 PUSH1 0x64 SWAP8 SWAP7 SWAP4 DUP12 SWAP7 DUP14 SWAP2 PUSH2 0xA90 JUMPI POP PUSH2 0xF97 JUMP JUMPDEST DUP3 MLOAD SWAP2 DUP7 DUP4 MSTORE DUP3 ADD MSTORE LOG2 EQ PUSH2 0xA5F JUMPI JUMPDEST DUP4 PUSH1 0x1 DUP2 SSTORE DUP1 RETURN JUMPDEST DUP2 SLOAD AND SWAP1 SSTORE PUSH32 0xF13B3BFA8CD084CADAB3723A031C3F1C641CE6072626163D3100C1CD14C18A28 DUP3 DUP1 LOG2 CODESIZE DUP1 DUP1 PUSH2 0xA57 JUMP JUMPDEST PUSH2 0x60D SWAP2 POP DUP5 RETURNDATASIZE DUP7 GT PUSH2 0x2B7 JUMPI PUSH2 0x2AB DUP2 DUP4 PUSH2 0xEC0 JUMP JUMPDEST DUP5 MLOAD RETURNDATASIZE DUP12 DUP3 RETURNDATACOPY RETURNDATASIZE SWAP1 REVERT JUMPDEST PUSH4 0x4E487B71 PUSH1 0xE0 SHL DUP14 MSTORE PUSH1 0x11 DUP5 MSTORE PUSH1 0x24 DUP14 REVERT JUMPDEST PUSH1 0x18 NOT DUP7 ADD DUP7 DUP2 GT PUSH2 0xB34 JUMPI DUP11 MSTORE DUP3 DUP5 MSTORE PUSH1 0xFF DUP6 DUP12 KECCAK256 SLOAD AND PUSH2 0x995 JUMPI DUP5 MLOAD PUSH3 0x461BCD PUSH1 0xE5 SHL DUP2 MSTORE SWAP1 DUP2 ADD DUP5 SWAP1 MSTORE PUSH1 0x28 PUSH1 0x24 DUP3 ADD MSTORE PUSH32 0x50726576696F7573206D696C6573746F6E6520686173206E6F74206265656E20 PUSH1 0x44 DUP3 ADD MSTORE PUSH8 0x1C995B19585CD959 PUSH1 0xC2 SHL PUSH1 0x64 DUP3 ADD MSTORE PUSH1 0x84 SWAP1 REVERT JUMPDEST PUSH4 0x4E487B71 PUSH1 0xE0 SHL DUP12 MSTORE PUSH1 0x11 DUP3 MSTORE PUSH1 0x24 DUP12 REVERT JUMPDEST DUP5 MLOAD PUSH3 0x461BCD PUSH1 0xE5 SHL DUP2 MSTORE SWAP1 DUP2 ADD DUP5 SWAP1 MSTORE PUSH1 0x28 PUSH1 0x24 DUP3 ADD MSTORE PUSH32 0x54686973206D696C6573746F6E652068617320616C7265616479206265656E20 PUSH1 0x44 DUP3 ADD MSTORE PUSH8 0x1C995B19585CD959 PUSH1 0xC2 SHL PUSH1 0x64 DUP3 ADD MSTORE PUSH1 0x84 SWAP1 REVERT JUMPDEST POP SWAP2 MLOAD PUSH3 0x461BCD PUSH1 0xE5 SHL DUP2 MSTORE SWAP2 DUP3 ADD MSTORE PUSH1 0x25 PUSH1 0x24 DUP3 ADD MSTORE PUSH32 0x50657263656E74616765206D7573742062652032352C2035302C2037352C206F PUSH1 0x44 DUP3 ADD MSTORE PUSH5 0x722031303 PUSH1 0xDC SHL PUSH1 0x64 DUP3 ADD MSTORE PUSH1 0x84 SWAP1 REVERT JUMPDEST POP PUSH1 0x64 DUP6 EQ PUSH2 0x971 JUMP JUMPDEST POP PUSH1 0x4B DUP6 EQ PUSH2 0x96A JUMP JUMPDEST POP PUSH1 0x32 DUP6 EQ PUSH2 0x963 JUMP JUMPDEST POP POP CALLVALUE PUSH2 0x333 JUMPI DUP2 PUSH1 0x3 NOT CALLDATASIZE ADD SLT PUSH2 0x333 JUMPI PUSH1 0x20 SWAP1 PUSH1 0xFF PUSH1 0x1 SLOAD AND SWAP1 MLOAD SWAP1 ISZERO ISZERO DUP2 MSTORE RETURN JUMPDEST POP CALLVALUE PUSH2 0x16A JUMPI PUSH1 0x20 CALLDATASIZE PUSH1 0x3 NOT ADD SLT PUSH2 0x16A JUMPI PUSH1 0xC0 SWAP3 PUSH2 0xC5A DUP4 DUP4 CALLDATALOAD SWAP3 DUP4 DUP2 MSTORE DUP5 PUSH1 0x20 MSTORE KECCAK256 SWAP2 DUP3 SLOAD EQ PUSH2 0xEF8 JUMP JUMPDEST PUSH1 0x1 DUP1 PUSH1 0xA0 SHL SUB SWAP3 DUP4 PUSH1 0x1 DUP4 ADD SLOAD AND SWAP4 PUSH1 0x2 DUP4 ADD SLOAD AND SWAP3 PUSH1 0x3 DUP4 ADD SLOAD SWAP1 DUP4 ADD SLOAD SWAP2 PUSH1 0xFF PUSH1 0x7 PUSH1 0x5 DUP7 ADD SLOAD SWAP6 ADD SLOAD AND SWAP5 DUP2 MLOAD SWAP7 DUP8 MSTORE PUSH1 0x20 DUP8 ADD MSTORE DUP6 ADD MSTORE PUSH1 0x60 DUP5 ADD MSTORE PUSH1 0x80 DUP4 ADD MSTORE ISZERO ISZERO PUSH1 0xA0 DUP3 ADD MSTORE RETURN JUMPDEST POP POP CALLVALUE PUSH2 0x333 JUMPI DUP2 PUSH1 0x3 NOT CALLDATASIZE ADD SLT PUSH2 0x333 JUMPI PUSH1 0x2 SLOAD SWAP1 MLOAD PUSH1 0x1 PUSH1 0x1 PUSH1 0xA0 SHL SUB SWAP1 SWAP2 AND DUP2 MSTORE PUSH1 0x20 SWAP1 RETURN JUMPDEST POP CALLVALUE PUSH2 0x16A JUMPI DUP3 PUSH1 0x3 NOT CALLDATASIZE ADD SLT PUSH2 0x16A JUMPI PUSH2 0xCEB PUSH2 0xE04 JUMP JUMPDEST PUSH1 0x1 SLOAD SWAP1 PUSH1 0xFF DUP3 AND ISZERO PUSH2 0xD2D JUMPI POP PUSH1 0xFF NOT AND PUSH1 0x1 SSTORE MLOAD CALLER DUP2 MSTORE PUSH32 0x5DB9EE0A495BF2E6FF9C91A7834C1BA4FDD244A5E8AA4E537BD38AEAE4B073AA SWAP1 PUSH1 0x20 SWAP1 LOG1 DUP1 RETURN JUMPDEST DUP3 MLOAD PUSH4 0x8DFC202B PUSH1 0xE0 SHL DUP2 MSTORE REVERT JUMPDEST SWAP3 SWAP2 SWAP1 POP CALLVALUE PUSH2 0x630 JUMPI PUSH1 0x20 CALLDATASIZE PUSH1 0x3 NOT ADD SLT PUSH2 0x630 JUMPI DUP2 PUSH2 0x100 SWAP5 DUP3 CALLDATALOAD DUP2 MSTORE DUP3 PUSH1 0x20 MSTORE KECCAK256 SWAP1 DUP2 SLOAD SWAP3 PUSH1 0x1 DUP1 PUSH1 0xA0 SHL SUB SWAP2 DUP3 PUSH1 0x1 DUP6 ADD SLOAD AND SWAP3 PUSH1 0x2 DUP6 ADD SLOAD AND PUSH1 0x3 DUP6 ADD SLOAD SWAP2 DUP6 ADD SLOAD SWAP3 PUSH1 0x5 DUP7 ADD SLOAD SWAP5 PUSH1 0xFF PUSH1 0x7 PUSH1 0x6 DUP10 ADD SLOAD SWAP9 ADD SLOAD AND SWAP8 DUP10 MSTORE PUSH1 0x20 DUP10 ADD MSTORE DUP8 ADD MSTORE PUSH1 0x60 DUP7 ADD MSTORE PUSH1 0x80 DUP6 ADD MSTORE PUSH1 0xA0 DUP5 ADD MSTORE PUSH1 0xC0 DUP4 ADD MSTORE ISZERO ISZERO PUSH1 0xE0 DUP3 ADD MSTORE RETURN JUMPDEST PUSH1 0x40 SWAP1 PUSH1 0x3 NOT ADD SLT PUSH2 0xDD3 JUMPI PUSH1 0x4 CALLDATALOAD SWAP1 PUSH1 0x24 CALLDATALOAD SWAP1 JUMP JUMPDEST PUSH1 0x0 DUP1 REVERT JUMPDEST PUSH1 0x4 CALLDATALOAD SWAP1 PUSH1 0x1 PUSH1 0x1 PUSH1 0xA0 SHL SUB DUP3 AND DUP3 SUB PUSH2 0xDD3 JUMPI JUMP JUMPDEST PUSH1 0x24 CALLDATALOAD SWAP1 PUSH1 0x1 PUSH1 0x1 PUSH1 0xA0 SHL SUB DUP3 AND DUP3 SUB PUSH2 0xDD3 JUMPI JUMP JUMPDEST PUSH1 0x1 SLOAD PUSH1 0x8 SHR PUSH1 0x1 PUSH1 0x1 PUSH1 0xA0 SHL SUB AND CALLER SUB PUSH2 0xE1B JUMPI JUMP JUMPDEST PUSH1 0x40 MLOAD PUSH4 0x118CDAA7 PUSH1 0xE0 SHL DUP2 MSTORE CALLER PUSH1 0x4 DUP3 ADD MSTORE PUSH1 0x24 SWAP1 REVERT JUMPDEST ISZERO PUSH2 0xE3A JUMPI JUMP JUMPDEST PUSH1 0x40 MLOAD PUSH3 0x461BCD PUSH1 0xE5 SHL DUP2 MSTORE PUSH1 0x20 PUSH1 0x4 DUP3 ADD MSTORE PUSH1 0x1D PUSH1 0x24 DUP3 ADD MSTORE PUSH32 0x43616C6C6572206973206E6F7420746865206D61726B6574706C616365000000 PUSH1 0x44 DUP3 ADD MSTORE PUSH1 0x64 SWAP1 REVERT JUMPDEST PUSH1 0xFF PUSH1 0x1 SLOAD AND PUSH2 0xE8B JUMPI JUMP JUMPDEST PUSH1 0x40 MLOAD PUSH4 0xD93C0665 PUSH1 0xE0 SHL DUP2 MSTORE PUSH1 0x4 SWAP1 REVERT JUMPDEST PUSH1 0x2 PUSH1 0x0 SLOAD EQ PUSH2 0xEAE JUMPI PUSH1 0x2 PUSH1 0x0 SSTORE JUMP JUMPDEST PUSH1 0x40 MLOAD PUSH4 0x3EE5AEB5 PUSH1 0xE0 SHL DUP2 MSTORE PUSH1 0x4 SWAP1 REVERT JUMPDEST SWAP1 PUSH1 0x1F DUP1 NOT SWAP2 ADD AND DUP2 ADD SWAP1 DUP2 LT PUSH8 0xFFFFFFFFFFFFFFFF DUP3 GT OR PUSH2 0xEE2 JUMPI PUSH1 0x40 MSTORE JUMP JUMPDEST PUSH4 0x4E487B71 PUSH1 0xE0 SHL PUSH1 0x0 MSTORE PUSH1 0x41 PUSH1 0x4 MSTORE PUSH1 0x24 PUSH1 0x0 REVERT JUMPDEST ISZERO PUSH2 0xEFF JUMPI JUMP JUMPDEST PUSH1 0x40 MLOAD PUSH3 0x461BCD PUSH1 0xE5 SHL DUP2 MSTORE PUSH1 0x20 PUSH1 0x4 DUP3 ADD MSTORE PUSH1 0x15 PUSH1 0x24 DUP3 ADD MSTORE PUSH21 0x115CD8DC9BDDC8191BD95CC81B9BDD08195E1A5CDD PUSH1 0x5A SHL PUSH1 0x44 DUP3 ADD MSTORE PUSH1 0x64 SWAP1 REVERT JUMPDEST ISZERO PUSH2 0xF43 JUMPI JUMP JUMPDEST PUSH1 0x40 MLOAD PUSH3 0x461BCD PUSH1 0xE5 SHL DUP2 MSTORE PUSH1 0x20 PUSH1 0x4 DUP3 ADD MSTORE PUSH1 0x14 PUSH1 0x24 DUP3 ADD MSTORE PUSH20 0x457363726F77206973206E6F7420616374697665 PUSH1 0x60 SHL PUSH1 0x44 DUP3 ADD MSTORE PUSH1 0x64 SWAP1 REVERT JUMPDEST SWAP1 DUP2 PUSH1 0x20 SWAP2 SUB SLT PUSH2 0xDD3 JUMPI MLOAD DUP1 ISZERO ISZERO DUP2 SUB PUSH2 0xDD3 JUMPI SWAP1 JUMP JUMPDEST ISZERO PUSH2 0xF9E JUMPI JUMP JUMPDEST PUSH1 0x40 MLOAD PUSH3 0x461BCD PUSH1 0xE5 SHL DUP2 MSTORE PUSH1 0x20 PUSH1 0x4 DUP3 ADD MSTORE PUSH1 0x15 PUSH1 0x24 DUP3 ADD MSTORE PUSH21 0x151BDAD95B881D1C985B9CD9995C8819985A5B1959 PUSH1 0x5A SHL PUSH1 0x44 DUP3 ADD MSTORE PUSH1 0x64 SWAP1 REVERT INVALID LOG2 PUSH5 0x6970667358 0x22 SLT KECCAK256 DUP16 PUSH20 0xBD58F02E8FAEAF6BA2BC11BED430B9639652A5EC ADDRESS MUL PUSH26 0xAD80B81B2EE54864736F6C634300081400330000000000000000 "},"methodIdentifiers":{"createEscrow(address,address,uint256,uint256)":"ccbae5f6","emergencyWithdraw(address,address,uint256)":"e63ea408","energyToken()":"4ec7fb81","escrows(bytes32)":"2d83549c","getEscrowDetails(bytes32)":"51a89ce8","isMilestoneReleased(bytes32,uint256)":"6c459681","marketplaceContract()":"d1bb5cf1","owner()":"8da5cb5b","pause()":"8456cb59","paused()":"5c975abb","processRefund(bytes32)":"b9a7579b","releasePayment(bytes32,uint256)":"5d655fb1","renounceOwnership()":"715018a6","startEscrow(bytes32)":"6789f9cb","transferOwnership(address)":"f2fde38b","unpause()":"3f4ba83a","updateMarketplaceContract(address)":"f49a52aa"}}}}}