{"contracts/EnergyTrade.sol":{"EnergyTrade":{"abi":[{"inputs":[{"internalType":"address","name":"tokenAddress","type":"address"}],"stateMutability":"nonpayable","type":"constructor"},{"inputs":[],"name":"ReentrancyGuardReentrantCall","type":"error"},{"anonymous":false,"inputs":[],"name":"EmergencyStopActivated","type":"event"},{"anonymous":false,"inputs":[],"name":"EmergencyStopDeactivated","type":"event"},{"anonymous":false,"inputs":[{"indexed":true,"internalType":"address","name":"producer","type":"address"},{"indexed":false,"internalType":"uint256","name":"amount","type":"uint256"},{"indexed":false,"internalType":"uint256","name":"pricePerUnit","type":"uint256"},{"indexed":false,"internalType":"uint256","name":"offerId","type":"uint256"}],"name":"EnergyDeposited","type":"event"},{"anonymous":false,"inputs":[{"indexed":false,"internalType":"uint256","name":"offerId","type":"uint256"}],"name":"EnergyOfferCanceled","type":"event"},{"anonymous":false,"inputs":[{"indexed":true,"internalType":"address","name":"buyer","type":"address"},{"indexed":true,"internalType":"address","name":"producer","type":"address"},{"indexed":false,"internalType":"uint256","name":"amount","type":"uint256"},{"indexed":false,"internalType":"uint256","name":"price","type":"uint256"}],"name":"EnergyPurchased","type":"event"},{"anonymous":false,"inputs":[{"indexed":true,"internalType":"address","name":"producer","type":"address"},{"indexed":false,"internalType":"uint256","name":"amount","type":"uint256"}],"name":"EnergyWithdrawn","type":"event"},{"anonymous":false,"inputs":[{"indexed":true,"internalType":"address","name":"participant","type":"address"},{"indexed":false,"internalType":"string","name":"name","type":"string"}],"name":"ParticipantRegistered","type":"event"},{"inputs":[{"internalType":"uint256","name":"offerId","type":"uint256"}],"name":"cancelEnergyOffer","outputs":[],"stateMutability":"nonpayable","type":"function"},{"inputs":[],"name":"deactivateEmergencyStop","outputs":[],"stateMutability":"nonpayable","type":"function"},{"inputs":[{"internalType":"uint256","name":"amount","type":"uint256"},{"internalType":"uint256","name":"pricePerUnit","type":"uint256"}],"name":"depositEnergy","outputs":[],"stateMutability":"nonpayable","type":"function"},{"inputs":[{"internalType":"address","name":"buyerAddress","type":"address"},{"internalType":"address","name":"sellerAddress","type":"address"},{"internalType":"uint256","name":"transactionId","type":"uint256"}],"name":"disputeTransaction","outputs":[],"stateMutability":"nonpayable","type":"function"},{"inputs":[],"name":"emergencyStop","outputs":[],"stateMutability":"nonpayable","type":"function"},{"inputs":[{"internalType":"uint256","name":"","type":"uint256"}],"name":"energyOffers","outputs":[{"internalType":"address","name":"producer","type":"address"},{"internalType":"uint256","name":"amount","type":"uint256"},{"internalType":"uint256","name":"pricePerUnit","type":"uint256"},{"internalType":"bool","name":"isActive","type":"bool"}],"stateMutability":"view","type":"function"},{"inputs":[],"name":"energyToken","outputs":[{"internalType":"contract IERC20","name":"","type":"address"}],"stateMutability":"view","type":"function"},{"inputs":[],"name":"getEnergyOffers","outputs":[{"components":[{"internalType":"address","name":"producer","type":"address"},{"internalType":"uint256","name":"amount","type":"uint256"},{"internalType":"uint256","name":"pricePerUnit","type":"uint256"},{"internalType":"bool","name":"isActive","type":"bool"}],"internalType":"struct EnergyTrade.EnergyOffer[]","name":"","type":"tuple[]"}],"stateMutability":"view","type":"function"},{"inputs":[{"internalType":"address","name":"participantAddress","type":"address"}],"name":"getTradeHistory","outputs":[{"components":[{"internalType":"address","name":"buyer","type":"address"},{"internalType":"address","name":"seller","type":"address"},{"internalType":"uint256","name":"amount","type":"uint256"},{"internalType":"uint256","name":"price","type":"uint256"},{"internalType":"uint256","name":"timestamp","type":"uint256"}],"internalType":"struct EnergyTrade.Trade[]","name":"","type":"tuple[]"}],"stateMutability":"view","type":"function"},{"inputs":[{"internalType":"address","name":"tokenAddress","type":"address"}],"name":"initializeTradingPlatform","outputs":[],"stateMutability":"nonpayable","type":"function"},{"inputs":[],"name":"offerCounter","outputs":[{"internalType":"uint256","name":"","type":"uint256"}],"stateMutability":"view","type":"function"},{"inputs":[{"internalType":"address","name":"","type":"address"}],"name":"participants","outputs":[{"internalType":"string","name":"name","type":"string"},{"internalType":"bool","name":"isRegistered","type":"bool"}],"stateMutability":"view","type":"function"},{"inputs":[{"internalType":"uint256","name":"offerId","type":"uint256"},{"internalType":"uint256","name":"amount","type":"uint256"}],"name":"purchaseEnergy","outputs":[],"stateMutability":"nonpayable","type":"function"},{"inputs":[{"internalType":"address","name":"participantAddress","type":"address"},{"internalType":"string","name":"name","type":"string"}],"name":"registerParticipant","outputs":[],"stateMutability":"nonpayable","type":"function"},{"inputs":[],"name":"stopped","outputs":[{"internalType":"bool","name":"","type":"bool"}],"stateMutability":"view","type":"function"},{"inputs":[{"internalType":"address","name":"","type":"address"},{"internalType":"uint256","name":"","type":"uint256"}],"name":"tradeHistory","outputs":[{"internalType":"address","name":"buyer","type":"address"},{"internalType":"address","name":"seller","type":"address"},{"internalType":"uint256","name":"amount","type":"uint256"},{"internalType":"uint256","name":"price","type":"uint256"},{"internalType":"uint256","name":"timestamp","type":"uint256"}],"stateMutability":"view","type":"function"},{"inputs":[{"internalType":"uint256","name":"offerId","type":"uint256"},{"internalType":"uint256","name":"amount","type":"uint256"}],"name":"withdrawEnergy","outputs":[],"stateMutability":"nonpayable","type":"function"}],"evm":{"bytecode":{"linkReferences":{},"object":"60803461007f57601f61130b38819003918201601f19168301916001600160401b038311848410176100845780849260209460405283398101031261007f57516001600160a01b0381169081900361007f57600160005560ff196006541660065560018060a01b03196001541617600155604051611270908161009b8239f35b600080fd5b634e487b7160e01b600052604160045260246000fdfe60406080815260048036101561001457600080fd5b600090813560e01c90816302a517ab14610e6b57816303b5baae14610c1757816309e69ede14610b2157816320cf1c16146109fb5781632caa99db1461092d57816331f3ab37146106725781633fa2f8011461061a5781634ec7fb81146105f157816356eb088b1461056d578163621044b41461053457816363a599a4146104ef57816368df5711146103b157816375f12b211461038d5781639f2663d214610333578163a5b7d8351461028e57508063b7a3c1da1461026b5763ea493db6146100dd57600080fd5b34610268578060031936011261026857906005546100fa8161120e565b9261010783519485610f66565b818452601f196101168361120e565b01815b8181106102305750508091600192835b8281111561019957505050825192602080850191818652865180935281818701970193905b83821061015b5786880387f35b845180516001600160a01b0316895283810151848a015281810151828a0152606090810151151590890152608090970196938201939085019061014e565b8084969497959752600360209080825260ff868920918201541690816101d1575b5050506101c690611083565b959395949294610129565b916101c69394916002610227948951936101ea85610f4a565b81546001600160a01b031685528d82015490850152015488830152151560608201526102168289611226565b526102218188611226565b50611083565b919038806101ba565b6020908593959694965161024381610f4a565b8681528287818301528786830152876060830152828701015201949294939193610119565b80fd5b50903461028a578160031936011261028a576020906005549051908152f35b5080fd5b8391503461032f57602036600319011261032f577fc08033a1471ba43a35f49ebb61c3ef344b52f4a9b4369c4723e0ca50a09cc893916020913590338552600283526102e260ff6001838820015416610ffa565b6102f160ff6006541615611037565b81855260038084528186208054610312906001600160a01b031633146111cf565b01805461032160ff82166110a8565b60ff1916905551908152a180f35b8280fd5b82843461028a57606036600319011261028a5761034e610ec8565b506024356001600160a01b0381160361028a5760ff600161037b9233855260026020528420015416610ffa565b61038a60ff6006541615611037565b80f35b82843461028a578160031936011261028a5760209060ff6006541690519015158152f35b8391503461032f576103c236610ead565b929092338552602092600284526103e160ff6001858920015416610ffa565b6103f060ff6006541615611037565b84156104ae5750610476610405600554611083565b80600555600384519161041783610f4a565b338352868301888152868401908682526060850192600184528b52838952878b209460018060a01b039051166001600160601b0360a01b86541617855551600185015551600284015551151591019060ff801983541691151516179055565b6005549282519485528401528201527f14b07b963a834e1ea737910357471f18fe3af5ea9035fcfd6bdfd62d1b48308060603392a280f35b606490848085519262461bcd60e51b845283015260248201527f416d6f756e74206d7573742062652067726561746572207468616e207a65726f6044820152fd5b8234610268578060031936011261026857600160ff1960065416176006557f4e360eaf5c2a0e4ebb03155da87ffa096252cc2ec66db5848b4ef13e99172bbd8180a180f35b8234610268576020366003190112610268576001600160a01b03610556610ec8565b166001600160601b0360a01b600154161760015580f35b9050823461032f578060031936011261032f57610588610ec8565b6001600160a01b039081168452602083905281842080546024359592949290861015610268575060a0946105bb91610fc8565b50908382541693600183015416926002830154916003840154930154938151958652602086015284015260608301526080820152f35b82843461028a578160031936011261028a5760015490516001600160a01b039091168152602090f35b8391503461032f57602036600319011261032f5760809282913581526003602052209060018060a01b038254169160018101549160ff6003600284015493015416928151948552602085015283015215156060820152f35b8391503461032f578160031936011261032f5761068d610ec8565b9060249283359167ffffffffffffffff9485841161092957366023850112156109295783820135908682116109185783519588602096601f19946106d88987601f840116018b610f66565b808a523685828401011161032f5780858a9301838c01378901015260018060a01b0316968789526002865260019260ff84878c200154166108e157855194868601868110848211176108cf578752888652878601938585528a8c5260028952878c2096519182519485116108be5750506107528654610ede565b601f8111610878575b508a8892601f85116001146107ed575092807fbdb8c03a851fc898fb30c8b14ee28c26374ac77692867f54fbf009402f516e619a999896936107cd96936107dc9996926107e2575b5050600019600383901b1c191690831b1783555b51151591019060ff801983541691151516179055565b51928284938452830190610f88565b0390a280f35b015190508d806107a3565b878d52898d209392915084168c5b81811061086357509386936107cd96937fbdb8c03a851fc898fb30c8b14ee28c26374ac77692867f54fbf009402f516e619c9b9a9893836107dc9b981061084a575b505050811b0183556107b7565b015160001960f88460031b161c191690558d808061083d565b82840151855593870193928a01928a016107fb565b868c52888c20601f850160051c8101918a86106108b4575b601f0160051c019086905b8281106108a957505061075b565b8d815501869061089b565b9091508190610890565b634e487b7160e01b8d52604190528bfd5b634e487b7160e01b8c5260418252848cfd5b855162461bcd60e51b815280860188905260128185015271105b1c9958591e481c9959da5cdd195c995960721b6044820152606490fd5b634e487b7160e01b88526041835287fd5b8680fd5b82843461028a5761093d36610ead565b9190338452600260205261095960ff6001848720015416610ffa565b61096860ff6006541615611037565b835260036020528083208054610988906001600160a01b031633146111cf565b6003810190600182549161099e60ff84166110a8565b016109b68582546109b1828210156110e7565b611133565b809155156109ee575b5050519081527f3e191f34827057ae7a024d0827da720a2f1b54e6955366eb13e7e12493a9f8a360203392a280f35b60ff1916905583806109bf565b91905034610268576020918260031936011261028a576001600160a01b0392919083610a25610ec8565b168252808352848220928354610a3a8161120e565b92610a4788519485610f66565b81845282840190819686528386209086925b898b868610610acd5795505050505050519481860192828752518093528686019493905b838210610a8a5786860387f35b8451805182168752808401518216878501528881015189880152606080820151908801526080908101519087015260a09095019493820193600190910190610a7d565b9660019260059289839b9c9a5191610ae483610f18565b8089541683528689015416848301526002880154908201526003870154606082015285870154608082015281520193019301929196959496610a59565b82843461028a5760208060031936011261032f576001600160a01b03610b45610ec8565b16835260028152818320928251938482825493610b6185610ede565b90818452600195878782169182600014610bf5575050600114610bb3575b505060ff939291610b91910387610f66565b01541690610ba88351948486958652850190610f88565b911515908301520390f35b949392915085908386528186205b818710610bdc57509394929350909182010181610b91610b7f565b80548a8801840152919095019488925086918501610bc1565b60ff19168682015292151560051b85019092019250839150610b919050610b7f565b82843461028a57610c2736610ead565b909133845260209260028452610c4560ff6001848820015416610ffa565b610c5460ff6006541615611037565b6002855414610e5b57600285558452600383528084206003810190610c7c60ff8354166110a8565b6001810190610c8e85835410156110e7565b600281015492838602938685041486151715610e4857600154825486516323b872dd60e01b815233818d01526001600160a01b039182166024820152604481018790529094918990829060649082908e908a165af1908115610e3e578a91610e04575b5015610dc95798610da6918a610d2c897f1cbe81348d01d294ac68391c5ba74e03143dc0a19a85ee2dfb5adeca547fc5e29a9b9c9d54611133565b80915515610dbb575b50338a52808952610d70868b208585541690885191610d5383610f18565b3383528c8301528a89830152876060830152426080830152611140565b8383541690818b528952858a20865191610d8983610f18565b3383528a8301528887830152856060830152426080830152611140565b54169482519485528401523392a36001815580f35b805460ff191690558a610d35565b855162461bcd60e51b8152808b018990526015602482015274151bdad95b881d1c985b9cd9995c8819985a5b1959605a1b6044820152606490fd5b90508881813d8311610e37575b610e1b8183610f66565b81010312610e3357518015158103610e33578b610cf1565b8980fd5b503d610e11565b87513d8c823e3d90fd5b634e487b7160e01b885260118952602488fd5b8151633ee5aeb560e01b81528690fd5b823461026857806003193601126102685760ff19600654166006557f8aecbeb9f7203ec3dc62d2b9d20d5bcd70fe3808addcd647fc09e8b648441d928180a180f35b6040906003190112610ec3576004359060243590565b600080fd5b600435906001600160a01b0382168203610ec357565b90600182811c92168015610f0e575b6020831014610ef857565b634e487b7160e01b600052602260045260246000fd5b91607f1691610eed565b60a0810190811067ffffffffffffffff821117610f3457604052565b634e487b7160e01b600052604160045260246000fd5b6080810190811067ffffffffffffffff821117610f3457604052565b90601f8019910116810190811067ffffffffffffffff821117610f3457604052565b919082519283825260005b848110610fb4575050826000602080949584010152601f8019910116010190565b602081830181015184830182015201610f93565b8054821015610fe4576000526005602060002091020190600090565b634e487b7160e01b600052603260045260246000fd5b1561100157565b60405162461bcd60e51b815260206004820152600e60248201526d139bdd081c9959da5cdd195c995960921b6044820152606490fd5b1561103e57565b60405162461bcd60e51b815260206004820152601860248201527f456d657267656e63792073746f702061637469766174656400000000000000006044820152606490fd5b60001981146110925760010190565b634e487b7160e01b600052601160045260246000fd5b156110af57565b60405162461bcd60e51b815260206004820152601060248201526f4f66666572206e6f742061637469766560801b6044820152606490fd5b156110ee57565b60405162461bcd60e51b815260206004820152601b60248201527f4e6f7420656e6f75676820656e6572677920617661696c61626c6500000000006044820152606490fd5b9190820391821161109257565b805468010000000000000000811015610f345761116291600182018155610fc8565b9190916111b957608060049160018060a01b03808251166001600160601b0360a01b908187541617865560018601916020840151169082541617905560408101516002850155606081015160038501550151910155565b634e487b7160e01b600052600060045260246000fd5b156111d657565b60405162461bcd60e51b815260206004820152601060248201526f2737ba103a343290383937b23ab1b2b960811b6044820152606490fd5b67ffffffffffffffff8111610f345760051b60200190565b8051821015610fe45760209160051b01019056fea2646970667358221220a381c65e50f1865f686f6885f6b86b771b55e401df8b0b05eaa636a14068346564736f6c63430008140033","opcodes":"PUSH1 0x80 CALLVALUE PUSH2 0x7F JUMPI PUSH1 0x1F PUSH2 0x130B CODESIZE DUP2 SWAP1 SUB SWAP2 DUP3 ADD PUSH1 0x1F NOT AND DUP4 ADD SWAP2 PUSH1 0x1 PUSH1 0x1 PUSH1 0x40 SHL SUB DUP4 GT DUP5 DUP5 LT OR PUSH2 0x84 JUMPI DUP1 DUP5 SWAP3 PUSH1 0x20 SWAP5 PUSH1 0x40 MSTORE DUP4 CODECOPY DUP2 ADD SUB SLT PUSH2 0x7F JUMPI MLOAD PUSH1 0x1 PUSH1 0x1 PUSH1 0xA0 SHL SUB DUP2 AND SWAP1 DUP2 SWAP1 SUB PUSH2 0x7F JUMPI PUSH1 0x1 PUSH1 0x0 SSTORE PUSH1 0xFF NOT PUSH1 0x6 SLOAD AND PUSH1 0x6 SSTORE PUSH1 0x1 DUP1 PUSH1 0xA0 SHL SUB NOT PUSH1 0x1 SLOAD AND OR PUSH1 0x1 SSTORE PUSH1 0x40 MLOAD PUSH2 0x1270 SWAP1 DUP2 PUSH2 0x9B DUP3 CODECOPY RETURN JUMPDEST PUSH1 0x0 DUP1 REVERT JUMPDEST PUSH4 0x4E487B71 PUSH1 0xE0 SHL PUSH1 0x0 MSTORE PUSH1 0x41 PUSH1 0x4 MSTORE PUSH1 0x24 PUSH1 0x0 REVERT INVALID PUSH1 0x40 PUSH1 0x80 DUP2 MSTORE PUSH1 0x4 DUP1 CALLDATASIZE LT ISZERO PUSH2 0x14 JUMPI PUSH1 0x0 DUP1 REVERT JUMPDEST PUSH1 0x0 SWAP1 DUP2 CALLDATALOAD PUSH1 0xE0 SHR SWAP1 DUP2 PUSH4 0x2A517AB EQ PUSH2 0xE6B JUMPI DUP2 PUSH4 0x3B5BAAE EQ PUSH2 0xC17 JUMPI DUP2 PUSH4 0x9E69EDE EQ PUSH2 0xB21 JUMPI DUP2 PUSH4 0x20CF1C16 EQ PUSH2 0x9FB JUMPI DUP2 PUSH4 0x2CAA99DB EQ PUSH2 0x92D JUMPI DUP2 PUSH4 0x31F3AB37 EQ PUSH2 0x672 JUMPI DUP2 PUSH4 0x3FA2F801 EQ PUSH2 0x61A JUMPI DUP2 PUSH4 0x4EC7FB81 EQ PUSH2 0x5F1 JUMPI DUP2 PUSH4 0x56EB088B EQ PUSH2 0x56D JUMPI DUP2 PUSH4 0x621044B4 EQ PUSH2 0x534 JUMPI DUP2 PUSH4 0x63A599A4 EQ PUSH2 0x4EF JUMPI DUP2 PUSH4 0x68DF5711 EQ PUSH2 0x3B1 JUMPI DUP2 PUSH4 0x75F12B21 EQ PUSH2 0x38D JUMPI DUP2 PUSH4 0x9F2663D2 EQ PUSH2 0x333 JUMPI DUP2 PUSH4 0xA5B7D835 EQ PUSH2 0x28E JUMPI POP DUP1 PUSH4 0xB7A3C1DA EQ PUSH2 0x26B JUMPI PUSH4 0xEA493DB6 EQ PUSH2 0xDD JUMPI PUSH1 0x0 DUP1 REVERT JUMPDEST CALLVALUE PUSH2 0x268 JUMPI DUP1 PUSH1 0x3 NOT CALLDATASIZE ADD SLT PUSH2 0x268 JUMPI SWAP1 PUSH1 0x5 SLOAD PUSH2 0xFA DUP2 PUSH2 0x120E JUMP JUMPDEST SWAP3 PUSH2 0x107 DUP4 MLOAD SWAP5 DUP6 PUSH2 0xF66 JUMP JUMPDEST DUP2 DUP5 MSTORE PUSH1 0x1F NOT PUSH2 0x116 DUP4 PUSH2 0x120E JUMP JUMPDEST ADD DUP2 JUMPDEST DUP2 DUP2 LT PUSH2 0x230 JUMPI POP POP DUP1 SWAP2 PUSH1 0x1 SWAP3 DUP4 JUMPDEST DUP3 DUP2 GT ISZERO PUSH2 0x199 JUMPI POP POP POP DUP3 MLOAD SWAP3 PUSH1 0x20 DUP1 DUP6 ADD SWAP2 DUP2 DUP7 MSTORE DUP7 MLOAD DUP1 SWAP4 MSTORE DUP2 DUP2 DUP8 ADD SWAP8 ADD SWAP4 SWAP1 JUMPDEST DUP4 DUP3 LT PUSH2 0x15B JUMPI DUP7 DUP9 SUB DUP8 RETURN JUMPDEST DUP5 MLOAD DUP1 MLOAD PUSH1 0x1 PUSH1 0x1 PUSH1 0xA0 SHL SUB AND DUP10 MSTORE DUP4 DUP2 ADD MLOAD DUP5 DUP11 ADD MSTORE DUP2 DUP2 ADD MLOAD DUP3 DUP11 ADD MSTORE PUSH1 0x60 SWAP1 DUP2 ADD MLOAD ISZERO ISZERO SWAP1 DUP10 ADD MSTORE PUSH1 0x80 SWAP1 SWAP8 ADD SWAP7 SWAP4 DUP3 ADD SWAP4 SWAP1 DUP6 ADD SWAP1 PUSH2 0x14E JUMP JUMPDEST DUP1 DUP5 SWAP7 SWAP5 SWAP8 SWAP6 SWAP8 MSTORE PUSH1 0x3 PUSH1 0x20 SWAP1 DUP1 DUP3 MSTORE PUSH1 0xFF DUP7 DUP10 KECCAK256 SWAP2 DUP3 ADD SLOAD AND SWAP1 DUP2 PUSH2 0x1D1 JUMPI JUMPDEST POP POP POP PUSH2 0x1C6 SWAP1 PUSH2 0x1083 JUMP JUMPDEST SWAP6 SWAP4 SWAP6 SWAP5 SWAP3 SWAP5 PUSH2 0x129 JUMP JUMPDEST SWAP2 PUSH2 0x1C6 SWAP4 SWAP5 SWAP2 PUSH1 0x2 PUSH2 0x227 SWAP5 DUP10 MLOAD SWAP4 PUSH2 0x1EA DUP6 PUSH2 0xF4A JUMP JUMPDEST DUP2 SLOAD PUSH1 0x1 PUSH1 0x1 PUSH1 0xA0 SHL SUB AND DUP6 MSTORE DUP14 DUP3 ADD SLOAD SWAP1 DUP6 ADD MSTORE ADD SLOAD DUP9 DUP4 ADD MSTORE ISZERO ISZERO PUSH1 0x60 DUP3 ADD MSTORE PUSH2 0x216 DUP3 DUP10 PUSH2 0x1226 JUMP JUMPDEST MSTORE PUSH2 0x221 DUP2 DUP9 PUSH2 0x1226 JUMP JUMPDEST POP PUSH2 0x1083 JUMP JUMPDEST SWAP2 SWAP1 CODESIZE DUP1 PUSH2 0x1BA JUMP JUMPDEST PUSH1 0x20 SWAP1 DUP6 SWAP4 SWAP6 SWAP7 SWAP5 SWAP7 MLOAD PUSH2 0x243 DUP2 PUSH2 0xF4A JUMP JUMPDEST DUP7 DUP2 MSTORE DUP3 DUP8 DUP2 DUP4 ADD MSTORE DUP8 DUP7 DUP4 ADD MSTORE DUP8 PUSH1 0x60 DUP4 ADD MSTORE DUP3 DUP8 ADD ADD MSTORE ADD SWAP5 SWAP3 SWAP5 SWAP4 SWAP2 SWAP4 PUSH2 0x119 JUMP JUMPDEST DUP1 REVERT JUMPDEST POP SWAP1 CALLVALUE PUSH2 0x28A JUMPI DUP2 PUSH1 0x3 NOT CALLDATASIZE ADD SLT PUSH2 0x28A JUMPI PUSH1 0x20 SWAP1 PUSH1 0x5 SLOAD SWAP1 MLOAD SWAP1 DUP2 MSTORE RETURN JUMPDEST POP DUP1 REVERT JUMPDEST DUP4 SWAP2 POP CALLVALUE PUSH2 0x32F JUMPI PUSH1 0x20 CALLDATASIZE PUSH1 0x3 NOT ADD SLT PUSH2 0x32F JUMPI PUSH32 0xC08033A1471BA43A35F49EBB61C3EF344B52F4A9B4369C4723E0CA50A09CC893 SWAP2 PUSH1 0x20 SWAP2 CALLDATALOAD SWAP1 CALLER DUP6 MSTORE PUSH1 0x2 DUP4 MSTORE PUSH2 0x2E2 PUSH1 0xFF PUSH1 0x1 DUP4 DUP9 KECCAK256 ADD SLOAD AND PUSH2 0xFFA JUMP JUMPDEST PUSH2 0x2F1 PUSH1 0xFF PUSH1 0x6 SLOAD AND ISZERO PUSH2 0x1037 JUMP JUMPDEST DUP2 DUP6 MSTORE PUSH1 0x3 DUP1 DUP5 MSTORE DUP2 DUP7 KECCAK256 DUP1 SLOAD PUSH2 0x312 SWAP1 PUSH1 0x1 PUSH1 0x1 PUSH1 0xA0 SHL SUB AND CALLER EQ PUSH2 0x11CF JUMP JUMPDEST ADD DUP1 SLOAD PUSH2 0x321 PUSH1 0xFF DUP3 AND PUSH2 0x10A8 JUMP JUMPDEST PUSH1 0xFF NOT AND SWAP1 SSTORE MLOAD SWAP1 DUP2 MSTORE LOG1 DUP1 RETURN JUMPDEST DUP3 DUP1 REVERT JUMPDEST DUP3 DUP5 CALLVALUE PUSH2 0x28A JUMPI PUSH1 0x60 CALLDATASIZE PUSH1 0x3 NOT ADD SLT PUSH2 0x28A JUMPI PUSH2 0x34E PUSH2 0xEC8 JUMP JUMPDEST POP PUSH1 0x24 CALLDATALOAD PUSH1 0x1 PUSH1 0x1 PUSH1 0xA0 SHL SUB DUP2 AND SUB PUSH2 0x28A JUMPI PUSH1 0xFF PUSH1 0x1 PUSH2 0x37B SWAP3 CALLER DUP6 MSTORE PUSH1 0x2 PUSH1 0x20 MSTORE DUP5 KECCAK256 ADD SLOAD AND PUSH2 0xFFA JUMP JUMPDEST PUSH2 0x38A PUSH1 0xFF PUSH1 0x6 SLOAD AND ISZERO PUSH2 0x1037 JUMP JUMPDEST DUP1 RETURN JUMPDEST DUP3 DUP5 CALLVALUE PUSH2 0x28A JUMPI DUP2 PUSH1 0x3 NOT CALLDATASIZE ADD SLT PUSH2 0x28A JUMPI PUSH1 0x20 SWAP1 PUSH1 0xFF PUSH1 0x6 SLOAD AND SWAP1 MLOAD SWAP1 ISZERO ISZERO DUP2 MSTORE RETURN JUMPDEST DUP4 SWAP2 POP CALLVALUE PUSH2 0x32F JUMPI PUSH2 0x3C2 CALLDATASIZE PUSH2 0xEAD JUMP JUMPDEST SWAP3 SWAP1 SWAP3 CALLER DUP6 MSTORE PUSH1 0x20 SWAP3 PUSH1 0x2 DUP5 MSTORE PUSH2 0x3E1 PUSH1 0xFF PUSH1 0x1 DUP6 DUP10 KECCAK256 ADD SLOAD AND PUSH2 0xFFA JUMP JUMPDEST PUSH2 0x3F0 PUSH1 0xFF PUSH1 0x6 SLOAD AND ISZERO PUSH2 0x1037 JUMP JUMPDEST DUP5 ISZERO PUSH2 0x4AE JUMPI POP PUSH2 0x476 PUSH2 0x405 PUSH1 0x5 SLOAD PUSH2 0x1083 JUMP JUMPDEST DUP1 PUSH1 0x5 SSTORE PUSH1 0x3 DUP5 MLOAD SWAP2 PUSH2 0x417 DUP4 PUSH2 0xF4A JUMP JUMPDEST CALLER DUP4 MSTORE DUP7 DUP4 ADD DUP9 DUP2 MSTORE DUP7 DUP5 ADD SWAP1 DUP7 DUP3 MSTORE PUSH1 0x60 DUP6 ADD SWAP3 PUSH1 0x1 DUP5 MSTORE DUP12 MSTORE DUP4 DUP10 MSTORE DUP8 DUP12 KECCAK256 SWAP5 PUSH1 0x1 DUP1 PUSH1 0xA0 SHL SUB SWAP1 MLOAD AND PUSH1 0x1 PUSH1 0x1 PUSH1 0x60 SHL SUB PUSH1 0xA0 SHL DUP7 SLOAD AND OR DUP6 SSTORE MLOAD PUSH1 0x1 DUP6 ADD SSTORE MLOAD PUSH1 0x2 DUP5 ADD SSTORE MLOAD ISZERO ISZERO SWAP2 ADD SWAP1 PUSH1 0xFF DUP1 NOT DUP4 SLOAD AND SWAP2 ISZERO ISZERO AND OR SWAP1 SSTORE JUMP JUMPDEST PUSH1 0x5 SLOAD SWAP3 DUP3 MLOAD SWAP5 DUP6 MSTORE DUP5 ADD MSTORE DUP3 ADD MSTORE PUSH32 0x14B07B963A834E1EA737910357471F18FE3AF5EA9035FCFD6BDFD62D1B483080 PUSH1 0x60 CALLER SWAP3 LOG2 DUP1 RETURN JUMPDEST PUSH1 0x64 SWAP1 DUP5 DUP1 DUP6 MLOAD SWAP3 PUSH3 0x461BCD PUSH1 0xE5 SHL DUP5 MSTORE DUP4 ADD MSTORE PUSH1 0x24 DUP3 ADD MSTORE PUSH32 0x416D6F756E74206D7573742062652067726561746572207468616E207A65726F PUSH1 0x44 DUP3 ADD MSTORE REVERT JUMPDEST DUP3 CALLVALUE PUSH2 0x268 JUMPI DUP1 PUSH1 0x3 NOT CALLDATASIZE ADD SLT PUSH2 0x268 JUMPI PUSH1 0x1 PUSH1 0xFF NOT PUSH1 0x6 SLOAD AND OR PUSH1 0x6 SSTORE PUSH32 0x4E360EAF5C2A0E4EBB03155DA87FFA096252CC2EC66DB5848B4EF13E99172BBD DUP2 DUP1 LOG1 DUP1 RETURN JUMPDEST DUP3 CALLVALUE PUSH2 0x268 JUMPI PUSH1 0x20 CALLDATASIZE PUSH1 0x3 NOT ADD SLT PUSH2 0x268 JUMPI PUSH1 0x1 PUSH1 0x1 PUSH1 0xA0 SHL SUB PUSH2 0x556 PUSH2 0xEC8 JUMP JUMPDEST AND PUSH1 0x1 PUSH1 0x1 PUSH1 0x60 SHL SUB PUSH1 0xA0 SHL PUSH1 0x1 SLOAD AND OR PUSH1 0x1 SSTORE DUP1 RETURN JUMPDEST SWAP1 POP DUP3 CALLVALUE PUSH2 0x32F JUMPI DUP1 PUSH1 0x3 NOT CALLDATASIZE ADD SLT PUSH2 0x32F JUMPI PUSH2 0x588 PUSH2 0xEC8 JUMP JUMPDEST PUSH1 0x1 PUSH1 0x1 PUSH1 0xA0 SHL SUB SWAP1 DUP2 AND DUP5 MSTORE PUSH1 0x20 DUP4 SWAP1 MSTORE DUP2 DUP5 KECCAK256 DUP1 SLOAD PUSH1 0x24 CALLDATALOAD SWAP6 SWAP3 SWAP5 SWAP3 SWAP1 DUP7 LT ISZERO PUSH2 0x268 JUMPI POP PUSH1 0xA0 SWAP5 PUSH2 0x5BB SWAP2 PUSH2 0xFC8 JUMP JUMPDEST POP SWAP1 DUP4 DUP3 SLOAD AND SWAP4 PUSH1 0x1 DUP4 ADD SLOAD AND SWAP3 PUSH1 0x2 DUP4 ADD SLOAD SWAP2 PUSH1 0x3 DUP5 ADD SLOAD SWAP4 ADD SLOAD SWAP4 DUP2 MLOAD SWAP6 DUP7 MSTORE PUSH1 0x20 DUP7 ADD MSTORE DUP5 ADD MSTORE PUSH1 0x60 DUP4 ADD MSTORE PUSH1 0x80 DUP3 ADD MSTORE RETURN JUMPDEST DUP3 DUP5 CALLVALUE PUSH2 0x28A JUMPI DUP2 PUSH1 0x3 NOT CALLDATASIZE ADD SLT PUSH2 0x28A JUMPI PUSH1 0x1 SLOAD SWAP1 MLOAD PUSH1 0x1 PUSH1 0x1 PUSH1 0xA0 SHL SUB SWAP1 SWAP2 AND DUP2 MSTORE PUSH1 0x20 SWAP1 RETURN JUMPDEST DUP4 SWAP2 POP CALLVALUE PUSH2 0x32F JUMPI PUSH1 0x20 CALLDATASIZE PUSH1 0x3 NOT ADD SLT PUSH2 0x32F JUMPI PUSH1 0x80 SWAP3 DUP3 SWAP2 CALLDATALOAD DUP2 MSTORE PUSH1 0x3 PUSH1 0x20 MSTORE KECCAK256 SWAP1 PUSH1 0x1 DUP1 PUSH1 0xA0 SHL SUB DUP3 SLOAD AND SWAP2 PUSH1 0x1 DUP2 ADD SLOAD SWAP2 PUSH1 0xFF PUSH1 0x3 PUSH1 0x2 DUP5 ADD SLOAD SWAP4 ADD SLOAD AND SWAP3 DUP2 MLOAD SWAP5 DUP6 MSTORE PUSH1 0x20 DUP6 ADD MSTORE DUP4 ADD MSTORE ISZERO ISZERO PUSH1 0x60 DUP3 ADD MSTORE RETURN JUMPDEST DUP4 SWAP2 POP CALLVALUE PUSH2 0x32F JUMPI DUP2 PUSH1 0x3 NOT CALLDATASIZE ADD SLT PUSH2 0x32F JUMPI PUSH2 0x68D PUSH2 0xEC8 JUMP JUMPDEST SWAP1 PUSH1 0x24 SWAP3 DUP4 CALLDATALOAD SWAP2 PUSH8 0xFFFFFFFFFFFFFFFF SWAP5 DUP6 DUP5 GT PUSH2 0x929 JUMPI CALLDATASIZE PUSH1 0x23 DUP6 ADD SLT ISZERO PUSH2 0x929 JUMPI DUP4 DUP3 ADD CALLDATALOAD SWAP1 DUP7 DUP3 GT PUSH2 0x918 JUMPI DUP4 MLOAD SWAP6 DUP9 PUSH1 0x20 SWAP7 PUSH1 0x1F NOT SWAP5 PUSH2 0x6D8 DUP10 DUP8 PUSH1 0x1F DUP5 ADD AND ADD DUP12 PUSH2 0xF66 JUMP JUMPDEST DUP1 DUP11 MSTORE CALLDATASIZE DUP6 DUP3 DUP5 ADD ADD GT PUSH2 0x32F JUMPI DUP1 DUP6 DUP11 SWAP4 ADD DUP4 DUP13 ADD CALLDATACOPY DUP10 ADD ADD MSTORE PUSH1 0x1 DUP1 PUSH1 0xA0 SHL SUB AND SWAP7 DUP8 DUP10 MSTORE PUSH1 0x2 DUP7 MSTORE PUSH1 0x1 SWAP3 PUSH1 0xFF DUP5 DUP8 DUP13 KECCAK256 ADD SLOAD AND PUSH2 0x8E1 JUMPI DUP6 MLOAD SWAP5 DUP7 DUP7 ADD DUP7 DUP2 LT DUP5 DUP3 GT OR PUSH2 0x8CF JUMPI DUP8 MSTORE DUP9 DUP7 MSTORE DUP8 DUP7 ADD SWAP4 DUP6 DUP6 MSTORE DUP11 DUP13 MSTORE PUSH1 0x2 DUP10 MSTORE DUP8 DUP13 KECCAK256 SWAP7 MLOAD SWAP2 DUP3 MLOAD SWAP5 DUP6 GT PUSH2 0x8BE JUMPI POP POP PUSH2 0x752 DUP7 SLOAD PUSH2 0xEDE JUMP JUMPDEST PUSH1 0x1F DUP2 GT PUSH2 0x878 JUMPI JUMPDEST POP DUP11 DUP9 SWAP3 PUSH1 0x1F DUP6 GT PUSH1 0x1 EQ PUSH2 0x7ED JUMPI POP SWAP3 DUP1 PUSH32 0xBDB8C03A851FC898FB30C8B14EE28C26374AC77692867F54FBF009402F516E61 SWAP11 SWAP10 SWAP9 SWAP7 SWAP4 PUSH2 0x7CD SWAP7 SWAP4 PUSH2 0x7DC SWAP10 SWAP7 SWAP3 PUSH2 0x7E2 JUMPI JUMPDEST POP POP PUSH1 0x0 NOT PUSH1 0x3 DUP4 SWAP1 SHL SHR NOT AND SWAP1 DUP4 SHL OR DUP4 SSTORE JUMPDEST MLOAD ISZERO ISZERO SWAP2 ADD SWAP1 PUSH1 0xFF DUP1 NOT DUP4 SLOAD AND SWAP2 ISZERO ISZERO AND OR SWAP1 SSTORE JUMP JUMPDEST MLOAD SWAP3 DUP3 DUP5 SWAP4 DUP5 MSTORE DUP4 ADD SWAP1 PUSH2 0xF88 JUMP JUMPDEST SUB SWAP1 LOG2 DUP1 RETURN JUMPDEST ADD MLOAD SWAP1 POP DUP14 DUP1 PUSH2 0x7A3 JUMP JUMPDEST DUP8 DUP14 MSTORE DUP10 DUP14 KECCAK256 SWAP4 SWAP3 SWAP2 POP DUP5 AND DUP13 JUMPDEST DUP2 DUP2 LT PUSH2 0x863 JUMPI POP SWAP4 DUP7 SWAP4 PUSH2 0x7CD SWAP7 SWAP4 PUSH32 0xBDB8C03A851FC898FB30C8B14EE28C26374AC77692867F54FBF009402F516E61 SWAP13 SWAP12 SWAP11 SWAP9 SWAP4 DUP4 PUSH2 0x7DC SWAP12 SWAP9 LT PUSH2 0x84A JUMPI JUMPDEST POP POP POP DUP2 SHL ADD DUP4 SSTORE PUSH2 0x7B7 JUMP JUMPDEST ADD MLOAD PUSH1 0x0 NOT PUSH1 0xF8 DUP5 PUSH1 0x3 SHL AND SHR NOT AND SWAP1 SSTORE DUP14 DUP1 DUP1 PUSH2 0x83D JUMP JUMPDEST DUP3 DUP5 ADD MLOAD DUP6 SSTORE SWAP4 DUP8 ADD SWAP4 SWAP3 DUP11 ADD SWAP3 DUP11 ADD PUSH2 0x7FB JUMP JUMPDEST DUP7 DUP13 MSTORE DUP9 DUP13 KECCAK256 PUSH1 0x1F DUP6 ADD PUSH1 0x5 SHR DUP2 ADD SWAP2 DUP11 DUP7 LT PUSH2 0x8B4 JUMPI JUMPDEST PUSH1 0x1F ADD PUSH1 0x5 SHR ADD SWAP1 DUP7 SWAP1 JUMPDEST DUP3 DUP2 LT PUSH2 0x8A9 JUMPI POP POP PUSH2 0x75B JUMP JUMPDEST DUP14 DUP2 SSTORE ADD DUP7 SWAP1 PUSH2 0x89B JUMP JUMPDEST SWAP1 SWAP2 POP DUP2 SWAP1 PUSH2 0x890 JUMP JUMPDEST PUSH4 0x4E487B71 PUSH1 0xE0 SHL DUP14 MSTORE PUSH1 0x41 SWAP1 MSTORE DUP12 REVERT JUMPDEST PUSH4 0x4E487B71 PUSH1 0xE0 SHL DUP13 MSTORE PUSH1 0x41 DUP3 MSTORE DUP5 DUP13 REVERT JUMPDEST DUP6 MLOAD PUSH3 0x461BCD PUSH1 0xE5 SHL DUP2 MSTORE DUP1 DUP7 ADD DUP9 SWAP1 MSTORE PUSH1 0x12 DUP2 DUP6 ADD MSTORE PUSH18 0x105B1C9958591E481C9959DA5CDD195C9959 PUSH1 0x72 SHL PUSH1 0x44 DUP3 ADD MSTORE PUSH1 0x64 SWAP1 REVERT JUMPDEST PUSH4 0x4E487B71 PUSH1 0xE0 SHL DUP9 MSTORE PUSH1 0x41 DUP4 MSTORE DUP8 REVERT JUMPDEST DUP7 DUP1 REVERT JUMPDEST DUP3 DUP5 CALLVALUE PUSH2 0x28A JUMPI PUSH2 0x93D CALLDATASIZE PUSH2 0xEAD JUMP JUMPDEST SWAP2 SWAP1 CALLER DUP5 MSTORE PUSH1 0x2 PUSH1 0x20 MSTORE PUSH2 0x959 PUSH1 0xFF PUSH1 0x1 DUP5 DUP8 KECCAK256 ADD SLOAD AND PUSH2 0xFFA JUMP JUMPDEST PUSH2 0x968 PUSH1 0xFF PUSH1 0x6 SLOAD AND ISZERO PUSH2 0x1037 JUMP JUMPDEST DUP4 MSTORE PUSH1 0x3 PUSH1 0x20 MSTORE DUP1 DUP4 KECCAK256 DUP1 SLOAD PUSH2 0x988 SWAP1 PUSH1 0x1 PUSH1 0x1 PUSH1 0xA0 SHL SUB AND CALLER EQ PUSH2 0x11CF JUMP JUMPDEST PUSH1 0x3 DUP2 ADD SWAP1 PUSH1 0x1 DUP3 SLOAD SWAP2 PUSH2 0x99E PUSH1 0xFF DUP5 AND PUSH2 0x10A8 JUMP JUMPDEST ADD PUSH2 0x9B6 DUP6 DUP3 SLOAD PUSH2 0x9B1 DUP3 DUP3 LT ISZERO PUSH2 0x10E7 JUMP JUMPDEST PUSH2 0x1133 JUMP JUMPDEST DUP1 SWAP2 SSTORE ISZERO PUSH2 0x9EE JUMPI JUMPDEST POP POP MLOAD SWAP1 DUP2 MSTORE PUSH32 0x3E191F34827057AE7A024D0827DA720A2F1B54E6955366EB13E7E12493A9F8A3 PUSH1 0x20 CALLER SWAP3 LOG2 DUP1 RETURN JUMPDEST PUSH1 0xFF NOT AND SWAP1 SSTORE DUP4 DUP1 PUSH2 0x9BF JUMP JUMPDEST SWAP2 SWAP1 POP CALLVALUE PUSH2 0x268 JUMPI PUSH1 0x20 SWAP2 DUP3 PUSH1 0x3 NOT CALLDATASIZE ADD SLT PUSH2 0x28A JUMPI PUSH1 0x1 PUSH1 0x1 PUSH1 0xA0 SHL SUB SWAP3 SWAP2 SWAP1 DUP4 PUSH2 0xA25 PUSH2 0xEC8 JUMP JUMPDEST AND DUP3 MSTORE DUP1 DUP4 MSTORE DUP5 DUP3 KECCAK256 SWAP3 DUP4 SLOAD PUSH2 0xA3A DUP2 PUSH2 0x120E JUMP JUMPDEST SWAP3 PUSH2 0xA47 DUP9 MLOAD SWAP5 DUP6 PUSH2 0xF66 JUMP JUMPDEST DUP2 DUP5 MSTORE DUP3 DUP5 ADD SWAP1 DUP2 SWAP7 DUP7 MSTORE DUP4 DUP7 KECCAK256 SWAP1 DUP7 SWAP3 JUMPDEST DUP10 DUP12 DUP7 DUP7 LT PUSH2 0xACD JUMPI SWAP6 POP POP POP POP POP POP MLOAD SWAP5 DUP2 DUP7 ADD SWAP3 DUP3 DUP8 MSTORE MLOAD DUP1 SWAP4 MSTORE DUP7 DUP7 ADD SWAP5 SWAP4 SWAP1 JUMPDEST DUP4 DUP3 LT PUSH2 0xA8A JUMPI DUP7 DUP7 SUB DUP8 RETURN JUMPDEST DUP5 MLOAD DUP1 MLOAD DUP3 AND DUP8 MSTORE DUP1 DUP5 ADD MLOAD DUP3 AND DUP8 DUP6 ADD MSTORE DUP9 DUP2 ADD MLOAD DUP10 DUP9 ADD MSTORE PUSH1 0x60 DUP1 DUP3 ADD MLOAD SWAP1 DUP9 ADD MSTORE PUSH1 0x80 SWAP1 DUP2 ADD MLOAD SWAP1 DUP8 ADD MSTORE PUSH1 0xA0 SWAP1 SWAP6 ADD SWAP5 SWAP4 DUP3 ADD SWAP4 PUSH1 0x1 SWAP1 SWAP2 ADD SWAP1 PUSH2 0xA7D JUMP JUMPDEST SWAP7 PUSH1 0x1 SWAP3 PUSH1 0x5 SWAP3 DUP10 DUP4 SWAP12 SWAP13 SWAP11 MLOAD SWAP2 PUSH2 0xAE4 DUP4 PUSH2 0xF18 JUMP JUMPDEST DUP1 DUP10 SLOAD AND DUP4 MSTORE DUP7 DUP10 ADD SLOAD AND DUP5 DUP4 ADD MSTORE PUSH1 0x2 DUP9 ADD SLOAD SWAP1 DUP3 ADD MSTORE PUSH1 0x3 DUP8 ADD SLOAD PUSH1 0x60 DUP3 ADD MSTORE DUP6 DUP8 ADD SLOAD PUSH1 0x80 DUP3 ADD MSTORE DUP2 MSTORE ADD SWAP4 ADD SWAP4 ADD SWAP3 SWAP2 SWAP7 SWAP6 SWAP5 SWAP7 PUSH2 0xA59 JUMP JUMPDEST DUP3 DUP5 CALLVALUE PUSH2 0x28A JUMPI PUSH1 0x20 DUP1 PUSH1 0x3 NOT CALLDATASIZE ADD SLT PUSH2 0x32F JUMPI PUSH1 0x1 PUSH1 0x1 PUSH1 0xA0 SHL SUB PUSH2 0xB45 PUSH2 0xEC8 JUMP JUMPDEST AND DUP4 MSTORE PUSH1 0x2 DUP2 MSTORE DUP2 DUP4 KECCAK256 SWAP3 DUP3 MLOAD SWAP4 DUP5 DUP3 DUP3 SLOAD SWAP4 PUSH2 0xB61 DUP6 PUSH2 0xEDE JUMP JUMPDEST SWAP1 DUP2 DUP5 MSTORE PUSH1 0x1 SWAP6 DUP8 DUP8 DUP3 AND SWAP2 DUP3 PUSH1 0x0 EQ PUSH2 0xBF5 JUMPI POP POP PUSH1 0x1 EQ PUSH2 0xBB3 JUMPI JUMPDEST POP POP PUSH1 0xFF SWAP4 SWAP3 SWAP2 PUSH2 0xB91 SWAP2 SUB DUP8 PUSH2 0xF66 JUMP JUMPDEST ADD SLOAD AND SWAP1 PUSH2 0xBA8 DUP4 MLOAD SWAP5 DUP5 DUP7 SWAP6 DUP7 MSTORE DUP6 ADD SWAP1 PUSH2 0xF88 JUMP JUMPDEST SWAP2 ISZERO ISZERO SWAP1 DUP4 ADD MSTORE SUB SWAP1 RETURN JUMPDEST SWAP5 SWAP4 SWAP3 SWAP2 POP DUP6 SWAP1 DUP4 DUP7 MSTORE DUP2 DUP7 KECCAK256 JUMPDEST DUP2 DUP8 LT PUSH2 0xBDC JUMPI POP SWAP4 SWAP5 SWAP3 SWAP4 POP SWAP1 SWAP2 DUP3 ADD ADD DUP2 PUSH2 0xB91 PUSH2 0xB7F JUMP JUMPDEST DUP1 SLOAD DUP11 DUP9 ADD DUP5 ADD MSTORE SWAP2 SWAP1 SWAP6 ADD SWAP5 DUP9 SWAP3 POP DUP7 SWAP2 DUP6 ADD PUSH2 0xBC1 JUMP JUMPDEST PUSH1 0xFF NOT AND DUP7 DUP3 ADD MSTORE SWAP3 ISZERO ISZERO PUSH1 0x5 SHL DUP6 ADD SWAP1 SWAP3 ADD SWAP3 POP DUP4 SWAP2 POP PUSH2 0xB91 SWAP1 POP PUSH2 0xB7F JUMP JUMPDEST DUP3 DUP5 CALLVALUE PUSH2 0x28A JUMPI PUSH2 0xC27 CALLDATASIZE PUSH2 0xEAD JUMP JUMPDEST SWAP1 SWAP2 CALLER DUP5 MSTORE PUSH1 0x20 SWAP3 PUSH1 0x2 DUP5 MSTORE PUSH2 0xC45 PUSH1 0xFF PUSH1 0x1 DUP5 DUP9 KECCAK256 ADD SLOAD AND PUSH2 0xFFA JUMP JUMPDEST PUSH2 0xC54 PUSH1 0xFF PUSH1 0x6 SLOAD AND ISZERO PUSH2 0x1037 JUMP JUMPDEST PUSH1 0x2 DUP6 SLOAD EQ PUSH2 0xE5B JUMPI PUSH1 0x2 DUP6 SSTORE DUP5 MSTORE PUSH1 0x3 DUP4 MSTORE DUP1 DUP5 KECCAK256 PUSH1 0x3 DUP2 ADD SWAP1 PUSH2 0xC7C PUSH1 0xFF DUP4 SLOAD AND PUSH2 0x10A8 JUMP JUMPDEST PUSH1 0x1 DUP2 ADD SWAP1 PUSH2 0xC8E DUP6 DUP4 SLOAD LT ISZERO PUSH2 0x10E7 JUMP JUMPDEST PUSH1 0x2 DUP2 ADD SLOAD SWAP3 DUP4 DUP7 MUL SWAP4 DUP7 DUP6 DIV EQ DUP7 ISZERO OR ISZERO PUSH2 0xE48 JUMPI PUSH1 0x1 SLOAD DUP3 SLOAD DUP7 MLOAD PUSH4 0x23B872DD PUSH1 0xE0 SHL DUP2 MSTORE CALLER DUP2 DUP14 ADD MSTORE PUSH1 0x1 PUSH1 0x1 PUSH1 0xA0 SHL SUB SWAP2 DUP3 AND PUSH1 0x24 DUP3 ADD MSTORE PUSH1 0x44 DUP2 ADD DUP8 SWAP1 MSTORE SWAP1 SWAP5 SWAP2 DUP10 SWAP1 DUP3 SWAP1 PUSH1 0x64 SWAP1 DUP3 SWAP1 DUP15 SWAP1 DUP11 AND GAS CALL SWAP1 DUP2 ISZERO PUSH2 0xE3E JUMPI DUP11 SWAP2 PUSH2 0xE04 JUMPI JUMPDEST POP ISZERO PUSH2 0xDC9 JUMPI SWAP9 PUSH2 0xDA6 SWAP2 DUP11 PUSH2 0xD2C DUP10 PUSH32 0x1CBE81348D01D294AC68391C5BA74E03143DC0A19A85EE2DFB5ADECA547FC5E2 SWAP11 SWAP12 SWAP13 SWAP14 SLOAD PUSH2 0x1133 JUMP JUMPDEST DUP1 SWAP2 SSTORE ISZERO PUSH2 0xDBB JUMPI JUMPDEST POP CALLER DUP11 MSTORE DUP1 DUP10 MSTORE PUSH2 0xD70 DUP7 DUP12 KECCAK256 DUP6 DUP6 SLOAD AND SWAP1 DUP9 MLOAD SWAP2 PUSH2 0xD53 DUP4 PUSH2 0xF18 JUMP JUMPDEST CALLER DUP4 MSTORE DUP13 DUP4 ADD MSTORE DUP11 DUP10 DUP4 ADD MSTORE DUP8 PUSH1 0x60 DUP4 ADD MSTORE TIMESTAMP PUSH1 0x80 DUP4 ADD MSTORE PUSH2 0x1140 JUMP JUMPDEST DUP4 DUP4 SLOAD AND SWAP1 DUP2 DUP12 MSTORE DUP10 MSTORE DUP6 DUP11 KECCAK256 DUP7 MLOAD SWAP2 PUSH2 0xD89 DUP4 PUSH2 0xF18 JUMP JUMPDEST CALLER DUP4 MSTORE DUP11 DUP4 ADD MSTORE DUP9 DUP8 DUP4 ADD MSTORE DUP6 PUSH1 0x60 DUP4 ADD MSTORE TIMESTAMP PUSH1 0x80 DUP4 ADD MSTORE PUSH2 0x1140 JUMP JUMPDEST SLOAD AND SWAP5 DUP3 MLOAD SWAP5 DUP6 MSTORE DUP5 ADD MSTORE CALLER SWAP3 LOG3 PUSH1 0x1 DUP2 SSTORE DUP1 RETURN JUMPDEST DUP1 SLOAD PUSH1 0xFF NOT AND SWAP1 SSTORE DUP11 PUSH2 0xD35 JUMP JUMPDEST DUP6 MLOAD PUSH3 0x461BCD PUSH1 0xE5 SHL DUP2 MSTORE DUP1 DUP12 ADD DUP10 SWAP1 MSTORE PUSH1 0x15 PUSH1 0x24 DUP3 ADD MSTORE PUSH21 0x151BDAD95B881D1C985B9CD9995C8819985A5B1959 PUSH1 0x5A SHL PUSH1 0x44 DUP3 ADD MSTORE PUSH1 0x64 SWAP1 REVERT JUMPDEST SWAP1 POP DUP9 DUP2 DUP2 RETURNDATASIZE DUP4 GT PUSH2 0xE37 JUMPI JUMPDEST PUSH2 0xE1B DUP2 DUP4 PUSH2 0xF66 JUMP JUMPDEST DUP2 ADD SUB SLT PUSH2 0xE33 JUMPI MLOAD DUP1 ISZERO ISZERO DUP2 SUB PUSH2 0xE33 JUMPI DUP12 PUSH2 0xCF1 JUMP JUMPDEST DUP10 DUP1 REVERT JUMPDEST POP RETURNDATASIZE PUSH2 0xE11 JUMP JUMPDEST DUP8 MLOAD RETURNDATASIZE DUP13 DUP3 RETURNDATACOPY RETURNDATASIZE SWAP1 REVERT JUMPDEST PUSH4 0x4E487B71 PUSH1 0xE0 SHL DUP9 MSTORE PUSH1 0x11 DUP10 MSTORE PUSH1 0x24 DUP9 REVERT JUMPDEST DUP2 MLOAD PUSH4 0x3EE5AEB5 PUSH1 0xE0 SHL DUP2 MSTORE DUP7 SWAP1 REVERT JUMPDEST DUP3 CALLVALUE PUSH2 0x268 JUMPI DUP1 PUSH1 0x3 NOT CALLDATASIZE ADD SLT PUSH2 0x268 JUMPI PUSH1 0xFF NOT PUSH1 0x6 SLOAD AND PUSH1 0x6 SSTORE PUSH32 0x8AECBEB9F7203EC3DC62D2B9D20D5BCD70FE3808ADDCD647FC09E8B648441D92 DUP2 DUP1 LOG1 DUP1 RETURN JUMPDEST PUSH1 0x40 SWAP1 PUSH1 0x3 NOT ADD SLT PUSH2 0xEC3 JUMPI PUSH1 0x4 CALLDATALOAD SWAP1 PUSH1 0x24 CALLDATALOAD SWAP1 JUMP JUMPDEST PUSH1 0x0 DUP1 REVERT JUMPDEST PUSH1 0x4 CALLDATALOAD SWAP1 PUSH1 0x1 PUSH1 0x1 PUSH1 0xA0 SHL SUB DUP3 AND DUP3 SUB PUSH2 0xEC3 JUMPI JUMP JUMPDEST SWAP1 PUSH1 0x1 DUP3 DUP2 SHR SWAP3 AND DUP1 ISZERO PUSH2 0xF0E JUMPI JUMPDEST PUSH1 0x20 DUP4 LT EQ PUSH2 0xEF8 JUMPI JUMP JUMPDEST PUSH4 0x4E487B71 PUSH1 0xE0 SHL PUSH1 0x0 MSTORE PUSH1 0x22 PUSH1 0x4 MSTORE PUSH1 0x24 PUSH1 0x0 REVERT JUMPDEST SWAP2 PUSH1 0x7F AND SWAP2 PUSH2 0xEED JUMP JUMPDEST PUSH1 0xA0 DUP2 ADD SWAP1 DUP2 LT PUSH8 0xFFFFFFFFFFFFFFFF DUP3 GT OR PUSH2 0xF34 JUMPI PUSH1 0x40 MSTORE JUMP JUMPDEST PUSH4 0x4E487B71 PUSH1 0xE0 SHL PUSH1 0x0 MSTORE PUSH1 0x41 PUSH1 0x4 MSTORE PUSH1 0x24 PUSH1 0x0 REVERT JUMPDEST PUSH1 0x80 DUP2 ADD SWAP1 DUP2 LT PUSH8 0xFFFFFFFFFFFFFFFF DUP3 GT OR PUSH2 0xF34 JUMPI PUSH1 0x40 MSTORE JUMP JUMPDEST SWAP1 PUSH1 0x1F DUP1 NOT SWAP2 ADD AND DUP2 ADD SWAP1 DUP2 LT PUSH8 0xFFFFFFFFFFFFFFFF DUP3 GT OR PUSH2 0xF34 JUMPI PUSH1 0x40 MSTORE JUMP JUMPDEST SWAP2 SWAP1 DUP3 MLOAD SWAP3 DUP4 DUP3 MSTORE PUSH1 0x0 JUMPDEST DUP5 DUP2 LT PUSH2 0xFB4 JUMPI POP POP DUP3 PUSH1 0x0 PUSH1 0x20 DUP1 SWAP5 SWAP6 DUP5 ADD ADD MSTORE PUSH1 0x1F DUP1 NOT SWAP2 ADD AND ADD ADD SWAP1 JUMP JUMPDEST PUSH1 0x20 DUP2 DUP4 ADD DUP2 ADD MLOAD DUP5 DUP4 ADD DUP3 ADD MSTORE ADD PUSH2 0xF93 JUMP JUMPDEST DUP1 SLOAD DUP3 LT ISZERO PUSH2 0xFE4 JUMPI PUSH1 0x0 MSTORE PUSH1 0x5 PUSH1 0x20 PUSH1 0x0 KECCAK256 SWAP2 MUL ADD SWAP1 PUSH1 0x0 SWAP1 JUMP JUMPDEST PUSH4 0x4E487B71 PUSH1 0xE0 SHL PUSH1 0x0 MSTORE PUSH1 0x32 PUSH1 0x4 MSTORE PUSH1 0x24 PUSH1 0x0 REVERT JUMPDEST ISZERO PUSH2 0x1001 JUMPI JUMP JUMPDEST PUSH1 0x40 MLOAD PUSH3 0x461BCD PUSH1 0xE5 SHL DUP2 MSTORE PUSH1 0x20 PUSH1 0x4 DUP3 ADD MSTORE PUSH1 0xE PUSH1 0x24 DUP3 ADD MSTORE PUSH14 0x139BDD081C9959DA5CDD195C9959 PUSH1 0x92 SHL PUSH1 0x44 DUP3 ADD MSTORE PUSH1 0x64 SWAP1 REVERT JUMPDEST ISZERO PUSH2 0x103E JUMPI JUMP JUMPDEST PUSH1 0x40 MLOAD PUSH3 0x461BCD PUSH1 0xE5 SHL DUP2 MSTORE PUSH1 0x20 PUSH1 0x4 DUP3 ADD MSTORE PUSH1 0x18 PUSH1 0x24 DUP3 ADD MSTORE PUSH32 0x456D657267656E63792073746F70206163746976617465640000000000000000 PUSH1 0x44 DUP3 ADD MSTORE PUSH1 0x64 SWAP1 REVERT JUMPDEST PUSH1 0x0 NOT DUP2 EQ PUSH2 0x1092 JUMPI PUSH1 0x1 ADD SWAP1 JUMP JUMPDEST PUSH4 0x4E487B71 PUSH1 0xE0 SHL PUSH1 0x0 MSTORE PUSH1 0x11 PUSH1 0x4 MSTORE PUSH1 0x24 PUSH1 0x0 REVERT JUMPDEST ISZERO PUSH2 0x10AF JUMPI JUMP JUMPDEST PUSH1 0x40 MLOAD PUSH3 0x461BCD PUSH1 0xE5 SHL DUP2 MSTORE PUSH1 0x20 PUSH1 0x4 DUP3 ADD MSTORE PUSH1 0x10 PUSH1 0x24 DUP3 ADD MSTORE PUSH16 0x4F66666572206E6F7420616374697665 PUSH1 0x80 SHL PUSH1 0x44 DUP3 ADD MSTORE PUSH1 0x64 SWAP1 REVERT JUMPDEST ISZERO PUSH2 0x10EE JUMPI JUMP JUMPDEST PUSH1 0x40 MLOAD PUSH3 0x461BCD PUSH1 0xE5 SHL DUP2 MSTORE PUSH1 0x20 PUSH1 0x4 DUP3 ADD MSTORE PUSH1 0x1B PUSH1 0x24 DUP3 ADD MSTORE PUSH32 0x4E6F7420656E6F75676820656E6572677920617661696C61626C650000000000 PUSH1 0x44 DUP3 ADD MSTORE PUSH1 0x64 SWAP1 REVERT JUMPDEST SWAP2 SWAP1 DUP3 SUB SWAP2 DUP3 GT PUSH2 0x1092 JUMPI JUMP JUMPDEST DUP1 SLOAD PUSH9 0x10000000000000000 DUP2 LT ISZERO PUSH2 0xF34 JUMPI PUSH2 0x1162 SWAP2 PUSH1 0x1 DUP3 ADD DUP2 SSTORE PUSH2 0xFC8 JUMP JUMPDEST SWAP2 SWAP1 SWAP2 PUSH2 0x11B9 JUMPI PUSH1 0x80 PUSH1 0x4 SWAP2 PUSH1 0x1 DUP1 PUSH1 0xA0 SHL SUB DUP1 DUP3 MLOAD AND PUSH1 0x1 PUSH1 0x1 PUSH1 0x60 SHL SUB PUSH1 0xA0 SHL SWAP1 DUP2 DUP8 SLOAD AND OR DUP7 SSTORE PUSH1 0x1 DUP7 ADD SWAP2 PUSH1 0x20 DUP5 ADD MLOAD AND SWAP1 DUP3 SLOAD AND OR SWAP1 SSTORE PUSH1 0x40 DUP2 ADD MLOAD PUSH1 0x2 DUP6 ADD SSTORE PUSH1 0x60 DUP2 ADD MLOAD PUSH1 0x3 DUP6 ADD SSTORE ADD MLOAD SWAP2 ADD SSTORE JUMP JUMPDEST PUSH4 0x4E487B71 PUSH1 0xE0 SHL PUSH1 0x0 MSTORE PUSH1 0x0 PUSH1 0x4 MSTORE PUSH1 0x24 PUSH1 0x0 REVERT JUMPDEST ISZERO PUSH2 0x11D6 JUMPI JUMP JUMPDEST PUSH1 0x40 MLOAD PUSH3 0x461BCD PUSH1 0xE5 SHL DUP2 MSTORE PUSH1 0x20 PUSH1 0x4 DUP3 ADD MSTORE PUSH1 0x10 PUSH1 0x24 DUP3 ADD MSTORE PUSH16 0x2737BA103A343290383937B23AB1B2B9 PUSH1 0x81 SHL PUSH1 0x44 DUP3 ADD MSTORE PUSH1 0x64 SWAP1 REVERT JUMPDEST PUSH8 0xFFFFFFFFFFFFFFFF DUP2 GT PUSH2 0xF34 JUMPI PUSH1 0x5 SHL PUSH1 0x20 ADD SWAP1 JUMP JUMPDEST DUP1 MLOAD DUP3 LT ISZERO PUSH2 0xFE4 JUMPI PUSH1 0x20 SWAP2 PUSH1 0x5 SHL ADD ADD SWAP1 JUMP INVALID LOG2 PUSH5 0x6970667358 0x22 SLT KECCAK256 LOG3 DUP2 0xC6 0x5E POP CALL DUP7 PUSH0 PUSH9 0x6F6885F6B86B771B55 0xE4 ADD 0xDF DUP12 SIGNEXTEND SDIV 0xEA 0xA6 CALLDATASIZE LOG1 BLOCKHASH PUSH9 0x346564736F6C634300 ADDMOD EQ STOP CALLER "},"methodIdentifiers":{"cancelEnergyOffer(uint256)":"a5b7d835","deactivateEmergencyStop()":"02a517ab","depositEnergy(uint256,uint256)":"68df5711","disputeTransaction(address,address,uint256)":"9f2663d2","emergencyStop()":"63a599a4","energyOffers(uint256)":"3fa2f801","energyToken()":"4ec7fb81","getEnergyOffers()":"ea493db6","getTradeHistory(address)":"20cf1c16","initializeTradingPlatform(address)":"621044b4","offerCounter()":"b7a3c1da","participants(address)":"09e69ede","purchaseEnergy(uint256,uint256)":"03b5baae","registerParticipant(address,string)":"31f3ab37","stopped()":"75f12b21","tradeHistory(address,uint256)":"56eb088b","withdrawEnergy(uint256,uint256)":"2caa99db"}}}}}