{"contracts/EnergyMarketPlace.sol":{"EnergyMarketplace":{"abi":[{"inputs":[{"internalType":"address","name":"_tokenAddress","type":"address"}],"stateMutability":"nonpayable","type":"constructor"},{"inputs":[],"name":"AccessControlBadConfirmation","type":"error"},{"inputs":[{"internalType":"address","name":"account","type":"address"},{"internalType":"bytes32","name":"neededRole","type":"bytes32"}],"name":"AccessControlUnauthorizedAccount","type":"error"},{"inputs":[],"name":"EnforcedPause","type":"error"},{"inputs":[],"name":"ExpectedPause","type":"error"},{"inputs":[{"internalType":"address","name":"owner","type":"address"}],"name":"OwnableInvalidOwner","type":"error"},{"inputs":[{"internalType":"address","name":"account","type":"address"}],"name":"OwnableUnauthorizedAccount","type":"error"},{"inputs":[],"name":"ReentrancyGuardReentrantCall","type":"error"},{"anonymous":false,"inputs":[{"indexed":true,"internalType":"bytes32","name":"agreementId","type":"bytes32"},{"indexed":true,"internalType":"bytes32","name":"offerId","type":"bytes32"},{"indexed":false,"internalType":"address","name":"buyer","type":"address"},{"indexed":false,"internalType":"address","name":"seller","type":"address"}],"name":"AgreementCreated","type":"event"},{"anonymous":false,"inputs":[{"indexed":true,"internalType":"bytes32","name":"agreementId","type":"bytes32"},{"indexed":false,"internalType":"uint256","name":"percentage","type":"uint256"}],"name":"EnergyDeliveryProgress","type":"event"},{"anonymous":false,"inputs":[{"indexed":true,"internalType":"bytes32","name":"agreementId","type":"bytes32"},{"indexed":false,"internalType":"uint256","name":"percentage","type":"uint256"},{"indexed":false,"internalType":"string","name":"reason","type":"string"}],"name":"MilestoneDisputed","type":"event"},{"anonymous":false,"inputs":[{"indexed":true,"internalType":"bytes32","name":"offerId","type":"bytes32"},{"indexed":false,"internalType":"address","name":"sender","type":"address"}],"name":"NegotiationMessageAdded","type":"event"},{"anonymous":false,"inputs":[{"indexed":true,"internalType":"bytes32","name":"offerId","type":"bytes32"},{"indexed":true,"internalType":"address","name":"creator","type":"address"},{"indexed":false,"internalType":"enum EnergyMarketplace.OfferType","name":"offerType","type":"uint8"}],"name":"OfferCreated","type":"event"},{"anonymous":false,"inputs":[{"indexed":true,"internalType":"bytes32","name":"offerId","type":"bytes32"},{"indexed":false,"internalType":"enum EnergyMarketplace.OfferStatus","name":"status","type":"uint8"}],"name":"OfferUpdated","type":"event"},{"anonymous":false,"inputs":[{"indexed":true,"internalType":"address","name":"previousOwner","type":"address"},{"indexed":true,"internalType":"address","name":"newOwner","type":"address"}],"name":"OwnershipTransferred","type":"event"},{"anonymous":false,"inputs":[{"indexed":false,"internalType":"address","name":"account","type":"address"}],"name":"Paused","type":"event"},{"anonymous":false,"inputs":[{"indexed":true,"internalType":"bytes32","name":"role","type":"bytes32"},{"indexed":true,"internalType":"bytes32","name":"previousAdminRole","type":"bytes32"},{"indexed":true,"internalType":"bytes32","name":"newAdminRole","type":"bytes32"}],"name":"RoleAdminChanged","type":"event"},{"anonymous":false,"inputs":[{"indexed":true,"internalType":"bytes32","name":"role","type":"bytes32"},{"indexed":true,"internalType":"address","name":"account","type":"address"},{"indexed":true,"internalType":"address","name":"sender","type":"address"}],"name":"RoleGranted","type":"event"},{"anonymous":false,"inputs":[{"indexed":true,"internalType":"bytes32","name":"role","type":"bytes32"},{"indexed":true,"internalType":"address","name":"account","type":"address"},{"indexed":true,"internalType":"address","name":"sender","type":"address"}],"name":"RoleRevoked","type":"event"},{"anonymous":false,"inputs":[{"indexed":true,"internalType":"bytes32","name":"agreementId","type":"bytes32"}],"name":"TradeCompleted","type":"event"},{"anonymous":false,"inputs":[{"indexed":true,"internalType":"bytes32","name":"agreementId","type":"bytes32"},{"indexed":false,"internalType":"string","name":"reason","type":"string"}],"name":"TradeRefunded","type":"event"},{"anonymous":false,"inputs":[{"indexed":false,"internalType":"address","name":"account","type":"address"}],"name":"Unpaused","type":"event"},{"inputs":[],"name":"ADMIN_ROLE","outputs":[{"internalType":"bytes32","name":"","type":"bytes32"}],"stateMutability":"view","type":"function"},{"inputs":[],"name":"DEFAULT_ADMIN_ROLE","outputs":[{"internalType":"bytes32","name":"","type":"bytes32"}],"stateMutability":"view","type":"function"},{"inputs":[],"name":"DISPUTE_PERIOD","outputs":[{"internalType":"uint256","name":"","type":"uint256"}],"stateMutability":"view","type":"function"},{"inputs":[],"name":"MODERATOR_ROLE","outputs":[{"internalType":"bytes32","name":"","type":"bytes32"}],"stateMutability":"view","type":"function"},{"inputs":[{"internalType":"uint256","name":"","type":"uint256"}],"name":"activeOfferIds","outputs":[{"internalType":"bytes32","name":"","type":"bytes32"}],"stateMutability":"view","type":"function"},{"inputs":[{"internalType":"address","name":"_account","type":"address"}],"name":"addAdmin","outputs":[],"stateMutability":"nonpayable","type":"function"},{"inputs":[{"internalType":"address","name":"_account","type":"address"}],"name":"addModerator","outputs":[],"stateMutability":"nonpayable","type":"function"},{"inputs":[{"internalType":"bytes32","name":"_offerId","type":"bytes32"},{"internalType":"string","name":"_message","type":"string"},{"internalType":"uint256","name":"_proposedPrice","type":"uint256"},{"internalType":"uint256","name":"_proposedEnergyAmount","type":"uint256"}],"name":"addNegotiationMessage","outputs":[],"stateMutability":"nonpayable","type":"function"},{"inputs":[{"internalType":"bytes32","name":"","type":"bytes32"}],"name":"agreements","outputs":[{"internalType":"bytes32","name":"id","type":"bytes32"},{"internalType":"bytes32","name":"offerId","type":"bytes32"},{"internalType":"address","name":"buyer","type":"address"},{"internalType":"address","name":"seller","type":"address"},{"internalType":"uint256","name":"finalEnergyAmount","type":"uint256"},{"internalType":"uint256","name":"finalTotalPrice","type":"uint256"},{"internalType":"uint256","name":"agreedAt","type":"uint256"},{"internalType":"bytes32","name":"escrowId","type":"bytes32"},{"internalType":"bool","name":"isActive","type":"bool"}],"stateMutability":"view","type":"function"},{"inputs":[{"internalType":"bytes32","name":"_offerId","type":"bytes32"},{"internalType":"uint256","name":"_finalPrice","type":"uint256"},{"internalType":"uint256","name":"_finalEnergyAmount","type":"uint256"}],"name":"createAgreement","outputs":[{"internalType":"bytes32","name":"","type":"bytes32"}],"stateMutability":"nonpayable","type":"function"},{"inputs":[{"internalType":"enum EnergyMarketplace.OfferType","name":"_offerType","type":"uint8"},{"internalType":"uint256","name":"_energyAmount","type":"uint256"},{"internalType":"uint256","name":"_pricePerUnit","type":"uint256"},{"internalType":"uint256","name":"_startTime","type":"uint256"},{"internalType":"uint256","name":"_endTime","type":"uint256"}],"name":"createOffer","outputs":[{"internalType":"bytes32","name":"offerId","type":"bytes32"}],"stateMutability":"nonpayable","type":"function"},{"inputs":[{"internalType":"bytes32","name":"_agreementId","type":"bytes32"},{"internalType":"string","name":"_reason","type":"string"}],"name":"disputeAndRefund","outputs":[],"stateMutability":"nonpayable","type":"function"},{"inputs":[{"internalType":"bytes32","name":"_agreementId","type":"bytes32"},{"internalType":"uint256","name":"_percentage","type":"uint256"},{"internalType":"string","name":"_reason","type":"string"}],"name":"disputeMilestone","outputs":[],"stateMutability":"nonpayable","type":"function"},{"inputs":[],"name":"energyToken","outputs":[{"internalType":"contract EnergyToken","name":"","type":"address"}],"stateMutability":"view","type":"function"},{"inputs":[],"name":"escrowContract","outputs":[{"internalType":"contract EnergyEscrow","name":"","type":"address"}],"stateMutability":"view","type":"function"},{"inputs":[{"internalType":"bytes32","name":"_agreementId","type":"bytes32"},{"internalType":"uint256","name":"_percentage","type":"uint256"}],"name":"finalizeMilestone","outputs":[],"stateMutability":"nonpayable","type":"function"},{"inputs":[],"name":"getActiveOffers","outputs":[{"internalType":"bytes32[]","name":"","type":"bytes32[]"}],"stateMutability":"view","type":"function"},{"inputs":[{"internalType":"bytes32","name":"_offerId","type":"bytes32"}],"name":"getNegotiationMessages","outputs":[{"components":[{"internalType":"address","name":"sender","type":"address"},{"internalType":"uint256","name":"timestamp","type":"uint256"},{"internalType":"string","name":"message","type":"string"},{"internalType":"uint256","name":"proposedPrice","type":"uint256"},{"internalType":"uint256","name":"proposedEnergyAmount","type":"uint256"}],"internalType":"struct EnergyMarketplace.NegotiationMessage[]","name":"","type":"tuple[]"}],"stateMutability":"view","type":"function"},{"inputs":[{"internalType":"bytes32","name":"role","type":"bytes32"}],"name":"getRoleAdmin","outputs":[{"internalType":"bytes32","name":"","type":"bytes32"}],"stateMutability":"view","type":"function"},{"inputs":[{"internalType":"address","name":"_user","type":"address"}],"name":"getUserAgreements","outputs":[{"internalType":"bytes32[]","name":"","type":"bytes32[]"}],"stateMutability":"view","type":"function"},{"inputs":[{"internalType":"address","name":"_user","type":"address"}],"name":"getUserOffers","outputs":[{"internalType":"bytes32[]","name":"","type":"bytes32[]"}],"stateMutability":"view","type":"function"},{"inputs":[{"internalType":"bytes32","name":"role","type":"bytes32"},{"internalType":"address","name":"account","type":"address"}],"name":"grantRole","outputs":[],"stateMutability":"nonpayable","type":"function"},{"inputs":[{"internalType":"bytes32","name":"role","type":"bytes32"},{"internalType":"address","name":"account","type":"address"}],"name":"hasRole","outputs":[{"internalType":"bool","name":"","type":"bool"}],"stateMutability":"view","type":"function"},{"inputs":[{"internalType":"bytes32","name":"_offerId","type":"bytes32"}],"name":"moderateOffer","outputs":[],"stateMutability":"nonpayable","type":"function"},{"inputs":[{"internalType":"bytes32","name":"","type":"bytes32"},{"internalType":"uint256","name":"","type":"uint256"}],"name":"negotiations","outputs":[{"internalType":"address","name":"sender","type":"address"},{"internalType":"uint256","name":"timestamp","type":"uint256"},{"internalType":"string","name":"message","type":"string"},{"internalType":"uint256","name":"proposedPrice","type":"uint256"},{"internalType":"uint256","name":"proposedEnergyAmount","type":"uint256"}],"stateMutability":"view","type":"function"},{"inputs":[{"internalType":"bytes32","name":"","type":"bytes32"}],"name":"offers","outputs":[{"internalType":"bytes32","name":"id","type":"bytes32"},{"internalType":"address","name":"creator","type":"address"},{"internalType":"enum EnergyMarketplace.OfferType","name":"offerType","type":"uint8"},{"internalType":"uint256","name":"energyAmount","type":"uint256"},{"internalType":"uint256","name":"pricePerUnit","type":"uint256"},{"internalType":"uint256","name":"totalPrice","type":"uint256"},{"internalType":"uint256","name":"startTime","type":"uint256"},{"internalType":"uint256","name":"endTime","type":"uint256"},{"internalType":"enum EnergyMarketplace.OfferStatus","name":"status","type":"uint8"},{"internalType":"address","name":"counterparty","type":"address"},{"internalType":"uint256","name":"createdAt","type":"uint256"}],"stateMutability":"view","type":"function"},{"inputs":[],"name":"owner","outputs":[{"internalType":"address","name":"","type":"address"}],"stateMutability":"view","type":"function"},{"inputs":[],"name":"pause","outputs":[],"stateMutability":"nonpayable","type":"function"},{"inputs":[],"name":"paused","outputs":[{"internalType":"bool","name":"","type":"bool"}],"stateMutability":"view","type":"function"},{"inputs":[{"internalType":"address","name":"_account","type":"address"}],"name":"removeModerator","outputs":[],"stateMutability":"nonpayable","type":"function"},{"inputs":[],"name":"renounceOwnership","outputs":[],"stateMutability":"nonpayable","type":"function"},{"inputs":[{"internalType":"bytes32","name":"role","type":"bytes32"},{"internalType":"address","name":"callerConfirmation","type":"address"}],"name":"renounceRole","outputs":[],"stateMutability":"nonpayable","type":"function"},{"inputs":[{"internalType":"bytes32","name":"_agreementId","type":"bytes32"},{"internalType":"uint256","name":"_percentage","type":"uint256"}],"name":"reportEnergyDelivery","outputs":[],"stateMutability":"nonpayable","type":"function"},{"inputs":[{"internalType":"bytes32","name":"role","type":"bytes32"},{"internalType":"address","name":"account","type":"address"}],"name":"revokeRole","outputs":[],"stateMutability":"nonpayable","type":"function"},{"inputs":[{"internalType":"address","name":"_newEscrowContract","type":"address"}],"name":"setEscrowContract","outputs":[],"stateMutability":"nonpayable","type":"function"},{"inputs":[{"internalType":"bytes32","name":"_agreementId","type":"bytes32"}],"name":"startEnergyTransfer","outputs":[],"stateMutability":"nonpayable","type":"function"},{"inputs":[{"internalType":"bytes4","name":"interfaceId","type":"bytes4"}],"name":"supportsInterface","outputs":[{"internalType":"bool","name":"","type":"bool"}],"stateMutability":"view","type":"function"},{"inputs":[{"internalType":"address","name":"newOwner","type":"address"}],"name":"transferOwnership","outputs":[],"stateMutability":"nonpayable","type":"function"},{"inputs":[],"name":"unpause","outputs":[],"stateMutability":"nonpayable","type":"function"},{"inputs":[{"internalType":"bytes32","name":"_offerId","type":"bytes32"},{"internalType":"uint256","name":"_energyAmount","type":"uint256"},{"internalType":"uint256","name":"_pricePerUnit","type":"uint256"},{"internalType":"uint256","name":"_startTime","type":"uint256"},{"internalType":"uint256","name":"_endTime","type":"uint256"}],"name":"updateOffer","outputs":[],"stateMutability":"nonpayable","type":"function"},{"inputs":[{"internalType":"address","name":"","type":"address"},{"internalType":"uint256","name":"","type":"uint256"}],"name":"userAgreements","outputs":[{"internalType":"bytes32","name":"","type":"bytes32"}],"stateMutability":"view","type":"function"},{"inputs":[{"internalType":"address","name":"","type":"address"},{"internalType":"uint256","name":"","type":"uint256"}],"name":"userOffers","outputs":[{"internalType":"bytes32","name":"","type":"bytes32"}],"stateMutability":"view","type":"function"}],"evm":{"bytecode":{"linkReferences":{},"object":"6080346200015c576001600160401b0390601f6200439938819003918201601f19168301918483118484101762000161578084926020946040528339810103126200015c57516001600160a01b038082169290918390036200015c576000906001825560ff1960015416600155331562000143576003549060018060a01b031994338684161760035560405192853391167f8be0079c531659141344cd1fd0a4f28419497f9722a3daafe3b4186f6b6457e08680a3836006558086600454161760045561112580840192848410908411176200012f57918391602093620032548439815203019082f090811562000123575016906005541617600555620001063362000177565b506200011233620001f8565b50604051612fb890816200029c8239f35b604051903d90823e3d90fd5b634e487b7160e01b85526041600452602485fd5b604051631e4fbdf760e01b815260048101839052602490fd5b600080fd5b634e487b7160e01b600052604160045260246000fd5b6001600160a01b031660008181527fac33ff75c19e70fe83507db0d683fd3465c996598dc972688b7ace676c89077b602052604081205490919060ff16620001f45781805260026020526040822081835260205260408220600160ff198254161790553391600080516020620043798339815191528180a4600190565b5090565b6001600160a01b031660008181527fe5ebfa64fca8d502a8e50c1edffd2c31ef4dad5b396e65d9f397fb028f74abc560205260408120549091907fa49807205ce4d355092ef5a8a18f56e8913cf4a201fbe287825b095693c217759060ff16620002965780835260026020526040832082845260205260408320600160ff1982541617905560008051602062004379833981519152339380a4600190565b50509056fe6080604052600436101561001257600080fd5b6000803560e01c806245be6f146121a557806301ffc9a71461214e578063248a9ca3146121215780632f2ff15d146120e357806336568abe1461209b57806337d6e15e14611edb57806338e8dfca14611d725780633f4ba83a14611d07578063474d3ff014611c505780634c27984e14611c085780634ec7fb8114611bdf57806354f2bbd614611bb45780635c975abb14611b91578063661d2c2c14611b1e57806368484c7c146118875780637048027514611837578063715018a6146117d957806375b238fc146117b0578063797669c9146117875780637ff118ef1461171157806381a9b19b14611428578063828525bb146110735780638456cb5914611019578063869d785f14610fc95780638da5cb5b14610fa057806391d1485414610f54578063952acc6c14610db75780639e1f68c714610d24578063a217fddf14610d08578063a5bbe22b14610cea578063adb9cae614610c63578063adc3e5f714610af9578063b532e4cb14610aa9578063ba72a73e1461087f578063bd5fec6514610829578063c81e59b214610666578063d3a164f1146103f8578063d547741f146103b6578063e42a96e71461038d578063e50e981414610303578063f2fde38b146102785763f42375b5146101ea57600080fd5b34610275576020366003190112610275576102036123c5565b61020b61298a565b6001600160a01b03168015610230576001600160601b0360a01b600554161760055580f35b60405162461bcd60e51b815260206004820152601f60248201527f496e76616c696420657363726f7720636f6e74726163742061646472657373006044820152606490fd5b80fd5b5034610275576020366003190112610275576102926123c5565b61029a61298a565b6001600160a01b039081169081156102ea57600354826001600160601b0360a01b821617600355167f8be0079c531659141344cd1fd0a4f28419497f9722a3daafe3b4186f6b6457e0600080a380f35b604051631e4fbdf760e01b815260048101849052602490fd5b50346102755761031236612394565b9082526008602052604082208054821015610389576103319250612503565b5060018060a01b0381541660018201549161034e600282016125ab565b61037a60046003840154930154916040519586958652602086015260a0604086015260a08501906123db565b91606084015260808301520390f35b8280fd5b50346102755780600319360112610275576005546040516001600160a01b039091168152602090f35b5034610275576040366003190112610275576103f46004356103d66123af565b9080845260026020526103ef600160408620015461269b565b612913565b5080f35b50346102755761040736612394565b61040f612b5f565b610417612b7d565b818352602090600982526040842061043184825414612d5c565b61044160ff600883015416612da8565b60038101546001600160a01b03908116330361061257601983148015610608575b80156105fe575b80156105f4575b156105a1578590600554166007830154813b15610389578291604483926040519485938492635d655fb160e01b845260048401528960248401525af180156105965761057e575b505060405192606084019084821067ffffffffffffffff8311176105685760649486937fec1d080ea1c9d6e68361e523876c215943bb6f4ca3ab455e4fac692318d9eab693604052428252600183830192818452600960408201938c8552898d5201855260408b209051815501915115159060ff61ff0084549251151560081b1692169061ffff191617179055604051848152a214610559575b506001815580f35b61056290612df4565b38610551565b634e487b7160e01b600052604160045260246000fd5b61058790612559565b6105925784386104b7565b8480fd5b6040513d84823e3d90fd5b60405162461bcd60e51b815260048101859052602560248201527f50657263656e74616765206d7573742062652032352c2035302c2037352c206f604482015264072203130360dc1b6064820152608490fd5b5060648314610470565b50604b8314610469565b5060328314610462565b60405162461bcd60e51b815260048101859052602660248201527f4f6e6c792073656c6c65722063616e207265706f727420656e657267792064656044820152656c697665727960d01b6064820152608490fd5b50346102755760603660031901126102755760043560243560443567ffffffffffffffff81116108255761069e9036906004016124d5565b90916106a8612b5f565b6106b0612b7d565b83855260096020526009604086206106ca86825414612d5c565b6106da60ff600883015416612da8565b6106f160018060a01b036002830154163314612e70565b8287520160205260408520600181549161070c831515612ed6565b019384549160ff8316156107d0576201518081018091116107bc574211610781577ffcb7e83f02e3a70254e135a79debb7538f65d50d87b4011583b1f184d304a37d946101006107779361ffff19161790556040519384938452604060208501526040840191612eb5565b0390a26001815580f35b60405162461bcd60e51b81526020600482015260136024820152722234b9b83aba32903832b934b7b21037bb32b960691b6044820152606490fd5b634e487b7160e01b88526011600452602488fd5b60405162461bcd60e51b815260206004820152602760248201527f4d696c6573746f6e6520616c72656164792066696e616c697a6564206f7220646044820152661a5cdc1d5d195960ca1b6064820152608490fd5b8380fd5b5034610275576040366003190112610275576108436123c5565b6001600160a01b03168152600a60205260408120805460243592908310156102755760206108718484612482565b90546040519160031b1c8152f35b503461027557602090816003193601126102755760043561089e612b5f565b6108a6612b7d565b808252600983526108bd6040832091825414612d5c565b6108cd60ff600883015416612da8565b6001810180548352600784526040832060028301546001600160a01b03929190831633819003610a53578684600454169160648660055416918960058a01549560405196879586946323b872dd60e01b86526004860152602485015260448401525af1908115610a48578691610a0e575b50156109c95794600080516020612f238339815191526007939284879801600360ff19825416179055549160405160038152a260055416910154813b156109c5578291602483926040519485938492636789f9cb60e01b845260048401525af18015610596576109b1575b506001905580f35b6109ba90612559565b6102755780386109a9565b5050fd5b60405162461bcd60e51b815260048101879052601f60248201527f546f6b656e207472616e7366657220746f20657363726f77206661696c6564006044820152606490fd5b90508681813d8311610a41575b610a258183612589565b81010312610a3d57518015158103610a3d573861093e565b8580fd5b503d610a1b565b6040513d88823e3d90fd5b60405162461bcd60e51b815260048101889052602860248201527f4f6e6c792062757965722063616e2073746172742074686520656e65726779206044820152673a3930b739b332b960c11b6064820152608490fd5b5034610275576020366003190112610275576103f4610ac66123c5565b610ace612651565b600080516020612f4383398151915283526002602052610af4600160408520015461269b565b612762565b50346102755760403660031901126102755760043560243567ffffffffffffffff811161038957610b2e9036906004016124d5565b610b39929192612b5f565b610b41612b7d565b81845260096020526040842092610b5a83855414612d5c565b6008840191610b6c60ff845416612da8565b60028501546001600160a01b039390610b889085163314612e70565b8660018701968754825260076020526007604083209660055416910154813b1561038957829160248392604051948593849263b9a7579b60e01b845260048401525af1801561059657610c4b575b5050600560077f6d076295600b2edccfb5c35388414d69ea1ebde72de4e48290780f5fbe0d9f289560ff19938481541690550191825416179055610c27604051928392602084526020840191612eb5565b0390a254600080516020612f23833981519152602060405160058152a26001815580f35b610c5490612559565b610c5f578638610bd6565b8680fd5b503461027557602080600319360112610ce6576001600160a01b03610c866123c5565b168252600b815260408220916040518092808554928381520194835280832092905b828210610ccf57610ccb85610cbf81890382612589565b6040519182918261249a565b0390f35b835486529485019460019384019390910190610ca8565b5080fd5b50346102755780600319360112610275576020604051620151808152f35b5034610275578060031936011261027557602090604051908152f35b503461027557602036600319011261027557604061012091600435815260096020522080549060018101549060018060a01b038060028301541690600383015416600483015460058401549160068501549360ff600860078801549701541696604051988952602089015260408801526060870152608086015260a085015260c084015260e08301521515610100820152f35b50346102755760a036600319011261027557600435606435602435604435608435610de0612b5f565b610de8612b7d565b84865260076020526040862091610e0186845414612c14565b60018301546001600160a01b03163303610f0f5760ff600784015416926006841015610efb5783158015610ef1575b15610eac57600080516020612f2383398151915295610e8b60069387610e5960209915156129b6565b610e64821515612a12565b610e6f848811612a6f565b610e7a428511612ac5565b806002860155816003860155612b10565b600483015560058201550155610ea4604051809261243e565ba26001815580f35b60405162461bcd60e51b815260206004820152601760248201527f4f666665722063616e6e6f7420626520757064617465640000000000000000006044820152606490fd5b5060018414610e30565b634e487b7160e01b88526021600452602488fd5b60405162461bcd60e51b815260206004820152601d60248201527f4f6e6c792063726561746f722063616e20757064617465206f666665720000006044820152606490fd5b5034610275576040366003190112610275576040610f706123af565b9160043581526002602052209060018060a01b0316600052602052602060ff604060002054166040519015158152f35b50346102755780600319360112610275576003546040516001600160a01b039091168152602090f35b5034610275576020366003190112610275576103f4610fe66123c5565b610fee612651565b600080516020612f4383398151915283526002602052611014600160408520015461269b565b612879565b5034610275578060031936011261027557611032612651565b61103a612b5f565b600160ff19815416176001557f62e78cea01bee320cd4e420270b5ea74000d11b0c9f74754ebdbfc544b05a2586020604051338152a180f35b50346102755760803660031901126102755767ffffffffffffffff60043560248035838111610592576110aa9036906004016124d5565b6110b5949194612b5f565b6110bd612b7d565b838652602092600784526007604088206110d987825414612c14565b01805460ff811660068110158061141557811580928115611406575b50156113b8576113a55761137b575b50508487526008845260408720956040519361111f8561256d565b33855285850193428552818111611368578960405193601f199261114a8a85601f8401160187612589565b808652368183011161038957808a9283880137850101526040860192835260608601936044358552608087019560643587528a54600160401b8110156113555761119b9060019c8d82018155612503565b989098611342575188546001600160a01b0319166001600160a01b0391909116178855518a8801559251805160028801949093841161133057506111df845461251f565b601f81116112e9575b508791601f841160011461125f575091807fa983694c328bf2fb0272b481569462b78d47c58e7ec32645deb922ff47d53b589897969492600496948d92611254575b5050600019600383901b1c1916908a1b1790555b51600384015551910155604051338152a2815580f35b01519050388061122a565b9183928b941691858d52898d20928d5b8181106112d2575091600497959391857fa983694c328bf2fb0272b481569462b78d47c58e7ec32645deb922ff47d53b589c9b9a989694106112b9575b505050811b01905561123e565b015160001960f88460031b161c191690553880806112ac565b8284015185558d9690940193928b01928b0161126f565b848c52888c20601f850160051c8101918a8610611326575b601f0160051c01908b905b82811061131a5750506111e8565b60008155018b9061130c565b9091508190611301565b634e487b7160e01b8c5260416004528bfd5b634e487b7160e01b8d5260048d9052828dfd5b634e487b7160e01b8d526041600452828dfd5b634e487b7160e01b8a526041600452838afd5b60019060ff191617905584600080516020612f238339815191528560405160018152a23880611104565b634e487b7160e01b8a526021600452838afd5b60405162461bcd60e51b8152600481018990526021818701527f4f66666572206973206e6f74206f70656e20666f72206e65676f74696174696f6044820152603760f91b6064820152608490fd5b915050600160009114386110f5565b634e487b7160e01b8b526021600452848bfd5b50346102755760603660031901126102755760443590602480359160043561144e612b5f565b611456612b7d565b80825260209360078552604083209361147183865414612c14565b600785019460ff86541660068110156116a4578015908115611706575b50156116b7576001906114a28915156129b6565b01549660ff8860a01c1660028110156116a4576002986084916116875733949089906001600160a01b03166114d987821415612c57565b61151e6114e68433612ba0565b8b54610100600160a81b0319909e166001600160a81b0319909e169d909d173360081b610100600160a81b031617909a5560ff199b99565b61152788612ca3565b60018060a01b039384918a8360055416604051978895869463665d72fb60e11b8652169b8c600486015216809a8401528860448401528660648401525af191821561167c57879261164c575b5085948796948b600160088c977f03973cede5087787eddf0e0298afdec6ed9f15110b2282b52b6edee1a93f545c978f976040859f6009829b8e83525220928b84558c86850155600284016001600160601b0360a01b908a828254161790558860038601918254161790556004840155600583015542600683015560078201550191825416179055818852600b8b5261160e85848a20612b39565b808852600b8b5261162185848a20612b39565b82519182528a820152a3600080516020612f238339815191528560405160028152a255604051908152f35b9091508881813d8311611675575b6116648183612589565b81010312610c5f5751906001611573565b503d61165a565b6040513d89823e3d90fd5b6001600160a01b031693883361169f81881415612c57565b6114d9565b634e487b7160e01b865260216004528286fd5b608487836040519162461bcd60e51b83526004830152808201527f4f66666572206973206e6f7420617661696c61626c6520666f722061677265656044820152631b595b9d60e21b6064820152fd5b60019150143861148e565b5034610275578060031936011261027557604051600c80548083529083526020808301937fdf6966c971051c3d54ec59162606531493a51404a002842f56009d7e5cf4a8c792915b82821061177057610ccb85610cbf81890382612589565b835486529485019460019384019390910190611759565b50346102755780600319360112610275576020604051600080516020612f438339815191528152f35b50346102755780600319360112610275576020604051600080516020612f638339815191528152f35b50346102755780600319360112610275576117f261298a565b600380546001600160a01b031981169091556000906001600160a01b03167f8be0079c531659141344cd1fd0a4f28419497f9722a3daafe3b4186f6b6457e08280a380f35b5034610275576020366003190112610275576103f46118546123c5565b61185c612651565b600080516020612f6383398151915283526002602052611882600160408520015461269b565b6126c1565b50346102755760a03660031901126102755760026004351015610275576118ac612b5f565b6118b4612b7d565b6118c160243515156129b6565b6118ce6044351515612a12565b6118dd60643560843511612a6f565b6118ea4260643511612ac5565b6118f8604435602435612b10565b61190d6004356001600160a01b031633612ba0565b9060405190610160820182811067ffffffffffffffff82111761056857604052828252602082019033825260408301916004358352606084019160243583526080850190604435825260a0860190815260c0860190606435825260e087019260843584526101008801958a87526101208901958b87526101408a0198428a528b8d52600760205260408d209a518b5560018b019160018060a01b03905116825491516002811015611b0a5760ff60a01b9060a01b16916affffffffffffffffffffff60a81b16171790555160028901555160038801555160048701555160058601555160068501556007840191516006811015611af657825491516001600160a81b031990921660ff90911617600891821b610100600160a81b0316179091559051910155338252600a602052611a478160408420612b39565b600c54600160401b81101561056857611a81611a6a826001859401600c5561244b565b819391549060031b91821b91600019901b19161790565b9055600c546000198101908111611ae257826001918360209552600d85526040822055604051611ab38160043561241b565b837fd4cdb9461e7bb277691704e70b4f3822a366e2a92a7e3b797154789698e07a45863393a355604051908152f35b634e487b7160e01b83526011600452602483fd5b634e487b7160e01b87526021600452602487fd5b634e487b7160e01b8f52602160045260248ffd5b503461027557602080600319360112610ce6576001600160a01b03611b416123c5565b168252600a815260408220916040518092808554928381520194835280832092905b828210611b7a57610ccb85610cbf81890382612589565b835486529485019460019384019390910190611b63565b5034610275578060031936011261027557602060ff600154166040519015158152f35b50346102755760203660031901126102755760043590600c548210156102755760206108718361244b565b50346102755780600319360112610275576004546040516001600160a01b039091168152602090f35b503461027557604036600319011261027557611c226123c5565b6001600160a01b03168152600b60205260408120805460243592908310156102755760206108718484612482565b50346102755760203660031901126102755760406101609160043581526007602052208054906001810154600282015491600381015460048201546005830154906006840154926008600786015495015496604051988952611ccb60018060a01b039788811660208c015260ff60408c019160a01c1661241b565b6060890152608088015260a087015260c086015260e0850152611cf5610100850160ff831661243e565b60081c16610120830152610140820152f35b5034610275578060031936011261027557611d20612651565b60015460ff811615611d605760ff19166001557f5db9ee0a495bf2e6ff9c91a7834c1ba4fdd244a5e8aa4e537bd38aeae4b073aa6020604051338152a180f35b604051638dfc202b60e01b8152600490fd5b50346102755760209081600319360112610275576004358152600882526040812080549267ffffffffffffffff8411611ec75791604051600594611dba8582881b0183612589565b808252848201809484528584208785925b848410611e66575050505050604051938085019181865251809252604082818701971b8601019392955b828710611e025785850386f35b909192938280600192603f19898203018552875190848060a01b0382511681528282015183820152611e42604083015160a08060408501528301906123db565b91606080820151908301526080809101519101529601920196019592919092611df5565b908860019260409a97989a51611e7b8161256d565b848060a01b0386541681528486015483820152611e9a600287016125ab565b60408201526003860154606082015260048601546080820152815201920192019190889097959497611dcb565b634e487b7160e01b83526041600452602483fd5b503461027557602080600319360112610ce65760043590600080516020612f438339815191528060005260028252604060002033600052825260ff604060002054161561207d575081835260078152600760408420611f3c84825414612c14565b01805460ff8116600681101561206957801590811561205e575b50156120195760ff19166005179055818352600d8152604083205415801590611fa9575b90600080516020612f2383398151915291611f9b575b60405160058152a280f35b611fa483612ca3565b611f90565b50600c541590811580611fbf575b909150611f7a565b509061200357600080516020612f2383398151915290600c600052827fdf6966c971051c3d54ec59162606531493a51404a002842f56009d7e5cf4a8c75414611fb7565b634e487b7160e01b600052603260045260246000fd5b60405162461bcd60e51b815260048101849052601960248201527f4f666665722063616e6e6f74206265206d6f64657261746564000000000000006044820152606490fd5b600191501438611f56565b634e487b7160e01b86526021600452602486fd5b6044906040519063e2517d3f60e01b82523360048301526024820152fd5b5034610275576040366003190112610275576120b56123af565b336001600160a01b038216036120d1576103f490600435612913565b60405163334bd91960e11b8152600490fd5b5034610275576040366003190112610275576103f46004356121036123af565b90808452600260205261211c600160408620015461269b565b6127fe565b50346102755760203660031901126102755760016040602092600435815260028452200154604051908152f35b50346102755760203660031901126102755760043563ffffffff60e01b8116809103610ce657602090637965db0b60e01b8114908115612194575b506040519015158152f35b6301ffc9a760e01b14905082612189565b5034610275576121b436612394565b6121bc612b5f565b6121c4612b7d565b8183526009602052604083206121dc83825414612d5c565b6121ec60ff600883015416612da8565b818452600981016020526040842090600182549261220b841515612ed6565b0180549260ff84161561234f5760ff8460081c16612312576201518081018091116122fe574211156122b95760ff199092169091556005546007919091015484916001600160a01b0316803b1561038957604483926040519485938492635d655fb160e01b845260048401528760248401525af180156122ae5761229a575b5060641461055957506001815580f35b926122a760649294612559565b929061228a565b6040513d86823e3d90fd5b60405162461bcd60e51b815260206004820152601760248201527f4469737075746520706572696f64206e6f74206f7665720000000000000000006044820152606490fd5b634e487b7160e01b87526011600452602487fd5b60405162461bcd60e51b8152602060048201526015602482015274135a5b195cdd1bdb99481a5cc8191a5cdc1d5d1959605a1b6044820152606490fd5b60405162461bcd60e51b815260206004820152601b60248201527f4d696c6573746f6e6520616c72656164792066696e616c697a656400000000006044820152606490fd5b60409060031901126123aa576004359060243590565b600080fd5b602435906001600160a01b03821682036123aa57565b600435906001600160a01b03821682036123aa57565b919082519283825260005b848110612407575050826000602080949584010152601f8019910116010190565b6020818301810151848301820152016123e6565b9060028210156124285752565b634e487b7160e01b600052602160045260246000fd5b9060068210156124285752565b600c5481101561200357600c6000527fdf6966c971051c3d54ec59162606531493a51404a002842f56009d7e5cf4a8c70190600090565b80548210156120035760005260206000200190600090565b6020908160408183019282815285518094520193019160005b8281106124c1575050505090565b8351855293810193928101926001016124b3565b9181601f840112156123aa5782359167ffffffffffffffff83116123aa57602083818601950101116123aa57565b8054821015612003576000526005602060002091020190600090565b90600182811c9216801561254f575b602083101461253957565b634e487b7160e01b600052602260045260246000fd5b91607f169161252e565b67ffffffffffffffff811161056857604052565b60a0810190811067ffffffffffffffff82111761056857604052565b90601f8019910116810190811067ffffffffffffffff82111761056857604052565b90604051918260008254926125bf8461251f565b90818452600194858116908160001461262e57506001146125eb575b50506125e992500383612589565b565b9093915060005260209081600020936000915b8183106126165750506125e9935082010138806125db565b855488840185015294850194879450918301916125fe565b9150506125e994506020925060ff191682840152151560051b82010138806125db565b3360009081527fe5ebfa64fca8d502a8e50c1edffd2c31ef4dad5b396e65d9f397fb028f74abc56020526040902054600080516020612f638339815191529060ff161561207d5750565b80600052600260205260406000203360005260205260ff604060002054161561207d5750565b6001600160a01b031660008181527fe5ebfa64fca8d502a8e50c1edffd2c31ef4dad5b396e65d9f397fb028f74abc56020526040812054909190600080516020612f638339815191529060ff1661275d5780835260026020526040832082845260205260408320600160ff198254161790557f2f8788117e7eff1d82e926ec794901d17c78024a50270940304540a733656f0d339380a4600190565b505090565b6001600160a01b031660008181527fb1ef985877d50d34e95c2aaf1c996731c63181754cd1cb73eef00b96d479196e6020526040812054909190600080516020612f438339815191529060ff1661275d5780835260026020526040832082845260205260408320600160ff198254161790557f2f8788117e7eff1d82e926ec794901d17c78024a50270940304540a733656f0d339380a4600190565b906000918083526002602052604083209160018060a01b03169182845260205260ff6040842054161560001461275d5780835260026020526040832082845260205260408320600160ff198254161790557f2f8788117e7eff1d82e926ec794901d17c78024a50270940304540a733656f0d339380a4600190565b6001600160a01b031660008181527fb1ef985877d50d34e95c2aaf1c996731c63181754cd1cb73eef00b96d479196e6020526040812054909190600080516020612f438339815191529060ff161561275d578083526002602052604083208284526020526040832060ff1981541690557ff6391f5c32d9c69d2a47ea670b442974b53935d1edc7fd64eb21e047a839171b339380a4600190565b906000918083526002602052604083209160018060a01b03169182845260205260ff60408420541660001461275d578083526002602052604083208284526020526040832060ff1981541690557ff6391f5c32d9c69d2a47ea670b442974b53935d1edc7fd64eb21e047a839171b339380a4600190565b6003546001600160a01b0316330361299e57565b60405163118cdaa760e01b8152336004820152602490fd5b156129bd57565b60405162461bcd60e51b815260206004820152602760248201527f456e6572677920616d6f756e74206d7573742062652067726561746572207468604482015266616e207a65726f60c81b6064820152608490fd5b15612a1957565b60405162461bcd60e51b815260206004820152602860248201527f50726963652070657220756e6974206d7573742062652067726561746572207460448201526768616e207a65726f60c01b6064820152608490fd5b15612a7657565b60405162461bcd60e51b815260206004820152602160248201527f456e642074696d65206d7573742062652061667465722073746172742074696d6044820152606560f81b6064820152608490fd5b15612acc57565b606460405162461bcd60e51b815260206004820152602060248201527f53746172742074696d65206d75737420626520696e20746865206675747572656044820152fd5b81810292918115918404141715612b2357565b634e487b7160e01b600052601160045260246000fd5b805490600160401b8210156105685781611a6a916001612b5b94018155612482565b9055565b60ff60015416612b6b57565b60405163d93c066560e01b8152600490fd5b600260005414612b8e576002600055565b604051633ee5aeb560e01b8152600490fd5b9060065460001990818114612b23576001019081600655430190438211612b23576040519260208401946001600160601b03199060601b168552426034850152605484015260748301524060948201526094815260c0810181811067ffffffffffffffff8211176105685760405251902090565b15612c1b57565b60405162461bcd60e51b815260206004820152601460248201527313d999995c88191bd95cc81b9bdd08195e1a5cdd60621b6044820152606490fd5b15612c5e57565b60405162461bcd60e51b815260206004820152601e60248201527f43616e6e6f7420616772656520746f20796f7572206f776e206f6666657200006044820152606490fd5b600090808252600d6020526040822054600c549060001991828101908111612d4857808203612d16575b5050600c548015612d0257810190612ce48261244b565b909182549160031b1b19169055600c558152600d6020526040812055565b634e487b7160e01b84526031600452602484fd5b612d1f9061244b565b90549060031b1c80612d33611a6a8461244b565b90558452600d60205260408420553880612ccd565b634e487b7160e01b85526011600452602485fd5b15612d6357565b60405162461bcd60e51b815260206004820152601860248201527f41677265656d656e7420646f6573206e6f7420657869737400000000000000006044820152606490fd5b15612daf57565b60405162461bcd60e51b815260206004820152601760248201527f41677265656d656e74206973206e6f74206163746976650000000000000000006044820152606490fd5b600080516020612f238339815191526020600092808452600982526040842090600182019182548652600784526004600760086040892093019260ff199384815416905501918254161790557ff19f756ff352a18ac12de7527fe3ed4e8941b69eaeb0f360dfca534224291f646040519580a2549260048152a2565b15612e7757565b60405162461bcd60e51b81526020600482015260166024820152754f6e6c792062757965722063616e206469737075746560501b6044820152606490fd5b908060209392818452848401376000828201840152601f01601f1916010190565b15612edd57565b60405162461bcd60e51b815260206004820152601a60248201527f4d696c6573746f6e65206e6f74207265706f72746564207965740000000000006044820152606490fdfef5fbb8918491c66348a8751aa1de278550ed0c6dde1b2026a7873d90411645e471f3d55856e4058ed06ee057d79ada615f65cdf5f9ee88181b914225088f834fa49807205ce4d355092ef5a8a18f56e8913cf4a201fbe287825b095693c21775a2646970667358221220aa1647a9222ff09e44e259cbe80255f52ade2e2d7eb124defe18afb83c26e53964736f6c634300081400336080346100f857601f61112538819003918201601f19168301916001600160401b038311848410176100fd578084926020946040528339810103126100f857516001600160a01b0390818116908190036100f857600160005560015433156100df576001600160a81b0319811633600881811b610100600160a81b03169290921760015560405194909290911c167f8be0079c531659141344cd1fd0a4f28419497f9722a3daafe3b4186f6b6457e0600080a3600060035560018060a01b0319908160025416176002553390600554161760055561101190816101148239f35b604051631e4fbdf760e01b815260006004820152602490fd5b600080fd5b634e487b7160e01b600052604160045260246000fdfe6080604081815260048036101561001557600080fd5b600092833560e01c9081632d83549c14610d3b575080633f4ba83a14610cd25780634ec7fb8114610ca957806351a89ce814610c2d5780635c975abb14610c095780635d655fb1146108f45780636789f9cb1461075b5780636c4596811461071c578063715018a6146106bb5780638456cb59146106615780638da5cb5b14610634578063b9a7579b146104ce578063ccbae5f614610337578063d1bb5cf11461030a578063e63ea4081461020a578063f2fde38b1461016e5763f49a52aa146100de57600080fd5b3461016a57602036600319011261016a576100f7610dd8565b6100ff610e04565b6001600160a01b03169182156101275750506001600160601b0360a01b600554161760055580f35b906020606492519162461bcd60e51b8352820152601b60248201527f496e76616c6964206d61726b6574706c616365206164647265737300000000006044820152fd5b8280fd5b503461016a57602036600319011261016a57610188610dd8565b610190610e04565b6001600160a01b038181169390929084156101f457505060018054610100600160a81b03198116600893841b610100600160a81b031617909155901c167f8be0079c531659141344cd1fd0a4f28419497f9722a3daafe3b4186f6b6457e08380a380f35b51631e4fbdf760e01b8152908101859052602490fd5b503461016a57606036600319011261016a57610224610dd8565b61022c610dee565b610234610e04565b6001600160a01b03818116156102c757845163a9059cbb60e01b81526001600160a01b0392909216938201938452604435602080860191909152919493919285928390036040019183918891165af19081156102be5750610293575080f35b6102b39060203d81116102b7575b6102ab8183610ec0565b810190610f7f565b5080f35b503d6102a1565b513d84823e3d90fd5b845162461bcd60e51b8152602081860152601f60248201527f43616e6e6f7420776974686472617720746f207a65726f2061646472657373006044820152606490fd5b50503461033357816003193601126103335760055490516001600160a01b039091168152602090f35b5080fd5b5091346104cb5760803660031901126104cb57610352610dd8565b9261035b610dee565b936044356064359560018060a01b0361037981600554163314610e33565b610381610e7f565b610389610e9d565b60035460001993908481146104b857600101938460035543014381116104b8578851946020860196848116946001600160601b0319809260601b16895286169560601b16603487015242604887015282606887015260888601524060a885015260a8845260e084019484861067ffffffffffffffff8711176104a557908994939291868a5284519020998a97888a52806020528a8a2092898455600184016001600160601b0360a01b908682825416179055866002860191825416179055600384015582015587600582015542600682015560070160ff1981541690558452610100820152610120015260607f0dd968c277d9dc6b36b6ec2b638324c3d937882c64ca109440bc050ebf26cb0791a26001905551908152602090f35b634e487b7160e01b885260418752602488fd5b634e487b7160e01b885260118752602488fd5b80fd5b503461016a57602080600319360112610630576005548235926001600160a01b03916104fd9083163314610e33565b610505610e7f565b61050d610e9d565b8386528083528486209161052385845414610ef8565b600783019283549361053760ff8616610f3c565b838201546005830154918282039682881161061d5760ff19169055899392919003610565575b826001815580f35b60025460019190910154885163a9059cbb60e01b81529083166001600160a01b0316948101948552602085018690529386938593909216918391829060400103925af1908115610613577f21cabc2fff910e5afd1e2bcb22ff2b165a41ab0afbaf364f07aaf2f7787fb9089495916105e49188916105f6575b50610f97565b51908152a2388080808085818061055d565b61060d9150853d87116102b7576102ab8183610ec0565b386105de565b85513d88823e3d90fd5b634e487b7160e01b8c526011875260248cfd5b8380fd5b505034610333578160031936011261033357600154905160089190911c6001600160a01b03168152602090f35b50503461033357816003193601126103335760207f62e78cea01bee320cd4e420270b5ea74000d11b0c9f74754ebdbfc544b05a2589161069f610e04565b6106a7610e7f565b600160ff198154161760015551338152a180f35b83346104cb57806003193601126104cb576106d4610e04565b60018054610100600160a81b03198116909155819060081c6001600160a01b03167f8be0079c531659141344cd1fd0a4f28419497f9722a3daafe3b4186f6b6457e08280a380f35b503461016a5781602093600860ff9361073436610dbd565b9091828552885261074a85852092835414610ef8565b835201855220541690519015158152f35b50903461016a576020806003193601126106305782359260018060a01b039161078983600554163314610e33565b610791610e7f565b610799610e9d565b848652818152838620936107af86865414610ef8565b600785019485549460ff86166108b1579083602492600254168451938480926370a0823160e01b8252308a8301525afa9182156108a7579085918a93610870575b5001541161082f5750505060ff191660011790557fb01718cc2fef93a8279b929ceca602bda7d1d2d9253d23c1cafe4b5ac2092ba48280a26001815580f35b5162461bcd60e51b815291820152601b60248201527f496e73756666696369656e742066756e64732072656365697665640000000000604482015260649150fd5b85809294508193503d83116108a0575b61088a8183610ec0565b8101031261089c5784905191386107f0565b8880fd5b503d610880565b83513d8b823e3d90fd5b50505162461bcd60e51b815291820152601860248201527f457363726f7720697320616c7265616479206163746976650000000000000000604482015260649150fd5b503461016a5761090336610dbd565b60055491936001600160a01b039261091e9084163314610e33565b610926610e7f565b61092e610e9d565b84865260208481528187209461094687875414610ef8565b600786019561095860ff885416610f3c565b601985148015610bff575b8015610bf5575b8015610beb575b15610b9b576008810191858a5282845260ff858b205416610b475760198611610ac4575b8082015460021c92868b528452848a209660ff199760018982541617905560058301805490858201809211610ab1575560028054930154865163a9059cbb60e01b81529082166001600160a01b03169281019283526020830185905292859284929091169082908d90829060400103925af1908115610aa757927f75be8d7515237236cfb3e6c6aa6f74fb8dd8db900b6f433310f89d497092d78f92610a4760649796938b968d91610a905750610f97565b825191868352820152a214610a5f575b836001815580f35b81541690557ff13b3bfa8cd084cadab3723a031c3f1c641ce6072626163d3100c1cd14c18a288280a2388080610a57565b61060d9150843d86116102b7576102ab8183610ec0565b84513d8b823e3d90fd5b634e487b7160e01b8d526011845260248dfd5b6018198601868111610b34578a5282845260ff858b20541661099557845162461bcd60e51b8152908101849052602860248201527f50726576696f7573206d696c6573746f6e6520686173206e6f74206265656e206044820152671c995b19585cd95960c21b6064820152608490fd5b634e487b7160e01b8b526011825260248bfd5b845162461bcd60e51b8152908101849052602860248201527f54686973206d696c6573746f6e652068617320616c7265616479206265656e206044820152671c995b19585cd95960c21b6064820152608490fd5b50915162461bcd60e51b815291820152602560248201527f50657263656e74616765206d7573742062652032352c2035302c2037352c206f604482015264072203130360dc1b6064820152608490fd5b5060648514610971565b50604b851461096a565b5060328514610963565b50503461033357816003193601126103335760209060ff6001541690519015158152f35b503461016a57602036600319011261016a5760c092610c5a83833592838152846020522091825414610ef8565b60018060a01b03928360018301541693600283015416926003830154908301549160ff6007600586015495015416948151968752602087015285015260608401526080830152151560a0820152f35b50503461033357816003193601126103335760025490516001600160a01b039091168152602090f35b503461016a578260031936011261016a57610ceb610e04565b6001549060ff821615610d2d575060ff1916600155513381527f5db9ee0a495bf2e6ff9c91a7834c1ba4fdd244a5e8aa4e537bd38aeae4b073aa90602090a180f35b8251638dfc202b60e01b8152fd5b92919050346106305760203660031901126106305781610100948235815282602052209081549260018060a01b039182600185015416926002850154166003850154918501549260058601549460ff600760068901549801541697895260208901528701526060860152608085015260a084015260c0830152151560e0820152f35b6040906003190112610dd3576004359060243590565b600080fd5b600435906001600160a01b0382168203610dd357565b602435906001600160a01b0382168203610dd357565b60015460081c6001600160a01b03163303610e1b57565b60405163118cdaa760e01b8152336004820152602490fd5b15610e3a57565b60405162461bcd60e51b815260206004820152601d60248201527f43616c6c6572206973206e6f7420746865206d61726b6574706c6163650000006044820152606490fd5b60ff60015416610e8b57565b60405163d93c066560e01b8152600490fd5b600260005414610eae576002600055565b604051633ee5aeb560e01b8152600490fd5b90601f8019910116810190811067ffffffffffffffff821117610ee257604052565b634e487b7160e01b600052604160045260246000fd5b15610eff57565b60405162461bcd60e51b8152602060048201526015602482015274115cd8dc9bddc8191bd95cc81b9bdd08195e1a5cdd605a1b6044820152606490fd5b15610f4357565b60405162461bcd60e51b8152602060048201526014602482015273457363726f77206973206e6f742061637469766560601b6044820152606490fd5b90816020910312610dd357518015158103610dd35790565b15610f9e57565b60405162461bcd60e51b8152602060048201526015602482015274151bdad95b881d1c985b9cd9995c8819985a5b1959605a1b6044820152606490fdfea264697066735822122033c11afcfcf76654d01d6fd2cb5fee35975e34f831d5e511c85af09ed80e747a64736f6c634300081400332f8788117e7eff1d82e926ec794901d17c78024a50270940304540a733656f0d","opcodes":"PUSH1 0x80 CALLVALUE PUSH3 0x15C JUMPI PUSH1 0x1 PUSH1 0x1 PUSH1 0x40 SHL SUB SWAP1 PUSH1 0x1F PUSH3 0x4399 CODESIZE DUP2 SWAP1 SUB SWAP2 DUP3 ADD PUSH1 0x1F NOT AND DUP4 ADD SWAP2 DUP5 DUP4 GT DUP5 DUP5 LT OR PUSH3 0x161 JUMPI DUP1 DUP5 SWAP3 PUSH1 0x20 SWAP5 PUSH1 0x40 MSTORE DUP4 CODECOPY DUP2 ADD SUB SLT PUSH3 0x15C JUMPI MLOAD PUSH1 0x1 PUSH1 0x1 PUSH1 0xA0 SHL SUB DUP1 DUP3 AND SWAP3 SWAP1 SWAP2 DUP4 SWAP1 SUB PUSH3 0x15C JUMPI PUSH1 0x0 SWAP1 PUSH1 0x1 DUP3 SSTORE PUSH1 0xFF NOT PUSH1 0x1 SLOAD AND PUSH1 0x1 SSTORE CALLER ISZERO PUSH3 0x143 JUMPI PUSH1 0x3 SLOAD SWAP1 PUSH1 0x1 DUP1 PUSH1 0xA0 SHL SUB NOT SWAP5 CALLER DUP7 DUP5 AND OR PUSH1 0x3 SSTORE PUSH1 0x40 MLOAD SWAP3 DUP6 CALLER SWAP2 AND PUSH32 0x8BE0079C531659141344CD1FD0A4F28419497F9722A3DAAFE3B4186F6B6457E0 DUP7 DUP1 LOG3 DUP4 PUSH1 0x6 SSTORE DUP1 DUP7 PUSH1 0x4 SLOAD AND OR PUSH1 0x4 SSTORE PUSH2 0x1125 DUP1 DUP5 ADD SWAP3 DUP5 DUP5 LT SWAP1 DUP5 GT OR PUSH3 0x12F JUMPI SWAP2 DUP4 SWAP2 PUSH1 0x20 SWAP4 PUSH3 0x3254 DUP5 CODECOPY DUP2 MSTORE SUB ADD SWAP1 DUP3 CREATE SWAP1 DUP2 ISZERO PUSH3 0x123 JUMPI POP AND SWAP1 PUSH1 0x5 SLOAD AND OR PUSH1 0x5 SSTORE PUSH3 0x106 CALLER PUSH3 0x177 JUMP JUMPDEST POP PUSH3 0x112 CALLER PUSH3 0x1F8 JUMP JUMPDEST POP PUSH1 0x40 MLOAD PUSH2 0x2FB8 SWAP1 DUP2 PUSH3 0x29C DUP3 CODECOPY RETURN JUMPDEST PUSH1 0x40 MLOAD SWAP1 RETURNDATASIZE SWAP1 DUP3 RETURNDATACOPY RETURNDATASIZE SWAP1 REVERT JUMPDEST PUSH4 0x4E487B71 PUSH1 0xE0 SHL DUP6 MSTORE PUSH1 0x41 PUSH1 0x4 MSTORE PUSH1 0x24 DUP6 REVERT JUMPDEST PUSH1 0x40 MLOAD PUSH4 0x1E4FBDF7 PUSH1 0xE0 SHL DUP2 MSTORE PUSH1 0x4 DUP2 ADD DUP4 SWAP1 MSTORE PUSH1 0x24 SWAP1 REVERT JUMPDEST PUSH1 0x0 DUP1 REVERT JUMPDEST PUSH4 0x4E487B71 PUSH1 0xE0 SHL PUSH1 0x0 MSTORE PUSH1 0x41 PUSH1 0x4 MSTORE PUSH1 0x24 PUSH1 0x0 REVERT JUMPDEST PUSH1 0x1 PUSH1 0x1 PUSH1 0xA0 SHL SUB AND PUSH1 0x0 DUP2 DUP2 MSTORE PUSH32 0xAC33FF75C19E70FE83507DB0D683FD3465C996598DC972688B7ACE676C89077B PUSH1 0x20 MSTORE PUSH1 0x40 DUP2 KECCAK256 SLOAD SWAP1 SWAP2 SWAP1 PUSH1 0xFF AND PUSH3 0x1F4 JUMPI DUP2 DUP1 MSTORE PUSH1 0x2 PUSH1 0x20 MSTORE PUSH1 0x40 DUP3 KECCAK256 DUP2 DUP4 MSTORE PUSH1 0x20 MSTORE PUSH1 0x40 DUP3 KECCAK256 PUSH1 0x1 PUSH1 0xFF NOT DUP3 SLOAD AND OR SWAP1 SSTORE CALLER SWAP2 PUSH1 0x0 DUP1 MLOAD PUSH1 0x20 PUSH3 0x4379 DUP4 CODECOPY DUP2 MLOAD SWAP2 MSTORE DUP2 DUP1 LOG4 PUSH1 0x1 SWAP1 JUMP JUMPDEST POP SWAP1 JUMP JUMPDEST PUSH1 0x1 PUSH1 0x1 PUSH1 0xA0 SHL SUB AND PUSH1 0x0 DUP2 DUP2 MSTORE PUSH32 0xE5EBFA64FCA8D502A8E50C1EDFFD2C31EF4DAD5B396E65D9F397FB028F74ABC5 PUSH1 0x20 MSTORE PUSH1 0x40 DUP2 KECCAK256 SLOAD SWAP1 SWAP2 SWAP1 PUSH32 0xA49807205CE4D355092EF5A8A18F56E8913CF4A201FBE287825B095693C21775 SWAP1 PUSH1 0xFF AND PUSH3 0x296 JUMPI DUP1 DUP4 MSTORE PUSH1 0x2 PUSH1 0x20 MSTORE PUSH1 0x40 DUP4 KECCAK256 DUP3 DUP5 MSTORE PUSH1 0x20 MSTORE PUSH1 0x40 DUP4 KECCAK256 PUSH1 0x1 PUSH1 0xFF NOT DUP3 SLOAD AND OR SWAP1 SSTORE PUSH1 0x0 DUP1 MLOAD PUSH1 0x20 PUSH3 0x4379 DUP4 CODECOPY DUP2 MLOAD SWAP2 MSTORE CALLER SWAP4 DUP1 LOG4 PUSH1 0x1 SWAP1 JUMP JUMPDEST POP POP SWAP1 JUMP INVALID PUSH1 0x80 PUSH1 0x40 MSTORE PUSH1 0x4 CALLDATASIZE LT ISZERO PUSH2 0x12 JUMPI PUSH1 0x0 DUP1 REVERT JUMPDEST PUSH1 0x0 DUP1 CALLDATALOAD PUSH1 0xE0 SHR DUP1 PUSH3 0x45BE6F EQ PUSH2 0x21A5 JUMPI DUP1 PUSH4 0x1FFC9A7 EQ PUSH2 0x214E JUMPI DUP1 PUSH4 0x248A9CA3 EQ PUSH2 0x2121 JUMPI DUP1 PUSH4 0x2F2FF15D EQ PUSH2 0x20E3 JUMPI DUP1 PUSH4 0x36568ABE EQ PUSH2 0x209B JUMPI DUP1 PUSH4 0x37D6E15E EQ PUSH2 0x1EDB JUMPI DUP1 PUSH4 0x38E8DFCA EQ PUSH2 0x1D72 JUMPI DUP1 PUSH4 0x3F4BA83A EQ PUSH2 0x1D07 JUMPI DUP1 PUSH4 0x474D3FF0 EQ PUSH2 0x1C50 JUMPI DUP1 PUSH4 0x4C27984E EQ PUSH2 0x1C08 JUMPI DUP1 PUSH4 0x4EC7FB81 EQ PUSH2 0x1BDF JUMPI DUP1 PUSH4 0x54F2BBD6 EQ PUSH2 0x1BB4 JUMPI DUP1 PUSH4 0x5C975ABB EQ PUSH2 0x1B91 JUMPI DUP1 PUSH4 0x661D2C2C EQ PUSH2 0x1B1E JUMPI DUP1 PUSH4 0x68484C7C EQ PUSH2 0x1887 JUMPI DUP1 PUSH4 0x70480275 EQ PUSH2 0x1837 JUMPI DUP1 PUSH4 0x715018A6 EQ PUSH2 0x17D9 JUMPI DUP1 PUSH4 0x75B238FC EQ PUSH2 0x17B0 JUMPI DUP1 PUSH4 0x797669C9 EQ PUSH2 0x1787 JUMPI DUP1 PUSH4 0x7FF118EF EQ PUSH2 0x1711 JUMPI DUP1 PUSH4 0x81A9B19B EQ PUSH2 0x1428 JUMPI DUP1 PUSH4 0x828525BB EQ PUSH2 0x1073 JUMPI DUP1 PUSH4 0x8456CB59 EQ PUSH2 0x1019 JUMPI DUP1 PUSH4 0x869D785F EQ PUSH2 0xFC9 JUMPI DUP1 PUSH4 0x8DA5CB5B EQ PUSH2 0xFA0 JUMPI DUP1 PUSH4 0x91D14854 EQ PUSH2 0xF54 JUMPI DUP1 PUSH4 0x952ACC6C EQ PUSH2 0xDB7 JUMPI DUP1 PUSH4 0x9E1F68C7 EQ PUSH2 0xD24 JUMPI DUP1 PUSH4 0xA217FDDF EQ PUSH2 0xD08 JUMPI DUP1 PUSH4 0xA5BBE22B EQ PUSH2 0xCEA JUMPI DUP1 PUSH4 0xADB9CAE6 EQ PUSH2 0xC63 JUMPI DUP1 PUSH4 0xADC3E5F7 EQ PUSH2 0xAF9 JUMPI DUP1 PUSH4 0xB532E4CB EQ PUSH2 0xAA9 JUMPI DUP1 PUSH4 0xBA72A73E EQ PUSH2 0x87F JUMPI DUP1 PUSH4 0xBD5FEC65 EQ PUSH2 0x829 JUMPI DUP1 PUSH4 0xC81E59B2 EQ PUSH2 0x666 JUMPI DUP1 PUSH4 0xD3A164F1 EQ PUSH2 0x3F8 JUMPI DUP1 PUSH4 0xD547741F EQ PUSH2 0x3B6 JUMPI DUP1 PUSH4 0xE42A96E7 EQ PUSH2 0x38D JUMPI DUP1 PUSH4 0xE50E9814 EQ PUSH2 0x303 JUMPI DUP1 PUSH4 0xF2FDE38B EQ PUSH2 0x278 JUMPI PUSH4 0xF42375B5 EQ PUSH2 0x1EA JUMPI PUSH1 0x0 DUP1 REVERT JUMPDEST CALLVALUE PUSH2 0x275 JUMPI PUSH1 0x20 CALLDATASIZE PUSH1 0x3 NOT ADD SLT PUSH2 0x275 JUMPI PUSH2 0x203 PUSH2 0x23C5 JUMP JUMPDEST PUSH2 0x20B PUSH2 0x298A JUMP JUMPDEST PUSH1 0x1 PUSH1 0x1 PUSH1 0xA0 SHL SUB AND DUP1 ISZERO PUSH2 0x230 JUMPI PUSH1 0x1 PUSH1 0x1 PUSH1 0x60 SHL SUB PUSH1 0xA0 SHL PUSH1 0x5 SLOAD AND OR PUSH1 0x5 SSTORE DUP1 RETURN JUMPDEST PUSH1 0x40 MLOAD PUSH3 0x461BCD PUSH1 0xE5 SHL DUP2 MSTORE PUSH1 0x20 PUSH1 0x4 DUP3 ADD MSTORE PUSH1 0x1F PUSH1 0x24 DUP3 ADD MSTORE PUSH32 0x496E76616C696420657363726F7720636F6E7472616374206164647265737300 PUSH1 0x44 DUP3 ADD MSTORE PUSH1 0x64 SWAP1 REVERT JUMPDEST DUP1 REVERT JUMPDEST POP CALLVALUE PUSH2 0x275 JUMPI PUSH1 0x20 CALLDATASIZE PUSH1 0x3 NOT ADD SLT PUSH2 0x275 JUMPI PUSH2 0x292 PUSH2 0x23C5 JUMP JUMPDEST PUSH2 0x29A PUSH2 0x298A JUMP JUMPDEST PUSH1 0x1 PUSH1 0x1 PUSH1 0xA0 SHL SUB SWAP1 DUP2 AND SWAP1 DUP2 ISZERO PUSH2 0x2EA JUMPI PUSH1 0x3 SLOAD DUP3 PUSH1 0x1 PUSH1 0x1 PUSH1 0x60 SHL SUB PUSH1 0xA0 SHL DUP3 AND OR PUSH1 0x3 SSTORE AND PUSH32 0x8BE0079C531659141344CD1FD0A4F28419497F9722A3DAAFE3B4186F6B6457E0 PUSH1 0x0 DUP1 LOG3 DUP1 RETURN JUMPDEST PUSH1 0x40 MLOAD PUSH4 0x1E4FBDF7 PUSH1 0xE0 SHL DUP2 MSTORE PUSH1 0x4 DUP2 ADD DUP5 SWAP1 MSTORE PUSH1 0x24 SWAP1 REVERT JUMPDEST POP CALLVALUE PUSH2 0x275 JUMPI PUSH2 0x312 CALLDATASIZE PUSH2 0x2394 JUMP JUMPDEST SWAP1 DUP3 MSTORE PUSH1 0x8 PUSH1 0x20 MSTORE PUSH1 0x40 DUP3 KECCAK256 DUP1 SLOAD DUP3 LT ISZERO PUSH2 0x389 JUMPI PUSH2 0x331 SWAP3 POP PUSH2 0x2503 JUMP JUMPDEST POP PUSH1 0x1 DUP1 PUSH1 0xA0 SHL SUB DUP2 SLOAD AND PUSH1 0x1 DUP3 ADD SLOAD SWAP2 PUSH2 0x34E PUSH1 0x2 DUP3 ADD PUSH2 0x25AB JUMP JUMPDEST PUSH2 0x37A PUSH1 0x4 PUSH1 0x3 DUP5 ADD SLOAD SWAP4 ADD SLOAD SWAP2 PUSH1 0x40 MLOAD SWAP6 DUP7 SWAP6 DUP7 MSTORE PUSH1 0x20 DUP7 ADD MSTORE PUSH1 0xA0 PUSH1 0x40 DUP7 ADD MSTORE PUSH1 0xA0 DUP6 ADD SWAP1 PUSH2 0x23DB JUMP JUMPDEST SWAP2 PUSH1 0x60 DUP5 ADD MSTORE PUSH1 0x80 DUP4 ADD MSTORE SUB SWAP1 RETURN JUMPDEST DUP3 DUP1 REVERT JUMPDEST POP CALLVALUE PUSH2 0x275 JUMPI DUP1 PUSH1 0x3 NOT CALLDATASIZE ADD SLT PUSH2 0x275 JUMPI PUSH1 0x5 SLOAD PUSH1 0x40 MLOAD PUSH1 0x1 PUSH1 0x1 PUSH1 0xA0 SHL SUB SWAP1 SWAP2 AND DUP2 MSTORE PUSH1 0x20 SWAP1 RETURN JUMPDEST POP CALLVALUE PUSH2 0x275 JUMPI PUSH1 0x40 CALLDATASIZE PUSH1 0x3 NOT ADD SLT PUSH2 0x275 JUMPI PUSH2 0x3F4 PUSH1 0x4 CALLDATALOAD PUSH2 0x3D6 PUSH2 0x23AF JUMP JUMPDEST SWAP1 DUP1 DUP5 MSTORE PUSH1 0x2 PUSH1 0x20 MSTORE PUSH2 0x3EF PUSH1 0x1 PUSH1 0x40 DUP7 KECCAK256 ADD SLOAD PUSH2 0x269B JUMP JUMPDEST PUSH2 0x2913 JUMP JUMPDEST POP DUP1 RETURN JUMPDEST POP CALLVALUE PUSH2 0x275 JUMPI PUSH2 0x407 CALLDATASIZE PUSH2 0x2394 JUMP JUMPDEST PUSH2 0x40F PUSH2 0x2B5F JUMP JUMPDEST PUSH2 0x417 PUSH2 0x2B7D JUMP JUMPDEST DUP2 DUP4 MSTORE PUSH1 0x20 SWAP1 PUSH1 0x9 DUP3 MSTORE PUSH1 0x40 DUP5 KECCAK256 PUSH2 0x431 DUP5 DUP3 SLOAD EQ PUSH2 0x2D5C JUMP JUMPDEST PUSH2 0x441 PUSH1 0xFF PUSH1 0x8 DUP4 ADD SLOAD AND PUSH2 0x2DA8 JUMP JUMPDEST PUSH1 0x3 DUP2 ADD SLOAD PUSH1 0x1 PUSH1 0x1 PUSH1 0xA0 SHL SUB SWAP1 DUP2 AND CALLER SUB PUSH2 0x612 JUMPI PUSH1 0x19 DUP4 EQ DUP1 ISZERO PUSH2 0x608 JUMPI JUMPDEST DUP1 ISZERO PUSH2 0x5FE JUMPI JUMPDEST DUP1 ISZERO PUSH2 0x5F4 JUMPI JUMPDEST ISZERO PUSH2 0x5A1 JUMPI DUP6 SWAP1 PUSH1 0x5 SLOAD AND PUSH1 0x7 DUP4 ADD SLOAD DUP2 EXTCODESIZE ISZERO PUSH2 0x389 JUMPI DUP3 SWAP2 PUSH1 0x44 DUP4 SWAP3 PUSH1 0x40 MLOAD SWAP5 DUP6 SWAP4 DUP5 SWAP3 PUSH4 0x5D655FB1 PUSH1 0xE0 SHL DUP5 MSTORE PUSH1 0x4 DUP5 ADD MSTORE DUP10 PUSH1 0x24 DUP5 ADD MSTORE GAS CALL DUP1 ISZERO PUSH2 0x596 JUMPI PUSH2 0x57E JUMPI JUMPDEST POP POP PUSH1 0x40 MLOAD SWAP3 PUSH1 0x60 DUP5 ADD SWAP1 DUP5 DUP3 LT PUSH8 0xFFFFFFFFFFFFFFFF DUP4 GT OR PUSH2 0x568 JUMPI PUSH1 0x64 SWAP5 DUP7 SWAP4 PUSH32 0xEC1D080EA1C9D6E68361E523876C215943BB6F4CA3AB455E4FAC692318D9EAB6 SWAP4 PUSH1 0x40 MSTORE TIMESTAMP DUP3 MSTORE PUSH1 0x1 DUP4 DUP4 ADD SWAP3 DUP2 DUP5 MSTORE PUSH1 0x9 PUSH1 0x40 DUP3 ADD SWAP4 DUP13 DUP6 MSTORE DUP10 DUP14 MSTORE ADD DUP6 MSTORE PUSH1 0x40 DUP12 KECCAK256 SWAP1 MLOAD DUP2 SSTORE ADD SWAP2 MLOAD ISZERO ISZERO SWAP1 PUSH1 0xFF PUSH2 0xFF00 DUP5 SLOAD SWAP3 MLOAD ISZERO ISZERO PUSH1 0x8 SHL AND SWAP3 AND SWAP1 PUSH2 0xFFFF NOT AND OR OR SWAP1 SSTORE PUSH1 0x40 MLOAD DUP5 DUP2 MSTORE LOG2 EQ PUSH2 0x559 JUMPI JUMPDEST POP PUSH1 0x1 DUP2 SSTORE DUP1 RETURN JUMPDEST PUSH2 0x562 SWAP1 PUSH2 0x2DF4 JUMP JUMPDEST CODESIZE PUSH2 0x551 JUMP JUMPDEST PUSH4 0x4E487B71 PUSH1 0xE0 SHL PUSH1 0x0 MSTORE PUSH1 0x41 PUSH1 0x4 MSTORE PUSH1 0x24 PUSH1 0x0 REVERT JUMPDEST PUSH2 0x587 SWAP1 PUSH2 0x2559 JUMP JUMPDEST PUSH2 0x592 JUMPI DUP5 CODESIZE PUSH2 0x4B7 JUMP JUMPDEST DUP5 DUP1 REVERT JUMPDEST PUSH1 0x40 MLOAD RETURNDATASIZE DUP5 DUP3 RETURNDATACOPY RETURNDATASIZE SWAP1 REVERT JUMPDEST PUSH1 0x40 MLOAD PUSH3 0x461BCD PUSH1 0xE5 SHL DUP2 MSTORE PUSH1 0x4 DUP2 ADD DUP6 SWAP1 MSTORE PUSH1 0x25 PUSH1 0x24 DUP3 ADD MSTORE PUSH32 0x50657263656E74616765206D7573742062652032352C2035302C2037352C206F PUSH1 0x44 DUP3 ADD MSTORE PUSH5 0x722031303 PUSH1 0xDC SHL PUSH1 0x64 DUP3 ADD MSTORE PUSH1 0x84 SWAP1 REVERT JUMPDEST POP PUSH1 0x64 DUP4 EQ PUSH2 0x470 JUMP JUMPDEST POP PUSH1 0x4B DUP4 EQ PUSH2 0x469 JUMP JUMPDEST POP PUSH1 0x32 DUP4 EQ PUSH2 0x462 JUMP JUMPDEST PUSH1 0x40 MLOAD PUSH3 0x461BCD PUSH1 0xE5 SHL DUP2 MSTORE PUSH1 0x4 DUP2 ADD DUP6 SWAP1 MSTORE PUSH1 0x26 PUSH1 0x24 DUP3 ADD MSTORE PUSH32 0x4F6E6C792073656C6C65722063616E207265706F727420656E65726779206465 PUSH1 0x44 DUP3 ADD MSTORE PUSH6 0x6C6976657279 PUSH1 0xD0 SHL PUSH1 0x64 DUP3 ADD MSTORE PUSH1 0x84 SWAP1 REVERT JUMPDEST POP CALLVALUE PUSH2 0x275 JUMPI PUSH1 0x60 CALLDATASIZE PUSH1 0x3 NOT ADD SLT PUSH2 0x275 JUMPI PUSH1 0x4 CALLDATALOAD PUSH1 0x24 CALLDATALOAD PUSH1 0x44 CALLDATALOAD PUSH8 0xFFFFFFFFFFFFFFFF DUP2 GT PUSH2 0x825 JUMPI PUSH2 0x69E SWAP1 CALLDATASIZE SWAP1 PUSH1 0x4 ADD PUSH2 0x24D5 JUMP JUMPDEST SWAP1 SWAP2 PUSH2 0x6A8 PUSH2 0x2B5F JUMP JUMPDEST PUSH2 0x6B0 PUSH2 0x2B7D JUMP JUMPDEST DUP4 DUP6 MSTORE PUSH1 0x9 PUSH1 0x20 MSTORE PUSH1 0x9 PUSH1 0x40 DUP7 KECCAK256 PUSH2 0x6CA DUP7 DUP3 SLOAD EQ PUSH2 0x2D5C JUMP JUMPDEST PUSH2 0x6DA PUSH1 0xFF PUSH1 0x8 DUP4 ADD SLOAD AND PUSH2 0x2DA8 JUMP JUMPDEST PUSH2 0x6F1 PUSH1 0x1 DUP1 PUSH1 0xA0 SHL SUB PUSH1 0x2 DUP4 ADD SLOAD AND CALLER EQ PUSH2 0x2E70 JUMP JUMPDEST DUP3 DUP8 MSTORE ADD PUSH1 0x20 MSTORE PUSH1 0x40 DUP6 KECCAK256 PUSH1 0x1 DUP2 SLOAD SWAP2 PUSH2 0x70C DUP4 ISZERO ISZERO PUSH2 0x2ED6 JUMP JUMPDEST ADD SWAP4 DUP5 SLOAD SWAP2 PUSH1 0xFF DUP4 AND ISZERO PUSH2 0x7D0 JUMPI PUSH3 0x15180 DUP2 ADD DUP1 SWAP2 GT PUSH2 0x7BC JUMPI TIMESTAMP GT PUSH2 0x781 JUMPI PUSH32 0xFCB7E83F02E3A70254E135A79DEBB7538F65D50D87B4011583B1F184D304A37D SWAP5 PUSH2 0x100 PUSH2 0x777 SWAP4 PUSH2 0xFFFF NOT AND OR SWAP1 SSTORE PUSH1 0x40 MLOAD SWAP4 DUP5 SWAP4 DUP5 MSTORE PUSH1 0x40 PUSH1 0x20 DUP6 ADD MSTORE PUSH1 0x40 DUP5 ADD SWAP2 PUSH2 0x2EB5 JUMP JUMPDEST SUB SWAP1 LOG2 PUSH1 0x1 DUP2 SSTORE DUP1 RETURN JUMPDEST PUSH1 0x40 MLOAD PUSH3 0x461BCD PUSH1 0xE5 SHL DUP2 MSTORE PUSH1 0x20 PUSH1 0x4 DUP3 ADD MSTORE PUSH1 0x13 PUSH1 0x24 DUP3 ADD MSTORE PUSH19 0x2234B9B83ABA32903832B934B7B21037BB32B9 PUSH1 0x69 SHL PUSH1 0x44 DUP3 ADD MSTORE PUSH1 0x64 SWAP1 REVERT JUMPDEST PUSH4 0x4E487B71 PUSH1 0xE0 SHL DUP9 MSTORE PUSH1 0x11 PUSH1 0x4 MSTORE PUSH1 0x24 DUP9 REVERT JUMPDEST PUSH1 0x40 MLOAD PUSH3 0x461BCD PUSH1 0xE5 SHL DUP2 MSTORE PUSH1 0x20 PUSH1 0x4 DUP3 ADD MSTORE PUSH1 0x27 PUSH1 0x24 DUP3 ADD MSTORE PUSH32 0x4D696C6573746F6E6520616C72656164792066696E616C697A6564206F722064 PUSH1 0x44 DUP3 ADD MSTORE PUSH7 0x1A5CDC1D5D1959 PUSH1 0xCA SHL PUSH1 0x64 DUP3 ADD MSTORE PUSH1 0x84 SWAP1 REVERT JUMPDEST DUP4 DUP1 REVERT JUMPDEST POP CALLVALUE PUSH2 0x275 JUMPI PUSH1 0x40 CALLDATASIZE PUSH1 0x3 NOT ADD SLT PUSH2 0x275 JUMPI PUSH2 0x843 PUSH2 0x23C5 JUMP JUMPDEST PUSH1 0x1 PUSH1 0x1 PUSH1 0xA0 SHL SUB AND DUP2 MSTORE PUSH1 0xA PUSH1 0x20 MSTORE PUSH1 0x40 DUP2 KECCAK256 DUP1 SLOAD PUSH1 0x24 CALLDATALOAD SWAP3 SWAP1 DUP4 LT ISZERO PUSH2 0x275 JUMPI PUSH1 0x20 PUSH2 0x871 DUP5 DUP5 PUSH2 0x2482 JUMP JUMPDEST SWAP1 SLOAD PUSH1 0x40 MLOAD SWAP2 PUSH1 0x3 SHL SHR DUP2 MSTORE RETURN JUMPDEST POP CALLVALUE PUSH2 0x275 JUMPI PUSH1 0x20 SWAP1 DUP2 PUSH1 0x3 NOT CALLDATASIZE ADD SLT PUSH2 0x275 JUMPI PUSH1 0x4 CALLDATALOAD PUSH2 0x89E PUSH2 0x2B5F JUMP JUMPDEST PUSH2 0x8A6 PUSH2 0x2B7D JUMP JUMPDEST DUP1 DUP3 MSTORE PUSH1 0x9 DUP4 MSTORE PUSH2 0x8BD PUSH1 0x40 DUP4 KECCAK256 SWAP2 DUP3 SLOAD EQ PUSH2 0x2D5C JUMP JUMPDEST PUSH2 0x8CD PUSH1 0xFF PUSH1 0x8 DUP4 ADD SLOAD AND PUSH2 0x2DA8 JUMP JUMPDEST PUSH1 0x1 DUP2 ADD DUP1 SLOAD DUP4 MSTORE PUSH1 0x7 DUP5 MSTORE PUSH1 0x40 DUP4 KECCAK256 PUSH1 0x2 DUP4 ADD SLOAD PUSH1 0x1 PUSH1 0x1 PUSH1 0xA0 SHL SUB SWAP3 SWAP2 SWAP1 DUP4 AND CALLER DUP2 SWAP1 SUB PUSH2 0xA53 JUMPI DUP7 DUP5 PUSH1 0x4 SLOAD AND SWAP2 PUSH1 0x64 DUP7 PUSH1 0x5 SLOAD AND SWAP2 DUP10 PUSH1 0x5 DUP11 ADD SLOAD SWAP6 PUSH1 0x40 MLOAD SWAP7 DUP8 SWAP6 DUP7 SWAP5 PUSH4 0x23B872DD PUSH1 0xE0 SHL DUP7 MSTORE PUSH1 0x4 DUP7 ADD MSTORE PUSH1 0x24 DUP6 ADD MSTORE PUSH1 0x44 DUP5 ADD MSTORE GAS CALL SWAP1 DUP2 ISZERO PUSH2 0xA48 JUMPI DUP7 SWAP2 PUSH2 0xA0E JUMPI JUMPDEST POP ISZERO PUSH2 0x9C9 JUMPI SWAP5 PUSH1 0x0 DUP1 MLOAD PUSH1 0x20 PUSH2 0x2F23 DUP4 CODECOPY DUP2 MLOAD SWAP2 MSTORE PUSH1 0x7 SWAP4 SWAP3 DUP5 DUP8 SWAP9 ADD PUSH1 0x3 PUSH1 0xFF NOT DUP3 SLOAD AND OR SWAP1 SSTORE SLOAD SWAP2 PUSH1 0x40 MLOAD PUSH1 0x3 DUP2 MSTORE LOG2 PUSH1 0x5 SLOAD AND SWAP2 ADD SLOAD DUP2 EXTCODESIZE ISZERO PUSH2 0x9C5 JUMPI DUP3 SWAP2 PUSH1 0x24 DUP4 SWAP3 PUSH1 0x40 MLOAD SWAP5 DUP6 SWAP4 DUP5 SWAP3 PUSH4 0x6789F9CB PUSH1 0xE0 SHL DUP5 MSTORE PUSH1 0x4 DUP5 ADD MSTORE GAS CALL DUP1 ISZERO PUSH2 0x596 JUMPI PUSH2 0x9B1 JUMPI JUMPDEST POP PUSH1 0x1 SWAP1 SSTORE DUP1 RETURN JUMPDEST PUSH2 0x9BA SWAP1 PUSH2 0x2559 JUMP JUMPDEST PUSH2 0x275 JUMPI DUP1 CODESIZE PUSH2 0x9A9 JUMP JUMPDEST POP POP REVERT JUMPDEST PUSH1 0x40 MLOAD PUSH3 0x461BCD PUSH1 0xE5 SHL DUP2 MSTORE PUSH1 0x4 DUP2 ADD DUP8 SWAP1 MSTORE PUSH1 0x1F PUSH1 0x24 DUP3 ADD MSTORE PUSH32 0x546F6B656E207472616E7366657220746F20657363726F77206661696C656400 PUSH1 0x44 DUP3 ADD MSTORE PUSH1 0x64 SWAP1 REVERT JUMPDEST SWAP1 POP DUP7 DUP2 DUP2 RETURNDATASIZE DUP4 GT PUSH2 0xA41 JUMPI JUMPDEST PUSH2 0xA25 DUP2 DUP4 PUSH2 0x2589 JUMP JUMPDEST DUP2 ADD SUB SLT PUSH2 0xA3D JUMPI MLOAD DUP1 ISZERO ISZERO DUP2 SUB PUSH2 0xA3D JUMPI CODESIZE PUSH2 0x93E JUMP JUMPDEST DUP6 DUP1 REVERT JUMPDEST POP RETURNDATASIZE PUSH2 0xA1B JUMP JUMPDEST PUSH1 0x40 MLOAD RETURNDATASIZE DUP9 DUP3 RETURNDATACOPY RETURNDATASIZE SWAP1 REVERT JUMPDEST PUSH1 0x40 MLOAD PUSH3 0x461BCD PUSH1 0xE5 SHL DUP2 MSTORE PUSH1 0x4 DUP2 ADD DUP9 SWAP1 MSTORE PUSH1 0x28 PUSH1 0x24 DUP3 ADD MSTORE PUSH32 0x4F6E6C792062757965722063616E2073746172742074686520656E6572677920 PUSH1 0x44 DUP3 ADD MSTORE PUSH8 0x3A3930B739B332B9 PUSH1 0xC1 SHL PUSH1 0x64 DUP3 ADD MSTORE PUSH1 0x84 SWAP1 REVERT JUMPDEST POP CALLVALUE PUSH2 0x275 JUMPI PUSH1 0x20 CALLDATASIZE PUSH1 0x3 NOT ADD SLT PUSH2 0x275 JUMPI PUSH2 0x3F4 PUSH2 0xAC6 PUSH2 0x23C5 JUMP JUMPDEST PUSH2 0xACE PUSH2 0x2651 JUMP JUMPDEST PUSH1 0x0 DUP1 MLOAD PUSH1 0x20 PUSH2 0x2F43 DUP4 CODECOPY DUP2 MLOAD SWAP2 MSTORE DUP4 MSTORE PUSH1 0x2 PUSH1 0x20 MSTORE PUSH2 0xAF4 PUSH1 0x1 PUSH1 0x40 DUP6 KECCAK256 ADD SLOAD PUSH2 0x269B JUMP JUMPDEST PUSH2 0x2762 JUMP JUMPDEST POP CALLVALUE PUSH2 0x275 JUMPI PUSH1 0x40 CALLDATASIZE PUSH1 0x3 NOT ADD SLT PUSH2 0x275 JUMPI PUSH1 0x4 CALLDATALOAD PUSH1 0x24 CALLDATALOAD PUSH8 0xFFFFFFFFFFFFFFFF DUP2 GT PUSH2 0x389 JUMPI PUSH2 0xB2E SWAP1 CALLDATASIZE SWAP1 PUSH1 0x4 ADD PUSH2 0x24D5 JUMP JUMPDEST PUSH2 0xB39 SWAP3 SWAP2 SWAP3 PUSH2 0x2B5F JUMP JUMPDEST PUSH2 0xB41 PUSH2 0x2B7D JUMP JUMPDEST DUP2 DUP5 MSTORE PUSH1 0x9 PUSH1 0x20 MSTORE PUSH1 0x40 DUP5 KECCAK256 SWAP3 PUSH2 0xB5A DUP4 DUP6 SLOAD EQ PUSH2 0x2D5C JUMP JUMPDEST PUSH1 0x8 DUP5 ADD SWAP2 PUSH2 0xB6C PUSH1 0xFF DUP5 SLOAD AND PUSH2 0x2DA8 JUMP JUMPDEST PUSH1 0x2 DUP6 ADD SLOAD PUSH1 0x1 PUSH1 0x1 PUSH1 0xA0 SHL SUB SWAP4 SWAP1 PUSH2 0xB88 SWAP1 DUP6 AND CALLER EQ PUSH2 0x2E70 JUMP JUMPDEST DUP7 PUSH1 0x1 DUP8 ADD SWAP7 DUP8 SLOAD DUP3 MSTORE PUSH1 0x7 PUSH1 0x20 MSTORE PUSH1 0x7 PUSH1 0x40 DUP4 KECCAK256 SWAP7 PUSH1 0x5 SLOAD AND SWAP2 ADD SLOAD DUP2 EXTCODESIZE ISZERO PUSH2 0x389 JUMPI DUP3 SWAP2 PUSH1 0x24 DUP4 SWAP3 PUSH1 0x40 MLOAD SWAP5 DUP6 SWAP4 DUP5 SWAP3 PUSH4 0xB9A7579B PUSH1 0xE0 SHL DUP5 MSTORE PUSH1 0x4 DUP5 ADD MSTORE GAS CALL DUP1 ISZERO PUSH2 0x596 JUMPI PUSH2 0xC4B JUMPI JUMPDEST POP POP PUSH1 0x5 PUSH1 0x7 PUSH32 0x6D076295600B2EDCCFB5C35388414D69EA1EBDE72DE4E48290780F5FBE0D9F28 SWAP6 PUSH1 0xFF NOT SWAP4 DUP5 DUP2 SLOAD AND SWAP1 SSTORE ADD SWAP2 DUP3 SLOAD AND OR SWAP1 SSTORE PUSH2 0xC27 PUSH1 0x40 MLOAD SWAP3 DUP4 SWAP3 PUSH1 0x20 DUP5 MSTORE PUSH1 0x20 DUP5 ADD SWAP2 PUSH2 0x2EB5 JUMP JUMPDEST SUB SWAP1 LOG2 SLOAD PUSH1 0x0 DUP1 MLOAD PUSH1 0x20 PUSH2 0x2F23 DUP4 CODECOPY DUP2 MLOAD SWAP2 MSTORE PUSH1 0x20 PUSH1 0x40 MLOAD PUSH1 0x5 DUP2 MSTORE LOG2 PUSH1 0x1 DUP2 SSTORE DUP1 RETURN JUMPDEST PUSH2 0xC54 SWAP1 PUSH2 0x2559 JUMP JUMPDEST PUSH2 0xC5F JUMPI DUP7 CODESIZE PUSH2 0xBD6 JUMP JUMPDEST DUP7 DUP1 REVERT JUMPDEST POP CALLVALUE PUSH2 0x275 JUMPI PUSH1 0x20 DUP1 PUSH1 0x3 NOT CALLDATASIZE ADD SLT PUSH2 0xCE6 JUMPI PUSH1 0x1 PUSH1 0x1 PUSH1 0xA0 SHL SUB PUSH2 0xC86 PUSH2 0x23C5 JUMP JUMPDEST AND DUP3 MSTORE PUSH1 0xB DUP2 MSTORE PUSH1 0x40 DUP3 KECCAK256 SWAP2 PUSH1 0x40 MLOAD DUP1 SWAP3 DUP1 DUP6 SLOAD SWAP3 DUP4 DUP2 MSTORE ADD SWAP5 DUP4 MSTORE DUP1 DUP4 KECCAK256 SWAP3 SWAP1 JUMPDEST DUP3 DUP3 LT PUSH2 0xCCF JUMPI PUSH2 0xCCB DUP6 PUSH2 0xCBF DUP2 DUP10 SUB DUP3 PUSH2 0x2589 JUMP JUMPDEST PUSH1 0x40 MLOAD SWAP2 DUP3 SWAP2 DUP3 PUSH2 0x249A JUMP JUMPDEST SUB SWAP1 RETURN JUMPDEST DUP4 SLOAD DUP7 MSTORE SWAP5 DUP6 ADD SWAP5 PUSH1 0x1 SWAP4 DUP5 ADD SWAP4 SWAP1 SWAP2 ADD SWAP1 PUSH2 0xCA8 JUMP JUMPDEST POP DUP1 REVERT JUMPDEST POP CALLVALUE PUSH2 0x275 JUMPI DUP1 PUSH1 0x3 NOT CALLDATASIZE ADD SLT PUSH2 0x275 JUMPI PUSH1 0x20 PUSH1 0x40 MLOAD PUSH3 0x15180 DUP2 MSTORE RETURN JUMPDEST POP CALLVALUE PUSH2 0x275 JUMPI DUP1 PUSH1 0x3 NOT CALLDATASIZE ADD SLT PUSH2 0x275 JUMPI PUSH1 0x20 SWAP1 PUSH1 0x40 MLOAD SWAP1 DUP2 MSTORE RETURN JUMPDEST POP CALLVALUE PUSH2 0x275 JUMPI PUSH1 0x20 CALLDATASIZE PUSH1 0x3 NOT ADD SLT PUSH2 0x275 JUMPI PUSH1 0x40 PUSH2 0x120 SWAP2 PUSH1 0x4 CALLDATALOAD DUP2 MSTORE PUSH1 0x9 PUSH1 0x20 MSTORE KECCAK256 DUP1 SLOAD SWAP1 PUSH1 0x1 DUP2 ADD SLOAD SWAP1 PUSH1 0x1 DUP1 PUSH1 0xA0 SHL SUB DUP1 PUSH1 0x2 DUP4 ADD SLOAD AND SWAP1 PUSH1 0x3 DUP4 ADD SLOAD AND PUSH1 0x4 DUP4 ADD SLOAD PUSH1 0x5 DUP5 ADD SLOAD SWAP2 PUSH1 0x6 DUP6 ADD SLOAD SWAP4 PUSH1 0xFF PUSH1 0x8 PUSH1 0x7 DUP9 ADD SLOAD SWAP8 ADD SLOAD AND SWAP7 PUSH1 0x40 MLOAD SWAP9 DUP10 MSTORE PUSH1 0x20 DUP10 ADD MSTORE PUSH1 0x40 DUP9 ADD MSTORE PUSH1 0x60 DUP8 ADD MSTORE PUSH1 0x80 DUP7 ADD MSTORE PUSH1 0xA0 DUP6 ADD MSTORE PUSH1 0xC0 DUP5 ADD MSTORE PUSH1 0xE0 DUP4 ADD MSTORE ISZERO ISZERO PUSH2 0x100 DUP3 ADD MSTORE RETURN JUMPDEST POP CALLVALUE PUSH2 0x275 JUMPI PUSH1 0xA0 CALLDATASIZE PUSH1 0x3 NOT ADD SLT PUSH2 0x275 JUMPI PUSH1 0x4 CALLDATALOAD PUSH1 0x64 CALLDATALOAD PUSH1 0x24 CALLDATALOAD PUSH1 0x44 CALLDATALOAD PUSH1 0x84 CALLDATALOAD PUSH2 0xDE0 PUSH2 0x2B5F JUMP JUMPDEST PUSH2 0xDE8 PUSH2 0x2B7D JUMP JUMPDEST DUP5 DUP7 MSTORE PUSH1 0x7 PUSH1 0x20 MSTORE PUSH1 0x40 DUP7 KECCAK256 SWAP2 PUSH2 0xE01 DUP7 DUP5 SLOAD EQ PUSH2 0x2C14 JUMP JUMPDEST PUSH1 0x1 DUP4 ADD SLOAD PUSH1 0x1 PUSH1 0x1 PUSH1 0xA0 SHL SUB AND CALLER SUB PUSH2 0xF0F JUMPI PUSH1 0xFF PUSH1 0x7 DUP5 ADD SLOAD AND SWAP3 PUSH1 0x6 DUP5 LT ISZERO PUSH2 0xEFB JUMPI DUP4 ISZERO DUP1 ISZERO PUSH2 0xEF1 JUMPI JUMPDEST ISZERO PUSH2 0xEAC JUMPI PUSH1 0x0 DUP1 MLOAD PUSH1 0x20 PUSH2 0x2F23 DUP4 CODECOPY DUP2 MLOAD SWAP2 MSTORE SWAP6 PUSH2 0xE8B PUSH1 0x6 SWAP4 DUP8 PUSH2 0xE59 PUSH1 0x20 SWAP10 ISZERO ISZERO PUSH2 0x29B6 JUMP JUMPDEST PUSH2 0xE64 DUP3 ISZERO ISZERO PUSH2 0x2A12 JUMP JUMPDEST PUSH2 0xE6F DUP5 DUP9 GT PUSH2 0x2A6F JUMP JUMPDEST PUSH2 0xE7A TIMESTAMP DUP6 GT PUSH2 0x2AC5 JUMP JUMPDEST DUP1 PUSH1 0x2 DUP7 ADD SSTORE DUP2 PUSH1 0x3 DUP7 ADD SSTORE PUSH2 0x2B10 JUMP JUMPDEST PUSH1 0x4 DUP4 ADD SSTORE PUSH1 0x5 DUP3 ADD SSTORE ADD SSTORE PUSH2 0xEA4 PUSH1 0x40 MLOAD DUP1 SWAP3 PUSH2 0x243E JUMP JUMPDEST LOG2 PUSH1 0x1 DUP2 SSTORE DUP1 RETURN JUMPDEST PUSH1 0x40 MLOAD PUSH3 0x461BCD PUSH1 0xE5 SHL DUP2 MSTORE PUSH1 0x20 PUSH1 0x4 DUP3 ADD MSTORE PUSH1 0x17 PUSH1 0x24 DUP3 ADD MSTORE PUSH32 0x4F666665722063616E6E6F742062652075706461746564000000000000000000 PUSH1 0x44 DUP3 ADD MSTORE PUSH1 0x64 SWAP1 REVERT JUMPDEST POP PUSH1 0x1 DUP5 EQ PUSH2 0xE30 JUMP JUMPDEST PUSH4 0x4E487B71 PUSH1 0xE0 SHL DUP9 MSTORE PUSH1 0x21 PUSH1 0x4 MSTORE PUSH1 0x24 DUP9 REVERT JUMPDEST PUSH1 0x40 MLOAD PUSH3 0x461BCD PUSH1 0xE5 SHL DUP2 MSTORE PUSH1 0x20 PUSH1 0x4 DUP3 ADD MSTORE PUSH1 0x1D PUSH1 0x24 DUP3 ADD MSTORE PUSH32 0x4F6E6C792063726561746F722063616E20757064617465206F66666572000000 PUSH1 0x44 DUP3 ADD MSTORE PUSH1 0x64 SWAP1 REVERT JUMPDEST POP CALLVALUE PUSH2 0x275 JUMPI PUSH1 0x40 CALLDATASIZE PUSH1 0x3 NOT ADD SLT PUSH2 0x275 JUMPI PUSH1 0x40 PUSH2 0xF70 PUSH2 0x23AF JUMP JUMPDEST SWAP2 PUSH1 0x4 CALLDATALOAD DUP2 MSTORE PUSH1 0x2 PUSH1 0x20 MSTORE KECCAK256 SWAP1 PUSH1 0x1 DUP1 PUSH1 0xA0 SHL SUB AND PUSH1 0x0 MSTORE PUSH1 0x20 MSTORE PUSH1 0x20 PUSH1 0xFF PUSH1 0x40 PUSH1 0x0 KECCAK256 SLOAD AND PUSH1 0x40 MLOAD SWAP1 ISZERO ISZERO DUP2 MSTORE RETURN JUMPDEST POP CALLVALUE PUSH2 0x275 JUMPI DUP1 PUSH1 0x3 NOT CALLDATASIZE ADD SLT PUSH2 0x275 JUMPI PUSH1 0x3 SLOAD PUSH1 0x40 MLOAD PUSH1 0x1 PUSH1 0x1 PUSH1 0xA0 SHL SUB SWAP1 SWAP2 AND DUP2 MSTORE PUSH1 0x20 SWAP1 RETURN JUMPDEST POP CALLVALUE PUSH2 0x275 JUMPI PUSH1 0x20 CALLDATASIZE PUSH1 0x3 NOT ADD SLT PUSH2 0x275 JUMPI PUSH2 0x3F4 PUSH2 0xFE6 PUSH2 0x23C5 JUMP JUMPDEST PUSH2 0xFEE PUSH2 0x2651 JUMP JUMPDEST PUSH1 0x0 DUP1 MLOAD PUSH1 0x20 PUSH2 0x2F43 DUP4 CODECOPY DUP2 MLOAD SWAP2 MSTORE DUP4 MSTORE PUSH1 0x2 PUSH1 0x20 MSTORE PUSH2 0x1014 PUSH1 0x1 PUSH1 0x40 DUP6 KECCAK256 ADD SLOAD PUSH2 0x269B JUMP JUMPDEST PUSH2 0x2879 JUMP JUMPDEST POP CALLVALUE PUSH2 0x275 JUMPI DUP1 PUSH1 0x3 NOT CALLDATASIZE ADD SLT PUSH2 0x275 JUMPI PUSH2 0x1032 PUSH2 0x2651 JUMP JUMPDEST PUSH2 0x103A PUSH2 0x2B5F JUMP JUMPDEST PUSH1 0x1 PUSH1 0xFF NOT DUP2 SLOAD AND OR PUSH1 0x1 SSTORE PUSH32 0x62E78CEA01BEE320CD4E420270B5EA74000D11B0C9F74754EBDBFC544B05A258 PUSH1 0x20 PUSH1 0x40 MLOAD CALLER DUP2 MSTORE LOG1 DUP1 RETURN JUMPDEST POP CALLVALUE PUSH2 0x275 JUMPI PUSH1 0x80 CALLDATASIZE PUSH1 0x3 NOT ADD SLT PUSH2 0x275 JUMPI PUSH8 0xFFFFFFFFFFFFFFFF PUSH1 0x4 CALLDATALOAD PUSH1 0x24 DUP1 CALLDATALOAD DUP4 DUP2 GT PUSH2 0x592 JUMPI PUSH2 0x10AA SWAP1 CALLDATASIZE SWAP1 PUSH1 0x4 ADD PUSH2 0x24D5 JUMP JUMPDEST PUSH2 0x10B5 SWAP5 SWAP2 SWAP5 PUSH2 0x2B5F JUMP JUMPDEST PUSH2 0x10BD PUSH2 0x2B7D JUMP JUMPDEST DUP4 DUP7 MSTORE PUSH1 0x20 SWAP3 PUSH1 0x7 DUP5 MSTORE PUSH1 0x7 PUSH1 0x40 DUP9 KECCAK256 PUSH2 0x10D9 DUP8 DUP3 SLOAD EQ PUSH2 0x2C14 JUMP JUMPDEST ADD DUP1 SLOAD PUSH1 0xFF DUP2 AND PUSH1 0x6 DUP2 LT ISZERO DUP1 PUSH2 0x1415 JUMPI DUP2 ISZERO DUP1 SWAP3 DUP2 ISZERO PUSH2 0x1406 JUMPI JUMPDEST POP ISZERO PUSH2 0x13B8 JUMPI PUSH2 0x13A5 JUMPI PUSH2 0x137B JUMPI JUMPDEST POP POP DUP5 DUP8 MSTORE PUSH1 0x8 DUP5 MSTORE PUSH1 0x40 DUP8 KECCAK256 SWAP6 PUSH1 0x40 MLOAD SWAP4 PUSH2 0x111F DUP6 PUSH2 0x256D JUMP JUMPDEST CALLER DUP6 MSTORE DUP6 DUP6 ADD SWAP4 TIMESTAMP DUP6 MSTORE DUP2 DUP2 GT PUSH2 0x1368 JUMPI DUP10 PUSH1 0x40 MLOAD SWAP4 PUSH1 0x1F NOT SWAP3 PUSH2 0x114A DUP11 DUP6 PUSH1 0x1F DUP5 ADD AND ADD DUP8 PUSH2 0x2589 JUMP JUMPDEST DUP1 DUP7 MSTORE CALLDATASIZE DUP2 DUP4 ADD GT PUSH2 0x389 JUMPI DUP1 DUP11 SWAP3 DUP4 DUP9 ADD CALLDATACOPY DUP6 ADD ADD MSTORE PUSH1 0x40 DUP7 ADD SWAP3 DUP4 MSTORE PUSH1 0x60 DUP7 ADD SWAP4 PUSH1 0x44 CALLDATALOAD DUP6 MSTORE PUSH1 0x80 DUP8 ADD SWAP6 PUSH1 0x64 CALLDATALOAD DUP8 MSTORE DUP11 SLOAD PUSH1 0x1 PUSH1 0x40 SHL DUP2 LT ISZERO PUSH2 0x1355 JUMPI PUSH2 0x119B SWAP1 PUSH1 0x1 SWAP13 DUP14 DUP3 ADD DUP2 SSTORE PUSH2 0x2503 JUMP JUMPDEST SWAP9 SWAP1 SWAP9 PUSH2 0x1342 JUMPI MLOAD DUP9 SLOAD PUSH1 0x1 PUSH1 0x1 PUSH1 0xA0 SHL SUB NOT AND PUSH1 0x1 PUSH1 0x1 PUSH1 0xA0 SHL SUB SWAP2 SWAP1 SWAP2 AND OR DUP9 SSTORE MLOAD DUP11 DUP9 ADD SSTORE SWAP3 MLOAD DUP1 MLOAD PUSH1 0x2 DUP9 ADD SWAP5 SWAP1 SWAP4 DUP5 GT PUSH2 0x1330 JUMPI POP PUSH2 0x11DF DUP5 SLOAD PUSH2 0x251F JUMP JUMPDEST PUSH1 0x1F DUP2 GT PUSH2 0x12E9 JUMPI JUMPDEST POP DUP8 SWAP2 PUSH1 0x1F DUP5 GT PUSH1 0x1 EQ PUSH2 0x125F JUMPI POP SWAP2 DUP1 PUSH32 0xA983694C328BF2FB0272B481569462B78D47C58E7EC32645DEB922FF47D53B58 SWAP9 SWAP8 SWAP7 SWAP5 SWAP3 PUSH1 0x4 SWAP7 SWAP5 DUP14 SWAP3 PUSH2 0x1254 JUMPI JUMPDEST POP POP PUSH1 0x0 NOT PUSH1 0x3 DUP4 SWAP1 SHL SHR NOT AND SWAP1 DUP11 SHL OR SWAP1 SSTORE JUMPDEST MLOAD PUSH1 0x3 DUP5 ADD SSTORE MLOAD SWAP2 ADD SSTORE PUSH1 0x40 MLOAD CALLER DUP2 MSTORE LOG2 DUP2 SSTORE DUP1 RETURN JUMPDEST ADD MLOAD SWAP1 POP CODESIZE DUP1 PUSH2 0x122A JUMP JUMPDEST SWAP2 DUP4 SWAP3 DUP12 SWAP5 AND SWAP2 DUP6 DUP14 MSTORE DUP10 DUP14 KECCAK256 SWAP3 DUP14 JUMPDEST DUP2 DUP2 LT PUSH2 0x12D2 JUMPI POP SWAP2 PUSH1 0x4 SWAP8 SWAP6 SWAP4 SWAP2 DUP6 PUSH32 0xA983694C328BF2FB0272B481569462B78D47C58E7EC32645DEB922FF47D53B58 SWAP13 SWAP12 SWAP11 SWAP9 SWAP7 SWAP5 LT PUSH2 0x12B9 JUMPI JUMPDEST POP POP POP DUP2 SHL ADD SWAP1 SSTORE PUSH2 0x123E JUMP JUMPDEST ADD MLOAD PUSH1 0x0 NOT PUSH1 0xF8 DUP5 PUSH1 0x3 SHL AND SHR NOT AND SWAP1 SSTORE CODESIZE DUP1 DUP1 PUSH2 0x12AC JUMP JUMPDEST DUP3 DUP5 ADD MLOAD DUP6 SSTORE DUP14 SWAP7 SWAP1 SWAP5 ADD SWAP4 SWAP3 DUP12 ADD SWAP3 DUP12 ADD PUSH2 0x126F JUMP JUMPDEST DUP5 DUP13 MSTORE DUP9 DUP13 KECCAK256 PUSH1 0x1F DUP6 ADD PUSH1 0x5 SHR DUP2 ADD SWAP2 DUP11 DUP7 LT PUSH2 0x1326 JUMPI JUMPDEST PUSH1 0x1F ADD PUSH1 0x5 SHR ADD SWAP1 DUP12 SWAP1 JUMPDEST DUP3 DUP2 LT PUSH2 0x131A JUMPI POP POP PUSH2 0x11E8 JUMP JUMPDEST PUSH1 0x0 DUP2 SSTORE ADD DUP12 SWAP1 PUSH2 0x130C JUMP JUMPDEST SWAP1 SWAP2 POP DUP2 SWAP1 PUSH2 0x1301 JUMP JUMPDEST PUSH4 0x4E487B71 PUSH1 0xE0 SHL DUP13 MSTORE PUSH1 0x41 PUSH1 0x4 MSTORE DUP12 REVERT JUMPDEST PUSH4 0x4E487B71 PUSH1 0xE0 SHL DUP14 MSTORE PUSH1 0x4 DUP14 SWAP1 MSTORE DUP3 DUP14 REVERT JUMPDEST PUSH4 0x4E487B71 PUSH1 0xE0 SHL DUP14 MSTORE PUSH1 0x41 PUSH1 0x4 MSTORE DUP3 DUP14 REVERT JUMPDEST PUSH4 0x4E487B71 PUSH1 0xE0 SHL DUP11 MSTORE PUSH1 0x41 PUSH1 0x4 MSTORE DUP4 DUP11 REVERT JUMPDEST PUSH1 0x1 SWAP1 PUSH1 0xFF NOT AND OR SWAP1 SSTORE DUP5 PUSH1 0x0 DUP1 MLOAD PUSH1 0x20 PUSH2 0x2F23 DUP4 CODECOPY DUP2 MLOAD SWAP2 MSTORE DUP6 PUSH1 0x40 MLOAD PUSH1 0x1 DUP2 MSTORE LOG2 CODESIZE DUP1 PUSH2 0x1104 JUMP JUMPDEST PUSH4 0x4E487B71 PUSH1 0xE0 SHL DUP11 MSTORE PUSH1 0x21 PUSH1 0x4 MSTORE DUP4 DUP11 REVERT JUMPDEST PUSH1 0x40 MLOAD PUSH3 0x461BCD PUSH1 0xE5 SHL DUP2 MSTORE PUSH1 0x4 DUP2 ADD DUP10 SWAP1 MSTORE PUSH1 0x21 DUP2 DUP8 ADD MSTORE PUSH32 0x4F66666572206973206E6F74206F70656E20666F72206E65676F74696174696F PUSH1 0x44 DUP3 ADD MSTORE PUSH1 0x37 PUSH1 0xF9 SHL PUSH1 0x64 DUP3 ADD MSTORE PUSH1 0x84 SWAP1 REVERT JUMPDEST SWAP2 POP POP PUSH1 0x1 PUSH1 0x0 SWAP2 EQ CODESIZE PUSH2 0x10F5 JUMP JUMPDEST PUSH4 0x4E487B71 PUSH1 0xE0 SHL DUP12 MSTORE PUSH1 0x21 PUSH1 0x4 MSTORE DUP5 DUP12 REVERT JUMPDEST POP CALLVALUE PUSH2 0x275 JUMPI PUSH1 0x60 CALLDATASIZE PUSH1 0x3 NOT ADD SLT PUSH2 0x275 JUMPI PUSH1 0x44 CALLDATALOAD SWAP1 PUSH1 0x24 DUP1 CALLDATALOAD SWAP2 PUSH1 0x4 CALLDATALOAD PUSH2 0x144E PUSH2 0x2B5F JUMP JUMPDEST PUSH2 0x1456 PUSH2 0x2B7D JUMP JUMPDEST DUP1 DUP3 MSTORE PUSH1 0x20 SWAP4 PUSH1 0x7 DUP6 MSTORE PUSH1 0x40 DUP4 KECCAK256 SWAP4 PUSH2 0x1471 DUP4 DUP7 SLOAD EQ PUSH2 0x2C14 JUMP JUMPDEST PUSH1 0x7 DUP6 ADD SWAP5 PUSH1 0xFF DUP7 SLOAD AND PUSH1 0x6 DUP2 LT ISZERO PUSH2 0x16A4 JUMPI DUP1 ISZERO SWAP1 DUP2 ISZERO PUSH2 0x1706 JUMPI JUMPDEST POP ISZERO PUSH2 0x16B7 JUMPI PUSH1 0x1 SWAP1 PUSH2 0x14A2 DUP10 ISZERO ISZERO PUSH2 0x29B6 JUMP JUMPDEST ADD SLOAD SWAP7 PUSH1 0xFF DUP9 PUSH1 0xA0 SHR AND PUSH1 0x2 DUP2 LT ISZERO PUSH2 0x16A4 JUMPI PUSH1 0x2 SWAP9 PUSH1 0x84 SWAP2 PUSH2 0x1687 JUMPI CALLER SWAP5 SWAP1 DUP10 SWAP1 PUSH1 0x1 PUSH1 0x1 PUSH1 0xA0 SHL SUB AND PUSH2 0x14D9 DUP8 DUP3 EQ ISZERO PUSH2 0x2C57 JUMP JUMPDEST PUSH2 0x151E PUSH2 0x14E6 DUP5 CALLER PUSH2 0x2BA0 JUMP JUMPDEST DUP12 SLOAD PUSH2 0x100 PUSH1 0x1 PUSH1 0xA8 SHL SUB NOT SWAP1 SWAP15 AND PUSH1 0x1 PUSH1 0x1 PUSH1 0xA8 SHL SUB NOT SWAP1 SWAP15 AND SWAP14 SWAP1 SWAP14 OR CALLER PUSH1 0x8 SHL PUSH2 0x100 PUSH1 0x1 PUSH1 0xA8 SHL SUB AND OR SWAP1 SWAP11 SSTORE PUSH1 0xFF NOT SWAP12 SWAP10 JUMP JUMPDEST PUSH2 0x1527 DUP9 PUSH2 0x2CA3 JUMP JUMPDEST PUSH1 0x1 DUP1 PUSH1 0xA0 SHL SUB SWAP4 DUP5 SWAP2 DUP11 DUP4 PUSH1 0x5 SLOAD AND PUSH1 0x40 MLOAD SWAP8 DUP9 SWAP6 DUP7 SWAP5 PUSH4 0x665D72FB PUSH1 0xE1 SHL DUP7 MSTORE AND SWAP12 DUP13 PUSH1 0x4 DUP7 ADD MSTORE AND DUP1 SWAP11 DUP5 ADD MSTORE DUP9 PUSH1 0x44 DUP5 ADD MSTORE DUP7 PUSH1 0x64 DUP5 ADD MSTORE GAS CALL SWAP2 DUP3 ISZERO PUSH2 0x167C JUMPI DUP8 SWAP3 PUSH2 0x164C JUMPI JUMPDEST POP DUP6 SWAP5 DUP8 SWAP7 SWAP5 DUP12 PUSH1 0x1 PUSH1 0x8 DUP13 SWAP8 PUSH32 0x3973CEDE5087787EDDF0E0298AFDEC6ED9F15110B2282B52B6EDEE1A93F545C SWAP8 DUP16 SWAP8 PUSH1 0x40 DUP6 SWAP16 PUSH1 0x9 DUP3 SWAP12 DUP15 DUP4 MSTORE MSTORE KECCAK256 SWAP3 DUP12 DUP5 SSTORE DUP13 DUP7 DUP6 ADD SSTORE PUSH1 0x2 DUP5 ADD PUSH1 0x1 PUSH1 0x1 PUSH1 0x60 SHL SUB PUSH1 0xA0 SHL SWAP1 DUP11 DUP3 DUP3 SLOAD AND OR SWAP1 SSTORE DUP9 PUSH1 0x3 DUP7 ADD SWAP2 DUP3 SLOAD AND OR SWAP1 SSTORE PUSH1 0x4 DUP5 ADD SSTORE PUSH1 0x5 DUP4 ADD SSTORE TIMESTAMP PUSH1 0x6 DUP4 ADD SSTORE PUSH1 0x7 DUP3 ADD SSTORE ADD SWAP2 DUP3 SLOAD AND OR SWAP1 SSTORE DUP2 DUP9 MSTORE PUSH1 0xB DUP12 MSTORE PUSH2 0x160E DUP6 DUP5 DUP11 KECCAK256 PUSH2 0x2B39 JUMP JUMPDEST DUP1 DUP9 MSTORE PUSH1 0xB DUP12 MSTORE PUSH2 0x1621 DUP6 DUP5 DUP11 KECCAK256 PUSH2 0x2B39 JUMP JUMPDEST DUP3 MLOAD SWAP2 DUP3 MSTORE DUP11 DUP3 ADD MSTORE LOG3 PUSH1 0x0 DUP1 MLOAD PUSH1 0x20 PUSH2 0x2F23 DUP4 CODECOPY DUP2 MLOAD SWAP2 MSTORE DUP6 PUSH1 0x40 MLOAD PUSH1 0x2 DUP2 MSTORE LOG2 SSTORE PUSH1 0x40 MLOAD SWAP1 DUP2 MSTORE RETURN JUMPDEST SWAP1 SWAP2 POP DUP9 DUP2 DUP2 RETURNDATASIZE DUP4 GT PUSH2 0x1675 JUMPI JUMPDEST PUSH2 0x1664 DUP2 DUP4 PUSH2 0x2589 JUMP JUMPDEST DUP2 ADD SUB SLT PUSH2 0xC5F JUMPI MLOAD SWAP1 PUSH1 0x1 PUSH2 0x1573 JUMP JUMPDEST POP RETURNDATASIZE PUSH2 0x165A JUMP JUMPDEST PUSH1 0x40 MLOAD RETURNDATASIZE DUP10 DUP3 RETURNDATACOPY RETURNDATASIZE SWAP1 REVERT JUMPDEST PUSH1 0x1 PUSH1 0x1 PUSH1 0xA0 SHL SUB AND SWAP4 DUP9 CALLER PUSH2 0x169F DUP2 DUP9 EQ ISZERO PUSH2 0x2C57 JUMP JUMPDEST PUSH2 0x14D9 JUMP JUMPDEST PUSH4 0x4E487B71 PUSH1 0xE0 SHL DUP7 MSTORE PUSH1 0x21 PUSH1 0x4 MSTORE DUP3 DUP7 REVERT JUMPDEST PUSH1 0x84 DUP8 DUP4 PUSH1 0x40 MLOAD SWAP2 PUSH3 0x461BCD PUSH1 0xE5 SHL DUP4 MSTORE PUSH1 0x4 DUP4 ADD MSTORE DUP1 DUP3 ADD MSTORE PUSH32 0x4F66666572206973206E6F7420617661696C61626C6520666F72206167726565 PUSH1 0x44 DUP3 ADD MSTORE PUSH4 0x1B595B9D PUSH1 0xE2 SHL PUSH1 0x64 DUP3 ADD MSTORE REVERT JUMPDEST PUSH1 0x1 SWAP2 POP EQ CODESIZE PUSH2 0x148E JUMP JUMPDEST POP CALLVALUE PUSH2 0x275 JUMPI DUP1 PUSH1 0x3 NOT CALLDATASIZE ADD SLT PUSH2 0x275 JUMPI PUSH1 0x40 MLOAD PUSH1 0xC DUP1 SLOAD DUP1 DUP4 MSTORE SWAP1 DUP4 MSTORE PUSH1 0x20 DUP1 DUP4 ADD SWAP4 PUSH32 0xDF6966C971051C3D54EC59162606531493A51404A002842F56009D7E5CF4A8C7 SWAP3 SWAP2 JUMPDEST DUP3 DUP3 LT PUSH2 0x1770 JUMPI PUSH2 0xCCB DUP6 PUSH2 0xCBF DUP2 DUP10 SUB DUP3 PUSH2 0x2589 JUMP JUMPDEST DUP4 SLOAD DUP7 MSTORE SWAP5 DUP6 ADD SWAP5 PUSH1 0x1 SWAP4 DUP5 ADD SWAP4 SWAP1 SWAP2 ADD SWAP1 PUSH2 0x1759 JUMP JUMPDEST POP CALLVALUE PUSH2 0x275 JUMPI DUP1 PUSH1 0x3 NOT CALLDATASIZE ADD SLT PUSH2 0x275 JUMPI PUSH1 0x20 PUSH1 0x40 MLOAD PUSH1 0x0 DUP1 MLOAD PUSH1 0x20 PUSH2 0x2F43 DUP4 CODECOPY DUP2 MLOAD SWAP2 MSTORE DUP2 MSTORE RETURN JUMPDEST POP CALLVALUE PUSH2 0x275 JUMPI DUP1 PUSH1 0x3 NOT CALLDATASIZE ADD SLT PUSH2 0x275 JUMPI PUSH1 0x20 PUSH1 0x40 MLOAD PUSH1 0x0 DUP1 MLOAD PUSH1 0x20 PUSH2 0x2F63 DUP4 CODECOPY DUP2 MLOAD SWAP2 MSTORE DUP2 MSTORE RETURN JUMPDEST POP CALLVALUE PUSH2 0x275 JUMPI DUP1 PUSH1 0x3 NOT CALLDATASIZE ADD SLT PUSH2 0x275 JUMPI PUSH2 0x17F2 PUSH2 0x298A JUMP JUMPDEST PUSH1 0x3 DUP1 SLOAD PUSH1 0x1 PUSH1 0x1 PUSH1 0xA0 SHL SUB NOT DUP2 AND SWAP1 SWAP2 SSTORE PUSH1 0x0 SWAP1 PUSH1 0x1 PUSH1 0x1 PUSH1 0xA0 SHL SUB AND PUSH32 0x8BE0079C531659141344CD1FD0A4F28419497F9722A3DAAFE3B4186F6B6457E0 DUP3 DUP1 LOG3 DUP1 RETURN JUMPDEST POP CALLVALUE PUSH2 0x275 JUMPI PUSH1 0x20 CALLDATASIZE PUSH1 0x3 NOT ADD SLT PUSH2 0x275 JUMPI PUSH2 0x3F4 PUSH2 0x1854 PUSH2 0x23C5 JUMP JUMPDEST PUSH2 0x185C PUSH2 0x2651 JUMP JUMPDEST PUSH1 0x0 DUP1 MLOAD PUSH1 0x20 PUSH2 0x2F63 DUP4 CODECOPY DUP2 MLOAD SWAP2 MSTORE DUP4 MSTORE PUSH1 0x2 PUSH1 0x20 MSTORE PUSH2 0x1882 PUSH1 0x1 PUSH1 0x40 DUP6 KECCAK256 ADD SLOAD PUSH2 0x269B JUMP JUMPDEST PUSH2 0x26C1 JUMP JUMPDEST POP CALLVALUE PUSH2 0x275 JUMPI PUSH1 0xA0 CALLDATASIZE PUSH1 0x3 NOT ADD SLT PUSH2 0x275 JUMPI PUSH1 0x2 PUSH1 0x4 CALLDATALOAD LT ISZERO PUSH2 0x275 JUMPI PUSH2 0x18AC PUSH2 0x2B5F JUMP JUMPDEST PUSH2 0x18B4 PUSH2 0x2B7D JUMP JUMPDEST PUSH2 0x18C1 PUSH1 0x24 CALLDATALOAD ISZERO ISZERO PUSH2 0x29B6 JUMP JUMPDEST PUSH2 0x18CE PUSH1 0x44 CALLDATALOAD ISZERO ISZERO PUSH2 0x2A12 JUMP JUMPDEST PUSH2 0x18DD PUSH1 0x64 CALLDATALOAD PUSH1 0x84 CALLDATALOAD GT PUSH2 0x2A6F JUMP JUMPDEST PUSH2 0x18EA TIMESTAMP PUSH1 0x64 CALLDATALOAD GT PUSH2 0x2AC5 JUMP JUMPDEST PUSH2 0x18F8 PUSH1 0x44 CALLDATALOAD PUSH1 0x24 CALLDATALOAD PUSH2 0x2B10 JUMP JUMPDEST PUSH2 0x190D PUSH1 0x4 CALLDATALOAD PUSH1 0x1 PUSH1 0x1 PUSH1 0xA0 SHL SUB AND CALLER PUSH2 0x2BA0 JUMP JUMPDEST SWAP1 PUSH1 0x40 MLOAD SWAP1 PUSH2 0x160 DUP3 ADD DUP3 DUP2 LT PUSH8 0xFFFFFFFFFFFFFFFF DUP3 GT OR PUSH2 0x568 JUMPI PUSH1 0x40 MSTORE DUP3 DUP3 MSTORE PUSH1 0x20 DUP3 ADD SWAP1 CALLER DUP3 MSTORE PUSH1 0x40 DUP4 ADD SWAP2 PUSH1 0x4 CALLDATALOAD DUP4 MSTORE PUSH1 0x60 DUP5 ADD SWAP2 PUSH1 0x24 CALLDATALOAD DUP4 MSTORE PUSH1 0x80 DUP6 ADD SWAP1 PUSH1 0x44 CALLDATALOAD DUP3 MSTORE PUSH1 0xA0 DUP7 ADD SWAP1 DUP2 MSTORE PUSH1 0xC0 DUP7 ADD SWAP1 PUSH1 0x64 CALLDATALOAD DUP3 MSTORE PUSH1 0xE0 DUP8 ADD SWAP3 PUSH1 0x84 CALLDATALOAD DUP5 MSTORE PUSH2 0x100 DUP9 ADD SWAP6 DUP11 DUP8 MSTORE PUSH2 0x120 DUP10 ADD SWAP6 DUP12 DUP8 MSTORE PUSH2 0x140 DUP11 ADD SWAP9 TIMESTAMP DUP11 MSTORE DUP12 DUP14 MSTORE PUSH1 0x7 PUSH1 0x20 MSTORE PUSH1 0x40 DUP14 KECCAK256 SWAP11 MLOAD DUP12 SSTORE PUSH1 0x1 DUP12 ADD SWAP2 PUSH1 0x1 DUP1 PUSH1 0xA0 SHL SUB SWAP1 MLOAD AND DUP3 SLOAD SWAP2 MLOAD PUSH1 0x2 DUP2 LT ISZERO PUSH2 0x1B0A JUMPI PUSH1 0xFF PUSH1 0xA0 SHL SWAP1 PUSH1 0xA0 SHL AND SWAP2 PUSH11 0xFFFFFFFFFFFFFFFFFFFFFF PUSH1 0xA8 SHL AND OR OR SWAP1 SSTORE MLOAD PUSH1 0x2 DUP10 ADD SSTORE MLOAD PUSH1 0x3 DUP9 ADD SSTORE MLOAD PUSH1 0x4 DUP8 ADD SSTORE MLOAD PUSH1 0x5 DUP7 ADD SSTORE MLOAD PUSH1 0x6 DUP6 ADD SSTORE PUSH1 0x7 DUP5 ADD SWAP2 MLOAD PUSH1 0x6 DUP2 LT ISZERO PUSH2 0x1AF6 JUMPI DUP3 SLOAD SWAP2 MLOAD PUSH1 0x1 PUSH1 0x1 PUSH1 0xA8 SHL SUB NOT SWAP1 SWAP3 AND PUSH1 0xFF SWAP1 SWAP2 AND OR PUSH1 0x8 SWAP2 DUP3 SHL PUSH2 0x100 PUSH1 0x1 PUSH1 0xA8 SHL SUB AND OR SWAP1 SWAP2 SSTORE SWAP1 MLOAD SWAP2 ADD SSTORE CALLER DUP3 MSTORE PUSH1 0xA PUSH1 0x20 MSTORE PUSH2 0x1A47 DUP2 PUSH1 0x40 DUP5 KECCAK256 PUSH2 0x2B39 JUMP JUMPDEST PUSH1 0xC SLOAD PUSH1 0x1 PUSH1 0x40 SHL DUP2 LT ISZERO PUSH2 0x568 JUMPI PUSH2 0x1A81 PUSH2 0x1A6A DUP3 PUSH1 0x1 DUP6 SWAP5 ADD PUSH1 0xC SSTORE PUSH2 0x244B JUMP JUMPDEST DUP2 SWAP4 SWAP2 SLOAD SWAP1 PUSH1 0x3 SHL SWAP2 DUP3 SHL SWAP2 PUSH1 0x0 NOT SWAP1 SHL NOT AND OR SWAP1 JUMP JUMPDEST SWAP1 SSTORE PUSH1 0xC SLOAD PUSH1 0x0 NOT DUP2 ADD SWAP1 DUP2 GT PUSH2 0x1AE2 JUMPI DUP3 PUSH1 0x1 SWAP2 DUP4 PUSH1 0x20 SWAP6 MSTORE PUSH1 0xD DUP6 MSTORE PUSH1 0x40 DUP3 KECCAK256 SSTORE PUSH1 0x40 MLOAD PUSH2 0x1AB3 DUP2 PUSH1 0x4 CALLDATALOAD PUSH2 0x241B JUMP JUMPDEST DUP4 PUSH32 0xD4CDB9461E7BB277691704E70B4F3822A366E2A92A7E3B797154789698E07A45 DUP7 CALLER SWAP4 LOG3 SSTORE PUSH1 0x40 MLOAD SWAP1 DUP2 MSTORE RETURN JUMPDEST PUSH4 0x4E487B71 PUSH1 0xE0 SHL DUP4 MSTORE PUSH1 0x11 PUSH1 0x4 MSTORE PUSH1 0x24 DUP4 REVERT JUMPDEST PUSH4 0x4E487B71 PUSH1 0xE0 SHL DUP8 MSTORE PUSH1 0x21 PUSH1 0x4 MSTORE PUSH1 0x24 DUP8 REVERT JUMPDEST PUSH4 0x4E487B71 PUSH1 0xE0 SHL DUP16 MSTORE PUSH1 0x21 PUSH1 0x4 MSTORE PUSH1 0x24 DUP16 REVERT JUMPDEST POP CALLVALUE PUSH2 0x275 JUMPI PUSH1 0x20 DUP1 PUSH1 0x3 NOT CALLDATASIZE ADD SLT PUSH2 0xCE6 JUMPI PUSH1 0x1 PUSH1 0x1 PUSH1 0xA0 SHL SUB PUSH2 0x1B41 PUSH2 0x23C5 JUMP JUMPDEST AND DUP3 MSTORE PUSH1 0xA DUP2 MSTORE PUSH1 0x40 DUP3 KECCAK256 SWAP2 PUSH1 0x40 MLOAD DUP1 SWAP3 DUP1 DUP6 SLOAD SWAP3 DUP4 DUP2 MSTORE ADD SWAP5 DUP4 MSTORE DUP1 DUP4 KECCAK256 SWAP3 SWAP1 JUMPDEST DUP3 DUP3 LT PUSH2 0x1B7A JUMPI PUSH2 0xCCB DUP6 PUSH2 0xCBF DUP2 DUP10 SUB DUP3 PUSH2 0x2589 JUMP JUMPDEST DUP4 SLOAD DUP7 MSTORE SWAP5 DUP6 ADD SWAP5 PUSH1 0x1 SWAP4 DUP5 ADD SWAP4 SWAP1 SWAP2 ADD SWAP1 PUSH2 0x1B63 JUMP JUMPDEST POP CALLVALUE PUSH2 0x275 JUMPI DUP1 PUSH1 0x3 NOT CALLDATASIZE ADD SLT PUSH2 0x275 JUMPI PUSH1 0x20 PUSH1 0xFF PUSH1 0x1 SLOAD AND PUSH1 0x40 MLOAD SWAP1 ISZERO ISZERO DUP2 MSTORE RETURN JUMPDEST POP CALLVALUE PUSH2 0x275 JUMPI PUSH1 0x20 CALLDATASIZE PUSH1 0x3 NOT ADD SLT PUSH2 0x275 JUMPI PUSH1 0x4 CALLDATALOAD SWAP1 PUSH1 0xC SLOAD DUP3 LT ISZERO PUSH2 0x275 JUMPI PUSH1 0x20 PUSH2 0x871 DUP4 PUSH2 0x244B JUMP JUMPDEST POP CALLVALUE PUSH2 0x275 JUMPI DUP1 PUSH1 0x3 NOT CALLDATASIZE ADD SLT PUSH2 0x275 JUMPI PUSH1 0x4 SLOAD PUSH1 0x40 MLOAD PUSH1 0x1 PUSH1 0x1 PUSH1 0xA0 SHL SUB SWAP1 SWAP2 AND DUP2 MSTORE PUSH1 0x20 SWAP1 RETURN JUMPDEST POP CALLVALUE PUSH2 0x275 JUMPI PUSH1 0x40 CALLDATASIZE PUSH1 0x3 NOT ADD SLT PUSH2 0x275 JUMPI PUSH2 0x1C22 PUSH2 0x23C5 JUMP JUMPDEST PUSH1 0x1 PUSH1 0x1 PUSH1 0xA0 SHL SUB AND DUP2 MSTORE PUSH1 0xB PUSH1 0x20 MSTORE PUSH1 0x40 DUP2 KECCAK256 DUP1 SLOAD PUSH1 0x24 CALLDATALOAD SWAP3 SWAP1 DUP4 LT ISZERO PUSH2 0x275 JUMPI PUSH1 0x20 PUSH2 0x871 DUP5 DUP5 PUSH2 0x2482 JUMP JUMPDEST POP CALLVALUE PUSH2 0x275 JUMPI PUSH1 0x20 CALLDATASIZE PUSH1 0x3 NOT ADD SLT PUSH2 0x275 JUMPI PUSH1 0x40 PUSH2 0x160 SWAP2 PUSH1 0x4 CALLDATALOAD DUP2 MSTORE PUSH1 0x7 PUSH1 0x20 MSTORE KECCAK256 DUP1 SLOAD SWAP1 PUSH1 0x1 DUP2 ADD SLOAD PUSH1 0x2 DUP3 ADD SLOAD SWAP2 PUSH1 0x3 DUP2 ADD SLOAD PUSH1 0x4 DUP3 ADD SLOAD PUSH1 0x5 DUP4 ADD SLOAD SWAP1 PUSH1 0x6 DUP5 ADD SLOAD SWAP3 PUSH1 0x8 PUSH1 0x7 DUP7 ADD SLOAD SWAP6 ADD SLOAD SWAP7 PUSH1 0x40 MLOAD SWAP9 DUP10 MSTORE PUSH2 0x1CCB PUSH1 0x1 DUP1 PUSH1 0xA0 SHL SUB SWAP8 DUP9 DUP2 AND PUSH1 0x20 DUP13 ADD MSTORE PUSH1 0xFF PUSH1 0x40 DUP13 ADD SWAP2 PUSH1 0xA0 SHR AND PUSH2 0x241B JUMP JUMPDEST PUSH1 0x60 DUP10 ADD MSTORE PUSH1 0x80 DUP9 ADD MSTORE PUSH1 0xA0 DUP8 ADD MSTORE PUSH1 0xC0 DUP7 ADD MSTORE PUSH1 0xE0 DUP6 ADD MSTORE PUSH2 0x1CF5 PUSH2 0x100 DUP6 ADD PUSH1 0xFF DUP4 AND PUSH2 0x243E JUMP JUMPDEST PUSH1 0x8 SHR AND PUSH2 0x120 DUP4 ADD MSTORE PUSH2 0x140 DUP3 ADD MSTORE RETURN JUMPDEST POP CALLVALUE PUSH2 0x275 JUMPI DUP1 PUSH1 0x3 NOT CALLDATASIZE ADD SLT PUSH2 0x275 JUMPI PUSH2 0x1D20 PUSH2 0x2651 JUMP JUMPDEST PUSH1 0x1 SLOAD PUSH1 0xFF DUP2 AND ISZERO PUSH2 0x1D60 JUMPI PUSH1 0xFF NOT AND PUSH1 0x1 SSTORE PUSH32 0x5DB9EE0A495BF2E6FF9C91A7834C1BA4FDD244A5E8AA4E537BD38AEAE4B073AA PUSH1 0x20 PUSH1 0x40 MLOAD CALLER DUP2 MSTORE LOG1 DUP1 RETURN JUMPDEST PUSH1 0x40 MLOAD PUSH4 0x8DFC202B PUSH1 0xE0 SHL DUP2 MSTORE PUSH1 0x4 SWAP1 REVERT JUMPDEST POP CALLVALUE PUSH2 0x275 JUMPI PUSH1 0x20 SWAP1 DUP2 PUSH1 0x3 NOT CALLDATASIZE ADD SLT PUSH2 0x275 JUMPI PUSH1 0x4 CALLDATALOAD DUP2 MSTORE PUSH1 0x8 DUP3 MSTORE PUSH1 0x40 DUP2 KECCAK256 DUP1 SLOAD SWAP3 PUSH8 0xFFFFFFFFFFFFFFFF DUP5 GT PUSH2 0x1EC7 JUMPI SWAP2 PUSH1 0x40 MLOAD PUSH1 0x5 SWAP5 PUSH2 0x1DBA DUP6 DUP3 DUP9 SHL ADD DUP4 PUSH2 0x2589 JUMP JUMPDEST DUP1 DUP3 MSTORE DUP5 DUP3 ADD DUP1 SWAP5 DUP5 MSTORE DUP6 DUP5 KECCAK256 DUP8 DUP6 SWAP3 JUMPDEST DUP5 DUP5 LT PUSH2 0x1E66 JUMPI POP POP POP POP POP PUSH1 0x40 MLOAD SWAP4 DUP1 DUP6 ADD SWAP2 DUP2 DUP7 MSTORE MLOAD DUP1 SWAP3 MSTORE PUSH1 0x40 DUP3 DUP2 DUP8 ADD SWAP8 SHL DUP7 ADD ADD SWAP4 SWAP3 SWAP6 JUMPDEST DUP3 DUP8 LT PUSH2 0x1E02 JUMPI DUP6 DUP6 SUB DUP7 RETURN JUMPDEST SWAP1 SWAP2 SWAP3 SWAP4 DUP3 DUP1 PUSH1 0x1 SWAP3 PUSH1 0x3F NOT DUP10 DUP3 SUB ADD DUP6 MSTORE DUP8 MLOAD SWAP1 DUP5 DUP1 PUSH1 0xA0 SHL SUB DUP3 MLOAD AND DUP2 MSTORE DUP3 DUP3 ADD MLOAD DUP4 DUP3 ADD MSTORE PUSH2 0x1E42 PUSH1 0x40 DUP4 ADD MLOAD PUSH1 0xA0 DUP1 PUSH1 0x40 DUP6 ADD MSTORE DUP4 ADD SWAP1 PUSH2 0x23DB JUMP JUMPDEST SWAP2 PUSH1 0x60 DUP1 DUP3 ADD MLOAD SWAP1 DUP4 ADD MSTORE PUSH1 0x80 DUP1 SWAP2 ADD MLOAD SWAP2 ADD MSTORE SWAP7 ADD SWAP3 ADD SWAP7 ADD SWAP6 SWAP3 SWAP2 SWAP1 SWAP3 PUSH2 0x1DF5 JUMP JUMPDEST SWAP1 DUP9 PUSH1 0x1 SWAP3 PUSH1 0x40 SWAP11 SWAP8 SWAP9 SWAP11 MLOAD PUSH2 0x1E7B DUP2 PUSH2 0x256D JUMP JUMPDEST DUP5 DUP1 PUSH1 0xA0 SHL SUB DUP7 SLOAD AND DUP2 MSTORE DUP5 DUP7 ADD SLOAD DUP4 DUP3 ADD MSTORE PUSH2 0x1E9A PUSH1 0x2 DUP8 ADD PUSH2 0x25AB JUMP JUMPDEST PUSH1 0x40 DUP3 ADD MSTORE PUSH1 0x3 DUP7 ADD SLOAD PUSH1 0x60 DUP3 ADD MSTORE PUSH1 0x4 DUP7 ADD SLOAD PUSH1 0x80 DUP3 ADD MSTORE DUP2 MSTORE ADD SWAP3 ADD SWAP3 ADD SWAP2 SWAP1 DUP9 SWAP1 SWAP8 SWAP6 SWAP5 SWAP8 PUSH2 0x1DCB JUMP JUMPDEST PUSH4 0x4E487B71 PUSH1 0xE0 SHL DUP4 MSTORE PUSH1 0x41 PUSH1 0x4 MSTORE PUSH1 0x24 DUP4 REVERT JUMPDEST POP CALLVALUE PUSH2 0x275 JUMPI PUSH1 0x20 DUP1 PUSH1 0x3 NOT CALLDATASIZE ADD SLT PUSH2 0xCE6 JUMPI PUSH1 0x4 CALLDATALOAD SWAP1 PUSH1 0x0 DUP1 MLOAD PUSH1 0x20 PUSH2 0x2F43 DUP4 CODECOPY DUP2 MLOAD SWAP2 MSTORE DUP1 PUSH1 0x0 MSTORE PUSH1 0x2 DUP3 MSTORE PUSH1 0x40 PUSH1 0x0 KECCAK256 CALLER PUSH1 0x0 MSTORE DUP3 MSTORE PUSH1 0xFF PUSH1 0x40 PUSH1 0x0 KECCAK256 SLOAD AND ISZERO PUSH2 0x207D JUMPI POP DUP2 DUP4 MSTORE PUSH1 0x7 DUP2 MSTORE PUSH1 0x7 PUSH1 0x40 DUP5 KECCAK256 PUSH2 0x1F3C DUP5 DUP3 SLOAD EQ PUSH2 0x2C14 JUMP JUMPDEST ADD DUP1 SLOAD PUSH1 0xFF DUP2 AND PUSH1 0x6 DUP2 LT ISZERO PUSH2 0x2069 JUMPI DUP1 ISZERO SWAP1 DUP2 ISZERO PUSH2 0x205E JUMPI JUMPDEST POP ISZERO PUSH2 0x2019 JUMPI PUSH1 0xFF NOT AND PUSH1 0x5 OR SWAP1 SSTORE DUP2 DUP4 MSTORE PUSH1 0xD DUP2 MSTORE PUSH1 0x40 DUP4 KECCAK256 SLOAD ISZERO DUP1 ISZERO SWAP1 PUSH2 0x1FA9 JUMPI JUMPDEST SWAP1 PUSH1 0x0 DUP1 MLOAD PUSH1 0x20 PUSH2 0x2F23 DUP4 CODECOPY DUP2 MLOAD SWAP2 MSTORE SWAP2 PUSH2 0x1F9B JUMPI JUMPDEST PUSH1 0x40 MLOAD PUSH1 0x5 DUP2 MSTORE LOG2 DUP1 RETURN JUMPDEST PUSH2 0x1FA4 DUP4 PUSH2 0x2CA3 JUMP JUMPDEST PUSH2 0x1F90 JUMP JUMPDEST POP PUSH1 0xC SLOAD ISZERO SWAP1 DUP2 ISZERO DUP1 PUSH2 0x1FBF JUMPI JUMPDEST SWAP1 SWAP2 POP PUSH2 0x1F7A JUMP JUMPDEST POP SWAP1 PUSH2 0x2003 JUMPI PUSH1 0x0 DUP1 MLOAD PUSH1 0x20 PUSH2 0x2F23 DUP4 CODECOPY DUP2 MLOAD SWAP2 MSTORE SWAP1 PUSH1 0xC PUSH1 0x0 MSTORE DUP3 PUSH32 0xDF6966C971051C3D54EC59162606531493A51404A002842F56009D7E5CF4A8C7 SLOAD EQ PUSH2 0x1FB7 JUMP JUMPDEST PUSH4 0x4E487B71 PUSH1 0xE0 SHL PUSH1 0x0 MSTORE PUSH1 0x32 PUSH1 0x4 MSTORE PUSH1 0x24 PUSH1 0x0 REVERT JUMPDEST PUSH1 0x40 MLOAD PUSH3 0x461BCD PUSH1 0xE5 SHL DUP2 MSTORE PUSH1 0x4 DUP2 ADD DUP5 SWAP1 MSTORE PUSH1 0x19 PUSH1 0x24 DUP3 ADD MSTORE PUSH32 0x4F666665722063616E6E6F74206265206D6F6465726174656400000000000000 PUSH1 0x44 DUP3 ADD MSTORE PUSH1 0x64 SWAP1 REVERT JUMPDEST PUSH1 0x1 SWAP2 POP EQ CODESIZE PUSH2 0x1F56 JUMP JUMPDEST PUSH4 0x4E487B71 PUSH1 0xE0 SHL DUP7 MSTORE PUSH1 0x21 PUSH1 0x4 MSTORE PUSH1 0x24 DUP7 REVERT JUMPDEST PUSH1 0x44 SWAP1 PUSH1 0x40 MLOAD SWAP1 PUSH4 0xE2517D3F PUSH1 0xE0 SHL DUP3 MSTORE CALLER PUSH1 0x4 DUP4 ADD MSTORE PUSH1 0x24 DUP3 ADD MSTORE REVERT JUMPDEST POP CALLVALUE PUSH2 0x275 JUMPI PUSH1 0x40 CALLDATASIZE PUSH1 0x3 NOT ADD SLT PUSH2 0x275 JUMPI PUSH2 0x20B5 PUSH2 0x23AF JUMP JUMPDEST CALLER PUSH1 0x1 PUSH1 0x1 PUSH1 0xA0 SHL SUB DUP3 AND SUB PUSH2 0x20D1 JUMPI PUSH2 0x3F4 SWAP1 PUSH1 0x4 CALLDATALOAD PUSH2 0x2913 JUMP JUMPDEST PUSH1 0x40 MLOAD PUSH4 0x334BD919 PUSH1 0xE1 SHL DUP2 MSTORE PUSH1 0x4 SWAP1 REVERT JUMPDEST POP CALLVALUE PUSH2 0x275 JUMPI PUSH1 0x40 CALLDATASIZE PUSH1 0x3 NOT ADD SLT PUSH2 0x275 JUMPI PUSH2 0x3F4 PUSH1 0x4 CALLDATALOAD PUSH2 0x2103 PUSH2 0x23AF JUMP JUMPDEST SWAP1 DUP1 DUP5 MSTORE PUSH1 0x2 PUSH1 0x20 MSTORE PUSH2 0x211C PUSH1 0x1 PUSH1 0x40 DUP7 KECCAK256 ADD SLOAD PUSH2 0x269B JUMP JUMPDEST PUSH2 0x27FE JUMP JUMPDEST POP CALLVALUE PUSH2 0x275 JUMPI PUSH1 0x20 CALLDATASIZE PUSH1 0x3 NOT ADD SLT PUSH2 0x275 JUMPI PUSH1 0x1 PUSH1 0x40 PUSH1 0x20 SWAP3 PUSH1 0x4 CALLDATALOAD DUP2 MSTORE PUSH1 0x2 DUP5 MSTORE KECCAK256 ADD SLOAD PUSH1 0x40 MLOAD SWAP1 DUP2 MSTORE RETURN JUMPDEST POP CALLVALUE PUSH2 0x275 JUMPI PUSH1 0x20 CALLDATASIZE PUSH1 0x3 NOT ADD SLT PUSH2 0x275 JUMPI PUSH1 0x4 CALLDATALOAD PUSH4 0xFFFFFFFF PUSH1 0xE0 SHL DUP2 AND DUP1 SWAP2 SUB PUSH2 0xCE6 JUMPI PUSH1 0x20 SWAP1 PUSH4 0x7965DB0B PUSH1 0xE0 SHL DUP2 EQ SWAP1 DUP2 ISZERO PUSH2 0x2194 JUMPI JUMPDEST POP PUSH1 0x40 MLOAD SWAP1 ISZERO ISZERO DUP2 MSTORE RETURN JUMPDEST PUSH4 0x1FFC9A7 PUSH1 0xE0 SHL EQ SWAP1 POP DUP3 PUSH2 0x2189 JUMP JUMPDEST POP CALLVALUE PUSH2 0x275 JUMPI PUSH2 0x21B4 CALLDATASIZE PUSH2 0x2394 JUMP JUMPDEST PUSH2 0x21BC PUSH2 0x2B5F JUMP JUMPDEST PUSH2 0x21C4 PUSH2 0x2B7D JUMP JUMPDEST DUP2 DUP4 MSTORE PUSH1 0x9 PUSH1 0x20 MSTORE PUSH1 0x40 DUP4 KECCAK256 PUSH2 0x21DC DUP4 DUP3 SLOAD EQ PUSH2 0x2D5C JUMP JUMPDEST PUSH2 0x21EC PUSH1 0xFF PUSH1 0x8 DUP4 ADD SLOAD AND PUSH2 0x2DA8 JUMP JUMPDEST DUP2 DUP5 MSTORE PUSH1 0x9 DUP2 ADD PUSH1 0x20 MSTORE PUSH1 0x40 DUP5 KECCAK256 SWAP1 PUSH1 0x1 DUP3 SLOAD SWAP3 PUSH2 0x220B DUP5 ISZERO ISZERO PUSH2 0x2ED6 JUMP JUMPDEST ADD DUP1 SLOAD SWAP3 PUSH1 0xFF DUP5 AND ISZERO PUSH2 0x234F JUMPI PUSH1 0xFF DUP5 PUSH1 0x8 SHR AND PUSH2 0x2312 JUMPI PUSH3 0x15180 DUP2 ADD DUP1 SWAP2 GT PUSH2 0x22FE JUMPI TIMESTAMP GT ISZERO PUSH2 0x22B9 JUMPI PUSH1 0xFF NOT SWAP1 SWAP3 AND SWAP1 SWAP2 SSTORE PUSH1 0x5 SLOAD PUSH1 0x7 SWAP2 SWAP1 SWAP2 ADD SLOAD DUP5 SWAP2 PUSH1 0x1 PUSH1 0x1 PUSH1 0xA0 SHL SUB AND DUP1 EXTCODESIZE ISZERO PUSH2 0x389 JUMPI PUSH1 0x44 DUP4 SWAP3 PUSH1 0x40 MLOAD SWAP5 DUP6 SWAP4 DUP5 SWAP3 PUSH4 0x5D655FB1 PUSH1 0xE0 SHL DUP5 MSTORE PUSH1 0x4 DUP5 ADD MSTORE DUP8 PUSH1 0x24 DUP5 ADD MSTORE GAS CALL DUP1 ISZERO PUSH2 0x22AE JUMPI PUSH2 0x229A JUMPI JUMPDEST POP PUSH1 0x64 EQ PUSH2 0x559 JUMPI POP PUSH1 0x1 DUP2 SSTORE DUP1 RETURN JUMPDEST SWAP3 PUSH2 0x22A7 PUSH1 0x64 SWAP3 SWAP5 PUSH2 0x2559 JUMP JUMPDEST SWAP3 SWAP1 PUSH2 0x228A JUMP JUMPDEST PUSH1 0x40 MLOAD RETURNDATASIZE DUP7 DUP3 RETURNDATACOPY RETURNDATASIZE SWAP1 REVERT JUMPDEST PUSH1 0x40 MLOAD PUSH3 0x461BCD PUSH1 0xE5 SHL DUP2 MSTORE PUSH1 0x20 PUSH1 0x4 DUP3 ADD MSTORE PUSH1 0x17 PUSH1 0x24 DUP3 ADD MSTORE PUSH32 0x4469737075746520706572696F64206E6F74206F766572000000000000000000 PUSH1 0x44 DUP3 ADD MSTORE PUSH1 0x64 SWAP1 REVERT JUMPDEST PUSH4 0x4E487B71 PUSH1 0xE0 SHL DUP8 MSTORE PUSH1 0x11 PUSH1 0x4 MSTORE PUSH1 0x24 DUP8 REVERT JUMPDEST PUSH1 0x40 MLOAD PUSH3 0x461BCD PUSH1 0xE5 SHL DUP2 MSTORE PUSH1 0x20 PUSH1 0x4 DUP3 ADD MSTORE PUSH1 0x15 PUSH1 0x24 DUP3 ADD MSTORE PUSH21 0x135A5B195CDD1BDB99481A5CC8191A5CDC1D5D1959 PUSH1 0x5A SHL PUSH1 0x44 DUP3 ADD MSTORE PUSH1 0x64 SWAP1 REVERT JUMPDEST PUSH1 0x40 MLOAD PUSH3 0x461BCD PUSH1 0xE5 SHL DUP2 MSTORE PUSH1 0x20 PUSH1 0x4 DUP3 ADD MSTORE PUSH1 0x1B PUSH1 0x24 DUP3 ADD MSTORE PUSH32 0x4D696C6573746F6E6520616C72656164792066696E616C697A65640000000000 PUSH1 0x44 DUP3 ADD MSTORE PUSH1 0x64 SWAP1 REVERT JUMPDEST PUSH1 0x40 SWAP1 PUSH1 0x3 NOT ADD SLT PUSH2 0x23AA JUMPI PUSH1 0x4 CALLDATALOAD SWAP1 PUSH1 0x24 CALLDATALOAD SWAP1 JUMP JUMPDEST PUSH1 0x0 DUP1 REVERT JUMPDEST PUSH1 0x24 CALLDATALOAD SWAP1 PUSH1 0x1 PUSH1 0x1 PUSH1 0xA0 SHL SUB DUP3 AND DUP3 SUB PUSH2 0x23AA JUMPI JUMP JUMPDEST PUSH1 0x4 CALLDATALOAD SWAP1 PUSH1 0x1 PUSH1 0x1 PUSH1 0xA0 SHL SUB DUP3 AND DUP3 SUB PUSH2 0x23AA JUMPI JUMP JUMPDEST SWAP2 SWAP1 DUP3 MLOAD SWAP3 DUP4 DUP3 MSTORE PUSH1 0x0 JUMPDEST DUP5 DUP2 LT PUSH2 0x2407 JUMPI POP POP DUP3 PUSH1 0x0 PUSH1 0x20 DUP1 SWAP5 SWAP6 DUP5 ADD ADD MSTORE PUSH1 0x1F DUP1 NOT SWAP2 ADD AND ADD ADD SWAP1 JUMP JUMPDEST PUSH1 0x20 DUP2 DUP4 ADD DUP2 ADD MLOAD DUP5 DUP4 ADD DUP3 ADD MSTORE ADD PUSH2 0x23E6 JUMP JUMPDEST SWAP1 PUSH1 0x2 DUP3 LT ISZERO PUSH2 0x2428 JUMPI MSTORE JUMP JUMPDEST PUSH4 0x4E487B71 PUSH1 0xE0 SHL PUSH1 0x0 MSTORE PUSH1 0x21 PUSH1 0x4 MSTORE PUSH1 0x24 PUSH1 0x0 REVERT JUMPDEST SWAP1 PUSH1 0x6 DUP3 LT ISZERO PUSH2 0x2428 JUMPI MSTORE JUMP JUMPDEST PUSH1 0xC SLOAD DUP2 LT ISZERO PUSH2 0x2003 JUMPI PUSH1 0xC PUSH1 0x0 MSTORE PUSH32 0xDF6966C971051C3D54EC59162606531493A51404A002842F56009D7E5CF4A8C7 ADD SWAP1 PUSH1 0x0 SWAP1 JUMP JUMPDEST DUP1 SLOAD DUP3 LT ISZERO PUSH2 0x2003 JUMPI PUSH1 0x0 MSTORE PUSH1 0x20 PUSH1 0x0 KECCAK256 ADD SWAP1 PUSH1 0x0 SWAP1 JUMP JUMPDEST PUSH1 0x20 SWAP1 DUP2 PUSH1 0x40 DUP2 DUP4 ADD SWAP3 DUP3 DUP2 MSTORE DUP6 MLOAD DUP1 SWAP5 MSTORE ADD SWAP4 ADD SWAP2 PUSH1 0x0 JUMPDEST DUP3 DUP2 LT PUSH2 0x24C1 JUMPI POP POP POP POP SWAP1 JUMP JUMPDEST DUP4 MLOAD DUP6 MSTORE SWAP4 DUP2 ADD SWAP4 SWAP3 DUP2 ADD SWAP3 PUSH1 0x1 ADD PUSH2 0x24B3 JUMP JUMPDEST SWAP2 DUP2 PUSH1 0x1F DUP5 ADD SLT ISZERO PUSH2 0x23AA JUMPI DUP3 CALLDATALOAD SWAP2 PUSH8 0xFFFFFFFFFFFFFFFF DUP4 GT PUSH2 0x23AA JUMPI PUSH1 0x20 DUP4 DUP2 DUP7 ADD SWAP6 ADD ADD GT PUSH2 0x23AA JUMPI JUMP JUMPDEST DUP1 SLOAD DUP3 LT ISZERO PUSH2 0x2003 JUMPI PUSH1 0x0 MSTORE PUSH1 0x5 PUSH1 0x20 PUSH1 0x0 KECCAK256 SWAP2 MUL ADD SWAP1 PUSH1 0x0 SWAP1 JUMP JUMPDEST SWAP1 PUSH1 0x1 DUP3 DUP2 SHR SWAP3 AND DUP1 ISZERO PUSH2 0x254F JUMPI JUMPDEST PUSH1 0x20 DUP4 LT EQ PUSH2 0x2539 JUMPI JUMP JUMPDEST PUSH4 0x4E487B71 PUSH1 0xE0 SHL PUSH1 0x0 MSTORE PUSH1 0x22 PUSH1 0x4 MSTORE PUSH1 0x24 PUSH1 0x0 REVERT JUMPDEST SWAP2 PUSH1 0x7F AND SWAP2 PUSH2 0x252E JUMP JUMPDEST PUSH8 0xFFFFFFFFFFFFFFFF DUP2 GT PUSH2 0x568 JUMPI PUSH1 0x40 MSTORE JUMP JUMPDEST PUSH1 0xA0 DUP2 ADD SWAP1 DUP2 LT PUSH8 0xFFFFFFFFFFFFFFFF DUP3 GT OR PUSH2 0x568 JUMPI PUSH1 0x40 MSTORE JUMP JUMPDEST SWAP1 PUSH1 0x1F DUP1 NOT SWAP2 ADD AND DUP2 ADD SWAP1 DUP2 LT PUSH8 0xFFFFFFFFFFFFFFFF DUP3 GT OR PUSH2 0x568 JUMPI PUSH1 0x40 MSTORE JUMP JUMPDEST SWAP1 PUSH1 0x40 MLOAD SWAP2 DUP3 PUSH1 0x0 DUP3 SLOAD SWAP3 PUSH2 0x25BF DUP5 PUSH2 0x251F JUMP JUMPDEST SWAP1 DUP2 DUP5 MSTORE PUSH1 0x1 SWAP5 DUP6 DUP2 AND SWAP1 DUP2 PUSH1 0x0 EQ PUSH2 0x262E JUMPI POP PUSH1 0x1 EQ PUSH2 0x25EB JUMPI JUMPDEST POP POP PUSH2 0x25E9 SWAP3 POP SUB DUP4 PUSH2 0x2589 JUMP JUMPDEST JUMP JUMPDEST SWAP1 SWAP4 SWAP2 POP PUSH1 0x0 MSTORE PUSH1 0x20 SWAP1 DUP2 PUSH1 0x0 KECCAK256 SWAP4 PUSH1 0x0 SWAP2 JUMPDEST DUP2 DUP4 LT PUSH2 0x2616 JUMPI POP POP PUSH2 0x25E9 SWAP4 POP DUP3 ADD ADD CODESIZE DUP1 PUSH2 0x25DB JUMP JUMPDEST DUP6 SLOAD DUP9 DUP5 ADD DUP6 ADD MSTORE SWAP5 DUP6 ADD SWAP5 DUP8 SWAP5 POP SWAP2 DUP4 ADD SWAP2 PUSH2 0x25FE JUMP JUMPDEST SWAP2 POP POP PUSH2 0x25E9 SWAP5 POP PUSH1 0x20 SWAP3 POP PUSH1 0xFF NOT AND DUP3 DUP5 ADD MSTORE ISZERO ISZERO PUSH1 0x5 SHL DUP3 ADD ADD CODESIZE DUP1 PUSH2 0x25DB JUMP JUMPDEST CALLER PUSH1 0x0 SWAP1 DUP2 MSTORE PUSH32 0xE5EBFA64FCA8D502A8E50C1EDFFD2C31EF4DAD5B396E65D9F397FB028F74ABC5 PUSH1 0x20 MSTORE PUSH1 0x40 SWAP1 KECCAK256 SLOAD PUSH1 0x0 DUP1 MLOAD PUSH1 0x20 PUSH2 0x2F63 DUP4 CODECOPY DUP2 MLOAD SWAP2 MSTORE SWAP1 PUSH1 0xFF AND ISZERO PUSH2 0x207D JUMPI POP JUMP JUMPDEST DUP1 PUSH1 0x0 MSTORE PUSH1 0x2 PUSH1 0x20 MSTORE PUSH1 0x40 PUSH1 0x0 KECCAK256 CALLER PUSH1 0x0 MSTORE PUSH1 0x20 MSTORE PUSH1 0xFF PUSH1 0x40 PUSH1 0x0 KECCAK256 SLOAD AND ISZERO PUSH2 0x207D JUMPI POP JUMP JUMPDEST PUSH1 0x1 PUSH1 0x1 PUSH1 0xA0 SHL SUB AND PUSH1 0x0 DUP2 DUP2 MSTORE PUSH32 0xE5EBFA64FCA8D502A8E50C1EDFFD2C31EF4DAD5B396E65D9F397FB028F74ABC5 PUSH1 0x20 MSTORE PUSH1 0x40 DUP2 KECCAK256 SLOAD SWAP1 SWAP2 SWAP1 PUSH1 0x0 DUP1 MLOAD PUSH1 0x20 PUSH2 0x2F63 DUP4 CODECOPY DUP2 MLOAD SWAP2 MSTORE SWAP1 PUSH1 0xFF AND PUSH2 0x275D JUMPI DUP1 DUP4 MSTORE PUSH1 0x2 PUSH1 0x20 MSTORE PUSH1 0x40 DUP4 KECCAK256 DUP3 DUP5 MSTORE PUSH1 0x20 MSTORE PUSH1 0x40 DUP4 KECCAK256 PUSH1 0x1 PUSH1 0xFF NOT DUP3 SLOAD AND OR SWAP1 SSTORE PUSH32 0x2F8788117E7EFF1D82E926EC794901D17C78024A50270940304540A733656F0D CALLER SWAP4 DUP1 LOG4 PUSH1 0x1 SWAP1 JUMP JUMPDEST POP POP SWAP1 JUMP JUMPDEST PUSH1 0x1 PUSH1 0x1 PUSH1 0xA0 SHL SUB AND PUSH1 0x0 DUP2 DUP2 MSTORE PUSH32 0xB1EF985877D50D34E95C2AAF1C996731C63181754CD1CB73EEF00B96D479196E PUSH1 0x20 MSTORE PUSH1 0x40 DUP2 KECCAK256 SLOAD SWAP1 SWAP2 SWAP1 PUSH1 0x0 DUP1 MLOAD PUSH1 0x20 PUSH2 0x2F43 DUP4 CODECOPY DUP2 MLOAD SWAP2 MSTORE SWAP1 PUSH1 0xFF AND PUSH2 0x275D JUMPI DUP1 DUP4 MSTORE PUSH1 0x2 PUSH1 0x20 MSTORE PUSH1 0x40 DUP4 KECCAK256 DUP3 DUP5 MSTORE PUSH1 0x20 MSTORE PUSH1 0x40 DUP4 KECCAK256 PUSH1 0x1 PUSH1 0xFF NOT DUP3 SLOAD AND OR SWAP1 SSTORE PUSH32 0x2F8788117E7EFF1D82E926EC794901D17C78024A50270940304540A733656F0D CALLER SWAP4 DUP1 LOG4 PUSH1 0x1 SWAP1 JUMP JUMPDEST SWAP1 PUSH1 0x0 SWAP2 DUP1 DUP4 MSTORE PUSH1 0x2 PUSH1 0x20 MSTORE PUSH1 0x40 DUP4 KECCAK256 SWAP2 PUSH1 0x1 DUP1 PUSH1 0xA0 SHL SUB AND SWAP2 DUP3 DUP5 MSTORE PUSH1 0x20 MSTORE PUSH1 0xFF PUSH1 0x40 DUP5 KECCAK256 SLOAD AND ISZERO PUSH1 0x0 EQ PUSH2 0x275D JUMPI DUP1 DUP4 MSTORE PUSH1 0x2 PUSH1 0x20 MSTORE PUSH1 0x40 DUP4 KECCAK256 DUP3 DUP5 MSTORE PUSH1 0x20 MSTORE PUSH1 0x40 DUP4 KECCAK256 PUSH1 0x1 PUSH1 0xFF NOT DUP3 SLOAD AND OR SWAP1 SSTORE PUSH32 0x2F8788117E7EFF1D82E926EC794901D17C78024A50270940304540A733656F0D CALLER SWAP4 DUP1 LOG4 PUSH1 0x1 SWAP1 JUMP JUMPDEST PUSH1 0x1 PUSH1 0x1 PUSH1 0xA0 SHL SUB AND PUSH1 0x0 DUP2 DUP2 MSTORE PUSH32 0xB1EF985877D50D34E95C2AAF1C996731C63181754CD1CB73EEF00B96D479196E PUSH1 0x20 MSTORE PUSH1 0x40 DUP2 KECCAK256 SLOAD SWAP1 SWAP2 SWAP1 PUSH1 0x0 DUP1 MLOAD PUSH1 0x20 PUSH2 0x2F43 DUP4 CODECOPY DUP2 MLOAD SWAP2 MSTORE SWAP1 PUSH1 0xFF AND ISZERO PUSH2 0x275D JUMPI DUP1 DUP4 MSTORE PUSH1 0x2 PUSH1 0x20 MSTORE PUSH1 0x40 DUP4 KECCAK256 DUP3 DUP5 MSTORE PUSH1 0x20 MSTORE PUSH1 0x40 DUP4 KECCAK256 PUSH1 0xFF NOT DUP2 SLOAD AND SWAP1 SSTORE PUSH32 0xF6391F5C32D9C69D2A47EA670B442974B53935D1EDC7FD64EB21E047A839171B CALLER SWAP4 DUP1 LOG4 PUSH1 0x1 SWAP1 JUMP JUMPDEST SWAP1 PUSH1 0x0 SWAP2 DUP1 DUP4 MSTORE PUSH1 0x2 PUSH1 0x20 MSTORE PUSH1 0x40 DUP4 KECCAK256 SWAP2 PUSH1 0x1 DUP1 PUSH1 0xA0 SHL SUB AND SWAP2 DUP3 DUP5 MSTORE PUSH1 0x20 MSTORE PUSH1 0xFF PUSH1 0x40 DUP5 KECCAK256 SLOAD AND PUSH1 0x0 EQ PUSH2 0x275D JUMPI DUP1 DUP4 MSTORE PUSH1 0x2 PUSH1 0x20 MSTORE PUSH1 0x40 DUP4 KECCAK256 DUP3 DUP5 MSTORE PUSH1 0x20 MSTORE PUSH1 0x40 DUP4 KECCAK256 PUSH1 0xFF NOT DUP2 SLOAD AND SWAP1 SSTORE PUSH32 0xF6391F5C32D9C69D2A47EA670B442974B53935D1EDC7FD64EB21E047A839171B CALLER SWAP4 DUP1 LOG4 PUSH1 0x1 SWAP1 JUMP JUMPDEST PUSH1 0x3 SLOAD PUSH1 0x1 PUSH1 0x1 PUSH1 0xA0 SHL SUB AND CALLER SUB PUSH2 0x299E JUMPI JUMP JUMPDEST PUSH1 0x40 MLOAD PUSH4 0x118CDAA7 PUSH1 0xE0 SHL DUP2 MSTORE CALLER PUSH1 0x4 DUP3 ADD MSTORE PUSH1 0x24 SWAP1 REVERT JUMPDEST ISZERO PUSH2 0x29BD JUMPI JUMP JUMPDEST PUSH1 0x40 MLOAD PUSH3 0x461BCD PUSH1 0xE5 SHL DUP2 MSTORE PUSH1 0x20 PUSH1 0x4 DUP3 ADD MSTORE PUSH1 0x27 PUSH1 0x24 DUP3 ADD MSTORE PUSH32 0x456E6572677920616D6F756E74206D7573742062652067726561746572207468 PUSH1 0x44 DUP3 ADD MSTORE PUSH7 0x616E207A65726F PUSH1 0xC8 SHL PUSH1 0x64 DUP3 ADD MSTORE PUSH1 0x84 SWAP1 REVERT JUMPDEST ISZERO PUSH2 0x2A19 JUMPI JUMP JUMPDEST PUSH1 0x40 MLOAD PUSH3 0x461BCD PUSH1 0xE5 SHL DUP2 MSTORE PUSH1 0x20 PUSH1 0x4 DUP3 ADD MSTORE PUSH1 0x28 PUSH1 0x24 DUP3 ADD MSTORE PUSH32 0x50726963652070657220756E6974206D75737420626520677265617465722074 PUSH1 0x44 DUP3 ADD MSTORE PUSH8 0x68616E207A65726F PUSH1 0xC0 SHL PUSH1 0x64 DUP3 ADD MSTORE PUSH1 0x84 SWAP1 REVERT JUMPDEST ISZERO PUSH2 0x2A76 JUMPI JUMP JUMPDEST PUSH1 0x40 MLOAD PUSH3 0x461BCD PUSH1 0xE5 SHL DUP2 MSTORE PUSH1 0x20 PUSH1 0x4 DUP3 ADD MSTORE PUSH1 0x21 PUSH1 0x24 DUP3 ADD MSTORE PUSH32 0x456E642074696D65206D7573742062652061667465722073746172742074696D PUSH1 0x44 DUP3 ADD MSTORE PUSH1 0x65 PUSH1 0xF8 SHL PUSH1 0x64 DUP3 ADD MSTORE PUSH1 0x84 SWAP1 REVERT JUMPDEST ISZERO PUSH2 0x2ACC JUMPI JUMP JUMPDEST PUSH1 0x64 PUSH1 0x40 MLOAD PUSH3 0x461BCD PUSH1 0xE5 SHL DUP2 MSTORE PUSH1 0x20 PUSH1 0x4 DUP3 ADD MSTORE PUSH1 0x20 PUSH1 0x24 DUP3 ADD MSTORE PUSH32 0x53746172742074696D65206D75737420626520696E2074686520667574757265 PUSH1 0x44 DUP3 ADD MSTORE REVERT JUMPDEST DUP2 DUP2 MUL SWAP3 SWAP2 DUP2 ISZERO SWAP2 DUP5 DIV EQ OR ISZERO PUSH2 0x2B23 JUMPI JUMP JUMPDEST PUSH4 0x4E487B71 PUSH1 0xE0 SHL PUSH1 0x0 MSTORE PUSH1 0x11 PUSH1 0x4 MSTORE PUSH1 0x24 PUSH1 0x0 REVERT JUMPDEST DUP1 SLOAD SWAP1 PUSH1 0x1 PUSH1 0x40 SHL DUP3 LT ISZERO PUSH2 0x568 JUMPI DUP2 PUSH2 0x1A6A SWAP2 PUSH1 0x1 PUSH2 0x2B5B SWAP5 ADD DUP2 SSTORE PUSH2 0x2482 JUMP JUMPDEST SWAP1 SSTORE JUMP JUMPDEST PUSH1 0xFF PUSH1 0x1 SLOAD AND PUSH2 0x2B6B JUMPI JUMP JUMPDEST PUSH1 0x40 MLOAD PUSH4 0xD93C0665 PUSH1 0xE0 SHL DUP2 MSTORE PUSH1 0x4 SWAP1 REVERT JUMPDEST PUSH1 0x2 PUSH1 0x0 SLOAD EQ PUSH2 0x2B8E JUMPI PUSH1 0x2 PUSH1 0x0 SSTORE JUMP JUMPDEST PUSH1 0x40 MLOAD PUSH4 0x3EE5AEB5 PUSH1 0xE0 SHL DUP2 MSTORE PUSH1 0x4 SWAP1 REVERT JUMPDEST SWAP1 PUSH1 0x6 SLOAD PUSH1 0x0 NOT SWAP1 DUP2 DUP2 EQ PUSH2 0x2B23 JUMPI PUSH1 0x1 ADD SWAP1 DUP2 PUSH1 0x6 SSTORE NUMBER ADD SWAP1 NUMBER DUP3 GT PUSH2 0x2B23 JUMPI PUSH1 0x40 MLOAD SWAP3 PUSH1 0x20 DUP5 ADD SWAP5 PUSH1 0x1 PUSH1 0x1 PUSH1 0x60 SHL SUB NOT SWAP1 PUSH1 0x60 SHL AND DUP6 MSTORE TIMESTAMP PUSH1 0x34 DUP6 ADD MSTORE PUSH1 0x54 DUP5 ADD MSTORE PUSH1 0x74 DUP4 ADD MSTORE BLOCKHASH PUSH1 0x94 DUP3 ADD MSTORE PUSH1 0x94 DUP2 MSTORE PUSH1 0xC0 DUP2 ADD DUP2 DUP2 LT PUSH8 0xFFFFFFFFFFFFFFFF DUP3 GT OR PUSH2 0x568 JUMPI PUSH1 0x40 MSTORE MLOAD SWAP1 KECCAK256 SWAP1 JUMP JUMPDEST ISZERO PUSH2 0x2C1B JUMPI JUMP JUMPDEST PUSH1 0x40 MLOAD PUSH3 0x461BCD PUSH1 0xE5 SHL DUP2 MSTORE PUSH1 0x20 PUSH1 0x4 DUP3 ADD MSTORE PUSH1 0x14 PUSH1 0x24 DUP3 ADD MSTORE PUSH20 0x13D999995C88191BD95CC81B9BDD08195E1A5CDD PUSH1 0x62 SHL PUSH1 0x44 DUP3 ADD MSTORE PUSH1 0x64 SWAP1 REVERT JUMPDEST ISZERO PUSH2 0x2C5E JUMPI JUMP JUMPDEST PUSH1 0x40 MLOAD PUSH3 0x461BCD PUSH1 0xE5 SHL DUP2 MSTORE PUSH1 0x20 PUSH1 0x4 DUP3 ADD MSTORE PUSH1 0x1E PUSH1 0x24 DUP3 ADD MSTORE PUSH32 0x43616E6E6F7420616772656520746F20796F7572206F776E206F666665720000 PUSH1 0x44 DUP3 ADD MSTORE PUSH1 0x64 SWAP1 REVERT JUMPDEST PUSH1 0x0 SWAP1 DUP1 DUP3 MSTORE PUSH1 0xD PUSH1 0x20 MSTORE PUSH1 0x40 DUP3 KECCAK256 SLOAD PUSH1 0xC SLOAD SWAP1 PUSH1 0x0 NOT SWAP2 DUP3 DUP2 ADD SWAP1 DUP2 GT PUSH2 0x2D48 JUMPI DUP1 DUP3 SUB PUSH2 0x2D16 JUMPI JUMPDEST POP POP PUSH1 0xC SLOAD DUP1 ISZERO PUSH2 0x2D02 JUMPI DUP2 ADD SWAP1 PUSH2 0x2CE4 DUP3 PUSH2 0x244B JUMP JUMPDEST SWAP1 SWAP2 DUP3 SLOAD SWAP2 PUSH1 0x3 SHL SHL NOT AND SWAP1 SSTORE PUSH1 0xC SSTORE DUP2 MSTORE PUSH1 0xD PUSH1 0x20 MSTORE PUSH1 0x40 DUP2 KECCAK256 SSTORE JUMP JUMPDEST PUSH4 0x4E487B71 PUSH1 0xE0 SHL DUP5 MSTORE PUSH1 0x31 PUSH1 0x4 MSTORE PUSH1 0x24 DUP5 REVERT JUMPDEST PUSH2 0x2D1F SWAP1 PUSH2 0x244B JUMP JUMPDEST SWAP1 SLOAD SWAP1 PUSH1 0x3 SHL SHR DUP1 PUSH2 0x2D33 PUSH2 0x1A6A DUP5 PUSH2 0x244B JUMP JUMPDEST SWAP1 SSTORE DUP5 MSTORE PUSH1 0xD PUSH1 0x20 MSTORE PUSH1 0x40 DUP5 KECCAK256 SSTORE CODESIZE DUP1 PUSH2 0x2CCD JUMP JUMPDEST PUSH4 0x4E487B71 PUSH1 0xE0 SHL DUP6 MSTORE PUSH1 0x11 PUSH1 0x4 MSTORE PUSH1 0x24 DUP6 REVERT JUMPDEST ISZERO PUSH2 0x2D63 JUMPI JUMP JUMPDEST PUSH1 0x40 MLOAD PUSH3 0x461BCD PUSH1 0xE5 SHL DUP2 MSTORE PUSH1 0x20 PUSH1 0x4 DUP3 ADD MSTORE PUSH1 0x18 PUSH1 0x24 DUP3 ADD MSTORE PUSH32 0x41677265656D656E7420646F6573206E6F742065786973740000000000000000 PUSH1 0x44 DUP3 ADD MSTORE PUSH1 0x64 SWAP1 REVERT JUMPDEST ISZERO PUSH2 0x2DAF JUMPI JUMP JUMPDEST PUSH1 0x40 MLOAD PUSH3 0x461BCD PUSH1 0xE5 SHL DUP2 MSTORE PUSH1 0x20 PUSH1 0x4 DUP3 ADD MSTORE PUSH1 0x17 PUSH1 0x24 DUP3 ADD MSTORE PUSH32 0x41677265656D656E74206973206E6F7420616374697665000000000000000000 PUSH1 0x44 DUP3 ADD MSTORE PUSH1 0x64 SWAP1 REVERT JUMPDEST PUSH1 0x0 DUP1 MLOAD PUSH1 0x20 PUSH2 0x2F23 DUP4 CODECOPY DUP2 MLOAD SWAP2 MSTORE PUSH1 0x20 PUSH1 0x0 SWAP3 DUP1 DUP5 MSTORE PUSH1 0x9 DUP3 MSTORE PUSH1 0x40 DUP5 KECCAK256 SWAP1 PUSH1 0x1 DUP3 ADD SWAP2 DUP3 SLOAD DUP7 MSTORE PUSH1 0x7 DUP5 MSTORE PUSH1 0x4 PUSH1 0x7 PUSH1 0x8 PUSH1 0x40 DUP10 KECCAK256 SWAP4 ADD SWAP3 PUSH1 0xFF NOT SWAP4 DUP5 DUP2 SLOAD AND SWAP1 SSTORE ADD SWAP2 DUP3 SLOAD AND OR SWAP1 SSTORE PUSH32 0xF19F756FF352A18AC12DE7527FE3ED4E8941B69EAEB0F360DFCA534224291F64 PUSH1 0x40 MLOAD SWAP6 DUP1 LOG2 SLOAD SWAP3 PUSH1 0x4 DUP2 MSTORE LOG2 JUMP JUMPDEST ISZERO PUSH2 0x2E77 JUMPI JUMP JUMPDEST PUSH1 0x40 MLOAD PUSH3 0x461BCD PUSH1 0xE5 SHL DUP2 MSTORE PUSH1 0x20 PUSH1 0x4 DUP3 ADD MSTORE PUSH1 0x16 PUSH1 0x24 DUP3 ADD MSTORE PUSH22 0x4F6E6C792062757965722063616E2064697370757465 PUSH1 0x50 SHL PUSH1 0x44 DUP3 ADD MSTORE PUSH1 0x64 SWAP1 REVERT JUMPDEST SWAP1 DUP1 PUSH1 0x20 SWAP4 SWAP3 DUP2 DUP5 MSTORE DUP5 DUP5 ADD CALLDATACOPY PUSH1 0x0 DUP3 DUP3 ADD DUP5 ADD MSTORE PUSH1 0x1F ADD PUSH1 0x1F NOT AND ADD ADD SWAP1 JUMP JUMPDEST ISZERO PUSH2 0x2EDD JUMPI JUMP JUMPDEST PUSH1 0x40 MLOAD PUSH3 0x461BCD PUSH1 0xE5 SHL DUP2 MSTORE PUSH1 0x20 PUSH1 0x4 DUP3 ADD MSTORE PUSH1 0x1A PUSH1 0x24 DUP3 ADD MSTORE PUSH32 0x4D696C6573746F6E65206E6F74207265706F7274656420796574000000000000 PUSH1 0x44 DUP3 ADD MSTORE PUSH1 0x64 SWAP1 REVERT INVALID CREATE2 0xFB 0xB8 SWAP2 DUP5 SWAP2 0xC6 PUSH4 0x48A8751A LOG1 0xDE 0x27 DUP6 POP 0xED 0xC PUSH14 0xDE1B2026A7873D90411645E471F3 0xD5 PC JUMP 0xE4 SDIV DUP15 0xD0 PUSH15 0xE057D79ADA615F65CDF5F9EE88181B SWAP2 TIMESTAMP 0x25 ADDMOD DUP16 DUP4 0x4F LOG4 SWAP9 SMOD KECCAK256 0x5C 0xE4 0xD3 SSTORE MULMOD 0x2E CREATE2 0xA8 LOG1 DUP16 JUMP 0xE8 SWAP2 EXTCODECOPY DELEGATECALL LOG2 ADD 0xFB 0xE2 DUP8 DUP3 JUMPDEST MULMOD JUMP SWAP4 0xC2 OR PUSH22 0xA2646970667358221220AA1647A9222FF09E44E259CB 0xE8 MUL SSTORE CREATE2 0x2A 0xDE 0x2E 0x2D PUSH31 0xB124DEFE18AFB83C26E53964736F6C634300081400336080346100F857601F PUSH2 0x1125 CODESIZE DUP2 SWAP1 SUB SWAP2 DUP3 ADD PUSH1 0x1F NOT AND DUP4 ADD SWAP2 PUSH1 0x1 PUSH1 0x1 PUSH1 0x40 SHL SUB DUP4 GT DUP5 DUP5 LT OR PUSH2 0xFD JUMPI DUP1 DUP5 SWAP3 PUSH1 0x20 SWAP5 PUSH1 0x40 MSTORE DUP4 CODECOPY DUP2 ADD SUB SLT PUSH2 0xF8 JUMPI MLOAD PUSH1 0x1 PUSH1 0x1 PUSH1 0xA0 SHL SUB SWAP1 DUP2 DUP2 AND SWAP1 DUP2 SWAP1 SUB PUSH2 0xF8 JUMPI PUSH1 0x1 PUSH1 0x0 SSTORE PUSH1 0x1 SLOAD CALLER ISZERO PUSH2 0xDF JUMPI PUSH1 0x1 PUSH1 0x1 PUSH1 0xA8 SHL SUB NOT DUP2 AND CALLER PUSH1 0x8 DUP2 DUP2 SHL PUSH2 0x100 PUSH1 0x1 PUSH1 0xA8 SHL SUB AND SWAP3 SWAP1 SWAP3 OR PUSH1 0x1 SSTORE PUSH1 0x40 MLOAD SWAP5 SWAP1 SWAP3 SWAP1 SWAP2 SHR AND PUSH32 0x8BE0079C531659141344CD1FD0A4F28419497F9722A3DAAFE3B4186F6B6457E0 PUSH1 0x0 DUP1 LOG3 PUSH1 0x0 PUSH1 0x3 SSTORE PUSH1 0x1 DUP1 PUSH1 0xA0 SHL SUB NOT SWAP1 DUP2 PUSH1 0x2 SLOAD AND OR PUSH1 0x2 SSTORE CALLER SWAP1 PUSH1 0x5 SLOAD AND OR PUSH1 0x5 SSTORE PUSH2 0x1011 SWAP1 DUP2 PUSH2 0x114 DUP3 CODECOPY RETURN JUMPDEST PUSH1 0x40 MLOAD PUSH4 0x1E4FBDF7 PUSH1 0xE0 SHL DUP2 MSTORE PUSH1 0x0 PUSH1 0x4 DUP3 ADD MSTORE PUSH1 0x24 SWAP1 REVERT JUMPDEST PUSH1 0x0 DUP1 REVERT JUMPDEST PUSH4 0x4E487B71 PUSH1 0xE0 SHL PUSH1 0x0 MSTORE PUSH1 0x41 PUSH1 0x4 MSTORE PUSH1 0x24 PUSH1 0x0 REVERT INVALID PUSH1 0x80 PUSH1 0x40 DUP2 DUP2 MSTORE PUSH1 0x4 DUP1 CALLDATASIZE LT ISZERO PUSH2 0x15 JUMPI PUSH1 0x0 DUP1 REVERT JUMPDEST PUSH1 0x0 SWAP3 DUP4 CALLDATALOAD PUSH1 0xE0 SHR SWAP1 DUP2 PUSH4 0x2D83549C EQ PUSH2 0xD3B JUMPI POP DUP1 PUSH4 0x3F4BA83A EQ PUSH2 0xCD2 JUMPI DUP1 PUSH4 0x4EC7FB81 EQ PUSH2 0xCA9 JUMPI DUP1 PUSH4 0x51A89CE8 EQ PUSH2 0xC2D JUMPI DUP1 PUSH4 0x5C975ABB EQ PUSH2 0xC09 JUMPI DUP1 PUSH4 0x5D655FB1 EQ PUSH2 0x8F4 JUMPI DUP1 PUSH4 0x6789F9CB EQ PUSH2 0x75B JUMPI DUP1 PUSH4 0x6C459681 EQ PUSH2 0x71C JUMPI DUP1 PUSH4 0x715018A6 EQ PUSH2 0x6BB JUMPI DUP1 PUSH4 0x8456CB59 EQ PUSH2 0x661 JUMPI DUP1 PUSH4 0x8DA5CB5B EQ PUSH2 0x634 JUMPI DUP1 PUSH4 0xB9A7579B EQ PUSH2 0x4CE JUMPI DUP1 PUSH4 0xCCBAE5F6 EQ PUSH2 0x337 JUMPI DUP1 PUSH4 0xD1BB5CF1 EQ PUSH2 0x30A JUMPI DUP1 PUSH4 0xE63EA408 EQ PUSH2 0x20A JUMPI DUP1 PUSH4 0xF2FDE38B EQ PUSH2 0x16E JUMPI PUSH4 0xF49A52AA EQ PUSH2 0xDE JUMPI PUSH1 0x0 DUP1 REVERT JUMPDEST CALLVALUE PUSH2 0x16A JUMPI PUSH1 0x20 CALLDATASIZE PUSH1 0x3 NOT ADD SLT PUSH2 0x16A JUMPI PUSH2 0xF7 PUSH2 0xDD8 JUMP JUMPDEST PUSH2 0xFF PUSH2 0xE04 JUMP JUMPDEST PUSH1 0x1 PUSH1 0x1 PUSH1 0xA0 SHL SUB AND SWAP2 DUP3 ISZERO PUSH2 0x127 JUMPI POP POP PUSH1 0x1 PUSH1 0x1 PUSH1 0x60 SHL SUB PUSH1 0xA0 SHL PUSH1 0x5 SLOAD AND OR PUSH1 0x5 SSTORE DUP1 RETURN JUMPDEST SWAP1 PUSH1 0x20 PUSH1 0x64 SWAP3 MLOAD SWAP2 PUSH3 0x461BCD PUSH1 0xE5 SHL DUP4 MSTORE DUP3 ADD MSTORE PUSH1 0x1B PUSH1 0x24 DUP3 ADD MSTORE PUSH32 0x496E76616C6964206D61726B6574706C61636520616464726573730000000000 PUSH1 0x44 DUP3 ADD MSTORE REVERT JUMPDEST DUP3 DUP1 REVERT JUMPDEST POP CALLVALUE PUSH2 0x16A JUMPI PUSH1 0x20 CALLDATASIZE PUSH1 0x3 NOT ADD SLT PUSH2 0x16A JUMPI PUSH2 0x188 PUSH2 0xDD8 JUMP JUMPDEST PUSH2 0x190 PUSH2 0xE04 JUMP JUMPDEST PUSH1 0x1 PUSH1 0x1 PUSH1 0xA0 SHL SUB DUP2 DUP2 AND SWAP4 SWAP1 SWAP3 SWAP1 DUP5 ISZERO PUSH2 0x1F4 JUMPI POP POP PUSH1 0x1 DUP1 SLOAD PUSH2 0x100 PUSH1 0x1 PUSH1 0xA8 SHL SUB NOT DUP2 AND PUSH1 0x8 SWAP4 DUP5 SHL PUSH2 0x100 PUSH1 0x1 PUSH1 0xA8 SHL SUB AND OR SWAP1 SWAP2 SSTORE SWAP1 SHR AND PUSH32 0x8BE0079C531659141344CD1FD0A4F28419497F9722A3DAAFE3B4186F6B6457E0 DUP4 DUP1 LOG3 DUP1 RETURN JUMPDEST MLOAD PUSH4 0x1E4FBDF7 PUSH1 0xE0 SHL DUP2 MSTORE SWAP1 DUP2 ADD DUP6 SWAP1 MSTORE PUSH1 0x24 SWAP1 REVERT JUMPDEST POP CALLVALUE PUSH2 0x16A JUMPI PUSH1 0x60 CALLDATASIZE PUSH1 0x3 NOT ADD SLT PUSH2 0x16A JUMPI PUSH2 0x224 PUSH2 0xDD8 JUMP JUMPDEST PUSH2 0x22C PUSH2 0xDEE JUMP JUMPDEST PUSH2 0x234 PUSH2 0xE04 JUMP JUMPDEST PUSH1 0x1 PUSH1 0x1 PUSH1 0xA0 SHL SUB DUP2 DUP2 AND ISZERO PUSH2 0x2C7 JUMPI DUP5 MLOAD PUSH4 0xA9059CBB PUSH1 0xE0 SHL DUP2 MSTORE PUSH1 0x1 PUSH1 0x1 PUSH1 0xA0 SHL SUB SWAP3 SWAP1 SWAP3 AND SWAP4 DUP3 ADD SWAP4 DUP5 MSTORE PUSH1 0x44 CALLDATALOAD PUSH1 0x20 DUP1 DUP7 ADD SWAP2 SWAP1 SWAP2 MSTORE SWAP2 SWAP5 SWAP4 SWAP2 SWAP3 DUP6 SWAP3 DUP4 SWAP1 SUB PUSH1 0x40 ADD SWAP2 DUP4 SWAP2 DUP9 SWAP2 AND GAS CALL SWAP1 DUP2 ISZERO PUSH2 0x2BE JUMPI POP PUSH2 0x293 JUMPI POP DUP1 RETURN JUMPDEST PUSH2 0x2B3 SWAP1 PUSH1 0x20 RETURNDATASIZE DUP2 GT PUSH2 0x2B7 JUMPI JUMPDEST PUSH2 0x2AB DUP2 DUP4 PUSH2 0xEC0 JUMP JUMPDEST DUP2 ADD SWAP1 PUSH2 0xF7F JUMP JUMPDEST POP DUP1 RETURN JUMPDEST POP RETURNDATASIZE PUSH2 0x2A1 JUMP JUMPDEST MLOAD RETURNDATASIZE DUP5 DUP3 RETURNDATACOPY RETURNDATASIZE SWAP1 REVERT JUMPDEST DUP5 MLOAD PUSH3 0x461BCD PUSH1 0xE5 SHL DUP2 MSTORE PUSH1 0x20 DUP2 DUP7 ADD MSTORE PUSH1 0x1F PUSH1 0x24 DUP3 ADD MSTORE PUSH32 0x43616E6E6F7420776974686472617720746F207A65726F206164647265737300 PUSH1 0x44 DUP3 ADD MSTORE PUSH1 0x64 SWAP1 REVERT JUMPDEST POP POP CALLVALUE PUSH2 0x333 JUMPI DUP2 PUSH1 0x3 NOT CALLDATASIZE ADD SLT PUSH2 0x333 JUMPI PUSH1 0x5 SLOAD SWAP1 MLOAD PUSH1 0x1 PUSH1 0x1 PUSH1 0xA0 SHL SUB SWAP1 SWAP2 AND DUP2 MSTORE PUSH1 0x20 SWAP1 RETURN JUMPDEST POP DUP1 REVERT JUMPDEST POP SWAP2 CALLVALUE PUSH2 0x4CB JUMPI PUSH1 0x80 CALLDATASIZE PUSH1 0x3 NOT ADD SLT PUSH2 0x4CB JUMPI PUSH2 0x352 PUSH2 0xDD8 JUMP JUMPDEST SWAP3 PUSH2 0x35B PUSH2 0xDEE JUMP JUMPDEST SWAP4 PUSH1 0x44 CALLDATALOAD PUSH1 0x64 CALLDATALOAD SWAP6 PUSH1 0x1 DUP1 PUSH1 0xA0 SHL SUB PUSH2 0x379 DUP2 PUSH1 0x5 SLOAD AND CALLER EQ PUSH2 0xE33 JUMP JUMPDEST PUSH2 0x381 PUSH2 0xE7F JUMP JUMPDEST PUSH2 0x389 PUSH2 0xE9D JUMP JUMPDEST PUSH1 0x3 SLOAD PUSH1 0x0 NOT SWAP4 SWAP1 DUP5 DUP2 EQ PUSH2 0x4B8 JUMPI PUSH1 0x1 ADD SWAP4 DUP5 PUSH1 0x3 SSTORE NUMBER ADD NUMBER DUP2 GT PUSH2 0x4B8 JUMPI DUP9 MLOAD SWAP5 PUSH1 0x20 DUP7 ADD SWAP7 DUP5 DUP2 AND SWAP5 PUSH1 0x1 PUSH1 0x1 PUSH1 0x60 SHL SUB NOT DUP1 SWAP3 PUSH1 0x60 SHL AND DUP10 MSTORE DUP7 AND SWAP6 PUSH1 0x60 SHL AND PUSH1 0x34 DUP8 ADD MSTORE TIMESTAMP PUSH1 0x48 DUP8 ADD MSTORE DUP3 PUSH1 0x68 DUP8 ADD MSTORE PUSH1 0x88 DUP7 ADD MSTORE BLOCKHASH PUSH1 0xA8 DUP6 ADD MSTORE PUSH1 0xA8 DUP5 MSTORE PUSH1 0xE0 DUP5 ADD SWAP5 DUP5 DUP7 LT PUSH8 0xFFFFFFFFFFFFFFFF DUP8 GT OR PUSH2 0x4A5 JUMPI SWAP1 DUP10 SWAP5 SWAP4 SWAP3 SWAP2 DUP7 DUP11 MSTORE DUP5 MLOAD SWAP1 KECCAK256 SWAP10 DUP11 SWAP8 DUP9 DUP11 MSTORE DUP1 PUSH1 0x20 MSTORE DUP11 DUP11 KECCAK256 SWAP3 DUP10 DUP5 SSTORE PUSH1 0x1 DUP5 ADD PUSH1 0x1 PUSH1 0x1 PUSH1 0x60 SHL SUB PUSH1 0xA0 SHL SWAP1 DUP7 DUP3 DUP3 SLOAD AND OR SWAP1 SSTORE DUP7 PUSH1 0x2 DUP7 ADD SWAP2 DUP3 SLOAD AND OR SWAP1 SSTORE PUSH1 0x3 DUP5 ADD SSTORE DUP3 ADD SSTORE DUP8 PUSH1 0x5 DUP3 ADD SSTORE TIMESTAMP PUSH1 0x6 DUP3 ADD SSTORE PUSH1 0x7 ADD PUSH1 0xFF NOT DUP2 SLOAD AND SWAP1 SSTORE DUP5 MSTORE PUSH2 0x100 DUP3 ADD MSTORE PUSH2 0x120 ADD MSTORE PUSH1 0x60 PUSH32 0xDD968C277D9DC6B36B6EC2B638324C3D937882C64CA109440BC050EBF26CB07 SWAP2 LOG2 PUSH1 0x1 SWAP1 SSTORE MLOAD SWAP1 DUP2 MSTORE PUSH1 0x20 SWAP1 RETURN JUMPDEST PUSH4 0x4E487B71 PUSH1 0xE0 SHL DUP9 MSTORE PUSH1 0x41 DUP8 MSTORE PUSH1 0x24 DUP9 REVERT JUMPDEST PUSH4 0x4E487B71 PUSH1 0xE0 SHL DUP9 MSTORE PUSH1 0x11 DUP8 MSTORE PUSH1 0x24 DUP9 REVERT JUMPDEST DUP1 REVERT JUMPDEST POP CALLVALUE PUSH2 0x16A JUMPI PUSH1 0x20 DUP1 PUSH1 0x3 NOT CALLDATASIZE ADD SLT PUSH2 0x630 JUMPI PUSH1 0x5 SLOAD DUP3 CALLDATALOAD SWAP3 PUSH1 0x1 PUSH1 0x1 PUSH1 0xA0 SHL SUB SWAP2 PUSH2 0x4FD SWAP1 DUP4 AND CALLER EQ PUSH2 0xE33 JUMP JUMPDEST PUSH2 0x505 PUSH2 0xE7F JUMP JUMPDEST PUSH2 0x50D PUSH2 0xE9D JUMP JUMPDEST DUP4 DUP7 MSTORE DUP1 DUP4 MSTORE DUP5 DUP7 KECCAK256 SWAP2 PUSH2 0x523 DUP6 DUP5 SLOAD EQ PUSH2 0xEF8 JUMP JUMPDEST PUSH1 0x7 DUP4 ADD SWAP3 DUP4 SLOAD SWAP4 PUSH2 0x537 PUSH1 0xFF DUP7 AND PUSH2 0xF3C JUMP JUMPDEST DUP4 DUP3 ADD SLOAD PUSH1 0x5 DUP4 ADD SLOAD SWAP2 DUP3 DUP3 SUB SWAP7 DUP3 DUP9 GT PUSH2 0x61D JUMPI PUSH1 0xFF NOT AND SWAP1 SSTORE DUP10 SWAP4 SWAP3 SWAP2 SWAP1 SUB PUSH2 0x565 JUMPI JUMPDEST DUP3 PUSH1 0x1 DUP2 SSTORE DUP1 RETURN JUMPDEST PUSH1 0x2 SLOAD PUSH1 0x1 SWAP2 SWAP1 SWAP2 ADD SLOAD DUP9 MLOAD PUSH4 0xA9059CBB PUSH1 0xE0 SHL DUP2 MSTORE SWAP1 DUP4 AND PUSH1 0x1 PUSH1 0x1 PUSH1 0xA0 SHL SUB AND SWAP5 DUP2 ADD SWAP5 DUP6 MSTORE PUSH1 0x20 DUP6 ADD DUP7 SWAP1 MSTORE SWAP4 DUP7 SWAP4 DUP6 SWAP4 SWAP1 SWAP3 AND SWAP2 DUP4 SWAP2 DUP3 SWAP1 PUSH1 0x40 ADD SUB SWAP3 GAS CALL SWAP1 DUP2 ISZERO PUSH2 0x613 JUMPI PUSH32 0x21CABC2FFF910E5AFD1E2BCB22FF2B165A41AB0AFBAF364F07AAF2F7787FB908 SWAP5 SWAP6 SWAP2 PUSH2 0x5E4 SWAP2 DUP9 SWAP2 PUSH2 0x5F6 JUMPI JUMPDEST POP PUSH2 0xF97 JUMP JUMPDEST MLOAD SWAP1 DUP2 MSTORE LOG2 CODESIZE DUP1 DUP1 DUP1 DUP1 DUP6 DUP2 DUP1 PUSH2 0x55D JUMP JUMPDEST PUSH2 0x60D SWAP2 POP DUP6 RETURNDATASIZE DUP8 GT PUSH2 0x2B7 JUMPI PUSH2 0x2AB DUP2 DUP4 PUSH2 0xEC0 JUMP JUMPDEST CODESIZE PUSH2 0x5DE JUMP JUMPDEST DUP6 MLOAD RETURNDATASIZE DUP9 DUP3 RETURNDATACOPY RETURNDATASIZE SWAP1 REVERT JUMPDEST PUSH4 0x4E487B71 PUSH1 0xE0 SHL DUP13 MSTORE PUSH1 0x11 DUP8 MSTORE PUSH1 0x24 DUP13 REVERT JUMPDEST DUP4 DUP1 REVERT JUMPDEST POP POP CALLVALUE PUSH2 0x333 JUMPI DUP2 PUSH1 0x3 NOT CALLDATASIZE ADD SLT PUSH2 0x333 JUMPI PUSH1 0x1 SLOAD SWAP1 MLOAD PUSH1 0x8 SWAP2 SWAP1 SWAP2 SHR PUSH1 0x1 PUSH1 0x1 PUSH1 0xA0 SHL SUB AND DUP2 MSTORE PUSH1 0x20 SWAP1 RETURN JUMPDEST POP POP CALLVALUE PUSH2 0x333 JUMPI DUP2 PUSH1 0x3 NOT CALLDATASIZE ADD SLT PUSH2 0x333 JUMPI PUSH1 0x20 PUSH32 0x62E78CEA01BEE320CD4E420270B5EA74000D11B0C9F74754EBDBFC544B05A258 SWAP2 PUSH2 0x69F PUSH2 0xE04 JUMP JUMPDEST PUSH2 0x6A7 PUSH2 0xE7F JUMP JUMPDEST PUSH1 0x1 PUSH1 0xFF NOT DUP2 SLOAD AND OR PUSH1 0x1 SSTORE MLOAD CALLER DUP2 MSTORE LOG1 DUP1 RETURN JUMPDEST DUP4 CALLVALUE PUSH2 0x4CB JUMPI DUP1 PUSH1 0x3 NOT CALLDATASIZE ADD SLT PUSH2 0x4CB JUMPI PUSH2 0x6D4 PUSH2 0xE04 JUMP JUMPDEST PUSH1 0x1 DUP1 SLOAD PUSH2 0x100 PUSH1 0x1 PUSH1 0xA8 SHL SUB NOT DUP2 AND SWAP1 SWAP2 SSTORE DUP2 SWAP1 PUSH1 0x8 SHR PUSH1 0x1 PUSH1 0x1 PUSH1 0xA0 SHL SUB AND PUSH32 0x8BE0079C531659141344CD1FD0A4F28419497F9722A3DAAFE3B4186F6B6457E0 DUP3 DUP1 LOG3 DUP1 RETURN JUMPDEST POP CALLVALUE PUSH2 0x16A JUMPI DUP2 PUSH1 0x20 SWAP4 PUSH1 0x8 PUSH1 0xFF SWAP4 PUSH2 0x734 CALLDATASIZE PUSH2 0xDBD JUMP JUMPDEST SWAP1 SWAP2 DUP3 DUP6 MSTORE DUP9 MSTORE PUSH2 0x74A DUP6 DUP6 KECCAK256 SWAP3 DUP4 SLOAD EQ PUSH2 0xEF8 JUMP JUMPDEST DUP4 MSTORE ADD DUP6 MSTORE KECCAK256 SLOAD AND SWAP1 MLOAD SWAP1 ISZERO ISZERO DUP2 MSTORE RETURN JUMPDEST POP SWAP1 CALLVALUE PUSH2 0x16A JUMPI PUSH1 0x20 DUP1 PUSH1 0x3 NOT CALLDATASIZE ADD SLT PUSH2 0x630 JUMPI DUP3 CALLDATALOAD SWAP3 PUSH1 0x1 DUP1 PUSH1 0xA0 SHL SUB SWAP2 PUSH2 0x789 DUP4 PUSH1 0x5 SLOAD AND CALLER EQ PUSH2 0xE33 JUMP JUMPDEST PUSH2 0x791 PUSH2 0xE7F JUMP JUMPDEST PUSH2 0x799 PUSH2 0xE9D JUMP JUMPDEST DUP5 DUP7 MSTORE DUP2 DUP2 MSTORE DUP4 DUP7 KECCAK256 SWAP4 PUSH2 0x7AF DUP7 DUP7 SLOAD EQ PUSH2 0xEF8 JUMP JUMPDEST PUSH1 0x7 DUP6 ADD SWAP5 DUP6 SLOAD SWAP5 PUSH1 0xFF DUP7 AND PUSH2 0x8B1 JUMPI SWAP1 DUP4 PUSH1 0x24 SWAP3 PUSH1 0x2 SLOAD AND DUP5 MLOAD SWAP4 DUP5 DUP1 SWAP3 PUSH4 0x70A08231 PUSH1 0xE0 SHL DUP3 MSTORE ADDRESS DUP11 DUP4 ADD MSTORE GAS STATICCALL SWAP2 DUP3 ISZERO PUSH2 0x8A7 JUMPI SWAP1 DUP6 SWAP2 DUP11 SWAP4 PUSH2 0x870 JUMPI JUMPDEST POP ADD SLOAD GT PUSH2 0x82F JUMPI POP POP POP PUSH1 0xFF NOT AND PUSH1 0x1 OR SWAP1 SSTORE PUSH32 0xB01718CC2FEF93A8279B929CECA602BDA7D1D2D9253D23C1CAFE4B5AC2092BA4 DUP3 DUP1 LOG2 PUSH1 0x1 DUP2 SSTORE DUP1 RETURN JUMPDEST MLOAD PUSH3 0x461BCD PUSH1 0xE5 SHL DUP2 MSTORE SWAP2 DUP3 ADD MSTORE PUSH1 0x1B PUSH1 0x24 DUP3 ADD MSTORE PUSH32 0x496E73756666696369656E742066756E64732072656365697665640000000000 PUSH1 0x44 DUP3 ADD MSTORE PUSH1 0x64 SWAP2 POP REVERT JUMPDEST DUP6 DUP1 SWAP3 SWAP5 POP DUP2 SWAP4 POP RETURNDATASIZE DUP4 GT PUSH2 0x8A0 JUMPI JUMPDEST PUSH2 0x88A DUP2 DUP4 PUSH2 0xEC0 JUMP JUMPDEST DUP2 ADD SUB SLT PUSH2 0x89C JUMPI DUP5 SWAP1 MLOAD SWAP2 CODESIZE PUSH2 0x7F0 JUMP JUMPDEST DUP9 DUP1 REVERT JUMPDEST POP RETURNDATASIZE PUSH2 0x880 JUMP JUMPDEST DUP4 MLOAD RETURNDATASIZE DUP12 DUP3 RETURNDATACOPY RETURNDATASIZE SWAP1 REVERT JUMPDEST POP POP MLOAD PUSH3 0x461BCD PUSH1 0xE5 SHL DUP2 MSTORE SWAP2 DUP3 ADD MSTORE PUSH1 0x18 PUSH1 0x24 DUP3 ADD MSTORE PUSH32 0x457363726F7720697320616C7265616479206163746976650000000000000000 PUSH1 0x44 DUP3 ADD MSTORE PUSH1 0x64 SWAP2 POP REVERT JUMPDEST POP CALLVALUE PUSH2 0x16A JUMPI PUSH2 0x903 CALLDATASIZE PUSH2 0xDBD JUMP JUMPDEST PUSH1 0x5 SLOAD SWAP2 SWAP4 PUSH1 0x1 PUSH1 0x1 PUSH1 0xA0 SHL SUB SWAP3 PUSH2 0x91E SWAP1 DUP5 AND CALLER EQ PUSH2 0xE33 JUMP JUMPDEST PUSH2 0x926 PUSH2 0xE7F JUMP JUMPDEST PUSH2 0x92E PUSH2 0xE9D JUMP JUMPDEST DUP5 DUP7 MSTORE PUSH1 0x20 DUP5 DUP2 MSTORE DUP2 DUP8 KECCAK256 SWAP5 PUSH2 0x946 DUP8 DUP8 SLOAD EQ PUSH2 0xEF8 JUMP JUMPDEST PUSH1 0x7 DUP7 ADD SWAP6 PUSH2 0x958 PUSH1 0xFF DUP9 SLOAD AND PUSH2 0xF3C JUMP JUMPDEST PUSH1 0x19 DUP6 EQ DUP1 ISZERO PUSH2 0xBFF JUMPI JUMPDEST DUP1 ISZERO PUSH2 0xBF5 JUMPI JUMPDEST DUP1 ISZERO PUSH2 0xBEB JUMPI JUMPDEST ISZERO PUSH2 0xB9B JUMPI PUSH1 0x8 DUP2 ADD SWAP2 DUP6 DUP11 MSTORE DUP3 DUP5 MSTORE PUSH1 0xFF DUP6 DUP12 KECCAK256 SLOAD AND PUSH2 0xB47 JUMPI PUSH1 0x19 DUP7 GT PUSH2 0xAC4 JUMPI JUMPDEST DUP1 DUP3 ADD SLOAD PUSH1 0x2 SHR SWAP3 DUP7 DUP12 MSTORE DUP5 MSTORE DUP5 DUP11 KECCAK256 SWAP7 PUSH1 0xFF NOT SWAP8 PUSH1 0x1 DUP10 DUP3 SLOAD AND OR SWAP1 SSTORE PUSH1 0x5 DUP4 ADD DUP1 SLOAD SWAP1 DUP6 DUP3 ADD DUP1 SWAP3 GT PUSH2 0xAB1 JUMPI SSTORE PUSH1 0x2 DUP1 SLOAD SWAP4 ADD SLOAD DUP7 MLOAD PUSH4 0xA9059CBB PUSH1 0xE0 SHL DUP2 MSTORE SWAP1 DUP3 AND PUSH1 0x1 PUSH1 0x1 PUSH1 0xA0 SHL SUB AND SWAP3 DUP2 ADD SWAP3 DUP4 MSTORE PUSH1 0x20 DUP4 ADD DUP6 SWAP1 MSTORE SWAP3 DUP6 SWAP3 DUP5 SWAP3 SWAP1 SWAP2 AND SWAP1 DUP3 SWAP1 DUP14 SWAP1 DUP3 SWAP1 PUSH1 0x40 ADD SUB SWAP3 GAS CALL SWAP1 DUP2 ISZERO PUSH2 0xAA7 JUMPI SWAP3 PUSH32 0x75BE8D7515237236CFB3E6C6AA6F74FB8DD8DB900B6F433310F89D497092D78F SWAP3 PUSH2 0xA47 PUSH1 0x64 SWAP8 SWAP7 SWAP4 DUP12 SWAP7 DUP14 SWAP2 PUSH2 0xA90 JUMPI POP PUSH2 0xF97 JUMP JUMPDEST DUP3 MLOAD SWAP2 DUP7 DUP4 MSTORE DUP3 ADD MSTORE LOG2 EQ PUSH2 0xA5F JUMPI JUMPDEST DUP4 PUSH1 0x1 DUP2 SSTORE DUP1 RETURN JUMPDEST DUP2 SLOAD AND SWAP1 SSTORE PUSH32 0xF13B3BFA8CD084CADAB3723A031C3F1C641CE6072626163D3100C1CD14C18A28 DUP3 DUP1 LOG2 CODESIZE DUP1 DUP1 PUSH2 0xA57 JUMP JUMPDEST PUSH2 0x60D SWAP2 POP DUP5 RETURNDATASIZE DUP7 GT PUSH2 0x2B7 JUMPI PUSH2 0x2AB DUP2 DUP4 PUSH2 0xEC0 JUMP JUMPDEST DUP5 MLOAD RETURNDATASIZE DUP12 DUP3 RETURNDATACOPY RETURNDATASIZE SWAP1 REVERT JUMPDEST PUSH4 0x4E487B71 PUSH1 0xE0 SHL DUP14 MSTORE PUSH1 0x11 DUP5 MSTORE PUSH1 0x24 DUP14 REVERT JUMPDEST PUSH1 0x18 NOT DUP7 ADD DUP7 DUP2 GT PUSH2 0xB34 JUMPI DUP11 MSTORE DUP3 DUP5 MSTORE PUSH1 0xFF DUP6 DUP12 KECCAK256 SLOAD AND PUSH2 0x995 JUMPI DUP5 MLOAD PUSH3 0x461BCD PUSH1 0xE5 SHL DUP2 MSTORE SWAP1 DUP2 ADD DUP5 SWAP1 MSTORE PUSH1 0x28 PUSH1 0x24 DUP3 ADD MSTORE PUSH32 0x50726576696F7573206D696C6573746F6E6520686173206E6F74206265656E20 PUSH1 0x44 DUP3 ADD MSTORE PUSH8 0x1C995B19585CD959 PUSH1 0xC2 SHL PUSH1 0x64 DUP3 ADD MSTORE PUSH1 0x84 SWAP1 REVERT JUMPDEST PUSH4 0x4E487B71 PUSH1 0xE0 SHL DUP12 MSTORE PUSH1 0x11 DUP3 MSTORE PUSH1 0x24 DUP12 REVERT JUMPDEST DUP5 MLOAD PUSH3 0x461BCD PUSH1 0xE5 SHL DUP2 MSTORE SWAP1 DUP2 ADD DUP5 SWAP1 MSTORE PUSH1 0x28 PUSH1 0x24 DUP3 ADD MSTORE PUSH32 0x54686973206D696C6573746F6E652068617320616C7265616479206265656E20 PUSH1 0x44 DUP3 ADD MSTORE PUSH8 0x1C995B19585CD959 PUSH1 0xC2 SHL PUSH1 0x64 DUP3 ADD MSTORE PUSH1 0x84 SWAP1 REVERT JUMPDEST POP SWAP2 MLOAD PUSH3 0x461BCD PUSH1 0xE5 SHL DUP2 MSTORE SWAP2 DUP3 ADD MSTORE PUSH1 0x25 PUSH1 0x24 DUP3 ADD MSTORE PUSH32 0x50657263656E74616765206D7573742062652032352C2035302C2037352C206F PUSH1 0x44 DUP3 ADD MSTORE PUSH5 0x722031303 PUSH1 0xDC SHL PUSH1 0x64 DUP3 ADD MSTORE PUSH1 0x84 SWAP1 REVERT JUMPDEST POP PUSH1 0x64 DUP6 EQ PUSH2 0x971 JUMP JUMPDEST POP PUSH1 0x4B DUP6 EQ PUSH2 0x96A JUMP JUMPDEST POP PUSH1 0x32 DUP6 EQ PUSH2 0x963 JUMP JUMPDEST POP POP CALLVALUE PUSH2 0x333 JUMPI DUP2 PUSH1 0x3 NOT CALLDATASIZE ADD SLT PUSH2 0x333 JUMPI PUSH1 0x20 SWAP1 PUSH1 0xFF PUSH1 0x1 SLOAD AND SWAP1 MLOAD SWAP1 ISZERO ISZERO DUP2 MSTORE RETURN JUMPDEST POP CALLVALUE PUSH2 0x16A JUMPI PUSH1 0x20 CALLDATASIZE PUSH1 0x3 NOT ADD SLT PUSH2 0x16A JUMPI PUSH1 0xC0 SWAP3 PUSH2 0xC5A DUP4 DUP4 CALLDATALOAD SWAP3 DUP4 DUP2 MSTORE DUP5 PUSH1 0x20 MSTORE KECCAK256 SWAP2 DUP3 SLOAD EQ PUSH2 0xEF8 JUMP JUMPDEST PUSH1 0x1 DUP1 PUSH1 0xA0 SHL SUB SWAP3 DUP4 PUSH1 0x1 DUP4 ADD SLOAD AND SWAP4 PUSH1 0x2 DUP4 ADD SLOAD AND SWAP3 PUSH1 0x3 DUP4 ADD SLOAD SWAP1 DUP4 ADD SLOAD SWAP2 PUSH1 0xFF PUSH1 0x7 PUSH1 0x5 DUP7 ADD SLOAD SWAP6 ADD SLOAD AND SWAP5 DUP2 MLOAD SWAP7 DUP8 MSTORE PUSH1 0x20 DUP8 ADD MSTORE DUP6 ADD MSTORE PUSH1 0x60 DUP5 ADD MSTORE PUSH1 0x80 DUP4 ADD MSTORE ISZERO ISZERO PUSH1 0xA0 DUP3 ADD MSTORE RETURN JUMPDEST POP POP CALLVALUE PUSH2 0x333 JUMPI DUP2 PUSH1 0x3 NOT CALLDATASIZE ADD SLT PUSH2 0x333 JUMPI PUSH1 0x2 SLOAD SWAP1 MLOAD PUSH1 0x1 PUSH1 0x1 PUSH1 0xA0 SHL SUB SWAP1 SWAP2 AND DUP2 MSTORE PUSH1 0x20 SWAP1 RETURN JUMPDEST POP CALLVALUE PUSH2 0x16A JUMPI DUP3 PUSH1 0x3 NOT CALLDATASIZE ADD SLT PUSH2 0x16A JUMPI PUSH2 0xCEB PUSH2 0xE04 JUMP JUMPDEST PUSH1 0x1 SLOAD SWAP1 PUSH1 0xFF DUP3 AND ISZERO PUSH2 0xD2D JUMPI POP PUSH1 0xFF NOT AND PUSH1 0x1 SSTORE MLOAD CALLER DUP2 MSTORE PUSH32 0x5DB9EE0A495BF2E6FF9C91A7834C1BA4FDD244A5E8AA4E537BD38AEAE4B073AA SWAP1 PUSH1 0x20 SWAP1 LOG1 DUP1 RETURN JUMPDEST DUP3 MLOAD PUSH4 0x8DFC202B PUSH1 0xE0 SHL DUP2 MSTORE REVERT JUMPDEST SWAP3 SWAP2 SWAP1 POP CALLVALUE PUSH2 0x630 JUMPI PUSH1 0x20 CALLDATASIZE PUSH1 0x3 NOT ADD SLT PUSH2 0x630 JUMPI DUP2 PUSH2 0x100 SWAP5 DUP3 CALLDATALOAD DUP2 MSTORE DUP3 PUSH1 0x20 MSTORE KECCAK256 SWAP1 DUP2 SLOAD SWAP3 PUSH1 0x1 DUP1 PUSH1 0xA0 SHL SUB SWAP2 DUP3 PUSH1 0x1 DUP6 ADD SLOAD AND SWAP3 PUSH1 0x2 DUP6 ADD SLOAD AND PUSH1 0x3 DUP6 ADD SLOAD SWAP2 DUP6 ADD SLOAD SWAP3 PUSH1 0x5 DUP7 ADD SLOAD SWAP5 PUSH1 0xFF PUSH1 0x7 PUSH1 0x6 DUP10 ADD SLOAD SWAP9 ADD SLOAD AND SWAP8 DUP10 MSTORE PUSH1 0x20 DUP10 ADD MSTORE DUP8 ADD MSTORE PUSH1 0x60 DUP7 ADD MSTORE PUSH1 0x80 DUP6 ADD MSTORE PUSH1 0xA0 DUP5 ADD MSTORE PUSH1 0xC0 DUP4 ADD MSTORE ISZERO ISZERO PUSH1 0xE0 DUP3 ADD MSTORE RETURN JUMPDEST PUSH1 0x40 SWAP1 PUSH1 0x3 NOT ADD SLT PUSH2 0xDD3 JUMPI PUSH1 0x4 CALLDATALOAD SWAP1 PUSH1 0x24 CALLDATALOAD SWAP1 JUMP JUMPDEST PUSH1 0x0 DUP1 REVERT JUMPDEST PUSH1 0x4 CALLDATALOAD SWAP1 PUSH1 0x1 PUSH1 0x1 PUSH1 0xA0 SHL SUB DUP3 AND DUP3 SUB PUSH2 0xDD3 JUMPI JUMP JUMPDEST PUSH1 0x24 CALLDATALOAD SWAP1 PUSH1 0x1 PUSH1 0x1 PUSH1 0xA0 SHL SUB DUP3 AND DUP3 SUB PUSH2 0xDD3 JUMPI JUMP JUMPDEST PUSH1 0x1 SLOAD PUSH1 0x8 SHR PUSH1 0x1 PUSH1 0x1 PUSH1 0xA0 SHL SUB AND CALLER SUB PUSH2 0xE1B JUMPI JUMP JUMPDEST PUSH1 0x40 MLOAD PUSH4 0x118CDAA7 PUSH1 0xE0 SHL DUP2 MSTORE CALLER PUSH1 0x4 DUP3 ADD MSTORE PUSH1 0x24 SWAP1 REVERT JUMPDEST ISZERO PUSH2 0xE3A JUMPI JUMP JUMPDEST PUSH1 0x40 MLOAD PUSH3 0x461BCD PUSH1 0xE5 SHL DUP2 MSTORE PUSH1 0x20 PUSH1 0x4 DUP3 ADD MSTORE PUSH1 0x1D PUSH1 0x24 DUP3 ADD MSTORE PUSH32 0x43616C6C6572206973206E6F7420746865206D61726B6574706C616365000000 PUSH1 0x44 DUP3 ADD MSTORE PUSH1 0x64 SWAP1 REVERT JUMPDEST PUSH1 0xFF PUSH1 0x1 SLOAD AND PUSH2 0xE8B JUMPI JUMP JUMPDEST PUSH1 0x40 MLOAD PUSH4 0xD93C0665 PUSH1 0xE0 SHL DUP2 MSTORE PUSH1 0x4 SWAP1 REVERT JUMPDEST PUSH1 0x2 PUSH1 0x0 SLOAD EQ PUSH2 0xEAE JUMPI PUSH1 0x2 PUSH1 0x0 SSTORE JUMP JUMPDEST PUSH1 0x40 MLOAD PUSH4 0x3EE5AEB5 PUSH1 0xE0 SHL DUP2 MSTORE PUSH1 0x4 SWAP1 REVERT JUMPDEST SWAP1 PUSH1 0x1F DUP1 NOT SWAP2 ADD AND DUP2 ADD SWAP1 DUP2 LT PUSH8 0xFFFFFFFFFFFFFFFF DUP3 GT OR PUSH2 0xEE2 JUMPI PUSH1 0x40 MSTORE JUMP JUMPDEST PUSH4 0x4E487B71 PUSH1 0xE0 SHL PUSH1 0x0 MSTORE PUSH1 0x41 PUSH1 0x4 MSTORE PUSH1 0x24 PUSH1 0x0 REVERT JUMPDEST ISZERO PUSH2 0xEFF JUMPI JUMP JUMPDEST PUSH1 0x40 MLOAD PUSH3 0x461BCD PUSH1 0xE5 SHL DUP2 MSTORE PUSH1 0x20 PUSH1 0x4 DUP3 ADD MSTORE PUSH1 0x15 PUSH1 0x24 DUP3 ADD MSTORE PUSH21 0x115CD8DC9BDDC8191BD95CC81B9BDD08195E1A5CDD PUSH1 0x5A SHL PUSH1 0x44 DUP3 ADD MSTORE PUSH1 0x64 SWAP1 REVERT JUMPDEST ISZERO PUSH2 0xF43 JUMPI JUMP JUMPDEST PUSH1 0x40 MLOAD PUSH3 0x461BCD PUSH1 0xE5 SHL DUP2 MSTORE PUSH1 0x20 PUSH1 0x4 DUP3 ADD MSTORE PUSH1 0x14 PUSH1 0x24 DUP3 ADD MSTORE PUSH20 0x457363726F77206973206E6F7420616374697665 PUSH1 0x60 SHL PUSH1 0x44 DUP3 ADD MSTORE PUSH1 0x64 SWAP1 REVERT JUMPDEST SWAP1 DUP2 PUSH1 0x20 SWAP2 SUB SLT PUSH2 0xDD3 JUMPI MLOAD DUP1 ISZERO ISZERO DUP2 SUB PUSH2 0xDD3 JUMPI SWAP1 JUMP JUMPDEST ISZERO PUSH2 0xF9E JUMPI JUMP JUMPDEST PUSH1 0x40 MLOAD PUSH3 0x461BCD PUSH1 0xE5 SHL DUP2 MSTORE PUSH1 0x20 PUSH1 0x4 DUP3 ADD MSTORE PUSH1 0x15 PUSH1 0x24 DUP3 ADD MSTORE PUSH21 0x151BDAD95B881D1C985B9CD9995C8819985A5B1959 PUSH1 0x5A SHL PUSH1 0x44 DUP3 ADD MSTORE PUSH1 0x64 SWAP1 REVERT INVALID LOG2 PUSH5 0x6970667358 0x22 SLT KECCAK256 CALLER 0xC1 BYTE 0xFC 0xFC 0xF7 PUSH7 0x54D01D6FD2CB5F 0xEE CALLDATALOAD SWAP8 0x5E CALLVALUE 0xF8 BALANCE 0xD5 0xE5 GT 0xC8 GAS CREATE SWAP15 0xD8 0xE PUSH21 0x7A64736F6C634300081400332F8788117E7EFF1D82 0xE9 0x26 0xEC PUSH26 0x4901D17C78024A50270940304540A733656F0D00000000000000 "},"methodIdentifiers":{"ADMIN_ROLE()":"75b238fc","DEFAULT_ADMIN_ROLE()":"a217fddf","DISPUTE_PERIOD()":"a5bbe22b","MODERATOR_ROLE()":"797669c9","activeOfferIds(uint256)":"54f2bbd6","addAdmin(address)":"70480275","addModerator(address)":"b532e4cb","addNegotiationMessage(bytes32,string,uint256,uint256)":"828525bb","agreements(bytes32)":"9e1f68c7","createAgreement(bytes32,uint256,uint256)":"81a9b19b","createOffer(uint8,uint256,uint256,uint256,uint256)":"68484c7c","disputeAndRefund(bytes32,string)":"adc3e5f7","disputeMilestone(bytes32,uint256,string)":"c81e59b2","energyToken()":"4ec7fb81","escrowContract()":"e42a96e7","finalizeMilestone(bytes32,uint256)":"0045be6f","getActiveOffers()":"7ff118ef","getNegotiationMessages(bytes32)":"38e8dfca","getRoleAdmin(bytes32)":"248a9ca3","getUserAgreements(address)":"adb9cae6","getUserOffers(address)":"661d2c2c","grantRole(bytes32,address)":"2f2ff15d","hasRole(bytes32,address)":"91d14854","moderateOffer(bytes32)":"37d6e15e","negotiations(bytes32,uint256)":"e50e9814","offers(bytes32)":"474d3ff0","owner()":"8da5cb5b","pause()":"8456cb59","paused()":"5c975abb","removeModerator(address)":"869d785f","renounceOwnership()":"715018a6","renounceRole(bytes32,address)":"36568abe","reportEnergyDelivery(bytes32,uint256)":"d3a164f1","revokeRole(bytes32,address)":"d547741f","setEscrowContract(address)":"f42375b5","startEnergyTransfer(bytes32)":"ba72a73e","supportsInterface(bytes4)":"01ffc9a7","transferOwnership(address)":"f2fde38b","unpause()":"3f4ba83a","updateOffer(bytes32,uint256,uint256,uint256,uint256)":"952acc6c","userAgreements(address,uint256)":"4c27984e","userOffers(address,uint256)":"bd5fec65"}}}}}