{
  "_format": "hh-sol-artifact-1",
  "contractName": "EnergyMarketplace",
  "sourceName": "contracts/EnergyMarketPlace.sol",
  "abi": [
    {
      "inputs": [
        {
          "internalType": "address",
          "name": "_tokenAddress",
          "type": "address"
        }
      ],
      "stateMutability": "nonpayable",
      "type": "constructor"
    },
    {
      "inputs": [],
      "name": "AccessControlBadConfirmation",
      "type": "error"
    },
    {
      "inputs": [
        {
          "internalType": "address",
          "name": "account",
          "type": "address"
        },
        {
          "internalType": "bytes32",
          "name": "neededRole",
          "type": "bytes32"
        }
      ],
      "name": "AccessControlUnauthorizedAccount",
      "type": "error"
    },
    {
      "inputs": [],
      "name": "EnforcedPause",
      "type": "error"
    },
    {
      "inputs": [],
      "name": "ExpectedPause",
      "type": "error"
    },
    {
      "inputs": [
        {
          "internalType": "address",
          "name": "owner",
          "type": "address"
        }
      ],
      "name": "OwnableInvalidOwner",
      "type": "error"
    },
    {
      "inputs": [
        {
          "internalType": "address",
          "name": "account",
          "type": "address"
        }
      ],
      "name": "OwnableUnauthorizedAccount",
      "type": "error"
    },
    {
      "inputs": [],
      "name": "ReentrancyGuardReentrantCall",
      "type": "error"
    },
    {
      "anonymous": false,
      "inputs": [
        {
          "indexed": true,
          "internalType": "bytes32",
          "name": "agreementId",
          "type": "bytes32"
        },
        {
          "indexed": true,
          "internalType": "bytes32",
          "name": "offerId",
          "type": "bytes32"
        },
        {
          "indexed": false,
          "internalType": "address",
          "name": "buyer",
          "type": "address"
        },
        {
          "indexed": false,
          "internalType": "address",
          "name": "seller",
          "type": "address"
        }
      ],
      "name": "AgreementCreated",
      "type": "event"
    },
    {
      "anonymous": false,
      "inputs": [
        {
          "indexed": true,
          "internalType": "bytes32",
          "name": "agreementId",
          "type": "bytes32"
        },
        {
          "indexed": false,
          "internalType": "uint256",
          "name": "percentage",
          "type": "uint256"
        }
      ],
      "name": "EnergyDeliveryProgress",
      "type": "event"
    },
    {
      "anonymous": false,
      "inputs": [
        {
          "indexed": true,
          "internalType": "bytes32",
          "name": "agreementId",
          "type": "bytes32"
        },
        {
          "indexed": false,
          "internalType": "uint256",
          "name": "percentage",
          "type": "uint256"
        },
        {
          "indexed": false,
          "internalType": "string",
          "name": "reason",
          "type": "string"
        }
      ],
      "name": "MilestoneDisputed",
      "type": "event"
    },
    {
      "anonymous": false,
      "inputs": [
        {
          "indexed": true,
          "internalType": "bytes32",
          "name": "offerId",
          "type": "bytes32"
        },
        {
          "indexed": false,
          "internalType": "address",
          "name": "sender",
          "type": "address"
        }
      ],
      "name": "NegotiationMessageAdded",
      "type": "event"
    },
    {
      "anonymous": false,
      "inputs": [
        {
          "indexed": true,
          "internalType": "bytes32",
          "name": "offerId",
          "type": "bytes32"
        },
        {
          "indexed": true,
          "internalType": "address",
          "name": "creator",
          "type": "address"
        },
        {
          "indexed": false,
          "internalType": "enum EnergyMarketplace.OfferType",
          "name": "offerType",
          "type": "uint8"
        }
      ],
      "name": "OfferCreated",
      "type": "event"
    },
    {
      "anonymous": false,
      "inputs": [
        {
          "indexed": true,
          "internalType": "bytes32",
          "name": "offerId",
          "type": "bytes32"
        },
        {
          "indexed": false,
          "internalType": "enum EnergyMarketplace.OfferStatus",
          "name": "status",
          "type": "uint8"
        }
      ],
      "name": "OfferUpdated",
      "type": "event"
    },
    {
      "anonymous": false,
      "inputs": [
        {
          "indexed": true,
          "internalType": "address",
          "name": "previousOwner",
          "type": "address"
        },
        {
          "indexed": true,
          "internalType": "address",
          "name": "newOwner",
          "type": "address"
        }
      ],
      "name": "OwnershipTransferred",
      "type": "event"
    },
    {
      "anonymous": false,
      "inputs": [
        {
          "indexed": false,
          "internalType": "address",
          "name": "account",
          "type": "address"
        }
      ],
      "name": "Paused",
      "type": "event"
    },
    {
      "anonymous": false,
      "inputs": [
        {
          "indexed": true,
          "internalType": "bytes32",
          "name": "role",
          "type": "bytes32"
        },
        {
          "indexed": true,
          "internalType": "bytes32",
          "name": "previousAdminRole",
          "type": "bytes32"
        },
        {
          "indexed": true,
          "internalType": "bytes32",
          "name": "newAdminRole",
          "type": "bytes32"
        }
      ],
      "name": "RoleAdminChanged",
      "type": "event"
    },
    {
      "anonymous": false,
      "inputs": [
        {
          "indexed": true,
          "internalType": "bytes32",
          "name": "role",
          "type": "bytes32"
        },
        {
          "indexed": true,
          "internalType": "address",
          "name": "account",
          "type": "address"
        },
        {
          "indexed": true,
          "internalType": "address",
          "name": "sender",
          "type": "address"
        }
      ],
      "name": "RoleGranted",
      "type": "event"
    },
    {
      "anonymous": false,
      "inputs": [
        {
          "indexed": true,
          "internalType": "bytes32",
          "name": "role",
          "type": "bytes32"
        },
        {
          "indexed": true,
          "internalType": "address",
          "name": "account",
          "type": "address"
        },
        {
          "indexed": true,
          "internalType": "address",
          "name": "sender",
          "type": "address"
        }
      ],
      "name": "RoleRevoked",
      "type": "event"
    },
    {
      "anonymous": false,
      "inputs": [
        {
          "indexed": true,
          "internalType": "bytes32",
          "name": "agreementId",
          "type": "bytes32"
        }
      ],
      "name": "TradeCompleted",
      "type": "event"
    },
    {
      "anonymous": false,
      "inputs": [
        {
          "indexed": true,
          "internalType": "bytes32",
          "name": "agreementId",
          "type": "bytes32"
        },
        {
          "indexed": false,
          "internalType": "string",
          "name": "reason",
          "type": "string"
        }
      ],
      "name": "TradeRefunded",
      "type": "event"
    },
    {
      "anonymous": false,
      "inputs": [
        {
          "indexed": false,
          "internalType": "address",
          "name": "account",
          "type": "address"
        }
      ],
      "name": "Unpaused",
      "type": "event"
    },
    {
      "inputs": [],
      "name": "ADMIN_ROLE",
      "outputs": [
        {
          "internalType": "bytes32",
          "name": "",
          "type": "bytes32"
        }
      ],
      "stateMutability": "view",
      "type": "function"
    },
    {
      "inputs": [],
      "name": "DEFAULT_ADMIN_ROLE",
      "outputs": [
        {
          "internalType": "bytes32",
          "name": "",
          "type": "bytes32"
        }
      ],
      "stateMutability": "view",
      "type": "function"
    },
    {
      "inputs": [],
      "name": "DISPUTE_PERIOD",
      "outputs": [
        {
          "internalType": "uint256",
          "name": "",
          "type": "uint256"
        }
      ],
      "stateMutability": "view",
      "type": "function"
    },
    {
      "inputs": [],
      "name": "MODERATOR_ROLE",
      "outputs": [
        {
          "internalType": "bytes32",
          "name": "",
          "type": "bytes32"
        }
      ],
      "stateMutability": "view",
      "type": "function"
    },
    {
      "inputs": [
        {
          "internalType": "uint256",
          "name": "",
          "type": "uint256"
        }
      ],
      "name": "activeOfferIds",
      "outputs": [
        {
          "internalType": "bytes32",
          "name": "",
          "type": "bytes32"
        }
      ],
      "stateMutability": "view",
      "type": "function"
    },
    {
      "inputs": [
        {
          "internalType": "address",
          "name": "_account",
          "type": "address"
        }
      ],
      "name": "addAdmin",
      "outputs": [],
      "stateMutability": "nonpayable",
      "type": "function"
    },
    {
      "inputs": [
        {
          "internalType": "address",
          "name": "_account",
          "type": "address"
        }
      ],
      "name": "addModerator",
      "outputs": [],
      "stateMutability": "nonpayable",
      "type": "function"
    },
    {
      "inputs": [
        {
          "internalType": "bytes32",
          "name": "_offerId",
          "type": "bytes32"
        },
        {
          "internalType": "string",
          "name": "_message",
          "type": "string"
        },
        {
          "internalType": "uint256",
          "name": "_proposedPrice",
          "type": "uint256"
        },
        {
          "internalType": "uint256",
          "name": "_proposedEnergyAmount",
          "type": "uint256"
        }
      ],
      "name": "addNegotiationMessage",
      "outputs": [],
      "stateMutability": "nonpayable",
      "type": "function"
    },
    {
      "inputs": [
        {
          "internalType": "bytes32",
          "name": "",
          "type": "bytes32"
        }
      ],
      "name": "agreements",
      "outputs": [
        {
          "internalType": "bytes32",
          "name": "id",
          "type": "bytes32"
        },
        {
          "internalType": "bytes32",
          "name": "offerId",
          "type": "bytes32"
        },
        {
          "internalType": "address",
          "name": "buyer",
          "type": "address"
        },
        {
          "internalType": "address",
          "name": "seller",
          "type": "address"
        },
        {
          "internalType": "uint256",
          "name": "finalEnergyAmount",
          "type": "uint256"
        },
        {
          "internalType": "uint256",
          "name": "finalTotalPrice",
          "type": "uint256"
        },
        {
          "internalType": "uint256",
          "name": "agreedAt",
          "type": "uint256"
        },
        {
          "internalType": "bytes32",
          "name": "escrowId",
          "type": "bytes32"
        },
        {
          "internalType": "bool",
          "name": "isActive",
          "type": "bool"
        }
      ],
      "stateMutability": "view",
      "type": "function"
    },
    {
      "inputs": [
        {
          "internalType": "bytes32",
          "name": "_offerId",
          "type": "bytes32"
        },
        {
          "internalType": "uint256",
          "name": "_finalPrice",
          "type": "uint256"
        },
        {
          "internalType": "uint256",
          "name": "_finalEnergyAmount",
          "type": "uint256"
        }
      ],
      "name": "createAgreement",
      "outputs": [
        {
          "internalType": "bytes32",
          "name": "",
          "type": "bytes32"
        }
      ],
      "stateMutability": "nonpayable",
      "type": "function"
    },
    {
      "inputs": [
        {
          "internalType": "enum EnergyMarketplace.OfferType",
          "name": "_offerType",
          "type": "uint8"
        },
        {
          "internalType": "uint256",
          "name": "_energyAmount",
          "type": "uint256"
        },
        {
          "internalType": "uint256",
          "name": "_pricePerUnit",
          "type": "uint256"
        },
        {
          "internalType": "uint256",
          "name": "_startTime",
          "type": "uint256"
        },
        {
          "internalType": "uint256",
          "name": "_endTime",
          "type": "uint256"
        }
      ],
      "name": "createOffer",
      "outputs": [
        {
          "internalType": "bytes32",
          "name": "offerId",
          "type": "bytes32"
        }
      ],
      "stateMutability": "nonpayable",
      "type": "function"
    },
    {
      "inputs": [
        {
          "internalType": "bytes32",
          "name": "_agreementId",
          "type": "bytes32"
        },
        {
          "internalType": "string",
          "name": "_reason",
          "type": "string"
        }
      ],
      "name": "disputeAndRefund",
      "outputs": [],
      "stateMutability": "nonpayable",
      "type": "function"
    },
    {
      "inputs": [
        {
          "internalType": "bytes32",
          "name": "_agreementId",
          "type": "bytes32"
        },
        {
          "internalType": "uint256",
          "name": "_percentage",
          "type": "uint256"
        },
        {
          "internalType": "string",
          "name": "_reason",
          "type": "string"
        }
      ],
      "name": "disputeMilestone",
      "outputs": [],
      "stateMutability": "nonpayable",
      "type": "function"
    },
    {
      "inputs": [],
      "name": "energyToken",
      "outputs": [
        {
          "internalType": "contract EnergyToken",
          "name": "",
          "type": "address"
        }
      ],
      "stateMutability": "view",
      "type": "function"
    },
    {
      "inputs": [],
      "name": "escrowContract",
      "outputs": [
        {
          "internalType": "contract EnergyEscrow",
          "name": "",
          "type": "address"
        }
      ],
      "stateMutability": "view",
      "type": "function"
    },
    {
      "inputs": [
        {
          "internalType": "bytes32",
          "name": "_agreementId",
          "type": "bytes32"
        },
        {
          "internalType": "uint256",
          "name": "_percentage",
          "type": "uint256"
        }
      ],
      "name": "finalizeMilestone",
      "outputs": [],
      "stateMutability": "nonpayable",
      "type": "function"
    },
    {
      "inputs": [],
      "name": "getActiveOffers",
      "outputs": [
        {
          "internalType": "bytes32[]",
          "name": "",
          "type": "bytes32[]"
        }
      ],
      "stateMutability": "view",
      "type": "function"
    },
    {
      "inputs": [
        {
          "internalType": "bytes32",
          "name": "_offerId",
          "type": "bytes32"
        }
      ],
      "name": "getNegotiationMessages",
      "outputs": [
        {
          "components": [
            {
              "internalType": "address",
              "name": "sender",
              "type": "address"
            },
            {
              "internalType": "uint256",
              "name": "timestamp",
              "type": "uint256"
            },
            {
              "internalType": "string",
              "name": "message",
              "type": "string"
            },
            {
              "internalType": "uint256",
              "name": "proposedPrice",
              "type": "uint256"
            },
            {
              "internalType": "uint256",
              "name": "proposedEnergyAmount",
              "type": "uint256"
            }
          ],
          "internalType": "struct EnergyMarketplace.NegotiationMessage[]",
          "name": "",
          "type": "tuple[]"
        }
      ],
      "stateMutability": "view",
      "type": "function"
    },
    {
      "inputs": [
        {
          "internalType": "bytes32",
          "name": "role",
          "type": "bytes32"
        }
      ],
      "name": "getRoleAdmin",
      "outputs": [
        {
          "internalType": "bytes32",
          "name": "",
          "type": "bytes32"
        }
      ],
      "stateMutability": "view",
      "type": "function"
    },
    {
      "inputs": [
        {
          "internalType": "address",
          "name": "_user",
          "type": "address"
        }
      ],
      "name": "getUserAgreements",
      "outputs": [
        {
          "internalType": "bytes32[]",
          "name": "",
          "type": "bytes32[]"
        }
      ],
      "stateMutability": "view",
      "type": "function"
    },
    {
      "inputs": [
        {
          "internalType": "address",
          "name": "_user",
          "type": "address"
        }
      ],
      "name": "getUserOffers",
      "outputs": [
        {
          "internalType": "bytes32[]",
          "name": "",
          "type": "bytes32[]"
        }
      ],
      "stateMutability": "view",
      "type": "function"
    },
    {
      "inputs": [
        {
          "internalType": "bytes32",
          "name": "role",
          "type": "bytes32"
        },
        {
          "internalType": "address",
          "name": "account",
          "type": "address"
        }
      ],
      "name": "grantRole",
      "outputs": [],
      "stateMutability": "nonpayable",
      "type": "function"
    },
    {
      "inputs": [
        {
          "internalType": "bytes32",
          "name": "role",
          "type": "bytes32"
        },
        {
          "internalType": "address",
          "name": "account",
          "type": "address"
        }
      ],
      "name": "hasRole",
      "outputs": [
        {
          "internalType": "bool",
          "name": "",
          "type": "bool"
        }
      ],
      "stateMutability": "view",
      "type": "function"
    },
    {
      "inputs": [
        {
          "internalType": "bytes32",
          "name": "_offerId",
          "type": "bytes32"
        }
      ],
      "name": "moderateOffer",
      "outputs": [],
      "stateMutability": "nonpayable",
      "type": "function"
    },
    {
      "inputs": [
        {
          "internalType": "bytes32",
          "name": "",
          "type": "bytes32"
        },
        {
          "internalType": "uint256",
          "name": "",
          "type": "uint256"
        }
      ],
      "name": "negotiations",
      "outputs": [
        {
          "internalType": "address",
          "name": "sender",
          "type": "address"
        },
        {
          "internalType": "uint256",
          "name": "timestamp",
          "type": "uint256"
        },
        {
          "internalType": "string",
          "name": "message",
          "type": "string"
        },
        {
          "internalType": "uint256",
          "name": "proposedPrice",
          "type": "uint256"
        },
        {
          "internalType": "uint256",
          "name": "proposedEnergyAmount",
          "type": "uint256"
        }
      ],
      "stateMutability": "view",
      "type": "function"
    },
    {
      "inputs": [
        {
          "internalType": "bytes32",
          "name": "",
          "type": "bytes32"
        }
      ],
      "name": "offers",
      "outputs": [
        {
          "internalType": "bytes32",
          "name": "id",
          "type": "bytes32"
        },
        {
          "internalType": "address",
          "name": "creator",
          "type": "address"
        },
        {
          "internalType": "enum EnergyMarketplace.OfferType",
          "name": "offerType",
          "type": "uint8"
        },
        {
          "internalType": "uint256",
          "name": "energyAmount",
          "type": "uint256"
        },
        {
          "internalType": "uint256",
          "name": "pricePerUnit",
          "type": "uint256"
        },
        {
          "internalType": "uint256",
          "name": "totalPrice",
          "type": "uint256"
        },
        {
          "internalType": "uint256",
          "name": "startTime",
          "type": "uint256"
        },
        {
          "internalType": "uint256",
          "name": "endTime",
          "type": "uint256"
        },
        {
          "internalType": "enum EnergyMarketplace.OfferStatus",
          "name": "status",
          "type": "uint8"
        },
        {
          "internalType": "address",
          "name": "counterparty",
          "type": "address"
        },
        {
          "internalType": "uint256",
          "name": "createdAt",
          "type": "uint256"
        }
      ],
      "stateMutability": "view",
      "type": "function"
    },
    {
      "inputs": [],
      "name": "owner",
      "outputs": [
        {
          "internalType": "address",
          "name": "",
          "type": "address"
        }
      ],
      "stateMutability": "view",
      "type": "function"
    },
    {
      "inputs": [],
      "name": "pause",
      "outputs": [],
      "stateMutability": "nonpayable",
      "type": "function"
    },
    {
      "inputs": [],
      "name": "paused",
      "outputs": [
        {
          "internalType": "bool",
          "name": "",
          "type": "bool"
        }
      ],
      "stateMutability": "view",
      "type": "function"
    },
    {
      "inputs": [
        {
          "internalType": "address",
          "name": "_account",
          "type": "address"
        }
      ],
      "name": "removeModerator",
      "outputs": [],
      "stateMutability": "nonpayable",
      "type": "function"
    },
    {
      "inputs": [],
      "name": "renounceOwnership",
      "outputs": [],
      "stateMutability": "nonpayable",
      "type": "function"
    },
    {
      "inputs": [
        {
          "internalType": "bytes32",
          "name": "role",
          "type": "bytes32"
        },
        {
          "internalType": "address",
          "name": "callerConfirmation",
          "type": "address"
        }
      ],
      "name": "renounceRole",
      "outputs": [],
      "stateMutability": "nonpayable",
      "type": "function"
    },
    {
      "inputs": [
        {
          "internalType": "bytes32",
          "name": "_agreementId",
          "type": "bytes32"
        },
        {
          "internalType": "uint256",
          "name": "_percentage",
          "type": "uint256"
        }
      ],
      "name": "reportEnergyDelivery",
      "outputs": [],
      "stateMutability": "nonpayable",
      "type": "function"
    },
    {
      "inputs": [
        {
          "internalType": "bytes32",
          "name": "role",
          "type": "bytes32"
        },
        {
          "internalType": "address",
          "name": "account",
          "type": "address"
        }
      ],
      "name": "revokeRole",
      "outputs": [],
      "stateMutability": "nonpayable",
      "type": "function"
    },
    {
      "inputs": [
        {
          "internalType": "address",
          "name": "_newEscrowContract",
          "type": "address"
        }
      ],
      "name": "setEscrowContract",
      "outputs": [],
      "stateMutability": "nonpayable",
      "type": "function"
    },
    {
      "inputs": [
        {
          "internalType": "bytes32",
          "name": "_agreementId",
          "type": "bytes32"
        }
      ],
      "name": "startEnergyTransfer",
      "outputs": [],
      "stateMutability": "nonpayable",
      "type": "function"
    },
    {
      "inputs": [
        {
          "internalType": "bytes4",
          "name": "interfaceId",
          "type": "bytes4"
        }
      ],
      "name": "supportsInterface",
      "outputs": [
        {
          "internalType": "bool",
          "name": "",
          "type": "bool"
        }
      ],
      "stateMutability": "view",
      "type": "function"
    },
    {
      "inputs": [
        {
          "internalType": "address",
          "name": "newOwner",
          "type": "address"
        }
      ],
      "name": "transferOwnership",
      "outputs": [],
      "stateMutability": "nonpayable",
      "type": "function"
    },
    {
      "inputs": [],
      "name": "unpause",
      "outputs": [],
      "stateMutability": "nonpayable",
      "type": "function"
    },
    {
      "inputs": [
        {
          "internalType": "bytes32",
          "name": "_offerId",
          "type": "bytes32"
        },
        {
          "internalType": "uint256",
          "name": "_energyAmount",
          "type": "uint256"
        },
        {
          "internalType": "uint256",
          "name": "_pricePerUnit",
          "type": "uint256"
        },
        {
          "internalType": "uint256",
          "name": "_startTime",
          "type": "uint256"
        },
        {
          "internalType": "uint256",
          "name": "_endTime",
          "type": "uint256"
        }
      ],
      "name": "updateOffer",
      "outputs": [],
      "stateMutability": "nonpayable",
      "type": "function"
    },
    {
      "inputs": [
        {
          "internalType": "address",
          "name": "",
          "type": "address"
        },
        {
          "internalType": "uint256",
          "name": "",
          "type": "uint256"
        }
      ],
      "name": "userAgreements",
      "outputs": [
        {
          "internalType": "bytes32",
          "name": "",
          "type": "bytes32"
        }
      ],
      "stateMutability": "view",
      "type": "function"
    },
    {
      "inputs": [
        {
          "internalType": "address",
          "name": "",
          "type": "address"
        },
        {
          "internalType": "uint256",
          "name": "",
          "type": "uint256"
        }
      ],
      "name": "userOffers",
      "outputs": [
        {
          "internalType": "bytes32",
          "name": "",
          "type": "bytes32"
        }
      ],
      "stateMutability": "view",
      "type": "function"
    }
  ],
  "bytecode": "0x6080346200015c576001600160401b0390601f6200439938819003918201601f19168301918483118484101762000161578084926020946040528339810103126200015c57516001600160a01b038082169290918390036200015c576000906001825560ff1960015416600155331562000143576003549060018060a01b031994338684161760035560405192853391167f8be0079c531659141344cd1fd0a4f28419497f9722a3daafe3b4186f6b6457e08680a3836006558086600454161760045561112580840192848410908411176200012f57918391602093620032548439815203019082f090811562000123575016906005541617600555620001063362000177565b506200011233620001f8565b50604051612fb890816200029c8239f35b604051903d90823e3d90fd5b634e487b7160e01b85526041600452602485fd5b604051631e4fbdf760e01b815260048101839052602490fd5b600080fd5b634e487b7160e01b600052604160045260246000fd5b6001600160a01b031660008181527fac33ff75c19e70fe83507db0d683fd3465c996598dc972688b7ace676c89077b602052604081205490919060ff16620001f45781805260026020526040822081835260205260408220600160ff198254161790553391600080516020620043798339815191528180a4600190565b5090565b6001600160a01b031660008181527fe5ebfa64fca8d502a8e50c1edffd2c31ef4dad5b396e65d9f397fb028f74abc560205260408120549091907fa49807205ce4d355092ef5a8a18f56e8913cf4a201fbe287825b095693c217759060ff16620002965780835260026020526040832082845260205260408320600160ff1982541617905560008051602062004379833981519152339380a4600190565b50509056fe6080604052600436101561001257600080fd5b6000803560e01c806245be6f146121a557806301ffc9a71461214e578063248a9ca3146121215780632f2ff15d146120e357806336568abe1461209b57806337d6e15e14611edb57806338e8dfca14611d725780633f4ba83a14611d07578063474d3ff014611c505780634c27984e14611c085780634ec7fb8114611bdf57806354f2bbd614611bb45780635c975abb14611b91578063661d2c2c14611b1e57806368484c7c146118875780637048027514611837578063715018a6146117d957806375b238fc146117b0578063797669c9146117875780637ff118ef1461171157806381a9b19b14611428578063828525bb146110735780638456cb5914611019578063869d785f14610fc95780638da5cb5b14610fa057806391d1485414610f54578063952acc6c14610db75780639e1f68c714610d24578063a217fddf14610d08578063a5bbe22b14610cea578063adb9cae614610c63578063adc3e5f714610af9578063b532e4cb14610aa9578063ba72a73e1461087f578063bd5fec6514610829578063c81e59b214610666578063d3a164f1146103f8578063d547741f146103b6578063e42a96e71461038d578063e50e981414610303578063f2fde38b146102785763f42375b5146101ea57600080fd5b34610275576020366003190112610275576102036123c5565b61020b61298a565b6001600160a01b03168015610230576001600160601b0360a01b600554161760055580f35b60405162461bcd60e51b815260206004820152601f60248201527f496e76616c696420657363726f7720636f6e74726163742061646472657373006044820152606490fd5b80fd5b5034610275576020366003190112610275576102926123c5565b61029a61298a565b6001600160a01b039081169081156102ea57600354826001600160601b0360a01b821617600355167f8be0079c531659141344cd1fd0a4f28419497f9722a3daafe3b4186f6b6457e0600080a380f35b604051631e4fbdf760e01b815260048101849052602490fd5b50346102755761031236612394565b9082526008602052604082208054821015610389576103319250612503565b5060018060a01b0381541660018201549161034e600282016125ab565b61037a60046003840154930154916040519586958652602086015260a0604086015260a08501906123db565b91606084015260808301520390f35b8280fd5b50346102755780600319360112610275576005546040516001600160a01b039091168152602090f35b5034610275576040366003190112610275576103f46004356103d66123af565b9080845260026020526103ef600160408620015461269b565b612913565b5080f35b50346102755761040736612394565b61040f612b5f565b610417612b7d565b818352602090600982526040842061043184825414612d5c565b61044160ff600883015416612da8565b60038101546001600160a01b03908116330361061257601983148015610608575b80156105fe575b80156105f4575b156105a1578590600554166007830154813b15610389578291604483926040519485938492635d655fb160e01b845260048401528960248401525af180156105965761057e575b505060405192606084019084821067ffffffffffffffff8311176105685760649486937fec1d080ea1c9d6e68361e523876c215943bb6f4ca3ab455e4fac692318d9eab693604052428252600183830192818452600960408201938c8552898d5201855260408b209051815501915115159060ff61ff0084549251151560081b1692169061ffff191617179055604051848152a214610559575b506001815580f35b61056290612df4565b38610551565b634e487b7160e01b600052604160045260246000fd5b61058790612559565b6105925784386104b7565b8480fd5b6040513d84823e3d90fd5b60405162461bcd60e51b815260048101859052602560248201527f50657263656e74616765206d7573742062652032352c2035302c2037352c206f604482015264072203130360dc1b6064820152608490fd5b5060648314610470565b50604b8314610469565b5060328314610462565b60405162461bcd60e51b815260048101859052602660248201527f4f6e6c792073656c6c65722063616e207265706f727420656e657267792064656044820152656c697665727960d01b6064820152608490fd5b50346102755760603660031901126102755760043560243560443567ffffffffffffffff81116108255761069e9036906004016124d5565b90916106a8612b5f565b6106b0612b7d565b83855260096020526009604086206106ca86825414612d5c565b6106da60ff600883015416612da8565b6106f160018060a01b036002830154163314612e70565b8287520160205260408520600181549161070c831515612ed6565b019384549160ff8316156107d0576201518081018091116107bc574211610781577ffcb7e83f02e3a70254e135a79debb7538f65d50d87b4011583b1f184d304a37d946101006107779361ffff19161790556040519384938452604060208501526040840191612eb5565b0390a26001815580f35b60405162461bcd60e51b81526020600482015260136024820152722234b9b83aba32903832b934b7b21037bb32b960691b6044820152606490fd5b634e487b7160e01b88526011600452602488fd5b60405162461bcd60e51b815260206004820152602760248201527f4d696c6573746f6e6520616c72656164792066696e616c697a6564206f7220646044820152661a5cdc1d5d195960ca1b6064820152608490fd5b8380fd5b5034610275576040366003190112610275576108436123c5565b6001600160a01b03168152600a60205260408120805460243592908310156102755760206108718484612482565b90546040519160031b1c8152f35b503461027557602090816003193601126102755760043561089e612b5f565b6108a6612b7d565b808252600983526108bd6040832091825414612d5c565b6108cd60ff600883015416612da8565b6001810180548352600784526040832060028301546001600160a01b03929190831633819003610a53578684600454169160648660055416918960058a01549560405196879586946323b872dd60e01b86526004860152602485015260448401525af1908115610a48578691610a0e575b50156109c95794600080516020612f238339815191526007939284879801600360ff19825416179055549160405160038152a260055416910154813b156109c5578291602483926040519485938492636789f9cb60e01b845260048401525af18015610596576109b1575b506001905580f35b6109ba90612559565b6102755780386109a9565b5050fd5b60405162461bcd60e51b815260048101879052601f60248201527f546f6b656e207472616e7366657220746f20657363726f77206661696c6564006044820152606490fd5b90508681813d8311610a41575b610a258183612589565b81010312610a3d57518015158103610a3d573861093e565b8580fd5b503d610a1b565b6040513d88823e3d90fd5b60405162461bcd60e51b815260048101889052602860248201527f4f6e6c792062757965722063616e2073746172742074686520656e65726779206044820152673a3930b739b332b960c11b6064820152608490fd5b5034610275576020366003190112610275576103f4610ac66123c5565b610ace612651565b600080516020612f4383398151915283526002602052610af4600160408520015461269b565b612762565b50346102755760403660031901126102755760043560243567ffffffffffffffff811161038957610b2e9036906004016124d5565b610b39929192612b5f565b610b41612b7d565b81845260096020526040842092610b5a83855414612d5c565b6008840191610b6c60ff845416612da8565b60028501546001600160a01b039390610b889085163314612e70565b8660018701968754825260076020526007604083209660055416910154813b1561038957829160248392604051948593849263b9a7579b60e01b845260048401525af1801561059657610c4b575b5050600560077f6d076295600b2edccfb5c35388414d69ea1ebde72de4e48290780f5fbe0d9f289560ff19938481541690550191825416179055610c27604051928392602084526020840191612eb5565b0390a254600080516020612f23833981519152602060405160058152a26001815580f35b610c5490612559565b610c5f578638610bd6565b8680fd5b503461027557602080600319360112610ce6576001600160a01b03610c866123c5565b168252600b815260408220916040518092808554928381520194835280832092905b828210610ccf57610ccb85610cbf81890382612589565b6040519182918261249a565b0390f35b835486529485019460019384019390910190610ca8565b5080fd5b50346102755780600319360112610275576020604051620151808152f35b5034610275578060031936011261027557602090604051908152f35b503461027557602036600319011261027557604061012091600435815260096020522080549060018101549060018060a01b038060028301541690600383015416600483015460058401549160068501549360ff600860078801549701541696604051988952602089015260408801526060870152608086015260a085015260c084015260e08301521515610100820152f35b50346102755760a036600319011261027557600435606435602435604435608435610de0612b5f565b610de8612b7d565b84865260076020526040862091610e0186845414612c14565b60018301546001600160a01b03163303610f0f5760ff600784015416926006841015610efb5783158015610ef1575b15610eac57600080516020612f2383398151915295610e8b60069387610e5960209915156129b6565b610e64821515612a12565b610e6f848811612a6f565b610e7a428511612ac5565b806002860155816003860155612b10565b600483015560058201550155610ea4604051809261243e565ba26001815580f35b60405162461bcd60e51b815260206004820152601760248201527f4f666665722063616e6e6f7420626520757064617465640000000000000000006044820152606490fd5b5060018414610e30565b634e487b7160e01b88526021600452602488fd5b60405162461bcd60e51b815260206004820152601d60248201527f4f6e6c792063726561746f722063616e20757064617465206f666665720000006044820152606490fd5b5034610275576040366003190112610275576040610f706123af565b9160043581526002602052209060018060a01b0316600052602052602060ff604060002054166040519015158152f35b50346102755780600319360112610275576003546040516001600160a01b039091168152602090f35b5034610275576020366003190112610275576103f4610fe66123c5565b610fee612651565b600080516020612f4383398151915283526002602052611014600160408520015461269b565b612879565b5034610275578060031936011261027557611032612651565b61103a612b5f565b600160ff19815416176001557f62e78cea01bee320cd4e420270b5ea74000d11b0c9f74754ebdbfc544b05a2586020604051338152a180f35b50346102755760803660031901126102755767ffffffffffffffff60043560248035838111610592576110aa9036906004016124d5565b6110b5949194612b5f565b6110bd612b7d565b838652602092600784526007604088206110d987825414612c14565b01805460ff811660068110158061141557811580928115611406575b50156113b8576113a55761137b575b50508487526008845260408720956040519361111f8561256d565b33855285850193428552818111611368578960405193601f199261114a8a85601f8401160187612589565b808652368183011161038957808a9283880137850101526040860192835260608601936044358552608087019560643587528a54600160401b8110156113555761119b9060019c8d82018155612503565b989098611342575188546001600160a01b0319166001600160a01b0391909116178855518a8801559251805160028801949093841161133057506111df845461251f565b601f81116112e9575b508791601f841160011461125f575091807fa983694c328bf2fb0272b481569462b78d47c58e7ec32645deb922ff47d53b589897969492600496948d92611254575b5050600019600383901b1c1916908a1b1790555b51600384015551910155604051338152a2815580f35b01519050388061122a565b9183928b941691858d52898d20928d5b8181106112d2575091600497959391857fa983694c328bf2fb0272b481569462b78d47c58e7ec32645deb922ff47d53b589c9b9a989694106112b9575b505050811b01905561123e565b015160001960f88460031b161c191690553880806112ac565b8284015185558d9690940193928b01928b0161126f565b848c52888c20601f850160051c8101918a8610611326575b601f0160051c01908b905b82811061131a5750506111e8565b60008155018b9061130c565b9091508190611301565b634e487b7160e01b8c5260416004528bfd5b634e487b7160e01b8d5260048d9052828dfd5b634e487b7160e01b8d526041600452828dfd5b634e487b7160e01b8a526041600452838afd5b60019060ff191617905584600080516020612f238339815191528560405160018152a23880611104565b634e487b7160e01b8a526021600452838afd5b60405162461bcd60e51b8152600481018990526021818701527f4f66666572206973206e6f74206f70656e20666f72206e65676f74696174696f6044820152603760f91b6064820152608490fd5b915050600160009114386110f5565b634e487b7160e01b8b526021600452848bfd5b50346102755760603660031901126102755760443590602480359160043561144e612b5f565b611456612b7d565b80825260209360078552604083209361147183865414612c14565b600785019460ff86541660068110156116a4578015908115611706575b50156116b7576001906114a28915156129b6565b01549660ff8860a01c1660028110156116a4576002986084916116875733949089906001600160a01b03166114d987821415612c57565b61151e6114e68433612ba0565b8b54610100600160a81b0319909e166001600160a81b0319909e169d909d173360081b610100600160a81b031617909a5560ff199b99565b61152788612ca3565b60018060a01b039384918a8360055416604051978895869463665d72fb60e11b8652169b8c600486015216809a8401528860448401528660648401525af191821561167c57879261164c575b5085948796948b600160088c977f03973cede5087787eddf0e0298afdec6ed9f15110b2282b52b6edee1a93f545c978f976040859f6009829b8e83525220928b84558c86850155600284016001600160601b0360a01b908a828254161790558860038601918254161790556004840155600583015542600683015560078201550191825416179055818852600b8b5261160e85848a20612b39565b808852600b8b5261162185848a20612b39565b82519182528a820152a3600080516020612f238339815191528560405160028152a255604051908152f35b9091508881813d8311611675575b6116648183612589565b81010312610c5f5751906001611573565b503d61165a565b6040513d89823e3d90fd5b6001600160a01b031693883361169f81881415612c57565b6114d9565b634e487b7160e01b865260216004528286fd5b608487836040519162461bcd60e51b83526004830152808201527f4f66666572206973206e6f7420617661696c61626c6520666f722061677265656044820152631b595b9d60e21b6064820152fd5b60019150143861148e565b5034610275578060031936011261027557604051600c80548083529083526020808301937fdf6966c971051c3d54ec59162606531493a51404a002842f56009d7e5cf4a8c792915b82821061177057610ccb85610cbf81890382612589565b835486529485019460019384019390910190611759565b50346102755780600319360112610275576020604051600080516020612f438339815191528152f35b50346102755780600319360112610275576020604051600080516020612f638339815191528152f35b50346102755780600319360112610275576117f261298a565b600380546001600160a01b031981169091556000906001600160a01b03167f8be0079c531659141344cd1fd0a4f28419497f9722a3daafe3b4186f6b6457e08280a380f35b5034610275576020366003190112610275576103f46118546123c5565b61185c612651565b600080516020612f6383398151915283526002602052611882600160408520015461269b565b6126c1565b50346102755760a03660031901126102755760026004351015610275576118ac612b5f565b6118b4612b7d565b6118c160243515156129b6565b6118ce6044351515612a12565b6118dd60643560843511612a6f565b6118ea4260643511612ac5565b6118f8604435602435612b10565b61190d6004356001600160a01b031633612ba0565b9060405190610160820182811067ffffffffffffffff82111761056857604052828252602082019033825260408301916004358352606084019160243583526080850190604435825260a0860190815260c0860190606435825260e087019260843584526101008801958a87526101208901958b87526101408a0198428a528b8d52600760205260408d209a518b5560018b019160018060a01b03905116825491516002811015611b0a5760ff60a01b9060a01b16916affffffffffffffffffffff60a81b16171790555160028901555160038801555160048701555160058601555160068501556007840191516006811015611af657825491516001600160a81b031990921660ff90911617600891821b610100600160a81b0316179091559051910155338252600a602052611a478160408420612b39565b600c54600160401b81101561056857611a81611a6a826001859401600c5561244b565b819391549060031b91821b91600019901b19161790565b9055600c546000198101908111611ae257826001918360209552600d85526040822055604051611ab38160043561241b565b837fd4cdb9461e7bb277691704e70b4f3822a366e2a92a7e3b797154789698e07a45863393a355604051908152f35b634e487b7160e01b83526011600452602483fd5b634e487b7160e01b87526021600452602487fd5b634e487b7160e01b8f52602160045260248ffd5b503461027557602080600319360112610ce6576001600160a01b03611b416123c5565b168252600a815260408220916040518092808554928381520194835280832092905b828210611b7a57610ccb85610cbf81890382612589565b835486529485019460019384019390910190611b63565b5034610275578060031936011261027557602060ff600154166040519015158152f35b50346102755760203660031901126102755760043590600c548210156102755760206108718361244b565b50346102755780600319360112610275576004546040516001600160a01b039091168152602090f35b503461027557604036600319011261027557611c226123c5565b6001600160a01b03168152600b60205260408120805460243592908310156102755760206108718484612482565b50346102755760203660031901126102755760406101609160043581526007602052208054906001810154600282015491600381015460048201546005830154906006840154926008600786015495015496604051988952611ccb60018060a01b039788811660208c015260ff60408c019160a01c1661241b565b6060890152608088015260a087015260c086015260e0850152611cf5610100850160ff831661243e565b60081c16610120830152610140820152f35b5034610275578060031936011261027557611d20612651565b60015460ff811615611d605760ff19166001557f5db9ee0a495bf2e6ff9c91a7834c1ba4fdd244a5e8aa4e537bd38aeae4b073aa6020604051338152a180f35b604051638dfc202b60e01b8152600490fd5b50346102755760209081600319360112610275576004358152600882526040812080549267ffffffffffffffff8411611ec75791604051600594611dba8582881b0183612589565b808252848201809484528584208785925b848410611e66575050505050604051938085019181865251809252604082818701971b8601019392955b828710611e025785850386f35b909192938280600192603f19898203018552875190848060a01b0382511681528282015183820152611e42604083015160a08060408501528301906123db565b91606080820151908301526080809101519101529601920196019592919092611df5565b908860019260409a97989a51611e7b8161256d565b848060a01b0386541681528486015483820152611e9a600287016125ab565b60408201526003860154606082015260048601546080820152815201920192019190889097959497611dcb565b634e487b7160e01b83526041600452602483fd5b503461027557602080600319360112610ce65760043590600080516020612f438339815191528060005260028252604060002033600052825260ff604060002054161561207d575081835260078152600760408420611f3c84825414612c14565b01805460ff8116600681101561206957801590811561205e575b50156120195760ff19166005179055818352600d8152604083205415801590611fa9575b90600080516020612f2383398151915291611f9b575b60405160058152a280f35b611fa483612ca3565b611f90565b50600c541590811580611fbf575b909150611f7a565b509061200357600080516020612f2383398151915290600c600052827fdf6966c971051c3d54ec59162606531493a51404a002842f56009d7e5cf4a8c75414611fb7565b634e487b7160e01b600052603260045260246000fd5b60405162461bcd60e51b815260048101849052601960248201527f4f666665722063616e6e6f74206265206d6f64657261746564000000000000006044820152606490fd5b600191501438611f56565b634e487b7160e01b86526021600452602486fd5b6044906040519063e2517d3f60e01b82523360048301526024820152fd5b5034610275576040366003190112610275576120b56123af565b336001600160a01b038216036120d1576103f490600435612913565b60405163334bd91960e11b8152600490fd5b5034610275576040366003190112610275576103f46004356121036123af565b90808452600260205261211c600160408620015461269b565b6127fe565b50346102755760203660031901126102755760016040602092600435815260028452200154604051908152f35b50346102755760203660031901126102755760043563ffffffff60e01b8116809103610ce657602090637965db0b60e01b8114908115612194575b506040519015158152f35b6301ffc9a760e01b14905082612189565b5034610275576121b436612394565b6121bc612b5f565b6121c4612b7d565b8183526009602052604083206121dc83825414612d5c565b6121ec60ff600883015416612da8565b818452600981016020526040842090600182549261220b841515612ed6565b0180549260ff84161561234f5760ff8460081c16612312576201518081018091116122fe574211156122b95760ff199092169091556005546007919091015484916001600160a01b0316803b1561038957604483926040519485938492635d655fb160e01b845260048401528760248401525af180156122ae5761229a575b5060641461055957506001815580f35b926122a760649294612559565b929061228a565b6040513d86823e3d90fd5b60405162461bcd60e51b815260206004820152601760248201527f4469737075746520706572696f64206e6f74206f7665720000000000000000006044820152606490fd5b634e487b7160e01b87526011600452602487fd5b60405162461bcd60e51b8152602060048201526015602482015274135a5b195cdd1bdb99481a5cc8191a5cdc1d5d1959605a1b6044820152606490fd5b60405162461bcd60e51b815260206004820152601b60248201527f4d696c6573746f6e6520616c72656164792066696e616c697a656400000000006044820152606490fd5b60409060031901126123aa576004359060243590565b600080fd5b602435906001600160a01b03821682036123aa57565b600435906001600160a01b03821682036123aa57565b919082519283825260005b848110612407575050826000602080949584010152601f8019910116010190565b6020818301810151848301820152016123e6565b9060028210156124285752565b634e487b7160e01b600052602160045260246000fd5b9060068210156124285752565b600c5481101561200357600c6000527fdf6966c971051c3d54ec59162606531493a51404a002842f56009d7e5cf4a8c70190600090565b80548210156120035760005260206000200190600090565b6020908160408183019282815285518094520193019160005b8281106124c1575050505090565b8351855293810193928101926001016124b3565b9181601f840112156123aa5782359167ffffffffffffffff83116123aa57602083818601950101116123aa57565b8054821015612003576000526005602060002091020190600090565b90600182811c9216801561254f575b602083101461253957565b634e487b7160e01b600052602260045260246000fd5b91607f169161252e565b67ffffffffffffffff811161056857604052565b60a0810190811067ffffffffffffffff82111761056857604052565b90601f8019910116810190811067ffffffffffffffff82111761056857604052565b90604051918260008254926125bf8461251f565b90818452600194858116908160001461262e57506001146125eb575b50506125e992500383612589565b565b9093915060005260209081600020936000915b8183106126165750506125e9935082010138806125db565b855488840185015294850194879450918301916125fe565b9150506125e994506020925060ff191682840152151560051b82010138806125db565b3360009081527fe5ebfa64fca8d502a8e50c1edffd2c31ef4dad5b396e65d9f397fb028f74abc56020526040902054600080516020612f638339815191529060ff161561207d5750565b80600052600260205260406000203360005260205260ff604060002054161561207d5750565b6001600160a01b031660008181527fe5ebfa64fca8d502a8e50c1edffd2c31ef4dad5b396e65d9f397fb028f74abc56020526040812054909190600080516020612f638339815191529060ff1661275d5780835260026020526040832082845260205260408320600160ff198254161790557f2f8788117e7eff1d82e926ec794901d17c78024a50270940304540a733656f0d339380a4600190565b505090565b6001600160a01b031660008181527fb1ef985877d50d34e95c2aaf1c996731c63181754cd1cb73eef00b96d479196e6020526040812054909190600080516020612f438339815191529060ff1661275d5780835260026020526040832082845260205260408320600160ff198254161790557f2f8788117e7eff1d82e926ec794901d17c78024a50270940304540a733656f0d339380a4600190565b906000918083526002602052604083209160018060a01b03169182845260205260ff6040842054161560001461275d5780835260026020526040832082845260205260408320600160ff198254161790557f2f8788117e7eff1d82e926ec794901d17c78024a50270940304540a733656f0d339380a4600190565b6001600160a01b031660008181527fb1ef985877d50d34e95c2aaf1c996731c63181754cd1cb73eef00b96d479196e6020526040812054909190600080516020612f438339815191529060ff161561275d578083526002602052604083208284526020526040832060ff1981541690557ff6391f5c32d9c69d2a47ea670b442974b53935d1edc7fd64eb21e047a839171b339380a4600190565b906000918083526002602052604083209160018060a01b03169182845260205260ff60408420541660001461275d578083526002602052604083208284526020526040832060ff1981541690557ff6391f5c32d9c69d2a47ea670b442974b53935d1edc7fd64eb21e047a839171b339380a4600190565b6003546001600160a01b0316330361299e57565b60405163118cdaa760e01b8152336004820152602490fd5b156129bd57565b60405162461bcd60e51b815260206004820152602760248201527f456e6572677920616d6f756e74206d7573742062652067726561746572207468604482015266616e207a65726f60c81b6064820152608490fd5b15612a1957565b60405162461bcd60e51b815260206004820152602860248201527f50726963652070657220756e6974206d7573742062652067726561746572207460448201526768616e207a65726f60c01b6064820152608490fd5b15612a7657565b60405162461bcd60e51b815260206004820152602160248201527f456e642074696d65206d7573742062652061667465722073746172742074696d6044820152606560f81b6064820152608490fd5b15612acc57565b606460405162461bcd60e51b815260206004820152602060248201527f53746172742074696d65206d75737420626520696e20746865206675747572656044820152fd5b81810292918115918404141715612b2357565b634e487b7160e01b600052601160045260246000fd5b805490600160401b8210156105685781611a6a916001612b5b94018155612482565b9055565b60ff60015416612b6b57565b60405163d93c066560e01b8152600490fd5b600260005414612b8e576002600055565b604051633ee5aeb560e01b8152600490fd5b9060065460001990818114612b23576001019081600655430190438211612b23576040519260208401946001600160601b03199060601b168552426034850152605484015260748301524060948201526094815260c0810181811067ffffffffffffffff8211176105685760405251902090565b15612c1b57565b60405162461bcd60e51b815260206004820152601460248201527313d999995c88191bd95cc81b9bdd08195e1a5cdd60621b6044820152606490fd5b15612c5e57565b60405162461bcd60e51b815260206004820152601e60248201527f43616e6e6f7420616772656520746f20796f7572206f776e206f6666657200006044820152606490fd5b600090808252600d6020526040822054600c549060001991828101908111612d4857808203612d16575b5050600c548015612d0257810190612ce48261244b565b909182549160031b1b19169055600c558152600d6020526040812055565b634e487b7160e01b84526031600452602484fd5b612d1f9061244b565b90549060031b1c80612d33611a6a8461244b565b90558452600d60205260408420553880612ccd565b634e487b7160e01b85526011600452602485fd5b15612d6357565b60405162461bcd60e51b815260206004820152601860248201527f41677265656d656e7420646f6573206e6f7420657869737400000000000000006044820152606490fd5b15612daf57565b60405162461bcd60e51b815260206004820152601760248201527f41677265656d656e74206973206e6f74206163746976650000000000000000006044820152606490fd5b600080516020612f238339815191526020600092808452600982526040842090600182019182548652600784526004600760086040892093019260ff199384815416905501918254161790557ff19f756ff352a18ac12de7527fe3ed4e8941b69eaeb0f360dfca534224291f646040519580a2549260048152a2565b15612e7757565b60405162461bcd60e51b81526020600482015260166024820152754f6e6c792062757965722063616e206469737075746560501b6044820152606490fd5b908060209392818452848401376000828201840152601f01601f1916010190565b15612edd57565b60405162461bcd60e51b815260206004820152601a60248201527f4d696c6573746f6e65206e6f74207265706f72746564207965740000000000006044820152606490fdfef5fbb8918491c66348a8751aa1de278550ed0c6dde1b2026a7873d90411645e471f3d55856e4058ed06ee057d79ada615f65cdf5f9ee88181b914225088f834fa49807205ce4d355092ef5a8a18f56e8913cf4a201fbe287825b095693c21775a2646970667358221220aa1647a9222ff09e44e259cbe80255f52ade2e2d7eb124defe18afb83c26e53964736f6c634300081400336080346100f857601f61112538819003918201601f19168301916001600160401b038311848410176100fd578084926020946040528339810103126100f857516001600160a01b0390818116908190036100f857600160005560015433156100df576001600160a81b0319811633600881811b610100600160a81b03169290921760015560405194909290911c167f8be0079c531659141344cd1fd0a4f28419497f9722a3daafe3b4186f6b6457e0600080a3600060035560018060a01b0319908160025416176002553390600554161760055561101190816101148239f35b604051631e4fbdf760e01b815260006004820152602490fd5b600080fd5b634e487b7160e01b600052604160045260246000fdfe6080604081815260048036101561001557600080fd5b600092833560e01c9081632d83549c14610d3b575080633f4ba83a14610cd25780634ec7fb8114610ca957806351a89ce814610c2d5780635c975abb14610c095780635d655fb1146108f45780636789f9cb1461075b5780636c4596811461071c578063715018a6146106bb5780638456cb59146106615780638da5cb5b14610634578063b9a7579b146104ce578063ccbae5f614610337578063d1bb5cf11461030a578063e63ea4081461020a578063f2fde38b1461016e5763f49a52aa146100de57600080fd5b3461016a57602036600319011261016a576100f7610dd8565b6100ff610e04565b6001600160a01b03169182156101275750506001600160601b0360a01b600554161760055580f35b906020606492519162461bcd60e51b8352820152601b60248201527f496e76616c6964206d61726b6574706c616365206164647265737300000000006044820152fd5b8280fd5b503461016a57602036600319011261016a57610188610dd8565b610190610e04565b6001600160a01b038181169390929084156101f457505060018054610100600160a81b03198116600893841b610100600160a81b031617909155901c167f8be0079c531659141344cd1fd0a4f28419497f9722a3daafe3b4186f6b6457e08380a380f35b51631e4fbdf760e01b8152908101859052602490fd5b503461016a57606036600319011261016a57610224610dd8565b61022c610dee565b610234610e04565b6001600160a01b03818116156102c757845163a9059cbb60e01b81526001600160a01b0392909216938201938452604435602080860191909152919493919285928390036040019183918891165af19081156102be5750610293575080f35b6102b39060203d81116102b7575b6102ab8183610ec0565b810190610f7f565b5080f35b503d6102a1565b513d84823e3d90fd5b845162461bcd60e51b8152602081860152601f60248201527f43616e6e6f7420776974686472617720746f207a65726f2061646472657373006044820152606490fd5b50503461033357816003193601126103335760055490516001600160a01b039091168152602090f35b5080fd5b5091346104cb5760803660031901126104cb57610352610dd8565b9261035b610dee565b936044356064359560018060a01b0361037981600554163314610e33565b610381610e7f565b610389610e9d565b60035460001993908481146104b857600101938460035543014381116104b8578851946020860196848116946001600160601b0319809260601b16895286169560601b16603487015242604887015282606887015260888601524060a885015260a8845260e084019484861067ffffffffffffffff8711176104a557908994939291868a5284519020998a97888a52806020528a8a2092898455600184016001600160601b0360a01b908682825416179055866002860191825416179055600384015582015587600582015542600682015560070160ff1981541690558452610100820152610120015260607f0dd968c277d9dc6b36b6ec2b638324c3d937882c64ca109440bc050ebf26cb0791a26001905551908152602090f35b634e487b7160e01b885260418752602488fd5b634e487b7160e01b885260118752602488fd5b80fd5b503461016a57602080600319360112610630576005548235926001600160a01b03916104fd9083163314610e33565b610505610e7f565b61050d610e9d565b8386528083528486209161052385845414610ef8565b600783019283549361053760ff8616610f3c565b838201546005830154918282039682881161061d5760ff19169055899392919003610565575b826001815580f35b60025460019190910154885163a9059cbb60e01b81529083166001600160a01b0316948101948552602085018690529386938593909216918391829060400103925af1908115610613577f21cabc2fff910e5afd1e2bcb22ff2b165a41ab0afbaf364f07aaf2f7787fb9089495916105e49188916105f6575b50610f97565b51908152a2388080808085818061055d565b61060d9150853d87116102b7576102ab8183610ec0565b386105de565b85513d88823e3d90fd5b634e487b7160e01b8c526011875260248cfd5b8380fd5b505034610333578160031936011261033357600154905160089190911c6001600160a01b03168152602090f35b50503461033357816003193601126103335760207f62e78cea01bee320cd4e420270b5ea74000d11b0c9f74754ebdbfc544b05a2589161069f610e04565b6106a7610e7f565b600160ff198154161760015551338152a180f35b83346104cb57806003193601126104cb576106d4610e04565b60018054610100600160a81b03198116909155819060081c6001600160a01b03167f8be0079c531659141344cd1fd0a4f28419497f9722a3daafe3b4186f6b6457e08280a380f35b503461016a5781602093600860ff9361073436610dbd565b9091828552885261074a85852092835414610ef8565b835201855220541690519015158152f35b50903461016a576020806003193601126106305782359260018060a01b039161078983600554163314610e33565b610791610e7f565b610799610e9d565b848652818152838620936107af86865414610ef8565b600785019485549460ff86166108b1579083602492600254168451938480926370a0823160e01b8252308a8301525afa9182156108a7579085918a93610870575b5001541161082f5750505060ff191660011790557fb01718cc2fef93a8279b929ceca602bda7d1d2d9253d23c1cafe4b5ac2092ba48280a26001815580f35b5162461bcd60e51b815291820152601b60248201527f496e73756666696369656e742066756e64732072656365697665640000000000604482015260649150fd5b85809294508193503d83116108a0575b61088a8183610ec0565b8101031261089c5784905191386107f0565b8880fd5b503d610880565b83513d8b823e3d90fd5b50505162461bcd60e51b815291820152601860248201527f457363726f7720697320616c7265616479206163746976650000000000000000604482015260649150fd5b503461016a5761090336610dbd565b60055491936001600160a01b039261091e9084163314610e33565b610926610e7f565b61092e610e9d565b84865260208481528187209461094687875414610ef8565b600786019561095860ff885416610f3c565b601985148015610bff575b8015610bf5575b8015610beb575b15610b9b576008810191858a5282845260ff858b205416610b475760198611610ac4575b8082015460021c92868b528452848a209660ff199760018982541617905560058301805490858201809211610ab1575560028054930154865163a9059cbb60e01b81529082166001600160a01b03169281019283526020830185905292859284929091169082908d90829060400103925af1908115610aa757927f75be8d7515237236cfb3e6c6aa6f74fb8dd8db900b6f433310f89d497092d78f92610a4760649796938b968d91610a905750610f97565b825191868352820152a214610a5f575b836001815580f35b81541690557ff13b3bfa8cd084cadab3723a031c3f1c641ce6072626163d3100c1cd14c18a288280a2388080610a57565b61060d9150843d86116102b7576102ab8183610ec0565b84513d8b823e3d90fd5b634e487b7160e01b8d526011845260248dfd5b6018198601868111610b34578a5282845260ff858b20541661099557845162461bcd60e51b8152908101849052602860248201527f50726576696f7573206d696c6573746f6e6520686173206e6f74206265656e206044820152671c995b19585cd95960c21b6064820152608490fd5b634e487b7160e01b8b526011825260248bfd5b845162461bcd60e51b8152908101849052602860248201527f54686973206d696c6573746f6e652068617320616c7265616479206265656e206044820152671c995b19585cd95960c21b6064820152608490fd5b50915162461bcd60e51b815291820152602560248201527f50657263656e74616765206d7573742062652032352c2035302c2037352c206f604482015264072203130360dc1b6064820152608490fd5b5060648514610971565b50604b851461096a565b5060328514610963565b50503461033357816003193601126103335760209060ff6001541690519015158152f35b503461016a57602036600319011261016a5760c092610c5a83833592838152846020522091825414610ef8565b60018060a01b03928360018301541693600283015416926003830154908301549160ff6007600586015495015416948151968752602087015285015260608401526080830152151560a0820152f35b50503461033357816003193601126103335760025490516001600160a01b039091168152602090f35b503461016a578260031936011261016a57610ceb610e04565b6001549060ff821615610d2d575060ff1916600155513381527f5db9ee0a495bf2e6ff9c91a7834c1ba4fdd244a5e8aa4e537bd38aeae4b073aa90602090a180f35b8251638dfc202b60e01b8152fd5b92919050346106305760203660031901126106305781610100948235815282602052209081549260018060a01b039182600185015416926002850154166003850154918501549260058601549460ff600760068901549801541697895260208901528701526060860152608085015260a084015260c0830152151560e0820152f35b6040906003190112610dd3576004359060243590565b600080fd5b600435906001600160a01b0382168203610dd357565b602435906001600160a01b0382168203610dd357565b60015460081c6001600160a01b03163303610e1b57565b60405163118cdaa760e01b8152336004820152602490fd5b15610e3a57565b60405162461bcd60e51b815260206004820152601d60248201527f43616c6c6572206973206e6f7420746865206d61726b6574706c6163650000006044820152606490fd5b60ff60015416610e8b57565b60405163d93c066560e01b8152600490fd5b600260005414610eae576002600055565b604051633ee5aeb560e01b8152600490fd5b90601f8019910116810190811067ffffffffffffffff821117610ee257604052565b634e487b7160e01b600052604160045260246000fd5b15610eff57565b60405162461bcd60e51b8152602060048201526015602482015274115cd8dc9bddc8191bd95cc81b9bdd08195e1a5cdd605a1b6044820152606490fd5b15610f4357565b60405162461bcd60e51b8152602060048201526014602482015273457363726f77206973206e6f742061637469766560601b6044820152606490fd5b90816020910312610dd357518015158103610dd35790565b15610f9e57565b60405162461bcd60e51b8152602060048201526015602482015274151bdad95b881d1c985b9cd9995c8819985a5b1959605a1b6044820152606490fdfea264697066735822122033c11afcfcf76654d01d6fd2cb5fee35975e34f831d5e511c85af09ed80e747a64736f6c634300081400332f8788117e7eff1d82e926ec794901d17c78024a50270940304540a733656f0d",
  "linkReferences": {},
  "deployedLinkReferences": {}
}