{
  "_format": "hh-sol-artifact-1",
  "contractName": "EnergyMarketplace",
  "sourceName": "contracts/EnergyMarketPlace.sol",
  "abi": [
    {
      "inputs": [
        {
          "internalType": "address",
          "name": "_tokenAddress",
          "type": "address"
        }
      ],
      "stateMutability": "nonpayable",
      "type": "constructor"
    },
    {
      "inputs": [],
      "name": "AccessControlBadConfirmation",
      "type": "error"
    },
    {
      "inputs": [
        {
          "internalType": "address",
          "name": "account",
          "type": "address"
        },
        {
          "internalType": "bytes32",
          "name": "neededRole",
          "type": "bytes32"
        }
      ],
      "name": "AccessControlUnauthorizedAccount",
      "type": "error"
    },
    {
      "inputs": [],
      "name": "EnforcedPause",
      "type": "error"
    },
    {
      "inputs": [],
      "name": "ExpectedPause",
      "type": "error"
    },
    {
      "inputs": [
        {
          "internalType": "address",
          "name": "owner",
          "type": "address"
        }
      ],
      "name": "OwnableInvalidOwner",
      "type": "error"
    },
    {
      "inputs": [
        {
          "internalType": "address",
          "name": "account",
          "type": "address"
        }
      ],
      "name": "OwnableUnauthorizedAccount",
      "type": "error"
    },
    {
      "inputs": [],
      "name": "ReentrancyGuardReentrantCall",
      "type": "error"
    },
    {
      "anonymous": false,
      "inputs": [
        {
          "indexed": true,
          "internalType": "bytes32",
          "name": "agreementId",
          "type": "bytes32"
        },
        {
          "indexed": false,
          "internalType": "string",
          "name": "reason",
          "type": "string"
        }
      ],
      "name": "AgreementCancelled",
      "type": "event"
    },
    {
      "anonymous": false,
      "inputs": [
        {
          "indexed": true,
          "internalType": "bytes32",
          "name": "agreementId",
          "type": "bytes32"
        },
        {
          "indexed": true,
          "internalType": "bytes32",
          "name": "offerId",
          "type": "bytes32"
        },
        {
          "indexed": false,
          "internalType": "address",
          "name": "buyer",
          "type": "address"
        },
        {
          "indexed": false,
          "internalType": "string",
          "name": "buyerUsername",
          "type": "string"
        },
        {
          "indexed": false,
          "internalType": "address",
          "name": "seller",
          "type": "address"
        },
        {
          "indexed": false,
          "internalType": "string",
          "name": "sellerUsername",
          "type": "string"
        }
      ],
      "name": "AgreementCreated",
      "type": "event"
    },
    {
      "anonymous": false,
      "inputs": [
        {
          "indexed": true,
          "internalType": "bytes32",
          "name": "agreementId",
          "type": "bytes32"
        }
      ],
      "name": "AgreementFunded",
      "type": "event"
    },
    {
      "anonymous": false,
      "inputs": [
        {
          "indexed": true,
          "internalType": "bytes32",
          "name": "agreementId",
          "type": "bytes32"
        },
        {
          "indexed": false,
          "internalType": "uint256",
          "name": "percentage",
          "type": "uint256"
        }
      ],
      "name": "EnergyDeliveryProgress",
      "type": "event"
    },
    {
      "anonymous": false,
      "inputs": [
        {
          "indexed": true,
          "internalType": "bytes32",
          "name": "agreementId",
          "type": "bytes32"
        },
        {
          "indexed": false,
          "internalType": "uint256",
          "name": "percentage",
          "type": "uint256"
        },
        {
          "indexed": false,
          "internalType": "string",
          "name": "reason",
          "type": "string"
        }
      ],
      "name": "MilestoneDisputed",
      "type": "event"
    },
    {
      "anonymous": false,
      "inputs": [
        {
          "indexed": true,
          "internalType": "bytes32",
          "name": "offerId",
          "type": "bytes32"
        },
        {
          "indexed": false,
          "internalType": "address",
          "name": "sender",
          "type": "address"
        },
        {
          "indexed": false,
          "internalType": "string",
          "name": "senderUsername",
          "type": "string"
        }
      ],
      "name": "NegotiationMessageAdded",
      "type": "event"
    },
    {
      "anonymous": false,
      "inputs": [
        {
          "indexed": true,
          "internalType": "bytes32",
          "name": "offerId",
          "type": "bytes32"
        },
        {
          "indexed": true,
          "internalType": "address",
          "name": "creator",
          "type": "address"
        },
        {
          "indexed": false,
          "internalType": "string",
          "name": "creatorUsername",
          "type": "string"
        },
        {
          "indexed": false,
          "internalType": "enum EnergyMarketplace.OfferType",
          "name": "offerType",
          "type": "uint8"
        }
      ],
      "name": "OfferCreated",
      "type": "event"
    },
    {
      "anonymous": false,
      "inputs": [
        {
          "indexed": true,
          "internalType": "bytes32",
          "name": "offerId",
          "type": "bytes32"
        },
        {
          "indexed": false,
          "internalType": "enum EnergyMarketplace.OfferStatus",
          "name": "status",
          "type": "uint8"
        }
      ],
      "name": "OfferUpdated",
      "type": "event"
    },
    {
      "anonymous": false,
      "inputs": [
        {
          "indexed": true,
          "internalType": "address",
          "name": "previousOwner",
          "type": "address"
        },
        {
          "indexed": true,
          "internalType": "address",
          "name": "newOwner",
          "type": "address"
        }
      ],
      "name": "OwnershipTransferred",
      "type": "event"
    },
    {
      "anonymous": false,
      "inputs": [
        {
          "indexed": false,
          "internalType": "address",
          "name": "account",
          "type": "address"
        }
      ],
      "name": "Paused",
      "type": "event"
    },
    {
      "anonymous": false,
      "inputs": [
        {
          "indexed": true,
          "internalType": "bytes32",
          "name": "role",
          "type": "bytes32"
        },
        {
          "indexed": true,
          "internalType": "bytes32",
          "name": "previousAdminRole",
          "type": "bytes32"
        },
        {
          "indexed": true,
          "internalType": "bytes32",
          "name": "newAdminRole",
          "type": "bytes32"
        }
      ],
      "name": "RoleAdminChanged",
      "type": "event"
    },
    {
      "anonymous": false,
      "inputs": [
        {
          "indexed": true,
          "internalType": "bytes32",
          "name": "role",
          "type": "bytes32"
        },
        {
          "indexed": true,
          "internalType": "address",
          "name": "account",
          "type": "address"
        },
        {
          "indexed": true,
          "internalType": "address",
          "name": "sender",
          "type": "address"
        }
      ],
      "name": "RoleGranted",
      "type": "event"
    },
    {
      "anonymous": false,
      "inputs": [
        {
          "indexed": true,
          "internalType": "bytes32",
          "name": "role",
          "type": "bytes32"
        },
        {
          "indexed": true,
          "internalType": "address",
          "name": "account",
          "type": "address"
        },
        {
          "indexed": true,
          "internalType": "address",
          "name": "sender",
          "type": "address"
        }
      ],
      "name": "RoleRevoked",
      "type": "event"
    },
    {
      "anonymous": false,
      "inputs": [
        {
          "indexed": true,
          "internalType": "bytes32",
          "name": "agreementId",
          "type": "bytes32"
        }
      ],
      "name": "TradeCompleted",
      "type": "event"
    },
    {
      "anonymous": false,
      "inputs": [
        {
          "indexed": true,
          "internalType": "bytes32",
          "name": "agreementId",
          "type": "bytes32"
        },
        {
          "indexed": false,
          "internalType": "string",
          "name": "reason",
          "type": "string"
        }
      ],
      "name": "TradeRefunded",
      "type": "event"
    },
    {
      "anonymous": false,
      "inputs": [
        {
          "indexed": false,
          "internalType": "address",
          "name": "account",
          "type": "address"
        }
      ],
      "name": "Unpaused",
      "type": "event"
    },
    {
      "anonymous": false,
      "inputs": [
        {
          "indexed": true,
          "internalType": "address",
          "name": "user",
          "type": "address"
        },
        {
          "indexed": false,
          "internalType": "string",
          "name": "username",
          "type": "string"
        }
      ],
      "name": "UsernameRegistered",
      "type": "event"
    },
    {
      "anonymous": false,
      "inputs": [
        {
          "indexed": true,
          "internalType": "address",
          "name": "user",
          "type": "address"
        },
        {
          "indexed": false,
          "internalType": "string",
          "name": "oldUsername",
          "type": "string"
        },
        {
          "indexed": false,
          "internalType": "string",
          "name": "newUsername",
          "type": "string"
        }
      ],
      "name": "UsernameUpdated",
      "type": "event"
    },
    {
      "inputs": [],
      "name": "ADMIN_ROLE",
      "outputs": [
        {
          "internalType": "bytes32",
          "name": "",
          "type": "bytes32"
        }
      ],
      "stateMutability": "view",
      "type": "function"
    },
    {
      "inputs": [],
      "name": "DEFAULT_ADMIN_ROLE",
      "outputs": [
        {
          "internalType": "bytes32",
          "name": "",
          "type": "bytes32"
        }
      ],
      "stateMutability": "view",
      "type": "function"
    },
    {
      "inputs": [],
      "name": "DISPUTE_PERIOD",
      "outputs": [
        {
          "internalType": "uint256",
          "name": "",
          "type": "uint256"
        }
      ],
      "stateMutability": "view",
      "type": "function"
    },
    {
      "inputs": [],
      "name": "FUNDING_TIMEOUT",
      "outputs": [
        {
          "internalType": "uint256",
          "name": "",
          "type": "uint256"
        }
      ],
      "stateMutability": "view",
      "type": "function"
    },
    {
      "inputs": [],
      "name": "MAX_USERNAME_LENGTH",
      "outputs": [
        {
          "internalType": "uint256",
          "name": "",
          "type": "uint256"
        }
      ],
      "stateMutability": "view",
      "type": "function"
    },
    {
      "inputs": [],
      "name": "MODERATOR_ROLE",
      "outputs": [
        {
          "internalType": "bytes32",
          "name": "",
          "type": "bytes32"
        }
      ],
      "stateMutability": "view",
      "type": "function"
    },
    {
      "inputs": [],
      "name": "USER_ROLE",
      "outputs": [
        {
          "internalType": "bytes32",
          "name": "",
          "type": "bytes32"
        }
      ],
      "stateMutability": "view",
      "type": "function"
    },
    {
      "inputs": [
        {
          "internalType": "bytes32",
          "name": "_offerId",
          "type": "bytes32"
        },
        {
          "internalType": "address",
          "name": "_counterparty",
          "type": "address"
        }
      ],
      "name": "acceptNegotiation",
      "outputs": [],
      "stateMutability": "nonpayable",
      "type": "function"
    },
    {
      "inputs": [
        {
          "internalType": "uint256",
          "name": "",
          "type": "uint256"
        }
      ],
      "name": "activeOfferIds",
      "outputs": [
        {
          "internalType": "bytes32",
          "name": "",
          "type": "bytes32"
        }
      ],
      "stateMutability": "view",
      "type": "function"
    },
    {
      "inputs": [
        {
          "internalType": "address",
          "name": "_account",
          "type": "address"
        }
      ],
      "name": "addAdmin",
      "outputs": [],
      "stateMutability": "nonpayable",
      "type": "function"
    },
    {
      "inputs": [
        {
          "internalType": "address",
          "name": "_account",
          "type": "address"
        }
      ],
      "name": "addModerator",
      "outputs": [],
      "stateMutability": "nonpayable",
      "type": "function"
    },
    {
      "inputs": [
        {
          "internalType": "bytes32",
          "name": "_offerId",
          "type": "bytes32"
        },
        {
          "internalType": "string",
          "name": "_message",
          "type": "string"
        },
        {
          "internalType": "uint256",
          "name": "_proposedPrice",
          "type": "uint256"
        },
        {
          "internalType": "uint256",
          "name": "_proposedEnergyAmount",
          "type": "uint256"
        }
      ],
      "name": "addNegotiationMessage",
      "outputs": [],
      "stateMutability": "nonpayable",
      "type": "function"
    },
    {
      "inputs": [
        {
          "internalType": "address",
          "name": "_account",
          "type": "address"
        },
        {
          "internalType": "string",
          "name": "_username",
          "type": "string"
        }
      ],
      "name": "addUser",
      "outputs": [],
      "stateMutability": "nonpayable",
      "type": "function"
    },
    {
      "inputs": [
        {
          "internalType": "bytes32",
          "name": "",
          "type": "bytes32"
        }
      ],
      "name": "agreements",
      "outputs": [
        {
          "internalType": "bytes32",
          "name": "id",
          "type": "bytes32"
        },
        {
          "internalType": "bytes32",
          "name": "offerId",
          "type": "bytes32"
        },
        {
          "internalType": "address",
          "name": "buyer",
          "type": "address"
        },
        {
          "internalType": "string",
          "name": "buyerUsername",
          "type": "string"
        },
        {
          "internalType": "address",
          "name": "seller",
          "type": "address"
        },
        {
          "internalType": "string",
          "name": "sellerUsername",
          "type": "string"
        },
        {
          "internalType": "uint256",
          "name": "finalEnergyAmount",
          "type": "uint256"
        },
        {
          "internalType": "uint256",
          "name": "finalTotalPrice",
          "type": "uint256"
        },
        {
          "internalType": "uint256",
          "name": "agreedAt",
          "type": "uint256"
        },
        {
          "internalType": "bytes32",
          "name": "escrowId",
          "type": "bytes32"
        },
        {
          "internalType": "bool",
          "name": "isActive",
          "type": "bool"
        },
        {
          "internalType": "uint256",
          "name": "fundingDeadline",
          "type": "uint256"
        },
        {
          "internalType": "bool",
          "name": "funded",
          "type": "bool"
        }
      ],
      "stateMutability": "view",
      "type": "function"
    },
    {
      "inputs": [
        {
          "internalType": "bytes32",
          "name": "_offerId",
          "type": "bytes32"
        },
        {
          "internalType": "address",
          "name": "_counterparty",
          "type": "address"
        }
      ],
      "name": "cancelNegotiation",
      "outputs": [],
      "stateMutability": "nonpayable",
      "type": "function"
    },
    {
      "inputs": [
        {
          "internalType": "bytes32",
          "name": "_agreementId",
          "type": "bytes32"
        }
      ],
      "name": "cancelUnfundedAgreement",
      "outputs": [],
      "stateMutability": "nonpayable",
      "type": "function"
    },
    {
      "inputs": [
        {
          "internalType": "bytes32",
          "name": "_offerId",
          "type": "bytes32"
        }
      ],
      "name": "createAgreement",
      "outputs": [
        {
          "internalType": "bytes32",
          "name": "",
          "type": "bytes32"
        }
      ],
      "stateMutability": "nonpayable",
      "type": "function"
    },
    {
      "inputs": [
        {
          "internalType": "enum EnergyMarketplace.OfferType",
          "name": "_offerType",
          "type": "uint8"
        },
        {
          "internalType": "uint256",
          "name": "_energyAmount",
          "type": "uint256"
        },
        {
          "internalType": "uint256",
          "name": "_pricePerUnit",
          "type": "uint256"
        },
        {
          "internalType": "uint256",
          "name": "_startTime",
          "type": "uint256"
        },
        {
          "internalType": "uint256",
          "name": "_endTime",
          "type": "uint256"
        }
      ],
      "name": "createOffer",
      "outputs": [
        {
          "internalType": "bytes32",
          "name": "offerId",
          "type": "bytes32"
        }
      ],
      "stateMutability": "nonpayable",
      "type": "function"
    },
    {
      "inputs": [
        {
          "internalType": "bytes32",
          "name": "_agreementId",
          "type": "bytes32"
        },
        {
          "internalType": "string",
          "name": "_reason",
          "type": "string"
        }
      ],
      "name": "disputeAndRefund",
      "outputs": [],
      "stateMutability": "nonpayable",
      "type": "function"
    },
    {
      "inputs": [
        {
          "internalType": "bytes32",
          "name": "_agreementId",
          "type": "bytes32"
        },
        {
          "internalType": "uint256",
          "name": "_percentage",
          "type": "uint256"
        },
        {
          "internalType": "string",
          "name": "_reason",
          "type": "string"
        }
      ],
      "name": "disputeMilestone",
      "outputs": [],
      "stateMutability": "nonpayable",
      "type": "function"
    },
    {
      "inputs": [],
      "name": "energyToken",
      "outputs": [
        {
          "internalType": "contract EnergyToken",
          "name": "",
          "type": "address"
        }
      ],
      "stateMutability": "view",
      "type": "function"
    },
    {
      "inputs": [],
      "name": "escrowContract",
      "outputs": [
        {
          "internalType": "contract EnergyEscrow",
          "name": "",
          "type": "address"
        }
      ],
      "stateMutability": "view",
      "type": "function"
    },
    {
      "inputs": [
        {
          "internalType": "bytes32",
          "name": "_agreementId",
          "type": "bytes32"
        },
        {
          "internalType": "uint256",
          "name": "_percentage",
          "type": "uint256"
        }
      ],
      "name": "finalizeMilestone",
      "outputs": [],
      "stateMutability": "nonpayable",
      "type": "function"
    },
    {
      "inputs": [
        {
          "internalType": "bytes32",
          "name": "_agreementId",
          "type": "bytes32"
        }
      ],
      "name": "fundAgreement",
      "outputs": [],
      "stateMutability": "nonpayable",
      "type": "function"
    },
    {
      "inputs": [],
      "name": "getActiveOffers",
      "outputs": [
        {
          "internalType": "bytes32[]",
          "name": "",
          "type": "bytes32[]"
        }
      ],
      "stateMutability": "view",
      "type": "function"
    },
    {
      "inputs": [
        {
          "internalType": "string",
          "name": "_username",
          "type": "string"
        }
      ],
      "name": "getAddressByUsername",
      "outputs": [
        {
          "internalType": "address",
          "name": "",
          "type": "address"
        }
      ],
      "stateMutability": "view",
      "type": "function"
    },
    {
      "inputs": [
        {
          "internalType": "bytes32",
          "name": "_agreementId",
          "type": "bytes32"
        }
      ],
      "name": "getAgreementDetails",
      "outputs": [
        {
          "internalType": "bytes32",
          "name": "id",
          "type": "bytes32"
        },
        {
          "internalType": "bytes32",
          "name": "offerId",
          "type": "bytes32"
        },
        {
          "internalType": "address",
          "name": "buyer",
          "type": "address"
        },
        {
          "internalType": "string",
          "name": "buyerUsername",
          "type": "string"
        },
        {
          "internalType": "address",
          "name": "seller",
          "type": "address"
        },
        {
          "internalType": "string",
          "name": "sellerUsername",
          "type": "string"
        },
        {
          "internalType": "uint256",
          "name": "finalEnergyAmount",
          "type": "uint256"
        },
        {
          "internalType": "uint256",
          "name": "finalTotalPrice",
          "type": "uint256"
        },
        {
          "internalType": "uint256",
          "name": "agreedAt",
          "type": "uint256"
        },
        {
          "internalType": "bool",
          "name": "isActive",
          "type": "bool"
        },
        {
          "internalType": "bool",
          "name": "funded",
          "type": "bool"
        }
      ],
      "stateMutability": "view",
      "type": "function"
    },
    {
      "inputs": [
        {
          "internalType": "bytes32",
          "name": "_offerId",
          "type": "bytes32"
        }
      ],
      "name": "getNegotiationMessages",
      "outputs": [
        {
          "components": [
            {
              "internalType": "address",
              "name": "sender",
              "type": "address"
            },
            {
              "internalType": "string",
              "name": "senderUsername",
              "type": "string"
            },
            {
              "internalType": "uint256",
              "name": "timestamp",
              "type": "uint256"
            },
            {
              "internalType": "string",
              "name": "message",
              "type": "string"
            },
            {
              "internalType": "uint256",
              "name": "proposedPrice",
              "type": "uint256"
            },
            {
              "internalType": "uint256",
              "name": "proposedEnergyAmount",
              "type": "uint256"
            }
          ],
          "internalType": "struct EnergyMarketplace.NegotiationMessage[]",
          "name": "",
          "type": "tuple[]"
        }
      ],
      "stateMutability": "view",
      "type": "function"
    },
    {
      "inputs": [
        {
          "internalType": "bytes32",
          "name": "_offerId",
          "type": "bytes32"
        }
      ],
      "name": "getOfferDetails",
      "outputs": [
        {
          "internalType": "bytes32",
          "name": "id",
          "type": "bytes32"
        },
        {
          "internalType": "address",
          "name": "creator",
          "type": "address"
        },
        {
          "internalType": "string",
          "name": "creatorUsername",
          "type": "string"
        },
        {
          "internalType": "enum EnergyMarketplace.OfferType",
          "name": "offerType",
          "type": "uint8"
        },
        {
          "internalType": "uint256",
          "name": "energyAmount",
          "type": "uint256"
        },
        {
          "internalType": "uint256",
          "name": "pricePerUnit",
          "type": "uint256"
        },
        {
          "internalType": "uint256",
          "name": "totalPrice",
          "type": "uint256"
        },
        {
          "internalType": "uint256",
          "name": "startTime",
          "type": "uint256"
        },
        {
          "internalType": "uint256",
          "name": "endTime",
          "type": "uint256"
        },
        {
          "internalType": "enum EnergyMarketplace.OfferStatus",
          "name": "status",
          "type": "uint8"
        },
        {
          "internalType": "address",
          "name": "counterparty",
          "type": "address"
        },
        {
          "internalType": "string",
          "name": "counterpartyUsername",
          "type": "string"
        },
        {
          "internalType": "uint256",
          "name": "createdAt",
          "type": "uint256"
        }
      ],
      "stateMutability": "view",
      "type": "function"
    },
    {
      "inputs": [
        {
          "internalType": "bytes32",
          "name": "_offerId",
          "type": "bytes32"
        }
      ],
      "name": "getOfferNegotiators",
      "outputs": [
        {
          "internalType": "address[]",
          "name": "addresses",
          "type": "address[]"
        },
        {
          "internalType": "string[]",
          "name": "usernameList",
          "type": "string[]"
        }
      ],
      "stateMutability": "view",
      "type": "function"
    },
    {
      "inputs": [
        {
          "internalType": "bytes32",
          "name": "role",
          "type": "bytes32"
        }
      ],
      "name": "getRoleAdmin",
      "outputs": [
        {
          "internalType": "bytes32",
          "name": "",
          "type": "bytes32"
        }
      ],
      "stateMutability": "view",
      "type": "function"
    },
    {
      "inputs": [
        {
          "internalType": "address",
          "name": "_user",
          "type": "address"
        }
      ],
      "name": "getUserAgreements",
      "outputs": [
        {
          "internalType": "bytes32[]",
          "name": "",
          "type": "bytes32[]"
        }
      ],
      "stateMutability": "view",
      "type": "function"
    },
    {
      "inputs": [
        {
          "internalType": "address",
          "name": "_user",
          "type": "address"
        }
      ],
      "name": "getUserOffers",
      "outputs": [
        {
          "internalType": "bytes32[]",
          "name": "",
          "type": "bytes32[]"
        }
      ],
      "stateMutability": "view",
      "type": "function"
    },
    {
      "inputs": [
        {
          "internalType": "address",
          "name": "_user",
          "type": "address"
        }
      ],
      "name": "getUserStats",
      "outputs": [
        {
          "internalType": "string",
          "name": "username",
          "type": "string"
        },
        {
          "internalType": "uint256",
          "name": "offersCreated",
          "type": "uint256"
        },
        {
          "internalType": "uint256",
          "name": "offersNegotiated",
          "type": "uint256"
        },
        {
          "internalType": "uint256",
          "name": "agreementsCompleted",
          "type": "uint256"
        },
        {
          "internalType": "uint256",
          "name": "agreementsCancelled",
          "type": "uint256"
        },
        {
          "internalType": "uint256",
          "name": "disputesInitiated",
          "type": "uint256"
        },
        {
          "internalType": "uint256",
          "name": "disputesWon",
          "type": "uint256"
        },
        {
          "internalType": "uint256",
          "name": "totalEnergyTraded",
          "type": "uint256"
        },
        {
          "internalType": "uint256",
          "name": "totalValueTraded",
          "type": "uint256"
        },
        {
          "internalType": "uint256",
          "name": "lastActivityTimestamp",
          "type": "uint256"
        }
      ],
      "stateMutability": "view",
      "type": "function"
    },
    {
      "inputs": [
        {
          "internalType": "address",
          "name": "_user",
          "type": "address"
        }
      ],
      "name": "getUsernameByAddress",
      "outputs": [
        {
          "internalType": "string",
          "name": "",
          "type": "string"
        }
      ],
      "stateMutability": "view",
      "type": "function"
    },
    {
      "inputs": [
        {
          "internalType": "bytes32",
          "name": "role",
          "type": "bytes32"
        },
        {
          "internalType": "address",
          "name": "account",
          "type": "address"
        }
      ],
      "name": "grantRole",
      "outputs": [],
      "stateMutability": "nonpayable",
      "type": "function"
    },
    {
      "inputs": [
        {
          "internalType": "bytes32",
          "name": "role",
          "type": "bytes32"
        },
        {
          "internalType": "address",
          "name": "account",
          "type": "address"
        }
      ],
      "name": "hasRole",
      "outputs": [
        {
          "internalType": "bool",
          "name": "",
          "type": "bool"
        }
      ],
      "stateMutability": "view",
      "type": "function"
    },
    {
      "inputs": [
        {
          "internalType": "bytes32",
          "name": "_offerId",
          "type": "bytes32"
        }
      ],
      "name": "moderateOffer",
      "outputs": [],
      "stateMutability": "nonpayable",
      "type": "function"
    },
    {
      "inputs": [
        {
          "internalType": "bytes32",
          "name": "",
          "type": "bytes32"
        },
        {
          "internalType": "uint256",
          "name": "",
          "type": "uint256"
        }
      ],
      "name": "negotiations",
      "outputs": [
        {
          "internalType": "address",
          "name": "sender",
          "type": "address"
        },
        {
          "internalType": "string",
          "name": "senderUsername",
          "type": "string"
        },
        {
          "internalType": "uint256",
          "name": "timestamp",
          "type": "uint256"
        },
        {
          "internalType": "string",
          "name": "message",
          "type": "string"
        },
        {
          "internalType": "uint256",
          "name": "proposedPrice",
          "type": "uint256"
        },
        {
          "internalType": "uint256",
          "name": "proposedEnergyAmount",
          "type": "uint256"
        }
      ],
      "stateMutability": "view",
      "type": "function"
    },
    {
      "inputs": [
        {
          "internalType": "bytes32",
          "name": "",
          "type": "bytes32"
        },
        {
          "internalType": "address",
          "name": "",
          "type": "address"
        }
      ],
      "name": "offerNegotiations",
      "outputs": [
        {
          "internalType": "bool",
          "name": "isActive",
          "type": "bool"
        },
        {
          "internalType": "address",
          "name": "counterparty",
          "type": "address"
        },
        {
          "internalType": "string",
          "name": "counterpartyUsername",
          "type": "string"
        },
        {
          "internalType": "uint256",
          "name": "latestProposalIndex",
          "type": "uint256"
        },
        {
          "internalType": "uint256",
          "name": "startedAt",
          "type": "uint256"
        }
      ],
      "stateMutability": "view",
      "type": "function"
    },
    {
      "inputs": [
        {
          "internalType": "bytes32",
          "name": "",
          "type": "bytes32"
        },
        {
          "internalType": "uint256",
          "name": "",
          "type": "uint256"
        }
      ],
      "name": "offerNegotiators",
      "outputs": [
        {
          "internalType": "address",
          "name": "",
          "type": "address"
        }
      ],
      "stateMutability": "view",
      "type": "function"
    },
    {
      "inputs": [
        {
          "internalType": "bytes32",
          "name": "",
          "type": "bytes32"
        }
      ],
      "name": "offers",
      "outputs": [
        {
          "internalType": "bytes32",
          "name": "id",
          "type": "bytes32"
        },
        {
          "internalType": "address",
          "name": "creator",
          "type": "address"
        },
        {
          "internalType": "string",
          "name": "creatorUsername",
          "type": "string"
        },
        {
          "internalType": "enum EnergyMarketplace.OfferType",
          "name": "offerType",
          "type": "uint8"
        },
        {
          "internalType": "uint256",
          "name": "energyAmount",
          "type": "uint256"
        },
        {
          "internalType": "uint256",
          "name": "pricePerUnit",
          "type": "uint256"
        },
        {
          "internalType": "uint256",
          "name": "totalPrice",
          "type": "uint256"
        },
        {
          "internalType": "uint256",
          "name": "startTime",
          "type": "uint256"
        },
        {
          "internalType": "uint256",
          "name": "endTime",
          "type": "uint256"
        },
        {
          "internalType": "enum EnergyMarketplace.OfferStatus",
          "name": "status",
          "type": "uint8"
        },
        {
          "internalType": "address",
          "name": "counterparty",
          "type": "address"
        },
        {
          "internalType": "string",
          "name": "counterpartyUsername",
          "type": "string"
        },
        {
          "internalType": "uint256",
          "name": "createdAt",
          "type": "uint256"
        }
      ],
      "stateMutability": "view",
      "type": "function"
    },
    {
      "inputs": [],
      "name": "owner",
      "outputs": [
        {
          "internalType": "address",
          "name": "",
          "type": "address"
        }
      ],
      "stateMutability": "view",
      "type": "function"
    },
    {
      "inputs": [],
      "name": "pause",
      "outputs": [],
      "stateMutability": "nonpayable",
      "type": "function"
    },
    {
      "inputs": [],
      "name": "paused",
      "outputs": [
        {
          "internalType": "bool",
          "name": "",
          "type": "bool"
        }
      ],
      "stateMutability": "view",
      "type": "function"
    },
    {
      "inputs": [
        {
          "internalType": "string",
          "name": "_username",
          "type": "string"
        }
      ],
      "name": "registerUsername",
      "outputs": [],
      "stateMutability": "nonpayable",
      "type": "function"
    },
    {
      "inputs": [
        {
          "internalType": "address",
          "name": "_account",
          "type": "address"
        }
      ],
      "name": "removeModerator",
      "outputs": [],
      "stateMutability": "nonpayable",
      "type": "function"
    },
    {
      "inputs": [],
      "name": "renounceOwnership",
      "outputs": [],
      "stateMutability": "nonpayable",
      "type": "function"
    },
    {
      "inputs": [
        {
          "internalType": "bytes32",
          "name": "role",
          "type": "bytes32"
        },
        {
          "internalType": "address",
          "name": "callerConfirmation",
          "type": "address"
        }
      ],
      "name": "renounceRole",
      "outputs": [],
      "stateMutability": "nonpayable",
      "type": "function"
    },
    {
      "inputs": [
        {
          "internalType": "bytes32",
          "name": "_agreementId",
          "type": "bytes32"
        },
        {
          "internalType": "uint256",
          "name": "_percentage",
          "type": "uint256"
        }
      ],
      "name": "reportEnergyDelivery",
      "outputs": [],
      "stateMutability": "nonpayable",
      "type": "function"
    },
    {
      "inputs": [
        {
          "internalType": "bytes32",
          "name": "_agreementId",
          "type": "bytes32"
        },
        {
          "internalType": "uint256",
          "name": "_percentage",
          "type": "uint256"
        },
        {
          "internalType": "bool",
          "name": "buyerWins",
          "type": "bool"
        }
      ],
      "name": "resolveDispute",
      "outputs": [],
      "stateMutability": "nonpayable",
      "type": "function"
    },
    {
      "inputs": [
        {
          "internalType": "bytes32",
          "name": "role",
          "type": "bytes32"
        },
        {
          "internalType": "address",
          "name": "account",
          "type": "address"
        }
      ],
      "name": "revokeRole",
      "outputs": [],
      "stateMutability": "nonpayable",
      "type": "function"
    },
    {
      "inputs": [
        {
          "internalType": "address",
          "name": "_newEscrowContract",
          "type": "address"
        }
      ],
      "name": "setEscrowContract",
      "outputs": [],
      "stateMutability": "nonpayable",
      "type": "function"
    },
    {
      "inputs": [
        {
          "internalType": "bytes32",
          "name": "_agreementId",
          "type": "bytes32"
        }
      ],
      "name": "startEnergyTransfer",
      "outputs": [],
      "stateMutability": "nonpayable",
      "type": "function"
    },
    {
      "inputs": [
        {
          "internalType": "bytes4",
          "name": "interfaceId",
          "type": "bytes4"
        }
      ],
      "name": "supportsInterface",
      "outputs": [
        {
          "internalType": "bool",
          "name": "",
          "type": "bool"
        }
      ],
      "stateMutability": "view",
      "type": "function"
    },
    {
      "inputs": [
        {
          "internalType": "address",
          "name": "newOwner",
          "type": "address"
        }
      ],
      "name": "transferOwnership",
      "outputs": [],
      "stateMutability": "nonpayable",
      "type": "function"
    },
    {
      "inputs": [],
      "name": "unpause",
      "outputs": [],
      "stateMutability": "nonpayable",
      "type": "function"
    },
    {
      "inputs": [
        {
          "internalType": "bytes32",
          "name": "_offerId",
          "type": "bytes32"
        },
        {
          "internalType": "uint256",
          "name": "_energyAmount",
          "type": "uint256"
        },
        {
          "internalType": "uint256",
          "name": "_pricePerUnit",
          "type": "uint256"
        },
        {
          "internalType": "uint256",
          "name": "_startTime",
          "type": "uint256"
        },
        {
          "internalType": "uint256",
          "name": "_endTime",
          "type": "uint256"
        }
      ],
      "name": "updateOffer",
      "outputs": [],
      "stateMutability": "nonpayable",
      "type": "function"
    },
    {
      "inputs": [
        {
          "internalType": "address",
          "name": "",
          "type": "address"
        },
        {
          "internalType": "uint256",
          "name": "",
          "type": "uint256"
        }
      ],
      "name": "userAgreements",
      "outputs": [
        {
          "internalType": "bytes32",
          "name": "",
          "type": "bytes32"
        }
      ],
      "stateMutability": "view",
      "type": "function"
    },
    {
      "inputs": [
        {
          "internalType": "address",
          "name": "",
          "type": "address"
        },
        {
          "internalType": "uint256",
          "name": "",
          "type": "uint256"
        }
      ],
      "name": "userOffers",
      "outputs": [
        {
          "internalType": "bytes32",
          "name": "",
          "type": "bytes32"
        }
      ],
      "stateMutability": "view",
      "type": "function"
    },
    {
      "inputs": [
        {
          "internalType": "address",
          "name": "",
          "type": "address"
        }
      ],
      "name": "userProfiles",
      "outputs": [
        {
          "internalType": "uint256",
          "name": "offersCreated",
          "type": "uint256"
        },
        {
          "internalType": "uint256",
          "name": "offersNegotiated",
          "type": "uint256"
        },
        {
          "internalType": "uint256",
          "name": "agreementsCompleted",
          "type": "uint256"
        },
        {
          "internalType": "uint256",
          "name": "agreementsCancelled",
          "type": "uint256"
        },
        {
          "internalType": "uint256",
          "name": "disputesInitiated",
          "type": "uint256"
        },
        {
          "internalType": "uint256",
          "name": "disputesWon",
          "type": "uint256"
        },
        {
          "internalType": "uint256",
          "name": "totalEnergyTraded",
          "type": "uint256"
        },
        {
          "internalType": "uint256",
          "name": "totalValueTraded",
          "type": "uint256"
        },
        {
          "internalType": "uint256",
          "name": "lastActivityTimestamp",
          "type": "uint256"
        }
      ],
      "stateMutability": "view",
      "type": "function"
    },
    {
      "inputs": [
        {
          "internalType": "address",
          "name": "",
          "type": "address"
        }
      ],
      "name": "usernames",
      "outputs": [
        {
          "internalType": "string",
          "name": "",
          "type": "string"
        }
      ],
      "stateMutability": "view",
      "type": "function"
    }
  ],
  "bytecode": "0x6080346200015c576001600160401b0390601f62006d8f38819003918201601f19168301918483118484101762000161578084926020946040528339810103126200015c57516001600160a01b038082169290918390036200015c576000906001825560ff1960015416600155331562000143576003549060018060a01b031994338684161760035560405192853391167f8be0079c531659141344cd1fd0a4f28419497f9722a3daafe3b4186f6b6457e08680a3836009558086600454161760045561112580840192848410908411176200012f5791839160209362005c4a8439815203019082f090811562000123575016906005541617600555620001063362000177565b506200011233620001f8565b506040516159ae90816200029c8239f35b604051903d90823e3d90fd5b634e487b7160e01b85526041600452602485fd5b604051631e4fbdf760e01b815260048101839052602490fd5b600080fd5b634e487b7160e01b600052604160045260246000fd5b6001600160a01b031660008181527fac33ff75c19e70fe83507db0d683fd3465c996598dc972688b7ace676c89077b602052604081205490919060ff16620001f45781805260026020526040822081835260205260408220600160ff19825416179055339160008051602062006d6f8339815191528180a4600190565b5090565b6001600160a01b031660008181527fe5ebfa64fca8d502a8e50c1edffd2c31ef4dad5b396e65d9f397fb028f74abc560205260408120549091907fa49807205ce4d355092ef5a8a18f56e8913cf4a201fbe287825b095693c217759060ff16620002965780835260026020526040832082845260205260408320600160ff1982541617905560008051602062006d6f833981519152339380a4600190565b50509056fe6080604052600436101561001257600080fd5b6000803560e01c806245be6f1461467757806301ffc9a714614620578063096fd30a14614536578063131191611461450d5780631cd896c1146144f25780632305399b146141df578063248a9ca3146141b25780632f2ff15d14614174578063332d56d7146140e257806336568abe1461409a57806336a9413414613d3757806337d6e15e14613be357806338e8dfca14613ab85780633f4ba83a14613a4d578063448bb33514613a30578063474d3ff0146139975780634b68d431146136f35780634c27984e146136ab5780634e43603a146135f15780634ec7fb81146135c8578063528064251461338157806354f2bbd6146133565780635c975abb146133335780636322961d146132d7578063661d2c2c1461329657806368484c7c14612d5e5780637048027514612d0e578063715018a614612cb057806375b238fc14612c87578063797669c914612c5e5780637aaf23f6146129e85780637f10c00b1461299d5780637ff118ef1461291a578063828525bb146121ed5780638456cb5914612193578063869d785f146121435780638b740975146120a75780638da5cb5b1461207e57806391d1485414612032578063952acc6c14611da25780639e1f68c714611caa5780639f1652d814611c19578063a217fddf14611bfd578063a5bbe22b14611bdf578063adb9cae614611b92578063adc3e5f714611a37578063b532e4cb146119e7578063ba72a73e1461188e578063bd5fec6514611838578063c81e59b2146115f3578063cb31fe39146112f4578063d3a164f1146110d5578063d547741f14611093578063d9710fbe14610a22578063da79cf0a14610738578063e42a96e71461070f578063e50e98141461066a578063ed1a998d14610617578063ee91877c14610617578063f2fde38b1461058c578063f42375b5146105005763faf0bbbf146102c657600080fd5b346104fd5760603660031901126104fd576004359060243560443580151581036104f9576102f2614c6b565b838352602091600c8352604084209161030d868454146155bc565b15610450575060055460098201546001600160a01b0391821690813b1561044c57859160248392604051948593849263b9a7579b60e01b845260048401525af1801561044157908591610429575b5050600a820160ff1981541690556002820154168352600882526005604084200193845460018101809111610415576004939495557f6d076295600b2edccfb5c35388414d69ea1ebde72de4e48290780f5fbe0d9f286060604051868152601f878201527f41646d696e207265736f6c76656420696e2062757965722773206661766f72006040820152a25b600860018060a01b039384600284015416865252426008604086200155015416815242600860408320015580f35b634e487b7160e01b85526011600452602485fd5b61043290614948565b61043d57833861035b565b8380fd5b6040513d87823e3d90fd5b8580fd5b9192938460018060a01b03600554166009840154813b156104f9578291604483926040519586938492635d655fb160e01b845260048401528a60248401525af19182156104ec5786926104d1575b50507fec1d080ea1c9d6e68361e523876c215943bb6f4ca3ab455e4fac692318d9eab690600494604051908152a26103e7565b6104dc919250614948565b6104e85783853861049e565b8480fd5b50604051903d90823e3d90fd5b8280fd5b80fd5b50346104fd5760203660031901126104fd5761051a6148cb565b610522614ff8565b6001600160a01b03168015610547576001600160601b0360a01b600554161760055580f35b60405162461bcd60e51b815260206004820152601f60248201527f496e76616c696420657363726f7720636f6e74726163742061646472657373006044820152606490fd5b50346104fd5760203660031901126104fd576105a66148cb565b6105ae614ff8565b6001600160a01b039081169081156105fe57600354826001600160601b0360a01b821617600355167f8be0079c531659141344cd1fd0a4f28419497f9722a3daafe3b4186f6b6457e0600080a380f35b604051631e4fbdf760e01b815260048101849052602490fd5b50346104fd5760203660031901126104fd5761066690610652906040906001600160a01b036106446148cb565b1681526006602052206149b3565b604051918291602083526020830190614890565b0390f35b50346104fd5761067936614852565b908252600b6020526040822080548210156104f9576106989250614b9d565b5080546001600160a01b03166106b0600183016149b3565b9160028101546107006106c5600384016149b3565b9160056004850154940154926106ed604051978897885260c0602089015260c0880190614890565b9160408701528582036060870152614890565b91608084015260a08301520390f35b50346104fd57806003193601126104fd576005546040516001600160a01b039091168152602090f35b50346104fd57602090816003193601126104fd576004359161075861514e565b6107606152ef565b610768614bb9565b828252600c81526040822061077f848254146155bc565b600a81019081549061079360ff8316615608565b6107a460ff600c830154161561564b565b600b8101544211156109dd57600281019260018060a01b039283855416331480156109ce575b80156109a0575b8015610972575b1561092d5760ff1916905560018101548552600a84526040852092600984016affffffffffffffffffffff60a81b81541690556000600a850161082461081e825461490e565b826150e1565b5561082f8454615283565b600f546000198101908111610919579083918554885260108752604088205554168552600884526003604086200180549060018201809211610919579060049291550154168352600882526003604084200193845460018101809111610415576000805160206158f983398151915293949555338552600884524260086040872001557fb5ab43bcf285e9fad797296514da26254613cd9bbdf4410f385d0ab4e839590d60606040518681526018878201527f46756e64696e6720646561646c696e65206578706972656400000000000000006040820152a2549160405160008152a26001815580f35b634e487b7160e01b87526011600452602487fd5b60405162461bcd60e51b815260048101879052601860248201527f4e6f7420617574686f72697a656420746f2063616e63656c00000000000000006044820152606490fd5b506000805160206159198339815191528752600286526040872033600052865260ff604060002054166107d8565b506000805160206159598339815191528752600286526040872033600052865260ff604060002054166107d1565b508360048401541633146107ca565b60405162461bcd60e51b815260048101859052601c60248201527f46756e64696e6720646561646c696e65206e6f742065787069726564000000006044820152606490fd5b50346104fd5760203660031901126104fd57610a3c61514e565b610a446152ef565b610a4c614bb9565b6004358152600a602052604081206006810154906004810154610a73600435835414615380565b60ff600983015416600681101561107f5760020361101b57610a9681151561516c565b3384526006602052610aaa604085206149b3565b92610ab78451151561520e565b60ff600384015416600281101561100757610fd05760018301546084926001600160a01b039091169190610aed600286016149b3565b908333938897610aff838714156154cb565b610b098233615321565b9960208c60018060a01b039a8b9687928360055416604051998a95869463665d72fb60e11b86521660048501528d1660248401528a60448401528860648401525af1938415610fc5578c94610f8d575b506009820180546001600160a81b0319163360081b610100600160a81b031617600217905580516001600160401b038111610f7957610ba881610b9f600a86015461490e565b600a8601615109565b60208d601f8311600114610f0c5790600a9383610f01575b50508160011b916000199060031b1c1916179101555b610be1600435615517565b888a52600c60205260408a20928984556004356001850155600284018888166001600160601b0360a01b82541617905584516001600160401b038111610e7857610c3b81610c32600388015461490e565b60038801615109565b806020601f8211600114610e97578d91610e8c575b508160011b916000199060031b1c19161760038501555b6004840180546001600160a01b031916878a1617905588516001600160401b038111610e7857610ca781610c9e600588015461490e565b60058801615109565b806020601f8211600114610e0d578d91610e02575b508160011b916000199060031b1c19161760058501555b60068401556007830155426008830155610e104201804211610dee57868996610dc660019760209a610dae8f99600c8f9a8e9a7f1fff3863e62fa430ea2ebf8af6e741a76dcd1456cd7404a5af1a5446ce4d64469a600b8301556009820155600a81018e60ff198254161790550160ff1981541690558286168b52600e8e52610d5f8960408d206152c0565b8284168b52600e8e52610d758960408d206152c0565b8286168b5260088e5242600860408d2001558284168b5242600860408d20015560405196879616865260808e8701526080860190614890565b91166040840152828103606084015260043596614890565b0390a3604051600281526000805160206158f98339815191528560043592a255604051908152f35b634e487b7160e01b8a52601160045260248afd5b90508a015138610cbc565b9150600586018d5260208d208d925b8c601f1984168510610e6157506001935082601f19811610610e48575b5050811b016005850155610cd3565b8c015160001960f88460031b161c191690553880610e39565b810151825560209384019360019092019101610e1c565b634e487b7160e01b8c52604160045260248cfd5b905086015138610c50565b9150600386018d5260208d208d925b601f1983168410610ee9576001935082601f19811610610ed0575b5050811b016003850155610c67565b88015160001960f88460031b161c191690553880610ec1565b88810151825560209384019360019092019101610ea6565b015190503880610bc0565b9192600a8501835260208320925b601f1985168110610f615750918391600193600a95601f19811610610f48575b505050811b01910155610bd6565b015160001960f88460031b161c19169055388080610f3a565b91926020600181928685015181550194019201610f1a565b634e487b7160e01b8d52604160045260248dfd5b9093506020813d602011610fbd575b81610fa960209383614992565b81010312610fb957519238610b59565b8b80fd5b3d9150610f9c565b6040513d8e823e3d90fd5b600183015491926084926001600160a01b031690610ff0600282016149b3565b943380948893611002868414156154cb565b610aff565b634e487b7160e01b86526021600452602486fd5b60405162461bcd60e51b815260206004820152603660248201527f4f66666572206d757374206265206167726565642075706f6e206265666f72656044820152750818dc99585d1a5b99c8185b881859dc99595b595b9d60521b6064820152608490fd5b634e487b7160e01b85526021600452602485fd5b50346104fd5760403660031901126104fd576110d16004356110b36148b5565b9080845260026020526110cc6001604086200154614cb5565b614f81565b5080f35b50346104fd576110e436614852565b6110ec61514e565b6110f46152ef565b6110fc614c21565b818352600c6020526040832090611115838354146155bc565b61112560ff600a84015416615697565b6019811480156112ea575b80156112e0575b80156112d6575b1561128357600554600983015485916001600160a01b031690813b156104f9578291604483926040519485938492635d655fb160e01b845260048401528860248401525af1801561127857611264575b505060405160608101928184106001600160401b0385111761124e576064936040524282526111f060016020840193818552600d60408201948a8652878b520160205260408920905181550192511515839060ff801983541691151516179055565b51151561ff0082549160081b169061ff001916179055827fec1d080ea1c9d6e68361e523876c215943bb6f4ca3ab455e4fac692318d9eab66020604051848152a21461123f575b506001815580f35b611248906156e3565b38611237565b634e487b7160e01b600052604160045260246000fd5b61126d90614948565b61043d57833861118e565b6040513d84823e3d90fd5b60405162461bcd60e51b815260206004820152602560248201527f50657263656e74616765206d7573742062652032352c2035302c2037352c206f604482015264072203130360dc1b6064820152608490fd5b506064811461113e565b50604b8114611137565b5060328114611130565b50346104fd5760403660031901126104fd576004356113116148b5565b9061131a61514e565b6113226152ef565b8083526020600a8152604084209261133c83855414615380565b60018481015490946001600160a01b03918216330361159857600981019160ff93848454166006811015611584579180916113798a8095146153c3565b168061146b575088825b6113eb575b505050906000600a6000805160206158f98339815191529594936affffffffffffffffffffff60a81b8454168455016113c461081e825461490e565b555b3387526008835242600860408920015554166113e56040518092614a7c565ba2815580f35b878a526012875260408a20805482101561146557908261140e8261143c94614b4a565b90549060031b1c16898c526011808a5260408d20826000528a528860406000205416611442575b5050615312565b82611383565b8a8d52895260408c20906000528852604060002060ff1981541690553880611435565b50611388565b878a989796959493985260119081875260408b20816000528752611495866040600020541661540f565b878b528187526040808c20600092835288529020805460ff19169055899182895b61150a575b5050506000805160206158f9833981519152959650156114dc575b506113c6565b600a6000916affffffffffffffffffffff60a81b84541684550161150361081e825461490e565b55386114d6565b888c52601288528b60408120805483101561157d5760409161152d848693614b4a565b939054918d8152878d52209260031b1c166000528852866040600020541661155e5761155890615312565b896114b6565b505050506000805160206158f9833981519152949587969538806114bb565b50506114bb565b634e487b7160e01b8a52602160045260248afd5b60405162461bcd60e51b815260048101859052602d60248201527f4f6e6c7920746865206f666665722063726561746f722063616e2063616e636560448201526c36103732b3b7ba34b0ba34b7b760991b6064820152608490fd5b50346104fd5760603660031901126104fd57600435906024918235926044356001600160401b03811161043d5761162e9036906004016148e1565b61163995919561514e565b6116416152ef565b611649614bb9565b838552602092600c845260408620611663868254146155bc565b61167360ff600a83015416615697565b60028101546001600160a01b031633036117fb57600d908488520184526040862060018154916116a483151561588c565b019081549060ff8216156117a75762015180810180911161179457421161175a5761ffff19166101001790553386526008845260408620600401805460018101929083106117485750917ffcb7e83f02e3a70254e135a79debb7538f65d50d87b4011583b1f184d304a37d9596979161173e93553388526008855242600860408a20015560408051958695865285015260408401916150a9565b0390a26001815580f35b634e487b7160e01b8852601160045287fd5b60405162461bcd60e51b815260048101879052601381850152722234b9b83aba32903832b934b7b21037bb32b960691b6044820152606490fd5b634e487b7160e01b895260116004528389fd5b60405162461bcd60e51b8152600481018890526027818601527f4d696c6573746f6e6520616c72656164792066696e616c697a6564206f7220646044820152661a5cdc1d5d195960ca1b6064820152608490fd5b60405162461bcd60e51b815260048101869052601681840152754f6e6c792062757965722063616e206469737075746560501b6044820152606490fd5b50346104fd5760403660031901126104fd576118526148cb565b6001600160a01b03168152600d60205260408120805460243592908310156104fd5760206118808484614b4a565b90546040519160031b1c8152f35b50346104fd576020806003193601126119e357600435906118ad61514e565b6118b56152ef565b6118bd614bb9565b818352600c8152604083206118d4838254146155bc565b6118e460ff600a83015416615608565b60ff600c82015416156119a75760028101546001600160a01b03163303611962579060017fec1d080ea1c9d6e68361e523876c215943bb6f4ca3ab455e4fac692318d9eab69201548452600a815260096040852001600360ff1982541617905533845260088152426008604086200155604051848152a26001815580f35b60405162461bcd60e51b815260048101839052601d60248201527f4f6e6c792062757965722063616e207374617274207472616e736665720000006044820152606490fd5b60405162461bcd60e51b81526004810183905260146024820152731059dc99595b595b9d081b9bdd08199d5b99195960621b6044820152606490fd5b5080fd5b50346104fd5760203660031901126104fd576110d1611a046148cb565b611a0c614c6b565b60008051602061591983398151915283526002602052611a326001604085200154614cb5565b614df4565b50346104fd5760403660031901126104fd576004356024356001600160401b0381116104f957611a6b9036906004016148e1565b9190611a7561514e565b611a7d6152ef565b611a85614c21565b818452600c6020526040842090611a9e838354146155bc565b600a820193611ab060ff865416615697565b600183019485548752600a602052866040812094600960018060a01b0360055416910154813b156104f957829160248392604051948593849263b9a7579b60e01b845260048401525af1801561127857611b7a575b5050600560097f6d076295600b2edccfb5c35388414d69ea1ebde72de4e48290780f5fbe0d9f289560ff19938481541690550191825416179055611b566040519283926020845260208401916150a9565b0390a2546000805160206158f9833981519152602060405160058152a26001815580f35b611b8390614948565b611b8e578638611b05565b8680fd5b50346104fd5760203660031901126104fd57611bd3604061066692611bb56148cb565b611bbd614bb9565b6001600160a01b03168152600e60205220615812565b60405191829182614b62565b50346104fd57806003193601126104fd576020604051620151808152f35b50346104fd57806003193601126104fd57602090604051908152f35b50346104fd5760403660031901126104fd576040611c356148b5565b91600435815260116020522060018060a01b038092166000526020526040600020805490611c65600182016149b3565b611c9b6003600284015493015491604051958560ff8897161515875260081c16602086015260a0604086015260a0850190614890565b91606084015260808301520390f35b50346104fd5760203660031901126104fd576004358152600c6020526040902080546001820154600283015490926001600160a01b0391821690611cf0600382016149b3565b926004820154169260058201611d05906149b3565b936006830154946007840154600885015491600986015493600a87015460ff1695600b88015497600c015460ff16986040519c8d9c8d5260208d015260408c01526101a08060608d01528b01611d5a91614890565b9060808b015289810360a08b0152611d7191614890565b9660c089015260e0880152610100870152610120860152151561014085015261016084015215156101808301520390f35b50346104fd5760a03660031901126104fd57600435606460446084356024833583358235611dce61514e565b611dd66152ef565b611dde614bb9565b878952602096600a885260408a2094611df98a875414615380565b60018601546001600160a01b03163303611ff257600986019760ff8954166006811015611fdf578015908115611fd4575b5015611f94578315611f43578415611ef157611e478689116151b8565b42861115611eb3575050509260ff9492611e80600893866000805160206158f98339815191529a9997600486015581600586015561525a565b600683015560078201550155338652600883524260086040882001555416611eab6040518092614a7c565ba26001815580f35b7f53746172742074696d65206d75737420626520696e2074686520667574757265908a6040519362461bcd60e51b8552816004860152840152820152fd5b6084927f50726963652070657220756e6974206d757374206265206772656174657220746768616e207a65726f60c01b9260288d956040519662461bcd60e51b88526004880152860152840152820152fd5b6084927f456e6572677920616d6f756e74206d757374206265206772656174657220746866616e207a65726f60c81b9260278d956040519662461bcd60e51b88526004880152860152840152820152fd5b7f4f666665722063616e6e6f7420626520757064617465640000000000000000009060178b936040519462461bcd60e51b86526004860152840152820152fd5b600191501438611e2a565b634e487b7160e01b8d526021600452828dfd5b7f4f6e6c792063726561746f722063616e20757064617465206f6666657200000088601d8b936040519462461bcd60e51b86526004860152840152820152fd5b50346104fd5760403660031901126104fd57604061204e6148b5565b9160043581526002602052209060018060a01b0316600052602052602060ff604060002054166040519015158152f35b50346104fd57806003193601126104fd576003546040516001600160a01b039091168152602090f35b50346104fd5760203660031901126104fd576040906120c4614bb9565b6004358152600a6020522060ff61066682549260018060a01b0380600183015416908460038401541690600484015460058501546006860154600787015491600888015493600989015496600b8a01549961212d600a612126600284016149b3565b92016149b3565b996040519e8f9e8f9a8c60081c169b1699614a89565b50346104fd5760203660031901126104fd576110d16121606148cb565b612168614c6b565b6000805160206159198339815191528352600260205261218e6001604085200154614cb5565b614ee7565b50346104fd57806003193601126104fd576121ac614c6b565b6121b461514e565b600160ff19815416176001557f62e78cea01bee320cd4e420270b5ea74000d11b0c9f74754ebdbfc544b05a2586020604051338152a180f35b50346104fd5760803660031901126104fd576024356001600160401b0381116119e35761221e9036906004016148e1565b61222661514e565b61222e6152ef565b612236614bb9565b6004358352600a60205260408320612252600435825414615380565b60ff600982015416600681101561107f57801590811561290f575b50156128ca573384526006602052612287604085206149b3565b926122948451151561520e565b60043585526011602052604085203360005260205260ff6040600020541615806128b3575b612678575b600982015460ff811660068110156126645715612634575b506004358552600b60205260408520805493604051926122f584614977565b3384528660208501524260408501526001600160401b03821161124e5787906040519261232c6020601f19601f8401160185614992565b80845236818301116104f9578060209283860137830101526060830152604435608083015260643560a0830152600160401b841015612620578361237591600182018155614b9d565b91909161260c57805182546001600160a01b0319166001600160a01b039190911617825560208101518051906001600160401b03821161257e5781906123cb826123c2600188015461490e565b60018801615109565b602090601f831160011461259d578992612592575b50508160011b916000199060031b1c19161760018301555b6040810151600283015560608101518051906001600160401b03821161257e5761243282612429600387015461490e565b60038701615109565b602090601f831160011461250c5791806005949260a0948b92612501575b50508160011b916000199060031b1c19161760038501555b608081015160048501550151910155600101546001600160a01b031633036124dd575b5033825260086020524260086040842001557fc5dcf1df95933ad0eda9c2638b78f3ff55e306343fd7fdb3487c25c577baa6eb604051338152604060208201528061173e600435946040830190614890565b6004358352601160205260408320336000526020526002604060002001553861248b565b015190503880612450565b906003850189526020892091895b601f19851681106125665750926005949260019260a09583601f1981161061254d575b505050811b016003850155612468565b015160001960f88460031b161c1916905538808061253d565b9192602060018192868501518155019401920161251a565b634e487b7160e01b88526041600452602488fd5b0151905038806123e0565b9250600185018952602089209089935b601f19841685106125f1576001945083601f198116106125d8575b505050811b0160018301556123f8565b015160001960f88460031b161c191690553880806125c8565b818101518355602094850194600190930192909101906125ad565b634e487b7160e01b86526004869052602486fd5b634e487b7160e01b86526041600452602486fd5b60019060ff1916176009830155604051600181526000805160206158f9833981519152602060043592a2386122d6565b634e487b7160e01b87526021600452602487fd5b6004358552600b602052604085205460405160a081018181106001600160401b0382111761124e576040526001815260208101913383526040820190878252606083015242608083015260043588526011602052604088203360005260205261271c6040600020936126f984511515869060ff801983541691151516179055565b518454610100600160a81b03191660089190911b610100600160a81b0316178455565b518051906001600160401b03821161289f576127488261273f600187015461490e565b60018701615109565b602090601f831160011461282e579180600394926080948c92612823575b505060001982861b1c1916600191821b17908501555b6060810151600285015501519101556004358552601260205260408520805490600160401b82101561280f57906127b891600182018155614b4a565b81549060031b9033821b9160018060a01b03901b191617905533855260086020526040852060018101805490600182018092116127fb57556008429101556122be565b634e487b7160e01b88526011600452602488fd5b634e487b7160e01b87526041600452602487fd5b015190503880612766565b90600185018a5260208a20918a5b601f19851681106128875750926003949260019260809583601f1981161061286f575b505050811b01600185015561277c565b015160001983881b60f8161c1916905538808061285f565b9192602060018192868501518155019401920161283c565b634e487b7160e01b89526041600452602489fd5b5060018201546001600160a01b03163314156122b9565b60405162461bcd60e51b815260206004820152601e60248201527f4f66666572206e6f74206f70656e20666f72206e65676f74696174696f6e00006044820152606490fd5b60019150143861226d565b50346104fd57806003193601126104fd57612933614bb9565b60405180600f5491828152602080910192600f6000527f8d1108e10bcb7c27dddfc02ed9d693a074039d026cf4ea4240b40f7d581ac802916000905b8282106129865761066685611bd381890382614992565b83548652948501946001938401939091019061296f565b50346104fd576129ac36614852565b919081526012602052604081209081548310156104fd5760206129cf8484614b4a565b905460405160039290921b1c6001600160a01b03168152f35b50346104fd576020806003193601126119e35760043590612a0761514e565b612a0f6152ef565b612a17614bb9565b818352600c81526040832090612a2f838354146155bc565b612a3f60ff600a84015416615608565b600c8201612a5160ff8254161561564b565b600b8301544211612c1957600283019260018060a01b039182855416803303612bde578484600454169160648660055416918b60078801549560405196879586946323b872dd60e01b86526004860152602485015260448401525af1908115612bd3578891612b99575b5015612b5c57908691600160ff1982541617905560098360055416910154813b156104f9578291602483926040519485938492636789f9cb60e01b845260048401525af1801561127857612b48575b505060089254168452524260086040842001557fe0bac39983ceda0137b6524aafbd5e9ef70274d73e348c3dd12d1ea0e427c04c8280a26001815580f35b612b5190614948565b6104e8578438612b0a565b60405162461bcd60e51b8152600481018590526015602482015274151bdad95b881d1c985b9cd9995c8819985a5b1959605a1b6044820152606490fd5b90508481813d8311612bcc575b612bb08183614992565b81010312612bc857518015158103612bc85738612abb565b8780fd5b503d612ba6565b6040513d8a823e3d90fd5b60405162461bcd60e51b815260048101869052601360248201527213db9b1e48189d5e595c8818d85b88199d5b99606a1b6044820152606490fd5b60405162461bcd60e51b815260048101839052601760248201527f46756e64696e6720646561646c696e65207061737365640000000000000000006044820152606490fd5b50346104fd57806003193601126104fd5760206040516000805160206159198339815191528152f35b50346104fd57806003193601126104fd5760206040516000805160206159598339815191528152f35b50346104fd57806003193601126104fd57612cc9614ff8565b600380546001600160a01b031981169091556000906001600160a01b03167f8be0079c531659141344cd1fd0a4f28419497f9722a3daafe3b4186f6b6457e08280a380f35b50346104fd5760203660031901126104fd576110d1612d2b6148cb565b612d33614c6b565b60008051602061595983398151915283526002602052612d596001604085200154614cb5565b614d6a565b50346104fd5760a03660031901126104fd57600260043510156104fd57612d8361514e565b612d8b6152ef565b612d93614bb9565b612da0602435151561516c565b6044351561325157612db7606435608435116151b8565b42606435111561320c573381526006602052612dd5604082206149b3565b612de18151151561520e565b612def60443560243561525a565b90612e056004356001600160a01b031633615321565b9160405190816101a08101106001600160401b036101a08401111761124e576101a082016040528382523360208301528260408301526004356060830152602435608083015260443560a083015260c082015260643560e082015260843561010082015283610120820152836101408201526040518060208101106001600160401b0360208301111761124e576020810160405284815261016082015242610180820152828452600a6020526040842090805182556001820160018060a01b036020830151166001600160601b0360a01b82541617905560408101518051906001600160401b03821161280f578190612f0e82612f05600288015461490e565b60028801615109565b602090601f831160011461319d578892613192575b50508160011b916000199060031b1c19161760028301555b60608101516003830160028210156126645760ff199160ff8383541691161790556080820151600484015560a0820151600584015560c0820151600684015560e082015160078401556101008201516008840155600983019061012083015190600682101561317e578254610140850151610100600160a81b0360089190911b1660ff939093169116610100600160a81b03191617179055600a82016101608201518051906001600160401b03821161257e5761300282612ffc855461490e565b85615109565b602090601f83116001146131135791806101809492600b96948b92613108575b50508160011b916000199060031b1c19161790555b0151910155338352600d60205261305182604085206152c0565b61305a82615283565b600f5460001981019081116130f457828452601060205260408420553383526008602052604083208054600181018091116104155791816001936020969355600842910155837f60b719a00b05f4a616f035ae1408708be41b79f79f6141f2120f8fd5e01aa0d36130d660405193604085526040850190614890565b926130e5888201600435614a59565b8033940390a355604051908152f35b634e487b7160e01b84526011600452602484fd5b015190503880613022565b838952602089209190601f1984168a5b8181106131665750926001928592600b989661018098961061314d575b505050811b019055613037565b015160001960f88460031b161c19169055388080613140565b92936020600181928786015181550195019301613123565b634e487b7160e01b88526021600452602488fd5b015190503880612f23565b9250600285018852602088209088935b601f19841685106131f1576001945083601f198116106131d8575b505050811b016002830155612f3b565b015160001960f88460031b161c191690553880806131c8565b818101518355602094850194600190930192909101906131ad565b60405162461bcd60e51b815260206004820152601c60248201527f53746172742074696d65206d75737420626520696e20667574757265000000006044820152606490fd5b60405162461bcd60e51b815260206004820152601a60248201527f50726963652070657220756e6974206d757374206265203e20300000000000006044820152606490fd5b50346104fd5760203660031901126104fd57611bd36040610666926132b96148cb565b6132c1614bb9565b6001600160a01b03168152600d60205220615812565b50346104fd5760203660031901126104fd57600435906001600160401b0382116104fd57602061330a36600485016148e1565b80604051928337600790820190815281900382019020546040516001600160a01b039091168152f35b50346104fd57806003193601126104fd57602060ff600154166040519015158152f35b50346104fd5760203660031901126104fd5760043590600f548210156104fd57602061188083614b13565b50346104fd576020806003193601126119e35781600435815b8185526012845260408520805482101561340a57816133b891614b4a565b90549083875260118652604087209160018060a01b039160031b1c16600052845260ff604060002054166133f5575b6133f090615312565b61339a565b916134026133f091615312565b9290506133e7565b5050909161341783615861565b936134256040519586614992565b83855261343184615861565b9482810194601f198097013687378661346261344c83615861565b9261345a6040519485614992565b808452615861565b0184845b8281106135b8575050508293835b86855260128252604085208054821015613518578161349291614b4a565b60018060a01b0391549060031b1c16878652601183526040862081600052835260ff604060002054166134cf575b506134ca90615312565b613474565b8681613511926134e36134ca959a89615878565b528752600684526134f6604088206149b3565b6135008287615878565b5261350b8186615878565b50615312565b95906134c0565b5050928787946040519460408601906040875251809152606086019690845b81811061359b57505050848603818601528351918287528187019082808560051b8a0101960194975b84891061356d5787870388f35b9091929394958480613589838686600196030188528a51614890565b98019401980197919094939294613560565b82516001600160a01b031689529783019791830191600101613537565b6060828286010152018590613466565b50346104fd57806003193601126104fd576004546040516001600160a01b039091168152602090f35b50346104fd5760203660031901126104fd57613677906001600160a01b036136176148cb565b168152600860205260408082209160066020522081549060018301549260028101546003820154600483015460058401549160068501549361366260086007880154970154976149b3565b986040519a8b9a610140808d528c0190614890565b9860208b015260408a01526060890152608088015260a087015260c086015260e08501526101008401526101208301520390f35b50346104fd5760403660031901126104fd576136c56148cb565b6001600160a01b03168152600e60205260408120805460243592908310156104fd5760206118808484614b4a565b50346104fd5760403660031901126104fd5761370d6148cb565b6001600160401b039060243582811161043d5761372e9036906004016148e1565b9190613738614c6b565b60008051602061593983398151915285526020916002835260019061376282604089200154614cb5565b61376b81614cdb565b5084613775578680f35b61378184861115615024565b60405190858483376137ab86830160078152838760018060a01b0395869303019020541615615064565b1694858752600684526040872090851161280f578591816137d7876137d18b955461490e565b83615109565b82601f8811600114613906579383879694936008938a6138ee987f4afe13536e3149cddd8c9a8df1580cd5e909fd13c41e7dfead2e38d1141dad5d9c9b97916138fb575b5060001960038c901b1c19168a831b1790555b6040518987823785818b81016007815203019020836001600160601b0360a01b8254161790556040519485916138638361495b565b8383528183019084825260408401858152606085019186835260808601938785526040888b60a08a0198828a5261010060c08c019b848d5260e081019d8e52019c8d429052835252209a518b5551908a0155516002890155516003880155516004870155516005860155516006850155516007840155519101556040519383859485528401916150a9565b0390a23880808080808680f35b90508701353861381b565b81845286842090601f198916855b81811061397c5750936008936138ee97938a9997938c7f4afe13536e3149cddd8c9a8df1580cd5e909fd13c41e7dfead2e38d1141dad5d9d9c9810613962575b5050818a811b01905561382e565b88013560001960038d901b60f8161c191690553880613954565b8883013584558b97508c965092850192918901918901613914565b50346104fd5760203660031901126104fd576004358152600a6020526040902080546001820154909160ff91610666916001600160a01b03918216916139df600283016149b3565b908560038401541660048401546005850154600686015490600787015492600888015494600989015497600b613a17600a8c016149b3565b9a01549a6040519e8f9e8f9a8c60081c169b1699614a89565b50346104fd57806003193601126104fd576020604051610e108152f35b50346104fd57806003193601126104fd57613a66614c6b565b60015460ff811615613aa65760ff19166001557f5db9ee0a495bf2e6ff9c91a7834c1ba4fdd244a5e8aa4e537bd38aeae4b073aa6020604051338152a180f35b604051638dfc202b60e01b8152600490fd5b50346104fd576020806003193601126119e35790613ad4614bb9565b6004358152600b825260408120805491613aed83615861565b92613afb6040519485614992565b8084528484018093835285832083915b838310613bbe5750505050604051928484019085855251809152604084019460408260051b8601019392955b828710613b445785850386f35b909192938280600192603f19898203018552875190848060a01b038251168152613b9a613b7d8484015160c08087860152840190614890565b604084015160408401526060808501519084830390850152614890565b916080808201519083015260a0809101519101529601920196019592919092613b37565b600688600192613bd1859b9a989b61546b565b81520192019201919096939596613b0b565b50346104fd5760203660031901126104fd57600435613c00614c21565b808252600a602052600960408320613c1a83825414615380565b01805460ff8116600681101561107f578015908115613d2c575b5015613ce75760ff191660051790558082526010602052604082205415801590613c88575b613c7a575b6000805160206158f9833981519152602060405160058152a280f35b613c8381615517565b613c5e565b50600f541580159081613c9c575b50613c59565b9050613cd157600f600052807f8d1108e10bcb7c27dddfc02ed9d693a074039d026cf4ea4240b40f7d581ac802541438613c96565b634e487b7160e01b600052603260045260246000fd5b60405162461bcd60e51b815260206004820152601960248201527f4f666665722063616e6e6f74206265206d6f64657261746564000000000000006044820152606490fd5b600191501438613c34565b50346104fd576020806003193601126119e3576001600160401b0360043581811161043d57613d6a9036906004016148e1565b91613d7361514e565b613d7b614bb9565b821561405557613d8d84841115615024565b613dc160405184848237600781860190815281900386019020546001600160a01b0390811615908115614035575b50615064565b33855260068452613dd4604086206149b3565b805115613ff55760405185818351613def818385880161486d565b810160078152030190206001600160601b0360a01b81541690557f13428138c872937c879d86da5f1947a7625d28588e4f7f2c44bcb70abbd77473613e3f60405192604084526040840190614890565b918083038782015280613e54339488886150a9565b0390a25b3385526006845260408520908311613fe1579081613e7b846137d187955461490e565b8386601f8211600114613f7f578791613f74575b508460011b906000198660031b1c19161790555b82604051938492833781016007815203019020336001600160601b0360a01b8254161790553382526008815260086040832001805415600014613f6d5750600860405191613ef08361495b565b83835280830184815260408401858152606085018681526080860187815260a087019188835260c088019389855260e08901958a8752886101008b0198428a52338d525260408b2099518a555160018a01555160028901555160038801555160048701555160058601555160068501555160078401555191015580f35b4290555080f35b905082013538613e8f565b828852848820915085601f198116895b818110613fc6575010613fac575b5050600184811b019055613ea3565b830135600019600387901b60f8161c191690553880613f9d565b86840135855589976001909501949384019389935001613f8f565b634e487b7160e01b85526041600452602485fd5b506040518481527f4afe13536e3149cddd8c9a8df1580cd5e909fd13c41e7dfead2e38d1141dad5d33918061402d88820188886150a9565b0390a2613e58565b905060405185858237868187810160078152030190205416331438613dbb565b60405162461bcd60e51b815260048101859052601860248201527f557365726e616d652063616e6e6f7420626520656d70747900000000000000006044820152606490fd5b50346104fd5760403660031901126104fd576140b46148b5565b336001600160a01b038216036140d0576110d190600435614f81565b60405163334bd91960e11b8152600490fd5b50346104fd5760203660031901126104fd57610120906040906001600160a01b0361410b6148cb565b1681526008602052208054906001810154906002810154600382015460048301546005840154916006850154936008600787015496015496604051988952602089015260408801526060870152608086015260a085015260c084015260e0830152610100820152f35b50346104fd5760403660031901126104fd576110d16004356141946148b5565b9080845260026020526141ad6001604086200154614cb5565b614e7e565b50346104fd5760203660031901126104fd5760016040602092600435815260028452200154604051908152f35b50346104fd5760403660031901126104fd57600435906141fd6148b5565b9161420661514e565b61420e6152ef565b808252602090600a8252604083209161422982845414615380565b600983019260ff8454169360068510156110075761424a60018096146153c3565b818501546001600160a01b0391908216330361449b5784875260118452604087209188169182600052845261428660ff6040600020541661540f565b81875260068452614299604088206149b3565b97885115614456578154610100600160a81b03191660089190911b610100600160a81b0316178155600a830188516001600160401b03811161289f576142e9816142e3845461490e565b84615109565b85601f82116001146143e65781908a9b6000805160206158f9833981519152999a9b926143db575b5050600019600383901b1c191690891b1790555b600260ff19825416179055848752601183526040872090600052825260a0614368614362600260406000200154878a52600b865260408a20614b9d565b5061546b565b6080810151806143bb575b5001518061439b575b50503385526008815242600860408720015560405160028152a2815580f35b6143b1816006926004850155600584015461525a565b910155388061437c565b806143d091600586015560048501549061525a565b600684015538614373565b015190503880614311565b828a52868a209a601f1983168b5b8181106144415750918a9b9c91846000805160206158f98339815191529b9c959410614428575b505050811b019055614325565b015160001960f88460031b161c1916905538808061441b565b838301518e559c8b019c9289019289016143f4565b60405162461bcd60e51b815260048101869052601f60248201527f436f756e7465727061727479206d757374206861766520757365726e616d65006044820152606490fd5b60405162461bcd60e51b815260048101859052602960248201527f4f6e6c79206f666665722063726561746f722063616e20616363657074206e6560448201526833b7ba34b0ba34b7b760b91b6064820152608490fd5b50346104fd57806003193601126104fd576020604051818152f35b50346104fd57806003193601126104fd5760206040516000805160206159398339815191528152f35b50346104fd5760203660031901126104fd57604060043591614556614bb9565b828152600c602052209061456d82549182146155bc565b60018201549160018060a01b039081600282015416916004820154169160068201549260078301546145fb60088501549260ff600a87015416946145e860ff600c89015416976145c46005612126600384016149b3565b926040519c8d9c8d5260208d015260408c01526101608060608d01528b0190614890565b9160808a015288820360a08a0152614890565b9460c087015260e0860152610100850152151561012084015215156101408301520390f35b50346104fd5760203660031901126104fd5760043563ffffffff60e01b81168091036119e357602090637965db0b60e01b8114908115614666575b506040519015158152f35b6301ffc9a760e01b1490508261465b565b50346104fd5761468636614852565b61468e61514e565b6146966152ef565b818352600c602052604083206146ae838254146155bc565b6146be60ff600a83015416615697565b818452600d8101602052604084209060018254926146dd84151561588c565b0180549260ff84161561480d5760ff8460081c166147d0576201518081018091116109195742111561478b5760ff199092169091556005546009919091015484916001600160a01b0316803b156104f957604483926040519485938492635d655fb160e01b845260048401528760248401525af180156147805761476c575b5060641461123f57506001815580f35b9261477960649294614948565b929061475c565b6040513d86823e3d90fd5b60405162461bcd60e51b815260206004820152601760248201527f4469737075746520706572696f64206e6f74206f7665720000000000000000006044820152606490fd5b60405162461bcd60e51b8152602060048201526015602482015274135a5b195cdd1bdb99481a5cc8191a5cdc1d5d1959605a1b6044820152606490fd5b60405162461bcd60e51b815260206004820152601b60248201527f4d696c6573746f6e6520616c72656164792066696e616c697a656400000000006044820152606490fd5b6040906003190112614868576004359060243590565b600080fd5b60005b8381106148805750506000910152565b8181015183820152602001614870565b906020916148a98151809281855285808601910161486d565b601f01601f1916010190565b602435906001600160a01b038216820361486857565b600435906001600160a01b038216820361486857565b9181601f84011215614868578235916001600160401b038311614868576020838186019501011161486857565b90600182811c9216801561493e575b602083101461492857565b634e487b7160e01b600052602260045260246000fd5b91607f169161491d565b6001600160401b03811161124e57604052565b61012081019081106001600160401b0382111761124e57604052565b60c081019081106001600160401b0382111761124e57604052565b90601f801991011681019081106001600160401b0382111761124e57604052565b90604051918260008254926149c78461490e565b908184526001948581169081600014614a3657506001146149f3575b50506149f192500383614992565b565b9093915060005260209081600020936000915b818310614a1e5750506149f1935082010138806149e3565b85548884018501529485019487945091830191614a06565b9150506149f194506020925060ff191682840152151560051b82010138806149e3565b906002821015614a665752565b634e487b7160e01b600052602160045260246000fd5b906006821015614a665752565b9d9c9b979196908e6101809c97614af997614ad7614acc614b0e9f999e9860c096865260018060a01b03809e1660208701526101a0806040880152860190614890565b9d6060850190614a59565b608083015260a0820152015260e08d01526101008c01526101208b0190614a7c565b16610140880152868203610160880152614890565b930152565b600f54811015613cd157600f6000527f8d1108e10bcb7c27dddfc02ed9d693a074039d026cf4ea4240b40f7d581ac8020190600090565b8054821015613cd15760005260206000200190600090565b6020908160408183019282815285518094520193019160005b828110614b89575050505090565b835185529381019392810192600101614b7b565b8054821015613cd1576000526006602060002091020190600090565b3360009081527fbdc1bb5d8874ccf33efbb49f1d9ca0a377c75766b37dd2edbeebea1a2eb19d7360205260409020546000805160206159398339815191529060ff1615614c035750565b6044906040519063e2517d3f60e01b82523360048301526024820152fd5b3360009081527fb1ef985877d50d34e95c2aaf1c996731c63181754cd1cb73eef00b96d479196e60205260409020546000805160206159198339815191529060ff1615614c035750565b3360009081527fe5ebfa64fca8d502a8e50c1edffd2c31ef4dad5b396e65d9f397fb028f74abc560205260409020546000805160206159598339815191529060ff1615614c035750565b80600052600260205260406000203360005260205260ff6040600020541615614c035750565b6001600160a01b031660008181527fbdc1bb5d8874ccf33efbb49f1d9ca0a377c75766b37dd2edbeebea1a2eb19d7360205260408120549091906000805160206159398339815191529060ff16614d655780835260026020526040832082845260205260408320600160ff198254161790556000805160206158d9833981519152339380a4600190565b505090565b6001600160a01b031660008181527fe5ebfa64fca8d502a8e50c1edffd2c31ef4dad5b396e65d9f397fb028f74abc560205260408120549091906000805160206159598339815191529060ff16614d655780835260026020526040832082845260205260408320600160ff198254161790556000805160206158d9833981519152339380a4600190565b6001600160a01b031660008181527fb1ef985877d50d34e95c2aaf1c996731c63181754cd1cb73eef00b96d479196e60205260408120549091906000805160206159198339815191529060ff16614d655780835260026020526040832082845260205260408320600160ff198254161790556000805160206158d9833981519152339380a4600190565b906000918083526002602052604083209160018060a01b03169182845260205260ff60408420541615600014614d655780835260026020526040832082845260205260408320600160ff198254161790556000805160206158d9833981519152339380a4600190565b6001600160a01b031660008181527fb1ef985877d50d34e95c2aaf1c996731c63181754cd1cb73eef00b96d479196e60205260408120549091906000805160206159198339815191529060ff1615614d65578083526002602052604083208284526020526040832060ff1981541690557ff6391f5c32d9c69d2a47ea670b442974b53935d1edc7fd64eb21e047a839171b339380a4600190565b906000918083526002602052604083209160018060a01b03169182845260205260ff604084205416600014614d65578083526002602052604083208284526020526040832060ff1981541690557ff6391f5c32d9c69d2a47ea670b442974b53935d1edc7fd64eb21e047a839171b339380a4600190565b6003546001600160a01b0316330361500c57565b60405163118cdaa760e01b8152336004820152602490fd5b1561502b57565b60405162461bcd60e51b8152602060048201526011602482015270557365726e616d6520746f6f206c6f6e6760781b6044820152606490fd5b1561506b57565b60405162461bcd60e51b81526020600482015260166024820152752ab9b2b93730b6b29030b63932b0b23c903a30b5b2b760511b6044820152606490fd5b908060209392818452848401376000828201840152601f01601f1916010190565b8181106150d5575050565b600081556001016150ca565b90601f81116150ee575050565b6149f191600052601f6020600020910160051c8101906150ca565b9190601f811161511857505050565b6149f1926000526020600020906020601f840160051c83019310615144575b601f0160051c01906150ca565b9091508190615137565b60ff6001541661515a57565b60405163d93c066560e01b8152600490fd5b1561517357565b60405162461bcd60e51b815260206004820152601960248201527f456e6572677920616d6f756e74206d757374206265203e2030000000000000006044820152606490fd5b156151bf57565b60405162461bcd60e51b815260206004820152602160248201527f456e642074696d65206d7573742062652061667465722073746172742074696d6044820152606560f81b6064820152608490fd5b1561521557565b60405162461bcd60e51b815260206004820152601c60248201527f4d75737420726567697374657220757365726e616d65206669727374000000006044820152606490fd5b8181029291811591840414171561526d57565b634e487b7160e01b600052601160045260246000fd5b600f54600160401b81101561124e576152a58160016152bc9301600f55614b13565b819391549060031b91821b91600019901b19161790565b9055565b805490600160401b82101561124e57816152a59160016152bc94018155614b4a565b9190820180921161526d57565b600260005414615300576002600055565b604051633ee5aeb560e01b8152600490fd5b600019811461526d5760010190565b9061532d600954615312565b8060095560001943019043821161526d576040519260208401946001600160601b03199060601b168552426034850152605484015260748301524060948201526094815261537a81614977565b51902090565b1561538757565b60405162461bcd60e51b815260206004820152601460248201527313d999995c88191bd95cc81b9bdd08195e1a5cdd60621b6044820152606490fd5b156153ca57565b60405162461bcd60e51b815260206004820152601b60248201527f4f66666572206973206e6f7420696e206e65676f74696174696f6e00000000006044820152606490fd5b1561541657565b60405162461bcd60e51b815260206004820152602760248201527f4e6f20616374697665206e65676f74696174696f6e207769746820636f756e746044820152666572706172747960c81b6064820152608490fd5b9060405161547881614977565b82546001600160a01b0316815291829060a09060059061549a600182016149b3565b6020850152600281015460408501526154b5600382016149b3565b6060850152600481015460808501520154910152565b156154d257565b60405162461bcd60e51b815260206004820152601e60248201527f43616e6e6f7420616772656520746f20796f7572206f776e206f6666657200006044820152606490fd5b60009080825260106020526040822054600f5490600019918281019081116104155780820361558a575b5050600f5480156155765781019061555882614b13565b909182549160031b1b19169055600f55815260106020526040812055565b634e487b7160e01b84526031600452602484fd5b61559390614b13565b90549060031b1c806155a76152a584614b13565b90558452601060205260408420553880615541565b156155c357565b60405162461bcd60e51b815260206004820152601860248201527f41677265656d656e7420646f6573206e6f7420657869737400000000000000006044820152606490fd5b1561560f57565b60405162461bcd60e51b815260206004820152601460248201527341677265656d656e74206e6f742061637469766560601b6044820152606490fd5b1561565257565b60405162461bcd60e51b815260206004820152601860248201527f41677265656d656e7420616c72656164792066756e64656400000000000000006044820152606490fd5b1561569e57565b60405162461bcd60e51b815260206004820152601760248201527f41677265656d656e74206973206e6f74206163746976650000000000000000006044820152606490fd5b600090808252600c6020526040822090600182019182548452600a6020526040842060046009600a84019260ff1993848154169055019182541617905560018060a01b03806002830154168552600860205260408520906004830154168552604085209160028201805490600182018092116127fb575560028301805490600182018092116127fb576000805160206158f983398151915296949260209694926007925560068101805461579c600686019182546152e2565b9055546157ae600686019182546152e2565b90550180546157c2600784019182546152e2565b9055546157d4600784019182546152e2565b90556008429101556008429101557ff19f756ff352a18ac12de7527fe3ed4e8941b69eaeb0f360dfca534224291f646040519580a2549260048152a2565b9060405191828154918282526020928383019160005283600020936000905b828210615847575050506149f192500383614992565b855484526001958601958895509381019390910190615831565b6001600160401b03811161124e5760051b60200190565b8051821015613cd15760209160051b010190565b1561589357565b60405162461bcd60e51b815260206004820152601a60248201527f4d696c6573746f6e65206e6f74207265706f72746564207965740000000000006044820152606490fdfe2f8788117e7eff1d82e926ec794901d17c78024a50270940304540a733656f0df5fbb8918491c66348a8751aa1de278550ed0c6dde1b2026a7873d90411645e471f3d55856e4058ed06ee057d79ada615f65cdf5f9ee88181b914225088f834f14823911f2da1b49f045a0929a60b8c1f2a7fc8c06c7284ca3e8ab4e193a08c8a49807205ce4d355092ef5a8a18f56e8913cf4a201fbe287825b095693c21775a2646970667358221220804233e2b48c7a7ea1712f278d1f414cd9223aaf9ec006aaddc9ebd771b54fee64736f6c634300081400336080346100f857601f61112538819003918201601f19168301916001600160401b038311848410176100fd578084926020946040528339810103126100f857516001600160a01b0390818116908190036100f857600160005560015433156100df576001600160a81b0319811633600881811b610100600160a81b03169290921760015560405194909290911c167f8be0079c531659141344cd1fd0a4f28419497f9722a3daafe3b4186f6b6457e0600080a3600060035560018060a01b0319908160025416176002553390600554161760055561101190816101148239f35b604051631e4fbdf760e01b815260006004820152602490fd5b600080fd5b634e487b7160e01b600052604160045260246000fdfe6080604081815260048036101561001557600080fd5b600092833560e01c9081632d83549c14610d3b575080633f4ba83a14610cd25780634ec7fb8114610ca957806351a89ce814610c2d5780635c975abb14610c095780635d655fb1146108f45780636789f9cb1461075b5780636c4596811461071c578063715018a6146106bb5780638456cb59146106615780638da5cb5b14610634578063b9a7579b146104ce578063ccbae5f614610337578063d1bb5cf11461030a578063e63ea4081461020a578063f2fde38b1461016e5763f49a52aa146100de57600080fd5b3461016a57602036600319011261016a576100f7610dd8565b6100ff610e04565b6001600160a01b03169182156101275750506001600160601b0360a01b600554161760055580f35b906020606492519162461bcd60e51b8352820152601b60248201527f496e76616c6964206d61726b6574706c616365206164647265737300000000006044820152fd5b8280fd5b503461016a57602036600319011261016a57610188610dd8565b610190610e04565b6001600160a01b038181169390929084156101f457505060018054610100600160a81b03198116600893841b610100600160a81b031617909155901c167f8be0079c531659141344cd1fd0a4f28419497f9722a3daafe3b4186f6b6457e08380a380f35b51631e4fbdf760e01b8152908101859052602490fd5b503461016a57606036600319011261016a57610224610dd8565b61022c610dee565b610234610e04565b6001600160a01b03818116156102c757845163a9059cbb60e01b81526001600160a01b0392909216938201938452604435602080860191909152919493919285928390036040019183918891165af19081156102be5750610293575080f35b6102b39060203d81116102b7575b6102ab8183610ec0565b810190610f7f565b5080f35b503d6102a1565b513d84823e3d90fd5b845162461bcd60e51b8152602081860152601f60248201527f43616e6e6f7420776974686472617720746f207a65726f2061646472657373006044820152606490fd5b50503461033357816003193601126103335760055490516001600160a01b039091168152602090f35b5080fd5b5091346104cb5760803660031901126104cb57610352610dd8565b9261035b610dee565b936044356064359560018060a01b0361037981600554163314610e33565b610381610e7f565b610389610e9d565b60035460001993908481146104b857600101938460035543014381116104b8578851946020860196848116946001600160601b0319809260601b16895286169560601b16603487015242604887015282606887015260888601524060a885015260a8845260e084019484861067ffffffffffffffff8711176104a557908994939291868a5284519020998a97888a52806020528a8a2092898455600184016001600160601b0360a01b908682825416179055866002860191825416179055600384015582015587600582015542600682015560070160ff1981541690558452610100820152610120015260607f0dd968c277d9dc6b36b6ec2b638324c3d937882c64ca109440bc050ebf26cb0791a26001905551908152602090f35b634e487b7160e01b885260418752602488fd5b634e487b7160e01b885260118752602488fd5b80fd5b503461016a57602080600319360112610630576005548235926001600160a01b03916104fd9083163314610e33565b610505610e7f565b61050d610e9d565b8386528083528486209161052385845414610ef8565b600783019283549361053760ff8616610f3c565b838201546005830154918282039682881161061d5760ff19169055899392919003610565575b826001815580f35b60025460019190910154885163a9059cbb60e01b81529083166001600160a01b0316948101948552602085018690529386938593909216918391829060400103925af1908115610613577f21cabc2fff910e5afd1e2bcb22ff2b165a41ab0afbaf364f07aaf2f7787fb9089495916105e49188916105f6575b50610f97565b51908152a2388080808085818061055d565b61060d9150853d87116102b7576102ab8183610ec0565b386105de565b85513d88823e3d90fd5b634e487b7160e01b8c526011875260248cfd5b8380fd5b505034610333578160031936011261033357600154905160089190911c6001600160a01b03168152602090f35b50503461033357816003193601126103335760207f62e78cea01bee320cd4e420270b5ea74000d11b0c9f74754ebdbfc544b05a2589161069f610e04565b6106a7610e7f565b600160ff198154161760015551338152a180f35b83346104cb57806003193601126104cb576106d4610e04565b60018054610100600160a81b03198116909155819060081c6001600160a01b03167f8be0079c531659141344cd1fd0a4f28419497f9722a3daafe3b4186f6b6457e08280a380f35b503461016a5781602093600860ff9361073436610dbd565b9091828552885261074a85852092835414610ef8565b835201855220541690519015158152f35b50903461016a576020806003193601126106305782359260018060a01b039161078983600554163314610e33565b610791610e7f565b610799610e9d565b848652818152838620936107af86865414610ef8565b600785019485549460ff86166108b1579083602492600254168451938480926370a0823160e01b8252308a8301525afa9182156108a7579085918a93610870575b5001541161082f5750505060ff191660011790557fb01718cc2fef93a8279b929ceca602bda7d1d2d9253d23c1cafe4b5ac2092ba48280a26001815580f35b5162461bcd60e51b815291820152601b60248201527f496e73756666696369656e742066756e64732072656365697665640000000000604482015260649150fd5b85809294508193503d83116108a0575b61088a8183610ec0565b8101031261089c5784905191386107f0565b8880fd5b503d610880565b83513d8b823e3d90fd5b50505162461bcd60e51b815291820152601860248201527f457363726f7720697320616c7265616479206163746976650000000000000000604482015260649150fd5b503461016a5761090336610dbd565b60055491936001600160a01b039261091e9084163314610e33565b610926610e7f565b61092e610e9d565b84865260208481528187209461094687875414610ef8565b600786019561095860ff885416610f3c565b601985148015610bff575b8015610bf5575b8015610beb575b15610b9b576008810191858a5282845260ff858b205416610b475760198611610ac4575b8082015460021c92868b528452848a209660ff199760018982541617905560058301805490858201809211610ab1575560028054930154865163a9059cbb60e01b81529082166001600160a01b03169281019283526020830185905292859284929091169082908d90829060400103925af1908115610aa757927f75be8d7515237236cfb3e6c6aa6f74fb8dd8db900b6f433310f89d497092d78f92610a4760649796938b968d91610a905750610f97565b825191868352820152a214610a5f575b836001815580f35b81541690557ff13b3bfa8cd084cadab3723a031c3f1c641ce6072626163d3100c1cd14c18a288280a2388080610a57565b61060d9150843d86116102b7576102ab8183610ec0565b84513d8b823e3d90fd5b634e487b7160e01b8d526011845260248dfd5b6018198601868111610b34578a5282845260ff858b20541661099557845162461bcd60e51b8152908101849052602860248201527f50726576696f7573206d696c6573746f6e6520686173206e6f74206265656e206044820152671c995b19585cd95960c21b6064820152608490fd5b634e487b7160e01b8b526011825260248bfd5b845162461bcd60e51b8152908101849052602860248201527f54686973206d696c6573746f6e652068617320616c7265616479206265656e206044820152671c995b19585cd95960c21b6064820152608490fd5b50915162461bcd60e51b815291820152602560248201527f50657263656e74616765206d7573742062652032352c2035302c2037352c206f604482015264072203130360dc1b6064820152608490fd5b5060648514610971565b50604b851461096a565b5060328514610963565b50503461033357816003193601126103335760209060ff6001541690519015158152f35b503461016a57602036600319011261016a5760c092610c5a83833592838152846020522091825414610ef8565b60018060a01b03928360018301541693600283015416926003830154908301549160ff6007600586015495015416948151968752602087015285015260608401526080830152151560a0820152f35b50503461033357816003193601126103335760025490516001600160a01b039091168152602090f35b503461016a578260031936011261016a57610ceb610e04565b6001549060ff821615610d2d575060ff1916600155513381527f5db9ee0a495bf2e6ff9c91a7834c1ba4fdd244a5e8aa4e537bd38aeae4b073aa90602090a180f35b8251638dfc202b60e01b8152fd5b92919050346106305760203660031901126106305781610100948235815282602052209081549260018060a01b039182600185015416926002850154166003850154918501549260058601549460ff600760068901549801541697895260208901528701526060860152608085015260a084015260c0830152151560e0820152f35b6040906003190112610dd3576004359060243590565b600080fd5b600435906001600160a01b0382168203610dd357565b602435906001600160a01b0382168203610dd357565b60015460081c6001600160a01b03163303610e1b57565b60405163118cdaa760e01b8152336004820152602490fd5b15610e3a57565b60405162461bcd60e51b815260206004820152601d60248201527f43616c6c6572206973206e6f7420746865206d61726b6574706c6163650000006044820152606490fd5b60ff60015416610e8b57565b60405163d93c066560e01b8152600490fd5b600260005414610eae576002600055565b604051633ee5aeb560e01b8152600490fd5b90601f8019910116810190811067ffffffffffffffff821117610ee257604052565b634e487b7160e01b600052604160045260246000fd5b15610eff57565b60405162461bcd60e51b8152602060048201526015602482015274115cd8dc9bddc8191bd95cc81b9bdd08195e1a5cdd605a1b6044820152606490fd5b15610f4357565b60405162461bcd60e51b8152602060048201526014602482015273457363726f77206973206e6f742061637469766560601b6044820152606490fd5b90816020910312610dd357518015158103610dd35790565b15610f9e57565b60405162461bcd60e51b8152602060048201526015602482015274151bdad95b881d1c985b9cd9995c8819985a5b1959605a1b6044820152606490fdfea26469706673582212208f73bd58f02e8faeaf6ba2bc11bed430b9639652a5ec300279ad80b81b2ee54864736f6c634300081400332f8788117e7eff1d82e926ec794901d17c78024a50270940304540a733656f0d",
  "linkReferences": {},
  "deployedLinkReferences": {}
}