{
    "contractName": "EnergyMarketplace",
    "abi": [
        {
            "inputs": [
                {
                    "internalType": "address",
                    "name": "_tokenAddress",
                    "type": "address"
                }
            ],
            "stateMutability": "nonpayable",
            "type": "constructor"
        },
        {
            "inputs": [],
            "name": "AccessControlBadConfirmation",
            "type": "error"
        },
        {
            "inputs": [
                {
                    "internalType": "address",
                    "name": "account",
                    "type": "address"
                },
                {
                    "internalType": "bytes32",
                    "name": "neededRole",
                    "type": "bytes32"
                }
            ],
            "name": "AccessControlUnauthorizedAccount",
            "type": "error"
        },
        {
            "inputs": [],
            "name": "EnforcedPause",
            "type": "error"
        },
        {
            "inputs": [],
            "name": "ExpectedPause",
            "type": "error"
        },
        {
            "inputs": [
                {
                    "internalType": "address",
                    "name": "owner",
                    "type": "address"
                }
            ],
            "name": "OwnableInvalidOwner",
            "type": "error"
        },
        {
            "inputs": [
                {
                    "internalType": "address",
                    "name": "account",
                    "type": "address"
                }
            ],
            "name": "OwnableUnauthorizedAccount",
            "type": "error"
        },
        {
            "inputs": [],
            "name": "ReentrancyGuardReentrantCall",
            "type": "error"
        },
        {
            "anonymous": false,
            "inputs": [
                {
                    "indexed": true,
                    "internalType": "bytes32",
                    "name": "agreementId",
                    "type": "bytes32"
                },
                {
                    "indexed": false,
                    "internalType": "string",
                    "name": "reason",
                    "type": "string"
                }
            ],
            "name": "AgreementCancelled",
            "type": "event"
        },
        {
            "anonymous": false,
            "inputs": [
                {
                    "indexed": true,
                    "internalType": "bytes32",
                    "name": "agreementId",
                    "type": "bytes32"
                },
                {
                    "indexed": true,
                    "internalType": "bytes32",
                    "name": "offerId",
                    "type": "bytes32"
                },
                {
                    "indexed": false,
                    "internalType": "address",
                    "name": "buyer",
                    "type": "address"
                },
                {
                    "indexed": false,
                    "internalType": "address",
                    "name": "seller",
                    "type": "address"
                }
            ],
            "name": "AgreementCreated",
            "type": "event"
        },
        {
            "anonymous": false,
            "inputs": [
                {
                    "indexed": true,
                    "internalType": "bytes32",
                    "name": "agreementId",
                    "type": "bytes32"
                }
            ],
            "name": "AgreementFunded",
            "type": "event"
        },
        {
            "anonymous": false,
            "inputs": [
                {
                    "indexed": true,
                    "internalType": "bytes32",
                    "name": "agreementId",
                    "type": "bytes32"
                },
                {
                    "indexed": false,
                    "internalType": "uint256",
                    "name": "percentage",
                    "type": "uint256"
                }
            ],
            "name": "EnergyDeliveryProgress",
            "type": "event"
        },
        {
            "anonymous": false,
            "inputs": [
                {
                    "indexed": true,
                    "internalType": "bytes32",
                    "name": "agreementId",
                    "type": "bytes32"
                },
                {
                    "indexed": false,
                    "internalType": "uint256",
                    "name": "percentage",
                    "type": "uint256"
                },
                {
                    "indexed": false,
                    "internalType": "string",
                    "name": "reason",
                    "type": "string"
                }
            ],
            "name": "MilestoneDisputed",
            "type": "event"
        },
        {
            "anonymous": false,
            "inputs": [
                {
                    "indexed": true,
                    "internalType": "bytes32",
                    "name": "offerId",
                    "type": "bytes32"
                },
                {
                    "indexed": false,
                    "internalType": "address",
                    "name": "sender",
                    "type": "address"
                }
            ],
            "name": "NegotiationMessageAdded",
            "type": "event"
        },
        {
            "anonymous": false,
            "inputs": [
                {
                    "indexed": true,
                    "internalType": "bytes32",
                    "name": "offerId",
                    "type": "bytes32"
                },
                {
                    "indexed": true,
                    "internalType": "address",
                    "name": "creator",
                    "type": "address"
                },
                {
                    "indexed": false,
                    "internalType": "enum EnergyMarketplace.OfferType",
                    "name": "offerType",
                    "type": "uint8"
                }
            ],
            "name": "OfferCreated",
            "type": "event"
        },
        {
            "anonymous": false,
            "inputs": [
                {
                    "indexed": true,
                    "internalType": "bytes32",
                    "name": "offerId",
                    "type": "bytes32"
                },
                {
                    "indexed": false,
                    "internalType": "enum EnergyMarketplace.OfferStatus",
                    "name": "status",
                    "type": "uint8"
                }
            ],
            "name": "OfferUpdated",
            "type": "event"
        },
        {
            "anonymous": false,
            "inputs": [
                {
                    "indexed": true,
                    "internalType": "address",
                    "name": "previousOwner",
                    "type": "address"
                },
                {
                    "indexed": true,
                    "internalType": "address",
                    "name": "newOwner",
                    "type": "address"
                }
            ],
            "name": "OwnershipTransferred",
            "type": "event"
        },
        {
            "anonymous": false,
            "inputs": [
                {
                    "indexed": false,
                    "internalType": "address",
                    "name": "account",
                    "type": "address"
                }
            ],
            "name": "Paused",
            "type": "event"
        },
        {
            "anonymous": false,
            "inputs": [
                {
                    "indexed": true,
                    "internalType": "bytes32",
                    "name": "role",
                    "type": "bytes32"
                },
                {
                    "indexed": true,
                    "internalType": "bytes32",
                    "name": "previousAdminRole",
                    "type": "bytes32"
                },
                {
                    "indexed": true,
                    "internalType": "bytes32",
                    "name": "newAdminRole",
                    "type": "bytes32"
                }
            ],
            "name": "RoleAdminChanged",
            "type": "event"
        },
        {
            "anonymous": false,
            "inputs": [
                {
                    "indexed": true,
                    "internalType": "bytes32",
                    "name": "role",
                    "type": "bytes32"
                },
                {
                    "indexed": true,
                    "internalType": "address",
                    "name": "account",
                    "type": "address"
                },
                {
                    "indexed": true,
                    "internalType": "address",
                    "name": "sender",
                    "type": "address"
                }
            ],
            "name": "RoleGranted",
            "type": "event"
        },
        {
            "anonymous": false,
            "inputs": [
                {
                    "indexed": true,
                    "internalType": "bytes32",
                    "name": "role",
                    "type": "bytes32"
                },
                {
                    "indexed": true,
                    "internalType": "address",
                    "name": "account",
                    "type": "address"
                },
                {
                    "indexed": true,
                    "internalType": "address",
                    "name": "sender",
                    "type": "address"
                }
            ],
            "name": "RoleRevoked",
            "type": "event"
        },
        {
            "anonymous": false,
            "inputs": [
                {
                    "indexed": true,
                    "internalType": "bytes32",
                    "name": "agreementId",
                    "type": "bytes32"
                }
            ],
            "name": "TradeCompleted",
            "type": "event"
        },
        {
            "anonymous": false,
            "inputs": [
                {
                    "indexed": true,
                    "internalType": "bytes32",
                    "name": "agreementId",
                    "type": "bytes32"
                },
                {
                    "indexed": false,
                    "internalType": "string",
                    "name": "reason",
                    "type": "string"
                }
            ],
            "name": "TradeRefunded",
            "type": "event"
        },
        {
            "anonymous": false,
            "inputs": [
                {
                    "indexed": false,
                    "internalType": "address",
                    "name": "account",
                    "type": "address"
                }
            ],
            "name": "Unpaused",
            "type": "event"
        },
        {
            "inputs": [],
            "name": "ADMIN_ROLE",
            "outputs": [
                {
                    "internalType": "bytes32",
                    "name": "",
                    "type": "bytes32"
                }
            ],
            "stateMutability": "view",
            "type": "function"
        },
        {
            "inputs": [],
            "name": "DEFAULT_ADMIN_ROLE",
            "outputs": [
                {
                    "internalType": "bytes32",
                    "name": "",
                    "type": "bytes32"
                }
            ],
            "stateMutability": "view",
            "type": "function"
        },
        {
            "inputs": [],
            "name": "DISPUTE_PERIOD",
            "outputs": [
                {
                    "internalType": "uint256",
                    "name": "",
                    "type": "uint256"
                }
            ],
            "stateMutability": "view",
            "type": "function"
        },
        {
            "inputs": [],
            "name": "FUNDING_TIMEOUT",
            "outputs": [
                {
                    "internalType": "uint256",
                    "name": "",
                    "type": "uint256"
                }
            ],
            "stateMutability": "view",
            "type": "function"
        },
        {
            "inputs": [],
            "name": "MODERATOR_ROLE",
            "outputs": [
                {
                    "internalType": "bytes32",
                    "name": "",
                    "type": "bytes32"
                }
            ],
            "stateMutability": "view",
            "type": "function"
        },
        {
            "inputs": [],
            "name": "USER_ROLE",
            "outputs": [
                {
                    "internalType": "bytes32",
                    "name": "",
                    "type": "bytes32"
                }
            ],
            "stateMutability": "view",
            "type": "function"
        },
        {
            "inputs": [
                {
                    "internalType": "bytes32",
                    "name": "_offerId",
                    "type": "bytes32"
                },
                {
                    "internalType": "address",
                    "name": "_counterparty",
                    "type": "address"
                }
            ],
            "name": "acceptNegotiation",
            "outputs": [],
            "stateMutability": "nonpayable",
            "type": "function"
        },
        {
            "inputs": [
                {
                    "internalType": "uint256",
                    "name": "",
                    "type": "uint256"
                }
            ],
            "name": "activeOfferIds",
            "outputs": [
                {
                    "internalType": "bytes32",
                    "name": "",
                    "type": "bytes32"
                }
            ],
            "stateMutability": "view",
            "type": "function"
        },
        {
            "inputs": [
                {
                    "internalType": "address",
                    "name": "_account",
                    "type": "address"
                }
            ],
            "name": "addAdmin",
            "outputs": [],
            "stateMutability": "nonpayable",
            "type": "function"
        },
        {
            "inputs": [
                {
                    "internalType": "address",
                    "name": "_account",
                    "type": "address"
                }
            ],
            "name": "addModerator",
            "outputs": [],
            "stateMutability": "nonpayable",
            "type": "function"
        },
        {
            "inputs": [
                {
                    "internalType": "bytes32",
                    "name": "_offerId",
                    "type": "bytes32"
                },
                {
                    "internalType": "string",
                    "name": "_message",
                    "type": "string"
                },
                {
                    "internalType": "uint256",
                    "name": "_proposedPrice",
                    "type": "uint256"
                },
                {
                    "internalType": "uint256",
                    "name": "_proposedEnergyAmount",
                    "type": "uint256"
                }
            ],
            "name": "addNegotiationMessage",
            "outputs": [],
            "stateMutability": "nonpayable",
            "type": "function"
        },
        {
            "inputs": [
                {
                    "internalType": "address",
                    "name": "_account",
                    "type": "address"
                }
            ],
            "name": "addUser",
            "outputs": [],
            "stateMutability": "nonpayable",
            "type": "function"
        },
        {
            "inputs": [
                {
                    "internalType": "bytes32",
                    "name": "",
                    "type": "bytes32"
                }
            ],
            "name": "agreements",
            "outputs": [
                {
                    "internalType": "bytes32",
                    "name": "id",
                    "type": "bytes32"
                },
                {
                    "internalType": "bytes32",
                    "name": "offerId",
                    "type": "bytes32"
                },
                {
                    "internalType": "address",
                    "name": "buyer",
                    "type": "address"
                },
                {
                    "internalType": "address",
                    "name": "seller",
                    "type": "address"
                },
                {
                    "internalType": "uint256",
                    "name": "finalEnergyAmount",
                    "type": "uint256"
                },
                {
                    "internalType": "uint256",
                    "name": "finalTotalPrice",
                    "type": "uint256"
                },
                {
                    "internalType": "uint256",
                    "name": "agreedAt",
                    "type": "uint256"
                },
                {
                    "internalType": "bytes32",
                    "name": "escrowId",
                    "type": "bytes32"
                },
                {
                    "internalType": "bool",
                    "name": "isActive",
                    "type": "bool"
                },
                {
                    "internalType": "uint256",
                    "name": "fundingDeadline",
                    "type": "uint256"
                },
                {
                    "internalType": "bool",
                    "name": "funded",
                    "type": "bool"
                }
            ],
            "stateMutability": "view",
            "type": "function"
        },
        {
            "inputs": [
                {
                    "internalType": "bytes32",
                    "name": "_offerId",
                    "type": "bytes32"
                },
                {
                    "internalType": "address",
                    "name": "_counterparty",
                    "type": "address"
                }
            ],
            "name": "cancelNegotiation",
            "outputs": [],
            "stateMutability": "nonpayable",
            "type": "function"
        },
        {
            "inputs": [
                {
                    "internalType": "bytes32",
                    "name": "_agreementId",
                    "type": "bytes32"
                }
            ],
            "name": "cancelUnfundedAgreement",
            "outputs": [],
            "stateMutability": "nonpayable",
            "type": "function"
        },
        {
            "inputs": [
                {
                    "internalType": "bytes32",
                    "name": "_offerId",
                    "type": "bytes32"
                }
            ],
            "name": "createAgreement",
            "outputs": [
                {
                    "internalType": "bytes32",
                    "name": "",
                    "type": "bytes32"
                }
            ],
            "stateMutability": "nonpayable",
            "type": "function"
        },
        {
            "inputs": [
                {
                    "internalType": "enum EnergyMarketplace.OfferType",
                    "name": "_offerType",
                    "type": "uint8"
                },
                {
                    "internalType": "uint256",
                    "name": "_energyAmount",
                    "type": "uint256"
                },
                {
                    "internalType": "uint256",
                    "name": "_pricePerUnit",
                    "type": "uint256"
                },
                {
                    "internalType": "uint256",
                    "name": "_startTime",
                    "type": "uint256"
                },
                {
                    "internalType": "uint256",
                    "name": "_endTime",
                    "type": "uint256"
                }
            ],
            "name": "createOffer",
            "outputs": [
                {
                    "internalType": "bytes32",
                    "name": "offerId",
                    "type": "bytes32"
                }
            ],
            "stateMutability": "nonpayable",
            "type": "function"
        },
        {
            "inputs": [
                {
                    "internalType": "bytes32",
                    "name": "_agreementId",
                    "type": "bytes32"
                },
                {
                    "internalType": "string",
                    "name": "_reason",
                    "type": "string"
                }
            ],
            "name": "disputeAndRefund",
            "outputs": [],
            "stateMutability": "nonpayable",
            "type": "function"
        },
        {
            "inputs": [
                {
                    "internalType": "bytes32",
                    "name": "_agreementId",
                    "type": "bytes32"
                },
                {
                    "internalType": "uint256",
                    "name": "_percentage",
                    "type": "uint256"
                },
                {
                    "internalType": "string",
                    "name": "_reason",
                    "type": "string"
                }
            ],
            "name": "disputeMilestone",
            "outputs": [],
            "stateMutability": "nonpayable",
            "type": "function"
        },
        {
            "inputs": [],
            "name": "energyToken",
            "outputs": [
                {
                    "internalType": "contract EnergyToken",
                    "name": "",
                    "type": "address"
                }
            ],
            "stateMutability": "view",
            "type": "function"
        },
        {
            "inputs": [],
            "name": "escrowContract",
            "outputs": [
                {
                    "internalType": "contract EnergyEscrow",
                    "name": "",
                    "type": "address"
                }
            ],
            "stateMutability": "view",
            "type": "function"
        },
        {
            "inputs": [
                {
                    "internalType": "bytes32",
                    "name": "_agreementId",
                    "type": "bytes32"
                },
                {
                    "internalType": "uint256",
                    "name": "_percentage",
                    "type": "uint256"
                }
            ],
            "name": "finalizeMilestone",
            "outputs": [],
            "stateMutability": "nonpayable",
            "type": "function"
        },
        {
            "inputs": [
                {
                    "internalType": "bytes32",
                    "name": "_agreementId",
                    "type": "bytes32"
                }
            ],
            "name": "fundAgreement",
            "outputs": [],
            "stateMutability": "nonpayable",
            "type": "function"
        },
        {
            "inputs": [],
            "name": "getActiveOffers",
            "outputs": [
                {
                    "internalType": "bytes32[]",
                    "name": "",
                    "type": "bytes32[]"
                }
            ],
            "stateMutability": "view",
            "type": "function"
        },
        {
            "inputs": [
                {
                    "internalType": "bytes32",
                    "name": "_offerId",
                    "type": "bytes32"
                }
            ],
            "name": "getNegotiationMessages",
            "outputs": [
                {
                    "components": [
                        {
                            "internalType": "address",
                            "name": "sender",
                            "type": "address"
                        },
                        {
                            "internalType": "uint256",
                            "name": "timestamp",
                            "type": "uint256"
                        },
                        {
                            "internalType": "string",
                            "name": "message",
                            "type": "string"
                        },
                        {
                            "internalType": "uint256",
                            "name": "proposedPrice",
                            "type": "uint256"
                        },
                        {
                            "internalType": "uint256",
                            "name": "proposedEnergyAmount",
                            "type": "uint256"
                        }
                    ],
                    "internalType": "struct EnergyMarketplace.NegotiationMessage[]",
                    "name": "",
                    "type": "tuple[]"
                }
            ],
            "stateMutability": "view",
            "type": "function"
        },
        {
            "inputs": [
                {
                    "internalType": "bytes32",
                    "name": "_offerId",
                    "type": "bytes32"
                }
            ],
            "name": "getOfferNegotiators",
            "outputs": [
                {
                    "internalType": "address[]",
                    "name": "",
                    "type": "address[]"
                }
            ],
            "stateMutability": "view",
            "type": "function"
        },
        {
            "inputs": [
                {
                    "internalType": "bytes32",
                    "name": "role",
                    "type": "bytes32"
                }
            ],
            "name": "getRoleAdmin",
            "outputs": [
                {
                    "internalType": "bytes32",
                    "name": "",
                    "type": "bytes32"
                }
            ],
            "stateMutability": "view",
            "type": "function"
        },
        {
            "inputs": [
                {
                    "internalType": "address",
                    "name": "_user",
                    "type": "address"
                }
            ],
            "name": "getUserAgreements",
            "outputs": [
                {
                    "internalType": "bytes32[]",
                    "name": "",
                    "type": "bytes32[]"
                }
            ],
            "stateMutability": "view",
            "type": "function"
        },
        {
            "inputs": [
                {
                    "internalType": "address",
                    "name": "_user",
                    "type": "address"
                }
            ],
            "name": "getUserOffers",
            "outputs": [
                {
                    "internalType": "bytes32[]",
                    "name": "",
                    "type": "bytes32[]"
                }
            ],
            "stateMutability": "view",
            "type": "function"
        },
        {
            "inputs": [
                {
                    "internalType": "bytes32",
                    "name": "role",
                    "type": "bytes32"
                },
                {
                    "internalType": "address",
                    "name": "account",
                    "type": "address"
                }
            ],
            "name": "grantRole",
            "outputs": [],
            "stateMutability": "nonpayable",
            "type": "function"
        },
        {
            "inputs": [
                {
                    "internalType": "bytes32",
                    "name": "role",
                    "type": "bytes32"
                },
                {
                    "internalType": "address",
                    "name": "account",
                    "type": "address"
                }
            ],
            "name": "hasRole",
            "outputs": [
                {
                    "internalType": "bool",
                    "name": "",
                    "type": "bool"
                }
            ],
            "stateMutability": "view",
            "type": "function"
        },
        {
            "inputs": [
                {
                    "internalType": "bytes32",
                    "name": "_offerId",
                    "type": "bytes32"
                }
            ],
            "name": "moderateOffer",
            "outputs": [],
            "stateMutability": "nonpayable",
            "type": "function"
        },
        {
            "inputs": [
                {
                    "internalType": "bytes32",
                    "name": "",
                    "type": "bytes32"
                },
                {
                    "internalType": "uint256",
                    "name": "",
                    "type": "uint256"
                }
            ],
            "name": "negotiations",
            "outputs": [
                {
                    "internalType": "address",
                    "name": "sender",
                    "type": "address"
                },
                {
                    "internalType": "uint256",
                    "name": "timestamp",
                    "type": "uint256"
                },
                {
                    "internalType": "string",
                    "name": "message",
                    "type": "string"
                },
                {
                    "internalType": "uint256",
                    "name": "proposedPrice",
                    "type": "uint256"
                },
                {
                    "internalType": "uint256",
                    "name": "proposedEnergyAmount",
                    "type": "uint256"
                }
            ],
            "stateMutability": "view",
            "type": "function"
        },
        {
            "inputs": [
                {
                    "internalType": "bytes32",
                    "name": "",
                    "type": "bytes32"
                },
                {
                    "internalType": "address",
                    "name": "",
                    "type": "address"
                }
            ],
            "name": "offerNegotiations",
            "outputs": [
                {
                    "internalType": "bool",
                    "name": "isActive",
                    "type": "bool"
                },
                {
                    "internalType": "address",
                    "name": "counterparty",
                    "type": "address"
                },
                {
                    "internalType": "uint256",
                    "name": "latestProposalIndex",
                    "type": "uint256"
                },
                {
                    "internalType": "uint256",
                    "name": "startedAt",
                    "type": "uint256"
                }
            ],
            "stateMutability": "view",
            "type": "function"
        },
        {
            "inputs": [
                {
                    "internalType": "bytes32",
                    "name": "",
                    "type": "bytes32"
                },
                {
                    "internalType": "uint256",
                    "name": "",
                    "type": "uint256"
                }
            ],
            "name": "offerNegotiators",
            "outputs": [
                {
                    "internalType": "address",
                    "name": "",
                    "type": "address"
                }
            ],
            "stateMutability": "view",
            "type": "function"
        },
        {
            "inputs": [
                {
                    "internalType": "bytes32",
                    "name": "",
                    "type": "bytes32"
                }
            ],
            "name": "offers",
            "outputs": [
                {
                    "internalType": "bytes32",
                    "name": "id",
                    "type": "bytes32"
                },
                {
                    "internalType": "address",
                    "name": "creator",
                    "type": "address"
                },
                {
                    "internalType": "enum EnergyMarketplace.OfferType",
                    "name": "offerType",
                    "type": "uint8"
                },
                {
                    "internalType": "uint256",
                    "name": "energyAmount",
                    "type": "uint256"
                },
                {
                    "internalType": "uint256",
                    "name": "pricePerUnit",
                    "type": "uint256"
                },
                {
                    "internalType": "uint256",
                    "name": "totalPrice",
                    "type": "uint256"
                },
                {
                    "internalType": "uint256",
                    "name": "startTime",
                    "type": "uint256"
                },
                {
                    "internalType": "uint256",
                    "name": "endTime",
                    "type": "uint256"
                },
                {
                    "internalType": "enum EnergyMarketplace.OfferStatus",
                    "name": "status",
                    "type": "uint8"
                },
                {
                    "internalType": "address",
                    "name": "counterparty",
                    "type": "address"
                },
                {
                    "internalType": "uint256",
                    "name": "createdAt",
                    "type": "uint256"
                }
            ],
            "stateMutability": "view",
            "type": "function"
        },
        {
            "inputs": [],
            "name": "owner",
            "outputs": [
                {
                    "internalType": "address",
                    "name": "",
                    "type": "address"
                }
            ],
            "stateMutability": "view",
            "type": "function"
        },
        {
            "inputs": [],
            "name": "pause",
            "outputs": [],
            "stateMutability": "nonpayable",
            "type": "function"
        },
        {
            "inputs": [],
            "name": "paused",
            "outputs": [
                {
                    "internalType": "bool",
                    "name": "",
                    "type": "bool"
                }
            ],
            "stateMutability": "view",
            "type": "function"
        },
        {
            "inputs": [
                {
                    "internalType": "address",
                    "name": "_account",
                    "type": "address"
                }
            ],
            "name": "removeModerator",
            "outputs": [],
            "stateMutability": "nonpayable",
            "type": "function"
        },
        {
            "inputs": [],
            "name": "renounceOwnership",
            "outputs": [],
            "stateMutability": "nonpayable",
            "type": "function"
        },
        {
            "inputs": [
                {
                    "internalType": "bytes32",
                    "name": "role",
                    "type": "bytes32"
                },
                {
                    "internalType": "address",
                    "name": "callerConfirmation",
                    "type": "address"
                }
            ],
            "name": "renounceRole",
            "outputs": [],
            "stateMutability": "nonpayable",
            "type": "function"
        },
        {
            "inputs": [
                {
                    "internalType": "bytes32",
                    "name": "_agreementId",
                    "type": "bytes32"
                },
                {
                    "internalType": "uint256",
                    "name": "_percentage",
                    "type": "uint256"
                }
            ],
            "name": "reportEnergyDelivery",
            "outputs": [],
            "stateMutability": "nonpayable",
            "type": "function"
        },
        {
            "inputs": [
                {
                    "internalType": "bytes32",
                    "name": "_agreementId",
                    "type": "bytes32"
                },
                {
                    "internalType": "uint256",
                    "name": "_percentage",
                    "type": "uint256"
                },
                {
                    "internalType": "bool",
                    "name": "buyerWins",
                    "type": "bool"
                }
            ],
            "name": "resolveDispute",
            "outputs": [],
            "stateMutability": "nonpayable",
            "type": "function"
        },
        {
            "inputs": [
                {
                    "internalType": "bytes32",
                    "name": "role",
                    "type": "bytes32"
                },
                {
                    "internalType": "address",
                    "name": "account",
                    "type": "address"
                }
            ],
            "name": "revokeRole",
            "outputs": [],
            "stateMutability": "nonpayable",
            "type": "function"
        },
        {
            "inputs": [
                {
                    "internalType": "address",
                    "name": "_newEscrowContract",
                    "type": "address"
                }
            ],
            "name": "setEscrowContract",
            "outputs": [],
            "stateMutability": "nonpayable",
            "type": "function"
        },
        {
            "inputs": [
                {
                    "internalType": "bytes32",
                    "name": "_agreementId",
                    "type": "bytes32"
                }
            ],
            "name": "startEnergyTransfer",
            "outputs": [],
            "stateMutability": "nonpayable",
            "type": "function"
        },
        {
            "inputs": [
                {
                    "internalType": "bytes4",
                    "name": "interfaceId",
                    "type": "bytes4"
                }
            ],
            "name": "supportsInterface",
            "outputs": [
                {
                    "internalType": "bool",
                    "name": "",
                    "type": "bool"
                }
            ],
            "stateMutability": "view",
            "type": "function"
        },
        {
            "inputs": [
                {
                    "internalType": "address",
                    "name": "newOwner",
                    "type": "address"
                }
            ],
            "name": "transferOwnership",
            "outputs": [],
            "stateMutability": "nonpayable",
            "type": "function"
        },
        {
            "inputs": [],
            "name": "unpause",
            "outputs": [],
            "stateMutability": "nonpayable",
            "type": "function"
        },
        {
            "inputs": [
                {
                    "internalType": "bytes32",
                    "name": "_offerId",
                    "type": "bytes32"
                },
                {
                    "internalType": "uint256",
                    "name": "_energyAmount",
                    "type": "uint256"
                },
                {
                    "internalType": "uint256",
                    "name": "_pricePerUnit",
                    "type": "uint256"
                },
                {
                    "internalType": "uint256",
                    "name": "_startTime",
                    "type": "uint256"
                },
                {
                    "internalType": "uint256",
                    "name": "_endTime",
                    "type": "uint256"
                }
            ],
            "name": "updateOffer",
            "outputs": [],
            "stateMutability": "nonpayable",
            "type": "function"
        },
        {
            "inputs": [
                {
                    "internalType": "address",
                    "name": "",
                    "type": "address"
                },
                {
                    "internalType": "uint256",
                    "name": "",
                    "type": "uint256"
                }
            ],
            "name": "userAgreements",
            "outputs": [
                {
                    "internalType": "bytes32",
                    "name": "",
                    "type": "bytes32"
                }
            ],
            "stateMutability": "view",
            "type": "function"
        },
        {
            "inputs": [
                {
                    "internalType": "address",
                    "name": "",
                    "type": "address"
                },
                {
                    "internalType": "uint256",
                    "name": "",
                    "type": "uint256"
                }
            ],
            "name": "userOffers",
            "outputs": [
                {
                    "internalType": "bytes32",
                    "name": "",
                    "type": "bytes32"
                }
            ],
            "stateMutability": "view",
            "type": "function"
        }
    ],
    "bytecode": "6080346200015b576001600160401b0390601f6200569038819003918201601f1916830191848311848410176200015f578084926020946040528339810103126200015b57516001600160a01b038082169290918390036200015b575f906001825560ff1960015416600155331562000142576003549060018060a01b031994338684161760035560405192853391167f8be0079c531659141344cd1fd0a4f28419497f9722a3daafe3b4186f6b6457e08680a3836006558086600454161760045561111580840192848410908411176200012e579183916020936200455b8439815203019082f090811562000122575016906005541617600555620001053362000173565b506200011133620001f2565b506040516142c79081620002948239f35b604051903d90823e3d90fd5b634e487b7160e01b85526041600452602485fd5b604051631e4fbdf760e01b815260048101839052602490fd5b5f80fd5b634e487b7160e01b5f52604160045260245ffd5b6001600160a01b03165f8181527fac33ff75c19e70fe83507db0d683fd3465c996598dc972688b7ace676c89077b602052604081205490919060ff16620001ee5781805260026020526040822081835260205260408220600160ff1982541617905533915f80516020620056708339815191528180a4600190565b5090565b6001600160a01b03165f8181527fe5ebfa64fca8d502a8e50c1edffd2c31ef4dad5b396e65d9f397fb028f74abc560205260408120549091907fa49807205ce4d355092ef5a8a18f56e8913cf4a201fbe287825b095693c217759060ff166200028e5780835260026020526040832082845260205260408320600160ff198254161790555f8051602062005670833981519152339380a4600190565b50509056fe60a06040526004361015610011575f80fd5b5f803560e01c806245be6f146131e057806301ffc9a71461318957806313119161146131615780632305399b14612f61578063248a9ca314612f345780632f2ff15d14612ef657806336568abe14612eae57806337d6e15e14612d4a57806338e8dfca14612c355780633f4ba83a14612bca578063421b2d8b14612b7b578063448bb3351461178b578063474d3ff014612ac45780634c27984e14612a7c5780634ec7fb8114612a53578063528064251461291757806354f2bbd6146128ec5780635c975abb146128c9578063661d2c2c1461288857806368484c7c146125b75780637048027514612568578063715018a61461250b57806375b238fc146124e3578063797669c9146124bb5780637aaf23f61461225e5780637f10c00b146122135780637ff118ef14612192578063828525bb14611c5c5780638456cb5914611c02578063869d785f14611bb35780638da5cb5b14611b8a57806391d1485414611b40578063952acc6c146118c95780639e1f68c71461181a5780639f1652d8146117ac578063a217fddf14611790578063a5bbe22b1461178b578063adb9cae61461173a578063adc3e5f7146115cd578063b532e4cb1461157e578063ba72a73e14611439578063bd5fec65146113e3578063c81e59b21461121c578063cb31fe3914610f79578063d3a164f114610d02578063d547741f14610cc0578063d9710fbe14610844578063da79cf0a146105d4578063e42a96e7146105ab578063e50e981414610525578063f2fde38b1461049b578063f42375b51461040f5763faf0bbbf14610260575f80fd5b3461040c57606036600319011261040c5760043560443560243581151582036104085761028b613e0f565b82845260096020528360408120926102a585855414613a65565b1561037b5760055460078401549192506001600160a01b031690813b1561036c57829160248392604051948593849263b9a7579b60e01b845260048401525af1801561037057610358575b505060080160ff1981541690557f6d076295600b2edccfb5c35388414d69ea1ebde72de4e48290780f5fbe0d9f28606060405160208152601f60208201527f41646d696e207265736f6c76656420696e2062757965722773206661766f72006040820152a280f35b6103619061358d565b61036c57825f6102f0565b8280fd5b6040513d84823e3d90fd5b9091600760018060a01b0360055416910154813b1561036c578291604483926040519485938492635d655fb160e01b845260048401528860248401525af18015610370576103f4575b505060207fec1d080ea1c9d6e68361e523876c215943bb6f4ca3ab455e4fac692318d9eab691604051908152a280f35b6103fd9061358d565b61036c57825f6103c4565b8380fd5b80fd5b503461040c57602036600319011261040c576104296133eb565b610431614186565b6001600160a01b03168015610456576001600160601b0360a01b600554161760055580f35b60405162461bcd60e51b815260206004820152601f60248201527f496e76616c696420657363726f7720636f6e74726163742061646472657373006044820152606490fd5b503461040c57602036600319011261040c576104b56133eb565b6104bd614186565b6001600160a01b0390811690811561050c57600354826001600160601b0360a01b821617600355167f8be0079c531659141344cd1fd0a4f28419497f9722a3daafe3b4186f6b6457e05f80a380f35b604051631e4fbdf760e01b815260048101849052602490fd5b503461040c57610534366133bb565b908252600860205260408220805482101561036c57610553925061353c565b5060018060a01b03815416600182015491610570600282016135df565b61059c60046003840154930154916040519586958652602086015260a0604086015260a0850190613401565b91606084015260808301520390f35b503461040c578060031936011261040c576005546040516001600160a01b039091168152602090f35b503461040c57602080600319360112610840576004356105f26141b2565b6105fa6141d0565b610602613dc7565b808352600982526040832061061982825414613a65565b60088101805461062b60ff8216613ab1565b61063c60ff600a8501541615613af4565b60098301544211156107fb576002830154336001600160a01b03918216149081156107eb575b5080156107c0575b8015610795575b156107505760ff1916905560010154835260078083526040842090810180546001600160a81b031916905580549091906106aa90613749565b600c545f19810190811161073c579082915f8051602061421283398151915293548652600d855260408620557fb5ab43bcf285e9fad797296514da26254613cd9bbdf4410f385d0ab4e839590d60606040518681526018878201527f46756e64696e6720646561646c696e65206578706972656400000000000000006040820152a254916040515f8152a26001815580f35b634e487b7160e01b85526011600452602485fd5b60405162461bcd60e51b815260048101869052601860248201527f4e6f7420617574686f72697a656420746f2063616e63656c00000000000000006044820152606490fd5b505f8051602061423283398151915286526002855260408620335f52855260ff60405f205416610671565b505f8051602061427283398151915286526002855260408620335f52855260ff60405f20541661066a565b905060038401541633145f610662565b60405162461bcd60e51b815260048101869052601c60248201527f46756e64696e6720646561646c696e65206e6f742065787069726564000000006044820152606490fd5b5080fd5b503461040c57602080600319360112610840576004356108626141b2565b61086a6141d0565b610872613dc7565b8083526007825260408320926004840154916002808601549561089783825414613824565b600781019060ff8254166006811015610c48578303610c5c576001906108be891515613680565b015460ff8160a01c1683811015610c4857610c2c573397906001600160a01b03166108eb8982141561395e565b6108f587336137b5565b96600160a01b6001900380928a82600554169c60405195869163665d72fb60e11b8352818516806080526004840152169d8e6024830152876044830152856064830152818c5a92608493f1938415610bec57908b918a95610bf7575b50600480546005546040516323b872dd60e01b81526001600160a01b039485169381019390935285169092166024820152604481018590529190829060649082908d9087165af1908115610bec578991610bbf575b5015610b7a5760055416803b15610b7657878091602460405180948193636789f9cb60e01b83528860048401525af18015610b6b57908891610b53575b507fe0bac39983ceda0137b6524aafbd5e9ef70274d73e348c3dd12d1ea0e427c04c818a92a28354610100600160a81b031986166001600160a81b0319909116173360081b610100600160a81b03161790935560ff1992610a43866139c2565b878752600989526040872092888455866001850155858401608051906001600160601b0360a01b91828254161790558b600386019182541617905560048401556005830155426006830155620151804201804211610b3f57967f03973cede5087787eddf0e0298afdec6ed9f15110b2282b52b6edee1a93f545c60408a9b839b966001600a888c98839f60095f805160206142128339815191529e9c0155600782015560088101838582541617905501918254161790556080518a52600b8752610b0f84838c20613785565b808a52600b8752610b2284838c20613785565b815190608051825287820152a3604051908152a255604051908152f35b634e487b7160e01b87526011600452602487fd5b610b5c9061358d565b610b6757865f6109e3565b8680fd5b6040513d8a823e3d90fd5b8780fd5b60405162461bcd60e51b8152600481018b9052601f60248201527f546f6b656e207472616e7366657220746f20657363726f77206661696c6564006044820152606490fd5b610bdf91508b3d8d11610be5575b610bd781836135bd565b8101906139aa565b5f6109a6565b503d610bcd565b6040513d8b823e3d90fd5b8281939296503d8311610c25575b610c0f81836135bd565b81010312610c215751928a9083610951565b8880fd5b503d610c05565b6001600160a01b03169633610c43818a141561395e565b6108eb565b634e487b7160e01b86526021600452602486fd5b60405162461bcd60e51b815260048101889052603660248201527f4f66666572206d757374206265206167726565642075706f6e206265666f72656044820152750818dc99585d1a5b99c8185b881859dc99595b595b9d60521b6064820152608490fd5b503461040c57604036600319011261040c57610cfe600435610ce06133d5565b908084526002602052610cf96001604086200154613e57565b614111565b5080f35b503461040c57610d11366133bb565b610d196141b2565b610d216141d0565b610d29613d61565b818352602090600982526040842091610d4484845414613a65565b610d5460ff600885015416613b40565b60038301546001600160a01b039081163303610f2557601983148015610f1b575b8015610f11575b8015610f07575b15610eb4578590600554166007850154813b1561036c578291604483926040519485938492635d655fb160e01b845260048401528960248401525af1801561037057610e9c575b5050604051606081019181831067ffffffffffffffff841117610e885760649487610e4f60017fec1d080ea1c9d6e68361e523876c215943bb6f4ca3ab455e4fac692318d9eab6958a97604052428152600b868201958387528a60408401968088525201865260408c20905181550192511515839060ff801983541691151516179055565b51815461ff00191690151560081b61ff0016179055604051848152a214610e79575b506001815580f35b610e8290613b8c565b5f610e71565b634e487b7160e01b5f52604160045260245ffd5b610ea59061358d565b610eb057845f610dca565b8480fd5b60405162461bcd60e51b815260048101839052602560248201527f50657263656e74616765206d7573742062652032352c2035302c2037352c206f604482015264072203130360dc1b6064820152608490fd5b5060648314610d83565b50604b8314610d7c565b5060328314610d75565b60405162461bcd60e51b815260048101839052602660248201527f4f6e6c792073656c6c65722063616e207265706f727420656e657267792064656044820152656c697665727960d01b6064820152608490fd5b503461040c57604036600319011261040c57600435610f966133d5565b90610f9f6141b2565b610fa76141d0565b8083526020600781526040842092610fc183855414613824565b60018481015490946001600160a01b0391821633036111c1576007019060ff928383541660068110156111ad57918091610ffd89809514613867565b16806110bf575087825b611044575b505081546001600160a81b0319168255505f805160206142128339815191529291905b541661103e604051809261347d565ba2815580f35b868952600f86526040892080548210156110b957908261106782611093946134bf565b90549060031b1c16888b52600e80895260408c20825f5289528760405f205416611099575b50506137a7565b82611007565b898c5288526040808c205f92835289528120805460ff191690558061108c565b5061100c565b868997969594939752600e9081865260408a20815f5286526110e68560405f2054166138b3565b868a528186526040808b205f92835287529020805460ff19169055889182885b611136575b5050505f8051602061421283398151915294955061102f5780546001600160a81b031916815561102f565b878b52600f87528a6040812080548310156111a6576040916111598486936134bf565b939054918c8152878c52209260031b1c165f5287528560405f20541661118857611182906137a7565b88611106565b505050505f8051602061421283398151915293948695945f8061110b565b505061110b565b634e487b7160e01b89526021600452602489fd5b60405162461bcd60e51b815260048101859052602d60248201527f4f6e6c7920746865206f666665722063726561746f722063616e2063616e636560448201526c36103732b3b7ba34b0ba34b7b760991b6064820152608490fd5b503461040c57606036600319011261040c5760043560243560443567ffffffffffffffff81116104085761125490369060040161350e565b909161125e6141b2565b6112666141d0565b61126e613dc7565b8385526009602052600b6040862061128886825414613a65565b61129860ff600883015416613b40565b6112af60018060a01b036002830154163314613c06565b828752016020526040852060018154916112ca831515613d15565b019384549160ff83161561138e5762015180810180911161137a57421161133f577ffcb7e83f02e3a70254e135a79debb7538f65d50d87b4011583b1f184d304a37d946101006113359361ffff19161790556040519384938452604060208501526040840191613c4b565b0390a26001815580f35b60405162461bcd60e51b81526020600482015260136024820152722234b9b83aba32903832b934b7b21037bb32b960691b6044820152606490fd5b634e487b7160e01b88526011600452602488fd5b60405162461bcd60e51b815260206004820152602760248201527f4d696c6573746f6e6520616c72656164792066696e616c697a6564206f7220646044820152661a5cdc1d5d195960ca1b6064820152608490fd5b503461040c57604036600319011261040c576113fd6133eb565b6001600160a01b03168152600a602052604081208054602435929083101561040c57602061142b84846134bf565b90546040519160031b1c8152f35b503461040c5760208060031936011261084057600435906114586141b2565b6114606141d0565b611468613dc7565b818352600981526040832061147f83825414613a65565b61148f60ff600883015416613ab1565b60ff600a82015416156115425760028101546001600160a01b031633036114fd579060017fec1d080ea1c9d6e68361e523876c215943bb6f4ca3ab455e4fac692318d9eab692015484526007815260076040852001600360ff19825416179055604051848152a26001815580f35b60405162461bcd60e51b815260048101839052601d60248201527f4f6e6c792062757965722063616e207374617274207472616e736665720000006044820152606490fd5b60405162461bcd60e51b81526004810183905260146024820152731059dc99595b595b9d081b9bdd08199d5b99195960621b6044820152606490fd5b503461040c57602036600319011261040c57610cfe61159b6133eb565b6115a3613e0f565b5f80516020614232833981519152835260026020526115c86001604085200154613e57565b613f8c565b503461040c57604036600319011261040c5760043560243567ffffffffffffffff811161036c5761160290369060040161350e565b61160d9291926141b2565b6116156141d0565b61161d613d61565b8184526009602052604084209261163683855414613a65565b600884019161164860ff845416613b40565b60028501546001600160a01b0393906116649085163314613c06565b8660018701968754825260076020526007604083209660055416910154813b1561036c57829160248392604051948593849263b9a7579b60e01b845260048401525af1801561037057611726575b5050600560077f6d076295600b2edccfb5c35388414d69ea1ebde72de4e48290780f5fbe0d9f289560ff19938481541690550191825416179055611703604051928392602084526020840191613c4b565b0390a2545f80516020614212833981519152602060405160058152a26001815580f35b61172f9061358d565b610b6757865f6116b2565b503461040c57602036600319011261040c5761177b60406117879261175d6133eb565b611765613dc7565b6001600160a01b03168152600b60205220613c6b565b604051918291826134d4565b0390f35b61343f565b503461040c578060031936011261040c57602090604051908152f35b503461040c57604036600319011261040c5760809060406117cb6133d5565b916004358152600e6020522060018060a01b038092165f5260205260405f209081549160026001820154910154916040519360ff81161515855260081c16602084015260408301526060820152f35b503461040c57602036600319011261040c57604061016091600435815260096020522080549060018101549060018060a01b0380600283015416906003830154166004830154600584015460068501549160078601549360ff6008880154169560ff600a60098a015499015416986040519a8b5260208b015260408a01526060890152608088015260a087015260c086015260e085015215156101008401526101208301521515610140820152f35b503461040c5760a036600319011261040c576004356064604460843560248335833582356118f56141b2565b6118fd6141d0565b611905613dc7565b8789526020966007885260408a20946119208a875414613824565b60018601546001600160a01b03163303611b005760ff600787015416976006891015611aed5788158015611ae3575b15611aa3578315611a52578415611a005761196b8689116136cc565b428611156119c257505050916119a184928460069560025f805160206142128339815191529b9a99980155816003860155613722565b6004830155600582015501556119ba604051809261347d565ba26001815580f35b7f53746172742074696d65206d75737420626520696e2074686520667574757265908a6040519362461bcd60e51b8552816004860152840152820152fd5b6084927f50726963652070657220756e6974206d757374206265206772656174657220746768616e207a65726f60c01b9260288d956040519662461bcd60e51b88526004880152860152840152820152fd5b6084927f456e6572677920616d6f756e74206d757374206265206772656174657220746866616e207a65726f60c81b9260278d956040519662461bcd60e51b88526004880152860152840152820152fd5b7f4f666665722063616e6e6f7420626520757064617465640000000000000000009060178b936040519462461bcd60e51b86526004860152840152820152fd5b506001891461194f565b50634e487b7160e01b8b5260216004528afd5b7f4f6e6c792063726561746f722063616e20757064617465206f6666657200000088601d8b936040519462461bcd60e51b86526004860152840152820152fd5b503461040c57604036600319011261040c576040611b5c6133d5565b9160043581526002602052209060018060a01b03165f52602052602060ff60405f2054166040519015158152f35b503461040c578060031936011261040c576003546040516001600160a01b039091168152602090f35b503461040c57602036600319011261040c57610cfe611bd06133eb565b611bd8613e0f565b5f8051602061423283398151915283526002602052611bfd6001604085200154613e57565b614079565b503461040c578060031936011261040c57611c1b613e0f565b611c236141b2565b600160ff19815416176001557f62e78cea01bee320cd4e420270b5ea74000d11b0c9f74754ebdbfc544b05a2586020604051338152a180f35b503461040c57608036600319011261040c57602467ffffffffffffffff813581811161040857611c9090369060040161350e565b92611c996141b2565b611ca16141d0565b611ca9613dc7565b600435855260076020526040852092611cc6600435855414613824565b6007840160ff815416600681101561217f578015908115612174575b5015612130576004358752600e60205260408720335f5260205260ff60405f2054161580612119575b612007575b805460ff81166006811015611ff45715611fc7575b505060043586526008602052604086209182549560405193611d46856135a1565b3385526020850195428752848311611fb457899060405193611d726020601f19601f84011601866135bd565b808552368183011161036c578060209283870137840101526040850191825260443560608601526064356080860152600160401b881015611fa15787611dbd9160018201815561353c565b959095611f8e57845186546001600160a01b0319166001600160a01b0391909116178655516001860155518051929091908311611f7c5750611e026002850154613555565b601f8111611f38575b50602090601f8311600114611ec7579180600494926080948a92611ebc575b50508160011b915f199060031b1c19161760028501555b606081015160038501550151910155600101546001600160a01b03163303611e9a575b506040513381527fa983694c328bf2fb0272b481569462b78d47c58e7ec32645deb922ff47d53b58602060043592a26001815580f35b6004358252600e60205260408220335f52602052600160405f2001555f611e64565b015190505f80611e2a565b906002850188526020882091885b601f1985168110611f205750926004949260019260809583601f19811610611f08575b505050811b016002850155611e41565b01515f1960f88460031b161c191690555f8080611ef8565b91926020600181928685015181550194019201611ed5565b60028501885260208820601f840160051c810160208510611f75575b601f830160051c82018110611f6a575050611e0b565b5f8155600101611f54565b5080611f54565b634e487b7160e01b8852604160045287fd5b634e487b7160e01b895260048990528289fd5b634e487b7160e01b895260416004528289fd5b634e487b7160e01b8a526041600452838afd5b60019060ff1916179055604051600181525f80516020614212833981519152602060043592a25f80611d25565b634e487b7160e01b895260216004528489fd5b60043587526008602052604087205460405160808101818110858211176121065760405260018152600260208201923384526040830190815260608301904282526004358c52600e60205260408c20335f5260205261207960405f2094511515859060ff801983541691151516179055565b93518354610100600160a81b03191660089190911b610100600160a81b03161783556001600160a01b0393516001840155519101556004358852600f60205260408820805490600160401b8210156120f357906120db916001820181556134bf565b819291549060031b9133831b921b1916179055611d10565b634e487b7160e01b8a526041600452858afd5b85634e487b7160e01b5f5260416004525ffd5b5060018501546001600160a01b0316331415611d0b565b60405162461bcd60e51b815260206004820152601e818501527f4f66666572206e6f74206f70656e20666f72206e65676f74696174696f6e00006044820152606490fd5b60019150145f611ce2565b634e487b7160e01b885260216004528388fd5b503461040c578060031936011261040c576121ab613dc7565b60405180600c5491828152602080910192600c5f527fdf6966c971051c3d54ec59162606531493a51404a002842f56009d7e5cf4a8c7915f905b8282106121fc576117878561177b818903826135bd565b8354865294850194600193840193909101906121e5565b503461040c57612222366133bb565b91908152600f6020526040812090815483101561040c57602061224584846134bf565b905460405160039290921b1c6001600160a01b03168152f35b503461040c57602080600319360112610840576004359061227d6141b2565b6122856141d0565b61228d613dc7565b8183526009815260408320906122a583835414613a65565b6122b560ff600884015416613ab1565b600a82016122c760ff82541615613af4565b600983015442116124765760028301546001600160a01b03929083163381900361243b576004805460058054908801546040516323b872dd60e01b81526001600160a01b039586169481019490945290871690931660248301526044820192909252908290829060649082908b9089165af1908115612430578791612413575b50156123d75750849291600791600160ff1982541617905560055416910154813b1561036c578291602483926040519485938492636789f9cb60e01b845260048401525af18015610370576123c3575b50807fe0bac39983ceda0137b6524aafbd5e9ef70274d73e348c3dd12d1ea0e427c04c91a26001815580f35b6123cc9061358d565b61084057815f612397565b6064906040519062461bcd60e51b825260048201526015602482015274151bdad95b881d1c985b9cd9995c8819985a5b1959605a1b6044820152fd5b61242a9150823d8411610be557610bd781836135bd565b5f612347565b6040513d89823e3d90fd5b60405162461bcd60e51b815260048101839052601360248201527213db9b1e48189d5e595c8818d85b88199d5b99606a1b6044820152606490fd5b60405162461bcd60e51b815260048101839052601760248201527f46756e64696e6720646561646c696e65207061737365640000000000000000006044820152606490fd5b503461040c578060031936011261040c5760206040515f805160206142328339815191528152f35b503461040c578060031936011261040c5760206040515f805160206142728339815191528152f35b503461040c578060031936011261040c57612524614186565b600380546001600160a01b031981169091555f906001600160a01b03167f8be0079c531659141344cd1fd0a4f28419497f9722a3daafe3b4186f6b6457e08280a380f35b503461040c57602036600319011261040c57610cfe6125856133eb565b61258d613e0f565b5f80516020614272833981519152835260026020526125b26001604085200154613e57565b613f05565b503461040c5760a036600319011261040c57600435600281101561084057606435906024356044356125e76141b2565b6125ef6141d0565b6125f7613dc7565b612602821515613680565b80156128435761261584608435116136cc565b428411156127fe576126278183613722565b906001600160a01b0361263c858216336137b5565b956040519461016086019186831067ffffffffffffffff841117610e885788958a958894604052878552602085019333855260408601948b8652606087019182526080870192835260a0870193845260c0870194855260e08701956084358752604061010089019a808c526101406101208b019a828c52019c8d42905281526007602052209b518c558860018d019251168254915160028110156127e85760ff60a01b9060a01b16916affffffffffffffffffffff60a81b16171790555160028a015551600389015551600488015551600587015551600686015560078501925160068110156111ad57835491516001600160a81b031990921660ff909116179116600890811b610100600160a81b0316919091179091559051910155338352600a60205261276e8260408520613785565b61277782613749565b600c545f1981019081116127d45792600191602094848352600d865260408320556127a5604051809261345c565b837fd4cdb9461e7bb277691704e70b4f3822a366e2a92a7e3b797154789698e07a45863393a355604051908152f35b634e487b7160e01b84526011600452602484fd5b5050634e487b7160e01b8f52602160045260248ffd5b60405162461bcd60e51b815260206004820152601c60248201527f53746172742074696d65206d75737420626520696e20667574757265000000006044820152606490fd5b60405162461bcd60e51b815260206004820152601a60248201527f50726963652070657220756e6974206d757374206265203e20300000000000006044820152606490fd5b503461040c57602036600319011261040c5761177b6040611787926128ab6133eb565b6128b3613dc7565b6001600160a01b03168152600a60205220613c6b565b503461040c578060031936011261040c57602060ff600154166040519015158152f35b503461040c57602036600319011261040c5760043590600c5482101561040c57602061142b8361348a565b503461040c576020908160031936011261040c57600435808252600f918284526129446040822054613ccf565b9181805b8282528587526040822080548210156129c05781612965916134bf565b60018060a01b0391549060031b1c16838352600e885260408320815f52885260ff60405f2054166129a0575b5061299b906137a7565b612948565b846129b9916129b361299b949789613d01565b526137a7565b9390612991565b828887876129cd81613ccf565b91845b828110612a245750505060405192828493840190808552835180925280604086019401925b828110612a0457505050500390f35b83516001600160a01b0316855286955093810193928101926001016129f5565b93949293612a4a906001600160a01b03612a3e8285613d01565b51166129b38288613d01565b949392946129d0565b503461040c578060031936011261040c576004546040516001600160a01b039091168152602090f35b503461040c57604036600319011261040c57612a966133eb565b6001600160a01b03168152600b602052604081208054602435929083101561040c57602061142b84846134bf565b503461040c57602036600319011261040c5760406101609160043581526007602052208054906001810154600282015491600381015460048201546005830154906006840154926008600786015495015496604051988952612b3f60018060a01b039788811660208c015260ff60408c019160a01c1661345c565b6060890152608088015260a087015260c086015260e0850152612b69610100850160ff831661347d565b60081c16610120830152610140820152f35b503461040c57602036600319011261040c57610cfe612b986133eb565b612ba0613e0f565b5f8051602061425283398151915283526002602052612bc56001604085200154613e57565b613e79565b503461040c578060031936011261040c57612be3613e0f565b60015460ff811615612c235760ff19166001557f5db9ee0a495bf2e6ff9c91a7834c1ba4fdd244a5e8aa4e537bd38aeae4b073aa6020604051338152a180f35b604051638dfc202b60e01b8152600490fd5b503461040c576020806003193601126108405790612c51613dc7565b60043581526008825260408120805491612c6a83613cb7565b92612c7860405194856135bd565b8084528484018093835285832083915b838310612d255750505050604051928484019085855251809152604084019460408260051b8601019392955b828710612cc15785850386f35b909192938280600192603f19898203018552875190848060a01b0382511681528282015183820152612d01604083015160a0806040850152830190613401565b91606080820151908301526080809101519101529601920196019592919092612cb4565b600588600192612d38859b9a989b61390f565b81520192019201919096939596612c88565b503461040c57602036600319011261040c57600435612d67613d61565b8082526007602052600760408320612d8183825414613824565b01805460ff81166006811015612e9a578015908115612e8f575b5015612e4a5760ff19166005179055808252600d602052604082205415801590612dee575b612de0575b5f80516020614212833981519152602060405160058152a280f35b612de9816139c2565b612dc5565b50600c541580159081612e02575b50612dc0565b9050612e3657600c5f52807fdf6966c971051c3d54ec59162606531493a51404a002842f56009d7e5cf4a8c754145f612dfc565b634e487b7160e01b5f52603260045260245ffd5b60405162461bcd60e51b815260206004820152601960248201527f4f666665722063616e6e6f74206265206d6f64657261746564000000000000006044820152606490fd5b60019150145f612d9b565b634e487b7160e01b85526021600452602485fd5b503461040c57604036600319011261040c57612ec86133d5565b336001600160a01b03821603612ee457610cfe90600435614111565b60405163334bd91960e11b8152600490fd5b503461040c57604036600319011261040c57610cfe600435612f166133d5565b908084526002602052612f2f6001604086200154613e57565b614013565b503461040c57602036600319011261040c5760016040602092600435815260028452200154604051908152f35b503461040c57604036600319011261040c57600435612f7e6133d5565b612f866141b2565b612f8e6141d0565b818352602090600782526040842090612fa984835414613824565b6007820160ff815416600681101561314d576001612fc79114613867565b60018301546001600160a01b039290831633036130f65761302890868852600e86526040882093811693845f52865261300660ff60405f2054166138b3565b8254610100600160a81b03191660089190911b610100600160a81b0316178255565b600260ff19825416179055838552600e835260408520905f528252613067613061600160405f200154858752600885526040872061353c565b5061390f565b6060810151608081151592836130eb575b01519182159081156130a5575b87875f805160206142128339815191528860405160028152a26001815580f35b8360028601556130b6575b80613085565b6130d757046003909101555f805160206142128339815191525f80806130b0565b634e487b7160e01b86526012600452602486fd5b826004860155613078565b60405162461bcd60e51b815260048101869052602960248201527f4f6e6c79206f666665722063726561746f722063616e20616363657074206e6560448201526833b7ba34b0ba34b7b760b91b6064820152608490fd5b634e487b7160e01b87526021600452602487fd5b503461040c578060031936011261040c5760206040515f805160206142528339815191528152f35b503461040c57602036600319011261040c5760043563ffffffff60e01b811680910361084057602090637965db0b60e01b81149081156131cf575b506040519015158152f35b6301ffc9a760e01b149050826131c4565b503461040c576131ef366133bb565b6131f76141b2565b6131ff6141d0565b81835260096020526040832061321783825414613a65565b61322760ff600883015416613b40565b818452600b810160205260408420906001825492613246841515613d15565b0180549260ff8416156133765760ff8460081c1661333957620151808101809111610b3f574211156132f45760ff199092169091556005546007919091015484916001600160a01b0316803b1561036c57604483926040519485938492635d655fb160e01b845260048401528760248401525af180156132e9576132d5575b50606414610e7957506001815580f35b926132e26064929461358d565b92906132c5565b6040513d86823e3d90fd5b60405162461bcd60e51b815260206004820152601760248201527f4469737075746520706572696f64206e6f74206f7665720000000000000000006044820152606490fd5b60405162461bcd60e51b8152602060048201526015602482015274135a5b195cdd1bdb99481a5cc8191a5cdc1d5d1959605a1b6044820152606490fd5b60405162461bcd60e51b815260206004820152601b60248201527f4d696c6573746f6e6520616c72656164792066696e616c697a656400000000006044820152606490fd5b60409060031901126133d1576004359060243590565b5f80fd5b602435906001600160a01b03821682036133d157565b600435906001600160a01b03821682036133d157565b91908251928382525f5b84811061342b575050825f602080949584010152601f8019910116010190565b60208183018101518483018201520161340b565b346133d1575f3660031901126133d1576020604051620151808152f35b9060028210156134695752565b634e487b7160e01b5f52602160045260245ffd5b9060068210156134695752565b600c54811015612e3657600c5f527fdf6966c971051c3d54ec59162606531493a51404a002842f56009d7e5cf4a8c701905f90565b8054821015612e36575f5260205f2001905f90565b602090816040818301928281528551809452019301915f5b8281106134fa575050505090565b8351855293810193928101926001016134ec565b9181601f840112156133d15782359167ffffffffffffffff83116133d157602083818601950101116133d157565b8054821015612e36575f52600560205f20910201905f90565b90600182811c92168015613583575b602083101461356f57565b634e487b7160e01b5f52602260045260245ffd5b91607f1691613564565b67ffffffffffffffff8111610e8857604052565b60a0810190811067ffffffffffffffff821117610e8857604052565b90601f8019910116810190811067ffffffffffffffff821117610e8857604052565b9060405191825f8254926135f284613555565b9081845260019485811690815f1461365d575060011461361d575b505061361b925003836135bd565b565b909391505f52602090815f20935f915b81831061364557505061361b93508201015f8061360d565b8554888401850152948501948794509183019161362d565b91505061361b94506020925060ff191682840152151560051b8201015f8061360d565b1561368757565b60405162461bcd60e51b815260206004820152601960248201527f456e6572677920616d6f756e74206d757374206265203e2030000000000000006044820152606490fd5b156136d357565b60405162461bcd60e51b815260206004820152602160248201527f456e642074696d65206d7573742062652061667465722073746172742074696d6044820152606560f81b6064820152608490fd5b8181029291811591840414171561373557565b634e487b7160e01b5f52601160045260245ffd5b600c54600160401b811015610e885761376b8160016137819301600c5561348a565b819391549060031b91821b915f19901b19161790565b9055565b805490600160401b821015610e88578161376b916001613781940181556134bf565b5f1981146137355760010190565b906137c16006546137a7565b806006555f19430190438211613735576040519260208401946001600160601b03199060601b168552426034850152605484015260748301524060948201526094815260c0810181811067ffffffffffffffff821117610e885760405251902090565b1561382b57565b60405162461bcd60e51b815260206004820152601460248201527313d999995c88191bd95cc81b9bdd08195e1a5cdd60621b6044820152606490fd5b1561386e57565b60405162461bcd60e51b815260206004820152601b60248201527f4f66666572206973206e6f7420696e206e65676f74696174696f6e00000000006044820152606490fd5b156138ba57565b60405162461bcd60e51b815260206004820152602760248201527f4e6f20616374697665206e65676f74696174696f6e207769746820636f756e746044820152666572706172747960c81b6064820152608490fd5b9060405161391c816135a1565b82546001600160a01b0316815260018301546020820152918290608090600490613948600282016135df565b6040850152600381015460608501520154910152565b1561396557565b60405162461bcd60e51b815260206004820152601e60248201527f43616e6e6f7420616772656520746f20796f7572206f776e206f6666657200006044820152606490fd5b908160209103126133d1575180151581036133d15790565b5f90808252600d6020526040822054600c54905f199182810190811161073c57808203613a33575b5050600c548015613a1f57810190613a018261348a565b909182549160031b1b19169055600c558152600d6020526040812055565b634e487b7160e01b84526031600452602484fd5b613a3c9061348a565b90549060031b1c80613a5061376b8461348a565b90558452600d60205260408420555f806139ea565b15613a6c57565b60405162461bcd60e51b815260206004820152601860248201527f41677265656d656e7420646f6573206e6f7420657869737400000000000000006044820152606490fd5b15613ab857565b60405162461bcd60e51b815260206004820152601460248201527341677265656d656e74206e6f742061637469766560601b6044820152606490fd5b15613afb57565b60405162461bcd60e51b815260206004820152601860248201527f41677265656d656e7420616c72656164792066756e64656400000000000000006044820152606490fd5b15613b4757565b60405162461bcd60e51b815260206004820152601760248201527f41677265656d656e74206973206e6f74206163746976650000000000000000006044820152606490fd5b5f8051602061421283398151915260205f92808452600982526040842090600182019182548652600784526004600760086040892093019260ff199384815416905501918254161790557ff19f756ff352a18ac12de7527fe3ed4e8941b69eaeb0f360dfca534224291f646040519580a2549260048152a2565b15613c0d57565b60405162461bcd60e51b81526020600482015260166024820152754f6e6c792062757965722063616e206469737075746560501b6044820152606490fd5b908060209392818452848401375f828201840152601f01601f1916010190565b906040519182815491828252602092838301915f52835f20935f905b828210613c9d5750505061361b925003836135bd565b855484526001958601958895509381019390910190613c87565b67ffffffffffffffff8111610e885760051b60200190565b90613cd982613cb7565b613ce660405191826135bd565b8281528092613cf7601f1991613cb7565b0190602036910137565b8051821015612e365760209160051b010190565b15613d1c57565b60405162461bcd60e51b815260206004820152601a60248201527f4d696c6573746f6e65206e6f74207265706f72746564207965740000000000006044820152606490fd5b335f9081527fb1ef985877d50d34e95c2aaf1c996731c63181754cd1cb73eef00b96d479196e60205260409020545f805160206142328339815191529060ff1615613da95750565b6044906040519063e2517d3f60e01b82523360048301526024820152fd5b335f9081527fbdc1bb5d8874ccf33efbb49f1d9ca0a377c75766b37dd2edbeebea1a2eb19d7360205260409020545f805160206142528339815191529060ff1615613da95750565b335f9081527fe5ebfa64fca8d502a8e50c1edffd2c31ef4dad5b396e65d9f397fb028f74abc560205260409020545f805160206142728339815191529060ff1615613da95750565b805f52600260205260405f20335f5260205260ff60405f20541615613da95750565b6001600160a01b03165f8181527fbdc1bb5d8874ccf33efbb49f1d9ca0a377c75766b37dd2edbeebea1a2eb19d7360205260408120549091905f805160206142528339815191529060ff16613f005780835260026020526040832082845260205260408320600160ff198254161790555f805160206141f2833981519152339380a4600190565b505090565b6001600160a01b03165f8181527fe5ebfa64fca8d502a8e50c1edffd2c31ef4dad5b396e65d9f397fb028f74abc560205260408120549091905f805160206142728339815191529060ff16613f005780835260026020526040832082845260205260408320600160ff198254161790555f805160206141f2833981519152339380a4600190565b6001600160a01b03165f8181527fb1ef985877d50d34e95c2aaf1c996731c63181754cd1cb73eef00b96d479196e60205260408120549091905f805160206142328339815191529060ff16613f005780835260026020526040832082845260205260408320600160ff198254161790555f805160206141f2833981519152339380a4600190565b905f918083526002602052604083209160018060a01b03169182845260205260ff604084205416155f14613f005780835260026020526040832082845260205260408320600160ff198254161790555f805160206141f2833981519152339380a4600190565b6001600160a01b03165f8181527fb1ef985877d50d34e95c2aaf1c996731c63181754cd1cb73eef00b96d479196e60205260408120549091905f805160206142328339815191529060ff1615613f00578083526002602052604083208284526020526040832060ff1981541690557ff6391f5c32d9c69d2a47ea670b442974b53935d1edc7fd64eb21e047a839171b339380a4600190565b905f918083526002602052604083209160018060a01b03169182845260205260ff6040842054165f14613f00578083526002602052604083208284526020526040832060ff1981541690557ff6391f5c32d9c69d2a47ea670b442974b53935d1edc7fd64eb21e047a839171b339380a4600190565b6003546001600160a01b0316330361419a57565b60405163118cdaa760e01b8152336004820152602490fd5b60ff600154166141be57565b60405163d93c066560e01b8152600490fd5b60025f54146141df5760025f55565b604051633ee5aeb560e01b8152600490fdfe2f8788117e7eff1d82e926ec794901d17c78024a50270940304540a733656f0df5fbb8918491c66348a8751aa1de278550ed0c6dde1b2026a7873d90411645e471f3d55856e4058ed06ee057d79ada615f65cdf5f9ee88181b914225088f834f14823911f2da1b49f045a0929a60b8c1f2a7fc8c06c7284ca3e8ab4e193a08c8a49807205ce4d355092ef5a8a18f56e8913cf4a201fbe287825b095693c21775a26469706673582212203e13a590a40a45825e76f9c7ee183ba4e59ae10328c13fa15696e1bb3feba2c064736f6c634300081400336080346100f457601f61111538819003918201601f19168301916001600160401b038311848410176100f8578084926020946040528339810103126100f457516001600160a01b0390818116908190036100f45760015f5560015433156100dc576001600160a81b0319811633600881811b610100600160a81b03169290921760015560405194909290911c167f8be0079c531659141344cd1fd0a4f28419497f9722a3daafe3b4186f6b6457e05f80a35f60035560018060a01b03199081600254161760025533906005541617600555611008908161010d8239f35b604051631e4fbdf760e01b81525f6004820152602490fd5b5f80fd5b634e487b7160e01b5f52604160045260245ffdfe60806040818152600480361015610014575f80fd5b5f92833560e01c9081632d83549c14610d37575080633f4ba83a14610cce5780634ec7fb8114610ca557806351a89ce814610c295780635c975abb14610c055780635d655fb1146108f05780636789f9cb146107575780636c45968114610718578063715018a6146106b75780638456cb591461065d5780638da5cb5b14610630578063b9a7579b146104ca578063ccbae5f614610334578063d1bb5cf114610307578063e63ea40814610207578063f2fde38b1461016b5763f49a52aa146100db575f80fd5b34610167576020366003190112610167576100f4610dd3565b6100fc610f64565b6001600160a01b03169182156101245750506001600160601b0360a01b600554161760055580f35b906020606492519162461bcd60e51b8352820152601b60248201527f496e76616c6964206d61726b6574706c616365206164647265737300000000006044820152fd5b8280fd5b503461016757602036600319011261016757610185610dd3565b61018d610f64565b6001600160a01b038181169390929084156101f157505060018054610100600160a81b03198116600893841b610100600160a81b031617909155901c167f8be0079c531659141344cd1fd0a4f28419497f9722a3daafe3b4186f6b6457e08380a380f35b51631e4fbdf760e01b8152908101859052602490fd5b503461016757606036600319011261016757610221610dd3565b610229610de9565b610231610f64565b6001600160a01b03818116156102c457845163a9059cbb60e01b81526001600160a01b0392909216938201938452604435602080860191909152919493919285928390036040019183918891165af19081156102bb5750610290575080f35b6102b09060203d81116102b4575b6102a88183610e4b565b810190610f08565b5080f35b503d61029e565b513d84823e3d90fd5b845162461bcd60e51b8152602081860152601f60248201527f43616e6e6f7420776974686472617720746f207a65726f2061646472657373006044820152606490fd5b50503461033057816003193601126103305760055490516001600160a01b039091168152602090f35b5080fd5b5091346104c75760803660031901126104c75761034f610dd3565b92610358610de9565b936044356064359560018060a01b0361037681600554163314610dff565b61037e610f93565b610386610fb1565b6003545f1993908481146104b457600101938460035543014381116104b4578851946020860196848116946001600160601b0319809260601b16895286169560601b16603487015242604887015282606887015260888601524060a885015260a8845260e084019484861067ffffffffffffffff8711176104a157908994939291868a5284519020998a97888a52806020528a8a2092898455600184016001600160601b0360a01b908682825416179055866002860191825416179055600384015582015587600582015542600682015560070160ff1981541690558452610100820152610120015260607f0dd968c277d9dc6b36b6ec2b638324c3d937882c64ca109440bc050ebf26cb0791a26001905551908152602090f35b634e487b7160e01b885260418752602488fd5b634e487b7160e01b885260118752602488fd5b80fd5b50346101675760208060031936011261062c576005548235926001600160a01b03916104f99083163314610dff565b610501610f93565b610509610fb1565b8386528083528486209161051f85845414610e81565b600783019283549361053360ff8616610ec5565b83820154600583015491828203968288116106195760ff19169055899392919003610561575b826001815580f35b60025460019190910154885163a9059cbb60e01b81529083166001600160a01b0316948101948552602085018690529386938593909216918391829060400103925af190811561060f577f21cabc2fff910e5afd1e2bcb22ff2b165a41ab0afbaf364f07aaf2f7787fb9089495916105e09188916105f2575b50610f20565b51908152a25f80808080858180610559565b6106099150853d87116102b4576102a88183610e4b565b5f6105da565b85513d88823e3d90fd5b634e487b7160e01b8c526011875260248cfd5b8380fd5b505034610330578160031936011261033057600154905160089190911c6001600160a01b03168152602090f35b50503461033057816003193601126103305760207f62e78cea01bee320cd4e420270b5ea74000d11b0c9f74754ebdbfc544b05a2589161069b610f64565b6106a3610f93565b600160ff198154161760015551338152a180f35b83346104c757806003193601126104c7576106d0610f64565b60018054610100600160a81b03198116909155819060081c6001600160a01b03167f8be0079c531659141344cd1fd0a4f28419497f9722a3daafe3b4186f6b6457e08280a380f35b50346101675781602093600860ff9361073036610db9565b9091828552885261074685852092835414610e81565b835201855220541690519015158152f35b5090346101675760208060031936011261062c5782359260018060a01b039161078583600554163314610dff565b61078d610f93565b610795610fb1565b848652818152838620936107ab86865414610e81565b600785019485549460ff86166108ad579083602492600254168451938480926370a0823160e01b8252308a8301525afa9182156108a3579085918a9361086c575b5001541161082b5750505060ff191660011790557fb01718cc2fef93a8279b929ceca602bda7d1d2d9253d23c1cafe4b5ac2092ba48280a26001815580f35b5162461bcd60e51b815291820152601b60248201527f496e73756666696369656e742066756e64732072656365697665640000000000604482015260649150fd5b85809294508193503d831161089c575b6108868183610e4b565b8101031261089857849051915f6107ec565b8880fd5b503d61087c565b83513d8b823e3d90fd5b50505162461bcd60e51b815291820152601860248201527f457363726f7720697320616c7265616479206163746976650000000000000000604482015260649150fd5b5034610167576108ff36610db9565b60055491936001600160a01b039261091a9084163314610dff565b610922610f93565b61092a610fb1565b84865260208481528187209461094287875414610e81565b600786019561095460ff885416610ec5565b601985148015610bfb575b8015610bf1575b8015610be7575b15610b97576008810191858a5282845260ff858b205416610b435760198611610ac0575b8082015460021c92868b528452848a209660ff199760018982541617905560058301805490858201809211610aad575560028054930154865163a9059cbb60e01b81529082166001600160a01b03169281019283526020830185905292859284929091169082908d90829060400103925af1908115610aa357927f75be8d7515237236cfb3e6c6aa6f74fb8dd8db900b6f433310f89d497092d78f92610a4360649796938b968d91610a8c5750610f20565b825191868352820152a214610a5b575b836001815580f35b81541690557ff13b3bfa8cd084cadab3723a031c3f1c641ce6072626163d3100c1cd14c18a288280a25f8080610a53565b6106099150843d86116102b4576102a88183610e4b565b84513d8b823e3d90fd5b634e487b7160e01b8d526011845260248dfd5b6018198601868111610b30578a5282845260ff858b20541661099157845162461bcd60e51b8152908101849052602860248201527f50726576696f7573206d696c6573746f6e6520686173206e6f74206265656e206044820152671c995b19585cd95960c21b6064820152608490fd5b634e487b7160e01b8b526011825260248bfd5b845162461bcd60e51b8152908101849052602860248201527f54686973206d696c6573746f6e652068617320616c7265616479206265656e206044820152671c995b19585cd95960c21b6064820152608490fd5b50915162461bcd60e51b815291820152602560248201527f50657263656e74616765206d7573742062652032352c2035302c2037352c206f604482015264072203130360dc1b6064820152608490fd5b506064851461096d565b50604b8514610966565b506032851461095f565b50503461033057816003193601126103305760209060ff6001541690519015158152f35b50346101675760203660031901126101675760c092610c5683833592838152846020522091825414610e81565b60018060a01b03928360018301541693600283015416926003830154908301549160ff6007600586015495015416948151968752602087015285015260608401526080830152151560a0820152f35b50503461033057816003193601126103305760025490516001600160a01b039091168152602090f35b5034610167578260031936011261016757610ce7610f64565b6001549060ff821615610d29575060ff1916600155513381527f5db9ee0a495bf2e6ff9c91a7834c1ba4fdd244a5e8aa4e537bd38aeae4b073aa90602090a180f35b8251638dfc202b60e01b8152fd5b929190503461062c57602036600319011261062c5781610100948235815282602052209081549260018060a01b039182600185015416926002850154166003850154918501549260058601549460ff600760068901549801541697895260208901528701526060860152608085015260a084015260c0830152151560e0820152f35b6040906003190112610dcf576004359060243590565b5f80fd5b600435906001600160a01b0382168203610dcf57565b602435906001600160a01b0382168203610dcf57565b15610e0657565b60405162461bcd60e51b815260206004820152601d60248201527f43616c6c6572206973206e6f7420746865206d61726b6574706c6163650000006044820152606490fd5b90601f8019910116810190811067ffffffffffffffff821117610e6d57604052565b634e487b7160e01b5f52604160045260245ffd5b15610e8857565b60405162461bcd60e51b8152602060048201526015602482015274115cd8dc9bddc8191bd95cc81b9bdd08195e1a5cdd605a1b6044820152606490fd5b15610ecc57565b60405162461bcd60e51b8152602060048201526014602482015273457363726f77206973206e6f742061637469766560601b6044820152606490fd5b90816020910312610dcf57518015158103610dcf5790565b15610f2757565b60405162461bcd60e51b8152602060048201526015602482015274151bdad95b881d1c985b9cd9995c8819985a5b1959605a1b6044820152606490fd5b60015460081c6001600160a01b03163303610f7b57565b60405163118cdaa760e01b8152336004820152602490fd5b60ff60015416610f9f57565b60405163d93c066560e01b8152600490fd5b60025f5414610fc05760025f55565b604051633ee5aeb560e01b8152600490fdfea2646970667358221220b7ec557bc11bc5bcd9c4f6cd2696e12221dc00157a6524763f205c68e130fd7464736f6c634300081400332f8788117e7eff1d82e926ec794901d17c78024a50270940304540a733656f0d",
    "sourcePath": "c:/Users/user/Mahmoud_Desktop/Desktop/Mahmoud/University/2025/Capstone_II/Equilux_Energy/web3/Web3_Smart_Contracts/contracts/EnergyMarketPlace.sol",
    "compiler": {
        "name": "solc",
        "version": "0.8.20+commit.a1b79de6"
    },
    "functionHashes": {
        "ADMIN_ROLE()": "75b238fc",
        "DEFAULT_ADMIN_ROLE()": "a217fddf",
        "DISPUTE_PERIOD()": "a5bbe22b",
        "FUNDING_TIMEOUT()": "448bb335",
        "MODERATOR_ROLE()": "797669c9",
        "USER_ROLE()": "13119161",
        "acceptNegotiation(bytes32,address)": "2305399b",
        "activeOfferIds(uint256)": "54f2bbd6",
        "addAdmin(address)": "70480275",
        "addModerator(address)": "b532e4cb",
        "addNegotiationMessage(bytes32,string,uint256,uint256)": "828525bb",
        "addUser(address)": "421b2d8b",
        "agreements(bytes32)": "9e1f68c7",
        "cancelNegotiation(bytes32,address)": "cb31fe39",
        "cancelUnfundedAgreement(bytes32)": "da79cf0a",
        "createAgreement(bytes32)": "d9710fbe",
        "createOffer(uint8,uint256,uint256,uint256,uint256)": "68484c7c",
        "disputeAndRefund(bytes32,string)": "adc3e5f7",
        "disputeMilestone(bytes32,uint256,string)": "c81e59b2",
        "energyToken()": "4ec7fb81",
        "escrowContract()": "e42a96e7",
        "finalizeMilestone(bytes32,uint256)": "0045be6f",
        "fundAgreement(bytes32)": "7aaf23f6",
        "getActiveOffers()": "7ff118ef",
        "getNegotiationMessages(bytes32)": "38e8dfca",
        "getOfferNegotiators(bytes32)": "52806425",
        "getRoleAdmin(bytes32)": "248a9ca3",
        "getUserAgreements(address)": "adb9cae6",
        "getUserOffers(address)": "661d2c2c",
        "grantRole(bytes32,address)": "2f2ff15d",
        "hasRole(bytes32,address)": "91d14854",
        "moderateOffer(bytes32)": "37d6e15e",
        "negotiations(bytes32,uint256)": "e50e9814",
        "offerNegotiations(bytes32,address)": "9f1652d8",
        "offerNegotiators(bytes32,uint256)": "7f10c00b",
        "offers(bytes32)": "474d3ff0",
        "owner()": "8da5cb5b",
        "pause()": "8456cb59",
        "paused()": "5c975abb",
        "removeModerator(address)": "869d785f",
        "renounceOwnership()": "715018a6",
        "renounceRole(bytes32,address)": "36568abe",
        "reportEnergyDelivery(bytes32,uint256)": "d3a164f1",
        "resolveDispute(bytes32,uint256,bool)": "faf0bbbf",
        "revokeRole(bytes32,address)": "d547741f",
        "setEscrowContract(address)": "f42375b5",
        "startEnergyTransfer(bytes32)": "ba72a73e",
        "supportsInterface(bytes4)": "01ffc9a7",
        "transferOwnership(address)": "f2fde38b",
        "unpause()": "3f4ba83a",
        "updateOffer(bytes32,uint256,uint256,uint256,uint256)": "952acc6c",
        "userAgreements(address,uint256)": "4c27984e",
        "userOffers(address,uint256)": "bd5fec65"
    },
    "gasEstimates": {
        "creation": {
            "codeDepositCost": "3419000",
            "executionCost": "infinite",
            "totalCost": "infinite"
        },
        "external": {
            "ADMIN_ROLE()": "670",
            "DEFAULT_ADMIN_ROLE()": "927",
            "DISPUTE_PERIOD()": "955",
            "FUNDING_TIMEOUT()": "405",
            "MODERATOR_ROLE()": "692",
            "USER_ROLE()": "230",
            "acceptNegotiation(bytes32,address)": "infinite",
            "activeOfferIds(uint256)": "6926",
            "addAdmin(address)": "infinite",
            "addModerator(address)": "infinite",
            "addNegotiationMessage(bytes32,string,uint256,uint256)": "infinite",
            "addUser(address)": "infinite",
            "agreements(bytes32)": "24361",
            "cancelNegotiation(bytes32,address)": "infinite",
            "cancelUnfundedAgreement(bytes32)": "infinite",
            "createAgreement(bytes32)": "infinite",
            "createOffer(uint8,uint256,uint256,uint256,uint256)": "infinite",
            "disputeAndRefund(bytes32,string)": "infinite",
            "disputeMilestone(bytes32,uint256,string)": "infinite",
            "energyToken()": "2589",
            "escrowContract()": "3337",
            "finalizeMilestone(bytes32,uint256)": "infinite",
            "fundAgreement(bytes32)": "infinite",
            "getActiveOffers()": "infinite",
            "getNegotiationMessages(bytes32)": "infinite",
            "getOfferNegotiators(bytes32)": "infinite",
            "getRoleAdmin(bytes32)": "2417",
            "getUserAgreements(address)": "infinite",
            "getUserOffers(address)": "infinite",
            "grantRole(bytes32,address)": "33354",
            "hasRole(bytes32,address)": "3169",
            "moderateOffer(bytes32)": "infinite",
            "negotiations(bytes32,uint256)": "infinite",
            "offerNegotiations(bytes32,address)": "7528",
            "offerNegotiators(bytes32,uint256)": "7294",
            "offers(bytes32)": "19791",
            "owner()": "2941",
            "pause()": "infinite",
            "paused()": "2643",
            "removeModerator(address)": "infinite",
            "renounceOwnership()": "28523",
            "renounceRole(bytes32,address)": "28930",
            "reportEnergyDelivery(bytes32,uint256)": "infinite",
            "resolveDispute(bytes32,uint256,bool)": "infinite",
            "revokeRole(bytes32,address)": "34193",
            "setEscrowContract(address)": "27758",
            "startEnergyTransfer(bytes32)": "infinite",
            "supportsInterface(bytes4)": "300",
            "transferOwnership(address)": "29262",
            "unpause()": "infinite",
            "updateOffer(bytes32,uint256,uint256,uint256,uint256)": "infinite",
            "userAgreements(address,uint256)": "7055",
            "userOffers(address,uint256)": "7671"
        },
        "internal": {
            "_removeFromActiveOffers(bytes32)": "42959",
            "completeAgreement(bytes32)": "infinite",
            "generateUniqueId(address,uint256)": "infinite"
        }
    }
}