{
  "_format": "hh-sol-artifact-1",
  "contractName": "EnergyTrade",
  "sourceName": "contracts/EnergyTrade.sol",
  "abi": [
    {
      "inputs": [
        {
          "internalType": "address",
          "name": "tokenAddress",
          "type": "address"
        }
      ],
      "stateMutability": "nonpayable",
      "type": "constructor"
    },
    {
      "inputs": [],
      "name": "ReentrancyGuardReentrantCall",
      "type": "error"
    },
    {
      "anonymous": false,
      "inputs": [],
      "name": "EmergencyStopActivated",
      "type": "event"
    },
    {
      "anonymous": false,
      "inputs": [],
      "name": "EmergencyStopDeactivated",
      "type": "event"
    },
    {
      "anonymous": false,
      "inputs": [
        {
          "indexed": true,
          "internalType": "address",
          "name": "producer",
          "type": "address"
        },
        {
          "indexed": false,
          "internalType": "uint256",
          "name": "amount",
          "type": "uint256"
        },
        {
          "indexed": false,
          "internalType": "uint256",
          "name": "pricePerUnit",
          "type": "uint256"
        },
        {
          "indexed": false,
          "internalType": "uint256",
          "name": "offerId",
          "type": "uint256"
        }
      ],
      "name": "EnergyDeposited",
      "type": "event"
    },
    {
      "anonymous": false,
      "inputs": [
        {
          "indexed": false,
          "internalType": "uint256",
          "name": "offerId",
          "type": "uint256"
        }
      ],
      "name": "EnergyOfferCanceled",
      "type": "event"
    },
    {
      "anonymous": false,
      "inputs": [
        {
          "indexed": true,
          "internalType": "address",
          "name": "buyer",
          "type": "address"
        },
        {
          "indexed": true,
          "internalType": "address",
          "name": "producer",
          "type": "address"
        },
        {
          "indexed": false,
          "internalType": "uint256",
          "name": "amount",
          "type": "uint256"
        },
        {
          "indexed": false,
          "internalType": "uint256",
          "name": "price",
          "type": "uint256"
        }
      ],
      "name": "EnergyPurchased",
      "type": "event"
    },
    {
      "anonymous": false,
      "inputs": [
        {
          "indexed": true,
          "internalType": "address",
          "name": "producer",
          "type": "address"
        },
        {
          "indexed": false,
          "internalType": "uint256",
          "name": "amount",
          "type": "uint256"
        }
      ],
      "name": "EnergyWithdrawn",
      "type": "event"
    },
    {
      "anonymous": false,
      "inputs": [
        {
          "indexed": true,
          "internalType": "address",
          "name": "participant",
          "type": "address"
        },
        {
          "indexed": false,
          "internalType": "string",
          "name": "name",
          "type": "string"
        }
      ],
      "name": "ParticipantRegistered",
      "type": "event"
    },
    {
      "inputs": [
        {
          "internalType": "uint256",
          "name": "offerId",
          "type": "uint256"
        }
      ],
      "name": "cancelEnergyOffer",
      "outputs": [],
      "stateMutability": "nonpayable",
      "type": "function"
    },
    {
      "inputs": [],
      "name": "deactivateEmergencyStop",
      "outputs": [],
      "stateMutability": "nonpayable",
      "type": "function"
    },
    {
      "inputs": [
        {
          "internalType": "uint256",
          "name": "amount",
          "type": "uint256"
        },
        {
          "internalType": "uint256",
          "name": "pricePerUnit",
          "type": "uint256"
        }
      ],
      "name": "depositEnergy",
      "outputs": [],
      "stateMutability": "nonpayable",
      "type": "function"
    },
    {
      "inputs": [
        {
          "internalType": "address",
          "name": "buyerAddress",
          "type": "address"
        },
        {
          "internalType": "address",
          "name": "sellerAddress",
          "type": "address"
        },
        {
          "internalType": "uint256",
          "name": "transactionId",
          "type": "uint256"
        }
      ],
      "name": "disputeTransaction",
      "outputs": [],
      "stateMutability": "nonpayable",
      "type": "function"
    },
    {
      "inputs": [],
      "name": "emergencyStop",
      "outputs": [],
      "stateMutability": "nonpayable",
      "type": "function"
    },
    {
      "inputs": [
        {
          "internalType": "uint256",
          "name": "",
          "type": "uint256"
        }
      ],
      "name": "energyOffers",
      "outputs": [
        {
          "internalType": "address",
          "name": "producer",
          "type": "address"
        },
        {
          "internalType": "uint256",
          "name": "amount",
          "type": "uint256"
        },
        {
          "internalType": "uint256",
          "name": "pricePerUnit",
          "type": "uint256"
        },
        {
          "internalType": "bool",
          "name": "isActive",
          "type": "bool"
        }
      ],
      "stateMutability": "view",
      "type": "function"
    },
    {
      "inputs": [],
      "name": "energyToken",
      "outputs": [
        {
          "internalType": "contract IERC20",
          "name": "",
          "type": "address"
        }
      ],
      "stateMutability": "view",
      "type": "function"
    },
    {
      "inputs": [],
      "name": "getEnergyOffers",
      "outputs": [
        {
          "components": [
            {
              "internalType": "address",
              "name": "producer",
              "type": "address"
            },
            {
              "internalType": "uint256",
              "name": "amount",
              "type": "uint256"
            },
            {
              "internalType": "uint256",
              "name": "pricePerUnit",
              "type": "uint256"
            },
            {
              "internalType": "bool",
              "name": "isActive",
              "type": "bool"
            }
          ],
          "internalType": "struct EnergyTrade.EnergyOffer[]",
          "name": "",
          "type": "tuple[]"
        }
      ],
      "stateMutability": "view",
      "type": "function"
    },
    {
      "inputs": [
        {
          "internalType": "address",
          "name": "participantAddress",
          "type": "address"
        }
      ],
      "name": "getTradeHistory",
      "outputs": [
        {
          "components": [
            {
              "internalType": "address",
              "name": "buyer",
              "type": "address"
            },
            {
              "internalType": "address",
              "name": "seller",
              "type": "address"
            },
            {
              "internalType": "uint256",
              "name": "amount",
              "type": "uint256"
            },
            {
              "internalType": "uint256",
              "name": "price",
              "type": "uint256"
            },
            {
              "internalType": "uint256",
              "name": "timestamp",
              "type": "uint256"
            }
          ],
          "internalType": "struct EnergyTrade.Trade[]",
          "name": "",
          "type": "tuple[]"
        }
      ],
      "stateMutability": "view",
      "type": "function"
    },
    {
      "inputs": [
        {
          "internalType": "address",
          "name": "tokenAddress",
          "type": "address"
        }
      ],
      "name": "initializeTradingPlatform",
      "outputs": [],
      "stateMutability": "nonpayable",
      "type": "function"
    },
    {
      "inputs": [],
      "name": "offerCounter",
      "outputs": [
        {
          "internalType": "uint256",
          "name": "",
          "type": "uint256"
        }
      ],
      "stateMutability": "view",
      "type": "function"
    },
    {
      "inputs": [
        {
          "internalType": "address",
          "name": "",
          "type": "address"
        }
      ],
      "name": "participants",
      "outputs": [
        {
          "internalType": "string",
          "name": "name",
          "type": "string"
        },
        {
          "internalType": "bool",
          "name": "isRegistered",
          "type": "bool"
        }
      ],
      "stateMutability": "view",
      "type": "function"
    },
    {
      "inputs": [
        {
          "internalType": "uint256",
          "name": "offerId",
          "type": "uint256"
        },
        {
          "internalType": "uint256",
          "name": "amount",
          "type": "uint256"
        }
      ],
      "name": "purchaseEnergy",
      "outputs": [],
      "stateMutability": "nonpayable",
      "type": "function"
    },
    {
      "inputs": [
        {
          "internalType": "address",
          "name": "participantAddress",
          "type": "address"
        },
        {
          "internalType": "string",
          "name": "name",
          "type": "string"
        }
      ],
      "name": "registerParticipant",
      "outputs": [],
      "stateMutability": "nonpayable",
      "type": "function"
    },
    {
      "inputs": [],
      "name": "stopped",
      "outputs": [
        {
          "internalType": "bool",
          "name": "",
          "type": "bool"
        }
      ],
      "stateMutability": "view",
      "type": "function"
    },
    {
      "inputs": [
        {
          "internalType": "address",
          "name": "",
          "type": "address"
        },
        {
          "internalType": "uint256",
          "name": "",
          "type": "uint256"
        }
      ],
      "name": "tradeHistory",
      "outputs": [
        {
          "internalType": "address",
          "name": "buyer",
          "type": "address"
        },
        {
          "internalType": "address",
          "name": "seller",
          "type": "address"
        },
        {
          "internalType": "uint256",
          "name": "amount",
          "type": "uint256"
        },
        {
          "internalType": "uint256",
          "name": "price",
          "type": "uint256"
        },
        {
          "internalType": "uint256",
          "name": "timestamp",
          "type": "uint256"
        }
      ],
      "stateMutability": "view",
      "type": "function"
    },
    {
      "inputs": [
        {
          "internalType": "uint256",
          "name": "offerId",
          "type": "uint256"
        },
        {
          "internalType": "uint256",
          "name": "amount",
          "type": "uint256"
        }
      ],
      "name": "withdrawEnergy",
      "outputs": [],
      "stateMutability": "nonpayable",
      "type": "function"
    }
  ],
  "bytecode": "0x60803461007f57601f61130b38819003918201601f19168301916001600160401b038311848410176100845780849260209460405283398101031261007f57516001600160a01b0381169081900361007f57600160005560ff196006541660065560018060a01b03196001541617600155604051611270908161009b8239f35b600080fd5b634e487b7160e01b600052604160045260246000fdfe60406080815260048036101561001457600080fd5b600090813560e01c90816302a517ab14610e6b57816303b5baae14610c1757816309e69ede14610b2157816320cf1c16146109fb5781632caa99db1461092d57816331f3ab37146106725781633fa2f8011461061a5781634ec7fb81146105f157816356eb088b1461056d578163621044b41461053457816363a599a4146104ef57816368df5711146103b157816375f12b211461038d5781639f2663d214610333578163a5b7d8351461028e57508063b7a3c1da1461026b5763ea493db6146100dd57600080fd5b34610268578060031936011261026857906005546100fa8161120e565b9261010783519485610f66565b818452601f196101168361120e565b01815b8181106102305750508091600192835b8281111561019957505050825192602080850191818652865180935281818701970193905b83821061015b5786880387f35b845180516001600160a01b0316895283810151848a015281810151828a0152606090810151151590890152608090970196938201939085019061014e565b8084969497959752600360209080825260ff868920918201541690816101d1575b5050506101c690611083565b959395949294610129565b916101c69394916002610227948951936101ea85610f4a565b81546001600160a01b031685528d82015490850152015488830152151560608201526102168289611226565b526102218188611226565b50611083565b919038806101ba565b6020908593959694965161024381610f4a565b8681528287818301528786830152876060830152828701015201949294939193610119565b80fd5b50903461028a578160031936011261028a576020906005549051908152f35b5080fd5b8391503461032f57602036600319011261032f577fc08033a1471ba43a35f49ebb61c3ef344b52f4a9b4369c4723e0ca50a09cc893916020913590338552600283526102e260ff6001838820015416610ffa565b6102f160ff6006541615611037565b81855260038084528186208054610312906001600160a01b031633146111cf565b01805461032160ff82166110a8565b60ff1916905551908152a180f35b8280fd5b82843461028a57606036600319011261028a5761034e610ec8565b506024356001600160a01b0381160361028a5760ff600161037b9233855260026020528420015416610ffa565b61038a60ff6006541615611037565b80f35b82843461028a578160031936011261028a5760209060ff6006541690519015158152f35b8391503461032f576103c236610ead565b929092338552602092600284526103e160ff6001858920015416610ffa565b6103f060ff6006541615611037565b84156104ae5750610476610405600554611083565b80600555600384519161041783610f4a565b338352868301888152868401908682526060850192600184528b52838952878b209460018060a01b039051166001600160601b0360a01b86541617855551600185015551600284015551151591019060ff801983541691151516179055565b6005549282519485528401528201527f14b07b963a834e1ea737910357471f18fe3af5ea9035fcfd6bdfd62d1b48308060603392a280f35b606490848085519262461bcd60e51b845283015260248201527f416d6f756e74206d7573742062652067726561746572207468616e207a65726f6044820152fd5b8234610268578060031936011261026857600160ff1960065416176006557f4e360eaf5c2a0e4ebb03155da87ffa096252cc2ec66db5848b4ef13e99172bbd8180a180f35b8234610268576020366003190112610268576001600160a01b03610556610ec8565b166001600160601b0360a01b600154161760015580f35b9050823461032f578060031936011261032f57610588610ec8565b6001600160a01b039081168452602083905281842080546024359592949290861015610268575060a0946105bb91610fc8565b50908382541693600183015416926002830154916003840154930154938151958652602086015284015260608301526080820152f35b82843461028a578160031936011261028a5760015490516001600160a01b039091168152602090f35b8391503461032f57602036600319011261032f5760809282913581526003602052209060018060a01b038254169160018101549160ff6003600284015493015416928151948552602085015283015215156060820152f35b8391503461032f578160031936011261032f5761068d610ec8565b9060249283359167ffffffffffffffff9485841161092957366023850112156109295783820135908682116109185783519588602096601f19946106d88987601f840116018b610f66565b808a523685828401011161032f5780858a9301838c01378901015260018060a01b0316968789526002865260019260ff84878c200154166108e157855194868601868110848211176108cf578752888652878601938585528a8c5260028952878c2096519182519485116108be5750506107528654610ede565b601f8111610878575b508a8892601f85116001146107ed575092807fbdb8c03a851fc898fb30c8b14ee28c26374ac77692867f54fbf009402f516e619a999896936107cd96936107dc9996926107e2575b5050600019600383901b1c191690831b1783555b51151591019060ff801983541691151516179055565b51928284938452830190610f88565b0390a280f35b015190508d806107a3565b878d52898d209392915084168c5b81811061086357509386936107cd96937fbdb8c03a851fc898fb30c8b14ee28c26374ac77692867f54fbf009402f516e619c9b9a9893836107dc9b981061084a575b505050811b0183556107b7565b015160001960f88460031b161c191690558d808061083d565b82840151855593870193928a01928a016107fb565b868c52888c20601f850160051c8101918a86106108b4575b601f0160051c019086905b8281106108a957505061075b565b8d815501869061089b565b9091508190610890565b634e487b7160e01b8d52604190528bfd5b634e487b7160e01b8c5260418252848cfd5b855162461bcd60e51b815280860188905260128185015271105b1c9958591e481c9959da5cdd195c995960721b6044820152606490fd5b634e487b7160e01b88526041835287fd5b8680fd5b82843461028a5761093d36610ead565b9190338452600260205261095960ff6001848720015416610ffa565b61096860ff6006541615611037565b835260036020528083208054610988906001600160a01b031633146111cf565b6003810190600182549161099e60ff84166110a8565b016109b68582546109b1828210156110e7565b611133565b809155156109ee575b5050519081527f3e191f34827057ae7a024d0827da720a2f1b54e6955366eb13e7e12493a9f8a360203392a280f35b60ff1916905583806109bf565b91905034610268576020918260031936011261028a576001600160a01b0392919083610a25610ec8565b168252808352848220928354610a3a8161120e565b92610a4788519485610f66565b81845282840190819686528386209086925b898b868610610acd5795505050505050519481860192828752518093528686019493905b838210610a8a5786860387f35b8451805182168752808401518216878501528881015189880152606080820151908801526080908101519087015260a09095019493820193600190910190610a7d565b9660019260059289839b9c9a5191610ae483610f18565b8089541683528689015416848301526002880154908201526003870154606082015285870154608082015281520193019301929196959496610a59565b82843461028a5760208060031936011261032f576001600160a01b03610b45610ec8565b16835260028152818320928251938482825493610b6185610ede565b90818452600195878782169182600014610bf5575050600114610bb3575b505060ff939291610b91910387610f66565b01541690610ba88351948486958652850190610f88565b911515908301520390f35b949392915085908386528186205b818710610bdc57509394929350909182010181610b91610b7f565b80548a8801840152919095019488925086918501610bc1565b60ff19168682015292151560051b85019092019250839150610b919050610b7f565b82843461028a57610c2736610ead565b909133845260209260028452610c4560ff6001848820015416610ffa565b610c5460ff6006541615611037565b6002855414610e5b57600285558452600383528084206003810190610c7c60ff8354166110a8565b6001810190610c8e85835410156110e7565b600281015492838602938685041486151715610e4857600154825486516323b872dd60e01b815233818d01526001600160a01b039182166024820152604481018790529094918990829060649082908e908a165af1908115610e3e578a91610e04575b5015610dc95798610da6918a610d2c897f1cbe81348d01d294ac68391c5ba74e03143dc0a19a85ee2dfb5adeca547fc5e29a9b9c9d54611133565b80915515610dbb575b50338a52808952610d70868b208585541690885191610d5383610f18565b3383528c8301528a89830152876060830152426080830152611140565b8383541690818b528952858a20865191610d8983610f18565b3383528a8301528887830152856060830152426080830152611140565b54169482519485528401523392a36001815580f35b805460ff191690558a610d35565b855162461bcd60e51b8152808b018990526015602482015274151bdad95b881d1c985b9cd9995c8819985a5b1959605a1b6044820152606490fd5b90508881813d8311610e37575b610e1b8183610f66565b81010312610e3357518015158103610e33578b610cf1565b8980fd5b503d610e11565b87513d8c823e3d90fd5b634e487b7160e01b885260118952602488fd5b8151633ee5aeb560e01b81528690fd5b823461026857806003193601126102685760ff19600654166006557f8aecbeb9f7203ec3dc62d2b9d20d5bcd70fe3808addcd647fc09e8b648441d928180a180f35b6040906003190112610ec3576004359060243590565b600080fd5b600435906001600160a01b0382168203610ec357565b90600182811c92168015610f0e575b6020831014610ef857565b634e487b7160e01b600052602260045260246000fd5b91607f1691610eed565b60a0810190811067ffffffffffffffff821117610f3457604052565b634e487b7160e01b600052604160045260246000fd5b6080810190811067ffffffffffffffff821117610f3457604052565b90601f8019910116810190811067ffffffffffffffff821117610f3457604052565b919082519283825260005b848110610fb4575050826000602080949584010152601f8019910116010190565b602081830181015184830182015201610f93565b8054821015610fe4576000526005602060002091020190600090565b634e487b7160e01b600052603260045260246000fd5b1561100157565b60405162461bcd60e51b815260206004820152600e60248201526d139bdd081c9959da5cdd195c995960921b6044820152606490fd5b1561103e57565b60405162461bcd60e51b815260206004820152601860248201527f456d657267656e63792073746f702061637469766174656400000000000000006044820152606490fd5b60001981146110925760010190565b634e487b7160e01b600052601160045260246000fd5b156110af57565b60405162461bcd60e51b815260206004820152601060248201526f4f66666572206e6f742061637469766560801b6044820152606490fd5b156110ee57565b60405162461bcd60e51b815260206004820152601b60248201527f4e6f7420656e6f75676820656e6572677920617661696c61626c6500000000006044820152606490fd5b9190820391821161109257565b805468010000000000000000811015610f345761116291600182018155610fc8565b9190916111b957608060049160018060a01b03808251166001600160601b0360a01b908187541617865560018601916020840151169082541617905560408101516002850155606081015160038501550151910155565b634e487b7160e01b600052600060045260246000fd5b156111d657565b60405162461bcd60e51b815260206004820152601060248201526f2737ba103a343290383937b23ab1b2b960811b6044820152606490fd5b67ffffffffffffffff8111610f345760051b60200190565b8051821015610fe45760209160051b01019056fea2646970667358221220a381c65e50f1865f686f6885f6b86b771b55e401df8b0b05eaa636a14068346564736f6c63430008140033",
  "linkReferences": {},
  "deployedLinkReferences": {}
}