{
  "_format": "hh-sol-artifact-1",
  "contractName": "EnergyToken",
  "sourceName": "contracts/EnergyToken.sol",
  "abi": [
    {
      "inputs": [
        {
          "internalType": "string",
          "name": "name",
          "type": "string"
        },
        {
          "internalType": "string",
          "name": "symbol",
          "type": "string"
        },
        {
          "internalType": "uint256",
          "name": "initialAmount",
          "type": "uint256"
        },
        {
          "internalType": "uint256",
          "name": "cap_",
          "type": "uint256"
        },
        {
          "internalType": "uint256",
          "name": "initialRate",
          "type": "uint256"
        }
      ],
      "stateMutability": "nonpayable",
      "type": "constructor"
    },
    {
      "inputs": [
        {
          "internalType": "address",
          "name": "spender",
          "type": "address"
        },
        {
          "internalType": "uint256",
          "name": "allowance",
          "type": "uint256"
        },
        {
          "internalType": "uint256",
          "name": "needed",
          "type": "uint256"
        }
      ],
      "name": "ERC20InsufficientAllowance",
      "type": "error"
    },
    {
      "inputs": [
        {
          "internalType": "address",
          "name": "sender",
          "type": "address"
        },
        {
          "internalType": "uint256",
          "name": "balance",
          "type": "uint256"
        },
        {
          "internalType": "uint256",
          "name": "needed",
          "type": "uint256"
        }
      ],
      "name": "ERC20InsufficientBalance",
      "type": "error"
    },
    {
      "inputs": [
        {
          "internalType": "address",
          "name": "approver",
          "type": "address"
        }
      ],
      "name": "ERC20InvalidApprover",
      "type": "error"
    },
    {
      "inputs": [
        {
          "internalType": "address",
          "name": "receiver",
          "type": "address"
        }
      ],
      "name": "ERC20InvalidReceiver",
      "type": "error"
    },
    {
      "inputs": [
        {
          "internalType": "address",
          "name": "sender",
          "type": "address"
        }
      ],
      "name": "ERC20InvalidSender",
      "type": "error"
    },
    {
      "inputs": [
        {
          "internalType": "address",
          "name": "spender",
          "type": "address"
        }
      ],
      "name": "ERC20InvalidSpender",
      "type": "error"
    },
    {
      "inputs": [],
      "name": "EnforcedPause",
      "type": "error"
    },
    {
      "inputs": [],
      "name": "ExpectedPause",
      "type": "error"
    },
    {
      "inputs": [
        {
          "internalType": "address",
          "name": "owner",
          "type": "address"
        }
      ],
      "name": "OwnableInvalidOwner",
      "type": "error"
    },
    {
      "inputs": [
        {
          "internalType": "address",
          "name": "account",
          "type": "address"
        }
      ],
      "name": "OwnableUnauthorizedAccount",
      "type": "error"
    },
    {
      "inputs": [],
      "name": "ReentrancyGuardReentrantCall",
      "type": "error"
    },
    {
      "anonymous": false,
      "inputs": [
        {
          "indexed": true,
          "internalType": "address",
          "name": "owner",
          "type": "address"
        },
        {
          "indexed": true,
          "internalType": "address",
          "name": "spender",
          "type": "address"
        },
        {
          "indexed": false,
          "internalType": "uint256",
          "name": "value",
          "type": "uint256"
        }
      ],
      "name": "Approval",
      "type": "event"
    },
    {
      "anonymous": false,
      "inputs": [
        {
          "indexed": true,
          "internalType": "address",
          "name": "previousOwner",
          "type": "address"
        },
        {
          "indexed": true,
          "internalType": "address",
          "name": "newOwner",
          "type": "address"
        }
      ],
      "name": "OwnershipTransferred",
      "type": "event"
    },
    {
      "anonymous": false,
      "inputs": [
        {
          "indexed": false,
          "internalType": "address",
          "name": "account",
          "type": "address"
        }
      ],
      "name": "Paused",
      "type": "event"
    },
    {
      "anonymous": false,
      "inputs": [
        {
          "indexed": false,
          "internalType": "uint256",
          "name": "oldRate",
          "type": "uint256"
        },
        {
          "indexed": false,
          "internalType": "uint256",
          "name": "newRate",
          "type": "uint256"
        }
      ],
      "name": "RateChanged",
      "type": "event"
    },
    {
      "anonymous": false,
      "inputs": [
        {
          "indexed": true,
          "internalType": "address",
          "name": "buyer",
          "type": "address"
        },
        {
          "indexed": false,
          "internalType": "uint256",
          "name": "ethAmount",
          "type": "uint256"
        },
        {
          "indexed": false,
          "internalType": "uint256",
          "name": "tokenAmount",
          "type": "uint256"
        }
      ],
      "name": "TokensPurchased",
      "type": "event"
    },
    {
      "anonymous": false,
      "inputs": [
        {
          "indexed": true,
          "internalType": "address",
          "name": "from",
          "type": "address"
        },
        {
          "indexed": true,
          "internalType": "address",
          "name": "to",
          "type": "address"
        },
        {
          "indexed": false,
          "internalType": "uint256",
          "name": "value",
          "type": "uint256"
        }
      ],
      "name": "Transfer",
      "type": "event"
    },
    {
      "anonymous": false,
      "inputs": [
        {
          "indexed": true,
          "internalType": "address",
          "name": "from",
          "type": "address"
        },
        {
          "indexed": true,
          "internalType": "address",
          "name": "to",
          "type": "address"
        },
        {
          "indexed": false,
          "internalType": "uint256",
          "name": "value",
          "type": "uint256"
        },
        {
          "indexed": false,
          "internalType": "bytes",
          "name": "data",
          "type": "bytes"
        }
      ],
      "name": "TransferAndCall",
      "type": "event"
    },
    {
      "anonymous": false,
      "inputs": [
        {
          "indexed": false,
          "internalType": "address",
          "name": "account",
          "type": "address"
        }
      ],
      "name": "Unpaused",
      "type": "event"
    },
    {
      "anonymous": false,
      "inputs": [
        {
          "indexed": true,
          "internalType": "address",
          "name": "owner",
          "type": "address"
        },
        {
          "indexed": false,
          "internalType": "uint256",
          "name": "amount",
          "type": "uint256"
        }
      ],
      "name": "WithdrawalMade",
      "type": "event"
    },
    {
      "inputs": [
        {
          "internalType": "address",
          "name": "owner",
          "type": "address"
        },
        {
          "internalType": "address",
          "name": "spender",
          "type": "address"
        }
      ],
      "name": "allowance",
      "outputs": [
        {
          "internalType": "uint256",
          "name": "",
          "type": "uint256"
        }
      ],
      "stateMutability": "view",
      "type": "function"
    },
    {
      "inputs": [
        {
          "internalType": "address",
          "name": "spender",
          "type": "address"
        },
        {
          "internalType": "uint256",
          "name": "value",
          "type": "uint256"
        }
      ],
      "name": "approve",
      "outputs": [
        {
          "internalType": "bool",
          "name": "",
          "type": "bool"
        }
      ],
      "stateMutability": "nonpayable",
      "type": "function"
    },
    {
      "inputs": [
        {
          "internalType": "address",
          "name": "account",
          "type": "address"
        }
      ],
      "name": "balanceOf",
      "outputs": [
        {
          "internalType": "uint256",
          "name": "",
          "type": "uint256"
        }
      ],
      "stateMutability": "view",
      "type": "function"
    },
    {
      "inputs": [
        {
          "internalType": "uint256",
          "name": "amount",
          "type": "uint256"
        }
      ],
      "name": "burn",
      "outputs": [],
      "stateMutability": "nonpayable",
      "type": "function"
    },
    {
      "inputs": [],
      "name": "buyTokens",
      "outputs": [],
      "stateMutability": "payable",
      "type": "function"
    },
    {
      "inputs": [],
      "name": "cap",
      "outputs": [
        {
          "internalType": "uint256",
          "name": "",
          "type": "uint256"
        }
      ],
      "stateMutability": "view",
      "type": "function"
    },
    {
      "inputs": [],
      "name": "decimals",
      "outputs": [
        {
          "internalType": "uint8",
          "name": "",
          "type": "uint8"
        }
      ],
      "stateMutability": "view",
      "type": "function"
    },
    {
      "inputs": [],
      "name": "maxPurchaseAmount",
      "outputs": [
        {
          "internalType": "uint256",
          "name": "",
          "type": "uint256"
        }
      ],
      "stateMutability": "view",
      "type": "function"
    },
    {
      "inputs": [],
      "name": "name",
      "outputs": [
        {
          "internalType": "string",
          "name": "",
          "type": "string"
        }
      ],
      "stateMutability": "view",
      "type": "function"
    },
    {
      "inputs": [],
      "name": "owner",
      "outputs": [
        {
          "internalType": "address",
          "name": "",
          "type": "address"
        }
      ],
      "stateMutability": "view",
      "type": "function"
    },
    {
      "inputs": [],
      "name": "pause",
      "outputs": [],
      "stateMutability": "nonpayable",
      "type": "function"
    },
    {
      "inputs": [],
      "name": "paused",
      "outputs": [
        {
          "internalType": "bool",
          "name": "",
          "type": "bool"
        }
      ],
      "stateMutability": "view",
      "type": "function"
    },
    {
      "inputs": [],
      "name": "rate",
      "outputs": [
        {
          "internalType": "uint256",
          "name": "",
          "type": "uint256"
        }
      ],
      "stateMutability": "view",
      "type": "function"
    },
    {
      "inputs": [],
      "name": "rateChangeTimelock",
      "outputs": [
        {
          "internalType": "uint256",
          "name": "",
          "type": "uint256"
        }
      ],
      "stateMutability": "view",
      "type": "function"
    },
    {
      "inputs": [],
      "name": "renounceOwnership",
      "outputs": [],
      "stateMutability": "nonpayable",
      "type": "function"
    },
    {
      "inputs": [
        {
          "internalType": "uint256",
          "name": "_maxAmount",
          "type": "uint256"
        }
      ],
      "name": "setMaxPurchaseAmount",
      "outputs": [],
      "stateMutability": "nonpayable",
      "type": "function"
    },
    {
      "inputs": [
        {
          "internalType": "uint256",
          "name": "newRate",
          "type": "uint256"
        }
      ],
      "name": "setRate",
      "outputs": [],
      "stateMutability": "nonpayable",
      "type": "function"
    },
    {
      "inputs": [],
      "name": "symbol",
      "outputs": [
        {
          "internalType": "string",
          "name": "",
          "type": "string"
        }
      ],
      "stateMutability": "view",
      "type": "function"
    },
    {
      "inputs": [],
      "name": "tokenCap",
      "outputs": [
        {
          "internalType": "uint256",
          "name": "",
          "type": "uint256"
        }
      ],
      "stateMutability": "view",
      "type": "function"
    },
    {
      "inputs": [],
      "name": "totalSupply",
      "outputs": [
        {
          "internalType": "uint256",
          "name": "",
          "type": "uint256"
        }
      ],
      "stateMutability": "view",
      "type": "function"
    },
    {
      "inputs": [
        {
          "internalType": "address",
          "name": "to",
          "type": "address"
        },
        {
          "internalType": "uint256",
          "name": "value",
          "type": "uint256"
        }
      ],
      "name": "transfer",
      "outputs": [
        {
          "internalType": "bool",
          "name": "",
          "type": "bool"
        }
      ],
      "stateMutability": "nonpayable",
      "type": "function"
    },
    {
      "inputs": [
        {
          "internalType": "address",
          "name": "to",
          "type": "address"
        },
        {
          "internalType": "uint256",
          "name": "value",
          "type": "uint256"
        },
        {
          "internalType": "bytes",
          "name": "data",
          "type": "bytes"
        }
      ],
      "name": "transferAndCall",
      "outputs": [
        {
          "internalType": "bool",
          "name": "",
          "type": "bool"
        }
      ],
      "stateMutability": "nonpayable",
      "type": "function"
    },
    {
      "inputs": [
        {
          "internalType": "address",
          "name": "from",
          "type": "address"
        },
        {
          "internalType": "address",
          "name": "to",
          "type": "address"
        },
        {
          "internalType": "uint256",
          "name": "value",
          "type": "uint256"
        }
      ],
      "name": "transferFrom",
      "outputs": [
        {
          "internalType": "bool",
          "name": "",
          "type": "bool"
        }
      ],
      "stateMutability": "nonpayable",
      "type": "function"
    },
    {
      "inputs": [
        {
          "internalType": "address",
          "name": "newOwner",
          "type": "address"
        }
      ],
      "name": "transferOwnership",
      "outputs": [],
      "stateMutability": "nonpayable",
      "type": "function"
    },
    {
      "inputs": [],
      "name": "unpause",
      "outputs": [],
      "stateMutability": "nonpayable",
      "type": "function"
    },
    {
      "inputs": [
        {
          "internalType": "uint256",
          "name": "amount",
          "type": "uint256"
        }
      ],
      "name": "withdraw",
      "outputs": [],
      "stateMutability": "nonpayable",
      "type": "function"
    }
  ],
  "bytecode": "0x604060a08152346200056d576200186e803803806200001e8162000572565b928339810160a0828203126200056d5781516001600160401b0392908381116200056d57826200005091830162000598565b9260209283830151908282116200056d576200006e91840162000598565b918581015194608060608301519201519281518181116200046d576003908154906001948583811c9316801562000562575b8a8410146200054c578190601f93848111620004f6575b508a908483116001146200048f5760009262000483575b505060001982851b1c191690851b1782555b86519283116200046d5760049687548581811c9116801562000462575b8a8210146200044d579081838695949311620003f3575b508991841160011462000388576000936200037c575b505082841b92600019911b1c19161784555b60055490331562000365576001600160a81b0319821633600881811b610100600160a81b03169290921760055589519390911c6001600160a01b03167f8be0079c531659141344cd1fd0a4f28419497f9722a3daafe3b4186f6b6457e0600080a36006558115620003245750808511620002e15781156200029e57670de0b6b3a764000080860295808704821490151715620002895780820291820403620002745760805260075569152d02c7e14af6800000600855600254908382018092116200025f57506000917fddf252ad1be2c89b69c2b068fc378daa952ba7f163c4a11628f55a4df523b3ef9160025533835282815284832084815401905584519384523393a35161126390816200060b82396080518181816102b70152610f090152f35b601190634e487b7160e01b6000525260246000fd5b601183634e487b7160e01b6000525260246000fd5b601184634e487b7160e01b6000525260246000fd5b855162461bcd60e51b8152808401859052601b60248201527f52617465206d7573742062652067726561746572207468616e203000000000006044820152606490fd5b855162461bcd60e51b8152808401859052601a60248201527f496e697469616c20616d6f756e742065786365656473206361700000000000006044820152606490fd5b62461bcd60e51b8152838101859052601a60248201527f436170206d7573742062652067726561746572207468616e20300000000000006044820152606490fd5b8751631e4fbdf760e01b8152600081870152602490fd5b0151915038806200012a565b9190859450601f19841692896000528a6000209360005b8c828210620003dc5750508511620003c1575b50505050811b0184556200013c565b01519060f884600019921b161c1916905538808080620003b2565b83850151875589989096019593840193016200039f565b909192935088600052896000208380870160051c8201928c881062000443575b9188918897969594930160051c01915b8281106200043357505062000114565b6000815587965088910162000423565b9250819262000413565b602289634e487b7160e01b6000525260246000fd5b90607f1690620000fd565b634e487b7160e01b600052604160045260246000fd5b015190503880620000ce565b60008681528c8120899550929190601f198516908e5b828210620004de5750508411620004c5575b505050811b018255620000e0565b015160001983871b60f8161c19169055388080620004b7565b8385015186558b979095019493840193018e620004a5565b909150846000528a6000208480850160051c8201928d861062000542575b918991869594930160051c01915b82811062000532575050620000b7565b6000815585945089910162000522565b9250819262000514565b634e487b7160e01b600052602260045260246000fd5b92607f1692620000a0565b600080fd5b6040519190601f01601f191682016001600160401b038111838210176200046d57604052565b919080601f840112156200056d5782516001600160401b0381116200046d57602090620005ce601f8201601f1916830162000572565b928184528282870101116200056d5760005b818110620005f657508260009394955001015290565b8581018301518482018401528201620005e056fe608060408181526004918236101561001657600080fd5b600092833560e01c91826306fdde0314610d8257508163095ea7b314610cd85781630b75284a14610cb957816318160ddd14610c9a57816323b872dd14610ba65781632c4e722e14610b875781632e1a7d4d14610a9a578163313ce56714610a7e57816334fcf4371461096f578163355274ea1461024e5781633f4ba83a146109055781634000aea01461088c57816342966c68146107c75781635c975abb146107a357816370a082311461076c578163715018a6146107085781638456cb59146106ad5781638da5cb5b1461068057816395d89b411461057d578163a5fa12f0146104fb578163a9059cbb146104ca578163d0febe4c14610253578163dd54291b1461024e578163dd62ed3e14610205578163f2fde38b14610164575063f952fcad1461014357600080fd5b346101605781600319360112610160576020906008549051908152f35b5080fd5b9050346102015760203660031901126102015761017f610ec0565b610187610f2c565b6001600160a01b038181169390929084156101eb57505060058054610100600160a81b03198116600893841b610100600160a81b031617909155901c167f8be0079c531659141344cd1fd0a4f28419497f9722a3daafe3b4186f6b6457e08380a380f35b51631e4fbdf760e01b8152908101859052602490fd5b8280fd5b50503461016057806003193601126101605780602092610223610ec0565b61022b610edb565b6001600160a01b0391821683526001865283832091168252845220549051908152f35b610ef1565b919050826003193601126102015761026961120a565b6102716111c9565b331561048757341561044b57600754803402903482040361043857670de0b6b3a764000090049182156103f65760085483116103b457600254906102b584836111e7565b7f000000000000000000000000000000000000000000000000000000000000000010610365575090610310837f8fafebcaf9d154343dad25669bfa277f4fbacd7ac6b0c4fed522580e040a0f339361030b6111c9565b6111e7565b600255338452836020528084208381540190558051838152847fddf252ad1be2c89b69c2b068fc378daa952ba7f163c4a11628f55a4df523b3ef60203393a380519234845260208401523392a2600160065580f35b608490602084519162461bcd60e51b8352820152602360248201527f4e6f7420656e6f75676820746f6b656e7320617661696c61626c6520746f206d6044820152621a5b9d60ea1b6064820152fd5b6020606492519162461bcd60e51b8352820152602060248201527f50757263686173652065786365656473206d6178696d756d20616c6c6f7765646044820152fd5b6020606492519162461bcd60e51b8352820152601760248201527f4e6f7420656e6f756768204554482070726f76696465640000000000000000006044820152fd5b634e487b7160e01b845260118352602484fd5b906020606492519162461bcd60e51b8352820152601660248201527553656e642045544820746f2062757920746f6b656e7360501b6044820152fd5b906020606492519162461bcd60e51b8352820152601860248201527f41646472657373206d757374206265206e6f6e2d7a65726f00000000000000006044820152fd5b5050346101605780600319360112610160576020906104f46104ea610ec0565b6024359033610f93565b5160018152f35b90503461020157602036600319011261020157803591610519610f2c565b821561052757505060085580f35b906020608492519162461bcd60e51b8352820152602a60248201527f4d617820707572636861736520616d6f756e74206d75737420626520677265616044820152690746572207468616e20360b41b6064820152fd5b838334610160578160031936011261016057805191809380549160019083821c92828516948515610676575b60209586861081146106635785895290811561063f57506001146105e7575b6105e387876105d9828c0383610f5b565b5191829182610e77565b0390f35b81529295507f8a35acfbc15ff81a39ae7d344fd709f28e8600b4aa8c65c6b64bfe7fe36bd19b5b82841061062c57505050826105e3946105d9928201019486806105c8565b805486850188015292860192810161060e565b60ff19168887015250505050151560051b83010192506105d9826105e386806105c8565b634e487b7160e01b845260228352602484fd5b93607f16936105a9565b505034610160578160031936011261016057600554905160089190911c6001600160a01b03168152602090f35b50503461016057816003193601126101605760207f62e78cea01bee320cd4e420270b5ea74000d11b0c9f74754ebdbfc544b05a258916106eb610f2c565b6106f36111c9565b600160ff19600554161760055551338152a180f35b8334610769578060031936011261076957610721610f2c565b60058054610100600160a81b03198116909155819060081c6001600160a01b03167f8be0079c531659141344cd1fd0a4f28419497f9722a3daafe3b4186f6b6457e08280a380f35b80fd5b5050346101605760203660031901126101605760209181906001600160a01b03610794610ec0565b16815280845220549051908152f35b50503461016057816003193601126101605760209060ff6005541690519015158152f35b838334610160576020366003190112610160578235906107e56111c9565b3315610876576107f36111c9565b33835282602052808320549382851061084b57508183943385528460205203818420558160025403600255519081527fddf252ad1be2c89b69c2b068fc378daa952ba7f163c4a11628f55a4df523b3ef60203392a380f35b905163391434e360e21b81523391810191825260208201859052604082018390529081906060010390fd5b51634b637e8f60e11b8152808401839052602490fd5b828434610769576060366003190112610769576108a7610ec0565b906044359067ffffffffffffffff948583116101605736602384011215610160578201359485116107695736602486840101116107695750926108fc9160246020956108f16111c9565b01906024359061109a565b90519015158152f35b90503461020157826003193601126102015761091f610f2c565b6005549060ff821615610961575060ff1916600555513381527f5db9ee0a495bf2e6ff9c91a7834c1ba4fdd244a5e8aa4e537bd38aeae4b073aa90602090a180f35b8251638dfc202b60e01b8152fd5b83833461016057602036600319011261016057823561098c610f2c565b8015610a3b5760095442106109f85760075490806007556201518042018042116109e5577f4ac9052a820bf4f8c02d7588587cae835573b5b99ea7ad4ca002f17f319f718694955060095582519182526020820152a180f35b634e487b7160e01b855260118652602485fd5b815162461bcd60e51b8152602081860152601a60248201527f52617465206368616e67652069732074696d652d6c6f636b65640000000000006044820152606490fd5b815162461bcd60e51b8152602081860152601b60248201527f52617465206d7573742062652067726561746572207468616e203000000000006044820152606490fd5b5050346101605781600319360112610160576020905160128152f35b905034610201576020366003190112610201578035610ab7610f2c565b610abf61120a565b80610b81575047905b478211610b4757506005548380838015610b3d575b82809291819260018060a01b03809760081c1690f115610b31577fbc158bb64f05d6383aea69bbb0b20c1bbf4b7a18f63359c5649b7c39e29d38849160209160055460081c169351908152a2600160065580f35b505051903d90823e3d90fd5b6108fc9150610add565b606490602084519162461bcd60e51b83528201526014602482015273496e73756666696369656e742062616c616e636560601b6044820152fd5b90610ac8565b5050346101605781600319360112610160576020906007549051908152f35b9050823461076957606036600319011261076957610bc2610ec0565b610bca610edb565b916044359360018060a01b038316808352600160205286832033845260205286832054916000198310610c06575b6020886104f4898989610f93565b868310610c6e578115610c57573315610c40575082526001602090815286832033845281529186902090859003905582906104f487610bf8565b8751634a1406b160e11b8152908101849052602490fd5b875163e602df0560e01b8152908101849052602490fd5b8751637dc7a0d960e11b8152339181019182526020820193909352604081018790528291506060010390fd5b5050346101605781600319360112610160576020906002549051908152f35b5050346101605781600319360112610160576020906009549051908152f35b905034610201578160031936011261020157610cf2610ec0565b602435903315610d6b576001600160a01b0316918215610d5457508083602095338152600187528181208582528752205582519081527f8c5be1e5ebec7d5bd14f71427d1e84f3dd0314c0f7b2291e5b200ac8c7c3b925843392a35160018152f35b8351634a1406b160e11b8152908101859052602490fd5b835163e602df0560e01b8152808401869052602490fd5b92915034610e735783600319360112610e7357600354600181811c9186908281168015610e69575b6020958686108214610e565750848852908115610e345750600114610ddb575b6105e386866105d9828b0383610f5b565b929550600383527fc2575a0e9e593c00f959f8c92f12db2869c3395a3b0502d05e2516446f71f85b5b828410610e2157505050826105e3946105d9928201019438610dca565b8054868501880152928601928101610e04565b60ff191687860152505050151560051b83010192506105d9826105e338610dca565b634e487b7160e01b845260229052602483fd5b93607f1693610daa565b8380fd5b6020808252825181830181905290939260005b828110610eac57505060409293506000838284010152601f8019910116010190565b818101860151848201604001528501610e8a565b600435906001600160a01b0382168203610ed657565b600080fd5b602435906001600160a01b0382168203610ed657565b34610ed6576000366003190112610ed65760206040517f00000000000000000000000000000000000000000000000000000000000000008152f35b60055460081c6001600160a01b03163303610f4357565b60405163118cdaa760e01b8152336004820152602490fd5b90601f8019910116810190811067ffffffffffffffff821117610f7d57604052565b634e487b7160e01b600052604160045260246000fd5b916001600160a01b03808416928315611060571692831561104757610fb66111c9565b60009083825281602052604082205490838210611015575091604082827fddf252ad1be2c89b69c2b068fc378daa952ba7f163c4a11628f55a4df523b3ef958760209652828652038282205586815220818154019055604051908152a3565b60405163391434e360e21b81526001600160a01b03919091166004820152602481019190915260448101839052606490fd5b60405163ec442f0560e01b815260006004820152602490fd5b604051634b637e8f60e11b815260006004820152602490fd5b908060209392818452848401376000828201840152601f01601f1916010190565b929092803b156111b6576110af848233610f93565b604051635260769b60e11b815233600482015260248101859052606060448201526001600160a01b0391909116926000602083806110f1606482018887611079565b038184895af18181611155575b507fce8124fd2ae9fd7904103e5a9ebe88b527b9ca0e32a32fd497845c82706542d3935061114f57506001945b61114960405192839283526040602084015233956040840191611079565b0390a390565b9461112b565b915091926020813d82116111ae575b8161117160209383610f5b565b81010312610160575190811515820361076957507fce8124fd2ae9fd7904103e5a9ebe88b527b9ca0e32a32fd497845c82706542d39291386110fe565b3d9150611164565b90506111c492915033610f93565b600190565b60ff600554166111d557565b60405163d93c066560e01b8152600490fd5b919082018092116111f457565b634e487b7160e01b600052601160045260246000fd5b60026006541461121b576002600655565b604051633ee5aeb560e01b8152600490fdfea2646970667358221220458ac05f1ad83459511610f0aee507a1a6139b4d4a6a06f102974107568d0fc664736f6c63430008140033",
  "linkReferences": {},
  "deployedLinkReferences": {}
}