{
  "_format": "hh-sol-artifact-1",
  "contractName": "EnergyToken",
  "sourceName": "contracts/EnergyToken.sol",
  "abi": [
    {
      "inputs": [
        {
          "internalType": "string",
          "name": "name",
          "type": "string"
        },
        {
          "internalType": "string",
          "name": "symbol",
          "type": "string"
        },
        {
          "internalType": "uint256",
          "name": "initialAmount",
          "type": "uint256"
        }
      ],
      "stateMutability": "nonpayable",
      "type": "constructor"
    },
    {
      "inputs": [
        {
          "internalType": "address",
          "name": "spender",
          "type": "address"
        },
        {
          "internalType": "uint256",
          "name": "allowance",
          "type": "uint256"
        },
        {
          "internalType": "uint256",
          "name": "needed",
          "type": "uint256"
        }
      ],
      "name": "ERC20InsufficientAllowance",
      "type": "error"
    },
    {
      "inputs": [
        {
          "internalType": "address",
          "name": "sender",
          "type": "address"
        },
        {
          "internalType": "uint256",
          "name": "balance",
          "type": "uint256"
        },
        {
          "internalType": "uint256",
          "name": "needed",
          "type": "uint256"
        }
      ],
      "name": "ERC20InsufficientBalance",
      "type": "error"
    },
    {
      "inputs": [
        {
          "internalType": "address",
          "name": "approver",
          "type": "address"
        }
      ],
      "name": "ERC20InvalidApprover",
      "type": "error"
    },
    {
      "inputs": [
        {
          "internalType": "address",
          "name": "receiver",
          "type": "address"
        }
      ],
      "name": "ERC20InvalidReceiver",
      "type": "error"
    },
    {
      "inputs": [
        {
          "internalType": "address",
          "name": "sender",
          "type": "address"
        }
      ],
      "name": "ERC20InvalidSender",
      "type": "error"
    },
    {
      "inputs": [
        {
          "internalType": "address",
          "name": "spender",
          "type": "address"
        }
      ],
      "name": "ERC20InvalidSpender",
      "type": "error"
    },
    {
      "inputs": [
        {
          "internalType": "address",
          "name": "owner",
          "type": "address"
        }
      ],
      "name": "OwnableInvalidOwner",
      "type": "error"
    },
    {
      "inputs": [
        {
          "internalType": "address",
          "name": "account",
          "type": "address"
        }
      ],
      "name": "OwnableUnauthorizedAccount",
      "type": "error"
    },
    {
      "anonymous": false,
      "inputs": [
        {
          "indexed": true,
          "internalType": "address",
          "name": "owner",
          "type": "address"
        },
        {
          "indexed": true,
          "internalType": "address",
          "name": "spender",
          "type": "address"
        },
        {
          "indexed": false,
          "internalType": "uint256",
          "name": "value",
          "type": "uint256"
        }
      ],
      "name": "Approval",
      "type": "event"
    },
    {
      "anonymous": false,
      "inputs": [
        {
          "indexed": true,
          "internalType": "address",
          "name": "previousOwner",
          "type": "address"
        },
        {
          "indexed": true,
          "internalType": "address",
          "name": "newOwner",
          "type": "address"
        }
      ],
      "name": "OwnershipTransferred",
      "type": "event"
    },
    {
      "anonymous": false,
      "inputs": [
        {
          "indexed": true,
          "internalType": "address",
          "name": "from",
          "type": "address"
        },
        {
          "indexed": true,
          "internalType": "address",
          "name": "to",
          "type": "address"
        },
        {
          "indexed": false,
          "internalType": "uint256",
          "name": "value",
          "type": "uint256"
        }
      ],
      "name": "Transfer",
      "type": "event"
    },
    {
      "anonymous": false,
      "inputs": [
        {
          "indexed": true,
          "internalType": "address",
          "name": "from",
          "type": "address"
        },
        {
          "indexed": true,
          "internalType": "address",
          "name": "to",
          "type": "address"
        },
        {
          "indexed": false,
          "internalType": "uint256",
          "name": "value",
          "type": "uint256"
        },
        {
          "indexed": false,
          "internalType": "bytes",
          "name": "data",
          "type": "bytes"
        }
      ],
      "name": "TransferAndCall",
      "type": "event"
    },
    {
      "inputs": [
        {
          "internalType": "address",
          "name": "owner",
          "type": "address"
        },
        {
          "internalType": "address",
          "name": "spender",
          "type": "address"
        }
      ],
      "name": "allowance",
      "outputs": [
        {
          "internalType": "uint256",
          "name": "",
          "type": "uint256"
        }
      ],
      "stateMutability": "view",
      "type": "function"
    },
    {
      "inputs": [
        {
          "internalType": "address",
          "name": "spender",
          "type": "address"
        },
        {
          "internalType": "uint256",
          "name": "value",
          "type": "uint256"
        }
      ],
      "name": "approve",
      "outputs": [
        {
          "internalType": "bool",
          "name": "",
          "type": "bool"
        }
      ],
      "stateMutability": "nonpayable",
      "type": "function"
    },
    {
      "inputs": [
        {
          "internalType": "address",
          "name": "account",
          "type": "address"
        }
      ],
      "name": "balanceOf",
      "outputs": [
        {
          "internalType": "uint256",
          "name": "",
          "type": "uint256"
        }
      ],
      "stateMutability": "view",
      "type": "function"
    },
    {
      "inputs": [
        {
          "internalType": "uint256",
          "name": "amount",
          "type": "uint256"
        }
      ],
      "name": "burn",
      "outputs": [],
      "stateMutability": "nonpayable",
      "type": "function"
    },
    {
      "inputs": [],
      "name": "buyTokens",
      "outputs": [],
      "stateMutability": "payable",
      "type": "function"
    },
    {
      "inputs": [],
      "name": "cap",
      "outputs": [
        {
          "internalType": "uint256",
          "name": "",
          "type": "uint256"
        }
      ],
      "stateMutability": "view",
      "type": "function"
    },
    {
      "inputs": [],
      "name": "decimals",
      "outputs": [
        {
          "internalType": "uint8",
          "name": "",
          "type": "uint8"
        }
      ],
      "stateMutability": "view",
      "type": "function"
    },
    {
      "inputs": [],
      "name": "name",
      "outputs": [
        {
          "internalType": "string",
          "name": "",
          "type": "string"
        }
      ],
      "stateMutability": "view",
      "type": "function"
    },
    {
      "inputs": [],
      "name": "owner",
      "outputs": [
        {
          "internalType": "address",
          "name": "",
          "type": "address"
        }
      ],
      "stateMutability": "view",
      "type": "function"
    },
    {
      "inputs": [],
      "name": "rate",
      "outputs": [
        {
          "internalType": "uint256",
          "name": "",
          "type": "uint256"
        }
      ],
      "stateMutability": "view",
      "type": "function"
    },
    {
      "inputs": [],
      "name": "renounceOwnership",
      "outputs": [],
      "stateMutability": "nonpayable",
      "type": "function"
    },
    {
      "inputs": [
        {
          "internalType": "uint256",
          "name": "newRate",
          "type": "uint256"
        }
      ],
      "name": "setRate",
      "outputs": [],
      "stateMutability": "nonpayable",
      "type": "function"
    },
    {
      "inputs": [],
      "name": "symbol",
      "outputs": [
        {
          "internalType": "string",
          "name": "",
          "type": "string"
        }
      ],
      "stateMutability": "view",
      "type": "function"
    },
    {
      "inputs": [],
      "name": "totalSupply",
      "outputs": [
        {
          "internalType": "uint256",
          "name": "",
          "type": "uint256"
        }
      ],
      "stateMutability": "view",
      "type": "function"
    },
    {
      "inputs": [
        {
          "internalType": "address",
          "name": "to",
          "type": "address"
        },
        {
          "internalType": "uint256",
          "name": "value",
          "type": "uint256"
        }
      ],
      "name": "transfer",
      "outputs": [
        {
          "internalType": "bool",
          "name": "",
          "type": "bool"
        }
      ],
      "stateMutability": "nonpayable",
      "type": "function"
    },
    {
      "inputs": [
        {
          "internalType": "address",
          "name": "to",
          "type": "address"
        },
        {
          "internalType": "uint256",
          "name": "value",
          "type": "uint256"
        },
        {
          "internalType": "bytes",
          "name": "data",
          "type": "bytes"
        }
      ],
      "name": "transferAndCall",
      "outputs": [
        {
          "internalType": "bool",
          "name": "",
          "type": "bool"
        }
      ],
      "stateMutability": "nonpayable",
      "type": "function"
    },
    {
      "inputs": [
        {
          "internalType": "address",
          "name": "from",
          "type": "address"
        },
        {
          "internalType": "address",
          "name": "to",
          "type": "address"
        },
        {
          "internalType": "uint256",
          "name": "value",
          "type": "uint256"
        }
      ],
      "name": "transferFrom",
      "outputs": [
        {
          "internalType": "bool",
          "name": "",
          "type": "bool"
        }
      ],
      "stateMutability": "nonpayable",
      "type": "function"
    },
    {
      "inputs": [
        {
          "internalType": "address",
          "name": "newOwner",
          "type": "address"
        }
      ],
      "name": "transferOwnership",
      "outputs": [],
      "stateMutability": "nonpayable",
      "type": "function"
    },
    {
      "inputs": [],
      "name": "withdraw",
      "outputs": [],
      "stateMutability": "nonpayable",
      "type": "function"
    }
  ],
  "bytecode": "0x6040608081523462000404576200118f803803806200001e8162000409565b9283398101606082820312620004045781516001600160401b039290838111620004045782620000509183016200042f565b60209283830151858111620004045786916200006e9185016200042f565b92015193815181811162000304576003908154906001948583811c93168015620003f9575b88841014620003e3578190601f938481116200038d575b50889084831160011462000326576000926200031a575b505060001982851b1c191690851b1782555b8451928311620003045760049485548581811c91168015620002f9575b88821014620002e45782811162000299575b50869184116001146200022e5793839491849260009562000222575b50501b92600019911b1c19161781555b33156200020b5760058054336001600160a01b0319821681179092556001600160a01b03167f8be0079c531659141344cd1fd0a4f28419497f9722a3daafe3b4186f6b6457e0600080a3612710600655670de0b6b3a764000092838102938185041490151715620001f65760025490838201809211620001f657506000917fddf252ad1be2c89b69c2b068fc378daa952ba7f163c4a11628f55a4df523b3ef9160025533835282815284832084815401905584519384523393a351610ced9081620004a28239f35b601190634e487b7160e01b6000525260246000fd5b6024906000855191631e4fbdf760e01b8352820152fd5b0151935038806200011e565b9190601f198416928660005284886000209460005b8a8983831062000281575050501062000266575b50505050811b0181556200012e565b01519060f884600019921b161c191690553880808062000257565b86860151895590970196948501948893500162000243565b86600052876000208380870160051c8201928a8810620002da575b0160051c019086905b828110620002cd57505062000102565b60008155018690620002bd565b92508192620002b4565b602287634e487b7160e01b6000525260246000fd5b90607f1690620000f0565b634e487b7160e01b600052604160045260246000fd5b015190503880620000c1565b90879350601f19831691866000528a6000209260005b8c8282106200037657505084116200035d575b505050811b018255620000d3565b015160001983871b60f8161c191690553880806200034f565b8385015186558b979095019493840193016200033c565b90915084600052886000208480850160051c8201928b8610620003d9575b918991869594930160051c01915b828110620003c9575050620000aa565b60008155859450899101620003b9565b92508192620003ab565b634e487b7160e01b600052602260045260246000fd5b92607f169262000093565b600080fd5b6040519190601f01601f191682016001600160401b038111838210176200030457604052565b919080601f84011215620004045782516001600160401b038111620003045760209062000465601f8201601f1916830162000409565b92818452828287010111620004045760005b8181106200048d57508260009394955001015290565b85810183015184820184015282016200047756fe6080604081815260048036101561001557600080fd5b600092833560e01c90816306fdde03146108d257508063095ea7b31461082957806318160ddd1461080a57806323b872dd146107175780632c4e722e146106f8578063313ce567146106dc57806334fcf4371461066e578063355274ea146106495780633ccfd60b146105f95780634000aea01461058857806342966c68146104d257806370a082311461049b578063715018a61461043b5780638da5cb5b1461041257806395d89b411461030e578063a9059cbb146102dd578063d0febe4c146101d3578063dd62ed3e146101865763f2fde38b146100f457600080fd5b346101825760203660031901126101825761010d610a11565b90610116610a42565b6001600160a01b0391821692831561016c575050600554826bffffffffffffffffffffffff60a01b821617600555167f8be0079c531659141344cd1fd0a4f28419497f9722a3daafe3b4186f6b6457e08380a380f35b51631e4fbdf760e01b8152908101849052602490fd5b8280fd5b5050346101cf57806003193601126101cf57806020926101a4610a11565b6101ac610a2c565b6001600160a01b0391821683526001865283832091168252845220549051908152f35b5080fd5b50908260031936011261018257600654918234029234840414341517156102ca576002549069d3c21bcecceda100000061020d8584610b84565b1161027b57331561026457508261022391610b84565b6002553383528260205280832082815401905551908152817fddf252ad1be2c89b69c2b068fc378daa952ba7f163c4a11628f55a4df523b3ef60203393a380f35b825163ec442f0560e01b8152908101859052602490fd5b608490602084519162461bcd60e51b8352820152602360248201527f4e6f7420656e6f75676820746f6b656e7320617661696c61626c6520746f206d6044820152621a5b9d60ea1b6064820152fd5b634e487b7160e01b845260119052602483fd5b5050346101cf57806003193601126101cf576020906103076102fd610a11565b6024359033610aa6565b5160018152f35b509190346101cf57816003193601126101cf57805191809380549160019083821c92828516948515610408575b60209586861081146103f5578589529081156103d15750600114610379575b610375878761036b828c0383610a6e565b51918291826109c8565b0390f35b81529295507f8a35acfbc15ff81a39ae7d344fd709f28e8600b4aa8c65c6b64bfe7fe36bd19b5b8284106103be57505050826103759461036b9282010194388061035a565b80548685018801529286019281016103a0565b60ff19168887015250505050151560051b830101925061036b82610375388061035a565b634e487b7160e01b845260228352602484fd5b93607f169361033b565b5050346101cf57816003193601126101cf5760055490516001600160a01b039091168152602090f35b8334610498578060031936011261049857610454610a42565b600580546001600160a01b0319811690915581906001600160a01b03167f8be0079c531659141344cd1fd0a4f28419497f9722a3daafe3b4186f6b6457e08280a380f35b80fd5b5050346101cf5760203660031901126101cf5760209181906001600160a01b036104c3610a11565b16815280845220549051908152f35b509190346101cf5760203660031901126101cf5782359033156105725733835282602052808320549382851061054757508183943385528460205203818420558160025403600255519081527fddf252ad1be2c89b69c2b068fc378daa952ba7f163c4a11628f55a4df523b3ef60203392a380f35b905163391434e360e21b81523391810191825260208201859052604082018390529081906060010390fd5b51634b637e8f60e11b8152808401839052602490fd5b509134610498576060366003190112610498576105a3610a11565b906044359067ffffffffffffffff948583116101cf57366023840112156101cf578201359485116104985736602486840101116104985750926105f0916024602095019060243590610bc8565b90519015158152f35b5050346101cf57816003193601126101cf57610613610a42565b8180808060018060a01b03600554164790828215610640575bf115610636575080f35b51903d90823e3d90fd5b506108fc61062c565b5050346101cf57816003193601126101cf576020905169d3c21bcecceda10000008152f35b50346101825760203660031901126101825780359161068b610a42565b821561069957505060065580f35b906020606492519162461bcd60e51b8352820152601b60248201527f52617465206d7573742062652067726561746572207468616e203000000000006044820152fd5b5050346101cf57816003193601126101cf576020905160128152f35b5050346101cf57816003193601126101cf576020906006549051908152f35b50823461049857606036600319011261049857610732610a11565b61073a610a2c565b916044359360018060a01b038316808352600160205286832033845260205286832054916000198310610776575b602088610307898989610aa6565b8683106107de5781156107c75733156107b05750825260016020908152868320338452815291869020908590039055829061030787610768565b8751634a1406b160e11b8152908101849052602490fd5b875163e602df0560e01b8152908101849052602490fd5b8751637dc7a0d960e11b8152339181019182526020820193909352604081018790528291506060010390fd5b5050346101cf57816003193601126101cf576020906002549051908152f35b5034610182578160031936011261018257610842610a11565b6024359033156108bb576001600160a01b03169182156108a457508083602095338152600187528181208582528752205582519081527f8c5be1e5ebec7d5bd14f71427d1e84f3dd0314c0f7b2291e5b200ac8c7c3b925843392a35160018152f35b8351634a1406b160e11b8152908101859052602490fd5b835163e602df0560e01b8152808401869052602490fd5b92919050346109c457836003193601126109c457600354600181811c91869082811680156109ba575b60209586861082146109a75750848852908115610985575060011461092c575b610375868661036b828b0383610a6e565b929550600383527fc2575a0e9e593c00f959f8c92f12db2869c3395a3b0502d05e2516446f71f85b5b82841061097257505050826103759461036b92820101943861091b565b8054868501880152928601928101610955565b60ff191687860152505050151560051b830101925061036b826103753861091b565b634e487b7160e01b845260229052602483fd5b93607f16936108fb565b8380fd5b6020808252825181830181905290939260005b8281106109fd57505060409293506000838284010152601f8019910116010190565b8181018601518482016040015285016109db565b600435906001600160a01b0382168203610a2757565b600080fd5b602435906001600160a01b0382168203610a2757565b6005546001600160a01b03163303610a5657565b60405163118cdaa760e01b8152336004820152602490fd5b90601f8019910116810190811067ffffffffffffffff821117610a9057604052565b634e487b7160e01b600052604160045260246000fd5b916001600160a01b03808416928315610b6b5716928315610b525760009083825281602052604082205490838210610b20575091604082827fddf252ad1be2c89b69c2b068fc378daa952ba7f163c4a11628f55a4df523b3ef958760209652828652038282205586815220818154019055604051908152a3565b60405163391434e360e21b81526001600160a01b03919091166004820152602481019190915260448101839052606490fd5b60405163ec442f0560e01b815260006004820152602490fd5b604051634b637e8f60e11b815260006004820152602490fd5b91908201809211610b9157565b634e487b7160e01b600052601160045260246000fd5b908060209392818452848401376000828201840152601f01601f1916010190565b929192610bd6828233610aa6565b803b610be55750505050600090565b6001600160a01b031692833b15610a2757604051635260769b60e11b815233600482015260248101839052606060448201529160008380610c2a606482018887610ba7565b038183895af1610c7e575b7fce8124fd2ae9fd7904103e5a9ebe88b527b9ca0e32a32fd497845c82706542d39250610c7660405192839283526040602084015233956040840191610ba7565b0390a3600190565b67ffffffffffffffff8311610a90577fce8124fd2ae9fd7904103e5a9ebe88b527b9ca0e32a32fd497845c82706542d392604052610c3556fea2646970667358221220f107f37d38c4cb36dc7b46e09ce75de9808c2967c335a9af2237ad0c40d65c3f64736f6c63430008140033",
  "linkReferences": {},
  "deployedLinkReferences": {}
}